{
	"contracts/Projet_Blockchain/_Etablissement.sol": {
		"EstablishmentContract": {
			"abi": [
				{
					"inputs": [],
					"stateMutability": "nonpayable",
					"type": "constructor"
				},
				{
					"inputs": [
						{
							"internalType": "uint256",
							"name": "_id",
							"type": "uint256"
						},
						{
							"internalType": "uint256",
							"name": "_studentId",
							"type": "uint256"
						},
						{
							"internalType": "string",
							"name": "_establishmentName",
							"type": "string"
						},
						{
							"internalType": "string",
							"name": "_type",
							"type": "string"
						},
						{
							"internalType": "string",
							"name": "_mention",
							"type": "string"
						}
					],
					"name": "addDiploma",
					"outputs": [],
					"stateMutability": "nonpayable",
					"type": "function"
				},
				{
					"inputs": [],
					"name": "admin",
					"outputs": [
						{
							"internalType": "address",
							"name": "",
							"type": "address"
						}
					],
					"stateMutability": "view",
					"type": "function"
				},
				{
					"inputs": [
						{
							"internalType": "uint256",
							"name": "_id",
							"type": "uint256"
						},
						{
							"internalType": "string",
							"name": "_name",
							"type": "string"
						},
						{
							"internalType": "string",
							"name": "_type",
							"type": "string"
						}
					],
					"name": "createEstablishment",
					"outputs": [],
					"stateMutability": "nonpayable",
					"type": "function"
				},
				{
					"inputs": [
						{
							"internalType": "uint256",
							"name": "_id",
							"type": "uint256"
						},
						{
							"internalType": "string",
							"name": "_name",
							"type": "string"
						},
						{
							"internalType": "string",
							"name": "_surname",
							"type": "string"
						},
						{
							"internalType": "string",
							"name": "_gender",
							"type": "string"
						}
					],
					"name": "createStudent",
					"outputs": [],
					"stateMutability": "nonpayable",
					"type": "function"
				},
				{
					"inputs": [
						{
							"internalType": "uint256",
							"name": "",
							"type": "uint256"
						}
					],
					"name": "diplomas",
					"outputs": [
						{
							"internalType": "uint256",
							"name": "id",
							"type": "uint256"
						},
						{
							"internalType": "uint256",
							"name": "studentId",
							"type": "uint256"
						},
						{
							"internalType": "uint256",
							"name": "establishmentId",
							"type": "uint256"
						},
						{
							"internalType": "string",
							"name": "establishmentName",
							"type": "string"
						},
						{
							"internalType": "string",
							"name": "type_",
							"type": "string"
						},
						{
							"internalType": "string",
							"name": "mention",
							"type": "string"
						}
					],
					"stateMutability": "view",
					"type": "function"
				},
				{
					"inputs": [
						{
							"internalType": "address",
							"name": "",
							"type": "address"
						}
					],
					"name": "establishmentAdmins",
					"outputs": [
						{
							"internalType": "uint256",
							"name": "id",
							"type": "uint256"
						},
						{
							"internalType": "string",
							"name": "name",
							"type": "string"
						},
						{
							"internalType": "string",
							"name": "type_",
							"type": "string"
						},
						{
							"internalType": "address",
							"name": "adminAgent",
							"type": "address"
						}
					],
					"stateMutability": "view",
					"type": "function"
				},
				{
					"inputs": [
						{
							"internalType": "uint256",
							"name": "",
							"type": "uint256"
						}
					],
					"name": "students",
					"outputs": [
						{
							"internalType": "uint256",
							"name": "id",
							"type": "uint256"
						},
						{
							"internalType": "string",
							"name": "name",
							"type": "string"
						},
						{
							"internalType": "string",
							"name": "surname",
							"type": "string"
						},
						{
							"internalType": "string",
							"name": "gender",
							"type": "string"
						},
						{
							"internalType": "uint256",
							"name": "evaluation",
							"type": "uint256"
						},
						{
							"internalType": "address",
							"name": "profileAgent",
							"type": "address"
						}
					],
					"stateMutability": "view",
					"type": "function"
				},
				{
					"inputs": [
						{
							"internalType": "uint256",
							"name": "_studentId",
							"type": "uint256"
						},
						{
							"internalType": "string",
							"name": "_name",
							"type": "string"
						},
						{
							"internalType": "string",
							"name": "_surname",
							"type": "string"
						},
						{
							"internalType": "string",
							"name": "_gender",
							"type": "string"
						}
					],
					"name": "updateStudent",
					"outputs": [],
					"stateMutability": "nonpayable",
					"type": "function"
				},
				{
					"inputs": [
						{
							"internalType": "uint256",
							"name": "_studentId",
							"type": "uint256"
						},
						{
							"internalType": "uint256",
							"name": "_evaluation",
							"type": "uint256"
						}
					],
					"name": "updateStudentEvaluation",
					"outputs": [],
					"stateMutability": "nonpayable",
					"type": "function"
				}
			],
			"devdoc": {
				"kind": "dev",
				"methods": {},
				"version": 1
			},
			"evm": {
				"assembly": "    /* \"contracts/Projet_Blockchain/_Etablissement.sol\":60:3051  contract EstablishmentContract {\r... */\n  mstore(0x40, 0x80)\n    /* \"contracts/Projet_Blockchain/_Etablissement.sol\":159:210  constructor() {\r... */\n  callvalue\n  dup1\n  iszero\n  tag_1\n  jumpi\n  0x00\n  dup1\n  revert\ntag_1:\n  pop\n    /* \"contracts/Projet_Blockchain/_Etablissement.sol\":192:202  msg.sender */\n  caller\n    /* \"contracts/Projet_Blockchain/_Etablissement.sol\":184:189  admin */\n  0x00\n  dup1\n    /* \"contracts/Projet_Blockchain/_Etablissement.sol\":184:202  admin = msg.sender */\n  0x0100\n  exp\n  dup2\n  sload\n  dup2\n  0xffffffffffffffffffffffffffffffffffffffff\n  mul\n  not\n  and\n  swap1\n  dup4\n  0xffffffffffffffffffffffffffffffffffffffff\n  and\n  mul\n  or\n  swap1\n  sstore\n  pop\n    /* \"contracts/Projet_Blockchain/_Etablissement.sol\":60:3051  contract EstablishmentContract {\r... */\n  dataSize(sub_0)\n  dup1\n  dataOffset(sub_0)\n  0x00\n  codecopy\n  0x00\n  return\nstop\n\nsub_0: assembly {\n        /* \"contracts/Projet_Blockchain/_Etablissement.sol\":60:3051  contract EstablishmentContract {\r... */\n      mstore(0x40, 0x80)\n      callvalue\n      dup1\n      iszero\n      tag_1\n      jumpi\n      0x00\n      dup1\n      revert\n    tag_1:\n      pop\n      jumpi(tag_2, lt(calldatasize, 0x04))\n      shr(0xe0, calldataload(0x00))\n      dup1\n      0x645041bf\n      gt\n      tag_12\n      jumpi\n      dup1\n      0x645041bf\n      eq\n      tag_7\n      jumpi\n      dup1\n      0x91a3972b\n      eq\n      tag_8\n      jumpi\n      dup1\n      0xa42a5be4\n      eq\n      tag_9\n      jumpi\n      dup1\n      0xf04656eb\n      eq\n      tag_10\n      jumpi\n      dup1\n      0xf851a440\n      eq\n      tag_11\n      jumpi\n      jump(tag_2)\n    tag_12:\n      dup1\n      0x06ead22e\n      eq\n      tag_3\n      jumpi\n      dup1\n      0x1274147e\n      eq\n      tag_4\n      jumpi\n      dup1\n      0x35dfc1c3\n      eq\n      tag_5\n      jumpi\n      dup1\n      0x4495a008\n      eq\n      tag_6\n      jumpi\n    tag_2:\n      0x00\n      dup1\n      revert\n        /* \"contracts/Projet_Blockchain/_Etablissement.sol\":1034:1074  mapping(uint => Student) public students */\n    tag_3:\n      tag_13\n      0x04\n      dup1\n      calldatasize\n      sub\n      dup2\n      add\n      swap1\n      tag_14\n      swap2\n      swap1\n      tag_15\n      jump\t// in\n    tag_14:\n      tag_16\n      jump\t// in\n    tag_13:\n      mload(0x40)\n      tag_17\n      swap7\n      swap6\n      swap5\n      swap4\n      swap3\n      swap2\n      swap1\n      tag_18\n      jump\t// in\n    tag_17:\n      mload(0x40)\n      dup1\n      swap2\n      sub\n      swap1\n      return\n        /* \"contracts/Projet_Blockchain/_Etablissement.sol\":1130:1325  function createEstablishment(uint _id, string memory _name, string memory _type) public onlyAdmin {\r... */\n    tag_4:\n      tag_19\n      0x04\n      dup1\n      calldatasize\n      sub\n      dup2\n      add\n      swap1\n      tag_20\n      swap2\n      swap1\n      tag_21\n      jump\t// in\n    tag_20:\n      tag_22\n      jump\t// in\n    tag_19:\n      stop\n        /* \"contracts/Projet_Blockchain/_Etablissement.sol\":1081:1121  mapping(uint => Diploma) public diplomas */\n    tag_5:\n      tag_23\n      0x04\n      dup1\n      calldatasize\n      sub\n      dup2\n      add\n      swap1\n      tag_24\n      swap2\n      swap1\n      tag_15\n      jump\t// in\n    tag_24:\n      tag_25\n      jump\t// in\n    tag_23:\n      mload(0x40)\n      tag_26\n      swap7\n      swap6\n      swap5\n      swap4\n      swap3\n      swap2\n      swap1\n      tag_27\n      jump\t// in\n    tag_26:\n      mload(0x40)\n      dup1\n      swap2\n      sub\n      swap1\n      return\n        /* \"contracts/Projet_Blockchain/_Etablissement.sol\":1333:1720  function createStudent(uint _id, string memory _name, string memory _surname, string memory _gender) public {\r... */\n    tag_6:\n      tag_28\n      0x04\n      dup1\n      calldatasize\n      sub\n      dup2\n      add\n      swap1\n      tag_29\n      swap2\n      swap1\n      tag_30\n      jump\t// in\n    tag_29:\n      tag_31\n      jump\t// in\n    tag_28:\n      stop\n        /* \"contracts/Projet_Blockchain/_Etablissement.sol\":2732:3048  function updateStudentEvaluation(uint _studentId, uint _evaluation) public {\r... */\n    tag_7:\n      tag_32\n      0x04\n      dup1\n      calldatasize\n      sub\n      dup2\n      add\n      swap1\n      tag_33\n      swap2\n      swap1\n      tag_34\n      jump\t// in\n    tag_33:\n      tag_35\n      jump\t// in\n    tag_32:\n      stop\n        /* \"contracts/Projet_Blockchain/_Etablissement.sol\":967:1027  mapping(address => Establishment) public establishmentAdmins */\n    tag_8:\n      tag_36\n      0x04\n      dup1\n      calldatasize\n      sub\n      dup2\n      add\n      swap1\n      tag_37\n      swap2\n      swap1\n      tag_38\n      jump\t// in\n    tag_37:\n      tag_39\n      jump\t// in\n    tag_36:\n      mload(0x40)\n      tag_40\n      swap5\n      swap4\n      swap3\n      swap2\n      swap1\n      tag_41\n      jump\t// in\n    tag_40:\n      mload(0x40)\n      dup1\n      swap2\n      sub\n      swap1\n      return\n        /* \"contracts/Projet_Blockchain/_Etablissement.sol\":2312:2724  function updateStudent(uint _studentId, string memory _name, string memory _surname, string memory _gender) public {\r... */\n    tag_9:\n      tag_42\n      0x04\n      dup1\n      calldatasize\n      sub\n      dup2\n      add\n      swap1\n      tag_43\n      swap2\n      swap1\n      tag_30\n      jump\t// in\n    tag_43:\n      tag_44\n      jump\t// in\n    tag_42:\n      stop\n        /* \"contracts/Projet_Blockchain/_Etablissement.sol\":1728:2304  function addDiploma(uint _id, uint _studentId, string memory _establishmentName, string memory _type, string memory _mention) public {\r... */\n    tag_10:\n      tag_45\n      0x04\n      dup1\n      calldatasize\n      sub\n      dup2\n      add\n      swap1\n      tag_46\n      swap2\n      swap1\n      tag_47\n      jump\t// in\n    tag_46:\n      tag_48\n      jump\t// in\n    tag_45:\n      stop\n        /* \"contracts/Projet_Blockchain/_Etablissement.sol\":98:118  address public admin */\n    tag_11:\n      tag_49\n      tag_50\n      jump\t// in\n    tag_49:\n      mload(0x40)\n      tag_51\n      swap2\n      swap1\n      tag_52\n      jump\t// in\n    tag_51:\n      mload(0x40)\n      dup1\n      swap2\n      sub\n      swap1\n      return\n        /* \"contracts/Projet_Blockchain/_Etablissement.sol\":1034:1074  mapping(uint => Student) public students */\n    tag_16:\n      mstore(0x20, 0x02)\n      dup1\n      0x00\n      mstore\n      keccak256(0x00, 0x40)\n      0x00\n      swap2\n      pop\n      swap1\n      pop\n      dup1\n      0x00\n      add\n      sload\n      swap1\n      dup1\n      0x01\n      add\n      dup1\n      sload\n      tag_53\n      swap1\n      tag_54\n      jump\t// in\n    tag_53:\n      dup1\n      0x1f\n      add\n      0x20\n      dup1\n      swap2\n      div\n      mul\n      0x20\n      add\n      mload(0x40)\n      swap1\n      dup2\n      add\n      0x40\n      mstore\n      dup1\n      swap3\n      swap2\n      swap1\n      dup2\n      dup2\n      mstore\n      0x20\n      add\n      dup3\n      dup1\n      sload\n      tag_55\n      swap1\n      tag_54\n      jump\t// in\n    tag_55:\n      dup1\n      iszero\n      tag_56\n      jumpi\n      dup1\n      0x1f\n      lt\n      tag_57\n      jumpi\n      0x0100\n      dup1\n      dup4\n      sload\n      div\n      mul\n      dup4\n      mstore\n      swap2\n      0x20\n      add\n      swap2\n      jump(tag_56)\n    tag_57:\n      dup3\n      add\n      swap2\n      swap1\n      0x00\n      mstore\n      keccak256(0x00, 0x20)\n      swap1\n    tag_58:\n      dup2\n      sload\n      dup2\n      mstore\n      swap1\n      0x01\n      add\n      swap1\n      0x20\n      add\n      dup1\n      dup4\n      gt\n      tag_58\n      jumpi\n      dup3\n      swap1\n      sub\n      0x1f\n      and\n      dup3\n      add\n      swap2\n    tag_56:\n      pop\n      pop\n      pop\n      pop\n      pop\n      swap1\n      dup1\n      0x02\n      add\n      dup1\n      sload\n      tag_59\n      swap1\n      tag_54\n      jump\t// in\n    tag_59:\n      dup1\n      0x1f\n      add\n      0x20\n      dup1\n      swap2\n      div\n      mul\n      0x20\n      add\n      mload(0x40)\n      swap1\n      dup2\n      add\n      0x40\n      mstore\n      dup1\n      swap3\n      swap2\n      swap1\n      dup2\n      dup2\n      mstore\n      0x20\n      add\n      dup3\n      dup1\n      sload\n      tag_60\n      swap1\n      tag_54\n      jump\t// in\n    tag_60:\n      dup1\n      iszero\n      tag_61\n      jumpi\n      dup1\n      0x1f\n      lt\n      tag_62\n      jumpi\n      0x0100\n      dup1\n      dup4\n      sload\n      div\n      mul\n      dup4\n      mstore\n      swap2\n      0x20\n      add\n      swap2\n      jump(tag_61)\n    tag_62:\n      dup3\n      add\n      swap2\n      swap1\n      0x00\n      mstore\n      keccak256(0x00, 0x20)\n      swap1\n    tag_63:\n      dup2\n      sload\n      dup2\n      mstore\n      swap1\n      0x01\n      add\n      swap1\n      0x20\n      add\n      dup1\n      dup4\n      gt\n      tag_63\n      jumpi\n      dup3\n      swap1\n      sub\n      0x1f\n      and\n      dup3\n      add\n      swap2\n    tag_61:\n      pop\n      pop\n      pop\n      pop\n      pop\n      swap1\n      dup1\n      0x03\n      add\n      dup1\n      sload\n      tag_64\n      swap1\n      tag_54\n      jump\t// in\n    tag_64:\n      dup1\n      0x1f\n      add\n      0x20\n      dup1\n      swap2\n      div\n      mul\n      0x20\n      add\n      mload(0x40)\n      swap1\n      dup2\n      add\n      0x40\n      mstore\n      dup1\n      swap3\n      swap2\n      swap1\n      dup2\n      dup2\n      mstore\n      0x20\n      add\n      dup3\n      dup1\n      sload\n      tag_65\n      swap1\n      tag_54\n      jump\t// in\n    tag_65:\n      dup1\n      iszero\n      tag_66\n      jumpi\n      dup1\n      0x1f\n      lt\n      tag_67\n      jumpi\n      0x0100\n      dup1\n      dup4\n      sload\n      div\n      mul\n      dup4\n      mstore\n      swap2\n      0x20\n      add\n      swap2\n      jump(tag_66)\n    tag_67:\n      dup3\n      add\n      swap2\n      swap1\n      0x00\n      mstore\n      keccak256(0x00, 0x20)\n      swap1\n    tag_68:\n      dup2\n      sload\n      dup2\n      mstore\n      swap1\n      0x01\n      add\n      swap1\n      0x20\n      add\n      dup1\n      dup4\n      gt\n      tag_68\n      jumpi\n      dup3\n      swap1\n      sub\n      0x1f\n      and\n      dup3\n      add\n      swap2\n    tag_66:\n      pop\n      pop\n      pop\n      pop\n      pop\n      swap1\n      dup1\n      0x04\n      add\n      sload\n      swap1\n      dup1\n      0x05\n      add\n      0x00\n      swap1\n      sload\n      swap1\n      0x0100\n      exp\n      swap1\n      div\n      0xffffffffffffffffffffffffffffffffffffffff\n      and\n      swap1\n      pop\n      dup7\n      jump\t// out\n        /* \"contracts/Projet_Blockchain/_Etablissement.sol\":1130:1325  function createEstablishment(uint _id, string memory _name, string memory _type) public onlyAdmin {\r... */\n    tag_22:\n        /* \"contracts/Projet_Blockchain/_Etablissement.sol\":272:277  admin */\n      0x00\n      dup1\n      sload\n      swap1\n      0x0100\n      exp\n      swap1\n      div\n      0xffffffffffffffffffffffffffffffffffffffff\n      and\n        /* \"contracts/Projet_Blockchain/_Etablissement.sol\":258:277  msg.sender == admin */\n      0xffffffffffffffffffffffffffffffffffffffff\n      and\n        /* \"contracts/Projet_Blockchain/_Etablissement.sol\":258:268  msg.sender */\n      caller\n        /* \"contracts/Projet_Blockchain/_Etablissement.sol\":258:277  msg.sender == admin */\n      0xffffffffffffffffffffffffffffffffffffffff\n      and\n      eq\n        /* \"contracts/Projet_Blockchain/_Etablissement.sol\":250:334  require(msg.sender == admin, \"Seul l'administrateur peut effectuer cette operation\") */\n      tag_70\n      jumpi\n      mload(0x40)\n      0x08c379a000000000000000000000000000000000000000000000000000000000\n      dup2\n      mstore\n      0x04\n      add\n      tag_71\n      swap1\n      tag_72\n      jump\t// in\n    tag_71:\n      mload(0x40)\n      dup1\n      swap2\n      sub\n      swap1\n      revert\n    tag_70:\n        /* \"contracts/Projet_Blockchain/_Etablissement.sol\":1273:1317  Establishment(_id, _name, _type, msg.sender) */\n      mload(0x40)\n      dup1\n      0x80\n      add\n      0x40\n      mstore\n      dup1\n        /* \"contracts/Projet_Blockchain/_Etablissement.sol\":1287:1290  _id */\n      dup5\n        /* \"contracts/Projet_Blockchain/_Etablissement.sol\":1273:1317  Establishment(_id, _name, _type, msg.sender) */\n      dup2\n      mstore\n      0x20\n      add\n        /* \"contracts/Projet_Blockchain/_Etablissement.sol\":1292:1297  _name */\n      dup4\n        /* \"contracts/Projet_Blockchain/_Etablissement.sol\":1273:1317  Establishment(_id, _name, _type, msg.sender) */\n      dup2\n      mstore\n      0x20\n      add\n        /* \"contracts/Projet_Blockchain/_Etablissement.sol\":1299:1304  _type */\n      dup3\n        /* \"contracts/Projet_Blockchain/_Etablissement.sol\":1273:1317  Establishment(_id, _name, _type, msg.sender) */\n      dup2\n      mstore\n      0x20\n      add\n        /* \"contracts/Projet_Blockchain/_Etablissement.sol\":1306:1316  msg.sender */\n      caller\n        /* \"contracts/Projet_Blockchain/_Etablissement.sol\":1273:1317  Establishment(_id, _name, _type, msg.sender) */\n      0xffffffffffffffffffffffffffffffffffffffff\n      and\n      dup2\n      mstore\n      pop\n        /* \"contracts/Projet_Blockchain/_Etablissement.sol\":1239:1258  establishmentAdmins */\n      0x01\n        /* \"contracts/Projet_Blockchain/_Etablissement.sol\":1239:1270  establishmentAdmins[msg.sender] */\n      0x00\n        /* \"contracts/Projet_Blockchain/_Etablissement.sol\":1259:1269  msg.sender */\n      caller\n        /* \"contracts/Projet_Blockchain/_Etablissement.sol\":1239:1270  establishmentAdmins[msg.sender] */\n      0xffffffffffffffffffffffffffffffffffffffff\n      and\n      0xffffffffffffffffffffffffffffffffffffffff\n      and\n      dup2\n      mstore\n      0x20\n      add\n      swap1\n      dup2\n      mstore\n      0x20\n      add\n      0x00\n      keccak256\n        /* \"contracts/Projet_Blockchain/_Etablissement.sol\":1239:1317  establishmentAdmins[msg.sender] = Establishment(_id, _name, _type, msg.sender) */\n      0x00\n      dup3\n      add\n      mload\n      dup2\n      0x00\n      add\n      sstore\n      0x20\n      dup3\n      add\n      mload\n      dup2\n      0x01\n      add\n      swap1\n      dup1\n      mload\n      swap1\n      0x20\n      add\n      swap1\n      tag_74\n      swap3\n      swap2\n      swap1\n      tag_75\n      jump\t// in\n    tag_74:\n      pop\n      0x40\n      dup3\n      add\n      mload\n      dup2\n      0x02\n      add\n      swap1\n      dup1\n      mload\n      swap1\n      0x20\n      add\n      swap1\n      tag_76\n      swap3\n      swap2\n      swap1\n      tag_75\n      jump\t// in\n    tag_76:\n      pop\n      0x60\n      dup3\n      add\n      mload\n      dup2\n      0x03\n      add\n      exp(0x0100, 0x00)\n      dup2\n      sload\n      dup2\n      0xffffffffffffffffffffffffffffffffffffffff\n      mul\n      not\n      and\n      swap1\n      dup4\n      0xffffffffffffffffffffffffffffffffffffffff\n      and\n      mul\n      or\n      swap1\n      sstore\n      pop\n      swap1\n      pop\n      pop\n        /* \"contracts/Projet_Blockchain/_Etablissement.sol\":1130:1325  function createEstablishment(uint _id, string memory _name, string memory _type) public onlyAdmin {\r... */\n      pop\n      pop\n      pop\n      jump\t// out\n        /* \"contracts/Projet_Blockchain/_Etablissement.sol\":1081:1121  mapping(uint => Diploma) public diplomas */\n    tag_25:\n      mstore(0x20, 0x03)\n      dup1\n      0x00\n      mstore\n      keccak256(0x00, 0x40)\n      0x00\n      swap2\n      pop\n      swap1\n      pop\n      dup1\n      0x00\n      add\n      sload\n      swap1\n      dup1\n      0x01\n      add\n      sload\n      swap1\n      dup1\n      0x02\n      add\n      sload\n      swap1\n      dup1\n      0x03\n      add\n      dup1\n      sload\n      tag_77\n      swap1\n      tag_54\n      jump\t// in\n    tag_77:\n      dup1\n      0x1f\n      add\n      0x20\n      dup1\n      swap2\n      div\n      mul\n      0x20\n      add\n      mload(0x40)\n      swap1\n      dup2\n      add\n      0x40\n      mstore\n      dup1\n      swap3\n      swap2\n      swap1\n      dup2\n      dup2\n      mstore\n      0x20\n      add\n      dup3\n      dup1\n      sload\n      tag_78\n      swap1\n      tag_54\n      jump\t// in\n    tag_78:\n      dup1\n      iszero\n      tag_79\n      jumpi\n      dup1\n      0x1f\n      lt\n      tag_80\n      jumpi\n      0x0100\n      dup1\n      dup4\n      sload\n      div\n      mul\n      dup4\n      mstore\n      swap2\n      0x20\n      add\n      swap2\n      jump(tag_79)\n    tag_80:\n      dup3\n      add\n      swap2\n      swap1\n      0x00\n      mstore\n      keccak256(0x00, 0x20)\n      swap1\n    tag_81:\n      dup2\n      sload\n      dup2\n      mstore\n      swap1\n      0x01\n      add\n      swap1\n      0x20\n      add\n      dup1\n      dup4\n      gt\n      tag_81\n      jumpi\n      dup3\n      swap1\n      sub\n      0x1f\n      and\n      dup3\n      add\n      swap2\n    tag_79:\n      pop\n      pop\n      pop\n      pop\n      pop\n      swap1\n      dup1\n      0x04\n      add\n      dup1\n      sload\n      tag_82\n      swap1\n      tag_54\n      jump\t// in\n    tag_82:\n      dup1\n      0x1f\n      add\n      0x20\n      dup1\n      swap2\n      div\n      mul\n      0x20\n      add\n      mload(0x40)\n      swap1\n      dup2\n      add\n      0x40\n      mstore\n      dup1\n      swap3\n      swap2\n      swap1\n      dup2\n      dup2\n      mstore\n      0x20\n      add\n      dup3\n      dup1\n      sload\n      tag_83\n      swap1\n      tag_54\n      jump\t// in\n    tag_83:\n      dup1\n      iszero\n      tag_84\n      jumpi\n      dup1\n      0x1f\n      lt\n      tag_85\n      jumpi\n      0x0100\n      dup1\n      dup4\n      sload\n      div\n      mul\n      dup4\n      mstore\n      swap2\n      0x20\n      add\n      swap2\n      jump(tag_84)\n    tag_85:\n      dup3\n      add\n      swap2\n      swap1\n      0x00\n      mstore\n      keccak256(0x00, 0x20)\n      swap1\n    tag_86:\n      dup2\n      sload\n      dup2\n      mstore\n      swap1\n      0x01\n      add\n      swap1\n      0x20\n      add\n      dup1\n      dup4\n      gt\n      tag_86\n      jumpi\n      dup3\n      swap1\n      sub\n      0x1f\n      and\n      dup3\n      add\n      swap2\n    tag_84:\n      pop\n      pop\n      pop\n      pop\n      pop\n      swap1\n      dup1\n      0x05\n      add\n      dup1\n      sload\n      tag_87\n      swap1\n      tag_54\n      jump\t// in\n    tag_87:\n      dup1\n      0x1f\n      add\n      0x20\n      dup1\n      swap2\n      div\n      mul\n      0x20\n      add\n      mload(0x40)\n      swap1\n      dup2\n      add\n      0x40\n      mstore\n      dup1\n      swap3\n      swap2\n      swap1\n      dup2\n      dup2\n      mstore\n      0x20\n      add\n      dup3\n      dup1\n      sload\n      tag_88\n      swap1\n      tag_54\n      jump\t// in\n    tag_88:\n      dup1\n      iszero\n      tag_89\n      jumpi\n      dup1\n      0x1f\n      lt\n      tag_90\n      jumpi\n      0x0100\n      dup1\n      dup4\n      sload\n      div\n      mul\n      dup4\n      mstore\n      swap2\n      0x20\n      add\n      swap2\n      jump(tag_89)\n    tag_90:\n      dup3\n      add\n      swap2\n      swap1\n      0x00\n      mstore\n      keccak256(0x00, 0x20)\n      swap1\n    tag_91:\n      dup2\n      sload\n      dup2\n      mstore\n      swap1\n      0x01\n      add\n      swap1\n      0x20\n      add\n      dup1\n      dup4\n      gt\n      tag_91\n      jumpi\n      dup3\n      swap1\n      sub\n      0x1f\n      and\n      dup3\n      add\n      swap2\n    tag_89:\n      pop\n      pop\n      pop\n      pop\n      pop\n      swap1\n      pop\n      dup7\n      jump\t// out\n        /* \"contracts/Projet_Blockchain/_Etablissement.sol\":1333:1720  function createStudent(uint _id, string memory _name, string memory _surname, string memory _gender) public {\r... */\n    tag_31:\n        /* \"contracts/Projet_Blockchain/_Etablissement.sol\":1452:1487  Establishment storage establishment */\n      0x00\n        /* \"contracts/Projet_Blockchain/_Etablissement.sol\":1490:1509  establishmentAdmins */\n      0x01\n        /* \"contracts/Projet_Blockchain/_Etablissement.sol\":1490:1521  establishmentAdmins[msg.sender] */\n      0x00\n        /* \"contracts/Projet_Blockchain/_Etablissement.sol\":1510:1520  msg.sender */\n      caller\n        /* \"contracts/Projet_Blockchain/_Etablissement.sol\":1490:1521  establishmentAdmins[msg.sender] */\n      0xffffffffffffffffffffffffffffffffffffffff\n      and\n      0xffffffffffffffffffffffffffffffffffffffff\n      and\n      dup2\n      mstore\n      0x20\n      add\n      swap1\n      dup2\n      mstore\n      0x20\n      add\n      0x00\n      keccak256\n        /* \"contracts/Projet_Blockchain/_Etablissement.sol\":1452:1521  Establishment storage establishment = establishmentAdmins[msg.sender] */\n      swap1\n      pop\n        /* \"contracts/Projet_Blockchain/_Etablissement.sol\":1559:1560  0 */\n      0x00\n        /* \"contracts/Projet_Blockchain/_Etablissement.sol\":1540:1553  establishment */\n      dup2\n        /* \"contracts/Projet_Blockchain/_Etablissement.sol\":1540:1556  establishment.id */\n      0x00\n      add\n      sload\n        /* \"contracts/Projet_Blockchain/_Etablissement.sol\":1540:1560  establishment.id > 0 */\n      gt\n        /* \"contracts/Projet_Blockchain/_Etablissement.sol\":1532:1632  require(establishment.id > 0, \"L'etablissement n'existe pas ou n'a pas le droit de creer un profil\") */\n      tag_93\n      jumpi\n      mload(0x40)\n      0x08c379a000000000000000000000000000000000000000000000000000000000\n      dup2\n      mstore\n      0x04\n      add\n      tag_94\n      swap1\n      tag_95\n      jump\t// in\n    tag_94:\n      mload(0x40)\n      dup1\n      swap2\n      sub\n      swap1\n      revert\n    tag_93:\n        /* \"contracts/Projet_Blockchain/_Etablissement.sol\":1659:1712  Student(_id, _name, _surname, _gender, 0, msg.sender) */\n      mload(0x40)\n      dup1\n      0xc0\n      add\n      0x40\n      mstore\n      dup1\n        /* \"contracts/Projet_Blockchain/_Etablissement.sol\":1667:1670  _id */\n      dup7\n        /* \"contracts/Projet_Blockchain/_Etablissement.sol\":1659:1712  Student(_id, _name, _surname, _gender, 0, msg.sender) */\n      dup2\n      mstore\n      0x20\n      add\n        /* \"contracts/Projet_Blockchain/_Etablissement.sol\":1672:1677  _name */\n      dup6\n        /* \"contracts/Projet_Blockchain/_Etablissement.sol\":1659:1712  Student(_id, _name, _surname, _gender, 0, msg.sender) */\n      dup2\n      mstore\n      0x20\n      add\n        /* \"contracts/Projet_Blockchain/_Etablissement.sol\":1679:1687  _surname */\n      dup5\n        /* \"contracts/Projet_Blockchain/_Etablissement.sol\":1659:1712  Student(_id, _name, _surname, _gender, 0, msg.sender) */\n      dup2\n      mstore\n      0x20\n      add\n        /* \"contracts/Projet_Blockchain/_Etablissement.sol\":1689:1696  _gender */\n      dup4\n        /* \"contracts/Projet_Blockchain/_Etablissement.sol\":1659:1712  Student(_id, _name, _surname, _gender, 0, msg.sender) */\n      dup2\n      mstore\n      0x20\n      add\n        /* \"contracts/Projet_Blockchain/_Etablissement.sol\":1698:1699  0 */\n      0x00\n        /* \"contracts/Projet_Blockchain/_Etablissement.sol\":1659:1712  Student(_id, _name, _surname, _gender, 0, msg.sender) */\n      dup2\n      mstore\n      0x20\n      add\n        /* \"contracts/Projet_Blockchain/_Etablissement.sol\":1701:1711  msg.sender */\n      caller\n        /* \"contracts/Projet_Blockchain/_Etablissement.sol\":1659:1712  Student(_id, _name, _surname, _gender, 0, msg.sender) */\n      0xffffffffffffffffffffffffffffffffffffffff\n      and\n      dup2\n      mstore\n      pop\n        /* \"contracts/Projet_Blockchain/_Etablissement.sol\":1643:1651  students */\n      0x02\n        /* \"contracts/Projet_Blockchain/_Etablissement.sol\":1643:1656  students[_id] */\n      0x00\n        /* \"contracts/Projet_Blockchain/_Etablissement.sol\":1652:1655  _id */\n      dup8\n        /* \"contracts/Projet_Blockchain/_Etablissement.sol\":1643:1656  students[_id] */\n      dup2\n      mstore\n      0x20\n      add\n      swap1\n      dup2\n      mstore\n      0x20\n      add\n      0x00\n      keccak256\n        /* \"contracts/Projet_Blockchain/_Etablissement.sol\":1643:1712  students[_id] = Student(_id, _name, _surname, _gender, 0, msg.sender) */\n      0x00\n      dup3\n      add\n      mload\n      dup2\n      0x00\n      add\n      sstore\n      0x20\n      dup3\n      add\n      mload\n      dup2\n      0x01\n      add\n      swap1\n      dup1\n      mload\n      swap1\n      0x20\n      add\n      swap1\n      tag_96\n      swap3\n      swap2\n      swap1\n      tag_75\n      jump\t// in\n    tag_96:\n      pop\n      0x40\n      dup3\n      add\n      mload\n      dup2\n      0x02\n      add\n      swap1\n      dup1\n      mload\n      swap1\n      0x20\n      add\n      swap1\n      tag_97\n      swap3\n      swap2\n      swap1\n      tag_75\n      jump\t// in\n    tag_97:\n      pop\n      0x60\n      dup3\n      add\n      mload\n      dup2\n      0x03\n      add\n      swap1\n      dup1\n      mload\n      swap1\n      0x20\n      add\n      swap1\n      tag_98\n      swap3\n      swap2\n      swap1\n      tag_75\n      jump\t// in\n    tag_98:\n      pop\n      0x80\n      dup3\n      add\n      mload\n      dup2\n      0x04\n      add\n      sstore\n      0xa0\n      dup3\n      add\n      mload\n      dup2\n      0x05\n      add\n      exp(0x0100, 0x00)\n      dup2\n      sload\n      dup2\n      0xffffffffffffffffffffffffffffffffffffffff\n      mul\n      not\n      and\n      swap1\n      dup4\n      0xffffffffffffffffffffffffffffffffffffffff\n      and\n      mul\n      or\n      swap1\n      sstore\n      pop\n      swap1\n      pop\n      pop\n        /* \"contracts/Projet_Blockchain/_Etablissement.sol\":1441:1720  {\r... */\n      pop\n        /* \"contracts/Projet_Blockchain/_Etablissement.sol\":1333:1720  function createStudent(uint _id, string memory _name, string memory _surname, string memory _gender) public {\r... */\n      pop\n      pop\n      pop\n      pop\n      jump\t// out\n        /* \"contracts/Projet_Blockchain/_Etablissement.sol\":2732:3048  function updateStudentEvaluation(uint _studentId, uint _evaluation) public {\r... */\n    tag_35:\n        /* \"contracts/Projet_Blockchain/_Etablissement.sol\":2818:2841  Student storage student */\n      0x00\n        /* \"contracts/Projet_Blockchain/_Etablissement.sol\":2844:2852  students */\n      0x02\n        /* \"contracts/Projet_Blockchain/_Etablissement.sol\":2844:2864  students[_studentId] */\n      0x00\n        /* \"contracts/Projet_Blockchain/_Etablissement.sol\":2853:2863  _studentId */\n      dup5\n        /* \"contracts/Projet_Blockchain/_Etablissement.sol\":2844:2864  students[_studentId] */\n      dup2\n      mstore\n      0x20\n      add\n      swap1\n      dup2\n      mstore\n      0x20\n      add\n      0x00\n      keccak256\n        /* \"contracts/Projet_Blockchain/_Etablissement.sol\":2818:2864  Student storage student = students[_studentId] */\n      swap1\n      pop\n        /* \"contracts/Projet_Blockchain/_Etablissement.sol\":3029:3040  _evaluation */\n      dup2\n        /* \"contracts/Projet_Blockchain/_Etablissement.sol\":3008:3015  student */\n      dup2\n        /* \"contracts/Projet_Blockchain/_Etablissement.sol\":3008:3026  student.evaluation */\n      0x04\n      add\n        /* \"contracts/Projet_Blockchain/_Etablissement.sol\":3008:3040  student.evaluation = _evaluation */\n      dup2\n      swap1\n      sstore\n      pop\n        /* \"contracts/Projet_Blockchain/_Etablissement.sol\":2807:3048  {\r... */\n      pop\n        /* \"contracts/Projet_Blockchain/_Etablissement.sol\":2732:3048  function updateStudentEvaluation(uint _studentId, uint _evaluation) public {\r... */\n      pop\n      pop\n      jump\t// out\n        /* \"contracts/Projet_Blockchain/_Etablissement.sol\":967:1027  mapping(address => Establishment) public establishmentAdmins */\n    tag_39:\n      mstore(0x20, 0x01)\n      dup1\n      0x00\n      mstore\n      keccak256(0x00, 0x40)\n      0x00\n      swap2\n      pop\n      swap1\n      pop\n      dup1\n      0x00\n      add\n      sload\n      swap1\n      dup1\n      0x01\n      add\n      dup1\n      sload\n      tag_100\n      swap1\n      tag_54\n      jump\t// in\n    tag_100:\n      dup1\n      0x1f\n      add\n      0x20\n      dup1\n      swap2\n      div\n      mul\n      0x20\n      add\n      mload(0x40)\n      swap1\n      dup2\n      add\n      0x40\n      mstore\n      dup1\n      swap3\n      swap2\n      swap1\n      dup2\n      dup2\n      mstore\n      0x20\n      add\n      dup3\n      dup1\n      sload\n      tag_101\n      swap1\n      tag_54\n      jump\t// in\n    tag_101:\n      dup1\n      iszero\n      tag_102\n      jumpi\n      dup1\n      0x1f\n      lt\n      tag_103\n      jumpi\n      0x0100\n      dup1\n      dup4\n      sload\n      div\n      mul\n      dup4\n      mstore\n      swap2\n      0x20\n      add\n      swap2\n      jump(tag_102)\n    tag_103:\n      dup3\n      add\n      swap2\n      swap1\n      0x00\n      mstore\n      keccak256(0x00, 0x20)\n      swap1\n    tag_104:\n      dup2\n      sload\n      dup2\n      mstore\n      swap1\n      0x01\n      add\n      swap1\n      0x20\n      add\n      dup1\n      dup4\n      gt\n      tag_104\n      jumpi\n      dup3\n      swap1\n      sub\n      0x1f\n      and\n      dup3\n      add\n      swap2\n    tag_102:\n      pop\n      pop\n      pop\n      pop\n      pop\n      swap1\n      dup1\n      0x02\n      add\n      dup1\n      sload\n      tag_105\n      swap1\n      tag_54\n      jump\t// in\n    tag_105:\n      dup1\n      0x1f\n      add\n      0x20\n      dup1\n      swap2\n      div\n      mul\n      0x20\n      add\n      mload(0x40)\n      swap1\n      dup2\n      add\n      0x40\n      mstore\n      dup1\n      swap3\n      swap2\n      swap1\n      dup2\n      dup2\n      mstore\n      0x20\n      add\n      dup3\n      dup1\n      sload\n      tag_106\n      swap1\n      tag_54\n      jump\t// in\n    tag_106:\n      dup1\n      iszero\n      tag_107\n      jumpi\n      dup1\n      0x1f\n      lt\n      tag_108\n      jumpi\n      0x0100\n      dup1\n      dup4\n      sload\n      div\n      mul\n      dup4\n      mstore\n      swap2\n      0x20\n      add\n      swap2\n      jump(tag_107)\n    tag_108:\n      dup3\n      add\n      swap2\n      swap1\n      0x00\n      mstore\n      keccak256(0x00, 0x20)\n      swap1\n    tag_109:\n      dup2\n      sload\n      dup2\n      mstore\n      swap1\n      0x01\n      add\n      swap1\n      0x20\n      add\n      dup1\n      dup4\n      gt\n      tag_109\n      jumpi\n      dup3\n      swap1\n      sub\n      0x1f\n      and\n      dup3\n      add\n      swap2\n    tag_107:\n      pop\n      pop\n      pop\n      pop\n      pop\n      swap1\n      dup1\n      0x03\n      add\n      0x00\n      swap1\n      sload\n      swap1\n      0x0100\n      exp\n      swap1\n      div\n      0xffffffffffffffffffffffffffffffffffffffff\n      and\n      swap1\n      pop\n      dup5\n      jump\t// out\n        /* \"contracts/Projet_Blockchain/_Etablissement.sol\":2312:2724  function updateStudent(uint _studentId, string memory _name, string memory _surname, string memory _gender) public {\r... */\n    tag_44:\n        /* \"contracts/Projet_Blockchain/_Etablissement.sol\":2438:2461  Student storage student */\n      0x00\n        /* \"contracts/Projet_Blockchain/_Etablissement.sol\":2464:2472  students */\n      0x02\n        /* \"contracts/Projet_Blockchain/_Etablissement.sol\":2464:2484  students[_studentId] */\n      0x00\n        /* \"contracts/Projet_Blockchain/_Etablissement.sol\":2473:2483  _studentId */\n      dup7\n        /* \"contracts/Projet_Blockchain/_Etablissement.sol\":2464:2484  students[_studentId] */\n      dup2\n      mstore\n      0x20\n      add\n      swap1\n      dup2\n      mstore\n      0x20\n      add\n      0x00\n      keccak256\n        /* \"contracts/Projet_Blockchain/_Etablissement.sol\":2438:2484  Student storage student = students[_studentId] */\n      swap1\n      pop\n        /* \"contracts/Projet_Blockchain/_Etablissement.sol\":2527:2537  msg.sender */\n      caller\n        /* \"contracts/Projet_Blockchain/_Etablissement.sol\":2503:2537  student.profileAgent == msg.sender */\n      0xffffffffffffffffffffffffffffffffffffffff\n      and\n        /* \"contracts/Projet_Blockchain/_Etablissement.sol\":2503:2510  student */\n      dup2\n        /* \"contracts/Projet_Blockchain/_Etablissement.sol\":2503:2523  student.profileAgent */\n      0x05\n      add\n      0x00\n      swap1\n      sload\n      swap1\n      0x0100\n      exp\n      swap1\n      div\n      0xffffffffffffffffffffffffffffffffffffffff\n      and\n        /* \"contracts/Projet_Blockchain/_Etablissement.sol\":2503:2537  student.profileAgent == msg.sender */\n      0xffffffffffffffffffffffffffffffffffffffff\n      and\n      eq\n        /* \"contracts/Projet_Blockchain/_Etablissement.sol\":2495:2614  require(student.profileAgent == msg.sender, \"Seul l'etablissement qui a cree le profil peut mettre a jour un etudiant\") */\n      tag_111\n      jumpi\n      mload(0x40)\n      0x08c379a000000000000000000000000000000000000000000000000000000000\n      dup2\n      mstore\n      0x04\n      add\n      tag_112\n      swap1\n      tag_113\n      jump\t// in\n    tag_112:\n      mload(0x40)\n      dup1\n      swap2\n      sub\n      swap1\n      revert\n    tag_111:\n        /* \"contracts/Projet_Blockchain/_Etablissement.sol\":2640:2645  _name */\n      dup4\n        /* \"contracts/Projet_Blockchain/_Etablissement.sol\":2625:2632  student */\n      dup2\n        /* \"contracts/Projet_Blockchain/_Etablissement.sol\":2625:2637  student.name */\n      0x01\n      add\n        /* \"contracts/Projet_Blockchain/_Etablissement.sol\":2625:2645  student.name = _name */\n      swap1\n      dup1\n      mload\n      swap1\n      0x20\n      add\n      swap1\n      tag_114\n      swap3\n      swap2\n      swap1\n      tag_75\n      jump\t// in\n    tag_114:\n      pop\n        /* \"contracts/Projet_Blockchain/_Etablissement.sol\":2673:2681  _surname */\n      dup3\n        /* \"contracts/Projet_Blockchain/_Etablissement.sol\":2656:2663  student */\n      dup2\n        /* \"contracts/Projet_Blockchain/_Etablissement.sol\":2656:2671  student.surname */\n      0x02\n      add\n        /* \"contracts/Projet_Blockchain/_Etablissement.sol\":2656:2681  student.surname= _surname */\n      swap1\n      dup1\n      mload\n      swap1\n      0x20\n      add\n      swap1\n      tag_115\n      swap3\n      swap2\n      swap1\n      tag_75\n      jump\t// in\n    tag_115:\n      pop\n        /* \"contracts/Projet_Blockchain/_Etablissement.sol\":2709:2716  _gender */\n      dup2\n        /* \"contracts/Projet_Blockchain/_Etablissement.sol\":2692:2699  student */\n      dup2\n        /* \"contracts/Projet_Blockchain/_Etablissement.sol\":2692:2706  student.gender */\n      0x03\n      add\n        /* \"contracts/Projet_Blockchain/_Etablissement.sol\":2692:2716  student.gender = _gender */\n      swap1\n      dup1\n      mload\n      swap1\n      0x20\n      add\n      swap1\n      tag_116\n      swap3\n      swap2\n      swap1\n      tag_75\n      jump\t// in\n    tag_116:\n      pop\n        /* \"contracts/Projet_Blockchain/_Etablissement.sol\":2427:2724  {\r... */\n      pop\n        /* \"contracts/Projet_Blockchain/_Etablissement.sol\":2312:2724  function updateStudent(uint _studentId, string memory _name, string memory _surname, string memory _gender) public {\r... */\n      pop\n      pop\n      pop\n      pop\n      jump\t// out\n        /* \"contracts/Projet_Blockchain/_Etablissement.sol\":1728:2304  function addDiploma(uint _id, uint _studentId, string memory _establishmentName, string memory _type, string memory _mention) public {\r... */\n    tag_48:\n        /* \"contracts/Projet_Blockchain/_Etablissement.sol\":1872:1907  Establishment storage establishment */\n      0x00\n        /* \"contracts/Projet_Blockchain/_Etablissement.sol\":1910:1929  establishmentAdmins */\n      0x01\n        /* \"contracts/Projet_Blockchain/_Etablissement.sol\":1910:1941  establishmentAdmins[msg.sender] */\n      0x00\n        /* \"contracts/Projet_Blockchain/_Etablissement.sol\":1930:1940  msg.sender */\n      caller\n        /* \"contracts/Projet_Blockchain/_Etablissement.sol\":1910:1941  establishmentAdmins[msg.sender] */\n      0xffffffffffffffffffffffffffffffffffffffff\n      and\n      0xffffffffffffffffffffffffffffffffffffffff\n      and\n      dup2\n      mstore\n      0x20\n      add\n      swap1\n      dup2\n      mstore\n      0x20\n      add\n      0x00\n      keccak256\n        /* \"contracts/Projet_Blockchain/_Etablissement.sol\":1872:1941  Establishment storage establishment = establishmentAdmins[msg.sender] */\n      swap1\n      pop\n        /* \"contracts/Projet_Blockchain/_Etablissement.sol\":1979:1980  0 */\n      0x00\n        /* \"contracts/Projet_Blockchain/_Etablissement.sol\":1960:1973  establishment */\n      dup2\n        /* \"contracts/Projet_Blockchain/_Etablissement.sol\":1960:1976  establishment.id */\n      0x00\n      add\n      sload\n        /* \"contracts/Projet_Blockchain/_Etablissement.sol\":1960:1980  establishment.id > 0 */\n      gt\n        /* \"contracts/Projet_Blockchain/_Etablissement.sol\":1952:2054  require(establishment.id > 0, \"L'etablissement n'existe pas ou n'a pas le droit d'ajouter un diplome\") */\n      tag_118\n      jumpi\n      mload(0x40)\n      0x08c379a000000000000000000000000000000000000000000000000000000000\n      dup2\n      mstore\n      0x04\n      add\n      tag_119\n      swap1\n      tag_120\n      jump\t// in\n    tag_119:\n      mload(0x40)\n      dup1\n      swap2\n      sub\n      swap1\n      revert\n    tag_118:\n        /* \"contracts/Projet_Blockchain/_Etablissement.sol\":2110:2120  msg.sender */\n      caller\n        /* \"contracts/Projet_Blockchain/_Etablissement.sol\":2073:2120  students[_studentId].profileAgent == msg.sender */\n      0xffffffffffffffffffffffffffffffffffffffff\n      and\n        /* \"contracts/Projet_Blockchain/_Etablissement.sol\":2073:2081  students */\n      0x02\n        /* \"contracts/Projet_Blockchain/_Etablissement.sol\":2073:2093  students[_studentId] */\n      0x00\n        /* \"contracts/Projet_Blockchain/_Etablissement.sol\":2082:2092  _studentId */\n      dup8\n        /* \"contracts/Projet_Blockchain/_Etablissement.sol\":2073:2093  students[_studentId] */\n      dup2\n      mstore\n      0x20\n      add\n      swap1\n      dup2\n      mstore\n      0x20\n      add\n      0x00\n      keccak256\n        /* \"contracts/Projet_Blockchain/_Etablissement.sol\":2073:2106  students[_studentId].profileAgent */\n      0x05\n      add\n      0x00\n      swap1\n      sload\n      swap1\n      0x0100\n      exp\n      swap1\n      div\n      0xffffffffffffffffffffffffffffffffffffffff\n      and\n        /* \"contracts/Projet_Blockchain/_Etablissement.sol\":2073:2120  students[_studentId].profileAgent == msg.sender */\n      0xffffffffffffffffffffffffffffffffffffffff\n      and\n      eq\n        /* \"contracts/Projet_Blockchain/_Etablissement.sol\":2065:2190  require(students[_studentId].profileAgent == msg.sender, \"Seul l'etablissement qui a cree le profil peut ajouter un diplome\") */\n      tag_121\n      jumpi\n      mload(0x40)\n      0x08c379a000000000000000000000000000000000000000000000000000000000\n      dup2\n      mstore\n      0x04\n      add\n      tag_122\n      swap1\n      tag_123\n      jump\t// in\n    tag_122:\n      mload(0x40)\n      dup1\n      swap2\n      sub\n      swap1\n      revert\n    tag_121:\n        /* \"contracts/Projet_Blockchain/_Etablissement.sol\":2217:2296  Diploma(_id, _studentId, establishment.id, _establishmentName, _type, _mention) */\n      mload(0x40)\n      dup1\n      0xc0\n      add\n      0x40\n      mstore\n      dup1\n        /* \"contracts/Projet_Blockchain/_Etablissement.sol\":2225:2228  _id */\n      dup8\n        /* \"contracts/Projet_Blockchain/_Etablissement.sol\":2217:2296  Diploma(_id, _studentId, establishment.id, _establishmentName, _type, _mention) */\n      dup2\n      mstore\n      0x20\n      add\n        /* \"contracts/Projet_Blockchain/_Etablissement.sol\":2230:2240  _studentId */\n      dup7\n        /* \"contracts/Projet_Blockchain/_Etablissement.sol\":2217:2296  Diploma(_id, _studentId, establishment.id, _establishmentName, _type, _mention) */\n      dup2\n      mstore\n      0x20\n      add\n        /* \"contracts/Projet_Blockchain/_Etablissement.sol\":2242:2255  establishment */\n      dup3\n        /* \"contracts/Projet_Blockchain/_Etablissement.sol\":2242:2258  establishment.id */\n      0x00\n      add\n      sload\n        /* \"contracts/Projet_Blockchain/_Etablissement.sol\":2217:2296  Diploma(_id, _studentId, establishment.id, _establishmentName, _type, _mention) */\n      dup2\n      mstore\n      0x20\n      add\n        /* \"contracts/Projet_Blockchain/_Etablissement.sol\":2260:2278  _establishmentName */\n      dup6\n        /* \"contracts/Projet_Blockchain/_Etablissement.sol\":2217:2296  Diploma(_id, _studentId, establishment.id, _establishmentName, _type, _mention) */\n      dup2\n      mstore\n      0x20\n      add\n        /* \"contracts/Projet_Blockchain/_Etablissement.sol\":2280:2285  _type */\n      dup5\n        /* \"contracts/Projet_Blockchain/_Etablissement.sol\":2217:2296  Diploma(_id, _studentId, establishment.id, _establishmentName, _type, _mention) */\n      dup2\n      mstore\n      0x20\n      add\n        /* \"contracts/Projet_Blockchain/_Etablissement.sol\":2287:2295  _mention */\n      dup4\n        /* \"contracts/Projet_Blockchain/_Etablissement.sol\":2217:2296  Diploma(_id, _studentId, establishment.id, _establishmentName, _type, _mention) */\n      dup2\n      mstore\n      pop\n        /* \"contracts/Projet_Blockchain/_Etablissement.sol\":2201:2209  diplomas */\n      0x03\n        /* \"contracts/Projet_Blockchain/_Etablissement.sol\":2201:2214  diplomas[_id] */\n      0x00\n        /* \"contracts/Projet_Blockchain/_Etablissement.sol\":2210:2213  _id */\n      dup9\n        /* \"contracts/Projet_Blockchain/_Etablissement.sol\":2201:2214  diplomas[_id] */\n      dup2\n      mstore\n      0x20\n      add\n      swap1\n      dup2\n      mstore\n      0x20\n      add\n      0x00\n      keccak256\n        /* \"contracts/Projet_Blockchain/_Etablissement.sol\":2201:2296  diplomas[_id] = Diploma(_id, _studentId, establishment.id, _establishmentName, _type, _mention) */\n      0x00\n      dup3\n      add\n      mload\n      dup2\n      0x00\n      add\n      sstore\n      0x20\n      dup3\n      add\n      mload\n      dup2\n      0x01\n      add\n      sstore\n      0x40\n      dup3\n      add\n      mload\n      dup2\n      0x02\n      add\n      sstore\n      0x60\n      dup3\n      add\n      mload\n      dup2\n      0x03\n      add\n      swap1\n      dup1\n      mload\n      swap1\n      0x20\n      add\n      swap1\n      tag_124\n      swap3\n      swap2\n      swap1\n      tag_75\n      jump\t// in\n    tag_124:\n      pop\n      0x80\n      dup3\n      add\n      mload\n      dup2\n      0x04\n      add\n      swap1\n      dup1\n      mload\n      swap1\n      0x20\n      add\n      swap1\n      tag_125\n      swap3\n      swap2\n      swap1\n      tag_75\n      jump\t// in\n    tag_125:\n      pop\n      0xa0\n      dup3\n      add\n      mload\n      dup2\n      0x05\n      add\n      swap1\n      dup1\n      mload\n      swap1\n      0x20\n      add\n      swap1\n      tag_126\n      swap3\n      swap2\n      swap1\n      tag_75\n      jump\t// in\n    tag_126:\n      pop\n      swap1\n      pop\n      pop\n        /* \"contracts/Projet_Blockchain/_Etablissement.sol\":1861:2304  {\r... */\n      pop\n        /* \"contracts/Projet_Blockchain/_Etablissement.sol\":1728:2304  function addDiploma(uint _id, uint _studentId, string memory _establishmentName, string memory _type, string memory _mention) public {\r... */\n      pop\n      pop\n      pop\n      pop\n      pop\n      jump\t// out\n        /* \"contracts/Projet_Blockchain/_Etablissement.sol\":98:118  address public admin */\n    tag_50:\n      0x00\n      dup1\n      sload\n      swap1\n      0x0100\n      exp\n      swap1\n      div\n      0xffffffffffffffffffffffffffffffffffffffff\n      and\n      dup2\n      jump\t// out\n    tag_75:\n      dup3\n      dup1\n      sload\n      tag_127\n      swap1\n      tag_54\n      jump\t// in\n    tag_127:\n      swap1\n      0x00\n      mstore\n      keccak256(0x00, 0x20)\n      swap1\n      0x1f\n      add\n      0x20\n      swap1\n      div\n      dup2\n      add\n      swap3\n      dup3\n      tag_129\n      jumpi\n      0x00\n      dup6\n      sstore\n      jump(tag_128)\n    tag_129:\n      dup3\n      0x1f\n      lt\n      tag_130\n      jumpi\n      dup1\n      mload\n      not(0xff)\n      and\n      dup4\n      dup1\n      add\n      or\n      dup6\n      sstore\n      jump(tag_128)\n    tag_130:\n      dup3\n      dup1\n      add\n      0x01\n      add\n      dup6\n      sstore\n      dup3\n      iszero\n      tag_128\n      jumpi\n      swap2\n      dup3\n      add\n    tag_131:\n      dup3\n      dup2\n      gt\n      iszero\n      tag_132\n      jumpi\n      dup3\n      mload\n      dup3\n      sstore\n      swap2\n      0x20\n      add\n      swap2\n      swap1\n      0x01\n      add\n      swap1\n      jump(tag_131)\n    tag_132:\n    tag_128:\n      pop\n      swap1\n      pop\n      tag_133\n      swap2\n      swap1\n      tag_134\n      jump\t// in\n    tag_133:\n      pop\n      swap1\n      jump\t// out\n    tag_134:\n    tag_135:\n      dup1\n      dup3\n      gt\n      iszero\n      tag_136\n      jumpi\n      0x00\n      dup2\n      0x00\n      swap1\n      sstore\n      pop\n      0x01\n      add\n      jump(tag_135)\n    tag_136:\n      pop\n      swap1\n      jump\t// out\n        /* \"#utility.yul\":7:419   */\n    tag_138:\n        /* \"#utility.yul\":85:90   */\n      0x00\n        /* \"#utility.yul\":110:176   */\n      tag_140\n        /* \"#utility.yul\":126:175   */\n      tag_141\n        /* \"#utility.yul\":168:174   */\n      dup5\n        /* \"#utility.yul\":126:175   */\n      tag_142\n      jump\t// in\n    tag_141:\n        /* \"#utility.yul\":110:176   */\n      tag_143\n      jump\t// in\n    tag_140:\n        /* \"#utility.yul\":101:176   */\n      swap1\n      pop\n        /* \"#utility.yul\":199:205   */\n      dup3\n        /* \"#utility.yul\":192:197   */\n      dup2\n        /* \"#utility.yul\":185:206   */\n      mstore\n        /* \"#utility.yul\":237:241   */\n      0x20\n        /* \"#utility.yul\":230:235   */\n      dup2\n        /* \"#utility.yul\":226:242   */\n      add\n        /* \"#utility.yul\":275:278   */\n      dup5\n        /* \"#utility.yul\":266:272   */\n      dup5\n        /* \"#utility.yul\":261:264   */\n      dup5\n        /* \"#utility.yul\":257:273   */\n      add\n        /* \"#utility.yul\":254:279   */\n      gt\n        /* \"#utility.yul\":251:363   */\n      iszero\n      tag_144\n      jumpi\n        /* \"#utility.yul\":282:361   */\n      tag_145\n      tag_146\n      jump\t// in\n    tag_145:\n        /* \"#utility.yul\":251:363   */\n    tag_144:\n        /* \"#utility.yul\":372:413   */\n      tag_147\n        /* \"#utility.yul\":406:412   */\n      dup5\n        /* \"#utility.yul\":401:404   */\n      dup3\n        /* \"#utility.yul\":396:399   */\n      dup6\n        /* \"#utility.yul\":372:413   */\n      tag_148\n      jump\t// in\n    tag_147:\n        /* \"#utility.yul\":91:419   */\n      pop\n        /* \"#utility.yul\":7:419   */\n      swap4\n      swap3\n      pop\n      pop\n      pop\n      jump\t// out\n        /* \"#utility.yul\":425:564   */\n    tag_149:\n        /* \"#utility.yul\":471:476   */\n      0x00\n        /* \"#utility.yul\":509:515   */\n      dup2\n        /* \"#utility.yul\":496:516   */\n      calldataload\n        /* \"#utility.yul\":487:516   */\n      swap1\n      pop\n        /* \"#utility.yul\":525:558   */\n      tag_151\n        /* \"#utility.yul\":552:557   */\n      dup2\n        /* \"#utility.yul\":525:558   */\n      tag_152\n      jump\t// in\n    tag_151:\n        /* \"#utility.yul\":425:564   */\n      swap3\n      swap2\n      pop\n      pop\n      jump\t// out\n        /* \"#utility.yul\":584:924   */\n    tag_153:\n        /* \"#utility.yul\":640:645   */\n      0x00\n        /* \"#utility.yul\":689:692   */\n      dup3\n        /* \"#utility.yul\":682:686   */\n      0x1f\n        /* \"#utility.yul\":674:680   */\n      dup4\n        /* \"#utility.yul\":670:687   */\n      add\n        /* \"#utility.yul\":666:693   */\n      slt\n        /* \"#utility.yul\":656:778   */\n      tag_155\n      jumpi\n        /* \"#utility.yul\":697:776   */\n      tag_156\n      tag_157\n      jump\t// in\n    tag_156:\n        /* \"#utility.yul\":656:778   */\n    tag_155:\n        /* \"#utility.yul\":814:820   */\n      dup2\n        /* \"#utility.yul\":801:821   */\n      calldataload\n        /* \"#utility.yul\":839:918   */\n      tag_158\n        /* \"#utility.yul\":914:917   */\n      dup5\n        /* \"#utility.yul\":906:912   */\n      dup3\n        /* \"#utility.yul\":899:903   */\n      0x20\n        /* \"#utility.yul\":891:897   */\n      dup7\n        /* \"#utility.yul\":887:904   */\n      add\n        /* \"#utility.yul\":839:918   */\n      tag_138\n      jump\t// in\n    tag_158:\n        /* \"#utility.yul\":830:918   */\n      swap2\n      pop\n        /* \"#utility.yul\":646:924   */\n      pop\n        /* \"#utility.yul\":584:924   */\n      swap3\n      swap2\n      pop\n      pop\n      jump\t// out\n        /* \"#utility.yul\":930:1069   */\n    tag_159:\n        /* \"#utility.yul\":976:981   */\n      0x00\n        /* \"#utility.yul\":1014:1020   */\n      dup2\n        /* \"#utility.yul\":1001:1021   */\n      calldataload\n        /* \"#utility.yul\":992:1021   */\n      swap1\n      pop\n        /* \"#utility.yul\":1030:1063   */\n      tag_161\n        /* \"#utility.yul\":1057:1062   */\n      dup2\n        /* \"#utility.yul\":1030:1063   */\n      tag_162\n      jump\t// in\n    tag_161:\n        /* \"#utility.yul\":930:1069   */\n      swap3\n      swap2\n      pop\n      pop\n      jump\t// out\n        /* \"#utility.yul\":1075:1404   */\n    tag_38:\n        /* \"#utility.yul\":1134:1140   */\n      0x00\n        /* \"#utility.yul\":1183:1185   */\n      0x20\n        /* \"#utility.yul\":1171:1180   */\n      dup3\n        /* \"#utility.yul\":1162:1169   */\n      dup5\n        /* \"#utility.yul\":1158:1181   */\n      sub\n        /* \"#utility.yul\":1154:1186   */\n      slt\n        /* \"#utility.yul\":1151:1270   */\n      iszero\n      tag_164\n      jumpi\n        /* \"#utility.yul\":1189:1268   */\n      tag_165\n      tag_166\n      jump\t// in\n    tag_165:\n        /* \"#utility.yul\":1151:1270   */\n    tag_164:\n        /* \"#utility.yul\":1309:1310   */\n      0x00\n        /* \"#utility.yul\":1334:1387   */\n      tag_167\n        /* \"#utility.yul\":1379:1386   */\n      dup5\n        /* \"#utility.yul\":1370:1376   */\n      dup3\n        /* \"#utility.yul\":1359:1368   */\n      dup6\n        /* \"#utility.yul\":1355:1377   */\n      add\n        /* \"#utility.yul\":1334:1387   */\n      tag_149\n      jump\t// in\n    tag_167:\n        /* \"#utility.yul\":1324:1387   */\n      swap2\n      pop\n        /* \"#utility.yul\":1280:1397   */\n      pop\n        /* \"#utility.yul\":1075:1404   */\n      swap3\n      swap2\n      pop\n      pop\n      jump\t// out\n        /* \"#utility.yul\":1410:1739   */\n    tag_15:\n        /* \"#utility.yul\":1469:1475   */\n      0x00\n        /* \"#utility.yul\":1518:1520   */\n      0x20\n        /* \"#utility.yul\":1506:1515   */\n      dup3\n        /* \"#utility.yul\":1497:1504   */\n      dup5\n        /* \"#utility.yul\":1493:1516   */\n      sub\n        /* \"#utility.yul\":1489:1521   */\n      slt\n        /* \"#utility.yul\":1486:1605   */\n      iszero\n      tag_169\n      jumpi\n        /* \"#utility.yul\":1524:1603   */\n      tag_170\n      tag_166\n      jump\t// in\n    tag_170:\n        /* \"#utility.yul\":1486:1605   */\n    tag_169:\n        /* \"#utility.yul\":1644:1645   */\n      0x00\n        /* \"#utility.yul\":1669:1722   */\n      tag_171\n        /* \"#utility.yul\":1714:1721   */\n      dup5\n        /* \"#utility.yul\":1705:1711   */\n      dup3\n        /* \"#utility.yul\":1694:1703   */\n      dup6\n        /* \"#utility.yul\":1690:1712   */\n      add\n        /* \"#utility.yul\":1669:1722   */\n      tag_159\n      jump\t// in\n    tag_171:\n        /* \"#utility.yul\":1659:1722   */\n      swap2\n      pop\n        /* \"#utility.yul\":1615:1732   */\n      pop\n        /* \"#utility.yul\":1410:1739   */\n      swap3\n      swap2\n      pop\n      pop\n      jump\t// out\n        /* \"#utility.yul\":1745:2724   */\n    tag_21:\n        /* \"#utility.yul\":1842:1848   */\n      0x00\n        /* \"#utility.yul\":1850:1856   */\n      dup1\n        /* \"#utility.yul\":1858:1864   */\n      0x00\n        /* \"#utility.yul\":1907:1909   */\n      0x60\n        /* \"#utility.yul\":1895:1904   */\n      dup5\n        /* \"#utility.yul\":1886:1893   */\n      dup7\n        /* \"#utility.yul\":1882:1905   */\n      sub\n        /* \"#utility.yul\":1878:1910   */\n      slt\n        /* \"#utility.yul\":1875:1994   */\n      iszero\n      tag_173\n      jumpi\n        /* \"#utility.yul\":1913:1992   */\n      tag_174\n      tag_166\n      jump\t// in\n    tag_174:\n        /* \"#utility.yul\":1875:1994   */\n    tag_173:\n        /* \"#utility.yul\":2033:2034   */\n      0x00\n        /* \"#utility.yul\":2058:2111   */\n      tag_175\n        /* \"#utility.yul\":2103:2110   */\n      dup7\n        /* \"#utility.yul\":2094:2100   */\n      dup3\n        /* \"#utility.yul\":2083:2092   */\n      dup8\n        /* \"#utility.yul\":2079:2101   */\n      add\n        /* \"#utility.yul\":2058:2111   */\n      tag_159\n      jump\t// in\n    tag_175:\n        /* \"#utility.yul\":2048:2111   */\n      swap4\n      pop\n        /* \"#utility.yul\":2004:2121   */\n      pop\n        /* \"#utility.yul\":2188:2190   */\n      0x20\n        /* \"#utility.yul\":2177:2186   */\n      dup5\n        /* \"#utility.yul\":2173:2191   */\n      add\n        /* \"#utility.yul\":2160:2192   */\n      calldataload\n        /* \"#utility.yul\":2219:2237   */\n      0xffffffffffffffff\n        /* \"#utility.yul\":2211:2217   */\n      dup2\n        /* \"#utility.yul\":2208:2238   */\n      gt\n        /* \"#utility.yul\":2205:2322   */\n      iszero\n      tag_176\n      jumpi\n        /* \"#utility.yul\":2241:2320   */\n      tag_177\n      tag_178\n      jump\t// in\n    tag_177:\n        /* \"#utility.yul\":2205:2322   */\n    tag_176:\n        /* \"#utility.yul\":2346:2409   */\n      tag_179\n        /* \"#utility.yul\":2401:2408   */\n      dup7\n        /* \"#utility.yul\":2392:2398   */\n      dup3\n        /* \"#utility.yul\":2381:2390   */\n      dup8\n        /* \"#utility.yul\":2377:2399   */\n      add\n        /* \"#utility.yul\":2346:2409   */\n      tag_153\n      jump\t// in\n    tag_179:\n        /* \"#utility.yul\":2336:2409   */\n      swap3\n      pop\n        /* \"#utility.yul\":2131:2419   */\n      pop\n        /* \"#utility.yul\":2486:2488   */\n      0x40\n        /* \"#utility.yul\":2475:2484   */\n      dup5\n        /* \"#utility.yul\":2471:2489   */\n      add\n        /* \"#utility.yul\":2458:2490   */\n      calldataload\n        /* \"#utility.yul\":2517:2535   */\n      0xffffffffffffffff\n        /* \"#utility.yul\":2509:2515   */\n      dup2\n        /* \"#utility.yul\":2506:2536   */\n      gt\n        /* \"#utility.yul\":2503:2620   */\n      iszero\n      tag_180\n      jumpi\n        /* \"#utility.yul\":2539:2618   */\n      tag_181\n      tag_178\n      jump\t// in\n    tag_181:\n        /* \"#utility.yul\":2503:2620   */\n    tag_180:\n        /* \"#utility.yul\":2644:2707   */\n      tag_182\n        /* \"#utility.yul\":2699:2706   */\n      dup7\n        /* \"#utility.yul\":2690:2696   */\n      dup3\n        /* \"#utility.yul\":2679:2688   */\n      dup8\n        /* \"#utility.yul\":2675:2697   */\n      add\n        /* \"#utility.yul\":2644:2707   */\n      tag_153\n      jump\t// in\n    tag_182:\n        /* \"#utility.yul\":2634:2707   */\n      swap2\n      pop\n        /* \"#utility.yul\":2429:2717   */\n      pop\n        /* \"#utility.yul\":1745:2724   */\n      swap3\n      pop\n      swap3\n      pop\n      swap3\n      jump\t// out\n        /* \"#utility.yul\":2730:4035   */\n    tag_30:\n        /* \"#utility.yul\":2846:2852   */\n      0x00\n        /* \"#utility.yul\":2854:2860   */\n      dup1\n        /* \"#utility.yul\":2862:2868   */\n      0x00\n        /* \"#utility.yul\":2870:2876   */\n      dup1\n        /* \"#utility.yul\":2919:2922   */\n      0x80\n        /* \"#utility.yul\":2907:2916   */\n      dup6\n        /* \"#utility.yul\":2898:2905   */\n      dup8\n        /* \"#utility.yul\":2894:2917   */\n      sub\n        /* \"#utility.yul\":2890:2923   */\n      slt\n        /* \"#utility.yul\":2887:3007   */\n      iszero\n      tag_184\n      jumpi\n        /* \"#utility.yul\":2926:3005   */\n      tag_185\n      tag_166\n      jump\t// in\n    tag_185:\n        /* \"#utility.yul\":2887:3007   */\n    tag_184:\n        /* \"#utility.yul\":3046:3047   */\n      0x00\n        /* \"#utility.yul\":3071:3124   */\n      tag_186\n        /* \"#utility.yul\":3116:3123   */\n      dup8\n        /* \"#utility.yul\":3107:3113   */\n      dup3\n        /* \"#utility.yul\":3096:3105   */\n      dup9\n        /* \"#utility.yul\":3092:3114   */\n      add\n        /* \"#utility.yul\":3071:3124   */\n      tag_159\n      jump\t// in\n    tag_186:\n        /* \"#utility.yul\":3061:3124   */\n      swap5\n      pop\n        /* \"#utility.yul\":3017:3134   */\n      pop\n        /* \"#utility.yul\":3201:3203   */\n      0x20\n        /* \"#utility.yul\":3190:3199   */\n      dup6\n        /* \"#utility.yul\":3186:3204   */\n      add\n        /* \"#utility.yul\":3173:3205   */\n      calldataload\n        /* \"#utility.yul\":3232:3250   */\n      0xffffffffffffffff\n        /* \"#utility.yul\":3224:3230   */\n      dup2\n        /* \"#utility.yul\":3221:3251   */\n      gt\n        /* \"#utility.yul\":3218:3335   */\n      iszero\n      tag_187\n      jumpi\n        /* \"#utility.yul\":3254:3333   */\n      tag_188\n      tag_178\n      jump\t// in\n    tag_188:\n        /* \"#utility.yul\":3218:3335   */\n    tag_187:\n        /* \"#utility.yul\":3359:3422   */\n      tag_189\n        /* \"#utility.yul\":3414:3421   */\n      dup8\n        /* \"#utility.yul\":3405:3411   */\n      dup3\n        /* \"#utility.yul\":3394:3403   */\n      dup9\n        /* \"#utility.yul\":3390:3412   */\n      add\n        /* \"#utility.yul\":3359:3422   */\n      tag_153\n      jump\t// in\n    tag_189:\n        /* \"#utility.yul\":3349:3422   */\n      swap4\n      pop\n        /* \"#utility.yul\":3144:3432   */\n      pop\n        /* \"#utility.yul\":3499:3501   */\n      0x40\n        /* \"#utility.yul\":3488:3497   */\n      dup6\n        /* \"#utility.yul\":3484:3502   */\n      add\n        /* \"#utility.yul\":3471:3503   */\n      calldataload\n        /* \"#utility.yul\":3530:3548   */\n      0xffffffffffffffff\n        /* \"#utility.yul\":3522:3528   */\n      dup2\n        /* \"#utility.yul\":3519:3549   */\n      gt\n        /* \"#utility.yul\":3516:3633   */\n      iszero\n      tag_190\n      jumpi\n        /* \"#utility.yul\":3552:3631   */\n      tag_191\n      tag_178\n      jump\t// in\n    tag_191:\n        /* \"#utility.yul\":3516:3633   */\n    tag_190:\n        /* \"#utility.yul\":3657:3720   */\n      tag_192\n        /* \"#utility.yul\":3712:3719   */\n      dup8\n        /* \"#utility.yul\":3703:3709   */\n      dup3\n        /* \"#utility.yul\":3692:3701   */\n      dup9\n        /* \"#utility.yul\":3688:3710   */\n      add\n        /* \"#utility.yul\":3657:3720   */\n      tag_153\n      jump\t// in\n    tag_192:\n        /* \"#utility.yul\":3647:3720   */\n      swap3\n      pop\n        /* \"#utility.yul\":3442:3730   */\n      pop\n        /* \"#utility.yul\":3797:3799   */\n      0x60\n        /* \"#utility.yul\":3786:3795   */\n      dup6\n        /* \"#utility.yul\":3782:3800   */\n      add\n        /* \"#utility.yul\":3769:3801   */\n      calldataload\n        /* \"#utility.yul\":3828:3846   */\n      0xffffffffffffffff\n        /* \"#utility.yul\":3820:3826   */\n      dup2\n        /* \"#utility.yul\":3817:3847   */\n      gt\n        /* \"#utility.yul\":3814:3931   */\n      iszero\n      tag_193\n      jumpi\n        /* \"#utility.yul\":3850:3929   */\n      tag_194\n      tag_178\n      jump\t// in\n    tag_194:\n        /* \"#utility.yul\":3814:3931   */\n    tag_193:\n        /* \"#utility.yul\":3955:4018   */\n      tag_195\n        /* \"#utility.yul\":4010:4017   */\n      dup8\n        /* \"#utility.yul\":4001:4007   */\n      dup3\n        /* \"#utility.yul\":3990:3999   */\n      dup9\n        /* \"#utility.yul\":3986:4008   */\n      add\n        /* \"#utility.yul\":3955:4018   */\n      tag_153\n      jump\t// in\n    tag_195:\n        /* \"#utility.yul\":3945:4018   */\n      swap2\n      pop\n        /* \"#utility.yul\":3740:4028   */\n      pop\n        /* \"#utility.yul\":2730:4035   */\n      swap3\n      swap6\n      swap2\n      swap5\n      pop\n      swap3\n      pop\n      jump\t// out\n        /* \"#utility.yul\":4041:4515   */\n    tag_34:\n        /* \"#utility.yul\":4109:4115   */\n      0x00\n        /* \"#utility.yul\":4117:4123   */\n      dup1\n        /* \"#utility.yul\":4166:4168   */\n      0x40\n        /* \"#utility.yul\":4154:4163   */\n      dup4\n        /* \"#utility.yul\":4145:4152   */\n      dup6\n        /* \"#utility.yul\":4141:4164   */\n      sub\n        /* \"#utility.yul\":4137:4169   */\n      slt\n        /* \"#utility.yul\":4134:4253   */\n      iszero\n      tag_197\n      jumpi\n        /* \"#utility.yul\":4172:4251   */\n      tag_198\n      tag_166\n      jump\t// in\n    tag_198:\n        /* \"#utility.yul\":4134:4253   */\n    tag_197:\n        /* \"#utility.yul\":4292:4293   */\n      0x00\n        /* \"#utility.yul\":4317:4370   */\n      tag_199\n        /* \"#utility.yul\":4362:4369   */\n      dup6\n        /* \"#utility.yul\":4353:4359   */\n      dup3\n        /* \"#utility.yul\":4342:4351   */\n      dup7\n        /* \"#utility.yul\":4338:4360   */\n      add\n        /* \"#utility.yul\":4317:4370   */\n      tag_159\n      jump\t// in\n    tag_199:\n        /* \"#utility.yul\":4307:4370   */\n      swap3\n      pop\n        /* \"#utility.yul\":4263:4380   */\n      pop\n        /* \"#utility.yul\":4419:4421   */\n      0x20\n        /* \"#utility.yul\":4445:4498   */\n      tag_200\n        /* \"#utility.yul\":4490:4497   */\n      dup6\n        /* \"#utility.yul\":4481:4487   */\n      dup3\n        /* \"#utility.yul\":4470:4479   */\n      dup7\n        /* \"#utility.yul\":4466:4488   */\n      add\n        /* \"#utility.yul\":4445:4498   */\n      tag_159\n      jump\t// in\n    tag_200:\n        /* \"#utility.yul\":4435:4498   */\n      swap2\n      pop\n        /* \"#utility.yul\":4390:4508   */\n      pop\n        /* \"#utility.yul\":4041:4515   */\n      swap3\n      pop\n      swap3\n      swap1\n      pop\n      jump\t// out\n        /* \"#utility.yul\":4521:5972   */\n    tag_47:\n        /* \"#utility.yul\":4646:4652   */\n      0x00\n        /* \"#utility.yul\":4654:4660   */\n      dup1\n        /* \"#utility.yul\":4662:4668   */\n      0x00\n        /* \"#utility.yul\":4670:4676   */\n      dup1\n        /* \"#utility.yul\":4678:4684   */\n      0x00\n        /* \"#utility.yul\":4727:4730   */\n      0xa0\n        /* \"#utility.yul\":4715:4724   */\n      dup7\n        /* \"#utility.yul\":4706:4713   */\n      dup9\n        /* \"#utility.yul\":4702:4725   */\n      sub\n        /* \"#utility.yul\":4698:4731   */\n      slt\n        /* \"#utility.yul\":4695:4815   */\n      iszero\n      tag_202\n      jumpi\n        /* \"#utility.yul\":4734:4813   */\n      tag_203\n      tag_166\n      jump\t// in\n    tag_203:\n        /* \"#utility.yul\":4695:4815   */\n    tag_202:\n        /* \"#utility.yul\":4854:4855   */\n      0x00\n        /* \"#utility.yul\":4879:4932   */\n      tag_204\n        /* \"#utility.yul\":4924:4931   */\n      dup9\n        /* \"#utility.yul\":4915:4921   */\n      dup3\n        /* \"#utility.yul\":4904:4913   */\n      dup10\n        /* \"#utility.yul\":4900:4922   */\n      add\n        /* \"#utility.yul\":4879:4932   */\n      tag_159\n      jump\t// in\n    tag_204:\n        /* \"#utility.yul\":4869:4932   */\n      swap6\n      pop\n        /* \"#utility.yul\":4825:4942   */\n      pop\n        /* \"#utility.yul\":4981:4983   */\n      0x20\n        /* \"#utility.yul\":5007:5060   */\n      tag_205\n        /* \"#utility.yul\":5052:5059   */\n      dup9\n        /* \"#utility.yul\":5043:5049   */\n      dup3\n        /* \"#utility.yul\":5032:5041   */\n      dup10\n        /* \"#utility.yul\":5028:5050   */\n      add\n        /* \"#utility.yul\":5007:5060   */\n      tag_159\n      jump\t// in\n    tag_205:\n        /* \"#utility.yul\":4997:5060   */\n      swap5\n      pop\n        /* \"#utility.yul\":4952:5070   */\n      pop\n        /* \"#utility.yul\":5137:5139   */\n      0x40\n        /* \"#utility.yul\":5126:5135   */\n      dup7\n        /* \"#utility.yul\":5122:5140   */\n      add\n        /* \"#utility.yul\":5109:5141   */\n      calldataload\n        /* \"#utility.yul\":5168:5186   */\n      0xffffffffffffffff\n        /* \"#utility.yul\":5160:5166   */\n      dup2\n        /* \"#utility.yul\":5157:5187   */\n      gt\n        /* \"#utility.yul\":5154:5271   */\n      iszero\n      tag_206\n      jumpi\n        /* \"#utility.yul\":5190:5269   */\n      tag_207\n      tag_178\n      jump\t// in\n    tag_207:\n        /* \"#utility.yul\":5154:5271   */\n    tag_206:\n        /* \"#utility.yul\":5295:5358   */\n      tag_208\n        /* \"#utility.yul\":5350:5357   */\n      dup9\n        /* \"#utility.yul\":5341:5347   */\n      dup3\n        /* \"#utility.yul\":5330:5339   */\n      dup10\n        /* \"#utility.yul\":5326:5348   */\n      add\n        /* \"#utility.yul\":5295:5358   */\n      tag_153\n      jump\t// in\n    tag_208:\n        /* \"#utility.yul\":5285:5358   */\n      swap4\n      pop\n        /* \"#utility.yul\":5080:5368   */\n      pop\n        /* \"#utility.yul\":5435:5437   */\n      0x60\n        /* \"#utility.yul\":5424:5433   */\n      dup7\n        /* \"#utility.yul\":5420:5438   */\n      add\n        /* \"#utility.yul\":5407:5439   */\n      calldataload\n        /* \"#utility.yul\":5466:5484   */\n      0xffffffffffffffff\n        /* \"#utility.yul\":5458:5464   */\n      dup2\n        /* \"#utility.yul\":5455:5485   */\n      gt\n        /* \"#utility.yul\":5452:5569   */\n      iszero\n      tag_209\n      jumpi\n        /* \"#utility.yul\":5488:5567   */\n      tag_210\n      tag_178\n      jump\t// in\n    tag_210:\n        /* \"#utility.yul\":5452:5569   */\n    tag_209:\n        /* \"#utility.yul\":5593:5656   */\n      tag_211\n        /* \"#utility.yul\":5648:5655   */\n      dup9\n        /* \"#utility.yul\":5639:5645   */\n      dup3\n        /* \"#utility.yul\":5628:5637   */\n      dup10\n        /* \"#utility.yul\":5624:5646   */\n      add\n        /* \"#utility.yul\":5593:5656   */\n      tag_153\n      jump\t// in\n    tag_211:\n        /* \"#utility.yul\":5583:5656   */\n      swap3\n      pop\n        /* \"#utility.yul\":5378:5666   */\n      pop\n        /* \"#utility.yul\":5733:5736   */\n      0x80\n        /* \"#utility.yul\":5722:5731   */\n      dup7\n        /* \"#utility.yul\":5718:5737   */\n      add\n        /* \"#utility.yul\":5705:5738   */\n      calldataload\n        /* \"#utility.yul\":5765:5783   */\n      0xffffffffffffffff\n        /* \"#utility.yul\":5757:5763   */\n      dup2\n        /* \"#utility.yul\":5754:5784   */\n      gt\n        /* \"#utility.yul\":5751:5868   */\n      iszero\n      tag_212\n      jumpi\n        /* \"#utility.yul\":5787:5866   */\n      tag_213\n      tag_178\n      jump\t// in\n    tag_213:\n        /* \"#utility.yul\":5751:5868   */\n    tag_212:\n        /* \"#utility.yul\":5892:5955   */\n      tag_214\n        /* \"#utility.yul\":5947:5954   */\n      dup9\n        /* \"#utility.yul\":5938:5944   */\n      dup3\n        /* \"#utility.yul\":5927:5936   */\n      dup10\n        /* \"#utility.yul\":5923:5945   */\n      add\n        /* \"#utility.yul\":5892:5955   */\n      tag_153\n      jump\t// in\n    tag_214:\n        /* \"#utility.yul\":5882:5955   */\n      swap2\n      pop\n        /* \"#utility.yul\":5676:5965   */\n      pop\n        /* \"#utility.yul\":4521:5972   */\n      swap3\n      swap6\n      pop\n      swap3\n      swap6\n      swap1\n      swap4\n      pop\n      jump\t// out\n        /* \"#utility.yul\":5978:6096   */\n    tag_215:\n        /* \"#utility.yul\":6065:6089   */\n      tag_217\n        /* \"#utility.yul\":6083:6088   */\n      dup2\n        /* \"#utility.yul\":6065:6089   */\n      tag_218\n      jump\t// in\n    tag_217:\n        /* \"#utility.yul\":6060:6063   */\n      dup3\n        /* \"#utility.yul\":6053:6090   */\n      mstore\n        /* \"#utility.yul\":5978:6096   */\n      pop\n      pop\n      jump\t// out\n        /* \"#utility.yul\":6102:6466   */\n    tag_219:\n        /* \"#utility.yul\":6190:6193   */\n      0x00\n        /* \"#utility.yul\":6218:6257   */\n      tag_221\n        /* \"#utility.yul\":6251:6256   */\n      dup3\n        /* \"#utility.yul\":6218:6257   */\n      tag_222\n      jump\t// in\n    tag_221:\n        /* \"#utility.yul\":6273:6344   */\n      tag_223\n        /* \"#utility.yul\":6337:6343   */\n      dup2\n        /* \"#utility.yul\":6332:6335   */\n      dup6\n        /* \"#utility.yul\":6273:6344   */\n      tag_224\n      jump\t// in\n    tag_223:\n        /* \"#utility.yul\":6266:6344   */\n      swap4\n      pop\n        /* \"#utility.yul\":6353:6405   */\n      tag_225\n        /* \"#utility.yul\":6398:6404   */\n      dup2\n        /* \"#utility.yul\":6393:6396   */\n      dup6\n        /* \"#utility.yul\":6386:6390   */\n      0x20\n        /* \"#utility.yul\":6379:6384   */\n      dup7\n        /* \"#utility.yul\":6375:6391   */\n      add\n        /* \"#utility.yul\":6353:6405   */\n      tag_226\n      jump\t// in\n    tag_225:\n        /* \"#utility.yul\":6430:6459   */\n      tag_227\n        /* \"#utility.yul\":6452:6458   */\n      dup2\n        /* \"#utility.yul\":6430:6459   */\n      tag_228\n      jump\t// in\n    tag_227:\n        /* \"#utility.yul\":6425:6428   */\n      dup5\n        /* \"#utility.yul\":6421:6460   */\n      add\n        /* \"#utility.yul\":6414:6460   */\n      swap2\n      pop\n        /* \"#utility.yul\":6194:6466   */\n      pop\n        /* \"#utility.yul\":6102:6466   */\n      swap3\n      swap2\n      pop\n      pop\n      jump\t// out\n        /* \"#utility.yul\":6472:6838   */\n    tag_229:\n        /* \"#utility.yul\":6614:6617   */\n      0x00\n        /* \"#utility.yul\":6635:6702   */\n      tag_231\n        /* \"#utility.yul\":6699:6701   */\n      0x48\n        /* \"#utility.yul\":6694:6697   */\n      dup4\n        /* \"#utility.yul\":6635:6702   */\n      tag_224\n      jump\t// in\n    tag_231:\n        /* \"#utility.yul\":6628:6702   */\n      swap2\n      pop\n        /* \"#utility.yul\":6711:6804   */\n      tag_232\n        /* \"#utility.yul\":6800:6803   */\n      dup3\n        /* \"#utility.yul\":6711:6804   */\n      tag_233\n      jump\t// in\n    tag_232:\n        /* \"#utility.yul\":6829:6831   */\n      0x60\n        /* \"#utility.yul\":6824:6827   */\n      dup3\n        /* \"#utility.yul\":6820:6832   */\n      add\n        /* \"#utility.yul\":6813:6832   */\n      swap1\n      pop\n        /* \"#utility.yul\":6472:6838   */\n      swap2\n      swap1\n      pop\n      jump\t// out\n        /* \"#utility.yul\":6844:7210   */\n    tag_234:\n        /* \"#utility.yul\":6986:6989   */\n      0x00\n        /* \"#utility.yul\":7007:7074   */\n      tag_236\n        /* \"#utility.yul\":7071:7073   */\n      0x34\n        /* \"#utility.yul\":7066:7069   */\n      dup4\n        /* \"#utility.yul\":7007:7074   */\n      tag_224\n      jump\t// in\n    tag_236:\n        /* \"#utility.yul\":7000:7074   */\n      swap2\n      pop\n        /* \"#utility.yul\":7083:7176   */\n      tag_237\n        /* \"#utility.yul\":7172:7175   */\n      dup3\n        /* \"#utility.yul\":7083:7176   */\n      tag_238\n      jump\t// in\n    tag_237:\n        /* \"#utility.yul\":7201:7203   */\n      0x40\n        /* \"#utility.yul\":7196:7199   */\n      dup3\n        /* \"#utility.yul\":7192:7204   */\n      add\n        /* \"#utility.yul\":7185:7204   */\n      swap1\n      pop\n        /* \"#utility.yul\":6844:7210   */\n      swap2\n      swap1\n      pop\n      jump\t// out\n        /* \"#utility.yul\":7216:7582   */\n    tag_239:\n        /* \"#utility.yul\":7358:7361   */\n      0x00\n        /* \"#utility.yul\":7379:7446   */\n      tag_241\n        /* \"#utility.yul\":7443:7445   */\n      0x43\n        /* \"#utility.yul\":7438:7441   */\n      dup4\n        /* \"#utility.yul\":7379:7446   */\n      tag_224\n      jump\t// in\n    tag_241:\n        /* \"#utility.yul\":7372:7446   */\n      swap2\n      pop\n        /* \"#utility.yul\":7455:7548   */\n      tag_242\n        /* \"#utility.yul\":7544:7547   */\n      dup3\n        /* \"#utility.yul\":7455:7548   */\n      tag_243\n      jump\t// in\n    tag_242:\n        /* \"#utility.yul\":7573:7575   */\n      0x60\n        /* \"#utility.yul\":7568:7571   */\n      dup3\n        /* \"#utility.yul\":7564:7576   */\n      add\n        /* \"#utility.yul\":7557:7576   */\n      swap1\n      pop\n        /* \"#utility.yul\":7216:7582   */\n      swap2\n      swap1\n      pop\n      jump\t// out\n        /* \"#utility.yul\":7588:7954   */\n    tag_244:\n        /* \"#utility.yul\":7730:7733   */\n      0x00\n        /* \"#utility.yul\":7751:7818   */\n      tag_246\n        /* \"#utility.yul\":7815:7817   */\n      0x45\n        /* \"#utility.yul\":7810:7813   */\n      dup4\n        /* \"#utility.yul\":7751:7818   */\n      tag_224\n      jump\t// in\n    tag_246:\n        /* \"#utility.yul\":7744:7818   */\n      swap2\n      pop\n        /* \"#utility.yul\":7827:7920   */\n      tag_247\n        /* \"#utility.yul\":7916:7919   */\n      dup3\n        /* \"#utility.yul\":7827:7920   */\n      tag_248\n      jump\t// in\n    tag_247:\n        /* \"#utility.yul\":7945:7947   */\n      0x60\n        /* \"#utility.yul\":7940:7943   */\n      dup3\n        /* \"#utility.yul\":7936:7948   */\n      add\n        /* \"#utility.yul\":7929:7948   */\n      swap1\n      pop\n        /* \"#utility.yul\":7588:7954   */\n      swap2\n      swap1\n      pop\n      jump\t// out\n        /* \"#utility.yul\":7960:8326   */\n    tag_249:\n        /* \"#utility.yul\":8102:8105   */\n      0x00\n        /* \"#utility.yul\":8123:8190   */\n      tag_251\n        /* \"#utility.yul\":8187:8189   */\n      0x41\n        /* \"#utility.yul\":8182:8185   */\n      dup4\n        /* \"#utility.yul\":8123:8190   */\n      tag_224\n      jump\t// in\n    tag_251:\n        /* \"#utility.yul\":8116:8190   */\n      swap2\n      pop\n        /* \"#utility.yul\":8199:8292   */\n      tag_252\n        /* \"#utility.yul\":8288:8291   */\n      dup3\n        /* \"#utility.yul\":8199:8292   */\n      tag_253\n      jump\t// in\n    tag_252:\n        /* \"#utility.yul\":8317:8319   */\n      0x60\n        /* \"#utility.yul\":8312:8315   */\n      dup3\n        /* \"#utility.yul\":8308:8320   */\n      add\n        /* \"#utility.yul\":8301:8320   */\n      swap1\n      pop\n        /* \"#utility.yul\":7960:8326   */\n      swap2\n      swap1\n      pop\n      jump\t// out\n        /* \"#utility.yul\":8332:8450   */\n    tag_254:\n        /* \"#utility.yul\":8419:8443   */\n      tag_256\n        /* \"#utility.yul\":8437:8442   */\n      dup2\n        /* \"#utility.yul\":8419:8443   */\n      tag_257\n      jump\t// in\n    tag_256:\n        /* \"#utility.yul\":8414:8417   */\n      dup3\n        /* \"#utility.yul\":8407:8444   */\n      mstore\n        /* \"#utility.yul\":8332:8450   */\n      pop\n      pop\n      jump\t// out\n        /* \"#utility.yul\":8456:8678   */\n    tag_52:\n        /* \"#utility.yul\":8549:8553   */\n      0x00\n        /* \"#utility.yul\":8587:8589   */\n      0x20\n        /* \"#utility.yul\":8576:8585   */\n      dup3\n        /* \"#utility.yul\":8572:8590   */\n      add\n        /* \"#utility.yul\":8564:8590   */\n      swap1\n      pop\n        /* \"#utility.yul\":8600:8671   */\n      tag_259\n        /* \"#utility.yul\":8668:8669   */\n      0x00\n        /* \"#utility.yul\":8657:8666   */\n      dup4\n        /* \"#utility.yul\":8653:8670   */\n      add\n        /* \"#utility.yul\":8644:8650   */\n      dup5\n        /* \"#utility.yul\":8600:8671   */\n      tag_215\n      jump\t// in\n    tag_259:\n        /* \"#utility.yul\":8456:8678   */\n      swap3\n      swap2\n      pop\n      pop\n      jump\t// out\n        /* \"#utility.yul\":8684:9103   */\n    tag_113:\n        /* \"#utility.yul\":8850:8854   */\n      0x00\n        /* \"#utility.yul\":8888:8890   */\n      0x20\n        /* \"#utility.yul\":8877:8886   */\n      dup3\n        /* \"#utility.yul\":8873:8891   */\n      add\n        /* \"#utility.yul\":8865:8891   */\n      swap1\n      pop\n        /* \"#utility.yul\":8937:8946   */\n      dup2\n        /* \"#utility.yul\":8931:8935   */\n      dup2\n        /* \"#utility.yul\":8927:8947   */\n      sub\n        /* \"#utility.yul\":8923:8924   */\n      0x00\n        /* \"#utility.yul\":8912:8921   */\n      dup4\n        /* \"#utility.yul\":8908:8925   */\n      add\n        /* \"#utility.yul\":8901:8948   */\n      mstore\n        /* \"#utility.yul\":8965:9096   */\n      tag_261\n        /* \"#utility.yul\":9091:9095   */\n      dup2\n        /* \"#utility.yul\":8965:9096   */\n      tag_229\n      jump\t// in\n    tag_261:\n        /* \"#utility.yul\":8957:9096   */\n      swap1\n      pop\n        /* \"#utility.yul\":8684:9103   */\n      swap2\n      swap1\n      pop\n      jump\t// out\n        /* \"#utility.yul\":9109:9528   */\n    tag_72:\n        /* \"#utility.yul\":9275:9279   */\n      0x00\n        /* \"#utility.yul\":9313:9315   */\n      0x20\n        /* \"#utility.yul\":9302:9311   */\n      dup3\n        /* \"#utility.yul\":9298:9316   */\n      add\n        /* \"#utility.yul\":9290:9316   */\n      swap1\n      pop\n        /* \"#utility.yul\":9362:9371   */\n      dup2\n        /* \"#utility.yul\":9356:9360   */\n      dup2\n        /* \"#utility.yul\":9352:9372   */\n      sub\n        /* \"#utility.yul\":9348:9349   */\n      0x00\n        /* \"#utility.yul\":9337:9346   */\n      dup4\n        /* \"#utility.yul\":9333:9350   */\n      add\n        /* \"#utility.yul\":9326:9373   */\n      mstore\n        /* \"#utility.yul\":9390:9521   */\n      tag_263\n        /* \"#utility.yul\":9516:9520   */\n      dup2\n        /* \"#utility.yul\":9390:9521   */\n      tag_234\n      jump\t// in\n    tag_263:\n        /* \"#utility.yul\":9382:9521   */\n      swap1\n      pop\n        /* \"#utility.yul\":9109:9528   */\n      swap2\n      swap1\n      pop\n      jump\t// out\n        /* \"#utility.yul\":9534:9953   */\n    tag_95:\n        /* \"#utility.yul\":9700:9704   */\n      0x00\n        /* \"#utility.yul\":9738:9740   */\n      0x20\n        /* \"#utility.yul\":9727:9736   */\n      dup3\n        /* \"#utility.yul\":9723:9741   */\n      add\n        /* \"#utility.yul\":9715:9741   */\n      swap1\n      pop\n        /* \"#utility.yul\":9787:9796   */\n      dup2\n        /* \"#utility.yul\":9781:9785   */\n      dup2\n        /* \"#utility.yul\":9777:9797   */\n      sub\n        /* \"#utility.yul\":9773:9774   */\n      0x00\n        /* \"#utility.yul\":9762:9771   */\n      dup4\n        /* \"#utility.yul\":9758:9775   */\n      add\n        /* \"#utility.yul\":9751:9798   */\n      mstore\n        /* \"#utility.yul\":9815:9946   */\n      tag_265\n        /* \"#utility.yul\":9941:9945   */\n      dup2\n        /* \"#utility.yul\":9815:9946   */\n      tag_239\n      jump\t// in\n    tag_265:\n        /* \"#utility.yul\":9807:9946   */\n      swap1\n      pop\n        /* \"#utility.yul\":9534:9953   */\n      swap2\n      swap1\n      pop\n      jump\t// out\n        /* \"#utility.yul\":9959:10378   */\n    tag_120:\n        /* \"#utility.yul\":10125:10129   */\n      0x00\n        /* \"#utility.yul\":10163:10165   */\n      0x20\n        /* \"#utility.yul\":10152:10161   */\n      dup3\n        /* \"#utility.yul\":10148:10166   */\n      add\n        /* \"#utility.yul\":10140:10166   */\n      swap1\n      pop\n        /* \"#utility.yul\":10212:10221   */\n      dup2\n        /* \"#utility.yul\":10206:10210   */\n      dup2\n        /* \"#utility.yul\":10202:10222   */\n      sub\n        /* \"#utility.yul\":10198:10199   */\n      0x00\n        /* \"#utility.yul\":10187:10196   */\n      dup4\n        /* \"#utility.yul\":10183:10200   */\n      add\n        /* \"#utility.yul\":10176:10223   */\n      mstore\n        /* \"#utility.yul\":10240:10371   */\n      tag_267\n        /* \"#utility.yul\":10366:10370   */\n      dup2\n        /* \"#utility.yul\":10240:10371   */\n      tag_244\n      jump\t// in\n    tag_267:\n        /* \"#utility.yul\":10232:10371   */\n      swap1\n      pop\n        /* \"#utility.yul\":9959:10378   */\n      swap2\n      swap1\n      pop\n      jump\t// out\n        /* \"#utility.yul\":10384:10803   */\n    tag_123:\n        /* \"#utility.yul\":10550:10554   */\n      0x00\n        /* \"#utility.yul\":10588:10590   */\n      0x20\n        /* \"#utility.yul\":10577:10586   */\n      dup3\n        /* \"#utility.yul\":10573:10591   */\n      add\n        /* \"#utility.yul\":10565:10591   */\n      swap1\n      pop\n        /* \"#utility.yul\":10637:10646   */\n      dup2\n        /* \"#utility.yul\":10631:10635   */\n      dup2\n        /* \"#utility.yul\":10627:10647   */\n      sub\n        /* \"#utility.yul\":10623:10624   */\n      0x00\n        /* \"#utility.yul\":10612:10621   */\n      dup4\n        /* \"#utility.yul\":10608:10625   */\n      add\n        /* \"#utility.yul\":10601:10648   */\n      mstore\n        /* \"#utility.yul\":10665:10796   */\n      tag_269\n        /* \"#utility.yul\":10791:10795   */\n      dup2\n        /* \"#utility.yul\":10665:10796   */\n      tag_249\n      jump\t// in\n    tag_269:\n        /* \"#utility.yul\":10657:10796   */\n      swap1\n      pop\n        /* \"#utility.yul\":10384:10803   */\n      swap2\n      swap1\n      pop\n      jump\t// out\n        /* \"#utility.yul\":10809:11544   */\n    tag_41:\n        /* \"#utility.yul\":11026:11030   */\n      0x00\n        /* \"#utility.yul\":11064:11067   */\n      0x80\n        /* \"#utility.yul\":11053:11062   */\n      dup3\n        /* \"#utility.yul\":11049:11068   */\n      add\n        /* \"#utility.yul\":11041:11068   */\n      swap1\n      pop\n        /* \"#utility.yul\":11078:11149   */\n      tag_271\n        /* \"#utility.yul\":11146:11147   */\n      0x00\n        /* \"#utility.yul\":11135:11144   */\n      dup4\n        /* \"#utility.yul\":11131:11148   */\n      add\n        /* \"#utility.yul\":11122:11128   */\n      dup8\n        /* \"#utility.yul\":11078:11149   */\n      tag_254\n      jump\t// in\n    tag_271:\n        /* \"#utility.yul\":11196:11205   */\n      dup2\n        /* \"#utility.yul\":11190:11194   */\n      dup2\n        /* \"#utility.yul\":11186:11206   */\n      sub\n        /* \"#utility.yul\":11181:11183   */\n      0x20\n        /* \"#utility.yul\":11170:11179   */\n      dup4\n        /* \"#utility.yul\":11166:11184   */\n      add\n        /* \"#utility.yul\":11159:11207   */\n      mstore\n        /* \"#utility.yul\":11224:11302   */\n      tag_272\n        /* \"#utility.yul\":11297:11301   */\n      dup2\n        /* \"#utility.yul\":11288:11294   */\n      dup7\n        /* \"#utility.yul\":11224:11302   */\n      tag_219\n      jump\t// in\n    tag_272:\n        /* \"#utility.yul\":11216:11302   */\n      swap1\n      pop\n        /* \"#utility.yul\":11349:11358   */\n      dup2\n        /* \"#utility.yul\":11343:11347   */\n      dup2\n        /* \"#utility.yul\":11339:11359   */\n      sub\n        /* \"#utility.yul\":11334:11336   */\n      0x40\n        /* \"#utility.yul\":11323:11332   */\n      dup4\n        /* \"#utility.yul\":11319:11337   */\n      add\n        /* \"#utility.yul\":11312:11360   */\n      mstore\n        /* \"#utility.yul\":11377:11455   */\n      tag_273\n        /* \"#utility.yul\":11450:11454   */\n      dup2\n        /* \"#utility.yul\":11441:11447   */\n      dup6\n        /* \"#utility.yul\":11377:11455   */\n      tag_219\n      jump\t// in\n    tag_273:\n        /* \"#utility.yul\":11369:11455   */\n      swap1\n      pop\n        /* \"#utility.yul\":11465:11537   */\n      tag_274\n        /* \"#utility.yul\":11533:11535   */\n      0x60\n        /* \"#utility.yul\":11522:11531   */\n      dup4\n        /* \"#utility.yul\":11518:11536   */\n      add\n        /* \"#utility.yul\":11509:11515   */\n      dup5\n        /* \"#utility.yul\":11465:11537   */\n      tag_215\n      jump\t// in\n    tag_274:\n        /* \"#utility.yul\":10809:11544   */\n      swap6\n      swap5\n      pop\n      pop\n      pop\n      pop\n      pop\n      jump\t// out\n        /* \"#utility.yul\":11550:12598   */\n    tag_18:\n        /* \"#utility.yul\":11843:11847   */\n      0x00\n        /* \"#utility.yul\":11881:11884   */\n      0xc0\n        /* \"#utility.yul\":11870:11879   */\n      dup3\n        /* \"#utility.yul\":11866:11885   */\n      add\n        /* \"#utility.yul\":11858:11885   */\n      swap1\n      pop\n        /* \"#utility.yul\":11895:11966   */\n      tag_276\n        /* \"#utility.yul\":11963:11964   */\n      0x00\n        /* \"#utility.yul\":11952:11961   */\n      dup4\n        /* \"#utility.yul\":11948:11965   */\n      add\n        /* \"#utility.yul\":11939:11945   */\n      dup10\n        /* \"#utility.yul\":11895:11966   */\n      tag_254\n      jump\t// in\n    tag_276:\n        /* \"#utility.yul\":12013:12022   */\n      dup2\n        /* \"#utility.yul\":12007:12011   */\n      dup2\n        /* \"#utility.yul\":12003:12023   */\n      sub\n        /* \"#utility.yul\":11998:12000   */\n      0x20\n        /* \"#utility.yul\":11987:11996   */\n      dup4\n        /* \"#utility.yul\":11983:12001   */\n      add\n        /* \"#utility.yul\":11976:12024   */\n      mstore\n        /* \"#utility.yul\":12041:12119   */\n      tag_277\n        /* \"#utility.yul\":12114:12118   */\n      dup2\n        /* \"#utility.yul\":12105:12111   */\n      dup9\n        /* \"#utility.yul\":12041:12119   */\n      tag_219\n      jump\t// in\n    tag_277:\n        /* \"#utility.yul\":12033:12119   */\n      swap1\n      pop\n        /* \"#utility.yul\":12166:12175   */\n      dup2\n        /* \"#utility.yul\":12160:12164   */\n      dup2\n        /* \"#utility.yul\":12156:12176   */\n      sub\n        /* \"#utility.yul\":12151:12153   */\n      0x40\n        /* \"#utility.yul\":12140:12149   */\n      dup4\n        /* \"#utility.yul\":12136:12154   */\n      add\n        /* \"#utility.yul\":12129:12177   */\n      mstore\n        /* \"#utility.yul\":12194:12272   */\n      tag_278\n        /* \"#utility.yul\":12267:12271   */\n      dup2\n        /* \"#utility.yul\":12258:12264   */\n      dup8\n        /* \"#utility.yul\":12194:12272   */\n      tag_219\n      jump\t// in\n    tag_278:\n        /* \"#utility.yul\":12186:12272   */\n      swap1\n      pop\n        /* \"#utility.yul\":12319:12328   */\n      dup2\n        /* \"#utility.yul\":12313:12317   */\n      dup2\n        /* \"#utility.yul\":12309:12329   */\n      sub\n        /* \"#utility.yul\":12304:12306   */\n      0x60\n        /* \"#utility.yul\":12293:12302   */\n      dup4\n        /* \"#utility.yul\":12289:12307   */\n      add\n        /* \"#utility.yul\":12282:12330   */\n      mstore\n        /* \"#utility.yul\":12347:12425   */\n      tag_279\n        /* \"#utility.yul\":12420:12424   */\n      dup2\n        /* \"#utility.yul\":12411:12417   */\n      dup7\n        /* \"#utility.yul\":12347:12425   */\n      tag_219\n      jump\t// in\n    tag_279:\n        /* \"#utility.yul\":12339:12425   */\n      swap1\n      pop\n        /* \"#utility.yul\":12435:12508   */\n      tag_280\n        /* \"#utility.yul\":12503:12506   */\n      0x80\n        /* \"#utility.yul\":12492:12501   */\n      dup4\n        /* \"#utility.yul\":12488:12507   */\n      add\n        /* \"#utility.yul\":12479:12485   */\n      dup6\n        /* \"#utility.yul\":12435:12508   */\n      tag_254\n      jump\t// in\n    tag_280:\n        /* \"#utility.yul\":12518:12591   */\n      tag_281\n        /* \"#utility.yul\":12586:12589   */\n      0xa0\n        /* \"#utility.yul\":12575:12584   */\n      dup4\n        /* \"#utility.yul\":12571:12590   */\n      add\n        /* \"#utility.yul\":12562:12568   */\n      dup5\n        /* \"#utility.yul\":12518:12591   */\n      tag_215\n      jump\t// in\n    tag_281:\n        /* \"#utility.yul\":11550:12598   */\n      swap8\n      swap7\n      pop\n      pop\n      pop\n      pop\n      pop\n      pop\n      pop\n      jump\t// out\n        /* \"#utility.yul\":12604:13652   */\n    tag_27:\n        /* \"#utility.yul\":12897:12901   */\n      0x00\n        /* \"#utility.yul\":12935:12938   */\n      0xc0\n        /* \"#utility.yul\":12924:12933   */\n      dup3\n        /* \"#utility.yul\":12920:12939   */\n      add\n        /* \"#utility.yul\":12912:12939   */\n      swap1\n      pop\n        /* \"#utility.yul\":12949:13020   */\n      tag_283\n        /* \"#utility.yul\":13017:13018   */\n      0x00\n        /* \"#utility.yul\":13006:13015   */\n      dup4\n        /* \"#utility.yul\":13002:13019   */\n      add\n        /* \"#utility.yul\":12993:12999   */\n      dup10\n        /* \"#utility.yul\":12949:13020   */\n      tag_254\n      jump\t// in\n    tag_283:\n        /* \"#utility.yul\":13030:13102   */\n      tag_284\n        /* \"#utility.yul\":13098:13100   */\n      0x20\n        /* \"#utility.yul\":13087:13096   */\n      dup4\n        /* \"#utility.yul\":13083:13101   */\n      add\n        /* \"#utility.yul\":13074:13080   */\n      dup9\n        /* \"#utility.yul\":13030:13102   */\n      tag_254\n      jump\t// in\n    tag_284:\n        /* \"#utility.yul\":13112:13184   */\n      tag_285\n        /* \"#utility.yul\":13180:13182   */\n      0x40\n        /* \"#utility.yul\":13169:13178   */\n      dup4\n        /* \"#utility.yul\":13165:13183   */\n      add\n        /* \"#utility.yul\":13156:13162   */\n      dup8\n        /* \"#utility.yul\":13112:13184   */\n      tag_254\n      jump\t// in\n    tag_285:\n        /* \"#utility.yul\":13231:13240   */\n      dup2\n        /* \"#utility.yul\":13225:13229   */\n      dup2\n        /* \"#utility.yul\":13221:13241   */\n      sub\n        /* \"#utility.yul\":13216:13218   */\n      0x60\n        /* \"#utility.yul\":13205:13214   */\n      dup4\n        /* \"#utility.yul\":13201:13219   */\n      add\n        /* \"#utility.yul\":13194:13242   */\n      mstore\n        /* \"#utility.yul\":13259:13337   */\n      tag_286\n        /* \"#utility.yul\":13332:13336   */\n      dup2\n        /* \"#utility.yul\":13323:13329   */\n      dup7\n        /* \"#utility.yul\":13259:13337   */\n      tag_219\n      jump\t// in\n    tag_286:\n        /* \"#utility.yul\":13251:13337   */\n      swap1\n      pop\n        /* \"#utility.yul\":13385:13394   */\n      dup2\n        /* \"#utility.yul\":13379:13383   */\n      dup2\n        /* \"#utility.yul\":13375:13395   */\n      sub\n        /* \"#utility.yul\":13369:13372   */\n      0x80\n        /* \"#utility.yul\":13358:13367   */\n      dup4\n        /* \"#utility.yul\":13354:13373   */\n      add\n        /* \"#utility.yul\":13347:13396   */\n      mstore\n        /* \"#utility.yul\":13413:13491   */\n      tag_287\n        /* \"#utility.yul\":13486:13490   */\n      dup2\n        /* \"#utility.yul\":13477:13483   */\n      dup6\n        /* \"#utility.yul\":13413:13491   */\n      tag_219\n      jump\t// in\n    tag_287:\n        /* \"#utility.yul\":13405:13491   */\n      swap1\n      pop\n        /* \"#utility.yul\":13539:13548   */\n      dup2\n        /* \"#utility.yul\":13533:13537   */\n      dup2\n        /* \"#utility.yul\":13529:13549   */\n      sub\n        /* \"#utility.yul\":13523:13526   */\n      0xa0\n        /* \"#utility.yul\":13512:13521   */\n      dup4\n        /* \"#utility.yul\":13508:13527   */\n      add\n        /* \"#utility.yul\":13501:13550   */\n      mstore\n        /* \"#utility.yul\":13567:13645   */\n      tag_288\n        /* \"#utility.yul\":13640:13644   */\n      dup2\n        /* \"#utility.yul\":13631:13637   */\n      dup5\n        /* \"#utility.yul\":13567:13645   */\n      tag_219\n      jump\t// in\n    tag_288:\n        /* \"#utility.yul\":13559:13645   */\n      swap1\n      pop\n        /* \"#utility.yul\":12604:13652   */\n      swap8\n      swap7\n      pop\n      pop\n      pop\n      pop\n      pop\n      pop\n      pop\n      jump\t// out\n        /* \"#utility.yul\":13658:13787   */\n    tag_143:\n        /* \"#utility.yul\":13692:13698   */\n      0x00\n        /* \"#utility.yul\":13719:13739   */\n      tag_290\n      tag_291\n      jump\t// in\n    tag_290:\n        /* \"#utility.yul\":13709:13739   */\n      swap1\n      pop\n        /* \"#utility.yul\":13748:13781   */\n      tag_292\n        /* \"#utility.yul\":13776:13780   */\n      dup3\n        /* \"#utility.yul\":13768:13774   */\n      dup3\n        /* \"#utility.yul\":13748:13781   */\n      tag_293\n      jump\t// in\n    tag_292:\n        /* \"#utility.yul\":13658:13787   */\n      swap2\n      swap1\n      pop\n      jump\t// out\n        /* \"#utility.yul\":13793:13868   */\n    tag_291:\n        /* \"#utility.yul\":13826:13832   */\n      0x00\n        /* \"#utility.yul\":13859:13861   */\n      0x40\n        /* \"#utility.yul\":13853:13862   */\n      mload\n        /* \"#utility.yul\":13843:13862   */\n      swap1\n      pop\n        /* \"#utility.yul\":13793:13868   */\n      swap1\n      jump\t// out\n        /* \"#utility.yul\":13874:14182   */\n    tag_142:\n        /* \"#utility.yul\":13936:13940   */\n      0x00\n        /* \"#utility.yul\":14026:14044   */\n      0xffffffffffffffff\n        /* \"#utility.yul\":14018:14024   */\n      dup3\n        /* \"#utility.yul\":14015:14045   */\n      gt\n        /* \"#utility.yul\":14012:14068   */\n      iszero\n      tag_296\n      jumpi\n        /* \"#utility.yul\":14048:14066   */\n      tag_297\n      tag_298\n      jump\t// in\n    tag_297:\n        /* \"#utility.yul\":14012:14068   */\n    tag_296:\n        /* \"#utility.yul\":14086:14115   */\n      tag_299\n        /* \"#utility.yul\":14108:14114   */\n      dup3\n        /* \"#utility.yul\":14086:14115   */\n      tag_228\n      jump\t// in\n    tag_299:\n        /* \"#utility.yul\":14078:14115   */\n      swap1\n      pop\n        /* \"#utility.yul\":14170:14174   */\n      0x20\n        /* \"#utility.yul\":14164:14168   */\n      dup2\n        /* \"#utility.yul\":14160:14175   */\n      add\n        /* \"#utility.yul\":14152:14175   */\n      swap1\n      pop\n        /* \"#utility.yul\":13874:14182   */\n      swap2\n      swap1\n      pop\n      jump\t// out\n        /* \"#utility.yul\":14188:14287   */\n    tag_222:\n        /* \"#utility.yul\":14240:14246   */\n      0x00\n        /* \"#utility.yul\":14274:14279   */\n      dup2\n        /* \"#utility.yul\":14268:14280   */\n      mload\n        /* \"#utility.yul\":14258:14280   */\n      swap1\n      pop\n        /* \"#utility.yul\":14188:14287   */\n      swap2\n      swap1\n      pop\n      jump\t// out\n        /* \"#utility.yul\":14293:14462   */\n    tag_224:\n        /* \"#utility.yul\":14377:14388   */\n      0x00\n        /* \"#utility.yul\":14411:14417   */\n      dup3\n        /* \"#utility.yul\":14406:14409   */\n      dup3\n        /* \"#utility.yul\":14399:14418   */\n      mstore\n        /* \"#utility.yul\":14451:14455   */\n      0x20\n        /* \"#utility.yul\":14446:14449   */\n      dup3\n        /* \"#utility.yul\":14442:14456   */\n      add\n        /* \"#utility.yul\":14427:14456   */\n      swap1\n      pop\n        /* \"#utility.yul\":14293:14462   */\n      swap3\n      swap2\n      pop\n      pop\n      jump\t// out\n        /* \"#utility.yul\":14468:14564   */\n    tag_218:\n        /* \"#utility.yul\":14505:14512   */\n      0x00\n        /* \"#utility.yul\":14534:14558   */\n      tag_303\n        /* \"#utility.yul\":14552:14557   */\n      dup3\n        /* \"#utility.yul\":14534:14558   */\n      tag_304\n      jump\t// in\n    tag_303:\n        /* \"#utility.yul\":14523:14558   */\n      swap1\n      pop\n        /* \"#utility.yul\":14468:14564   */\n      swap2\n      swap1\n      pop\n      jump\t// out\n        /* \"#utility.yul\":14570:14696   */\n    tag_304:\n        /* \"#utility.yul\":14607:14614   */\n      0x00\n        /* \"#utility.yul\":14647:14689   */\n      0xffffffffffffffffffffffffffffffffffffffff\n        /* \"#utility.yul\":14640:14645   */\n      dup3\n        /* \"#utility.yul\":14636:14690   */\n      and\n        /* \"#utility.yul\":14625:14690   */\n      swap1\n      pop\n        /* \"#utility.yul\":14570:14696   */\n      swap2\n      swap1\n      pop\n      jump\t// out\n        /* \"#utility.yul\":14702:14779   */\n    tag_257:\n        /* \"#utility.yul\":14739:14746   */\n      0x00\n        /* \"#utility.yul\":14768:14773   */\n      dup2\n        /* \"#utility.yul\":14757:14773   */\n      swap1\n      pop\n        /* \"#utility.yul\":14702:14779   */\n      swap2\n      swap1\n      pop\n      jump\t// out\n        /* \"#utility.yul\":14785:14939   */\n    tag_148:\n        /* \"#utility.yul\":14869:14875   */\n      dup3\n        /* \"#utility.yul\":14864:14867   */\n      dup2\n        /* \"#utility.yul\":14859:14862   */\n      dup4\n        /* \"#utility.yul\":14846:14876   */\n      calldatacopy\n        /* \"#utility.yul\":14931:14932   */\n      0x00\n        /* \"#utility.yul\":14922:14928   */\n      dup4\n        /* \"#utility.yul\":14917:14920   */\n      dup4\n        /* \"#utility.yul\":14913:14929   */\n      add\n        /* \"#utility.yul\":14906:14933   */\n      mstore\n        /* \"#utility.yul\":14785:14939   */\n      pop\n      pop\n      pop\n      jump\t// out\n        /* \"#utility.yul\":14945:15252   */\n    tag_226:\n        /* \"#utility.yul\":15013:15014   */\n      0x00\n        /* \"#utility.yul\":15023:15136   */\n    tag_309:\n        /* \"#utility.yul\":15037:15043   */\n      dup4\n        /* \"#utility.yul\":15034:15035   */\n      dup2\n        /* \"#utility.yul\":15031:15044   */\n      lt\n        /* \"#utility.yul\":15023:15136   */\n      iszero\n      tag_311\n      jumpi\n        /* \"#utility.yul\":15122:15123   */\n      dup1\n        /* \"#utility.yul\":15117:15120   */\n      dup3\n        /* \"#utility.yul\":15113:15124   */\n      add\n        /* \"#utility.yul\":15107:15125   */\n      mload\n        /* \"#utility.yul\":15103:15104   */\n      dup2\n        /* \"#utility.yul\":15098:15101   */\n      dup5\n        /* \"#utility.yul\":15094:15105   */\n      add\n        /* \"#utility.yul\":15087:15126   */\n      mstore\n        /* \"#utility.yul\":15059:15061   */\n      0x20\n        /* \"#utility.yul\":15056:15057   */\n      dup2\n        /* \"#utility.yul\":15052:15062   */\n      add\n        /* \"#utility.yul\":15047:15062   */\n      swap1\n      pop\n        /* \"#utility.yul\":15023:15136   */\n      jump(tag_309)\n    tag_311:\n        /* \"#utility.yul\":15154:15160   */\n      dup4\n        /* \"#utility.yul\":15151:15152   */\n      dup2\n        /* \"#utility.yul\":15148:15161   */\n      gt\n        /* \"#utility.yul\":15145:15246   */\n      iszero\n      tag_312\n      jumpi\n        /* \"#utility.yul\":15234:15235   */\n      0x00\n        /* \"#utility.yul\":15225:15231   */\n      dup5\n        /* \"#utility.yul\":15220:15223   */\n      dup5\n        /* \"#utility.yul\":15216:15232   */\n      add\n        /* \"#utility.yul\":15209:15236   */\n      mstore\n        /* \"#utility.yul\":15145:15246   */\n    tag_312:\n        /* \"#utility.yul\":14994:15252   */\n      pop\n        /* \"#utility.yul\":14945:15252   */\n      pop\n      pop\n      pop\n      jump\t// out\n        /* \"#utility.yul\":15258:15578   */\n    tag_54:\n        /* \"#utility.yul\":15302:15308   */\n      0x00\n        /* \"#utility.yul\":15339:15340   */\n      0x02\n        /* \"#utility.yul\":15333:15337   */\n      dup3\n        /* \"#utility.yul\":15329:15341   */\n      div\n        /* \"#utility.yul\":15319:15341   */\n      swap1\n      pop\n        /* \"#utility.yul\":15386:15387   */\n      0x01\n        /* \"#utility.yul\":15380:15384   */\n      dup3\n        /* \"#utility.yul\":15376:15388   */\n      and\n        /* \"#utility.yul\":15407:15425   */\n      dup1\n        /* \"#utility.yul\":15397:15478   */\n      tag_314\n      jumpi\n        /* \"#utility.yul\":15463:15467   */\n      0x7f\n        /* \"#utility.yul\":15455:15461   */\n      dup3\n        /* \"#utility.yul\":15451:15468   */\n      and\n        /* \"#utility.yul\":15441:15468   */\n      swap2\n      pop\n        /* \"#utility.yul\":15397:15478   */\n    tag_314:\n        /* \"#utility.yul\":15525:15527   */\n      0x20\n        /* \"#utility.yul\":15517:15523   */\n      dup3\n        /* \"#utility.yul\":15514:15528   */\n      lt\n        /* \"#utility.yul\":15494:15512   */\n      dup2\n        /* \"#utility.yul\":15491:15529   */\n      eq\n        /* \"#utility.yul\":15488:15572   */\n      iszero\n      tag_315\n      jumpi\n        /* \"#utility.yul\":15544:15562   */\n      tag_316\n      tag_317\n      jump\t// in\n    tag_316:\n        /* \"#utility.yul\":15488:15572   */\n    tag_315:\n        /* \"#utility.yul\":15309:15578   */\n      pop\n        /* \"#utility.yul\":15258:15578   */\n      swap2\n      swap1\n      pop\n      jump\t// out\n        /* \"#utility.yul\":15584:15865   */\n    tag_293:\n        /* \"#utility.yul\":15667:15694   */\n      tag_319\n        /* \"#utility.yul\":15689:15693   */\n      dup3\n        /* \"#utility.yul\":15667:15694   */\n      tag_228\n      jump\t// in\n    tag_319:\n        /* \"#utility.yul\":15659:15665   */\n      dup2\n        /* \"#utility.yul\":15655:15695   */\n      add\n        /* \"#utility.yul\":15797:15803   */\n      dup2\n        /* \"#utility.yul\":15785:15795   */\n      dup2\n        /* \"#utility.yul\":15782:15804   */\n      lt\n        /* \"#utility.yul\":15761:15779   */\n      0xffffffffffffffff\n        /* \"#utility.yul\":15749:15759   */\n      dup3\n        /* \"#utility.yul\":15746:15780   */\n      gt\n        /* \"#utility.yul\":15743:15805   */\n      or\n        /* \"#utility.yul\":15740:15828   */\n      iszero\n      tag_320\n      jumpi\n        /* \"#utility.yul\":15808:15826   */\n      tag_321\n      tag_298\n      jump\t// in\n    tag_321:\n        /* \"#utility.yul\":15740:15828   */\n    tag_320:\n        /* \"#utility.yul\":15848:15858   */\n      dup1\n        /* \"#utility.yul\":15844:15846   */\n      0x40\n        /* \"#utility.yul\":15837:15859   */\n      mstore\n        /* \"#utility.yul\":15627:15865   */\n      pop\n        /* \"#utility.yul\":15584:15865   */\n      pop\n      pop\n      jump\t// out\n        /* \"#utility.yul\":15871:16051   */\n    tag_317:\n        /* \"#utility.yul\":15919:15996   */\n      0x4e487b7100000000000000000000000000000000000000000000000000000000\n        /* \"#utility.yul\":15916:15917   */\n      0x00\n        /* \"#utility.yul\":15909:15997   */\n      mstore\n        /* \"#utility.yul\":16016:16020   */\n      0x22\n        /* \"#utility.yul\":16013:16014   */\n      0x04\n        /* \"#utility.yul\":16006:16021   */\n      mstore\n        /* \"#utility.yul\":16040:16044   */\n      0x24\n        /* \"#utility.yul\":16037:16038   */\n      0x00\n        /* \"#utility.yul\":16030:16045   */\n      revert\n        /* \"#utility.yul\":16057:16237   */\n    tag_298:\n        /* \"#utility.yul\":16105:16182   */\n      0x4e487b7100000000000000000000000000000000000000000000000000000000\n        /* \"#utility.yul\":16102:16103   */\n      0x00\n        /* \"#utility.yul\":16095:16183   */\n      mstore\n        /* \"#utility.yul\":16202:16206   */\n      0x41\n        /* \"#utility.yul\":16199:16200   */\n      0x04\n        /* \"#utility.yul\":16192:16207   */\n      mstore\n        /* \"#utility.yul\":16226:16230   */\n      0x24\n        /* \"#utility.yul\":16223:16224   */\n      0x00\n        /* \"#utility.yul\":16216:16231   */\n      revert\n        /* \"#utility.yul\":16243:16360   */\n    tag_157:\n        /* \"#utility.yul\":16352:16353   */\n      0x00\n        /* \"#utility.yul\":16349:16350   */\n      dup1\n        /* \"#utility.yul\":16342:16354   */\n      revert\n        /* \"#utility.yul\":16366:16483   */\n    tag_146:\n        /* \"#utility.yul\":16475:16476   */\n      0x00\n        /* \"#utility.yul\":16472:16473   */\n      dup1\n        /* \"#utility.yul\":16465:16477   */\n      revert\n        /* \"#utility.yul\":16489:16606   */\n    tag_178:\n        /* \"#utility.yul\":16598:16599   */\n      0x00\n        /* \"#utility.yul\":16595:16596   */\n      dup1\n        /* \"#utility.yul\":16588:16600   */\n      revert\n        /* \"#utility.yul\":16612:16729   */\n    tag_166:\n        /* \"#utility.yul\":16721:16722   */\n      0x00\n        /* \"#utility.yul\":16718:16719   */\n      dup1\n        /* \"#utility.yul\":16711:16723   */\n      revert\n        /* \"#utility.yul\":16735:16837   */\n    tag_228:\n        /* \"#utility.yul\":16776:16782   */\n      0x00\n        /* \"#utility.yul\":16827:16829   */\n      0x1f\n        /* \"#utility.yul\":16823:16830   */\n      not\n        /* \"#utility.yul\":16818:16820   */\n      0x1f\n        /* \"#utility.yul\":16811:16816   */\n      dup4\n        /* \"#utility.yul\":16807:16821   */\n      add\n        /* \"#utility.yul\":16803:16831   */\n      and\n        /* \"#utility.yul\":16793:16831   */\n      swap1\n      pop\n        /* \"#utility.yul\":16735:16837   */\n      swap2\n      swap1\n      pop\n      jump\t// out\n        /* \"#utility.yul\":16843:17139   */\n    tag_233:\n        /* \"#utility.yul\":16983:17017   */\n      0x5365756c206c27657461626c697373656d656e74207175692061206372656520\n        /* \"#utility.yul\":16979:16980   */\n      0x00\n        /* \"#utility.yul\":16971:16977   */\n      dup3\n        /* \"#utility.yul\":16967:16981   */\n      add\n        /* \"#utility.yul\":16960:17018   */\n      mstore\n        /* \"#utility.yul\":17052:17086   */\n      0x6c652070726f66696c2070657574206d65747472652061206a6f757220756e20\n        /* \"#utility.yul\":17047:17049   */\n      0x20\n        /* \"#utility.yul\":17039:17045   */\n      dup3\n        /* \"#utility.yul\":17035:17050   */\n      add\n        /* \"#utility.yul\":17028:17087   */\n      mstore\n        /* \"#utility.yul\":17121:17131   */\n      0x6574756469616e74000000000000000000000000000000000000000000000000\n        /* \"#utility.yul\":17116:17118   */\n      0x40\n        /* \"#utility.yul\":17108:17114   */\n      dup3\n        /* \"#utility.yul\":17104:17119   */\n      add\n        /* \"#utility.yul\":17097:17132   */\n      mstore\n        /* \"#utility.yul\":16843:17139   */\n      pop\n      jump\t// out\n        /* \"#utility.yul\":17145:17384   */\n    tag_238:\n        /* \"#utility.yul\":17285:17319   */\n      0x5365756c206c2761646d696e6973747261746575722070657574206566666563\n        /* \"#utility.yul\":17281:17282   */\n      0x00\n        /* \"#utility.yul\":17273:17279   */\n      dup3\n        /* \"#utility.yul\":17269:17283   */\n      add\n        /* \"#utility.yul\":17262:17320   */\n      mstore\n        /* \"#utility.yul\":17354:17376   */\n      0x74756572206365747465206f7065726174696f6e000000000000000000000000\n        /* \"#utility.yul\":17349:17351   */\n      0x20\n        /* \"#utility.yul\":17341:17347   */\n      dup3\n        /* \"#utility.yul\":17337:17352   */\n      add\n        /* \"#utility.yul\":17330:17377   */\n      mstore\n        /* \"#utility.yul\":17145:17384   */\n      pop\n      jump\t// out\n        /* \"#utility.yul\":17390:17681   */\n    tag_243:\n        /* \"#utility.yul\":17530:17564   */\n      0x4c27657461626c697373656d656e74206e2765786973746520706173206f7520\n        /* \"#utility.yul\":17526:17527   */\n      0x00\n        /* \"#utility.yul\":17518:17524   */\n      dup3\n        /* \"#utility.yul\":17514:17528   */\n      add\n        /* \"#utility.yul\":17507:17565   */\n      mstore\n        /* \"#utility.yul\":17599:17633   */\n      0x6e276120706173206c652064726f697420646520637265657220756e2070726f\n        /* \"#utility.yul\":17594:17596   */\n      0x20\n        /* \"#utility.yul\":17586:17592   */\n      dup3\n        /* \"#utility.yul\":17582:17597   */\n      add\n        /* \"#utility.yul\":17575:17634   */\n      mstore\n        /* \"#utility.yul\":17668:17673   */\n      0x66696c0000000000000000000000000000000000000000000000000000000000\n        /* \"#utility.yul\":17663:17665   */\n      0x40\n        /* \"#utility.yul\":17655:17661   */\n      dup3\n        /* \"#utility.yul\":17651:17666   */\n      add\n        /* \"#utility.yul\":17644:17674   */\n      mstore\n        /* \"#utility.yul\":17390:17681   */\n      pop\n      jump\t// out\n        /* \"#utility.yul\":17687:17980   */\n    tag_248:\n        /* \"#utility.yul\":17827:17861   */\n      0x4c27657461626c697373656d656e74206e2765786973746520706173206f7520\n        /* \"#utility.yul\":17823:17824   */\n      0x00\n        /* \"#utility.yul\":17815:17821   */\n      dup3\n        /* \"#utility.yul\":17811:17825   */\n      add\n        /* \"#utility.yul\":17804:17862   */\n      mstore\n        /* \"#utility.yul\":17896:17930   */\n      0x6e276120706173206c652064726f6974206427616a6f7574657220756e206469\n        /* \"#utility.yul\":17891:17893   */\n      0x20\n        /* \"#utility.yul\":17883:17889   */\n      dup3\n        /* \"#utility.yul\":17879:17894   */\n      add\n        /* \"#utility.yul\":17872:17931   */\n      mstore\n        /* \"#utility.yul\":17965:17972   */\n      0x706c6f6d65000000000000000000000000000000000000000000000000000000\n        /* \"#utility.yul\":17960:17962   */\n      0x40\n        /* \"#utility.yul\":17952:17958   */\n      dup3\n        /* \"#utility.yul\":17948:17963   */\n      add\n        /* \"#utility.yul\":17941:17973   */\n      mstore\n        /* \"#utility.yul\":17687:17980   */\n      pop\n      jump\t// out\n        /* \"#utility.yul\":17986:18275   */\n    tag_253:\n        /* \"#utility.yul\":18126:18160   */\n      0x5365756c206c27657461626c697373656d656e74207175692061206372656520\n        /* \"#utility.yul\":18122:18123   */\n      0x00\n        /* \"#utility.yul\":18114:18120   */\n      dup3\n        /* \"#utility.yul\":18110:18124   */\n      add\n        /* \"#utility.yul\":18103:18161   */\n      mstore\n        /* \"#utility.yul\":18195:18229   */\n      0x6c652070726f66696c207065757420616a6f7574657220756e206469706c6f6d\n        /* \"#utility.yul\":18190:18192   */\n      0x20\n        /* \"#utility.yul\":18182:18188   */\n      dup3\n        /* \"#utility.yul\":18178:18193   */\n      add\n        /* \"#utility.yul\":18171:18230   */\n      mstore\n        /* \"#utility.yul\":18264:18267   */\n      0x6500000000000000000000000000000000000000000000000000000000000000\n        /* \"#utility.yul\":18259:18261   */\n      0x40\n        /* \"#utility.yul\":18251:18257   */\n      dup3\n        /* \"#utility.yul\":18247:18262   */\n      add\n        /* \"#utility.yul\":18240:18268   */\n      mstore\n        /* \"#utility.yul\":17986:18275   */\n      pop\n      jump\t// out\n        /* \"#utility.yul\":18281:18403   */\n    tag_152:\n        /* \"#utility.yul\":18354:18378   */\n      tag_335\n        /* \"#utility.yul\":18372:18377   */\n      dup2\n        /* \"#utility.yul\":18354:18378   */\n      tag_218\n      jump\t// in\n    tag_335:\n        /* \"#utility.yul\":18347:18352   */\n      dup2\n        /* \"#utility.yul\":18344:18379   */\n      eq\n        /* \"#utility.yul\":18334:18397   */\n      tag_336\n      jumpi\n        /* \"#utility.yul\":18393:18394   */\n      0x00\n        /* \"#utility.yul\":18390:18391   */\n      dup1\n        /* \"#utility.yul\":18383:18395   */\n      revert\n        /* \"#utility.yul\":18334:18397   */\n    tag_336:\n        /* \"#utility.yul\":18281:18403   */\n      pop\n      jump\t// out\n        /* \"#utility.yul\":18409:18531   */\n    tag_162:\n        /* \"#utility.yul\":18482:18506   */\n      tag_338\n        /* \"#utility.yul\":18500:18505   */\n      dup2\n        /* \"#utility.yul\":18482:18506   */\n      tag_257\n      jump\t// in\n    tag_338:\n        /* \"#utility.yul\":18475:18480   */\n      dup2\n        /* \"#utility.yul\":18472:18507   */\n      eq\n        /* \"#utility.yul\":18462:18525   */\n      tag_339\n      jumpi\n        /* \"#utility.yul\":18521:18522   */\n      0x00\n        /* \"#utility.yul\":18518:18519   */\n      dup1\n        /* \"#utility.yul\":18511:18523   */\n      revert\n        /* \"#utility.yul\":18462:18525   */\n    tag_339:\n        /* \"#utility.yul\":18409:18531   */\n      pop\n      jump\t// out\n\n    auxdata: 0xa2646970667358221220e1cd31cff440f7c39dcf2f103e42d50b40de019c404c95f98b2c0da10e09aa8264736f6c63430008070033\n}\n",
				"bytecode": {
					"linkReferences": {},
					"object": "608060405234801561001057600080fd5b50336000806101000a81548173ffffffffffffffffffffffffffffffffffffffff021916908373ffffffffffffffffffffffffffffffffffffffff1602179055506118ba806100606000396000f3fe608060405234801561001057600080fd5b50600436106100935760003560e01c8063645041bf11610066578063645041bf1461013a57806391a3972b14610156578063a42a5be414610189578063f04656eb146101a5578063f851a440146101c157610093565b806306ead22e146100985780631274147e146100cd57806335dfc1c3146100e95780634495a0081461011e575b600080fd5b6100b260048036038101906100ad9190610edb565b6101df565b6040516100c496959493929190611371565b60405180910390f35b6100e760048036038101906100e29190610f08565b6103d3565b005b61010360048036038101906100fe9190610edb565b61056a565b604051610115969594939291906113e7565b60405180910390f35b61013860048036038101906101339190610f93565b61073e565b005b610154600480360381019061014f919061104e565b6108db565b005b610170600480360381019061016b9190610eae565b610900565b604051610180949392919061131e565b60405180910390f35b6101a3600480360381019061019e9190610f93565b610a60565b005b6101bf60048036038101906101ba919061108e565b610b5b565b005b6101c9610d4d565b6040516101d69190611263565b60405180910390f35b60026020528060005260406000206000915090508060000154908060010180546102089061154d565b80601f01602080910402602001604051908101604052809291908181526020018280546102349061154d565b80156102815780601f1061025657610100808354040283529160200191610281565b820191906000526020600020905b81548152906001019060200180831161026457829003601f168201915b5050505050908060020180546102969061154d565b80601f01602080910402602001604051908101604052809291908181526020018280546102c29061154d565b801561030f5780601f106102e45761010080835404028352916020019161030f565b820191906000526020600020905b8154815290600101906020018083116102f257829003601f168201915b5050505050908060030180546103249061154d565b80601f01602080910402602001604051908101604052809291908181526020018280546103509061154d565b801561039d5780601f106103725761010080835404028352916020019161039d565b820191906000526020600020905b81548152906001019060200180831161038057829003601f168201915b5050505050908060040154908060050160009054906101000a900473ffffffffffffffffffffffffffffffffffffffff16905086565b60008054906101000a900473ffffffffffffffffffffffffffffffffffffffff1673ffffffffffffffffffffffffffffffffffffffff163373ffffffffffffffffffffffffffffffffffffffff1614610461576040517f08c379a00000000000000000000000000000000000000000000000000000000081526004016104589061129e565b60405180910390fd5b60405180608001604052808481526020018381526020018281526020013373ffffffffffffffffffffffffffffffffffffffff16815250600160003373ffffffffffffffffffffffffffffffffffffffff1673ffffffffffffffffffffffffffffffffffffffff1681526020019081526020016000206000820151816000015560208201518160010190805190602001906104fd929190610d71565b50604082015181600201908051906020019061051a929190610d71565b5060608201518160030160006101000a81548173ffffffffffffffffffffffffffffffffffffffff021916908373ffffffffffffffffffffffffffffffffffffffff160217905550905050505050565b600360205280600052604060002060009150905080600001549080600101549080600201549080600301805461059f9061154d565b80601f01602080910402602001604051908101604052809291908181526020018280546105cb9061154d565b80156106185780601f106105ed57610100808354040283529160200191610618565b820191906000526020600020905b8154815290600101906020018083116105fb57829003601f168201915b50505050509080600401805461062d9061154d565b80601f01602080910402602001604051908101604052809291908181526020018280546106599061154d565b80156106a65780601f1061067b576101008083540402835291602001916106a6565b820191906000526020600020905b81548152906001019060200180831161068957829003601f168201915b5050505050908060050180546106bb9061154d565b80601f01602080910402602001604051908101604052809291908181526020018280546106e79061154d565b80156107345780601f1061070957610100808354040283529160200191610734565b820191906000526020600020905b81548152906001019060200180831161071757829003601f168201915b5050505050905086565b6000600160003373ffffffffffffffffffffffffffffffffffffffff1673ffffffffffffffffffffffffffffffffffffffff168152602001908152602001600020905060008160000154116107c8576040517f08c379a00000000000000000000000000000000000000000000000000000000081526004016107bf906112be565b60405180910390fd5b6040518060c00160405280868152602001858152602001848152602001838152602001600081526020013373ffffffffffffffffffffffffffffffffffffffff1681525060026000878152602001908152602001600020600082015181600001556020820151816001019080519060200190610845929190610d71565b506040820151816002019080519060200190610862929190610d71565b50606082015181600301908051906020019061087f929190610d71565b506080820151816004015560a08201518160050160006101000a81548173ffffffffffffffffffffffffffffffffffffffff021916908373ffffffffffffffffffffffffffffffffffffffff1602179055509050505050505050565b6000600260008481526020019081526020016000209050818160040181905550505050565b60016020528060005260406000206000915090508060000154908060010180546109299061154d565b80601f01602080910402602001604051908101604052809291908181526020018280546109559061154d565b80156109a25780601f10610977576101008083540402835291602001916109a2565b820191906000526020600020905b81548152906001019060200180831161098557829003601f168201915b5050505050908060020180546109b79061154d565b80601f01602080910402602001604051908101604052809291908181526020018280546109e39061154d565b8015610a305780601f10610a0557610100808354040283529160200191610a30565b820191906000526020600020905b815481529060010190602001808311610a1357829003601f168201915b5050505050908060030160009054906101000a900473ffffffffffffffffffffffffffffffffffffffff16905084565b60006002600086815260200190815260200160002090503373ffffffffffffffffffffffffffffffffffffffff168160050160009054906101000a900473ffffffffffffffffffffffffffffffffffffffff1673ffffffffffffffffffffffffffffffffffffffff1614610b09576040517f08c379a0000000000000000000000000000000000000000000000000000000008152600401610b009061127e565b60405180910390fd5b83816001019080519060200190610b21929190610d71565b5082816002019080519060200190610b3a929190610d71565b5081816003019080519060200190610b53929190610d71565b505050505050565b6000600160003373ffffffffffffffffffffffffffffffffffffffff1673ffffffffffffffffffffffffffffffffffffffff16815260200190815260200160002090506000816000015411610be5576040517f08c379a0000000000000000000000000000000000000000000000000000000008152600401610bdc906112de565b60405180910390fd5b3373ffffffffffffffffffffffffffffffffffffffff166002600087815260200190815260200160002060050160009054906101000a900473ffffffffffffffffffffffffffffffffffffffff1673ffffffffffffffffffffffffffffffffffffffff1614610c89576040517f08c379a0000000000000000000000000000000000000000000000000000000008152600401610c80906112fe565b60405180910390fd5b6040518060c001604052808781526020018681526020018260000154815260200185815260200184815260200183815250600360008881526020019081526020016000206000820151816000015560208201518160010155604082015181600201556060820151816003019080519060200190610d07929190610d71565b506080820151816004019080519060200190610d24929190610d71565b5060a0820151816005019080519060200190610d41929190610d71565b50905050505050505050565b60008054906101000a900473ffffffffffffffffffffffffffffffffffffffff1681565b828054610d7d9061154d565b90600052602060002090601f016020900481019282610d9f5760008555610de6565b82601f10610db857805160ff1916838001178555610de6565b82800160010185558215610de6579182015b82811115610de5578251825591602001919060010190610dca565b5b509050610df39190610df7565b5090565b5b80821115610e10576000816000905550600101610df8565b5090565b6000610e27610e2284611482565b61145d565b905082815260208101848484011115610e4357610e42611613565b5b610e4e84828561150b565b509392505050565b600081359050610e6581611856565b92915050565b600082601f830112610e8057610e7f61160e565b5b8135610e90848260208601610e14565b91505092915050565b600081359050610ea88161186d565b92915050565b600060208284031215610ec457610ec361161d565b5b6000610ed284828501610e56565b91505092915050565b600060208284031215610ef157610ef061161d565b5b6000610eff84828501610e99565b91505092915050565b600080600060608486031215610f2157610f2061161d565b5b6000610f2f86828701610e99565b935050602084013567ffffffffffffffff811115610f5057610f4f611618565b5b610f5c86828701610e6b565b925050604084013567ffffffffffffffff811115610f7d57610f7c611618565b5b610f8986828701610e6b565b9150509250925092565b60008060008060808587031215610fad57610fac61161d565b5b6000610fbb87828801610e99565b945050602085013567ffffffffffffffff811115610fdc57610fdb611618565b5b610fe887828801610e6b565b935050604085013567ffffffffffffffff81111561100957611008611618565b5b61101587828801610e6b565b925050606085013567ffffffffffffffff81111561103657611035611618565b5b61104287828801610e6b565b91505092959194509250565b600080604083850312156110655761106461161d565b5b600061107385828601610e99565b925050602061108485828601610e99565b9150509250929050565b600080600080600060a086880312156110aa576110a961161d565b5b60006110b888828901610e99565b95505060206110c988828901610e99565b945050604086013567ffffffffffffffff8111156110ea576110e9611618565b5b6110f688828901610e6b565b935050606086013567ffffffffffffffff81111561111757611116611618565b5b61112388828901610e6b565b925050608086013567ffffffffffffffff81111561114457611143611618565b5b61115088828901610e6b565b9150509295509295909350565b611166816114cf565b82525050565b6000611177826114b3565b61118181856114be565b935061119181856020860161151a565b61119a81611622565b840191505092915050565b60006111b26048836114be565b91506111bd82611633565b606082019050919050565b60006111d56034836114be565b91506111e0826116a8565b604082019050919050565b60006111f86043836114be565b9150611203826116f7565b606082019050919050565b600061121b6045836114be565b91506112268261176c565b606082019050919050565b600061123e6041836114be565b9150611249826117e1565b606082019050919050565b61125d81611501565b82525050565b6000602082019050611278600083018461115d565b92915050565b60006020820190508181036000830152611297816111a5565b9050919050565b600060208201905081810360008301526112b7816111c8565b9050919050565b600060208201905081810360008301526112d7816111eb565b9050919050565b600060208201905081810360008301526112f78161120e565b9050919050565b6000602082019050818103600083015261131781611231565b9050919050565b60006080820190506113336000830187611254565b8181036020830152611345818661116c565b90508181036040830152611359818561116c565b9050611368606083018461115d565b95945050505050565b600060c0820190506113866000830189611254565b8181036020830152611398818861116c565b905081810360408301526113ac818761116c565b905081810360608301526113c0818661116c565b90506113cf6080830185611254565b6113dc60a083018461115d565b979650505050505050565b600060c0820190506113fc6000830189611254565b6114096020830188611254565b6114166040830187611254565b8181036060830152611428818661116c565b9050818103608083015261143c818561116c565b905081810360a0830152611450818461116c565b9050979650505050505050565b6000611467611478565b9050611473828261157f565b919050565b6000604051905090565b600067ffffffffffffffff82111561149d5761149c6115df565b5b6114a682611622565b9050602081019050919050565b600081519050919050565b600082825260208201905092915050565b60006114da826114e1565b9050919050565b600073ffffffffffffffffffffffffffffffffffffffff82169050919050565b6000819050919050565b82818337600083830152505050565b60005b8381101561153857808201518184015260208101905061151d565b83811115611547576000848401525b50505050565b6000600282049050600182168061156557607f821691505b60208210811415611579576115786115b0565b5b50919050565b61158882611622565b810181811067ffffffffffffffff821117156115a7576115a66115df565b5b80604052505050565b7f4e487b7100000000000000000000000000000000000000000000000000000000600052602260045260246000fd5b7f4e487b7100000000000000000000000000000000000000000000000000000000600052604160045260246000fd5b600080fd5b600080fd5b600080fd5b600080fd5b6000601f19601f8301169050919050565b7f5365756c206c27657461626c697373656d656e7420717569206120637265652060008201527f6c652070726f66696c2070657574206d65747472652061206a6f757220756e2060208201527f6574756469616e74000000000000000000000000000000000000000000000000604082015250565b7f5365756c206c2761646d696e697374726174657572207065757420656666656360008201527f74756572206365747465206f7065726174696f6e000000000000000000000000602082015250565b7f4c27657461626c697373656d656e74206e2765786973746520706173206f752060008201527f6e276120706173206c652064726f697420646520637265657220756e2070726f60208201527f66696c0000000000000000000000000000000000000000000000000000000000604082015250565b7f4c27657461626c697373656d656e74206e2765786973746520706173206f752060008201527f6e276120706173206c652064726f6974206427616a6f7574657220756e20646960208201527f706c6f6d65000000000000000000000000000000000000000000000000000000604082015250565b7f5365756c206c27657461626c697373656d656e7420717569206120637265652060008201527f6c652070726f66696c207065757420616a6f7574657220756e206469706c6f6d60208201527f6500000000000000000000000000000000000000000000000000000000000000604082015250565b61185f816114cf565b811461186a57600080fd5b50565b61187681611501565b811461188157600080fd5b5056fea2646970667358221220e1cd31cff440f7c39dcf2f103e42d50b40de019c404c95f98b2c0da10e09aa8264736f6c63430008070033",
					"opcodes": "PUSH1 0x80 PUSH1 0x40 MSTORE CALLVALUE DUP1 ISZERO PUSH2 0x10 JUMPI PUSH1 0x0 DUP1 REVERT JUMPDEST POP CALLER PUSH1 0x0 DUP1 PUSH2 0x100 EXP DUP2 SLOAD DUP2 PUSH20 0xFFFFFFFFFFFFFFFFFFFFFFFFFFFFFFFFFFFFFFFF MUL NOT AND SWAP1 DUP4 PUSH20 0xFFFFFFFFFFFFFFFFFFFFFFFFFFFFFFFFFFFFFFFF AND MUL OR SWAP1 SSTORE POP PUSH2 0x18BA DUP1 PUSH2 0x60 PUSH1 0x0 CODECOPY PUSH1 0x0 RETURN INVALID PUSH1 0x80 PUSH1 0x40 MSTORE CALLVALUE DUP1 ISZERO PUSH2 0x10 JUMPI PUSH1 0x0 DUP1 REVERT JUMPDEST POP PUSH1 0x4 CALLDATASIZE LT PUSH2 0x93 JUMPI PUSH1 0x0 CALLDATALOAD PUSH1 0xE0 SHR DUP1 PUSH4 0x645041BF GT PUSH2 0x66 JUMPI DUP1 PUSH4 0x645041BF EQ PUSH2 0x13A JUMPI DUP1 PUSH4 0x91A3972B EQ PUSH2 0x156 JUMPI DUP1 PUSH4 0xA42A5BE4 EQ PUSH2 0x189 JUMPI DUP1 PUSH4 0xF04656EB EQ PUSH2 0x1A5 JUMPI DUP1 PUSH4 0xF851A440 EQ PUSH2 0x1C1 JUMPI PUSH2 0x93 JUMP JUMPDEST DUP1 PUSH4 0x6EAD22E EQ PUSH2 0x98 JUMPI DUP1 PUSH4 0x1274147E EQ PUSH2 0xCD JUMPI DUP1 PUSH4 0x35DFC1C3 EQ PUSH2 0xE9 JUMPI DUP1 PUSH4 0x4495A008 EQ PUSH2 0x11E JUMPI JUMPDEST PUSH1 0x0 DUP1 REVERT JUMPDEST PUSH2 0xB2 PUSH1 0x4 DUP1 CALLDATASIZE SUB DUP2 ADD SWAP1 PUSH2 0xAD SWAP2 SWAP1 PUSH2 0xEDB JUMP JUMPDEST PUSH2 0x1DF JUMP JUMPDEST PUSH1 0x40 MLOAD PUSH2 0xC4 SWAP7 SWAP6 SWAP5 SWAP4 SWAP3 SWAP2 SWAP1 PUSH2 0x1371 JUMP JUMPDEST PUSH1 0x40 MLOAD DUP1 SWAP2 SUB SWAP1 RETURN JUMPDEST PUSH2 0xE7 PUSH1 0x4 DUP1 CALLDATASIZE SUB DUP2 ADD SWAP1 PUSH2 0xE2 SWAP2 SWAP1 PUSH2 0xF08 JUMP JUMPDEST PUSH2 0x3D3 JUMP JUMPDEST STOP JUMPDEST PUSH2 0x103 PUSH1 0x4 DUP1 CALLDATASIZE SUB DUP2 ADD SWAP1 PUSH2 0xFE SWAP2 SWAP1 PUSH2 0xEDB JUMP JUMPDEST PUSH2 0x56A JUMP JUMPDEST PUSH1 0x40 MLOAD PUSH2 0x115 SWAP7 SWAP6 SWAP5 SWAP4 SWAP3 SWAP2 SWAP1 PUSH2 0x13E7 JUMP JUMPDEST PUSH1 0x40 MLOAD DUP1 SWAP2 SUB SWAP1 RETURN JUMPDEST PUSH2 0x138 PUSH1 0x4 DUP1 CALLDATASIZE SUB DUP2 ADD SWAP1 PUSH2 0x133 SWAP2 SWAP1 PUSH2 0xF93 JUMP JUMPDEST PUSH2 0x73E JUMP JUMPDEST STOP JUMPDEST PUSH2 0x154 PUSH1 0x4 DUP1 CALLDATASIZE SUB DUP2 ADD SWAP1 PUSH2 0x14F SWAP2 SWAP1 PUSH2 0x104E JUMP JUMPDEST PUSH2 0x8DB JUMP JUMPDEST STOP JUMPDEST PUSH2 0x170 PUSH1 0x4 DUP1 CALLDATASIZE SUB DUP2 ADD SWAP1 PUSH2 0x16B SWAP2 SWAP1 PUSH2 0xEAE JUMP JUMPDEST PUSH2 0x900 JUMP JUMPDEST PUSH1 0x40 MLOAD PUSH2 0x180 SWAP5 SWAP4 SWAP3 SWAP2 SWAP1 PUSH2 0x131E JUMP JUMPDEST PUSH1 0x40 MLOAD DUP1 SWAP2 SUB SWAP1 RETURN JUMPDEST PUSH2 0x1A3 PUSH1 0x4 DUP1 CALLDATASIZE SUB DUP2 ADD SWAP1 PUSH2 0x19E SWAP2 SWAP1 PUSH2 0xF93 JUMP JUMPDEST PUSH2 0xA60 JUMP JUMPDEST STOP JUMPDEST PUSH2 0x1BF PUSH1 0x4 DUP1 CALLDATASIZE SUB DUP2 ADD SWAP1 PUSH2 0x1BA SWAP2 SWAP1 PUSH2 0x108E JUMP JUMPDEST PUSH2 0xB5B JUMP JUMPDEST STOP JUMPDEST PUSH2 0x1C9 PUSH2 0xD4D JUMP JUMPDEST PUSH1 0x40 MLOAD PUSH2 0x1D6 SWAP2 SWAP1 PUSH2 0x1263 JUMP JUMPDEST PUSH1 0x40 MLOAD DUP1 SWAP2 SUB SWAP1 RETURN JUMPDEST PUSH1 0x2 PUSH1 0x20 MSTORE DUP1 PUSH1 0x0 MSTORE PUSH1 0x40 PUSH1 0x0 KECCAK256 PUSH1 0x0 SWAP2 POP SWAP1 POP DUP1 PUSH1 0x0 ADD SLOAD SWAP1 DUP1 PUSH1 0x1 ADD DUP1 SLOAD PUSH2 0x208 SWAP1 PUSH2 0x154D JUMP JUMPDEST DUP1 PUSH1 0x1F ADD PUSH1 0x20 DUP1 SWAP2 DIV MUL PUSH1 0x20 ADD PUSH1 0x40 MLOAD SWAP1 DUP2 ADD PUSH1 0x40 MSTORE DUP1 SWAP3 SWAP2 SWAP1 DUP2 DUP2 MSTORE PUSH1 0x20 ADD DUP3 DUP1 SLOAD PUSH2 0x234 SWAP1 PUSH2 0x154D JUMP JUMPDEST DUP1 ISZERO PUSH2 0x281 JUMPI DUP1 PUSH1 0x1F LT PUSH2 0x256 JUMPI PUSH2 0x100 DUP1 DUP4 SLOAD DIV MUL DUP4 MSTORE SWAP2 PUSH1 0x20 ADD SWAP2 PUSH2 0x281 JUMP JUMPDEST DUP3 ADD SWAP2 SWAP1 PUSH1 0x0 MSTORE PUSH1 0x20 PUSH1 0x0 KECCAK256 SWAP1 JUMPDEST DUP2 SLOAD DUP2 MSTORE SWAP1 PUSH1 0x1 ADD SWAP1 PUSH1 0x20 ADD DUP1 DUP4 GT PUSH2 0x264 JUMPI DUP3 SWAP1 SUB PUSH1 0x1F AND DUP3 ADD SWAP2 JUMPDEST POP POP POP POP POP SWAP1 DUP1 PUSH1 0x2 ADD DUP1 SLOAD PUSH2 0x296 SWAP1 PUSH2 0x154D JUMP JUMPDEST DUP1 PUSH1 0x1F ADD PUSH1 0x20 DUP1 SWAP2 DIV MUL PUSH1 0x20 ADD PUSH1 0x40 MLOAD SWAP1 DUP2 ADD PUSH1 0x40 MSTORE DUP1 SWAP3 SWAP2 SWAP1 DUP2 DUP2 MSTORE PUSH1 0x20 ADD DUP3 DUP1 SLOAD PUSH2 0x2C2 SWAP1 PUSH2 0x154D JUMP JUMPDEST DUP1 ISZERO PUSH2 0x30F JUMPI DUP1 PUSH1 0x1F LT PUSH2 0x2E4 JUMPI PUSH2 0x100 DUP1 DUP4 SLOAD DIV MUL DUP4 MSTORE SWAP2 PUSH1 0x20 ADD SWAP2 PUSH2 0x30F JUMP JUMPDEST DUP3 ADD SWAP2 SWAP1 PUSH1 0x0 MSTORE PUSH1 0x20 PUSH1 0x0 KECCAK256 SWAP1 JUMPDEST DUP2 SLOAD DUP2 MSTORE SWAP1 PUSH1 0x1 ADD SWAP1 PUSH1 0x20 ADD DUP1 DUP4 GT PUSH2 0x2F2 JUMPI DUP3 SWAP1 SUB PUSH1 0x1F AND DUP3 ADD SWAP2 JUMPDEST POP POP POP POP POP SWAP1 DUP1 PUSH1 0x3 ADD DUP1 SLOAD PUSH2 0x324 SWAP1 PUSH2 0x154D JUMP JUMPDEST DUP1 PUSH1 0x1F ADD PUSH1 0x20 DUP1 SWAP2 DIV MUL PUSH1 0x20 ADD PUSH1 0x40 MLOAD SWAP1 DUP2 ADD PUSH1 0x40 MSTORE DUP1 SWAP3 SWAP2 SWAP1 DUP2 DUP2 MSTORE PUSH1 0x20 ADD DUP3 DUP1 SLOAD PUSH2 0x350 SWAP1 PUSH2 0x154D JUMP JUMPDEST DUP1 ISZERO PUSH2 0x39D JUMPI DUP1 PUSH1 0x1F LT PUSH2 0x372 JUMPI PUSH2 0x100 DUP1 DUP4 SLOAD DIV MUL DUP4 MSTORE SWAP2 PUSH1 0x20 ADD SWAP2 PUSH2 0x39D JUMP JUMPDEST DUP3 ADD SWAP2 SWAP1 PUSH1 0x0 MSTORE PUSH1 0x20 PUSH1 0x0 KECCAK256 SWAP1 JUMPDEST DUP2 SLOAD DUP2 MSTORE SWAP1 PUSH1 0x1 ADD SWAP1 PUSH1 0x20 ADD DUP1 DUP4 GT PUSH2 0x380 JUMPI DUP3 SWAP1 SUB PUSH1 0x1F AND DUP3 ADD SWAP2 JUMPDEST POP POP POP POP POP SWAP1 DUP1 PUSH1 0x4 ADD SLOAD SWAP1 DUP1 PUSH1 0x5 ADD PUSH1 0x0 SWAP1 SLOAD SWAP1 PUSH2 0x100 EXP SWAP1 DIV PUSH20 0xFFFFFFFFFFFFFFFFFFFFFFFFFFFFFFFFFFFFFFFF AND SWAP1 POP DUP7 JUMP JUMPDEST PUSH1 0x0 DUP1 SLOAD SWAP1 PUSH2 0x100 EXP SWAP1 DIV PUSH20 0xFFFFFFFFFFFFFFFFFFFFFFFFFFFFFFFFFFFFFFFF AND PUSH20 0xFFFFFFFFFFFFFFFFFFFFFFFFFFFFFFFFFFFFFFFF AND CALLER PUSH20 0xFFFFFFFFFFFFFFFFFFFFFFFFFFFFFFFFFFFFFFFF AND EQ PUSH2 0x461 JUMPI PUSH1 0x40 MLOAD PUSH32 0x8C379A000000000000000000000000000000000000000000000000000000000 DUP2 MSTORE PUSH1 0x4 ADD PUSH2 0x458 SWAP1 PUSH2 0x129E JUMP JUMPDEST PUSH1 0x40 MLOAD DUP1 SWAP2 SUB SWAP1 REVERT JUMPDEST PUSH1 0x40 MLOAD DUP1 PUSH1 0x80 ADD PUSH1 0x40 MSTORE DUP1 DUP5 DUP2 MSTORE PUSH1 0x20 ADD DUP4 DUP2 MSTORE PUSH1 0x20 ADD DUP3 DUP2 MSTORE PUSH1 0x20 ADD CALLER PUSH20 0xFFFFFFFFFFFFFFFFFFFFFFFFFFFFFFFFFFFFFFFF AND DUP2 MSTORE POP PUSH1 0x1 PUSH1 0x0 CALLER PUSH20 0xFFFFFFFFFFFFFFFFFFFFFFFFFFFFFFFFFFFFFFFF AND PUSH20 0xFFFFFFFFFFFFFFFFFFFFFFFFFFFFFFFFFFFFFFFF AND DUP2 MSTORE PUSH1 0x20 ADD SWAP1 DUP2 MSTORE PUSH1 0x20 ADD PUSH1 0x0 KECCAK256 PUSH1 0x0 DUP3 ADD MLOAD DUP2 PUSH1 0x0 ADD SSTORE PUSH1 0x20 DUP3 ADD MLOAD DUP2 PUSH1 0x1 ADD SWAP1 DUP1 MLOAD SWAP1 PUSH1 0x20 ADD SWAP1 PUSH2 0x4FD SWAP3 SWAP2 SWAP1 PUSH2 0xD71 JUMP JUMPDEST POP PUSH1 0x40 DUP3 ADD MLOAD DUP2 PUSH1 0x2 ADD SWAP1 DUP1 MLOAD SWAP1 PUSH1 0x20 ADD SWAP1 PUSH2 0x51A SWAP3 SWAP2 SWAP1 PUSH2 0xD71 JUMP JUMPDEST POP PUSH1 0x60 DUP3 ADD MLOAD DUP2 PUSH1 0x3 ADD PUSH1 0x0 PUSH2 0x100 EXP DUP2 SLOAD DUP2 PUSH20 0xFFFFFFFFFFFFFFFFFFFFFFFFFFFFFFFFFFFFFFFF MUL NOT AND SWAP1 DUP4 PUSH20 0xFFFFFFFFFFFFFFFFFFFFFFFFFFFFFFFFFFFFFFFF AND MUL OR SWAP1 SSTORE POP SWAP1 POP POP POP POP POP JUMP JUMPDEST PUSH1 0x3 PUSH1 0x20 MSTORE DUP1 PUSH1 0x0 MSTORE PUSH1 0x40 PUSH1 0x0 KECCAK256 PUSH1 0x0 SWAP2 POP SWAP1 POP DUP1 PUSH1 0x0 ADD SLOAD SWAP1 DUP1 PUSH1 0x1 ADD SLOAD SWAP1 DUP1 PUSH1 0x2 ADD SLOAD SWAP1 DUP1 PUSH1 0x3 ADD DUP1 SLOAD PUSH2 0x59F SWAP1 PUSH2 0x154D JUMP JUMPDEST DUP1 PUSH1 0x1F ADD PUSH1 0x20 DUP1 SWAP2 DIV MUL PUSH1 0x20 ADD PUSH1 0x40 MLOAD SWAP1 DUP2 ADD PUSH1 0x40 MSTORE DUP1 SWAP3 SWAP2 SWAP1 DUP2 DUP2 MSTORE PUSH1 0x20 ADD DUP3 DUP1 SLOAD PUSH2 0x5CB SWAP1 PUSH2 0x154D JUMP JUMPDEST DUP1 ISZERO PUSH2 0x618 JUMPI DUP1 PUSH1 0x1F LT PUSH2 0x5ED JUMPI PUSH2 0x100 DUP1 DUP4 SLOAD DIV MUL DUP4 MSTORE SWAP2 PUSH1 0x20 ADD SWAP2 PUSH2 0x618 JUMP JUMPDEST DUP3 ADD SWAP2 SWAP1 PUSH1 0x0 MSTORE PUSH1 0x20 PUSH1 0x0 KECCAK256 SWAP1 JUMPDEST DUP2 SLOAD DUP2 MSTORE SWAP1 PUSH1 0x1 ADD SWAP1 PUSH1 0x20 ADD DUP1 DUP4 GT PUSH2 0x5FB JUMPI DUP3 SWAP1 SUB PUSH1 0x1F AND DUP3 ADD SWAP2 JUMPDEST POP POP POP POP POP SWAP1 DUP1 PUSH1 0x4 ADD DUP1 SLOAD PUSH2 0x62D SWAP1 PUSH2 0x154D JUMP JUMPDEST DUP1 PUSH1 0x1F ADD PUSH1 0x20 DUP1 SWAP2 DIV MUL PUSH1 0x20 ADD PUSH1 0x40 MLOAD SWAP1 DUP2 ADD PUSH1 0x40 MSTORE DUP1 SWAP3 SWAP2 SWAP1 DUP2 DUP2 MSTORE PUSH1 0x20 ADD DUP3 DUP1 SLOAD PUSH2 0x659 SWAP1 PUSH2 0x154D JUMP JUMPDEST DUP1 ISZERO PUSH2 0x6A6 JUMPI DUP1 PUSH1 0x1F LT PUSH2 0x67B JUMPI PUSH2 0x100 DUP1 DUP4 SLOAD DIV MUL DUP4 MSTORE SWAP2 PUSH1 0x20 ADD SWAP2 PUSH2 0x6A6 JUMP JUMPDEST DUP3 ADD SWAP2 SWAP1 PUSH1 0x0 MSTORE PUSH1 0x20 PUSH1 0x0 KECCAK256 SWAP1 JUMPDEST DUP2 SLOAD DUP2 MSTORE SWAP1 PUSH1 0x1 ADD SWAP1 PUSH1 0x20 ADD DUP1 DUP4 GT PUSH2 0x689 JUMPI DUP3 SWAP1 SUB PUSH1 0x1F AND DUP3 ADD SWAP2 JUMPDEST POP POP POP POP POP SWAP1 DUP1 PUSH1 0x5 ADD DUP1 SLOAD PUSH2 0x6BB SWAP1 PUSH2 0x154D JUMP JUMPDEST DUP1 PUSH1 0x1F ADD PUSH1 0x20 DUP1 SWAP2 DIV MUL PUSH1 0x20 ADD PUSH1 0x40 MLOAD SWAP1 DUP2 ADD PUSH1 0x40 MSTORE DUP1 SWAP3 SWAP2 SWAP1 DUP2 DUP2 MSTORE PUSH1 0x20 ADD DUP3 DUP1 SLOAD PUSH2 0x6E7 SWAP1 PUSH2 0x154D JUMP JUMPDEST DUP1 ISZERO PUSH2 0x734 JUMPI DUP1 PUSH1 0x1F LT PUSH2 0x709 JUMPI PUSH2 0x100 DUP1 DUP4 SLOAD DIV MUL DUP4 MSTORE SWAP2 PUSH1 0x20 ADD SWAP2 PUSH2 0x734 JUMP JUMPDEST DUP3 ADD SWAP2 SWAP1 PUSH1 0x0 MSTORE PUSH1 0x20 PUSH1 0x0 KECCAK256 SWAP1 JUMPDEST DUP2 SLOAD DUP2 MSTORE SWAP1 PUSH1 0x1 ADD SWAP1 PUSH1 0x20 ADD DUP1 DUP4 GT PUSH2 0x717 JUMPI DUP3 SWAP1 SUB PUSH1 0x1F AND DUP3 ADD SWAP2 JUMPDEST POP POP POP POP POP SWAP1 POP DUP7 JUMP JUMPDEST PUSH1 0x0 PUSH1 0x1 PUSH1 0x0 CALLER PUSH20 0xFFFFFFFFFFFFFFFFFFFFFFFFFFFFFFFFFFFFFFFF AND PUSH20 0xFFFFFFFFFFFFFFFFFFFFFFFFFFFFFFFFFFFFFFFF AND DUP2 MSTORE PUSH1 0x20 ADD SWAP1 DUP2 MSTORE PUSH1 0x20 ADD PUSH1 0x0 KECCAK256 SWAP1 POP PUSH1 0x0 DUP2 PUSH1 0x0 ADD SLOAD GT PUSH2 0x7C8 JUMPI PUSH1 0x40 MLOAD PUSH32 0x8C379A000000000000000000000000000000000000000000000000000000000 DUP2 MSTORE PUSH1 0x4 ADD PUSH2 0x7BF SWAP1 PUSH2 0x12BE JUMP JUMPDEST PUSH1 0x40 MLOAD DUP1 SWAP2 SUB SWAP1 REVERT JUMPDEST PUSH1 0x40 MLOAD DUP1 PUSH1 0xC0 ADD PUSH1 0x40 MSTORE DUP1 DUP7 DUP2 MSTORE PUSH1 0x20 ADD DUP6 DUP2 MSTORE PUSH1 0x20 ADD DUP5 DUP2 MSTORE PUSH1 0x20 ADD DUP4 DUP2 MSTORE PUSH1 0x20 ADD PUSH1 0x0 DUP2 MSTORE PUSH1 0x20 ADD CALLER PUSH20 0xFFFFFFFFFFFFFFFFFFFFFFFFFFFFFFFFFFFFFFFF AND DUP2 MSTORE POP PUSH1 0x2 PUSH1 0x0 DUP8 DUP2 MSTORE PUSH1 0x20 ADD SWAP1 DUP2 MSTORE PUSH1 0x20 ADD PUSH1 0x0 KECCAK256 PUSH1 0x0 DUP3 ADD MLOAD DUP2 PUSH1 0x0 ADD SSTORE PUSH1 0x20 DUP3 ADD MLOAD DUP2 PUSH1 0x1 ADD SWAP1 DUP1 MLOAD SWAP1 PUSH1 0x20 ADD SWAP1 PUSH2 0x845 SWAP3 SWAP2 SWAP1 PUSH2 0xD71 JUMP JUMPDEST POP PUSH1 0x40 DUP3 ADD MLOAD DUP2 PUSH1 0x2 ADD SWAP1 DUP1 MLOAD SWAP1 PUSH1 0x20 ADD SWAP1 PUSH2 0x862 SWAP3 SWAP2 SWAP1 PUSH2 0xD71 JUMP JUMPDEST POP PUSH1 0x60 DUP3 ADD MLOAD DUP2 PUSH1 0x3 ADD SWAP1 DUP1 MLOAD SWAP1 PUSH1 0x20 ADD SWAP1 PUSH2 0x87F SWAP3 SWAP2 SWAP1 PUSH2 0xD71 JUMP JUMPDEST POP PUSH1 0x80 DUP3 ADD MLOAD DUP2 PUSH1 0x4 ADD SSTORE PUSH1 0xA0 DUP3 ADD MLOAD DUP2 PUSH1 0x5 ADD PUSH1 0x0 PUSH2 0x100 EXP DUP2 SLOAD DUP2 PUSH20 0xFFFFFFFFFFFFFFFFFFFFFFFFFFFFFFFFFFFFFFFF MUL NOT AND SWAP1 DUP4 PUSH20 0xFFFFFFFFFFFFFFFFFFFFFFFFFFFFFFFFFFFFFFFF AND MUL OR SWAP1 SSTORE POP SWAP1 POP POP POP POP POP POP POP JUMP JUMPDEST PUSH1 0x0 PUSH1 0x2 PUSH1 0x0 DUP5 DUP2 MSTORE PUSH1 0x20 ADD SWAP1 DUP2 MSTORE PUSH1 0x20 ADD PUSH1 0x0 KECCAK256 SWAP1 POP DUP2 DUP2 PUSH1 0x4 ADD DUP2 SWAP1 SSTORE POP POP POP POP JUMP JUMPDEST PUSH1 0x1 PUSH1 0x20 MSTORE DUP1 PUSH1 0x0 MSTORE PUSH1 0x40 PUSH1 0x0 KECCAK256 PUSH1 0x0 SWAP2 POP SWAP1 POP DUP1 PUSH1 0x0 ADD SLOAD SWAP1 DUP1 PUSH1 0x1 ADD DUP1 SLOAD PUSH2 0x929 SWAP1 PUSH2 0x154D JUMP JUMPDEST DUP1 PUSH1 0x1F ADD PUSH1 0x20 DUP1 SWAP2 DIV MUL PUSH1 0x20 ADD PUSH1 0x40 MLOAD SWAP1 DUP2 ADD PUSH1 0x40 MSTORE DUP1 SWAP3 SWAP2 SWAP1 DUP2 DUP2 MSTORE PUSH1 0x20 ADD DUP3 DUP1 SLOAD PUSH2 0x955 SWAP1 PUSH2 0x154D JUMP JUMPDEST DUP1 ISZERO PUSH2 0x9A2 JUMPI DUP1 PUSH1 0x1F LT PUSH2 0x977 JUMPI PUSH2 0x100 DUP1 DUP4 SLOAD DIV MUL DUP4 MSTORE SWAP2 PUSH1 0x20 ADD SWAP2 PUSH2 0x9A2 JUMP JUMPDEST DUP3 ADD SWAP2 SWAP1 PUSH1 0x0 MSTORE PUSH1 0x20 PUSH1 0x0 KECCAK256 SWAP1 JUMPDEST DUP2 SLOAD DUP2 MSTORE SWAP1 PUSH1 0x1 ADD SWAP1 PUSH1 0x20 ADD DUP1 DUP4 GT PUSH2 0x985 JUMPI DUP3 SWAP1 SUB PUSH1 0x1F AND DUP3 ADD SWAP2 JUMPDEST POP POP POP POP POP SWAP1 DUP1 PUSH1 0x2 ADD DUP1 SLOAD PUSH2 0x9B7 SWAP1 PUSH2 0x154D JUMP JUMPDEST DUP1 PUSH1 0x1F ADD PUSH1 0x20 DUP1 SWAP2 DIV MUL PUSH1 0x20 ADD PUSH1 0x40 MLOAD SWAP1 DUP2 ADD PUSH1 0x40 MSTORE DUP1 SWAP3 SWAP2 SWAP1 DUP2 DUP2 MSTORE PUSH1 0x20 ADD DUP3 DUP1 SLOAD PUSH2 0x9E3 SWAP1 PUSH2 0x154D JUMP JUMPDEST DUP1 ISZERO PUSH2 0xA30 JUMPI DUP1 PUSH1 0x1F LT PUSH2 0xA05 JUMPI PUSH2 0x100 DUP1 DUP4 SLOAD DIV MUL DUP4 MSTORE SWAP2 PUSH1 0x20 ADD SWAP2 PUSH2 0xA30 JUMP JUMPDEST DUP3 ADD SWAP2 SWAP1 PUSH1 0x0 MSTORE PUSH1 0x20 PUSH1 0x0 KECCAK256 SWAP1 JUMPDEST DUP2 SLOAD DUP2 MSTORE SWAP1 PUSH1 0x1 ADD SWAP1 PUSH1 0x20 ADD DUP1 DUP4 GT PUSH2 0xA13 JUMPI DUP3 SWAP1 SUB PUSH1 0x1F AND DUP3 ADD SWAP2 JUMPDEST POP POP POP POP POP SWAP1 DUP1 PUSH1 0x3 ADD PUSH1 0x0 SWAP1 SLOAD SWAP1 PUSH2 0x100 EXP SWAP1 DIV PUSH20 0xFFFFFFFFFFFFFFFFFFFFFFFFFFFFFFFFFFFFFFFF AND SWAP1 POP DUP5 JUMP JUMPDEST PUSH1 0x0 PUSH1 0x2 PUSH1 0x0 DUP7 DUP2 MSTORE PUSH1 0x20 ADD SWAP1 DUP2 MSTORE PUSH1 0x20 ADD PUSH1 0x0 KECCAK256 SWAP1 POP CALLER PUSH20 0xFFFFFFFFFFFFFFFFFFFFFFFFFFFFFFFFFFFFFFFF AND DUP2 PUSH1 0x5 ADD PUSH1 0x0 SWAP1 SLOAD SWAP1 PUSH2 0x100 EXP SWAP1 DIV PUSH20 0xFFFFFFFFFFFFFFFFFFFFFFFFFFFFFFFFFFFFFFFF AND PUSH20 0xFFFFFFFFFFFFFFFFFFFFFFFFFFFFFFFFFFFFFFFF AND EQ PUSH2 0xB09 JUMPI PUSH1 0x40 MLOAD PUSH32 0x8C379A000000000000000000000000000000000000000000000000000000000 DUP2 MSTORE PUSH1 0x4 ADD PUSH2 0xB00 SWAP1 PUSH2 0x127E JUMP JUMPDEST PUSH1 0x40 MLOAD DUP1 SWAP2 SUB SWAP1 REVERT JUMPDEST DUP4 DUP2 PUSH1 0x1 ADD SWAP1 DUP1 MLOAD SWAP1 PUSH1 0x20 ADD SWAP1 PUSH2 0xB21 SWAP3 SWAP2 SWAP1 PUSH2 0xD71 JUMP JUMPDEST POP DUP3 DUP2 PUSH1 0x2 ADD SWAP1 DUP1 MLOAD SWAP1 PUSH1 0x20 ADD SWAP1 PUSH2 0xB3A SWAP3 SWAP2 SWAP1 PUSH2 0xD71 JUMP JUMPDEST POP DUP2 DUP2 PUSH1 0x3 ADD SWAP1 DUP1 MLOAD SWAP1 PUSH1 0x20 ADD SWAP1 PUSH2 0xB53 SWAP3 SWAP2 SWAP1 PUSH2 0xD71 JUMP JUMPDEST POP POP POP POP POP POP JUMP JUMPDEST PUSH1 0x0 PUSH1 0x1 PUSH1 0x0 CALLER PUSH20 0xFFFFFFFFFFFFFFFFFFFFFFFFFFFFFFFFFFFFFFFF AND PUSH20 0xFFFFFFFFFFFFFFFFFFFFFFFFFFFFFFFFFFFFFFFF AND DUP2 MSTORE PUSH1 0x20 ADD SWAP1 DUP2 MSTORE PUSH1 0x20 ADD PUSH1 0x0 KECCAK256 SWAP1 POP PUSH1 0x0 DUP2 PUSH1 0x0 ADD SLOAD GT PUSH2 0xBE5 JUMPI PUSH1 0x40 MLOAD PUSH32 0x8C379A000000000000000000000000000000000000000000000000000000000 DUP2 MSTORE PUSH1 0x4 ADD PUSH2 0xBDC SWAP1 PUSH2 0x12DE JUMP JUMPDEST PUSH1 0x40 MLOAD DUP1 SWAP2 SUB SWAP1 REVERT JUMPDEST CALLER PUSH20 0xFFFFFFFFFFFFFFFFFFFFFFFFFFFFFFFFFFFFFFFF AND PUSH1 0x2 PUSH1 0x0 DUP8 DUP2 MSTORE PUSH1 0x20 ADD SWAP1 DUP2 MSTORE PUSH1 0x20 ADD PUSH1 0x0 KECCAK256 PUSH1 0x5 ADD PUSH1 0x0 SWAP1 SLOAD SWAP1 PUSH2 0x100 EXP SWAP1 DIV PUSH20 0xFFFFFFFFFFFFFFFFFFFFFFFFFFFFFFFFFFFFFFFF AND PUSH20 0xFFFFFFFFFFFFFFFFFFFFFFFFFFFFFFFFFFFFFFFF AND EQ PUSH2 0xC89 JUMPI PUSH1 0x40 MLOAD PUSH32 0x8C379A000000000000000000000000000000000000000000000000000000000 DUP2 MSTORE PUSH1 0x4 ADD PUSH2 0xC80 SWAP1 PUSH2 0x12FE JUMP JUMPDEST PUSH1 0x40 MLOAD DUP1 SWAP2 SUB SWAP1 REVERT JUMPDEST PUSH1 0x40 MLOAD DUP1 PUSH1 0xC0 ADD PUSH1 0x40 MSTORE DUP1 DUP8 DUP2 MSTORE PUSH1 0x20 ADD DUP7 DUP2 MSTORE PUSH1 0x20 ADD DUP3 PUSH1 0x0 ADD SLOAD DUP2 MSTORE PUSH1 0x20 ADD DUP6 DUP2 MSTORE PUSH1 0x20 ADD DUP5 DUP2 MSTORE PUSH1 0x20 ADD DUP4 DUP2 MSTORE POP PUSH1 0x3 PUSH1 0x0 DUP9 DUP2 MSTORE PUSH1 0x20 ADD SWAP1 DUP2 MSTORE PUSH1 0x20 ADD PUSH1 0x0 KECCAK256 PUSH1 0x0 DUP3 ADD MLOAD DUP2 PUSH1 0x0 ADD SSTORE PUSH1 0x20 DUP3 ADD MLOAD DUP2 PUSH1 0x1 ADD SSTORE PUSH1 0x40 DUP3 ADD MLOAD DUP2 PUSH1 0x2 ADD SSTORE PUSH1 0x60 DUP3 ADD MLOAD DUP2 PUSH1 0x3 ADD SWAP1 DUP1 MLOAD SWAP1 PUSH1 0x20 ADD SWAP1 PUSH2 0xD07 SWAP3 SWAP2 SWAP1 PUSH2 0xD71 JUMP JUMPDEST POP PUSH1 0x80 DUP3 ADD MLOAD DUP2 PUSH1 0x4 ADD SWAP1 DUP1 MLOAD SWAP1 PUSH1 0x20 ADD SWAP1 PUSH2 0xD24 SWAP3 SWAP2 SWAP1 PUSH2 0xD71 JUMP JUMPDEST POP PUSH1 0xA0 DUP3 ADD MLOAD DUP2 PUSH1 0x5 ADD SWAP1 DUP1 MLOAD SWAP1 PUSH1 0x20 ADD SWAP1 PUSH2 0xD41 SWAP3 SWAP2 SWAP1 PUSH2 0xD71 JUMP JUMPDEST POP SWAP1 POP POP POP POP POP POP POP POP JUMP JUMPDEST PUSH1 0x0 DUP1 SLOAD SWAP1 PUSH2 0x100 EXP SWAP1 DIV PUSH20 0xFFFFFFFFFFFFFFFFFFFFFFFFFFFFFFFFFFFFFFFF AND DUP2 JUMP JUMPDEST DUP3 DUP1 SLOAD PUSH2 0xD7D SWAP1 PUSH2 0x154D JUMP JUMPDEST SWAP1 PUSH1 0x0 MSTORE PUSH1 0x20 PUSH1 0x0 KECCAK256 SWAP1 PUSH1 0x1F ADD PUSH1 0x20 SWAP1 DIV DUP2 ADD SWAP3 DUP3 PUSH2 0xD9F JUMPI PUSH1 0x0 DUP6 SSTORE PUSH2 0xDE6 JUMP JUMPDEST DUP3 PUSH1 0x1F LT PUSH2 0xDB8 JUMPI DUP1 MLOAD PUSH1 0xFF NOT AND DUP4 DUP1 ADD OR DUP6 SSTORE PUSH2 0xDE6 JUMP JUMPDEST DUP3 DUP1 ADD PUSH1 0x1 ADD DUP6 SSTORE DUP3 ISZERO PUSH2 0xDE6 JUMPI SWAP2 DUP3 ADD JUMPDEST DUP3 DUP2 GT ISZERO PUSH2 0xDE5 JUMPI DUP3 MLOAD DUP3 SSTORE SWAP2 PUSH1 0x20 ADD SWAP2 SWAP1 PUSH1 0x1 ADD SWAP1 PUSH2 0xDCA JUMP JUMPDEST JUMPDEST POP SWAP1 POP PUSH2 0xDF3 SWAP2 SWAP1 PUSH2 0xDF7 JUMP JUMPDEST POP SWAP1 JUMP JUMPDEST JUMPDEST DUP1 DUP3 GT ISZERO PUSH2 0xE10 JUMPI PUSH1 0x0 DUP2 PUSH1 0x0 SWAP1 SSTORE POP PUSH1 0x1 ADD PUSH2 0xDF8 JUMP JUMPDEST POP SWAP1 JUMP JUMPDEST PUSH1 0x0 PUSH2 0xE27 PUSH2 0xE22 DUP5 PUSH2 0x1482 JUMP JUMPDEST PUSH2 0x145D JUMP JUMPDEST SWAP1 POP DUP3 DUP2 MSTORE PUSH1 0x20 DUP2 ADD DUP5 DUP5 DUP5 ADD GT ISZERO PUSH2 0xE43 JUMPI PUSH2 0xE42 PUSH2 0x1613 JUMP JUMPDEST JUMPDEST PUSH2 0xE4E DUP5 DUP3 DUP6 PUSH2 0x150B JUMP JUMPDEST POP SWAP4 SWAP3 POP POP POP JUMP JUMPDEST PUSH1 0x0 DUP2 CALLDATALOAD SWAP1 POP PUSH2 0xE65 DUP2 PUSH2 0x1856 JUMP JUMPDEST SWAP3 SWAP2 POP POP JUMP JUMPDEST PUSH1 0x0 DUP3 PUSH1 0x1F DUP4 ADD SLT PUSH2 0xE80 JUMPI PUSH2 0xE7F PUSH2 0x160E JUMP JUMPDEST JUMPDEST DUP2 CALLDATALOAD PUSH2 0xE90 DUP5 DUP3 PUSH1 0x20 DUP7 ADD PUSH2 0xE14 JUMP JUMPDEST SWAP2 POP POP SWAP3 SWAP2 POP POP JUMP JUMPDEST PUSH1 0x0 DUP2 CALLDATALOAD SWAP1 POP PUSH2 0xEA8 DUP2 PUSH2 0x186D JUMP JUMPDEST SWAP3 SWAP2 POP POP JUMP JUMPDEST PUSH1 0x0 PUSH1 0x20 DUP3 DUP5 SUB SLT ISZERO PUSH2 0xEC4 JUMPI PUSH2 0xEC3 PUSH2 0x161D JUMP JUMPDEST JUMPDEST PUSH1 0x0 PUSH2 0xED2 DUP5 DUP3 DUP6 ADD PUSH2 0xE56 JUMP JUMPDEST SWAP2 POP POP SWAP3 SWAP2 POP POP JUMP JUMPDEST PUSH1 0x0 PUSH1 0x20 DUP3 DUP5 SUB SLT ISZERO PUSH2 0xEF1 JUMPI PUSH2 0xEF0 PUSH2 0x161D JUMP JUMPDEST JUMPDEST PUSH1 0x0 PUSH2 0xEFF DUP5 DUP3 DUP6 ADD PUSH2 0xE99 JUMP JUMPDEST SWAP2 POP POP SWAP3 SWAP2 POP POP JUMP JUMPDEST PUSH1 0x0 DUP1 PUSH1 0x0 PUSH1 0x60 DUP5 DUP7 SUB SLT ISZERO PUSH2 0xF21 JUMPI PUSH2 0xF20 PUSH2 0x161D JUMP JUMPDEST JUMPDEST PUSH1 0x0 PUSH2 0xF2F DUP7 DUP3 DUP8 ADD PUSH2 0xE99 JUMP JUMPDEST SWAP4 POP POP PUSH1 0x20 DUP5 ADD CALLDATALOAD PUSH8 0xFFFFFFFFFFFFFFFF DUP2 GT ISZERO PUSH2 0xF50 JUMPI PUSH2 0xF4F PUSH2 0x1618 JUMP JUMPDEST JUMPDEST PUSH2 0xF5C DUP7 DUP3 DUP8 ADD PUSH2 0xE6B JUMP JUMPDEST SWAP3 POP POP PUSH1 0x40 DUP5 ADD CALLDATALOAD PUSH8 0xFFFFFFFFFFFFFFFF DUP2 GT ISZERO PUSH2 0xF7D JUMPI PUSH2 0xF7C PUSH2 0x1618 JUMP JUMPDEST JUMPDEST PUSH2 0xF89 DUP7 DUP3 DUP8 ADD PUSH2 0xE6B JUMP JUMPDEST SWAP2 POP POP SWAP3 POP SWAP3 POP SWAP3 JUMP JUMPDEST PUSH1 0x0 DUP1 PUSH1 0x0 DUP1 PUSH1 0x80 DUP6 DUP8 SUB SLT ISZERO PUSH2 0xFAD JUMPI PUSH2 0xFAC PUSH2 0x161D JUMP JUMPDEST JUMPDEST PUSH1 0x0 PUSH2 0xFBB DUP8 DUP3 DUP9 ADD PUSH2 0xE99 JUMP JUMPDEST SWAP5 POP POP PUSH1 0x20 DUP6 ADD CALLDATALOAD PUSH8 0xFFFFFFFFFFFFFFFF DUP2 GT ISZERO PUSH2 0xFDC JUMPI PUSH2 0xFDB PUSH2 0x1618 JUMP JUMPDEST JUMPDEST PUSH2 0xFE8 DUP8 DUP3 DUP9 ADD PUSH2 0xE6B JUMP JUMPDEST SWAP4 POP POP PUSH1 0x40 DUP6 ADD CALLDATALOAD PUSH8 0xFFFFFFFFFFFFFFFF DUP2 GT ISZERO PUSH2 0x1009 JUMPI PUSH2 0x1008 PUSH2 0x1618 JUMP JUMPDEST JUMPDEST PUSH2 0x1015 DUP8 DUP3 DUP9 ADD PUSH2 0xE6B JUMP JUMPDEST SWAP3 POP POP PUSH1 0x60 DUP6 ADD CALLDATALOAD PUSH8 0xFFFFFFFFFFFFFFFF DUP2 GT ISZERO PUSH2 0x1036 JUMPI PUSH2 0x1035 PUSH2 0x1618 JUMP JUMPDEST JUMPDEST PUSH2 0x1042 DUP8 DUP3 DUP9 ADD PUSH2 0xE6B JUMP JUMPDEST SWAP2 POP POP SWAP3 SWAP6 SWAP2 SWAP5 POP SWAP3 POP JUMP JUMPDEST PUSH1 0x0 DUP1 PUSH1 0x40 DUP4 DUP6 SUB SLT ISZERO PUSH2 0x1065 JUMPI PUSH2 0x1064 PUSH2 0x161D JUMP JUMPDEST JUMPDEST PUSH1 0x0 PUSH2 0x1073 DUP6 DUP3 DUP7 ADD PUSH2 0xE99 JUMP JUMPDEST SWAP3 POP POP PUSH1 0x20 PUSH2 0x1084 DUP6 DUP3 DUP7 ADD PUSH2 0xE99 JUMP JUMPDEST SWAP2 POP POP SWAP3 POP SWAP3 SWAP1 POP JUMP JUMPDEST PUSH1 0x0 DUP1 PUSH1 0x0 DUP1 PUSH1 0x0 PUSH1 0xA0 DUP7 DUP9 SUB SLT ISZERO PUSH2 0x10AA JUMPI PUSH2 0x10A9 PUSH2 0x161D JUMP JUMPDEST JUMPDEST PUSH1 0x0 PUSH2 0x10B8 DUP9 DUP3 DUP10 ADD PUSH2 0xE99 JUMP JUMPDEST SWAP6 POP POP PUSH1 0x20 PUSH2 0x10C9 DUP9 DUP3 DUP10 ADD PUSH2 0xE99 JUMP JUMPDEST SWAP5 POP POP PUSH1 0x40 DUP7 ADD CALLDATALOAD PUSH8 0xFFFFFFFFFFFFFFFF DUP2 GT ISZERO PUSH2 0x10EA JUMPI PUSH2 0x10E9 PUSH2 0x1618 JUMP JUMPDEST JUMPDEST PUSH2 0x10F6 DUP9 DUP3 DUP10 ADD PUSH2 0xE6B JUMP JUMPDEST SWAP4 POP POP PUSH1 0x60 DUP7 ADD CALLDATALOAD PUSH8 0xFFFFFFFFFFFFFFFF DUP2 GT ISZERO PUSH2 0x1117 JUMPI PUSH2 0x1116 PUSH2 0x1618 JUMP JUMPDEST JUMPDEST PUSH2 0x1123 DUP9 DUP3 DUP10 ADD PUSH2 0xE6B JUMP JUMPDEST SWAP3 POP POP PUSH1 0x80 DUP7 ADD CALLDATALOAD PUSH8 0xFFFFFFFFFFFFFFFF DUP2 GT ISZERO PUSH2 0x1144 JUMPI PUSH2 0x1143 PUSH2 0x1618 JUMP JUMPDEST JUMPDEST PUSH2 0x1150 DUP9 DUP3 DUP10 ADD PUSH2 0xE6B JUMP JUMPDEST SWAP2 POP POP SWAP3 SWAP6 POP SWAP3 SWAP6 SWAP1 SWAP4 POP JUMP JUMPDEST PUSH2 0x1166 DUP2 PUSH2 0x14CF JUMP JUMPDEST DUP3 MSTORE POP POP JUMP JUMPDEST PUSH1 0x0 PUSH2 0x1177 DUP3 PUSH2 0x14B3 JUMP JUMPDEST PUSH2 0x1181 DUP2 DUP6 PUSH2 0x14BE JUMP JUMPDEST SWAP4 POP PUSH2 0x1191 DUP2 DUP6 PUSH1 0x20 DUP7 ADD PUSH2 0x151A JUMP JUMPDEST PUSH2 0x119A DUP2 PUSH2 0x1622 JUMP JUMPDEST DUP5 ADD SWAP2 POP POP SWAP3 SWAP2 POP POP JUMP JUMPDEST PUSH1 0x0 PUSH2 0x11B2 PUSH1 0x48 DUP4 PUSH2 0x14BE JUMP JUMPDEST SWAP2 POP PUSH2 0x11BD DUP3 PUSH2 0x1633 JUMP JUMPDEST PUSH1 0x60 DUP3 ADD SWAP1 POP SWAP2 SWAP1 POP JUMP JUMPDEST PUSH1 0x0 PUSH2 0x11D5 PUSH1 0x34 DUP4 PUSH2 0x14BE JUMP JUMPDEST SWAP2 POP PUSH2 0x11E0 DUP3 PUSH2 0x16A8 JUMP JUMPDEST PUSH1 0x40 DUP3 ADD SWAP1 POP SWAP2 SWAP1 POP JUMP JUMPDEST PUSH1 0x0 PUSH2 0x11F8 PUSH1 0x43 DUP4 PUSH2 0x14BE JUMP JUMPDEST SWAP2 POP PUSH2 0x1203 DUP3 PUSH2 0x16F7 JUMP JUMPDEST PUSH1 0x60 DUP3 ADD SWAP1 POP SWAP2 SWAP1 POP JUMP JUMPDEST PUSH1 0x0 PUSH2 0x121B PUSH1 0x45 DUP4 PUSH2 0x14BE JUMP JUMPDEST SWAP2 POP PUSH2 0x1226 DUP3 PUSH2 0x176C JUMP JUMPDEST PUSH1 0x60 DUP3 ADD SWAP1 POP SWAP2 SWAP1 POP JUMP JUMPDEST PUSH1 0x0 PUSH2 0x123E PUSH1 0x41 DUP4 PUSH2 0x14BE JUMP JUMPDEST SWAP2 POP PUSH2 0x1249 DUP3 PUSH2 0x17E1 JUMP JUMPDEST PUSH1 0x60 DUP3 ADD SWAP1 POP SWAP2 SWAP1 POP JUMP JUMPDEST PUSH2 0x125D DUP2 PUSH2 0x1501 JUMP JUMPDEST DUP3 MSTORE POP POP JUMP JUMPDEST PUSH1 0x0 PUSH1 0x20 DUP3 ADD SWAP1 POP PUSH2 0x1278 PUSH1 0x0 DUP4 ADD DUP5 PUSH2 0x115D JUMP JUMPDEST SWAP3 SWAP2 POP POP JUMP JUMPDEST PUSH1 0x0 PUSH1 0x20 DUP3 ADD SWAP1 POP DUP2 DUP2 SUB PUSH1 0x0 DUP4 ADD MSTORE PUSH2 0x1297 DUP2 PUSH2 0x11A5 JUMP JUMPDEST SWAP1 POP SWAP2 SWAP1 POP JUMP JUMPDEST PUSH1 0x0 PUSH1 0x20 DUP3 ADD SWAP1 POP DUP2 DUP2 SUB PUSH1 0x0 DUP4 ADD MSTORE PUSH2 0x12B7 DUP2 PUSH2 0x11C8 JUMP JUMPDEST SWAP1 POP SWAP2 SWAP1 POP JUMP JUMPDEST PUSH1 0x0 PUSH1 0x20 DUP3 ADD SWAP1 POP DUP2 DUP2 SUB PUSH1 0x0 DUP4 ADD MSTORE PUSH2 0x12D7 DUP2 PUSH2 0x11EB JUMP JUMPDEST SWAP1 POP SWAP2 SWAP1 POP JUMP JUMPDEST PUSH1 0x0 PUSH1 0x20 DUP3 ADD SWAP1 POP DUP2 DUP2 SUB PUSH1 0x0 DUP4 ADD MSTORE PUSH2 0x12F7 DUP2 PUSH2 0x120E JUMP JUMPDEST SWAP1 POP SWAP2 SWAP1 POP JUMP JUMPDEST PUSH1 0x0 PUSH1 0x20 DUP3 ADD SWAP1 POP DUP2 DUP2 SUB PUSH1 0x0 DUP4 ADD MSTORE PUSH2 0x1317 DUP2 PUSH2 0x1231 JUMP JUMPDEST SWAP1 POP SWAP2 SWAP1 POP JUMP JUMPDEST PUSH1 0x0 PUSH1 0x80 DUP3 ADD SWAP1 POP PUSH2 0x1333 PUSH1 0x0 DUP4 ADD DUP8 PUSH2 0x1254 JUMP JUMPDEST DUP2 DUP2 SUB PUSH1 0x20 DUP4 ADD MSTORE PUSH2 0x1345 DUP2 DUP7 PUSH2 0x116C JUMP JUMPDEST SWAP1 POP DUP2 DUP2 SUB PUSH1 0x40 DUP4 ADD MSTORE PUSH2 0x1359 DUP2 DUP6 PUSH2 0x116C JUMP JUMPDEST SWAP1 POP PUSH2 0x1368 PUSH1 0x60 DUP4 ADD DUP5 PUSH2 0x115D JUMP JUMPDEST SWAP6 SWAP5 POP POP POP POP POP JUMP JUMPDEST PUSH1 0x0 PUSH1 0xC0 DUP3 ADD SWAP1 POP PUSH2 0x1386 PUSH1 0x0 DUP4 ADD DUP10 PUSH2 0x1254 JUMP JUMPDEST DUP2 DUP2 SUB PUSH1 0x20 DUP4 ADD MSTORE PUSH2 0x1398 DUP2 DUP9 PUSH2 0x116C JUMP JUMPDEST SWAP1 POP DUP2 DUP2 SUB PUSH1 0x40 DUP4 ADD MSTORE PUSH2 0x13AC DUP2 DUP8 PUSH2 0x116C JUMP JUMPDEST SWAP1 POP DUP2 DUP2 SUB PUSH1 0x60 DUP4 ADD MSTORE PUSH2 0x13C0 DUP2 DUP7 PUSH2 0x116C JUMP JUMPDEST SWAP1 POP PUSH2 0x13CF PUSH1 0x80 DUP4 ADD DUP6 PUSH2 0x1254 JUMP JUMPDEST PUSH2 0x13DC PUSH1 0xA0 DUP4 ADD DUP5 PUSH2 0x115D JUMP JUMPDEST SWAP8 SWAP7 POP POP POP POP POP POP POP JUMP JUMPDEST PUSH1 0x0 PUSH1 0xC0 DUP3 ADD SWAP1 POP PUSH2 0x13FC PUSH1 0x0 DUP4 ADD DUP10 PUSH2 0x1254 JUMP JUMPDEST PUSH2 0x1409 PUSH1 0x20 DUP4 ADD DUP9 PUSH2 0x1254 JUMP JUMPDEST PUSH2 0x1416 PUSH1 0x40 DUP4 ADD DUP8 PUSH2 0x1254 JUMP JUMPDEST DUP2 DUP2 SUB PUSH1 0x60 DUP4 ADD MSTORE PUSH2 0x1428 DUP2 DUP7 PUSH2 0x116C JUMP JUMPDEST SWAP1 POP DUP2 DUP2 SUB PUSH1 0x80 DUP4 ADD MSTORE PUSH2 0x143C DUP2 DUP6 PUSH2 0x116C JUMP JUMPDEST SWAP1 POP DUP2 DUP2 SUB PUSH1 0xA0 DUP4 ADD MSTORE PUSH2 0x1450 DUP2 DUP5 PUSH2 0x116C JUMP JUMPDEST SWAP1 POP SWAP8 SWAP7 POP POP POP POP POP POP POP JUMP JUMPDEST PUSH1 0x0 PUSH2 0x1467 PUSH2 0x1478 JUMP JUMPDEST SWAP1 POP PUSH2 0x1473 DUP3 DUP3 PUSH2 0x157F JUMP JUMPDEST SWAP2 SWAP1 POP JUMP JUMPDEST PUSH1 0x0 PUSH1 0x40 MLOAD SWAP1 POP SWAP1 JUMP JUMPDEST PUSH1 0x0 PUSH8 0xFFFFFFFFFFFFFFFF DUP3 GT ISZERO PUSH2 0x149D JUMPI PUSH2 0x149C PUSH2 0x15DF JUMP JUMPDEST JUMPDEST PUSH2 0x14A6 DUP3 PUSH2 0x1622 JUMP JUMPDEST SWAP1 POP PUSH1 0x20 DUP2 ADD SWAP1 POP SWAP2 SWAP1 POP JUMP JUMPDEST PUSH1 0x0 DUP2 MLOAD SWAP1 POP SWAP2 SWAP1 POP JUMP JUMPDEST PUSH1 0x0 DUP3 DUP3 MSTORE PUSH1 0x20 DUP3 ADD SWAP1 POP SWAP3 SWAP2 POP POP JUMP JUMPDEST PUSH1 0x0 PUSH2 0x14DA DUP3 PUSH2 0x14E1 JUMP JUMPDEST SWAP1 POP SWAP2 SWAP1 POP JUMP JUMPDEST PUSH1 0x0 PUSH20 0xFFFFFFFFFFFFFFFFFFFFFFFFFFFFFFFFFFFFFFFF DUP3 AND SWAP1 POP SWAP2 SWAP1 POP JUMP JUMPDEST PUSH1 0x0 DUP2 SWAP1 POP SWAP2 SWAP1 POP JUMP JUMPDEST DUP3 DUP2 DUP4 CALLDATACOPY PUSH1 0x0 DUP4 DUP4 ADD MSTORE POP POP POP JUMP JUMPDEST PUSH1 0x0 JUMPDEST DUP4 DUP2 LT ISZERO PUSH2 0x1538 JUMPI DUP1 DUP3 ADD MLOAD DUP2 DUP5 ADD MSTORE PUSH1 0x20 DUP2 ADD SWAP1 POP PUSH2 0x151D JUMP JUMPDEST DUP4 DUP2 GT ISZERO PUSH2 0x1547 JUMPI PUSH1 0x0 DUP5 DUP5 ADD MSTORE JUMPDEST POP POP POP POP JUMP JUMPDEST PUSH1 0x0 PUSH1 0x2 DUP3 DIV SWAP1 POP PUSH1 0x1 DUP3 AND DUP1 PUSH2 0x1565 JUMPI PUSH1 0x7F DUP3 AND SWAP2 POP JUMPDEST PUSH1 0x20 DUP3 LT DUP2 EQ ISZERO PUSH2 0x1579 JUMPI PUSH2 0x1578 PUSH2 0x15B0 JUMP JUMPDEST JUMPDEST POP SWAP2 SWAP1 POP JUMP JUMPDEST PUSH2 0x1588 DUP3 PUSH2 0x1622 JUMP JUMPDEST DUP2 ADD DUP2 DUP2 LT PUSH8 0xFFFFFFFFFFFFFFFF DUP3 GT OR ISZERO PUSH2 0x15A7 JUMPI PUSH2 0x15A6 PUSH2 0x15DF JUMP JUMPDEST JUMPDEST DUP1 PUSH1 0x40 MSTORE POP POP POP JUMP JUMPDEST PUSH32 0x4E487B7100000000000000000000000000000000000000000000000000000000 PUSH1 0x0 MSTORE PUSH1 0x22 PUSH1 0x4 MSTORE PUSH1 0x24 PUSH1 0x0 REVERT JUMPDEST PUSH32 0x4E487B7100000000000000000000000000000000000000000000000000000000 PUSH1 0x0 MSTORE PUSH1 0x41 PUSH1 0x4 MSTORE PUSH1 0x24 PUSH1 0x0 REVERT JUMPDEST PUSH1 0x0 DUP1 REVERT JUMPDEST PUSH1 0x0 DUP1 REVERT JUMPDEST PUSH1 0x0 DUP1 REVERT JUMPDEST PUSH1 0x0 DUP1 REVERT JUMPDEST PUSH1 0x0 PUSH1 0x1F NOT PUSH1 0x1F DUP4 ADD AND SWAP1 POP SWAP2 SWAP1 POP JUMP JUMPDEST PUSH32 0x5365756C206C27657461626C697373656D656E74207175692061206372656520 PUSH1 0x0 DUP3 ADD MSTORE PUSH32 0x6C652070726F66696C2070657574206D65747472652061206A6F757220756E20 PUSH1 0x20 DUP3 ADD MSTORE PUSH32 0x6574756469616E74000000000000000000000000000000000000000000000000 PUSH1 0x40 DUP3 ADD MSTORE POP JUMP JUMPDEST PUSH32 0x5365756C206C2761646D696E6973747261746575722070657574206566666563 PUSH1 0x0 DUP3 ADD MSTORE PUSH32 0x74756572206365747465206F7065726174696F6E000000000000000000000000 PUSH1 0x20 DUP3 ADD MSTORE POP JUMP JUMPDEST PUSH32 0x4C27657461626C697373656D656E74206E2765786973746520706173206F7520 PUSH1 0x0 DUP3 ADD MSTORE PUSH32 0x6E276120706173206C652064726F697420646520637265657220756E2070726F PUSH1 0x20 DUP3 ADD MSTORE PUSH32 0x66696C0000000000000000000000000000000000000000000000000000000000 PUSH1 0x40 DUP3 ADD MSTORE POP JUMP JUMPDEST PUSH32 0x4C27657461626C697373656D656E74206E2765786973746520706173206F7520 PUSH1 0x0 DUP3 ADD MSTORE PUSH32 0x6E276120706173206C652064726F6974206427616A6F7574657220756E206469 PUSH1 0x20 DUP3 ADD MSTORE PUSH32 0x706C6F6D65000000000000000000000000000000000000000000000000000000 PUSH1 0x40 DUP3 ADD MSTORE POP JUMP JUMPDEST PUSH32 0x5365756C206C27657461626C697373656D656E74207175692061206372656520 PUSH1 0x0 DUP3 ADD MSTORE PUSH32 0x6C652070726F66696C207065757420616A6F7574657220756E206469706C6F6D PUSH1 0x20 DUP3 ADD MSTORE PUSH32 0x6500000000000000000000000000000000000000000000000000000000000000 PUSH1 0x40 DUP3 ADD MSTORE POP JUMP JUMPDEST PUSH2 0x185F DUP2 PUSH2 0x14CF JUMP JUMPDEST DUP2 EQ PUSH2 0x186A JUMPI PUSH1 0x0 DUP1 REVERT JUMPDEST POP JUMP JUMPDEST PUSH2 0x1876 DUP2 PUSH2 0x1501 JUMP JUMPDEST DUP2 EQ PUSH2 0x1881 JUMPI PUSH1 0x0 DUP1 REVERT JUMPDEST POP JUMP INVALID LOG2 PUSH5 0x6970667358 0x22 SLT KECCAK256 0xE1 0xCD BALANCE 0xCF DELEGATECALL BLOCKHASH 0xF7 0xC3 SWAP14 0xCF 0x2F LT RETURNDATACOPY TIMESTAMP 0xD5 SIGNEXTEND BLOCKHASH 0xDE ADD SWAP13 BLOCKHASH 0x4C SWAP6 0xF9 DUP12 0x2C 0xD LOG1 0xE MULMOD 0xAA DUP3 PUSH5 0x736F6C6343 STOP ADDMOD SMOD STOP CALLER "
				},
				"gasEstimates": {
					"creation": {
						"codeDepositCost": "1266000",
						"executionCost": "25581",
						"totalCost": "1291581"
					},
					"external": {
						"addDiploma(uint256,uint256,string,string,string)": "infinite",
						"admin()": "2599",
						"createEstablishment(uint256,string,string)": "infinite",
						"createStudent(uint256,string,string,string)": "infinite",
						"diplomas(uint256)": "infinite",
						"establishmentAdmins(address)": "infinite",
						"students(uint256)": "infinite",
						"updateStudent(uint256,string,string,string)": "infinite",
						"updateStudentEvaluation(uint256,uint256)": "infinite"
					}
				},
				"methodIdentifiers": {
					"addDiploma(uint256,uint256,string,string,string)": "f04656eb",
					"admin()": "f851a440",
					"createEstablishment(uint256,string,string)": "1274147e",
					"createStudent(uint256,string,string,string)": "4495a008",
					"diplomas(uint256)": "35dfc1c3",
					"establishmentAdmins(address)": "91a3972b",
					"students(uint256)": "06ead22e",
					"updateStudent(uint256,string,string,string)": "a42a5be4",
					"updateStudentEvaluation(uint256,uint256)": "645041bf"
				}
			},
			"storageLayout": {
				"storage": [
					{
						"astId": 113,
						"contract": "contracts/Projet_Blockchain/_Etablissement.sol:EstablishmentContract",
						"label": "admin",
						"offset": 0,
						"slot": "0",
						"type": "t_address"
					},
					{
						"astId": 174,
						"contract": "contracts/Projet_Blockchain/_Etablissement.sol:EstablishmentContract",
						"label": "establishmentAdmins",
						"offset": 0,
						"slot": "1",
						"type": "t_mapping(t_address,t_struct(Establishment)156_storage)"
					},
					{
						"astId": 179,
						"contract": "contracts/Projet_Blockchain/_Etablissement.sol:EstablishmentContract",
						"label": "students",
						"offset": 0,
						"slot": "2",
						"type": "t_mapping(t_uint256,t_struct(Student)147_storage)"
					},
					{
						"astId": 184,
						"contract": "contracts/Projet_Blockchain/_Etablissement.sol:EstablishmentContract",
						"label": "diplomas",
						"offset": 0,
						"slot": "3",
						"type": "t_mapping(t_uint256,t_struct(Diploma)169_storage)"
					}
				],
				"types": {
					"t_address": {
						"encoding": "inplace",
						"label": "address",
						"numberOfBytes": "20"
					},
					"t_mapping(t_address,t_struct(Establishment)156_storage)": {
						"encoding": "mapping",
						"key": "t_address",
						"label": "mapping(address => struct EstablishmentContract.Establishment)",
						"numberOfBytes": "32",
						"value": "t_struct(Establishment)156_storage"
					},
					"t_mapping(t_uint256,t_struct(Diploma)169_storage)": {
						"encoding": "mapping",
						"key": "t_uint256",
						"label": "mapping(uint256 => struct EstablishmentContract.Diploma)",
						"numberOfBytes": "32",
						"value": "t_struct(Diploma)169_storage"
					},
					"t_mapping(t_uint256,t_struct(Student)147_storage)": {
						"encoding": "mapping",
						"key": "t_uint256",
						"label": "mapping(uint256 => struct EstablishmentContract.Student)",
						"numberOfBytes": "32",
						"value": "t_struct(Student)147_storage"
					},
					"t_string_storage": {
						"encoding": "bytes",
						"label": "string",
						"numberOfBytes": "32"
					},
					"t_struct(Diploma)169_storage": {
						"encoding": "inplace",
						"label": "struct EstablishmentContract.Diploma",
						"members": [
							{
								"astId": 158,
								"contract": "contracts/Projet_Blockchain/_Etablissement.sol:EstablishmentContract",
								"label": "id",
								"offset": 0,
								"slot": "0",
								"type": "t_uint256"
							},
							{
								"astId": 160,
								"contract": "contracts/Projet_Blockchain/_Etablissement.sol:EstablishmentContract",
								"label": "studentId",
								"offset": 0,
								"slot": "1",
								"type": "t_uint256"
							},
							{
								"astId": 162,
								"contract": "contracts/Projet_Blockchain/_Etablissement.sol:EstablishmentContract",
								"label": "establishmentId",
								"offset": 0,
								"slot": "2",
								"type": "t_uint256"
							},
							{
								"astId": 164,
								"contract": "contracts/Projet_Blockchain/_Etablissement.sol:EstablishmentContract",
								"label": "establishmentName",
								"offset": 0,
								"slot": "3",
								"type": "t_string_storage"
							},
							{
								"astId": 166,
								"contract": "contracts/Projet_Blockchain/_Etablissement.sol:EstablishmentContract",
								"label": "type_",
								"offset": 0,
								"slot": "4",
								"type": "t_string_storage"
							},
							{
								"astId": 168,
								"contract": "contracts/Projet_Blockchain/_Etablissement.sol:EstablishmentContract",
								"label": "mention",
								"offset": 0,
								"slot": "5",
								"type": "t_string_storage"
							}
						],
						"numberOfBytes": "192"
					},
					"t_struct(Establishment)156_storage": {
						"encoding": "inplace",
						"label": "struct EstablishmentContract.Establishment",
						"members": [
							{
								"astId": 149,
								"contract": "contracts/Projet_Blockchain/_Etablissement.sol:EstablishmentContract",
								"label": "id",
								"offset": 0,
								"slot": "0",
								"type": "t_uint256"
							},
							{
								"astId": 151,
								"contract": "contracts/Projet_Blockchain/_Etablissement.sol:EstablishmentContract",
								"label": "name",
								"offset": 0,
								"slot": "1",
								"type": "t_string_storage"
							},
							{
								"astId": 153,
								"contract": "contracts/Projet_Blockchain/_Etablissement.sol:EstablishmentContract",
								"label": "type_",
								"offset": 0,
								"slot": "2",
								"type": "t_string_storage"
							},
							{
								"astId": 155,
								"contract": "contracts/Projet_Blockchain/_Etablissement.sol:EstablishmentContract",
								"label": "adminAgent",
								"offset": 0,
								"slot": "3",
								"type": "t_address"
							}
						],
						"numberOfBytes": "128"
					},
					"t_struct(Student)147_storage": {
						"encoding": "inplace",
						"label": "struct EstablishmentContract.Student",
						"members": [
							{
								"astId": 136,
								"contract": "contracts/Projet_Blockchain/_Etablissement.sol:EstablishmentContract",
								"label": "id",
								"offset": 0,
								"slot": "0",
								"type": "t_uint256"
							},
							{
								"astId": 138,
								"contract": "contracts/Projet_Blockchain/_Etablissement.sol:EstablishmentContract",
								"label": "name",
								"offset": 0,
								"slot": "1",
								"type": "t_string_storage"
							},
							{
								"astId": 140,
								"contract": "contracts/Projet_Blockchain/_Etablissement.sol:EstablishmentContract",
								"label": "surname",
								"offset": 0,
								"slot": "2",
								"type": "t_string_storage"
							},
							{
								"astId": 142,
								"contract": "contracts/Projet_Blockchain/_Etablissement.sol:EstablishmentContract",
								"label": "gender",
								"offset": 0,
								"slot": "3",
								"type": "t_string_storage"
							},
							{
								"astId": 144,
								"contract": "contracts/Projet_Blockchain/_Etablissement.sol:EstablishmentContract",
								"label": "evaluation",
								"offset": 0,
								"slot": "4",
								"type": "t_uint256"
							},
							{
								"astId": 146,
								"contract": "contracts/Projet_Blockchain/_Etablissement.sol:EstablishmentContract",
								"label": "profileAgent",
								"offset": 0,
								"slot": "5",
								"type": "t_address"
							}
						],
						"numberOfBytes": "192"
					},
					"t_uint256": {
						"encoding": "inplace",
						"label": "uint256",
						"numberOfBytes": "32"
					}
				}
			},
			"userdoc": {
				"kind": "user",
				"methods": {},
				"version": 1
			}
		}
	}
}