{
	"contracts/Projet_Blockchain/_Entreprise.sol": {
		"CompanyContract": {
			"abi": [
				{
					"inputs": [
						{
							"internalType": "contract EstablishmentContract",
							"name": "_contractAddress",
							"type": "address"
						}
					],
					"stateMutability": "nonpayable",
					"type": "constructor"
				},
				{
					"inputs": [],
					"name": "adminC",
					"outputs": [
						{
							"internalType": "address",
							"name": "",
							"type": "address"
						}
					],
					"stateMutability": "view",
					"type": "function"
				},
				{
					"inputs": [
						{
							"internalType": "uint256",
							"name": "",
							"type": "uint256"
						}
					],
					"name": "companies",
					"outputs": [
						{
							"internalType": "uint256",
							"name": "id",
							"type": "uint256"
						},
						{
							"internalType": "string",
							"name": "name",
							"type": "string"
						},
						{
							"internalType": "string",
							"name": "address_",
							"type": "string"
						},
						{
							"internalType": "address",
							"name": "recruitmentAgent",
							"type": "address"
						}
					],
					"stateMutability": "view",
					"type": "function"
				},
				{
					"inputs": [
						{
							"internalType": "uint256",
							"name": "_id",
							"type": "uint256"
						},
						{
							"internalType": "string",
							"name": "_name",
							"type": "string"
						},
						{
							"internalType": "string",
							"name": "_address",
							"type": "string"
						}
					],
					"name": "createCompany",
					"outputs": [],
					"stateMutability": "nonpayable",
					"type": "function"
				},
				{
					"inputs": [],
					"name": "establishmentContract",
					"outputs": [
						{
							"internalType": "contract EstablishmentContract",
							"name": "",
							"type": "address"
						}
					],
					"stateMutability": "view",
					"type": "function"
				},
				{
					"inputs": [
						{
							"internalType": "uint256",
							"name": "_companyId",
							"type": "uint256"
						},
						{
							"internalType": "uint256",
							"name": "_studentId",
							"type": "uint256"
						},
						{
							"internalType": "uint256",
							"name": "_evaluation",
							"type": "uint256"
						}
					],
					"name": "insertEvaluation",
					"outputs": [],
					"stateMutability": "nonpayable",
					"type": "function"
				}
			],
			"devdoc": {
				"kind": "dev",
				"methods": {},
				"version": 1
			},
			"evm": {
				"assembly": "    /* \"contracts/Projet_Blockchain/_Entreprise.sol\":94:1598  contract CompanyContract {\r... */\n  mstore(0x40, 0x80)\n    /* \"contracts/Projet_Blockchain/_Entreprise.sol\":336:500  constructor(EstablishmentContract _contractAddress) {\r... */\n  callvalue\n  dup1\n  iszero\n  tag_1\n  jumpi\n  0x00\n  dup1\n  revert\ntag_1:\n  pop\n  mload(0x40)\n  sub(codesize, bytecodeSize)\n  dup1\n  bytecodeSize\n  dup4\n  codecopy\n  dup2\n  dup2\n  add\n  0x40\n  mstore\n  dup2\n  add\n  swap1\n  tag_2\n  swap2\n  swap1\n  tag_3\n  jump\t// in\ntag_2:\n    /* \"contracts/Projet_Blockchain/_Entreprise.sol\":408:418  msg.sender */\n  caller\n    /* \"contracts/Projet_Blockchain/_Entreprise.sol\":399:405  adminC */\n  0x00\n  dup1\n    /* \"contracts/Projet_Blockchain/_Entreprise.sol\":399:418  adminC = msg.sender */\n  0x0100\n  exp\n  dup2\n  sload\n  dup2\n  0xffffffffffffffffffffffffffffffffffffffff\n  mul\n  not\n  and\n  swap1\n  dup4\n  0xffffffffffffffffffffffffffffffffffffffff\n  and\n  mul\n  or\n  swap1\n  sstore\n  pop\n    /* \"contracts/Projet_Blockchain/_Entreprise.sol\":475:491  _contractAddress */\n  dup1\n    /* \"contracts/Projet_Blockchain/_Entreprise.sol\":429:450  establishmentContract */\n  0x01\n  0x00\n    /* \"contracts/Projet_Blockchain/_Entreprise.sol\":429:492  establishmentContract = EstablishmentContract(_contractAddress) */\n  0x0100\n  exp\n  dup2\n  sload\n  dup2\n  0xffffffffffffffffffffffffffffffffffffffff\n  mul\n  not\n  and\n  swap1\n  dup4\n  0xffffffffffffffffffffffffffffffffffffffff\n  and\n  mul\n  or\n  swap1\n  sstore\n  pop\n    /* \"contracts/Projet_Blockchain/_Entreprise.sol\":336:500  constructor(EstablishmentContract _contractAddress) {\r... */\n  pop\n    /* \"contracts/Projet_Blockchain/_Entreprise.sol\":94:1598  contract CompanyContract {\r... */\n  jump(tag_6)\n    /* \"#utility.yul\":7:208   */\ntag_8:\n    /* \"#utility.yul\":93:98   */\n  0x00\n    /* \"#utility.yul\":124:130   */\n  dup2\n    /* \"#utility.yul\":118:131   */\n  mload\n    /* \"#utility.yul\":109:131   */\n  swap1\n  pop\n    /* \"#utility.yul\":140:202   */\n  tag_10\n    /* \"#utility.yul\":196:201   */\n  dup2\n    /* \"#utility.yul\":140:202   */\n  tag_11\n  jump\t// in\ntag_10:\n    /* \"#utility.yul\":7:208   */\n  swap3\n  swap2\n  pop\n  pop\n  jump\t// out\n    /* \"#utility.yul\":214:623   */\ntag_3:\n    /* \"#utility.yul\":313:319   */\n  0x00\n    /* \"#utility.yul\":362:364   */\n  0x20\n    /* \"#utility.yul\":350:359   */\n  dup3\n    /* \"#utility.yul\":341:348   */\n  dup5\n    /* \"#utility.yul\":337:360   */\n  sub\n    /* \"#utility.yul\":333:365   */\n  slt\n    /* \"#utility.yul\":330:449   */\n  iszero\n  tag_13\n  jumpi\n    /* \"#utility.yul\":368:447   */\n  tag_14\n  tag_15\n  jump\t// in\ntag_14:\n    /* \"#utility.yul\":330:449   */\ntag_13:\n    /* \"#utility.yul\":488:489   */\n  0x00\n    /* \"#utility.yul\":513:606   */\n  tag_16\n    /* \"#utility.yul\":598:605   */\n  dup5\n    /* \"#utility.yul\":589:595   */\n  dup3\n    /* \"#utility.yul\":578:587   */\n  dup6\n    /* \"#utility.yul\":574:596   */\n  add\n    /* \"#utility.yul\":513:606   */\n  tag_8\n  jump\t// in\ntag_16:\n    /* \"#utility.yul\":503:606   */\n  swap2\n  pop\n    /* \"#utility.yul\":459:616   */\n  pop\n    /* \"#utility.yul\":214:623   */\n  swap3\n  swap2\n  pop\n  pop\n  jump\t// out\n    /* \"#utility.yul\":710:806   */\ntag_19:\n    /* \"#utility.yul\":747:754   */\n  0x00\n    /* \"#utility.yul\":776:800   */\n  tag_21\n    /* \"#utility.yul\":794:799   */\n  dup3\n    /* \"#utility.yul\":776:800   */\n  tag_22\n  jump\t// in\ntag_21:\n    /* \"#utility.yul\":765:800   */\n  swap1\n  pop\n    /* \"#utility.yul\":710:806   */\n  swap2\n  swap1\n  pop\n  jump\t// out\n    /* \"#utility.yul\":812:937   */\ntag_23:\n    /* \"#utility.yul\":878:885   */\n  0x00\n    /* \"#utility.yul\":907:931   */\n  tag_25\n    /* \"#utility.yul\":925:930   */\n  dup3\n    /* \"#utility.yul\":907:931   */\n  tag_19\n  jump\t// in\ntag_25:\n    /* \"#utility.yul\":896:931   */\n  swap1\n  pop\n    /* \"#utility.yul\":812:937   */\n  swap2\n  swap1\n  pop\n  jump\t// out\n    /* \"#utility.yul\":943:1069   */\ntag_22:\n    /* \"#utility.yul\":980:987   */\n  0x00\n    /* \"#utility.yul\":1020:1062   */\n  0xffffffffffffffffffffffffffffffffffffffff\n    /* \"#utility.yul\":1013:1018   */\n  dup3\n    /* \"#utility.yul\":1009:1063   */\n  and\n    /* \"#utility.yul\":998:1063   */\n  swap1\n  pop\n    /* \"#utility.yul\":943:1069   */\n  swap2\n  swap1\n  pop\n  jump\t// out\n    /* \"#utility.yul\":1198:1315   */\ntag_15:\n    /* \"#utility.yul\":1307:1308   */\n  0x00\n    /* \"#utility.yul\":1304:1305   */\n  dup1\n    /* \"#utility.yul\":1297:1309   */\n  revert\n    /* \"#utility.yul\":1321:1501   */\ntag_11:\n    /* \"#utility.yul\":1423:1476   */\n  tag_31\n    /* \"#utility.yul\":1470:1475   */\n  dup2\n    /* \"#utility.yul\":1423:1476   */\n  tag_23\n  jump\t// in\ntag_31:\n    /* \"#utility.yul\":1416:1421   */\n  dup2\n    /* \"#utility.yul\":1413:1477   */\n  eq\n    /* \"#utility.yul\":1403:1495   */\n  tag_32\n  jumpi\n    /* \"#utility.yul\":1491:1492   */\n  0x00\n    /* \"#utility.yul\":1488:1489   */\n  dup1\n    /* \"#utility.yul\":1481:1493   */\n  revert\n    /* \"#utility.yul\":1403:1495   */\ntag_32:\n    /* \"#utility.yul\":1321:1501   */\n  pop\n  jump\t// out\n    /* \"contracts/Projet_Blockchain/_Entreprise.sol\":94:1598  contract CompanyContract {\r... */\ntag_6:\n  dataSize(sub_0)\n  dup1\n  dataOffset(sub_0)\n  0x00\n  codecopy\n  0x00\n  return\nstop\n\nsub_0: assembly {\n        /* \"contracts/Projet_Blockchain/_Entreprise.sol\":94:1598  contract CompanyContract {\r... */\n      mstore(0x40, 0x80)\n      callvalue\n      dup1\n      iszero\n      tag_1\n      jumpi\n      0x00\n      dup1\n      revert\n    tag_1:\n      pop\n      jumpi(tag_2, lt(calldatasize, 0x04))\n      shr(0xe0, calldataload(0x00))\n      dup1\n      0x2813d19d\n      eq\n      tag_3\n      jumpi\n      dup1\n      0x2a6a48b1\n      eq\n      tag_4\n      jumpi\n      dup1\n      0x6d8b9807\n      eq\n      tag_5\n      jumpi\n      dup1\n      0xbd09555f\n      eq\n      tag_6\n      jumpi\n      dup1\n      0xe113f8d3\n      eq\n      tag_7\n      jumpi\n    tag_2:\n      0x00\n      dup1\n      revert\n        /* \"contracts/Projet_Blockchain/_Entreprise.sol\":844:885  mapping(uint => Company) public companies */\n    tag_3:\n      tag_8\n      0x04\n      dup1\n      calldatasize\n      sub\n      dup2\n      add\n      swap1\n      tag_9\n      swap2\n      swap1\n      tag_10\n      jump\t// in\n    tag_9:\n      tag_11\n      jump\t// in\n    tag_8:\n      mload(0x40)\n      tag_12\n      swap5\n      swap4\n      swap3\n      swap2\n      swap1\n      tag_13\n      jump\t// in\n    tag_12:\n      mload(0x40)\n      dup1\n      swap2\n      sub\n      swap1\n      return\n        /* \"contracts/Projet_Blockchain/_Entreprise.sol\":894:1067  function createCompany(uint _id, string memory _name, string memory _address) public onlyAdminC {\r... */\n    tag_4:\n      tag_14\n      0x04\n      dup1\n      calldatasize\n      sub\n      dup2\n      add\n      swap1\n      tag_15\n      swap2\n      swap1\n      tag_16\n      jump\t// in\n    tag_15:\n      tag_17\n      jump\t// in\n    tag_14:\n      stop\n        /* \"contracts/Projet_Blockchain/_Entreprise.sol\":277:327  EstablishmentContract public establishmentContract */\n    tag_5:\n      tag_18\n      tag_19\n      jump\t// in\n    tag_18:\n      mload(0x40)\n      tag_20\n      swap2\n      swap1\n      tag_21\n      jump\t// in\n    tag_20:\n      mload(0x40)\n      dup1\n      swap2\n      sub\n      swap1\n      return\n        /* \"contracts/Projet_Blockchain/_Entreprise.sol\":1075:1595  function insertEvaluation(uint _companyId, uint _studentId, uint _evaluation) public {\r... */\n    tag_6:\n      tag_22\n      0x04\n      dup1\n      calldatasize\n      sub\n      dup2\n      add\n      swap1\n      tag_23\n      swap2\n      swap1\n      tag_24\n      jump\t// in\n    tag_23:\n      tag_25\n      jump\t// in\n    tag_22:\n      stop\n        /* \"contracts/Projet_Blockchain/_Entreprise.sol\":126:147  address public adminC */\n    tag_7:\n      tag_26\n      tag_27\n      jump\t// in\n    tag_26:\n      mload(0x40)\n      tag_28\n      swap2\n      swap1\n      tag_29\n      jump\t// in\n    tag_28:\n      mload(0x40)\n      dup1\n      swap2\n      sub\n      swap1\n      return\n        /* \"contracts/Projet_Blockchain/_Entreprise.sol\":844:885  mapping(uint => Company) public companies */\n    tag_11:\n      mstore(0x20, 0x02)\n      dup1\n      0x00\n      mstore\n      keccak256(0x00, 0x40)\n      0x00\n      swap2\n      pop\n      swap1\n      pop\n      dup1\n      0x00\n      add\n      sload\n      swap1\n      dup1\n      0x01\n      add\n      dup1\n      sload\n      tag_30\n      swap1\n      tag_31\n      jump\t// in\n    tag_30:\n      dup1\n      0x1f\n      add\n      0x20\n      dup1\n      swap2\n      div\n      mul\n      0x20\n      add\n      mload(0x40)\n      swap1\n      dup2\n      add\n      0x40\n      mstore\n      dup1\n      swap3\n      swap2\n      swap1\n      dup2\n      dup2\n      mstore\n      0x20\n      add\n      dup3\n      dup1\n      sload\n      tag_32\n      swap1\n      tag_31\n      jump\t// in\n    tag_32:\n      dup1\n      iszero\n      tag_33\n      jumpi\n      dup1\n      0x1f\n      lt\n      tag_34\n      jumpi\n      0x0100\n      dup1\n      dup4\n      sload\n      div\n      mul\n      dup4\n      mstore\n      swap2\n      0x20\n      add\n      swap2\n      jump(tag_33)\n    tag_34:\n      dup3\n      add\n      swap2\n      swap1\n      0x00\n      mstore\n      keccak256(0x00, 0x20)\n      swap1\n    tag_35:\n      dup2\n      sload\n      dup2\n      mstore\n      swap1\n      0x01\n      add\n      swap1\n      0x20\n      add\n      dup1\n      dup4\n      gt\n      tag_35\n      jumpi\n      dup3\n      swap1\n      sub\n      0x1f\n      and\n      dup3\n      add\n      swap2\n    tag_33:\n      pop\n      pop\n      pop\n      pop\n      pop\n      swap1\n      dup1\n      0x02\n      add\n      dup1\n      sload\n      tag_36\n      swap1\n      tag_31\n      jump\t// in\n    tag_36:\n      dup1\n      0x1f\n      add\n      0x20\n      dup1\n      swap2\n      div\n      mul\n      0x20\n      add\n      mload(0x40)\n      swap1\n      dup2\n      add\n      0x40\n      mstore\n      dup1\n      swap3\n      swap2\n      swap1\n      dup2\n      dup2\n      mstore\n      0x20\n      add\n      dup3\n      dup1\n      sload\n      tag_37\n      swap1\n      tag_31\n      jump\t// in\n    tag_37:\n      dup1\n      iszero\n      tag_38\n      jumpi\n      dup1\n      0x1f\n      lt\n      tag_39\n      jumpi\n      0x0100\n      dup1\n      dup4\n      sload\n      div\n      mul\n      dup4\n      mstore\n      swap2\n      0x20\n      add\n      swap2\n      jump(tag_38)\n    tag_39:\n      dup3\n      add\n      swap2\n      swap1\n      0x00\n      mstore\n      keccak256(0x00, 0x20)\n      swap1\n    tag_40:\n      dup2\n      sload\n      dup2\n      mstore\n      swap1\n      0x01\n      add\n      swap1\n      0x20\n      add\n      dup1\n      dup4\n      gt\n      tag_40\n      jumpi\n      dup3\n      swap1\n      sub\n      0x1f\n      and\n      dup3\n      add\n      swap2\n    tag_38:\n      pop\n      pop\n      pop\n      pop\n      pop\n      swap1\n      dup1\n      0x03\n      add\n      0x00\n      swap1\n      sload\n      swap1\n      0x0100\n      exp\n      swap1\n      div\n      0xffffffffffffffffffffffffffffffffffffffff\n      and\n      swap1\n      pop\n      dup5\n      jump\t// out\n        /* \"contracts/Projet_Blockchain/_Entreprise.sol\":894:1067  function createCompany(uint _id, string memory _name, string memory _address) public onlyAdminC {\r... */\n    tag_17:\n        /* \"contracts/Projet_Blockchain/_Entreprise.sol\":563:569  adminC */\n      0x00\n      dup1\n      sload\n      swap1\n      0x0100\n      exp\n      swap1\n      div\n      0xffffffffffffffffffffffffffffffffffffffff\n      and\n        /* \"contracts/Projet_Blockchain/_Entreprise.sol\":549:569  msg.sender == adminC */\n      0xffffffffffffffffffffffffffffffffffffffff\n      and\n        /* \"contracts/Projet_Blockchain/_Entreprise.sol\":549:559  msg.sender */\n      caller\n        /* \"contracts/Projet_Blockchain/_Entreprise.sol\":549:569  msg.sender == adminC */\n      0xffffffffffffffffffffffffffffffffffffffff\n      and\n      eq\n        /* \"contracts/Projet_Blockchain/_Entreprise.sol\":541:626  require(msg.sender == adminC, \"Seul l'administrateur peut effectuer cette operation\") */\n      tag_42\n      jumpi\n      mload(0x40)\n      0x08c379a000000000000000000000000000000000000000000000000000000000\n      dup2\n      mstore\n      0x04\n      add\n      tag_43\n      swap1\n      tag_44\n      jump\t// in\n    tag_43:\n      mload(0x40)\n      dup1\n      swap2\n      sub\n      swap1\n      revert\n    tag_42:\n        /* \"contracts/Projet_Blockchain/_Entreprise.sol\":1018:1059  Company(_id, _name, _address, msg.sender) */\n      mload(0x40)\n      dup1\n      0x80\n      add\n      0x40\n      mstore\n      dup1\n        /* \"contracts/Projet_Blockchain/_Entreprise.sol\":1026:1029  _id */\n      dup5\n        /* \"contracts/Projet_Blockchain/_Entreprise.sol\":1018:1059  Company(_id, _name, _address, msg.sender) */\n      dup2\n      mstore\n      0x20\n      add\n        /* \"contracts/Projet_Blockchain/_Entreprise.sol\":1031:1036  _name */\n      dup4\n        /* \"contracts/Projet_Blockchain/_Entreprise.sol\":1018:1059  Company(_id, _name, _address, msg.sender) */\n      dup2\n      mstore\n      0x20\n      add\n        /* \"contracts/Projet_Blockchain/_Entreprise.sol\":1038:1046  _address */\n      dup3\n        /* \"contracts/Projet_Blockchain/_Entreprise.sol\":1018:1059  Company(_id, _name, _address, msg.sender) */\n      dup2\n      mstore\n      0x20\n      add\n        /* \"contracts/Projet_Blockchain/_Entreprise.sol\":1048:1058  msg.sender */\n      caller\n        /* \"contracts/Projet_Blockchain/_Entreprise.sol\":1018:1059  Company(_id, _name, _address, msg.sender) */\n      0xffffffffffffffffffffffffffffffffffffffff\n      and\n      dup2\n      mstore\n      pop\n        /* \"contracts/Projet_Blockchain/_Entreprise.sol\":1001:1010  companies */\n      0x02\n        /* \"contracts/Projet_Blockchain/_Entreprise.sol\":1001:1015  companies[_id] */\n      0x00\n        /* \"contracts/Projet_Blockchain/_Entreprise.sol\":1011:1014  _id */\n      dup6\n        /* \"contracts/Projet_Blockchain/_Entreprise.sol\":1001:1015  companies[_id] */\n      dup2\n      mstore\n      0x20\n      add\n      swap1\n      dup2\n      mstore\n      0x20\n      add\n      0x00\n      keccak256\n        /* \"contracts/Projet_Blockchain/_Entreprise.sol\":1001:1059  companies[_id] = Company(_id, _name, _address, msg.sender) */\n      0x00\n      dup3\n      add\n      mload\n      dup2\n      0x00\n      add\n      sstore\n      0x20\n      dup3\n      add\n      mload\n      dup2\n      0x01\n      add\n      swap1\n      dup1\n      mload\n      swap1\n      0x20\n      add\n      swap1\n      tag_46\n      swap3\n      swap2\n      swap1\n      tag_47\n      jump\t// in\n    tag_46:\n      pop\n      0x40\n      dup3\n      add\n      mload\n      dup2\n      0x02\n      add\n      swap1\n      dup1\n      mload\n      swap1\n      0x20\n      add\n      swap1\n      tag_48\n      swap3\n      swap2\n      swap1\n      tag_47\n      jump\t// in\n    tag_48:\n      pop\n      0x60\n      dup3\n      add\n      mload\n      dup2\n      0x03\n      add\n      exp(0x0100, 0x00)\n      dup2\n      sload\n      dup2\n      0xffffffffffffffffffffffffffffffffffffffff\n      mul\n      not\n      and\n      swap1\n      dup4\n      0xffffffffffffffffffffffffffffffffffffffff\n      and\n      mul\n      or\n      swap1\n      sstore\n      pop\n      swap1\n      pop\n      pop\n        /* \"contracts/Projet_Blockchain/_Entreprise.sol\":894:1067  function createCompany(uint _id, string memory _name, string memory _address) public onlyAdminC {\r... */\n      pop\n      pop\n      pop\n      jump\t// out\n        /* \"contracts/Projet_Blockchain/_Entreprise.sol\":277:327  EstablishmentContract public establishmentContract */\n    tag_19:\n      0x01\n      0x00\n      swap1\n      sload\n      swap1\n      0x0100\n      exp\n      swap1\n      div\n      0xffffffffffffffffffffffffffffffffffffffff\n      and\n      dup2\n      jump\t// out\n        /* \"contracts/Projet_Blockchain/_Entreprise.sol\":1075:1595  function insertEvaluation(uint _companyId, uint _studentId, uint _evaluation) public {\r... */\n    tag_25:\n        /* \"contracts/Projet_Blockchain/_Entreprise.sol\":1171:1194  Company storage company */\n      0x00\n        /* \"contracts/Projet_Blockchain/_Entreprise.sol\":1197:1206  companies */\n      0x02\n        /* \"contracts/Projet_Blockchain/_Entreprise.sol\":1197:1218  companies[_companyId] */\n      0x00\n        /* \"contracts/Projet_Blockchain/_Entreprise.sol\":1207:1217  _companyId */\n      dup6\n        /* \"contracts/Projet_Blockchain/_Entreprise.sol\":1197:1218  companies[_companyId] */\n      dup2\n      mstore\n      0x20\n      add\n      swap1\n      dup2\n      mstore\n      0x20\n      add\n      0x00\n      keccak256\n        /* \"contracts/Projet_Blockchain/_Entreprise.sol\":1171:1218  Company storage company = companies[_companyId] */\n      swap1\n      pop\n        /* \"contracts/Projet_Blockchain/_Entreprise.sol\":1267:1277  msg.sender */\n      caller\n        /* \"contracts/Projet_Blockchain/_Entreprise.sol\":1239:1277  company.recruitmentAgent == msg.sender */\n      0xffffffffffffffffffffffffffffffffffffffff\n      and\n        /* \"contracts/Projet_Blockchain/_Entreprise.sol\":1239:1246  company */\n      dup2\n        /* \"contracts/Projet_Blockchain/_Entreprise.sol\":1239:1263  company.recruitmentAgent */\n      0x03\n      add\n      0x00\n      swap1\n      sload\n      swap1\n      0x0100\n      exp\n      swap1\n      div\n      0xffffffffffffffffffffffffffffffffffffffff\n      and\n        /* \"contracts/Projet_Blockchain/_Entreprise.sol\":1239:1277  company.recruitmentAgent == msg.sender */\n      0xffffffffffffffffffffffffffffffffffffffff\n      and\n      eq\n        /* \"contracts/Projet_Blockchain/_Entreprise.sol\":1231:1337  require(company.recruitmentAgent == msg.sender, \"Seul l'agent de recrutement peut inserer une evaluation\") */\n      tag_50\n      jumpi\n      mload(0x40)\n      0x08c379a000000000000000000000000000000000000000000000000000000000\n      dup2\n      mstore\n      0x04\n      add\n      tag_51\n      swap1\n      tag_52\n      jump\t// in\n    tag_51:\n      mload(0x40)\n      dup1\n      swap2\n      sub\n      swap1\n      revert\n    tag_50:\n        /* \"contracts/Projet_Blockchain/_Entreprise.sol\":1517:1538  establishmentContract */\n      0x01\n      0x00\n      swap1\n      sload\n      swap1\n      0x0100\n      exp\n      swap1\n      div\n      0xffffffffffffffffffffffffffffffffffffffff\n      and\n        /* \"contracts/Projet_Blockchain/_Entreprise.sol\":1517:1562  establishmentContract.updateStudentEvaluation */\n      0xffffffffffffffffffffffffffffffffffffffff\n      and\n      0x645041bf\n        /* \"contracts/Projet_Blockchain/_Entreprise.sol\":1563:1573  _studentId */\n      dup5\n        /* \"contracts/Projet_Blockchain/_Entreprise.sol\":1575:1586  _evaluation */\n      dup5\n        /* \"contracts/Projet_Blockchain/_Entreprise.sol\":1517:1587  establishmentContract.updateStudentEvaluation(_studentId, _evaluation) */\n      mload(0x40)\n      dup4\n      0xffffffff\n      and\n      0xe0\n      shl\n      dup2\n      mstore\n      0x04\n      add\n      tag_53\n      swap3\n      swap2\n      swap1\n      tag_54\n      jump\t// in\n    tag_53:\n      0x00\n      mload(0x40)\n      dup1\n      dup4\n      sub\n      dup2\n      0x00\n      dup8\n      dup1\n      extcodesize\n      iszero\n      dup1\n      iszero\n      tag_55\n      jumpi\n      0x00\n      dup1\n      revert\n    tag_55:\n      pop\n      gas\n      call\n      iszero\n      dup1\n      iszero\n      tag_57\n      jumpi\n      returndatasize\n      0x00\n      dup1\n      returndatacopy\n      revert(0x00, returndatasize)\n    tag_57:\n      pop\n      pop\n      pop\n      pop\n        /* \"contracts/Projet_Blockchain/_Entreprise.sol\":1160:1595  {\r... */\n      pop\n        /* \"contracts/Projet_Blockchain/_Entreprise.sol\":1075:1595  function insertEvaluation(uint _companyId, uint _studentId, uint _evaluation) public {\r... */\n      pop\n      pop\n      pop\n      jump\t// out\n        /* \"contracts/Projet_Blockchain/_Entreprise.sol\":126:147  address public adminC */\n    tag_27:\n      0x00\n      dup1\n      sload\n      swap1\n      0x0100\n      exp\n      swap1\n      div\n      0xffffffffffffffffffffffffffffffffffffffff\n      and\n      dup2\n      jump\t// out\n    tag_47:\n      dup3\n      dup1\n      sload\n      tag_58\n      swap1\n      tag_31\n      jump\t// in\n    tag_58:\n      swap1\n      0x00\n      mstore\n      keccak256(0x00, 0x20)\n      swap1\n      0x1f\n      add\n      0x20\n      swap1\n      div\n      dup2\n      add\n      swap3\n      dup3\n      tag_60\n      jumpi\n      0x00\n      dup6\n      sstore\n      jump(tag_59)\n    tag_60:\n      dup3\n      0x1f\n      lt\n      tag_61\n      jumpi\n      dup1\n      mload\n      not(0xff)\n      and\n      dup4\n      dup1\n      add\n      or\n      dup6\n      sstore\n      jump(tag_59)\n    tag_61:\n      dup3\n      dup1\n      add\n      0x01\n      add\n      dup6\n      sstore\n      dup3\n      iszero\n      tag_59\n      jumpi\n      swap2\n      dup3\n      add\n    tag_62:\n      dup3\n      dup2\n      gt\n      iszero\n      tag_63\n      jumpi\n      dup3\n      mload\n      dup3\n      sstore\n      swap2\n      0x20\n      add\n      swap2\n      swap1\n      0x01\n      add\n      swap1\n      jump(tag_62)\n    tag_63:\n    tag_59:\n      pop\n      swap1\n      pop\n      tag_64\n      swap2\n      swap1\n      tag_65\n      jump\t// in\n    tag_64:\n      pop\n      swap1\n      jump\t// out\n    tag_65:\n    tag_66:\n      dup1\n      dup3\n      gt\n      iszero\n      tag_67\n      jumpi\n      0x00\n      dup2\n      0x00\n      swap1\n      sstore\n      pop\n      0x01\n      add\n      jump(tag_66)\n    tag_67:\n      pop\n      swap1\n      jump\t// out\n        /* \"#utility.yul\":7:419   */\n    tag_69:\n        /* \"#utility.yul\":85:90   */\n      0x00\n        /* \"#utility.yul\":110:176   */\n      tag_71\n        /* \"#utility.yul\":126:175   */\n      tag_72\n        /* \"#utility.yul\":168:174   */\n      dup5\n        /* \"#utility.yul\":126:175   */\n      tag_73\n      jump\t// in\n    tag_72:\n        /* \"#utility.yul\":110:176   */\n      tag_74\n      jump\t// in\n    tag_71:\n        /* \"#utility.yul\":101:176   */\n      swap1\n      pop\n        /* \"#utility.yul\":199:205   */\n      dup3\n        /* \"#utility.yul\":192:197   */\n      dup2\n        /* \"#utility.yul\":185:206   */\n      mstore\n        /* \"#utility.yul\":237:241   */\n      0x20\n        /* \"#utility.yul\":230:235   */\n      dup2\n        /* \"#utility.yul\":226:242   */\n      add\n        /* \"#utility.yul\":275:278   */\n      dup5\n        /* \"#utility.yul\":266:272   */\n      dup5\n        /* \"#utility.yul\":261:264   */\n      dup5\n        /* \"#utility.yul\":257:273   */\n      add\n        /* \"#utility.yul\":254:279   */\n      gt\n        /* \"#utility.yul\":251:363   */\n      iszero\n      tag_75\n      jumpi\n        /* \"#utility.yul\":282:361   */\n      tag_76\n      tag_77\n      jump\t// in\n    tag_76:\n        /* \"#utility.yul\":251:363   */\n    tag_75:\n        /* \"#utility.yul\":372:413   */\n      tag_78\n        /* \"#utility.yul\":406:412   */\n      dup5\n        /* \"#utility.yul\":401:404   */\n      dup3\n        /* \"#utility.yul\":396:399   */\n      dup6\n        /* \"#utility.yul\":372:413   */\n      tag_79\n      jump\t// in\n    tag_78:\n        /* \"#utility.yul\":91:419   */\n      pop\n        /* \"#utility.yul\":7:419   */\n      swap4\n      swap3\n      pop\n      pop\n      pop\n      jump\t// out\n        /* \"#utility.yul\":439:779   */\n    tag_80:\n        /* \"#utility.yul\":495:500   */\n      0x00\n        /* \"#utility.yul\":544:547   */\n      dup3\n        /* \"#utility.yul\":537:541   */\n      0x1f\n        /* \"#utility.yul\":529:535   */\n      dup4\n        /* \"#utility.yul\":525:542   */\n      add\n        /* \"#utility.yul\":521:548   */\n      slt\n        /* \"#utility.yul\":511:633   */\n      tag_82\n      jumpi\n        /* \"#utility.yul\":552:631   */\n      tag_83\n      tag_84\n      jump\t// in\n    tag_83:\n        /* \"#utility.yul\":511:633   */\n    tag_82:\n        /* \"#utility.yul\":669:675   */\n      dup2\n        /* \"#utility.yul\":656:676   */\n      calldataload\n        /* \"#utility.yul\":694:773   */\n      tag_85\n        /* \"#utility.yul\":769:772   */\n      dup5\n        /* \"#utility.yul\":761:767   */\n      dup3\n        /* \"#utility.yul\":754:758   */\n      0x20\n        /* \"#utility.yul\":746:752   */\n      dup7\n        /* \"#utility.yul\":742:759   */\n      add\n        /* \"#utility.yul\":694:773   */\n      tag_69\n      jump\t// in\n    tag_85:\n        /* \"#utility.yul\":685:773   */\n      swap2\n      pop\n        /* \"#utility.yul\":501:779   */\n      pop\n        /* \"#utility.yul\":439:779   */\n      swap3\n      swap2\n      pop\n      pop\n      jump\t// out\n        /* \"#utility.yul\":785:924   */\n    tag_86:\n        /* \"#utility.yul\":831:836   */\n      0x00\n        /* \"#utility.yul\":869:875   */\n      dup2\n        /* \"#utility.yul\":856:876   */\n      calldataload\n        /* \"#utility.yul\":847:876   */\n      swap1\n      pop\n        /* \"#utility.yul\":885:918   */\n      tag_88\n        /* \"#utility.yul\":912:917   */\n      dup2\n        /* \"#utility.yul\":885:918   */\n      tag_89\n      jump\t// in\n    tag_88:\n        /* \"#utility.yul\":785:924   */\n      swap3\n      swap2\n      pop\n      pop\n      jump\t// out\n        /* \"#utility.yul\":930:1259   */\n    tag_10:\n        /* \"#utility.yul\":989:995   */\n      0x00\n        /* \"#utility.yul\":1038:1040   */\n      0x20\n        /* \"#utility.yul\":1026:1035   */\n      dup3\n        /* \"#utility.yul\":1017:1024   */\n      dup5\n        /* \"#utility.yul\":1013:1036   */\n      sub\n        /* \"#utility.yul\":1009:1041   */\n      slt\n        /* \"#utility.yul\":1006:1125   */\n      iszero\n      tag_91\n      jumpi\n        /* \"#utility.yul\":1044:1123   */\n      tag_92\n      tag_93\n      jump\t// in\n    tag_92:\n        /* \"#utility.yul\":1006:1125   */\n    tag_91:\n        /* \"#utility.yul\":1164:1165   */\n      0x00\n        /* \"#utility.yul\":1189:1242   */\n      tag_94\n        /* \"#utility.yul\":1234:1241   */\n      dup5\n        /* \"#utility.yul\":1225:1231   */\n      dup3\n        /* \"#utility.yul\":1214:1223   */\n      dup6\n        /* \"#utility.yul\":1210:1232   */\n      add\n        /* \"#utility.yul\":1189:1242   */\n      tag_86\n      jump\t// in\n    tag_94:\n        /* \"#utility.yul\":1179:1242   */\n      swap2\n      pop\n        /* \"#utility.yul\":1135:1252   */\n      pop\n        /* \"#utility.yul\":930:1259   */\n      swap3\n      swap2\n      pop\n      pop\n      jump\t// out\n        /* \"#utility.yul\":1265:2244   */\n    tag_16:\n        /* \"#utility.yul\":1362:1368   */\n      0x00\n        /* \"#utility.yul\":1370:1376   */\n      dup1\n        /* \"#utility.yul\":1378:1384   */\n      0x00\n        /* \"#utility.yul\":1427:1429   */\n      0x60\n        /* \"#utility.yul\":1415:1424   */\n      dup5\n        /* \"#utility.yul\":1406:1413   */\n      dup7\n        /* \"#utility.yul\":1402:1425   */\n      sub\n        /* \"#utility.yul\":1398:1430   */\n      slt\n        /* \"#utility.yul\":1395:1514   */\n      iszero\n      tag_96\n      jumpi\n        /* \"#utility.yul\":1433:1512   */\n      tag_97\n      tag_93\n      jump\t// in\n    tag_97:\n        /* \"#utility.yul\":1395:1514   */\n    tag_96:\n        /* \"#utility.yul\":1553:1554   */\n      0x00\n        /* \"#utility.yul\":1578:1631   */\n      tag_98\n        /* \"#utility.yul\":1623:1630   */\n      dup7\n        /* \"#utility.yul\":1614:1620   */\n      dup3\n        /* \"#utility.yul\":1603:1612   */\n      dup8\n        /* \"#utility.yul\":1599:1621   */\n      add\n        /* \"#utility.yul\":1578:1631   */\n      tag_86\n      jump\t// in\n    tag_98:\n        /* \"#utility.yul\":1568:1631   */\n      swap4\n      pop\n        /* \"#utility.yul\":1524:1641   */\n      pop\n        /* \"#utility.yul\":1708:1710   */\n      0x20\n        /* \"#utility.yul\":1697:1706   */\n      dup5\n        /* \"#utility.yul\":1693:1711   */\n      add\n        /* \"#utility.yul\":1680:1712   */\n      calldataload\n        /* \"#utility.yul\":1739:1757   */\n      0xffffffffffffffff\n        /* \"#utility.yul\":1731:1737   */\n      dup2\n        /* \"#utility.yul\":1728:1758   */\n      gt\n        /* \"#utility.yul\":1725:1842   */\n      iszero\n      tag_99\n      jumpi\n        /* \"#utility.yul\":1761:1840   */\n      tag_100\n      tag_101\n      jump\t// in\n    tag_100:\n        /* \"#utility.yul\":1725:1842   */\n    tag_99:\n        /* \"#utility.yul\":1866:1929   */\n      tag_102\n        /* \"#utility.yul\":1921:1928   */\n      dup7\n        /* \"#utility.yul\":1912:1918   */\n      dup3\n        /* \"#utility.yul\":1901:1910   */\n      dup8\n        /* \"#utility.yul\":1897:1919   */\n      add\n        /* \"#utility.yul\":1866:1929   */\n      tag_80\n      jump\t// in\n    tag_102:\n        /* \"#utility.yul\":1856:1929   */\n      swap3\n      pop\n        /* \"#utility.yul\":1651:1939   */\n      pop\n        /* \"#utility.yul\":2006:2008   */\n      0x40\n        /* \"#utility.yul\":1995:2004   */\n      dup5\n        /* \"#utility.yul\":1991:2009   */\n      add\n        /* \"#utility.yul\":1978:2010   */\n      calldataload\n        /* \"#utility.yul\":2037:2055   */\n      0xffffffffffffffff\n        /* \"#utility.yul\":2029:2035   */\n      dup2\n        /* \"#utility.yul\":2026:2056   */\n      gt\n        /* \"#utility.yul\":2023:2140   */\n      iszero\n      tag_103\n      jumpi\n        /* \"#utility.yul\":2059:2138   */\n      tag_104\n      tag_101\n      jump\t// in\n    tag_104:\n        /* \"#utility.yul\":2023:2140   */\n    tag_103:\n        /* \"#utility.yul\":2164:2227   */\n      tag_105\n        /* \"#utility.yul\":2219:2226   */\n      dup7\n        /* \"#utility.yul\":2210:2216   */\n      dup3\n        /* \"#utility.yul\":2199:2208   */\n      dup8\n        /* \"#utility.yul\":2195:2217   */\n      add\n        /* \"#utility.yul\":2164:2227   */\n      tag_80\n      jump\t// in\n    tag_105:\n        /* \"#utility.yul\":2154:2227   */\n      swap2\n      pop\n        /* \"#utility.yul\":1949:2237   */\n      pop\n        /* \"#utility.yul\":1265:2244   */\n      swap3\n      pop\n      swap3\n      pop\n      swap3\n      jump\t// out\n        /* \"#utility.yul\":2250:2869   */\n    tag_24:\n        /* \"#utility.yul\":2327:2333   */\n      0x00\n        /* \"#utility.yul\":2335:2341   */\n      dup1\n        /* \"#utility.yul\":2343:2349   */\n      0x00\n        /* \"#utility.yul\":2392:2394   */\n      0x60\n        /* \"#utility.yul\":2380:2389   */\n      dup5\n        /* \"#utility.yul\":2371:2378   */\n      dup7\n        /* \"#utility.yul\":2367:2390   */\n      sub\n        /* \"#utility.yul\":2363:2395   */\n      slt\n        /* \"#utility.yul\":2360:2479   */\n      iszero\n      tag_107\n      jumpi\n        /* \"#utility.yul\":2398:2477   */\n      tag_108\n      tag_93\n      jump\t// in\n    tag_108:\n        /* \"#utility.yul\":2360:2479   */\n    tag_107:\n        /* \"#utility.yul\":2518:2519   */\n      0x00\n        /* \"#utility.yul\":2543:2596   */\n      tag_109\n        /* \"#utility.yul\":2588:2595   */\n      dup7\n        /* \"#utility.yul\":2579:2585   */\n      dup3\n        /* \"#utility.yul\":2568:2577   */\n      dup8\n        /* \"#utility.yul\":2564:2586   */\n      add\n        /* \"#utility.yul\":2543:2596   */\n      tag_86\n      jump\t// in\n    tag_109:\n        /* \"#utility.yul\":2533:2596   */\n      swap4\n      pop\n        /* \"#utility.yul\":2489:2606   */\n      pop\n        /* \"#utility.yul\":2645:2647   */\n      0x20\n        /* \"#utility.yul\":2671:2724   */\n      tag_110\n        /* \"#utility.yul\":2716:2723   */\n      dup7\n        /* \"#utility.yul\":2707:2713   */\n      dup3\n        /* \"#utility.yul\":2696:2705   */\n      dup8\n        /* \"#utility.yul\":2692:2714   */\n      add\n        /* \"#utility.yul\":2671:2724   */\n      tag_86\n      jump\t// in\n    tag_110:\n        /* \"#utility.yul\":2661:2724   */\n      swap3\n      pop\n        /* \"#utility.yul\":2616:2734   */\n      pop\n        /* \"#utility.yul\":2773:2775   */\n      0x40\n        /* \"#utility.yul\":2799:2852   */\n      tag_111\n        /* \"#utility.yul\":2844:2851   */\n      dup7\n        /* \"#utility.yul\":2835:2841   */\n      dup3\n        /* \"#utility.yul\":2824:2833   */\n      dup8\n        /* \"#utility.yul\":2820:2842   */\n      add\n        /* \"#utility.yul\":2799:2852   */\n      tag_86\n      jump\t// in\n    tag_111:\n        /* \"#utility.yul\":2789:2852   */\n      swap2\n      pop\n        /* \"#utility.yul\":2744:2862   */\n      pop\n        /* \"#utility.yul\":2250:2869   */\n      swap3\n      pop\n      swap3\n      pop\n      swap3\n      jump\t// out\n        /* \"#utility.yul\":2875:2993   */\n    tag_112:\n        /* \"#utility.yul\":2962:2986   */\n      tag_114\n        /* \"#utility.yul\":2980:2985   */\n      dup2\n        /* \"#utility.yul\":2962:2986   */\n      tag_115\n      jump\t// in\n    tag_114:\n        /* \"#utility.yul\":2957:2960   */\n      dup3\n        /* \"#utility.yul\":2950:2987   */\n      mstore\n        /* \"#utility.yul\":2875:2993   */\n      pop\n      pop\n      jump\t// out\n        /* \"#utility.yul\":2999:3188   */\n    tag_116:\n        /* \"#utility.yul\":3115:3181   */\n      tag_118\n        /* \"#utility.yul\":3175:3180   */\n      dup2\n        /* \"#utility.yul\":3115:3181   */\n      tag_119\n      jump\t// in\n    tag_118:\n        /* \"#utility.yul\":3110:3113   */\n      dup3\n        /* \"#utility.yul\":3103:3182   */\n      mstore\n        /* \"#utility.yul\":2999:3188   */\n      pop\n      pop\n      jump\t// out\n        /* \"#utility.yul\":3194:3558   */\n    tag_120:\n        /* \"#utility.yul\":3282:3285   */\n      0x00\n        /* \"#utility.yul\":3310:3349   */\n      tag_122\n        /* \"#utility.yul\":3343:3348   */\n      dup3\n        /* \"#utility.yul\":3310:3349   */\n      tag_123\n      jump\t// in\n    tag_122:\n        /* \"#utility.yul\":3365:3436   */\n      tag_124\n        /* \"#utility.yul\":3429:3435   */\n      dup2\n        /* \"#utility.yul\":3424:3427   */\n      dup6\n        /* \"#utility.yul\":3365:3436   */\n      tag_125\n      jump\t// in\n    tag_124:\n        /* \"#utility.yul\":3358:3436   */\n      swap4\n      pop\n        /* \"#utility.yul\":3445:3497   */\n      tag_126\n        /* \"#utility.yul\":3490:3496   */\n      dup2\n        /* \"#utility.yul\":3485:3488   */\n      dup6\n        /* \"#utility.yul\":3478:3482   */\n      0x20\n        /* \"#utility.yul\":3471:3476   */\n      dup7\n        /* \"#utility.yul\":3467:3483   */\n      add\n        /* \"#utility.yul\":3445:3497   */\n      tag_127\n      jump\t// in\n    tag_126:\n        /* \"#utility.yul\":3522:3551   */\n      tag_128\n        /* \"#utility.yul\":3544:3550   */\n      dup2\n        /* \"#utility.yul\":3522:3551   */\n      tag_129\n      jump\t// in\n    tag_128:\n        /* \"#utility.yul\":3517:3520   */\n      dup5\n        /* \"#utility.yul\":3513:3552   */\n      add\n        /* \"#utility.yul\":3506:3552   */\n      swap2\n      pop\n        /* \"#utility.yul\":3286:3558   */\n      pop\n        /* \"#utility.yul\":3194:3558   */\n      swap3\n      swap2\n      pop\n      pop\n      jump\t// out\n        /* \"#utility.yul\":3564:3930   */\n    tag_130:\n        /* \"#utility.yul\":3706:3709   */\n      0x00\n        /* \"#utility.yul\":3727:3794   */\n      tag_132\n        /* \"#utility.yul\":3791:3793   */\n      0x34\n        /* \"#utility.yul\":3786:3789   */\n      dup4\n        /* \"#utility.yul\":3727:3794   */\n      tag_125\n      jump\t// in\n    tag_132:\n        /* \"#utility.yul\":3720:3794   */\n      swap2\n      pop\n        /* \"#utility.yul\":3803:3896   */\n      tag_133\n        /* \"#utility.yul\":3892:3895   */\n      dup3\n        /* \"#utility.yul\":3803:3896   */\n      tag_134\n      jump\t// in\n    tag_133:\n        /* \"#utility.yul\":3921:3923   */\n      0x40\n        /* \"#utility.yul\":3916:3919   */\n      dup3\n        /* \"#utility.yul\":3912:3924   */\n      add\n        /* \"#utility.yul\":3905:3924   */\n      swap1\n      pop\n        /* \"#utility.yul\":3564:3930   */\n      swap2\n      swap1\n      pop\n      jump\t// out\n        /* \"#utility.yul\":3936:4302   */\n    tag_135:\n        /* \"#utility.yul\":4078:4081   */\n      0x00\n        /* \"#utility.yul\":4099:4166   */\n      tag_137\n        /* \"#utility.yul\":4163:4165   */\n      0x37\n        /* \"#utility.yul\":4158:4161   */\n      dup4\n        /* \"#utility.yul\":4099:4166   */\n      tag_125\n      jump\t// in\n    tag_137:\n        /* \"#utility.yul\":4092:4166   */\n      swap2\n      pop\n        /* \"#utility.yul\":4175:4268   */\n      tag_138\n        /* \"#utility.yul\":4264:4267   */\n      dup3\n        /* \"#utility.yul\":4175:4268   */\n      tag_139\n      jump\t// in\n    tag_138:\n        /* \"#utility.yul\":4293:4295   */\n      0x40\n        /* \"#utility.yul\":4288:4291   */\n      dup3\n        /* \"#utility.yul\":4284:4296   */\n      add\n        /* \"#utility.yul\":4277:4296   */\n      swap1\n      pop\n        /* \"#utility.yul\":3936:4302   */\n      swap2\n      swap1\n      pop\n      jump\t// out\n        /* \"#utility.yul\":4308:4426   */\n    tag_140:\n        /* \"#utility.yul\":4395:4419   */\n      tag_142\n        /* \"#utility.yul\":4413:4418   */\n      dup2\n        /* \"#utility.yul\":4395:4419   */\n      tag_143\n      jump\t// in\n    tag_142:\n        /* \"#utility.yul\":4390:4393   */\n      dup3\n        /* \"#utility.yul\":4383:4420   */\n      mstore\n        /* \"#utility.yul\":4308:4426   */\n      pop\n      pop\n      jump\t// out\n        /* \"#utility.yul\":4432:4654   */\n    tag_29:\n        /* \"#utility.yul\":4525:4529   */\n      0x00\n        /* \"#utility.yul\":4563:4565   */\n      0x20\n        /* \"#utility.yul\":4552:4561   */\n      dup3\n        /* \"#utility.yul\":4548:4566   */\n      add\n        /* \"#utility.yul\":4540:4566   */\n      swap1\n      pop\n        /* \"#utility.yul\":4576:4647   */\n      tag_145\n        /* \"#utility.yul\":4644:4645   */\n      0x00\n        /* \"#utility.yul\":4633:4642   */\n      dup4\n        /* \"#utility.yul\":4629:4646   */\n      add\n        /* \"#utility.yul\":4620:4626   */\n      dup5\n        /* \"#utility.yul\":4576:4647   */\n      tag_112\n      jump\t// in\n    tag_145:\n        /* \"#utility.yul\":4432:4654   */\n      swap3\n      swap2\n      pop\n      pop\n      jump\t// out\n        /* \"#utility.yul\":4660:4940   */\n    tag_21:\n        /* \"#utility.yul\":4782:4786   */\n      0x00\n        /* \"#utility.yul\":4820:4822   */\n      0x20\n        /* \"#utility.yul\":4809:4818   */\n      dup3\n        /* \"#utility.yul\":4805:4823   */\n      add\n        /* \"#utility.yul\":4797:4823   */\n      swap1\n      pop\n        /* \"#utility.yul\":4833:4933   */\n      tag_147\n        /* \"#utility.yul\":4930:4931   */\n      0x00\n        /* \"#utility.yul\":4919:4928   */\n      dup4\n        /* \"#utility.yul\":4915:4932   */\n      add\n        /* \"#utility.yul\":4906:4912   */\n      dup5\n        /* \"#utility.yul\":4833:4933   */\n      tag_116\n      jump\t// in\n    tag_147:\n        /* \"#utility.yul\":4660:4940   */\n      swap3\n      swap2\n      pop\n      pop\n      jump\t// out\n        /* \"#utility.yul\":4946:5365   */\n    tag_44:\n        /* \"#utility.yul\":5112:5116   */\n      0x00\n        /* \"#utility.yul\":5150:5152   */\n      0x20\n        /* \"#utility.yul\":5139:5148   */\n      dup3\n        /* \"#utility.yul\":5135:5153   */\n      add\n        /* \"#utility.yul\":5127:5153   */\n      swap1\n      pop\n        /* \"#utility.yul\":5199:5208   */\n      dup2\n        /* \"#utility.yul\":5193:5197   */\n      dup2\n        /* \"#utility.yul\":5189:5209   */\n      sub\n        /* \"#utility.yul\":5185:5186   */\n      0x00\n        /* \"#utility.yul\":5174:5183   */\n      dup4\n        /* \"#utility.yul\":5170:5187   */\n      add\n        /* \"#utility.yul\":5163:5210   */\n      mstore\n        /* \"#utility.yul\":5227:5358   */\n      tag_149\n        /* \"#utility.yul\":5353:5357   */\n      dup2\n        /* \"#utility.yul\":5227:5358   */\n      tag_130\n      jump\t// in\n    tag_149:\n        /* \"#utility.yul\":5219:5358   */\n      swap1\n      pop\n        /* \"#utility.yul\":4946:5365   */\n      swap2\n      swap1\n      pop\n      jump\t// out\n        /* \"#utility.yul\":5371:5790   */\n    tag_52:\n        /* \"#utility.yul\":5537:5541   */\n      0x00\n        /* \"#utility.yul\":5575:5577   */\n      0x20\n        /* \"#utility.yul\":5564:5573   */\n      dup3\n        /* \"#utility.yul\":5560:5578   */\n      add\n        /* \"#utility.yul\":5552:5578   */\n      swap1\n      pop\n        /* \"#utility.yul\":5624:5633   */\n      dup2\n        /* \"#utility.yul\":5618:5622   */\n      dup2\n        /* \"#utility.yul\":5614:5634   */\n      sub\n        /* \"#utility.yul\":5610:5611   */\n      0x00\n        /* \"#utility.yul\":5599:5608   */\n      dup4\n        /* \"#utility.yul\":5595:5612   */\n      add\n        /* \"#utility.yul\":5588:5635   */\n      mstore\n        /* \"#utility.yul\":5652:5783   */\n      tag_151\n        /* \"#utility.yul\":5778:5782   */\n      dup2\n        /* \"#utility.yul\":5652:5783   */\n      tag_135\n      jump\t// in\n    tag_151:\n        /* \"#utility.yul\":5644:5783   */\n      swap1\n      pop\n        /* \"#utility.yul\":5371:5790   */\n      swap2\n      swap1\n      pop\n      jump\t// out\n        /* \"#utility.yul\":5796:6531   */\n    tag_13:\n        /* \"#utility.yul\":6013:6017   */\n      0x00\n        /* \"#utility.yul\":6051:6054   */\n      0x80\n        /* \"#utility.yul\":6040:6049   */\n      dup3\n        /* \"#utility.yul\":6036:6055   */\n      add\n        /* \"#utility.yul\":6028:6055   */\n      swap1\n      pop\n        /* \"#utility.yul\":6065:6136   */\n      tag_153\n        /* \"#utility.yul\":6133:6134   */\n      0x00\n        /* \"#utility.yul\":6122:6131   */\n      dup4\n        /* \"#utility.yul\":6118:6135   */\n      add\n        /* \"#utility.yul\":6109:6115   */\n      dup8\n        /* \"#utility.yul\":6065:6136   */\n      tag_140\n      jump\t// in\n    tag_153:\n        /* \"#utility.yul\":6183:6192   */\n      dup2\n        /* \"#utility.yul\":6177:6181   */\n      dup2\n        /* \"#utility.yul\":6173:6193   */\n      sub\n        /* \"#utility.yul\":6168:6170   */\n      0x20\n        /* \"#utility.yul\":6157:6166   */\n      dup4\n        /* \"#utility.yul\":6153:6171   */\n      add\n        /* \"#utility.yul\":6146:6194   */\n      mstore\n        /* \"#utility.yul\":6211:6289   */\n      tag_154\n        /* \"#utility.yul\":6284:6288   */\n      dup2\n        /* \"#utility.yul\":6275:6281   */\n      dup7\n        /* \"#utility.yul\":6211:6289   */\n      tag_120\n      jump\t// in\n    tag_154:\n        /* \"#utility.yul\":6203:6289   */\n      swap1\n      pop\n        /* \"#utility.yul\":6336:6345   */\n      dup2\n        /* \"#utility.yul\":6330:6334   */\n      dup2\n        /* \"#utility.yul\":6326:6346   */\n      sub\n        /* \"#utility.yul\":6321:6323   */\n      0x40\n        /* \"#utility.yul\":6310:6319   */\n      dup4\n        /* \"#utility.yul\":6306:6324   */\n      add\n        /* \"#utility.yul\":6299:6347   */\n      mstore\n        /* \"#utility.yul\":6364:6442   */\n      tag_155\n        /* \"#utility.yul\":6437:6441   */\n      dup2\n        /* \"#utility.yul\":6428:6434   */\n      dup6\n        /* \"#utility.yul\":6364:6442   */\n      tag_120\n      jump\t// in\n    tag_155:\n        /* \"#utility.yul\":6356:6442   */\n      swap1\n      pop\n        /* \"#utility.yul\":6452:6524   */\n      tag_156\n        /* \"#utility.yul\":6520:6522   */\n      0x60\n        /* \"#utility.yul\":6509:6518   */\n      dup4\n        /* \"#utility.yul\":6505:6523   */\n      add\n        /* \"#utility.yul\":6496:6502   */\n      dup5\n        /* \"#utility.yul\":6452:6524   */\n      tag_112\n      jump\t// in\n    tag_156:\n        /* \"#utility.yul\":5796:6531   */\n      swap6\n      swap5\n      pop\n      pop\n      pop\n      pop\n      pop\n      jump\t// out\n        /* \"#utility.yul\":6537:6869   */\n    tag_54:\n        /* \"#utility.yul\":6658:6662   */\n      0x00\n        /* \"#utility.yul\":6696:6698   */\n      0x40\n        /* \"#utility.yul\":6685:6694   */\n      dup3\n        /* \"#utility.yul\":6681:6699   */\n      add\n        /* \"#utility.yul\":6673:6699   */\n      swap1\n      pop\n        /* \"#utility.yul\":6709:6780   */\n      tag_158\n        /* \"#utility.yul\":6777:6778   */\n      0x00\n        /* \"#utility.yul\":6766:6775   */\n      dup4\n        /* \"#utility.yul\":6762:6779   */\n      add\n        /* \"#utility.yul\":6753:6759   */\n      dup6\n        /* \"#utility.yul\":6709:6780   */\n      tag_140\n      jump\t// in\n    tag_158:\n        /* \"#utility.yul\":6790:6862   */\n      tag_159\n        /* \"#utility.yul\":6858:6860   */\n      0x20\n        /* \"#utility.yul\":6847:6856   */\n      dup4\n        /* \"#utility.yul\":6843:6861   */\n      add\n        /* \"#utility.yul\":6834:6840   */\n      dup5\n        /* \"#utility.yul\":6790:6862   */\n      tag_140\n      jump\t// in\n    tag_159:\n        /* \"#utility.yul\":6537:6869   */\n      swap4\n      swap3\n      pop\n      pop\n      pop\n      jump\t// out\n        /* \"#utility.yul\":6875:7004   */\n    tag_74:\n        /* \"#utility.yul\":6909:6915   */\n      0x00\n        /* \"#utility.yul\":6936:6956   */\n      tag_161\n      tag_162\n      jump\t// in\n    tag_161:\n        /* \"#utility.yul\":6926:6956   */\n      swap1\n      pop\n        /* \"#utility.yul\":6965:6998   */\n      tag_163\n        /* \"#utility.yul\":6993:6997   */\n      dup3\n        /* \"#utility.yul\":6985:6991   */\n      dup3\n        /* \"#utility.yul\":6965:6998   */\n      tag_164\n      jump\t// in\n    tag_163:\n        /* \"#utility.yul\":6875:7004   */\n      swap2\n      swap1\n      pop\n      jump\t// out\n        /* \"#utility.yul\":7010:7085   */\n    tag_162:\n        /* \"#utility.yul\":7043:7049   */\n      0x00\n        /* \"#utility.yul\":7076:7078   */\n      0x40\n        /* \"#utility.yul\":7070:7079   */\n      mload\n        /* \"#utility.yul\":7060:7079   */\n      swap1\n      pop\n        /* \"#utility.yul\":7010:7085   */\n      swap1\n      jump\t// out\n        /* \"#utility.yul\":7091:7399   */\n    tag_73:\n        /* \"#utility.yul\":7153:7157   */\n      0x00\n        /* \"#utility.yul\":7243:7261   */\n      0xffffffffffffffff\n        /* \"#utility.yul\":7235:7241   */\n      dup3\n        /* \"#utility.yul\":7232:7262   */\n      gt\n        /* \"#utility.yul\":7229:7285   */\n      iszero\n      tag_167\n      jumpi\n        /* \"#utility.yul\":7265:7283   */\n      tag_168\n      tag_169\n      jump\t// in\n    tag_168:\n        /* \"#utility.yul\":7229:7285   */\n    tag_167:\n        /* \"#utility.yul\":7303:7332   */\n      tag_170\n        /* \"#utility.yul\":7325:7331   */\n      dup3\n        /* \"#utility.yul\":7303:7332   */\n      tag_129\n      jump\t// in\n    tag_170:\n        /* \"#utility.yul\":7295:7332   */\n      swap1\n      pop\n        /* \"#utility.yul\":7387:7391   */\n      0x20\n        /* \"#utility.yul\":7381:7385   */\n      dup2\n        /* \"#utility.yul\":7377:7392   */\n      add\n        /* \"#utility.yul\":7369:7392   */\n      swap1\n      pop\n        /* \"#utility.yul\":7091:7399   */\n      swap2\n      swap1\n      pop\n      jump\t// out\n        /* \"#utility.yul\":7405:7504   */\n    tag_123:\n        /* \"#utility.yul\":7457:7463   */\n      0x00\n        /* \"#utility.yul\":7491:7496   */\n      dup2\n        /* \"#utility.yul\":7485:7497   */\n      mload\n        /* \"#utility.yul\":7475:7497   */\n      swap1\n      pop\n        /* \"#utility.yul\":7405:7504   */\n      swap2\n      swap1\n      pop\n      jump\t// out\n        /* \"#utility.yul\":7510:7679   */\n    tag_125:\n        /* \"#utility.yul\":7594:7605   */\n      0x00\n        /* \"#utility.yul\":7628:7634   */\n      dup3\n        /* \"#utility.yul\":7623:7626   */\n      dup3\n        /* \"#utility.yul\":7616:7635   */\n      mstore\n        /* \"#utility.yul\":7668:7672   */\n      0x20\n        /* \"#utility.yul\":7663:7666   */\n      dup3\n        /* \"#utility.yul\":7659:7673   */\n      add\n        /* \"#utility.yul\":7644:7673   */\n      swap1\n      pop\n        /* \"#utility.yul\":7510:7679   */\n      swap3\n      swap2\n      pop\n      pop\n      jump\t// out\n        /* \"#utility.yul\":7685:7781   */\n    tag_115:\n        /* \"#utility.yul\":7722:7729   */\n      0x00\n        /* \"#utility.yul\":7751:7775   */\n      tag_174\n        /* \"#utility.yul\":7769:7774   */\n      dup3\n        /* \"#utility.yul\":7751:7775   */\n      tag_175\n      jump\t// in\n    tag_174:\n        /* \"#utility.yul\":7740:7775   */\n      swap1\n      pop\n        /* \"#utility.yul\":7685:7781   */\n      swap2\n      swap1\n      pop\n      jump\t// out\n        /* \"#utility.yul\":7787:7913   */\n    tag_175:\n        /* \"#utility.yul\":7824:7831   */\n      0x00\n        /* \"#utility.yul\":7864:7906   */\n      0xffffffffffffffffffffffffffffffffffffffff\n        /* \"#utility.yul\":7857:7862   */\n      dup3\n        /* \"#utility.yul\":7853:7907   */\n      and\n        /* \"#utility.yul\":7842:7907   */\n      swap1\n      pop\n        /* \"#utility.yul\":7787:7913   */\n      swap2\n      swap1\n      pop\n      jump\t// out\n        /* \"#utility.yul\":7919:7996   */\n    tag_143:\n        /* \"#utility.yul\":7956:7963   */\n      0x00\n        /* \"#utility.yul\":7985:7990   */\n      dup2\n        /* \"#utility.yul\":7974:7990   */\n      swap1\n      pop\n        /* \"#utility.yul\":7919:7996   */\n      swap2\n      swap1\n      pop\n      jump\t// out\n        /* \"#utility.yul\":8002:8157   */\n    tag_119:\n        /* \"#utility.yul\":8081:8090   */\n      0x00\n        /* \"#utility.yul\":8114:8151   */\n      tag_179\n        /* \"#utility.yul\":8145:8150   */\n      dup3\n        /* \"#utility.yul\":8114:8151   */\n      tag_180\n      jump\t// in\n    tag_179:\n        /* \"#utility.yul\":8101:8151   */\n      swap1\n      pop\n        /* \"#utility.yul\":8002:8157   */\n      swap2\n      swap1\n      pop\n      jump\t// out\n        /* \"#utility.yul\":8163:8289   */\n    tag_180:\n        /* \"#utility.yul\":8213:8222   */\n      0x00\n        /* \"#utility.yul\":8246:8283   */\n      tag_182\n        /* \"#utility.yul\":8277:8282   */\n      dup3\n        /* \"#utility.yul\":8246:8283   */\n      tag_183\n      jump\t// in\n    tag_182:\n        /* \"#utility.yul\":8233:8283   */\n      swap1\n      pop\n        /* \"#utility.yul\":8163:8289   */\n      swap2\n      swap1\n      pop\n      jump\t// out\n        /* \"#utility.yul\":8295:8408   */\n    tag_183:\n        /* \"#utility.yul\":8345:8354   */\n      0x00\n        /* \"#utility.yul\":8378:8402   */\n      tag_185\n        /* \"#utility.yul\":8396:8401   */\n      dup3\n        /* \"#utility.yul\":8378:8402   */\n      tag_175\n      jump\t// in\n    tag_185:\n        /* \"#utility.yul\":8365:8402   */\n      swap1\n      pop\n        /* \"#utility.yul\":8295:8408   */\n      swap2\n      swap1\n      pop\n      jump\t// out\n        /* \"#utility.yul\":8414:8568   */\n    tag_79:\n        /* \"#utility.yul\":8498:8504   */\n      dup3\n        /* \"#utility.yul\":8493:8496   */\n      dup2\n        /* \"#utility.yul\":8488:8491   */\n      dup4\n        /* \"#utility.yul\":8475:8505   */\n      calldatacopy\n        /* \"#utility.yul\":8560:8561   */\n      0x00\n        /* \"#utility.yul\":8551:8557   */\n      dup4\n        /* \"#utility.yul\":8546:8549   */\n      dup4\n        /* \"#utility.yul\":8542:8558   */\n      add\n        /* \"#utility.yul\":8535:8562   */\n      mstore\n        /* \"#utility.yul\":8414:8568   */\n      pop\n      pop\n      pop\n      jump\t// out\n        /* \"#utility.yul\":8574:8881   */\n    tag_127:\n        /* \"#utility.yul\":8642:8643   */\n      0x00\n        /* \"#utility.yul\":8652:8765   */\n    tag_188:\n        /* \"#utility.yul\":8666:8672   */\n      dup4\n        /* \"#utility.yul\":8663:8664   */\n      dup2\n        /* \"#utility.yul\":8660:8673   */\n      lt\n        /* \"#utility.yul\":8652:8765   */\n      iszero\n      tag_190\n      jumpi\n        /* \"#utility.yul\":8751:8752   */\n      dup1\n        /* \"#utility.yul\":8746:8749   */\n      dup3\n        /* \"#utility.yul\":8742:8753   */\n      add\n        /* \"#utility.yul\":8736:8754   */\n      mload\n        /* \"#utility.yul\":8732:8733   */\n      dup2\n        /* \"#utility.yul\":8727:8730   */\n      dup5\n        /* \"#utility.yul\":8723:8734   */\n      add\n        /* \"#utility.yul\":8716:8755   */\n      mstore\n        /* \"#utility.yul\":8688:8690   */\n      0x20\n        /* \"#utility.yul\":8685:8686   */\n      dup2\n        /* \"#utility.yul\":8681:8691   */\n      add\n        /* \"#utility.yul\":8676:8691   */\n      swap1\n      pop\n        /* \"#utility.yul\":8652:8765   */\n      jump(tag_188)\n    tag_190:\n        /* \"#utility.yul\":8783:8789   */\n      dup4\n        /* \"#utility.yul\":8780:8781   */\n      dup2\n        /* \"#utility.yul\":8777:8790   */\n      gt\n        /* \"#utility.yul\":8774:8875   */\n      iszero\n      tag_191\n      jumpi\n        /* \"#utility.yul\":8863:8864   */\n      0x00\n        /* \"#utility.yul\":8854:8860   */\n      dup5\n        /* \"#utility.yul\":8849:8852   */\n      dup5\n        /* \"#utility.yul\":8845:8861   */\n      add\n        /* \"#utility.yul\":8838:8865   */\n      mstore\n        /* \"#utility.yul\":8774:8875   */\n    tag_191:\n        /* \"#utility.yul\":8623:8881   */\n      pop\n        /* \"#utility.yul\":8574:8881   */\n      pop\n      pop\n      pop\n      jump\t// out\n        /* \"#utility.yul\":8887:9207   */\n    tag_31:\n        /* \"#utility.yul\":8931:8937   */\n      0x00\n        /* \"#utility.yul\":8968:8969   */\n      0x02\n        /* \"#utility.yul\":8962:8966   */\n      dup3\n        /* \"#utility.yul\":8958:8970   */\n      div\n        /* \"#utility.yul\":8948:8970   */\n      swap1\n      pop\n        /* \"#utility.yul\":9015:9016   */\n      0x01\n        /* \"#utility.yul\":9009:9013   */\n      dup3\n        /* \"#utility.yul\":9005:9017   */\n      and\n        /* \"#utility.yul\":9036:9054   */\n      dup1\n        /* \"#utility.yul\":9026:9107   */\n      tag_193\n      jumpi\n        /* \"#utility.yul\":9092:9096   */\n      0x7f\n        /* \"#utility.yul\":9084:9090   */\n      dup3\n        /* \"#utility.yul\":9080:9097   */\n      and\n        /* \"#utility.yul\":9070:9097   */\n      swap2\n      pop\n        /* \"#utility.yul\":9026:9107   */\n    tag_193:\n        /* \"#utility.yul\":9154:9156   */\n      0x20\n        /* \"#utility.yul\":9146:9152   */\n      dup3\n        /* \"#utility.yul\":9143:9157   */\n      lt\n        /* \"#utility.yul\":9123:9141   */\n      dup2\n        /* \"#utility.yul\":9120:9158   */\n      eq\n        /* \"#utility.yul\":9117:9201   */\n      iszero\n      tag_194\n      jumpi\n        /* \"#utility.yul\":9173:9191   */\n      tag_195\n      tag_196\n      jump\t// in\n    tag_195:\n        /* \"#utility.yul\":9117:9201   */\n    tag_194:\n        /* \"#utility.yul\":8938:9207   */\n      pop\n        /* \"#utility.yul\":8887:9207   */\n      swap2\n      swap1\n      pop\n      jump\t// out\n        /* \"#utility.yul\":9213:9494   */\n    tag_164:\n        /* \"#utility.yul\":9296:9323   */\n      tag_198\n        /* \"#utility.yul\":9318:9322   */\n      dup3\n        /* \"#utility.yul\":9296:9323   */\n      tag_129\n      jump\t// in\n    tag_198:\n        /* \"#utility.yul\":9288:9294   */\n      dup2\n        /* \"#utility.yul\":9284:9324   */\n      add\n        /* \"#utility.yul\":9426:9432   */\n      dup2\n        /* \"#utility.yul\":9414:9424   */\n      dup2\n        /* \"#utility.yul\":9411:9433   */\n      lt\n        /* \"#utility.yul\":9390:9408   */\n      0xffffffffffffffff\n        /* \"#utility.yul\":9378:9388   */\n      dup3\n        /* \"#utility.yul\":9375:9409   */\n      gt\n        /* \"#utility.yul\":9372:9434   */\n      or\n        /* \"#utility.yul\":9369:9457   */\n      iszero\n      tag_199\n      jumpi\n        /* \"#utility.yul\":9437:9455   */\n      tag_200\n      tag_169\n      jump\t// in\n    tag_200:\n        /* \"#utility.yul\":9369:9457   */\n    tag_199:\n        /* \"#utility.yul\":9477:9487   */\n      dup1\n        /* \"#utility.yul\":9473:9475   */\n      0x40\n        /* \"#utility.yul\":9466:9488   */\n      mstore\n        /* \"#utility.yul\":9256:9494   */\n      pop\n        /* \"#utility.yul\":9213:9494   */\n      pop\n      pop\n      jump\t// out\n        /* \"#utility.yul\":9500:9680   */\n    tag_196:\n        /* \"#utility.yul\":9548:9625   */\n      0x4e487b7100000000000000000000000000000000000000000000000000000000\n        /* \"#utility.yul\":9545:9546   */\n      0x00\n        /* \"#utility.yul\":9538:9626   */\n      mstore\n        /* \"#utility.yul\":9645:9649   */\n      0x22\n        /* \"#utility.yul\":9642:9643   */\n      0x04\n        /* \"#utility.yul\":9635:9650   */\n      mstore\n        /* \"#utility.yul\":9669:9673   */\n      0x24\n        /* \"#utility.yul\":9666:9667   */\n      0x00\n        /* \"#utility.yul\":9659:9674   */\n      revert\n        /* \"#utility.yul\":9686:9866   */\n    tag_169:\n        /* \"#utility.yul\":9734:9811   */\n      0x4e487b7100000000000000000000000000000000000000000000000000000000\n        /* \"#utility.yul\":9731:9732   */\n      0x00\n        /* \"#utility.yul\":9724:9812   */\n      mstore\n        /* \"#utility.yul\":9831:9835   */\n      0x41\n        /* \"#utility.yul\":9828:9829   */\n      0x04\n        /* \"#utility.yul\":9821:9836   */\n      mstore\n        /* \"#utility.yul\":9855:9859   */\n      0x24\n        /* \"#utility.yul\":9852:9853   */\n      0x00\n        /* \"#utility.yul\":9845:9860   */\n      revert\n        /* \"#utility.yul\":9872:9989   */\n    tag_84:\n        /* \"#utility.yul\":9981:9982   */\n      0x00\n        /* \"#utility.yul\":9978:9979   */\n      dup1\n        /* \"#utility.yul\":9971:9983   */\n      revert\n        /* \"#utility.yul\":9995:10112   */\n    tag_77:\n        /* \"#utility.yul\":10104:10105   */\n      0x00\n        /* \"#utility.yul\":10101:10102   */\n      dup1\n        /* \"#utility.yul\":10094:10106   */\n      revert\n        /* \"#utility.yul\":10118:10235   */\n    tag_101:\n        /* \"#utility.yul\":10227:10228   */\n      0x00\n        /* \"#utility.yul\":10224:10225   */\n      dup1\n        /* \"#utility.yul\":10217:10229   */\n      revert\n        /* \"#utility.yul\":10241:10358   */\n    tag_93:\n        /* \"#utility.yul\":10350:10351   */\n      0x00\n        /* \"#utility.yul\":10347:10348   */\n      dup1\n        /* \"#utility.yul\":10340:10352   */\n      revert\n        /* \"#utility.yul\":10364:10466   */\n    tag_129:\n        /* \"#utility.yul\":10405:10411   */\n      0x00\n        /* \"#utility.yul\":10456:10458   */\n      0x1f\n        /* \"#utility.yul\":10452:10459   */\n      not\n        /* \"#utility.yul\":10447:10449   */\n      0x1f\n        /* \"#utility.yul\":10440:10445   */\n      dup4\n        /* \"#utility.yul\":10436:10450   */\n      add\n        /* \"#utility.yul\":10432:10460   */\n      and\n        /* \"#utility.yul\":10422:10460   */\n      swap1\n      pop\n        /* \"#utility.yul\":10364:10466   */\n      swap2\n      swap1\n      pop\n      jump\t// out\n        /* \"#utility.yul\":10472:10711   */\n    tag_134:\n        /* \"#utility.yul\":10612:10646   */\n      0x5365756c206c2761646d696e6973747261746575722070657574206566666563\n        /* \"#utility.yul\":10608:10609   */\n      0x00\n        /* \"#utility.yul\":10600:10606   */\n      dup3\n        /* \"#utility.yul\":10596:10610   */\n      add\n        /* \"#utility.yul\":10589:10647   */\n      mstore\n        /* \"#utility.yul\":10681:10703   */\n      0x74756572206365747465206f7065726174696f6e000000000000000000000000\n        /* \"#utility.yul\":10676:10678   */\n      0x20\n        /* \"#utility.yul\":10668:10674   */\n      dup3\n        /* \"#utility.yul\":10664:10679   */\n      add\n        /* \"#utility.yul\":10657:10704   */\n      mstore\n        /* \"#utility.yul\":10472:10711   */\n      pop\n      jump\t// out\n        /* \"#utility.yul\":10717:10959   */\n    tag_139:\n        /* \"#utility.yul\":10857:10891   */\n      0x5365756c206c276167656e7420646520726563727574656d656e742070657574\n        /* \"#utility.yul\":10853:10854   */\n      0x00\n        /* \"#utility.yul\":10845:10851   */\n      dup3\n        /* \"#utility.yul\":10841:10855   */\n      add\n        /* \"#utility.yul\":10834:10892   */\n      mstore\n        /* \"#utility.yul\":10926:10951   */\n      0x20696e736572657220756e65206576616c756174696f6e000000000000000000\n        /* \"#utility.yul\":10921:10923   */\n      0x20\n        /* \"#utility.yul\":10913:10919   */\n      dup3\n        /* \"#utility.yul\":10909:10924   */\n      add\n        /* \"#utility.yul\":10902:10952   */\n      mstore\n        /* \"#utility.yul\":10717:10959   */\n      pop\n      jump\t// out\n        /* \"#utility.yul\":10965:11087   */\n    tag_89:\n        /* \"#utility.yul\":11038:11062   */\n      tag_211\n        /* \"#utility.yul\":11056:11061   */\n      dup2\n        /* \"#utility.yul\":11038:11062   */\n      tag_143\n      jump\t// in\n    tag_211:\n        /* \"#utility.yul\":11031:11036   */\n      dup2\n        /* \"#utility.yul\":11028:11063   */\n      eq\n        /* \"#utility.yul\":11018:11081   */\n      tag_212\n      jumpi\n        /* \"#utility.yul\":11077:11078   */\n      0x00\n        /* \"#utility.yul\":11074:11075   */\n      dup1\n        /* \"#utility.yul\":11067:11079   */\n      revert\n        /* \"#utility.yul\":11018:11081   */\n    tag_212:\n        /* \"#utility.yul\":10965:11087   */\n      pop\n      jump\t// out\n\n    auxdata: 0xa2646970667358221220c80238ccb2597653bfc448fb33a116606b9c8c535d1e86199d8eafe6e0f725d464736f6c63430008070033\n}\n",
				"bytecode": {
					"linkReferences": {},
					"object": "608060405234801561001057600080fd5b50604051610d88380380610d88833981810160405281019061003291906100ce565b336000806101000a81548173ffffffffffffffffffffffffffffffffffffffff021916908373ffffffffffffffffffffffffffffffffffffffff16021790555080600160006101000a81548173ffffffffffffffffffffffffffffffffffffffff021916908373ffffffffffffffffffffffffffffffffffffffff1602179055505061015b565b6000815190506100c881610144565b92915050565b6000602082840312156100e4576100e361013f565b5b60006100f2848285016100b9565b91505092915050565b60006101068261011f565b9050919050565b6000610118826100fb565b9050919050565b600073ffffffffffffffffffffffffffffffffffffffff82169050919050565b600080fd5b61014d8161010d565b811461015857600080fd5b50565b610c1e8061016a6000396000f3fe608060405234801561001057600080fd5b50600436106100575760003560e01c80632813d19d1461005c5780632a6a48b11461008f5780636d8b9807146100ab578063bd09555f146100c9578063e113f8d3146100e5575b600080fd5b6100766004803603810190610071919061067e565b610103565b60405161008694939291906108ab565b60405180910390f35b6100a960048036038101906100a491906106ab565b610263565b005b6100b36103ce565b6040516100c09190610850565b60405180910390f35b6100e360048036038101906100de9190610736565b6103f4565b005b6100ed610532565b6040516100fa9190610835565b60405180910390f35b600260205280600052604060002060009150905080600001549080600101805461012c90610a4d565b80601f016020809104026020016040519081016040528092919081815260200182805461015890610a4d565b80156101a55780601f1061017a576101008083540402835291602001916101a5565b820191906000526020600020905b81548152906001019060200180831161018857829003601f168201915b5050505050908060020180546101ba90610a4d565b80601f01602080910402602001604051908101604052809291908181526020018280546101e690610a4d565b80156102335780601f1061020857610100808354040283529160200191610233565b820191906000526020600020905b81548152906001019060200180831161021657829003601f168201915b5050505050908060030160009054906101000a900473ffffffffffffffffffffffffffffffffffffffff16905084565b60008054906101000a900473ffffffffffffffffffffffffffffffffffffffff1673ffffffffffffffffffffffffffffffffffffffff163373ffffffffffffffffffffffffffffffffffffffff16146102f1576040517f08c379a00000000000000000000000000000000000000000000000000000000081526004016102e89061086b565b60405180910390fd5b60405180608001604052808481526020018381526020018281526020013373ffffffffffffffffffffffffffffffffffffffff1681525060026000858152602001908152602001600020600082015181600001556020820151816001019080519060200190610361929190610556565b50604082015181600201908051906020019061037e929190610556565b5060608201518160030160006101000a81548173ffffffffffffffffffffffffffffffffffffffff021916908373ffffffffffffffffffffffffffffffffffffffff160217905550905050505050565b600160009054906101000a900473ffffffffffffffffffffffffffffffffffffffff1681565b60006002600085815260200190815260200160002090503373ffffffffffffffffffffffffffffffffffffffff168160030160009054906101000a900473ffffffffffffffffffffffffffffffffffffffff1673ffffffffffffffffffffffffffffffffffffffff161461049d576040517f08c379a00000000000000000000000000000000000000000000000000000000081526004016104949061088b565b60405180910390fd5b600160009054906101000a900473ffffffffffffffffffffffffffffffffffffffff1673ffffffffffffffffffffffffffffffffffffffff1663645041bf84846040518363ffffffff1660e01b81526004016104fa9291906108fe565b600060405180830381600087803b15801561051457600080fd5b505af1158015610528573d6000803e3d6000fd5b5050505050505050565b60008054906101000a900473ffffffffffffffffffffffffffffffffffffffff1681565b82805461056290610a4d565b90600052602060002090601f01602090048101928261058457600085556105cb565b82601f1061059d57805160ff19168380011785556105cb565b828001600101855582156105cb579182015b828111156105ca5782518255916020019190600101906105af565b5b5090506105d891906105dc565b5090565b5b808211156105f55760008160009055506001016105dd565b5090565b600061060c6106078461094c565b610927565b90508281526020810184848401111561062857610627610b13565b5b610633848285610a0b565b509392505050565b600082601f8301126106505761064f610b0e565b5b81356106608482602086016105f9565b91505092915050565b60008135905061067881610bd1565b92915050565b60006020828403121561069457610693610b1d565b5b60006106a284828501610669565b91505092915050565b6000806000606084860312156106c4576106c3610b1d565b5b60006106d286828701610669565b935050602084013567ffffffffffffffff8111156106f3576106f2610b18565b5b6106ff8682870161063b565b925050604084013567ffffffffffffffff8111156107205761071f610b18565b5b61072c8682870161063b565b9150509250925092565b60008060006060848603121561074f5761074e610b1d565b5b600061075d86828701610669565b935050602061076e86828701610669565b925050604061077f86828701610669565b9150509250925092565b61079281610999565b82525050565b6107a1816109d5565b82525050565b60006107b28261097d565b6107bc8185610988565b93506107cc818560208601610a1a565b6107d581610b22565b840191505092915050565b60006107ed603483610988565b91506107f882610b33565b604082019050919050565b6000610810603783610988565b915061081b82610b82565b604082019050919050565b61082f816109cb565b82525050565b600060208201905061084a6000830184610789565b92915050565b60006020820190506108656000830184610798565b92915050565b60006020820190508181036000830152610884816107e0565b9050919050565b600060208201905081810360008301526108a481610803565b9050919050565b60006080820190506108c06000830187610826565b81810360208301526108d281866107a7565b905081810360408301526108e681856107a7565b90506108f56060830184610789565b95945050505050565b60006040820190506109136000830185610826565b6109206020830184610826565b9392505050565b6000610931610942565b905061093d8282610a7f565b919050565b6000604051905090565b600067ffffffffffffffff82111561096757610966610adf565b5b61097082610b22565b9050602081019050919050565b600081519050919050565b600082825260208201905092915050565b60006109a4826109ab565b9050919050565b600073ffffffffffffffffffffffffffffffffffffffff82169050919050565b6000819050919050565b60006109e0826109e7565b9050919050565b60006109f2826109f9565b9050919050565b6000610a04826109ab565b9050919050565b82818337600083830152505050565b60005b83811015610a38578082015181840152602081019050610a1d565b83811115610a47576000848401525b50505050565b60006002820490506001821680610a6557607f821691505b60208210811415610a7957610a78610ab0565b5b50919050565b610a8882610b22565b810181811067ffffffffffffffff82111715610aa757610aa6610adf565b5b80604052505050565b7f4e487b7100000000000000000000000000000000000000000000000000000000600052602260045260246000fd5b7f4e487b7100000000000000000000000000000000000000000000000000000000600052604160045260246000fd5b600080fd5b600080fd5b600080fd5b600080fd5b6000601f19601f8301169050919050565b7f5365756c206c2761646d696e697374726174657572207065757420656666656360008201527f74756572206365747465206f7065726174696f6e000000000000000000000000602082015250565b7f5365756c206c276167656e7420646520726563727574656d656e74207065757460008201527f20696e736572657220756e65206576616c756174696f6e000000000000000000602082015250565b610bda816109cb565b8114610be557600080fd5b5056fea2646970667358221220c80238ccb2597653bfc448fb33a116606b9c8c535d1e86199d8eafe6e0f725d464736f6c63430008070033",
					"opcodes": "PUSH1 0x80 PUSH1 0x40 MSTORE CALLVALUE DUP1 ISZERO PUSH2 0x10 JUMPI PUSH1 0x0 DUP1 REVERT JUMPDEST POP PUSH1 0x40 MLOAD PUSH2 0xD88 CODESIZE SUB DUP1 PUSH2 0xD88 DUP4 CODECOPY DUP2 DUP2 ADD PUSH1 0x40 MSTORE DUP2 ADD SWAP1 PUSH2 0x32 SWAP2 SWAP1 PUSH2 0xCE JUMP JUMPDEST CALLER PUSH1 0x0 DUP1 PUSH2 0x100 EXP DUP2 SLOAD DUP2 PUSH20 0xFFFFFFFFFFFFFFFFFFFFFFFFFFFFFFFFFFFFFFFF MUL NOT AND SWAP1 DUP4 PUSH20 0xFFFFFFFFFFFFFFFFFFFFFFFFFFFFFFFFFFFFFFFF AND MUL OR SWAP1 SSTORE POP DUP1 PUSH1 0x1 PUSH1 0x0 PUSH2 0x100 EXP DUP2 SLOAD DUP2 PUSH20 0xFFFFFFFFFFFFFFFFFFFFFFFFFFFFFFFFFFFFFFFF MUL NOT AND SWAP1 DUP4 PUSH20 0xFFFFFFFFFFFFFFFFFFFFFFFFFFFFFFFFFFFFFFFF AND MUL OR SWAP1 SSTORE POP POP PUSH2 0x15B JUMP JUMPDEST PUSH1 0x0 DUP2 MLOAD SWAP1 POP PUSH2 0xC8 DUP2 PUSH2 0x144 JUMP JUMPDEST SWAP3 SWAP2 POP POP JUMP JUMPDEST PUSH1 0x0 PUSH1 0x20 DUP3 DUP5 SUB SLT ISZERO PUSH2 0xE4 JUMPI PUSH2 0xE3 PUSH2 0x13F JUMP JUMPDEST JUMPDEST PUSH1 0x0 PUSH2 0xF2 DUP5 DUP3 DUP6 ADD PUSH2 0xB9 JUMP JUMPDEST SWAP2 POP POP SWAP3 SWAP2 POP POP JUMP JUMPDEST PUSH1 0x0 PUSH2 0x106 DUP3 PUSH2 0x11F JUMP JUMPDEST SWAP1 POP SWAP2 SWAP1 POP JUMP JUMPDEST PUSH1 0x0 PUSH2 0x118 DUP3 PUSH2 0xFB JUMP JUMPDEST SWAP1 POP SWAP2 SWAP1 POP JUMP JUMPDEST PUSH1 0x0 PUSH20 0xFFFFFFFFFFFFFFFFFFFFFFFFFFFFFFFFFFFFFFFF DUP3 AND SWAP1 POP SWAP2 SWAP1 POP JUMP JUMPDEST PUSH1 0x0 DUP1 REVERT JUMPDEST PUSH2 0x14D DUP2 PUSH2 0x10D JUMP JUMPDEST DUP2 EQ PUSH2 0x158 JUMPI PUSH1 0x0 DUP1 REVERT JUMPDEST POP JUMP JUMPDEST PUSH2 0xC1E DUP1 PUSH2 0x16A PUSH1 0x0 CODECOPY PUSH1 0x0 RETURN INVALID PUSH1 0x80 PUSH1 0x40 MSTORE CALLVALUE DUP1 ISZERO PUSH2 0x10 JUMPI PUSH1 0x0 DUP1 REVERT JUMPDEST POP PUSH1 0x4 CALLDATASIZE LT PUSH2 0x57 JUMPI PUSH1 0x0 CALLDATALOAD PUSH1 0xE0 SHR DUP1 PUSH4 0x2813D19D EQ PUSH2 0x5C JUMPI DUP1 PUSH4 0x2A6A48B1 EQ PUSH2 0x8F JUMPI DUP1 PUSH4 0x6D8B9807 EQ PUSH2 0xAB JUMPI DUP1 PUSH4 0xBD09555F EQ PUSH2 0xC9 JUMPI DUP1 PUSH4 0xE113F8D3 EQ PUSH2 0xE5 JUMPI JUMPDEST PUSH1 0x0 DUP1 REVERT JUMPDEST PUSH2 0x76 PUSH1 0x4 DUP1 CALLDATASIZE SUB DUP2 ADD SWAP1 PUSH2 0x71 SWAP2 SWAP1 PUSH2 0x67E JUMP JUMPDEST PUSH2 0x103 JUMP JUMPDEST PUSH1 0x40 MLOAD PUSH2 0x86 SWAP5 SWAP4 SWAP3 SWAP2 SWAP1 PUSH2 0x8AB JUMP JUMPDEST PUSH1 0x40 MLOAD DUP1 SWAP2 SUB SWAP1 RETURN JUMPDEST PUSH2 0xA9 PUSH1 0x4 DUP1 CALLDATASIZE SUB DUP2 ADD SWAP1 PUSH2 0xA4 SWAP2 SWAP1 PUSH2 0x6AB JUMP JUMPDEST PUSH2 0x263 JUMP JUMPDEST STOP JUMPDEST PUSH2 0xB3 PUSH2 0x3CE JUMP JUMPDEST PUSH1 0x40 MLOAD PUSH2 0xC0 SWAP2 SWAP1 PUSH2 0x850 JUMP JUMPDEST PUSH1 0x40 MLOAD DUP1 SWAP2 SUB SWAP1 RETURN JUMPDEST PUSH2 0xE3 PUSH1 0x4 DUP1 CALLDATASIZE SUB DUP2 ADD SWAP1 PUSH2 0xDE SWAP2 SWAP1 PUSH2 0x736 JUMP JUMPDEST PUSH2 0x3F4 JUMP JUMPDEST STOP JUMPDEST PUSH2 0xED PUSH2 0x532 JUMP JUMPDEST PUSH1 0x40 MLOAD PUSH2 0xFA SWAP2 SWAP1 PUSH2 0x835 JUMP JUMPDEST PUSH1 0x40 MLOAD DUP1 SWAP2 SUB SWAP1 RETURN JUMPDEST PUSH1 0x2 PUSH1 0x20 MSTORE DUP1 PUSH1 0x0 MSTORE PUSH1 0x40 PUSH1 0x0 KECCAK256 PUSH1 0x0 SWAP2 POP SWAP1 POP DUP1 PUSH1 0x0 ADD SLOAD SWAP1 DUP1 PUSH1 0x1 ADD DUP1 SLOAD PUSH2 0x12C SWAP1 PUSH2 0xA4D JUMP JUMPDEST DUP1 PUSH1 0x1F ADD PUSH1 0x20 DUP1 SWAP2 DIV MUL PUSH1 0x20 ADD PUSH1 0x40 MLOAD SWAP1 DUP2 ADD PUSH1 0x40 MSTORE DUP1 SWAP3 SWAP2 SWAP1 DUP2 DUP2 MSTORE PUSH1 0x20 ADD DUP3 DUP1 SLOAD PUSH2 0x158 SWAP1 PUSH2 0xA4D JUMP JUMPDEST DUP1 ISZERO PUSH2 0x1A5 JUMPI DUP1 PUSH1 0x1F LT PUSH2 0x17A JUMPI PUSH2 0x100 DUP1 DUP4 SLOAD DIV MUL DUP4 MSTORE SWAP2 PUSH1 0x20 ADD SWAP2 PUSH2 0x1A5 JUMP JUMPDEST DUP3 ADD SWAP2 SWAP1 PUSH1 0x0 MSTORE PUSH1 0x20 PUSH1 0x0 KECCAK256 SWAP1 JUMPDEST DUP2 SLOAD DUP2 MSTORE SWAP1 PUSH1 0x1 ADD SWAP1 PUSH1 0x20 ADD DUP1 DUP4 GT PUSH2 0x188 JUMPI DUP3 SWAP1 SUB PUSH1 0x1F AND DUP3 ADD SWAP2 JUMPDEST POP POP POP POP POP SWAP1 DUP1 PUSH1 0x2 ADD DUP1 SLOAD PUSH2 0x1BA SWAP1 PUSH2 0xA4D JUMP JUMPDEST DUP1 PUSH1 0x1F ADD PUSH1 0x20 DUP1 SWAP2 DIV MUL PUSH1 0x20 ADD PUSH1 0x40 MLOAD SWAP1 DUP2 ADD PUSH1 0x40 MSTORE DUP1 SWAP3 SWAP2 SWAP1 DUP2 DUP2 MSTORE PUSH1 0x20 ADD DUP3 DUP1 SLOAD PUSH2 0x1E6 SWAP1 PUSH2 0xA4D JUMP JUMPDEST DUP1 ISZERO PUSH2 0x233 JUMPI DUP1 PUSH1 0x1F LT PUSH2 0x208 JUMPI PUSH2 0x100 DUP1 DUP4 SLOAD DIV MUL DUP4 MSTORE SWAP2 PUSH1 0x20 ADD SWAP2 PUSH2 0x233 JUMP JUMPDEST DUP3 ADD SWAP2 SWAP1 PUSH1 0x0 MSTORE PUSH1 0x20 PUSH1 0x0 KECCAK256 SWAP1 JUMPDEST DUP2 SLOAD DUP2 MSTORE SWAP1 PUSH1 0x1 ADD SWAP1 PUSH1 0x20 ADD DUP1 DUP4 GT PUSH2 0x216 JUMPI DUP3 SWAP1 SUB PUSH1 0x1F AND DUP3 ADD SWAP2 JUMPDEST POP POP POP POP POP SWAP1 DUP1 PUSH1 0x3 ADD PUSH1 0x0 SWAP1 SLOAD SWAP1 PUSH2 0x100 EXP SWAP1 DIV PUSH20 0xFFFFFFFFFFFFFFFFFFFFFFFFFFFFFFFFFFFFFFFF AND SWAP1 POP DUP5 JUMP JUMPDEST PUSH1 0x0 DUP1 SLOAD SWAP1 PUSH2 0x100 EXP SWAP1 DIV PUSH20 0xFFFFFFFFFFFFFFFFFFFFFFFFFFFFFFFFFFFFFFFF AND PUSH20 0xFFFFFFFFFFFFFFFFFFFFFFFFFFFFFFFFFFFFFFFF AND CALLER PUSH20 0xFFFFFFFFFFFFFFFFFFFFFFFFFFFFFFFFFFFFFFFF AND EQ PUSH2 0x2F1 JUMPI PUSH1 0x40 MLOAD PUSH32 0x8C379A000000000000000000000000000000000000000000000000000000000 DUP2 MSTORE PUSH1 0x4 ADD PUSH2 0x2E8 SWAP1 PUSH2 0x86B JUMP JUMPDEST PUSH1 0x40 MLOAD DUP1 SWAP2 SUB SWAP1 REVERT JUMPDEST PUSH1 0x40 MLOAD DUP1 PUSH1 0x80 ADD PUSH1 0x40 MSTORE DUP1 DUP5 DUP2 MSTORE PUSH1 0x20 ADD DUP4 DUP2 MSTORE PUSH1 0x20 ADD DUP3 DUP2 MSTORE PUSH1 0x20 ADD CALLER PUSH20 0xFFFFFFFFFFFFFFFFFFFFFFFFFFFFFFFFFFFFFFFF AND DUP2 MSTORE POP PUSH1 0x2 PUSH1 0x0 DUP6 DUP2 MSTORE PUSH1 0x20 ADD SWAP1 DUP2 MSTORE PUSH1 0x20 ADD PUSH1 0x0 KECCAK256 PUSH1 0x0 DUP3 ADD MLOAD DUP2 PUSH1 0x0 ADD SSTORE PUSH1 0x20 DUP3 ADD MLOAD DUP2 PUSH1 0x1 ADD SWAP1 DUP1 MLOAD SWAP1 PUSH1 0x20 ADD SWAP1 PUSH2 0x361 SWAP3 SWAP2 SWAP1 PUSH2 0x556 JUMP JUMPDEST POP PUSH1 0x40 DUP3 ADD MLOAD DUP2 PUSH1 0x2 ADD SWAP1 DUP1 MLOAD SWAP1 PUSH1 0x20 ADD SWAP1 PUSH2 0x37E SWAP3 SWAP2 SWAP1 PUSH2 0x556 JUMP JUMPDEST POP PUSH1 0x60 DUP3 ADD MLOAD DUP2 PUSH1 0x3 ADD PUSH1 0x0 PUSH2 0x100 EXP DUP2 SLOAD DUP2 PUSH20 0xFFFFFFFFFFFFFFFFFFFFFFFFFFFFFFFFFFFFFFFF MUL NOT AND SWAP1 DUP4 PUSH20 0xFFFFFFFFFFFFFFFFFFFFFFFFFFFFFFFFFFFFFFFF AND MUL OR SWAP1 SSTORE POP SWAP1 POP POP POP POP POP JUMP JUMPDEST PUSH1 0x1 PUSH1 0x0 SWAP1 SLOAD SWAP1 PUSH2 0x100 EXP SWAP1 DIV PUSH20 0xFFFFFFFFFFFFFFFFFFFFFFFFFFFFFFFFFFFFFFFF AND DUP2 JUMP JUMPDEST PUSH1 0x0 PUSH1 0x2 PUSH1 0x0 DUP6 DUP2 MSTORE PUSH1 0x20 ADD SWAP1 DUP2 MSTORE PUSH1 0x20 ADD PUSH1 0x0 KECCAK256 SWAP1 POP CALLER PUSH20 0xFFFFFFFFFFFFFFFFFFFFFFFFFFFFFFFFFFFFFFFF AND DUP2 PUSH1 0x3 ADD PUSH1 0x0 SWAP1 SLOAD SWAP1 PUSH2 0x100 EXP SWAP1 DIV PUSH20 0xFFFFFFFFFFFFFFFFFFFFFFFFFFFFFFFFFFFFFFFF AND PUSH20 0xFFFFFFFFFFFFFFFFFFFFFFFFFFFFFFFFFFFFFFFF AND EQ PUSH2 0x49D JUMPI PUSH1 0x40 MLOAD PUSH32 0x8C379A000000000000000000000000000000000000000000000000000000000 DUP2 MSTORE PUSH1 0x4 ADD PUSH2 0x494 SWAP1 PUSH2 0x88B JUMP JUMPDEST PUSH1 0x40 MLOAD DUP1 SWAP2 SUB SWAP1 REVERT JUMPDEST PUSH1 0x1 PUSH1 0x0 SWAP1 SLOAD SWAP1 PUSH2 0x100 EXP SWAP1 DIV PUSH20 0xFFFFFFFFFFFFFFFFFFFFFFFFFFFFFFFFFFFFFFFF AND PUSH20 0xFFFFFFFFFFFFFFFFFFFFFFFFFFFFFFFFFFFFFFFF AND PUSH4 0x645041BF DUP5 DUP5 PUSH1 0x40 MLOAD DUP4 PUSH4 0xFFFFFFFF AND PUSH1 0xE0 SHL DUP2 MSTORE PUSH1 0x4 ADD PUSH2 0x4FA SWAP3 SWAP2 SWAP1 PUSH2 0x8FE JUMP JUMPDEST PUSH1 0x0 PUSH1 0x40 MLOAD DUP1 DUP4 SUB DUP2 PUSH1 0x0 DUP8 DUP1 EXTCODESIZE ISZERO DUP1 ISZERO PUSH2 0x514 JUMPI PUSH1 0x0 DUP1 REVERT JUMPDEST POP GAS CALL ISZERO DUP1 ISZERO PUSH2 0x528 JUMPI RETURNDATASIZE PUSH1 0x0 DUP1 RETURNDATACOPY RETURNDATASIZE PUSH1 0x0 REVERT JUMPDEST POP POP POP POP POP POP POP POP JUMP JUMPDEST PUSH1 0x0 DUP1 SLOAD SWAP1 PUSH2 0x100 EXP SWAP1 DIV PUSH20 0xFFFFFFFFFFFFFFFFFFFFFFFFFFFFFFFFFFFFFFFF AND DUP2 JUMP JUMPDEST DUP3 DUP1 SLOAD PUSH2 0x562 SWAP1 PUSH2 0xA4D JUMP JUMPDEST SWAP1 PUSH1 0x0 MSTORE PUSH1 0x20 PUSH1 0x0 KECCAK256 SWAP1 PUSH1 0x1F ADD PUSH1 0x20 SWAP1 DIV DUP2 ADD SWAP3 DUP3 PUSH2 0x584 JUMPI PUSH1 0x0 DUP6 SSTORE PUSH2 0x5CB JUMP JUMPDEST DUP3 PUSH1 0x1F LT PUSH2 0x59D JUMPI DUP1 MLOAD PUSH1 0xFF NOT AND DUP4 DUP1 ADD OR DUP6 SSTORE PUSH2 0x5CB JUMP JUMPDEST DUP3 DUP1 ADD PUSH1 0x1 ADD DUP6 SSTORE DUP3 ISZERO PUSH2 0x5CB JUMPI SWAP2 DUP3 ADD JUMPDEST DUP3 DUP2 GT ISZERO PUSH2 0x5CA JUMPI DUP3 MLOAD DUP3 SSTORE SWAP2 PUSH1 0x20 ADD SWAP2 SWAP1 PUSH1 0x1 ADD SWAP1 PUSH2 0x5AF JUMP JUMPDEST JUMPDEST POP SWAP1 POP PUSH2 0x5D8 SWAP2 SWAP1 PUSH2 0x5DC JUMP JUMPDEST POP SWAP1 JUMP JUMPDEST JUMPDEST DUP1 DUP3 GT ISZERO PUSH2 0x5F5 JUMPI PUSH1 0x0 DUP2 PUSH1 0x0 SWAP1 SSTORE POP PUSH1 0x1 ADD PUSH2 0x5DD JUMP JUMPDEST POP SWAP1 JUMP JUMPDEST PUSH1 0x0 PUSH2 0x60C PUSH2 0x607 DUP5 PUSH2 0x94C JUMP JUMPDEST PUSH2 0x927 JUMP JUMPDEST SWAP1 POP DUP3 DUP2 MSTORE PUSH1 0x20 DUP2 ADD DUP5 DUP5 DUP5 ADD GT ISZERO PUSH2 0x628 JUMPI PUSH2 0x627 PUSH2 0xB13 JUMP JUMPDEST JUMPDEST PUSH2 0x633 DUP5 DUP3 DUP6 PUSH2 0xA0B JUMP JUMPDEST POP SWAP4 SWAP3 POP POP POP JUMP JUMPDEST PUSH1 0x0 DUP3 PUSH1 0x1F DUP4 ADD SLT PUSH2 0x650 JUMPI PUSH2 0x64F PUSH2 0xB0E JUMP JUMPDEST JUMPDEST DUP2 CALLDATALOAD PUSH2 0x660 DUP5 DUP3 PUSH1 0x20 DUP7 ADD PUSH2 0x5F9 JUMP JUMPDEST SWAP2 POP POP SWAP3 SWAP2 POP POP JUMP JUMPDEST PUSH1 0x0 DUP2 CALLDATALOAD SWAP1 POP PUSH2 0x678 DUP2 PUSH2 0xBD1 JUMP JUMPDEST SWAP3 SWAP2 POP POP JUMP JUMPDEST PUSH1 0x0 PUSH1 0x20 DUP3 DUP5 SUB SLT ISZERO PUSH2 0x694 JUMPI PUSH2 0x693 PUSH2 0xB1D JUMP JUMPDEST JUMPDEST PUSH1 0x0 PUSH2 0x6A2 DUP5 DUP3 DUP6 ADD PUSH2 0x669 JUMP JUMPDEST SWAP2 POP POP SWAP3 SWAP2 POP POP JUMP JUMPDEST PUSH1 0x0 DUP1 PUSH1 0x0 PUSH1 0x60 DUP5 DUP7 SUB SLT ISZERO PUSH2 0x6C4 JUMPI PUSH2 0x6C3 PUSH2 0xB1D JUMP JUMPDEST JUMPDEST PUSH1 0x0 PUSH2 0x6D2 DUP7 DUP3 DUP8 ADD PUSH2 0x669 JUMP JUMPDEST SWAP4 POP POP PUSH1 0x20 DUP5 ADD CALLDATALOAD PUSH8 0xFFFFFFFFFFFFFFFF DUP2 GT ISZERO PUSH2 0x6F3 JUMPI PUSH2 0x6F2 PUSH2 0xB18 JUMP JUMPDEST JUMPDEST PUSH2 0x6FF DUP7 DUP3 DUP8 ADD PUSH2 0x63B JUMP JUMPDEST SWAP3 POP POP PUSH1 0x40 DUP5 ADD CALLDATALOAD PUSH8 0xFFFFFFFFFFFFFFFF DUP2 GT ISZERO PUSH2 0x720 JUMPI PUSH2 0x71F PUSH2 0xB18 JUMP JUMPDEST JUMPDEST PUSH2 0x72C DUP7 DUP3 DUP8 ADD PUSH2 0x63B JUMP JUMPDEST SWAP2 POP POP SWAP3 POP SWAP3 POP SWAP3 JUMP JUMPDEST PUSH1 0x0 DUP1 PUSH1 0x0 PUSH1 0x60 DUP5 DUP7 SUB SLT ISZERO PUSH2 0x74F JUMPI PUSH2 0x74E PUSH2 0xB1D JUMP JUMPDEST JUMPDEST PUSH1 0x0 PUSH2 0x75D DUP7 DUP3 DUP8 ADD PUSH2 0x669 JUMP JUMPDEST SWAP4 POP POP PUSH1 0x20 PUSH2 0x76E DUP7 DUP3 DUP8 ADD PUSH2 0x669 JUMP JUMPDEST SWAP3 POP POP PUSH1 0x40 PUSH2 0x77F DUP7 DUP3 DUP8 ADD PUSH2 0x669 JUMP JUMPDEST SWAP2 POP POP SWAP3 POP SWAP3 POP SWAP3 JUMP JUMPDEST PUSH2 0x792 DUP2 PUSH2 0x999 JUMP JUMPDEST DUP3 MSTORE POP POP JUMP JUMPDEST PUSH2 0x7A1 DUP2 PUSH2 0x9D5 JUMP JUMPDEST DUP3 MSTORE POP POP JUMP JUMPDEST PUSH1 0x0 PUSH2 0x7B2 DUP3 PUSH2 0x97D JUMP JUMPDEST PUSH2 0x7BC DUP2 DUP6 PUSH2 0x988 JUMP JUMPDEST SWAP4 POP PUSH2 0x7CC DUP2 DUP6 PUSH1 0x20 DUP7 ADD PUSH2 0xA1A JUMP JUMPDEST PUSH2 0x7D5 DUP2 PUSH2 0xB22 JUMP JUMPDEST DUP5 ADD SWAP2 POP POP SWAP3 SWAP2 POP POP JUMP JUMPDEST PUSH1 0x0 PUSH2 0x7ED PUSH1 0x34 DUP4 PUSH2 0x988 JUMP JUMPDEST SWAP2 POP PUSH2 0x7F8 DUP3 PUSH2 0xB33 JUMP JUMPDEST PUSH1 0x40 DUP3 ADD SWAP1 POP SWAP2 SWAP1 POP JUMP JUMPDEST PUSH1 0x0 PUSH2 0x810 PUSH1 0x37 DUP4 PUSH2 0x988 JUMP JUMPDEST SWAP2 POP PUSH2 0x81B DUP3 PUSH2 0xB82 JUMP JUMPDEST PUSH1 0x40 DUP3 ADD SWAP1 POP SWAP2 SWAP1 POP JUMP JUMPDEST PUSH2 0x82F DUP2 PUSH2 0x9CB JUMP JUMPDEST DUP3 MSTORE POP POP JUMP JUMPDEST PUSH1 0x0 PUSH1 0x20 DUP3 ADD SWAP1 POP PUSH2 0x84A PUSH1 0x0 DUP4 ADD DUP5 PUSH2 0x789 JUMP JUMPDEST SWAP3 SWAP2 POP POP JUMP JUMPDEST PUSH1 0x0 PUSH1 0x20 DUP3 ADD SWAP1 POP PUSH2 0x865 PUSH1 0x0 DUP4 ADD DUP5 PUSH2 0x798 JUMP JUMPDEST SWAP3 SWAP2 POP POP JUMP JUMPDEST PUSH1 0x0 PUSH1 0x20 DUP3 ADD SWAP1 POP DUP2 DUP2 SUB PUSH1 0x0 DUP4 ADD MSTORE PUSH2 0x884 DUP2 PUSH2 0x7E0 JUMP JUMPDEST SWAP1 POP SWAP2 SWAP1 POP JUMP JUMPDEST PUSH1 0x0 PUSH1 0x20 DUP3 ADD SWAP1 POP DUP2 DUP2 SUB PUSH1 0x0 DUP4 ADD MSTORE PUSH2 0x8A4 DUP2 PUSH2 0x803 JUMP JUMPDEST SWAP1 POP SWAP2 SWAP1 POP JUMP JUMPDEST PUSH1 0x0 PUSH1 0x80 DUP3 ADD SWAP1 POP PUSH2 0x8C0 PUSH1 0x0 DUP4 ADD DUP8 PUSH2 0x826 JUMP JUMPDEST DUP2 DUP2 SUB PUSH1 0x20 DUP4 ADD MSTORE PUSH2 0x8D2 DUP2 DUP7 PUSH2 0x7A7 JUMP JUMPDEST SWAP1 POP DUP2 DUP2 SUB PUSH1 0x40 DUP4 ADD MSTORE PUSH2 0x8E6 DUP2 DUP6 PUSH2 0x7A7 JUMP JUMPDEST SWAP1 POP PUSH2 0x8F5 PUSH1 0x60 DUP4 ADD DUP5 PUSH2 0x789 JUMP JUMPDEST SWAP6 SWAP5 POP POP POP POP POP JUMP JUMPDEST PUSH1 0x0 PUSH1 0x40 DUP3 ADD SWAP1 POP PUSH2 0x913 PUSH1 0x0 DUP4 ADD DUP6 PUSH2 0x826 JUMP JUMPDEST PUSH2 0x920 PUSH1 0x20 DUP4 ADD DUP5 PUSH2 0x826 JUMP JUMPDEST SWAP4 SWAP3 POP POP POP JUMP JUMPDEST PUSH1 0x0 PUSH2 0x931 PUSH2 0x942 JUMP JUMPDEST SWAP1 POP PUSH2 0x93D DUP3 DUP3 PUSH2 0xA7F JUMP JUMPDEST SWAP2 SWAP1 POP JUMP JUMPDEST PUSH1 0x0 PUSH1 0x40 MLOAD SWAP1 POP SWAP1 JUMP JUMPDEST PUSH1 0x0 PUSH8 0xFFFFFFFFFFFFFFFF DUP3 GT ISZERO PUSH2 0x967 JUMPI PUSH2 0x966 PUSH2 0xADF JUMP JUMPDEST JUMPDEST PUSH2 0x970 DUP3 PUSH2 0xB22 JUMP JUMPDEST SWAP1 POP PUSH1 0x20 DUP2 ADD SWAP1 POP SWAP2 SWAP1 POP JUMP JUMPDEST PUSH1 0x0 DUP2 MLOAD SWAP1 POP SWAP2 SWAP1 POP JUMP JUMPDEST PUSH1 0x0 DUP3 DUP3 MSTORE PUSH1 0x20 DUP3 ADD SWAP1 POP SWAP3 SWAP2 POP POP JUMP JUMPDEST PUSH1 0x0 PUSH2 0x9A4 DUP3 PUSH2 0x9AB JUMP JUMPDEST SWAP1 POP SWAP2 SWAP1 POP JUMP JUMPDEST PUSH1 0x0 PUSH20 0xFFFFFFFFFFFFFFFFFFFFFFFFFFFFFFFFFFFFFFFF DUP3 AND SWAP1 POP SWAP2 SWAP1 POP JUMP JUMPDEST PUSH1 0x0 DUP2 SWAP1 POP SWAP2 SWAP1 POP JUMP JUMPDEST PUSH1 0x0 PUSH2 0x9E0 DUP3 PUSH2 0x9E7 JUMP JUMPDEST SWAP1 POP SWAP2 SWAP1 POP JUMP JUMPDEST PUSH1 0x0 PUSH2 0x9F2 DUP3 PUSH2 0x9F9 JUMP JUMPDEST SWAP1 POP SWAP2 SWAP1 POP JUMP JUMPDEST PUSH1 0x0 PUSH2 0xA04 DUP3 PUSH2 0x9AB JUMP JUMPDEST SWAP1 POP SWAP2 SWAP1 POP JUMP JUMPDEST DUP3 DUP2 DUP4 CALLDATACOPY PUSH1 0x0 DUP4 DUP4 ADD MSTORE POP POP POP JUMP JUMPDEST PUSH1 0x0 JUMPDEST DUP4 DUP2 LT ISZERO PUSH2 0xA38 JUMPI DUP1 DUP3 ADD MLOAD DUP2 DUP5 ADD MSTORE PUSH1 0x20 DUP2 ADD SWAP1 POP PUSH2 0xA1D JUMP JUMPDEST DUP4 DUP2 GT ISZERO PUSH2 0xA47 JUMPI PUSH1 0x0 DUP5 DUP5 ADD MSTORE JUMPDEST POP POP POP POP JUMP JUMPDEST PUSH1 0x0 PUSH1 0x2 DUP3 DIV SWAP1 POP PUSH1 0x1 DUP3 AND DUP1 PUSH2 0xA65 JUMPI PUSH1 0x7F DUP3 AND SWAP2 POP JUMPDEST PUSH1 0x20 DUP3 LT DUP2 EQ ISZERO PUSH2 0xA79 JUMPI PUSH2 0xA78 PUSH2 0xAB0 JUMP JUMPDEST JUMPDEST POP SWAP2 SWAP1 POP JUMP JUMPDEST PUSH2 0xA88 DUP3 PUSH2 0xB22 JUMP JUMPDEST DUP2 ADD DUP2 DUP2 LT PUSH8 0xFFFFFFFFFFFFFFFF DUP3 GT OR ISZERO PUSH2 0xAA7 JUMPI PUSH2 0xAA6 PUSH2 0xADF JUMP JUMPDEST JUMPDEST DUP1 PUSH1 0x40 MSTORE POP POP POP JUMP JUMPDEST PUSH32 0x4E487B7100000000000000000000000000000000000000000000000000000000 PUSH1 0x0 MSTORE PUSH1 0x22 PUSH1 0x4 MSTORE PUSH1 0x24 PUSH1 0x0 REVERT JUMPDEST PUSH32 0x4E487B7100000000000000000000000000000000000000000000000000000000 PUSH1 0x0 MSTORE PUSH1 0x41 PUSH1 0x4 MSTORE PUSH1 0x24 PUSH1 0x0 REVERT JUMPDEST PUSH1 0x0 DUP1 REVERT JUMPDEST PUSH1 0x0 DUP1 REVERT JUMPDEST PUSH1 0x0 DUP1 REVERT JUMPDEST PUSH1 0x0 DUP1 REVERT JUMPDEST PUSH1 0x0 PUSH1 0x1F NOT PUSH1 0x1F DUP4 ADD AND SWAP1 POP SWAP2 SWAP1 POP JUMP JUMPDEST PUSH32 0x5365756C206C2761646D696E6973747261746575722070657574206566666563 PUSH1 0x0 DUP3 ADD MSTORE PUSH32 0x74756572206365747465206F7065726174696F6E000000000000000000000000 PUSH1 0x20 DUP3 ADD MSTORE POP JUMP JUMPDEST PUSH32 0x5365756C206C276167656E7420646520726563727574656D656E742070657574 PUSH1 0x0 DUP3 ADD MSTORE PUSH32 0x20696E736572657220756E65206576616C756174696F6E000000000000000000 PUSH1 0x20 DUP3 ADD MSTORE POP JUMP JUMPDEST PUSH2 0xBDA DUP2 PUSH2 0x9CB JUMP JUMPDEST DUP2 EQ PUSH2 0xBE5 JUMPI PUSH1 0x0 DUP1 REVERT JUMPDEST POP JUMP INVALID LOG2 PUSH5 0x6970667358 0x22 SLT KECCAK256 0xC8 MUL CODESIZE 0xCC 0xB2 MSIZE PUSH23 0x53BFC448FB33A116606B9C8C535D1E86199D8EAFE6E0F7 0x25 0xD4 PUSH5 0x736F6C6343 STOP ADDMOD SMOD STOP CALLER "
				},
				"gasEstimates": {
					"creation": {
						"codeDepositCost": "620400",
						"executionCost": "infinite",
						"totalCost": "infinite"
					},
					"external": {
						"adminC()": "2577",
						"companies(uint256)": "infinite",
						"createCompany(uint256,string,string)": "infinite",
						"establishmentContract()": "2622",
						"insertEvaluation(uint256,uint256,uint256)": "infinite"
					}
				},
				"methodIdentifiers": {
					"adminC()": "e113f8d3",
					"companies(uint256)": "2813d19d",
					"createCompany(uint256,string,string)": "2a6a48b1",
					"establishmentContract()": "6d8b9807",
					"insertEvaluation(uint256,uint256,uint256)": "bd09555f"
				}
			},
			"storageLayout": {
				"storage": [
					{
						"astId": 4,
						"contract": "contracts/Projet_Blockchain/_Entreprise.sol:CompanyContract",
						"label": "adminC",
						"offset": 0,
						"slot": "0",
						"type": "t_address"
					},
					{
						"astId": 7,
						"contract": "contracts/Projet_Blockchain/_Entreprise.sol:CompanyContract",
						"label": "establishmentContract",
						"offset": 0,
						"slot": "1",
						"type": "t_contract(EstablishmentContract)374"
					},
					{
						"astId": 51,
						"contract": "contracts/Projet_Blockchain/_Entreprise.sol:CompanyContract",
						"label": "companies",
						"offset": 0,
						"slot": "2",
						"type": "t_mapping(t_uint256,t_struct(Company)46_storage)"
					}
				],
				"types": {
					"t_address": {
						"encoding": "inplace",
						"label": "address",
						"numberOfBytes": "20"
					},
					"t_contract(EstablishmentContract)374": {
						"encoding": "inplace",
						"label": "contract EstablishmentContract",
						"numberOfBytes": "20"
					},
					"t_mapping(t_uint256,t_struct(Company)46_storage)": {
						"encoding": "mapping",
						"key": "t_uint256",
						"label": "mapping(uint256 => struct CompanyContract.Company)",
						"numberOfBytes": "32",
						"value": "t_struct(Company)46_storage"
					},
					"t_string_storage": {
						"encoding": "bytes",
						"label": "string",
						"numberOfBytes": "32"
					},
					"t_struct(Company)46_storage": {
						"encoding": "inplace",
						"label": "struct CompanyContract.Company",
						"members": [
							{
								"astId": 39,
								"contract": "contracts/Projet_Blockchain/_Entreprise.sol:CompanyContract",
								"label": "id",
								"offset": 0,
								"slot": "0",
								"type": "t_uint256"
							},
							{
								"astId": 41,
								"contract": "contracts/Projet_Blockchain/_Entreprise.sol:CompanyContract",
								"label": "name",
								"offset": 0,
								"slot": "1",
								"type": "t_string_storage"
							},
							{
								"astId": 43,
								"contract": "contracts/Projet_Blockchain/_Entreprise.sol:CompanyContract",
								"label": "address_",
								"offset": 0,
								"slot": "2",
								"type": "t_string_storage"
							},
							{
								"astId": 45,
								"contract": "contracts/Projet_Blockchain/_Entreprise.sol:CompanyContract",
								"label": "recruitmentAgent",
								"offset": 0,
								"slot": "3",
								"type": "t_address"
							}
						],
						"numberOfBytes": "128"
					},
					"t_uint256": {
						"encoding": "inplace",
						"label": "uint256",
						"numberOfBytes": "32"
					}
				}
			},
			"userdoc": {
				"kind": "user",
				"methods": {},
				"version": 1
			}
		}
	}
}