{
	"contracts/Projet_Blockchain/test.sol": {
		"UniversitySystem": {
			"abi": [
				{
					"inputs": [],
					"stateMutability": "nonpayable",
					"type": "constructor"
				},
				{
					"inputs": [
						{
							"internalType": "uint256",
							"name": "_id",
							"type": "uint256"
						},
						{
							"internalType": "uint256",
							"name": "_studentId",
							"type": "uint256"
						},
						{
							"internalType": "string",
							"name": "_establishmentName",
							"type": "string"
						},
						{
							"internalType": "string",
							"name": "_type",
							"type": "string"
						},
						{
							"internalType": "string",
							"name": "_mention",
							"type": "string"
						}
					],
					"name": "addDiploma",
					"outputs": [],
					"stateMutability": "nonpayable",
					"type": "function"
				},
				{
					"inputs": [],
					"name": "admin",
					"outputs": [
						{
							"internalType": "address",
							"name": "",
							"type": "address"
						}
					],
					"stateMutability": "view",
					"type": "function"
				},
				{
					"inputs": [
						{
							"internalType": "uint256",
							"name": "",
							"type": "uint256"
						}
					],
					"name": "companies",
					"outputs": [
						{
							"internalType": "uint256",
							"name": "id",
							"type": "uint256"
						},
						{
							"internalType": "string",
							"name": "name",
							"type": "string"
						},
						{
							"internalType": "string",
							"name": "address_",
							"type": "string"
						},
						{
							"internalType": "address",
							"name": "recruitmentAgent",
							"type": "address"
						}
					],
					"stateMutability": "view",
					"type": "function"
				},
				{
					"inputs": [
						{
							"internalType": "uint256",
							"name": "_id",
							"type": "uint256"
						},
						{
							"internalType": "string",
							"name": "_name",
							"type": "string"
						},
						{
							"internalType": "string",
							"name": "_address",
							"type": "string"
						}
					],
					"name": "createCompany",
					"outputs": [],
					"stateMutability": "nonpayable",
					"type": "function"
				},
				{
					"inputs": [
						{
							"internalType": "uint256",
							"name": "_id",
							"type": "uint256"
						},
						{
							"internalType": "string",
							"name": "_name",
							"type": "string"
						},
						{
							"internalType": "string",
							"name": "_type",
							"type": "string"
						}
					],
					"name": "createEstablishment",
					"outputs": [],
					"stateMutability": "nonpayable",
					"type": "function"
				},
				{
					"inputs": [
						{
							"internalType": "uint256",
							"name": "_id",
							"type": "uint256"
						},
						{
							"internalType": "string",
							"name": "_name",
							"type": "string"
						},
						{
							"internalType": "string",
							"name": "_surname",
							"type": "string"
						},
						{
							"internalType": "string",
							"name": "_gender",
							"type": "string"
						}
					],
					"name": "createStudent",
					"outputs": [],
					"stateMutability": "nonpayable",
					"type": "function"
				},
				{
					"inputs": [
						{
							"internalType": "uint256",
							"name": "",
							"type": "uint256"
						}
					],
					"name": "diplomas",
					"outputs": [
						{
							"internalType": "uint256",
							"name": "id",
							"type": "uint256"
						},
						{
							"internalType": "uint256",
							"name": "studentId",
							"type": "uint256"
						},
						{
							"internalType": "uint256",
							"name": "establishmentId",
							"type": "uint256"
						},
						{
							"internalType": "string",
							"name": "establishmentName",
							"type": "string"
						},
						{
							"internalType": "string",
							"name": "type_",
							"type": "string"
						},
						{
							"internalType": "string",
							"name": "mention",
							"type": "string"
						}
					],
					"stateMutability": "view",
					"type": "function"
				},
				{
					"inputs": [
						{
							"internalType": "address",
							"name": "",
							"type": "address"
						}
					],
					"name": "establishmentAdmins",
					"outputs": [
						{
							"internalType": "uint256",
							"name": "id",
							"type": "uint256"
						},
						{
							"internalType": "string",
							"name": "name",
							"type": "string"
						},
						{
							"internalType": "string",
							"name": "type_",
							"type": "string"
						},
						{
							"internalType": "address",
							"name": "adminAgent",
							"type": "address"
						}
					],
					"stateMutability": "view",
					"type": "function"
				},
				{
					"inputs": [
						{
							"internalType": "uint256",
							"name": "",
							"type": "uint256"
						}
					],
					"name": "students",
					"outputs": [
						{
							"internalType": "uint256",
							"name": "id",
							"type": "uint256"
						},
						{
							"internalType": "string",
							"name": "name",
							"type": "string"
						},
						{
							"internalType": "string",
							"name": "surname",
							"type": "string"
						},
						{
							"internalType": "string",
							"name": "gender",
							"type": "string"
						},
						{
							"internalType": "uint256",
							"name": "evaluation",
							"type": "uint256"
						},
						{
							"internalType": "address",
							"name": "profileAgent",
							"type": "address"
						}
					],
					"stateMutability": "view",
					"type": "function"
				}
			],
			"devdoc": {
				"kind": "dev",
				"methods": {},
				"version": 1
			},
			"evm": {
				"assembly": "    /* \"contracts/Projet_Blockchain/test.sol\":60:3044  contract UniversitySystem {... */\n  mstore(0x40, 0x80)\n    /* \"contracts/Projet_Blockchain/test.sol\":154:205  constructor() {... */\n  callvalue\n  dup1\n  iszero\n  tag_1\n  jumpi\n  0x00\n  dup1\n  revert\ntag_1:\n  pop\n    /* \"contracts/Projet_Blockchain/test.sol\":187:197  msg.sender */\n  caller\n    /* \"contracts/Projet_Blockchain/test.sol\":179:184  admin */\n  0x00\n  dup1\n    /* \"contracts/Projet_Blockchain/test.sol\":179:197  admin = msg.sender */\n  0x0100\n  exp\n  dup2\n  sload\n  dup2\n  0xffffffffffffffffffffffffffffffffffffffff\n  mul\n  not\n  and\n  swap1\n  dup4\n  0xffffffffffffffffffffffffffffffffffffffff\n  and\n  mul\n  or\n  swap1\n  sstore\n  pop\n    /* \"contracts/Projet_Blockchain/test.sol\":60:3044  contract UniversitySystem {... */\n  dataSize(sub_0)\n  dup1\n  dataOffset(sub_0)\n  0x00\n  codecopy\n  0x00\n  return\nstop\n\nsub_0: assembly {\n        /* \"contracts/Projet_Blockchain/test.sol\":60:3044  contract UniversitySystem {... */\n      mstore(0x40, 0x80)\n      callvalue\n      dup1\n      iszero\n      tag_1\n      jumpi\n      0x00\n      dup1\n      revert\n    tag_1:\n      pop\n      jumpi(tag_2, lt(calldatasize, 0x04))\n      shr(0xe0, calldataload(0x00))\n      dup1\n      0x35dfc1c3\n      gt\n      tag_12\n      jumpi\n      dup1\n      0x35dfc1c3\n      eq\n      tag_7\n      jumpi\n      dup1\n      0x4495a008\n      eq\n      tag_8\n      jumpi\n      dup1\n      0x91a3972b\n      eq\n      tag_9\n      jumpi\n      dup1\n      0xf04656eb\n      eq\n      tag_10\n      jumpi\n      dup1\n      0xf851a440\n      eq\n      tag_11\n      jumpi\n      jump(tag_2)\n    tag_12:\n      dup1\n      0x06ead22e\n      eq\n      tag_3\n      jumpi\n      dup1\n      0x1274147e\n      eq\n      tag_4\n      jumpi\n      dup1\n      0x2813d19d\n      eq\n      tag_5\n      jumpi\n      dup1\n      0x2a6a48b1\n      eq\n      tag_6\n      jumpi\n    tag_2:\n      0x00\n      dup1\n      revert\n        /* \"contracts/Projet_Blockchain/test.sol\":1223:1263  mapping(uint => Student) public students */\n    tag_3:\n      tag_13\n      0x04\n      dup1\n      calldatasize\n      sub\n      dup2\n      add\n      swap1\n      tag_14\n      swap2\n      swap1\n      tag_15\n      jump\t// in\n    tag_14:\n      tag_16\n      jump\t// in\n    tag_13:\n      mload(0x40)\n      tag_17\n      swap7\n      swap6\n      swap5\n      swap4\n      swap3\n      swap2\n      swap1\n      tag_18\n      jump\t// in\n    tag_17:\n      mload(0x40)\n      dup1\n      swap2\n      sub\n      swap1\n      return\n        /* \"contracts/Projet_Blockchain/test.sol\":1367:1562  function createEstablishment(uint _id, string memory _name, string memory _type) public onlyAdmin {... */\n    tag_4:\n      tag_19\n      0x04\n      dup1\n      calldatasize\n      sub\n      dup2\n      add\n      swap1\n      tag_20\n      swap2\n      swap1\n      tag_21\n      jump\t// in\n    tag_20:\n      tag_22\n      jump\t// in\n    tag_19:\n      stop\n        /* \"contracts/Projet_Blockchain/test.sol\":1317:1358  mapping(uint => Company) public companies */\n    tag_5:\n      tag_23\n      0x04\n      dup1\n      calldatasize\n      sub\n      dup2\n      add\n      swap1\n      tag_24\n      swap2\n      swap1\n      tag_15\n      jump\t// in\n    tag_24:\n      tag_25\n      jump\t// in\n    tag_23:\n      mload(0x40)\n      tag_26\n      swap5\n      swap4\n      swap3\n      swap2\n      swap1\n      tag_27\n      jump\t// in\n    tag_26:\n      mload(0x40)\n      dup1\n      swap2\n      sub\n      swap1\n      return\n        /* \"contracts/Projet_Blockchain/test.sol\":2879:3041  function createCompany(uint _id, string memory _name, string memory _address) public {... */\n    tag_6:\n      tag_28\n      0x04\n      dup1\n      calldatasize\n      sub\n      dup2\n      add\n      swap1\n      tag_29\n      swap2\n      swap1\n      tag_21\n      jump\t// in\n    tag_29:\n      tag_30\n      jump\t// in\n    tag_28:\n      stop\n        /* \"contracts/Projet_Blockchain/test.sol\":1270:1310  mapping(uint => Diploma) public diplomas */\n    tag_7:\n      tag_31\n      0x04\n      dup1\n      calldatasize\n      sub\n      dup2\n      add\n      swap1\n      tag_32\n      swap2\n      swap1\n      tag_15\n      jump\t// in\n    tag_32:\n      tag_33\n      jump\t// in\n    tag_31:\n      mload(0x40)\n      tag_34\n      swap7\n      swap6\n      swap5\n      swap4\n      swap3\n      swap2\n      swap1\n      tag_35\n      jump\t// in\n    tag_34:\n      mload(0x40)\n      dup1\n      swap2\n      sub\n      swap1\n      return\n        /* \"contracts/Projet_Blockchain/test.sol\":1570:1962  function createStudent(uint _id, string memory _name, string memory _surname, string memory _gender) public {... */\n    tag_8:\n      tag_36\n      0x04\n      dup1\n      calldatasize\n      sub\n      dup2\n      add\n      swap1\n      tag_37\n      swap2\n      swap1\n      tag_38\n      jump\t// in\n    tag_37:\n      tag_39\n      jump\t// in\n    tag_36:\n      stop\n        /* \"contracts/Projet_Blockchain/test.sol\":1156:1216  mapping(address => Establishment) public establishmentAdmins */\n    tag_9:\n      tag_40\n      0x04\n      dup1\n      calldatasize\n      sub\n      dup2\n      add\n      swap1\n      tag_41\n      swap2\n      swap1\n      tag_42\n      jump\t// in\n    tag_41:\n      tag_43\n      jump\t// in\n    tag_40:\n      mload(0x40)\n      tag_44\n      swap5\n      swap4\n      swap3\n      swap2\n      swap1\n      tag_27\n      jump\t// in\n    tag_44:\n      mload(0x40)\n      dup1\n      swap2\n      sub\n      swap1\n      return\n        /* \"contracts/Projet_Blockchain/test.sol\":1970:2558  function addDiploma(uint _id, uint _studentId, string memory _establishmentName, string memory _type, string memory _mention) public {... */\n    tag_10:\n      tag_45\n      0x04\n      dup1\n      calldatasize\n      sub\n      dup2\n      add\n      swap1\n      tag_46\n      swap2\n      swap1\n      tag_47\n      jump\t// in\n    tag_46:\n      tag_48\n      jump\t// in\n    tag_45:\n      stop\n        /* \"contracts/Projet_Blockchain/test.sol\":93:113  address public admin */\n    tag_11:\n      tag_49\n      tag_50\n      jump\t// in\n    tag_49:\n      mload(0x40)\n      tag_51\n      swap2\n      swap1\n      tag_52\n      jump\t// in\n    tag_51:\n      mload(0x40)\n      dup1\n      swap2\n      sub\n      swap1\n      return\n        /* \"contracts/Projet_Blockchain/test.sol\":1223:1263  mapping(uint => Student) public students */\n    tag_16:\n      mstore(0x20, 0x02)\n      dup1\n      0x00\n      mstore\n      keccak256(0x00, 0x40)\n      0x00\n      swap2\n      pop\n      swap1\n      pop\n      dup1\n      0x00\n      add\n      sload\n      swap1\n      dup1\n      0x01\n      add\n      dup1\n      sload\n      tag_53\n      swap1\n      tag_54\n      jump\t// in\n    tag_53:\n      dup1\n      0x1f\n      add\n      0x20\n      dup1\n      swap2\n      div\n      mul\n      0x20\n      add\n      mload(0x40)\n      swap1\n      dup2\n      add\n      0x40\n      mstore\n      dup1\n      swap3\n      swap2\n      swap1\n      dup2\n      dup2\n      mstore\n      0x20\n      add\n      dup3\n      dup1\n      sload\n      tag_55\n      swap1\n      tag_54\n      jump\t// in\n    tag_55:\n      dup1\n      iszero\n      tag_56\n      jumpi\n      dup1\n      0x1f\n      lt\n      tag_57\n      jumpi\n      0x0100\n      dup1\n      dup4\n      sload\n      div\n      mul\n      dup4\n      mstore\n      swap2\n      0x20\n      add\n      swap2\n      jump(tag_56)\n    tag_57:\n      dup3\n      add\n      swap2\n      swap1\n      0x00\n      mstore\n      keccak256(0x00, 0x20)\n      swap1\n    tag_58:\n      dup2\n      sload\n      dup2\n      mstore\n      swap1\n      0x01\n      add\n      swap1\n      0x20\n      add\n      dup1\n      dup4\n      gt\n      tag_58\n      jumpi\n      dup3\n      swap1\n      sub\n      0x1f\n      and\n      dup3\n      add\n      swap2\n    tag_56:\n      pop\n      pop\n      pop\n      pop\n      pop\n      swap1\n      dup1\n      0x02\n      add\n      dup1\n      sload\n      tag_59\n      swap1\n      tag_54\n      jump\t// in\n    tag_59:\n      dup1\n      0x1f\n      add\n      0x20\n      dup1\n      swap2\n      div\n      mul\n      0x20\n      add\n      mload(0x40)\n      swap1\n      dup2\n      add\n      0x40\n      mstore\n      dup1\n      swap3\n      swap2\n      swap1\n      dup2\n      dup2\n      mstore\n      0x20\n      add\n      dup3\n      dup1\n      sload\n      tag_60\n      swap1\n      tag_54\n      jump\t// in\n    tag_60:\n      dup1\n      iszero\n      tag_61\n      jumpi\n      dup1\n      0x1f\n      lt\n      tag_62\n      jumpi\n      0x0100\n      dup1\n      dup4\n      sload\n      div\n      mul\n      dup4\n      mstore\n      swap2\n      0x20\n      add\n      swap2\n      jump(tag_61)\n    tag_62:\n      dup3\n      add\n      swap2\n      swap1\n      0x00\n      mstore\n      keccak256(0x00, 0x20)\n      swap1\n    tag_63:\n      dup2\n      sload\n      dup2\n      mstore\n      swap1\n      0x01\n      add\n      swap1\n      0x20\n      add\n      dup1\n      dup4\n      gt\n      tag_63\n      jumpi\n      dup3\n      swap1\n      sub\n      0x1f\n      and\n      dup3\n      add\n      swap2\n    tag_61:\n      pop\n      pop\n      pop\n      pop\n      pop\n      swap1\n      dup1\n      0x03\n      add\n      dup1\n      sload\n      tag_64\n      swap1\n      tag_54\n      jump\t// in\n    tag_64:\n      dup1\n      0x1f\n      add\n      0x20\n      dup1\n      swap2\n      div\n      mul\n      0x20\n      add\n      mload(0x40)\n      swap1\n      dup2\n      add\n      0x40\n      mstore\n      dup1\n      swap3\n      swap2\n      swap1\n      dup2\n      dup2\n      mstore\n      0x20\n      add\n      dup3\n      dup1\n      sload\n      tag_65\n      swap1\n      tag_54\n      jump\t// in\n    tag_65:\n      dup1\n      iszero\n      tag_66\n      jumpi\n      dup1\n      0x1f\n      lt\n      tag_67\n      jumpi\n      0x0100\n      dup1\n      dup4\n      sload\n      div\n      mul\n      dup4\n      mstore\n      swap2\n      0x20\n      add\n      swap2\n      jump(tag_66)\n    tag_67:\n      dup3\n      add\n      swap2\n      swap1\n      0x00\n      mstore\n      keccak256(0x00, 0x20)\n      swap1\n    tag_68:\n      dup2\n      sload\n      dup2\n      mstore\n      swap1\n      0x01\n      add\n      swap1\n      0x20\n      add\n      dup1\n      dup4\n      gt\n      tag_68\n      jumpi\n      dup3\n      swap1\n      sub\n      0x1f\n      and\n      dup3\n      add\n      swap2\n    tag_66:\n      pop\n      pop\n      pop\n      pop\n      pop\n      swap1\n      dup1\n      0x04\n      add\n      sload\n      swap1\n      dup1\n      0x05\n      add\n      0x00\n      swap1\n      sload\n      swap1\n      0x0100\n      exp\n      swap1\n      div\n      0xffffffffffffffffffffffffffffffffffffffff\n      and\n      swap1\n      pop\n      dup7\n      jump\t// out\n        /* \"contracts/Projet_Blockchain/test.sol\":1367:1562  function createEstablishment(uint _id, string memory _name, string memory _type) public onlyAdmin {... */\n    tag_22:\n        /* \"contracts/Projet_Blockchain/test.sol\":267:272  admin */\n      0x00\n      dup1\n      sload\n      swap1\n      0x0100\n      exp\n      swap1\n      div\n      0xffffffffffffffffffffffffffffffffffffffff\n      and\n        /* \"contracts/Projet_Blockchain/test.sol\":253:272  msg.sender == admin */\n      0xffffffffffffffffffffffffffffffffffffffff\n      and\n        /* \"contracts/Projet_Blockchain/test.sol\":253:263  msg.sender */\n      caller\n        /* \"contracts/Projet_Blockchain/test.sol\":253:272  msg.sender == admin */\n      0xffffffffffffffffffffffffffffffffffffffff\n      and\n      eq\n        /* \"contracts/Projet_Blockchain/test.sol\":245:333  require(msg.sender == admin /*\"Seul l'administrateur peut effectuer cette opération\"*/) */\n      tag_70\n      jumpi\n      0x00\n      dup1\n      revert\n    tag_70:\n        /* \"contracts/Projet_Blockchain/test.sol\":1510:1554  Establishment(_id, _name, _type, msg.sender) */\n      mload(0x40)\n      dup1\n      0x80\n      add\n      0x40\n      mstore\n      dup1\n        /* \"contracts/Projet_Blockchain/test.sol\":1524:1527  _id */\n      dup5\n        /* \"contracts/Projet_Blockchain/test.sol\":1510:1554  Establishment(_id, _name, _type, msg.sender) */\n      dup2\n      mstore\n      0x20\n      add\n        /* \"contracts/Projet_Blockchain/test.sol\":1529:1534  _name */\n      dup4\n        /* \"contracts/Projet_Blockchain/test.sol\":1510:1554  Establishment(_id, _name, _type, msg.sender) */\n      dup2\n      mstore\n      0x20\n      add\n        /* \"contracts/Projet_Blockchain/test.sol\":1536:1541  _type */\n      dup3\n        /* \"contracts/Projet_Blockchain/test.sol\":1510:1554  Establishment(_id, _name, _type, msg.sender) */\n      dup2\n      mstore\n      0x20\n      add\n        /* \"contracts/Projet_Blockchain/test.sol\":1543:1553  msg.sender */\n      caller\n        /* \"contracts/Projet_Blockchain/test.sol\":1510:1554  Establishment(_id, _name, _type, msg.sender) */\n      0xffffffffffffffffffffffffffffffffffffffff\n      and\n      dup2\n      mstore\n      pop\n        /* \"contracts/Projet_Blockchain/test.sol\":1476:1495  establishmentAdmins */\n      0x01\n        /* \"contracts/Projet_Blockchain/test.sol\":1476:1507  establishmentAdmins[msg.sender] */\n      0x00\n        /* \"contracts/Projet_Blockchain/test.sol\":1496:1506  msg.sender */\n      caller\n        /* \"contracts/Projet_Blockchain/test.sol\":1476:1507  establishmentAdmins[msg.sender] */\n      0xffffffffffffffffffffffffffffffffffffffff\n      and\n      0xffffffffffffffffffffffffffffffffffffffff\n      and\n      dup2\n      mstore\n      0x20\n      add\n      swap1\n      dup2\n      mstore\n      0x20\n      add\n      0x00\n      keccak256\n        /* \"contracts/Projet_Blockchain/test.sol\":1476:1554  establishmentAdmins[msg.sender] = Establishment(_id, _name, _type, msg.sender) */\n      0x00\n      dup3\n      add\n      mload\n      dup2\n      0x00\n      add\n      sstore\n      0x20\n      dup3\n      add\n      mload\n      dup2\n      0x01\n      add\n      swap1\n      dup2\n      tag_72\n      swap2\n      swap1\n      tag_73\n      jump\t// in\n    tag_72:\n      pop\n      0x40\n      dup3\n      add\n      mload\n      dup2\n      0x02\n      add\n      swap1\n      dup2\n      tag_74\n      swap2\n      swap1\n      tag_73\n      jump\t// in\n    tag_74:\n      pop\n      0x60\n      dup3\n      add\n      mload\n      dup2\n      0x03\n      add\n      exp(0x0100, 0x00)\n      dup2\n      sload\n      dup2\n      0xffffffffffffffffffffffffffffffffffffffff\n      mul\n      not\n      and\n      swap1\n      dup4\n      0xffffffffffffffffffffffffffffffffffffffff\n      and\n      mul\n      or\n      swap1\n      sstore\n      pop\n      swap1\n      pop\n      pop\n        /* \"contracts/Projet_Blockchain/test.sol\":1367:1562  function createEstablishment(uint _id, string memory _name, string memory _type) public onlyAdmin {... */\n      pop\n      pop\n      pop\n      jump\t// out\n        /* \"contracts/Projet_Blockchain/test.sol\":1317:1358  mapping(uint => Company) public companies */\n    tag_25:\n      mstore(0x20, 0x04)\n      dup1\n      0x00\n      mstore\n      keccak256(0x00, 0x40)\n      0x00\n      swap2\n      pop\n      swap1\n      pop\n      dup1\n      0x00\n      add\n      sload\n      swap1\n      dup1\n      0x01\n      add\n      dup1\n      sload\n      tag_75\n      swap1\n      tag_54\n      jump\t// in\n    tag_75:\n      dup1\n      0x1f\n      add\n      0x20\n      dup1\n      swap2\n      div\n      mul\n      0x20\n      add\n      mload(0x40)\n      swap1\n      dup2\n      add\n      0x40\n      mstore\n      dup1\n      swap3\n      swap2\n      swap1\n      dup2\n      dup2\n      mstore\n      0x20\n      add\n      dup3\n      dup1\n      sload\n      tag_76\n      swap1\n      tag_54\n      jump\t// in\n    tag_76:\n      dup1\n      iszero\n      tag_77\n      jumpi\n      dup1\n      0x1f\n      lt\n      tag_78\n      jumpi\n      0x0100\n      dup1\n      dup4\n      sload\n      div\n      mul\n      dup4\n      mstore\n      swap2\n      0x20\n      add\n      swap2\n      jump(tag_77)\n    tag_78:\n      dup3\n      add\n      swap2\n      swap1\n      0x00\n      mstore\n      keccak256(0x00, 0x20)\n      swap1\n    tag_79:\n      dup2\n      sload\n      dup2\n      mstore\n      swap1\n      0x01\n      add\n      swap1\n      0x20\n      add\n      dup1\n      dup4\n      gt\n      tag_79\n      jumpi\n      dup3\n      swap1\n      sub\n      0x1f\n      and\n      dup3\n      add\n      swap2\n    tag_77:\n      pop\n      pop\n      pop\n      pop\n      pop\n      swap1\n      dup1\n      0x02\n      add\n      dup1\n      sload\n      tag_80\n      swap1\n      tag_54\n      jump\t// in\n    tag_80:\n      dup1\n      0x1f\n      add\n      0x20\n      dup1\n      swap2\n      div\n      mul\n      0x20\n      add\n      mload(0x40)\n      swap1\n      dup2\n      add\n      0x40\n      mstore\n      dup1\n      swap3\n      swap2\n      swap1\n      dup2\n      dup2\n      mstore\n      0x20\n      add\n      dup3\n      dup1\n      sload\n      tag_81\n      swap1\n      tag_54\n      jump\t// in\n    tag_81:\n      dup1\n      iszero\n      tag_82\n      jumpi\n      dup1\n      0x1f\n      lt\n      tag_83\n      jumpi\n      0x0100\n      dup1\n      dup4\n      sload\n      div\n      mul\n      dup4\n      mstore\n      swap2\n      0x20\n      add\n      swap2\n      jump(tag_82)\n    tag_83:\n      dup3\n      add\n      swap2\n      swap1\n      0x00\n      mstore\n      keccak256(0x00, 0x20)\n      swap1\n    tag_84:\n      dup2\n      sload\n      dup2\n      mstore\n      swap1\n      0x01\n      add\n      swap1\n      0x20\n      add\n      dup1\n      dup4\n      gt\n      tag_84\n      jumpi\n      dup3\n      swap1\n      sub\n      0x1f\n      and\n      dup3\n      add\n      swap2\n    tag_82:\n      pop\n      pop\n      pop\n      pop\n      pop\n      swap1\n      dup1\n      0x03\n      add\n      0x00\n      swap1\n      sload\n      swap1\n      0x0100\n      exp\n      swap1\n      div\n      0xffffffffffffffffffffffffffffffffffffffff\n      and\n      swap1\n      pop\n      dup5\n      jump\t// out\n        /* \"contracts/Projet_Blockchain/test.sol\":2879:3041  function createCompany(uint _id, string memory _name, string memory _address) public {... */\n    tag_30:\n        /* \"contracts/Projet_Blockchain/test.sol\":2992:3033  Company(_id, _name, _address, msg.sender) */\n      mload(0x40)\n      dup1\n      0x80\n      add\n      0x40\n      mstore\n      dup1\n        /* \"contracts/Projet_Blockchain/test.sol\":3000:3003  _id */\n      dup5\n        /* \"contracts/Projet_Blockchain/test.sol\":2992:3033  Company(_id, _name, _address, msg.sender) */\n      dup2\n      mstore\n      0x20\n      add\n        /* \"contracts/Projet_Blockchain/test.sol\":3005:3010  _name */\n      dup4\n        /* \"contracts/Projet_Blockchain/test.sol\":2992:3033  Company(_id, _name, _address, msg.sender) */\n      dup2\n      mstore\n      0x20\n      add\n        /* \"contracts/Projet_Blockchain/test.sol\":3012:3020  _address */\n      dup3\n        /* \"contracts/Projet_Blockchain/test.sol\":2992:3033  Company(_id, _name, _address, msg.sender) */\n      dup2\n      mstore\n      0x20\n      add\n        /* \"contracts/Projet_Blockchain/test.sol\":3022:3032  msg.sender */\n      caller\n        /* \"contracts/Projet_Blockchain/test.sol\":2992:3033  Company(_id, _name, _address, msg.sender) */\n      0xffffffffffffffffffffffffffffffffffffffff\n      and\n      dup2\n      mstore\n      pop\n        /* \"contracts/Projet_Blockchain/test.sol\":2975:2984  companies */\n      0x04\n        /* \"contracts/Projet_Blockchain/test.sol\":2975:2989  companies[_id] */\n      0x00\n        /* \"contracts/Projet_Blockchain/test.sol\":2985:2988  _id */\n      dup6\n        /* \"contracts/Projet_Blockchain/test.sol\":2975:2989  companies[_id] */\n      dup2\n      mstore\n      0x20\n      add\n      swap1\n      dup2\n      mstore\n      0x20\n      add\n      0x00\n      keccak256\n        /* \"contracts/Projet_Blockchain/test.sol\":2975:3033  companies[_id] = Company(_id, _name, _address, msg.sender) */\n      0x00\n      dup3\n      add\n      mload\n      dup2\n      0x00\n      add\n      sstore\n      0x20\n      dup3\n      add\n      mload\n      dup2\n      0x01\n      add\n      swap1\n      dup2\n      tag_86\n      swap2\n      swap1\n      tag_73\n      jump\t// in\n    tag_86:\n      pop\n      0x40\n      dup3\n      add\n      mload\n      dup2\n      0x02\n      add\n      swap1\n      dup2\n      tag_87\n      swap2\n      swap1\n      tag_73\n      jump\t// in\n    tag_87:\n      pop\n      0x60\n      dup3\n      add\n      mload\n      dup2\n      0x03\n      add\n      exp(0x0100, 0x00)\n      dup2\n      sload\n      dup2\n      0xffffffffffffffffffffffffffffffffffffffff\n      mul\n      not\n      and\n      swap1\n      dup4\n      0xffffffffffffffffffffffffffffffffffffffff\n      and\n      mul\n      or\n      swap1\n      sstore\n      pop\n      swap1\n      pop\n      pop\n        /* \"contracts/Projet_Blockchain/test.sol\":2879:3041  function createCompany(uint _id, string memory _name, string memory _address) public {... */\n      pop\n      pop\n      pop\n      jump\t// out\n        /* \"contracts/Projet_Blockchain/test.sol\":1270:1310  mapping(uint => Diploma) public diplomas */\n    tag_33:\n      mstore(0x20, 0x03)\n      dup1\n      0x00\n      mstore\n      keccak256(0x00, 0x40)\n      0x00\n      swap2\n      pop\n      swap1\n      pop\n      dup1\n      0x00\n      add\n      sload\n      swap1\n      dup1\n      0x01\n      add\n      sload\n      swap1\n      dup1\n      0x02\n      add\n      sload\n      swap1\n      dup1\n      0x03\n      add\n      dup1\n      sload\n      tag_88\n      swap1\n      tag_54\n      jump\t// in\n    tag_88:\n      dup1\n      0x1f\n      add\n      0x20\n      dup1\n      swap2\n      div\n      mul\n      0x20\n      add\n      mload(0x40)\n      swap1\n      dup2\n      add\n      0x40\n      mstore\n      dup1\n      swap3\n      swap2\n      swap1\n      dup2\n      dup2\n      mstore\n      0x20\n      add\n      dup3\n      dup1\n      sload\n      tag_89\n      swap1\n      tag_54\n      jump\t// in\n    tag_89:\n      dup1\n      iszero\n      tag_90\n      jumpi\n      dup1\n      0x1f\n      lt\n      tag_91\n      jumpi\n      0x0100\n      dup1\n      dup4\n      sload\n      div\n      mul\n      dup4\n      mstore\n      swap2\n      0x20\n      add\n      swap2\n      jump(tag_90)\n    tag_91:\n      dup3\n      add\n      swap2\n      swap1\n      0x00\n      mstore\n      keccak256(0x00, 0x20)\n      swap1\n    tag_92:\n      dup2\n      sload\n      dup2\n      mstore\n      swap1\n      0x01\n      add\n      swap1\n      0x20\n      add\n      dup1\n      dup4\n      gt\n      tag_92\n      jumpi\n      dup3\n      swap1\n      sub\n      0x1f\n      and\n      dup3\n      add\n      swap2\n    tag_90:\n      pop\n      pop\n      pop\n      pop\n      pop\n      swap1\n      dup1\n      0x04\n      add\n      dup1\n      sload\n      tag_93\n      swap1\n      tag_54\n      jump\t// in\n    tag_93:\n      dup1\n      0x1f\n      add\n      0x20\n      dup1\n      swap2\n      div\n      mul\n      0x20\n      add\n      mload(0x40)\n      swap1\n      dup2\n      add\n      0x40\n      mstore\n      dup1\n      swap3\n      swap2\n      swap1\n      dup2\n      dup2\n      mstore\n      0x20\n      add\n      dup3\n      dup1\n      sload\n      tag_94\n      swap1\n      tag_54\n      jump\t// in\n    tag_94:\n      dup1\n      iszero\n      tag_95\n      jumpi\n      dup1\n      0x1f\n      lt\n      tag_96\n      jumpi\n      0x0100\n      dup1\n      dup4\n      sload\n      div\n      mul\n      dup4\n      mstore\n      swap2\n      0x20\n      add\n      swap2\n      jump(tag_95)\n    tag_96:\n      dup3\n      add\n      swap2\n      swap1\n      0x00\n      mstore\n      keccak256(0x00, 0x20)\n      swap1\n    tag_97:\n      dup2\n      sload\n      dup2\n      mstore\n      swap1\n      0x01\n      add\n      swap1\n      0x20\n      add\n      dup1\n      dup4\n      gt\n      tag_97\n      jumpi\n      dup3\n      swap1\n      sub\n      0x1f\n      and\n      dup3\n      add\n      swap2\n    tag_95:\n      pop\n      pop\n      pop\n      pop\n      pop\n      swap1\n      dup1\n      0x05\n      add\n      dup1\n      sload\n      tag_98\n      swap1\n      tag_54\n      jump\t// in\n    tag_98:\n      dup1\n      0x1f\n      add\n      0x20\n      dup1\n      swap2\n      div\n      mul\n      0x20\n      add\n      mload(0x40)\n      swap1\n      dup2\n      add\n      0x40\n      mstore\n      dup1\n      swap3\n      swap2\n      swap1\n      dup2\n      dup2\n      mstore\n      0x20\n      add\n      dup3\n      dup1\n      sload\n      tag_99\n      swap1\n      tag_54\n      jump\t// in\n    tag_99:\n      dup1\n      iszero\n      tag_100\n      jumpi\n      dup1\n      0x1f\n      lt\n      tag_101\n      jumpi\n      0x0100\n      dup1\n      dup4\n      sload\n      div\n      mul\n      dup4\n      mstore\n      swap2\n      0x20\n      add\n      swap2\n      jump(tag_100)\n    tag_101:\n      dup3\n      add\n      swap2\n      swap1\n      0x00\n      mstore\n      keccak256(0x00, 0x20)\n      swap1\n    tag_102:\n      dup2\n      sload\n      dup2\n      mstore\n      swap1\n      0x01\n      add\n      swap1\n      0x20\n      add\n      dup1\n      dup4\n      gt\n      tag_102\n      jumpi\n      dup3\n      swap1\n      sub\n      0x1f\n      and\n      dup3\n      add\n      swap2\n    tag_100:\n      pop\n      pop\n      pop\n      pop\n      pop\n      swap1\n      pop\n      dup7\n      jump\t// out\n        /* \"contracts/Projet_Blockchain/test.sol\":1570:1962  function createStudent(uint _id, string memory _name, string memory _surname, string memory _gender) public {... */\n    tag_39:\n        /* \"contracts/Projet_Blockchain/test.sol\":1689:1724  Establishment storage establishment */\n      0x00\n        /* \"contracts/Projet_Blockchain/test.sol\":1727:1746  establishmentAdmins */\n      0x01\n        /* \"contracts/Projet_Blockchain/test.sol\":1727:1758  establishmentAdmins[msg.sender] */\n      0x00\n        /* \"contracts/Projet_Blockchain/test.sol\":1747:1757  msg.sender */\n      caller\n        /* \"contracts/Projet_Blockchain/test.sol\":1727:1758  establishmentAdmins[msg.sender] */\n      0xffffffffffffffffffffffffffffffffffffffff\n      and\n      0xffffffffffffffffffffffffffffffffffffffff\n      and\n      dup2\n      mstore\n      0x20\n      add\n      swap1\n      dup2\n      mstore\n      0x20\n      add\n      0x00\n      keccak256\n        /* \"contracts/Projet_Blockchain/test.sol\":1689:1758  Establishment storage establishment = establishmentAdmins[msg.sender] */\n      swap1\n      pop\n        /* \"contracts/Projet_Blockchain/test.sol\":1796:1797  0 */\n      0x00\n        /* \"contracts/Projet_Blockchain/test.sol\":1777:1790  establishment */\n      dup2\n        /* \"contracts/Projet_Blockchain/test.sol\":1777:1793  establishment.id */\n      0x00\n      add\n      sload\n        /* \"contracts/Projet_Blockchain/test.sol\":1777:1797  establishment.id > 0 */\n      gt\n        /* \"contracts/Projet_Blockchain/test.sol\":1769:1874  require(establishment.id > 0 /*\"L'établissement n'existe pas ou n'a pas le droit de créer un profil\"*/) */\n      tag_104\n      jumpi\n      0x00\n      dup1\n      revert\n    tag_104:\n        /* \"contracts/Projet_Blockchain/test.sol\":1901:1954  Student(_id, _name, _surname, _gender, 0, msg.sender) */\n      mload(0x40)\n      dup1\n      0xc0\n      add\n      0x40\n      mstore\n      dup1\n        /* \"contracts/Projet_Blockchain/test.sol\":1909:1912  _id */\n      dup7\n        /* \"contracts/Projet_Blockchain/test.sol\":1901:1954  Student(_id, _name, _surname, _gender, 0, msg.sender) */\n      dup2\n      mstore\n      0x20\n      add\n        /* \"contracts/Projet_Blockchain/test.sol\":1914:1919  _name */\n      dup6\n        /* \"contracts/Projet_Blockchain/test.sol\":1901:1954  Student(_id, _name, _surname, _gender, 0, msg.sender) */\n      dup2\n      mstore\n      0x20\n      add\n        /* \"contracts/Projet_Blockchain/test.sol\":1921:1929  _surname */\n      dup5\n        /* \"contracts/Projet_Blockchain/test.sol\":1901:1954  Student(_id, _name, _surname, _gender, 0, msg.sender) */\n      dup2\n      mstore\n      0x20\n      add\n        /* \"contracts/Projet_Blockchain/test.sol\":1931:1938  _gender */\n      dup4\n        /* \"contracts/Projet_Blockchain/test.sol\":1901:1954  Student(_id, _name, _surname, _gender, 0, msg.sender) */\n      dup2\n      mstore\n      0x20\n      add\n        /* \"contracts/Projet_Blockchain/test.sol\":1940:1941  0 */\n      0x00\n        /* \"contracts/Projet_Blockchain/test.sol\":1901:1954  Student(_id, _name, _surname, _gender, 0, msg.sender) */\n      dup2\n      mstore\n      0x20\n      add\n        /* \"contracts/Projet_Blockchain/test.sol\":1943:1953  msg.sender */\n      caller\n        /* \"contracts/Projet_Blockchain/test.sol\":1901:1954  Student(_id, _name, _surname, _gender, 0, msg.sender) */\n      0xffffffffffffffffffffffffffffffffffffffff\n      and\n      dup2\n      mstore\n      pop\n        /* \"contracts/Projet_Blockchain/test.sol\":1885:1893  students */\n      0x02\n        /* \"contracts/Projet_Blockchain/test.sol\":1885:1898  students[_id] */\n      0x00\n        /* \"contracts/Projet_Blockchain/test.sol\":1894:1897  _id */\n      dup8\n        /* \"contracts/Projet_Blockchain/test.sol\":1885:1898  students[_id] */\n      dup2\n      mstore\n      0x20\n      add\n      swap1\n      dup2\n      mstore\n      0x20\n      add\n      0x00\n      keccak256\n        /* \"contracts/Projet_Blockchain/test.sol\":1885:1954  students[_id] = Student(_id, _name, _surname, _gender, 0, msg.sender) */\n      0x00\n      dup3\n      add\n      mload\n      dup2\n      0x00\n      add\n      sstore\n      0x20\n      dup3\n      add\n      mload\n      dup2\n      0x01\n      add\n      swap1\n      dup2\n      tag_105\n      swap2\n      swap1\n      tag_73\n      jump\t// in\n    tag_105:\n      pop\n      0x40\n      dup3\n      add\n      mload\n      dup2\n      0x02\n      add\n      swap1\n      dup2\n      tag_106\n      swap2\n      swap1\n      tag_73\n      jump\t// in\n    tag_106:\n      pop\n      0x60\n      dup3\n      add\n      mload\n      dup2\n      0x03\n      add\n      swap1\n      dup2\n      tag_107\n      swap2\n      swap1\n      tag_73\n      jump\t// in\n    tag_107:\n      pop\n      0x80\n      dup3\n      add\n      mload\n      dup2\n      0x04\n      add\n      sstore\n      0xa0\n      dup3\n      add\n      mload\n      dup2\n      0x05\n      add\n      exp(0x0100, 0x00)\n      dup2\n      sload\n      dup2\n      0xffffffffffffffffffffffffffffffffffffffff\n      mul\n      not\n      and\n      swap1\n      dup4\n      0xffffffffffffffffffffffffffffffffffffffff\n      and\n      mul\n      or\n      swap1\n      sstore\n      pop\n      swap1\n      pop\n      pop\n        /* \"contracts/Projet_Blockchain/test.sol\":1678:1962  {... */\n      pop\n        /* \"contracts/Projet_Blockchain/test.sol\":1570:1962  function createStudent(uint _id, string memory _name, string memory _surname, string memory _gender) public {... */\n      pop\n      pop\n      pop\n      pop\n      jump\t// out\n        /* \"contracts/Projet_Blockchain/test.sol\":1156:1216  mapping(address => Establishment) public establishmentAdmins */\n    tag_43:\n      mstore(0x20, 0x01)\n      dup1\n      0x00\n      mstore\n      keccak256(0x00, 0x40)\n      0x00\n      swap2\n      pop\n      swap1\n      pop\n      dup1\n      0x00\n      add\n      sload\n      swap1\n      dup1\n      0x01\n      add\n      dup1\n      sload\n      tag_108\n      swap1\n      tag_54\n      jump\t// in\n    tag_108:\n      dup1\n      0x1f\n      add\n      0x20\n      dup1\n      swap2\n      div\n      mul\n      0x20\n      add\n      mload(0x40)\n      swap1\n      dup2\n      add\n      0x40\n      mstore\n      dup1\n      swap3\n      swap2\n      swap1\n      dup2\n      dup2\n      mstore\n      0x20\n      add\n      dup3\n      dup1\n      sload\n      tag_109\n      swap1\n      tag_54\n      jump\t// in\n    tag_109:\n      dup1\n      iszero\n      tag_110\n      jumpi\n      dup1\n      0x1f\n      lt\n      tag_111\n      jumpi\n      0x0100\n      dup1\n      dup4\n      sload\n      div\n      mul\n      dup4\n      mstore\n      swap2\n      0x20\n      add\n      swap2\n      jump(tag_110)\n    tag_111:\n      dup3\n      add\n      swap2\n      swap1\n      0x00\n      mstore\n      keccak256(0x00, 0x20)\n      swap1\n    tag_112:\n      dup2\n      sload\n      dup2\n      mstore\n      swap1\n      0x01\n      add\n      swap1\n      0x20\n      add\n      dup1\n      dup4\n      gt\n      tag_112\n      jumpi\n      dup3\n      swap1\n      sub\n      0x1f\n      and\n      dup3\n      add\n      swap2\n    tag_110:\n      pop\n      pop\n      pop\n      pop\n      pop\n      swap1\n      dup1\n      0x02\n      add\n      dup1\n      sload\n      tag_113\n      swap1\n      tag_54\n      jump\t// in\n    tag_113:\n      dup1\n      0x1f\n      add\n      0x20\n      dup1\n      swap2\n      div\n      mul\n      0x20\n      add\n      mload(0x40)\n      swap1\n      dup2\n      add\n      0x40\n      mstore\n      dup1\n      swap3\n      swap2\n      swap1\n      dup2\n      dup2\n      mstore\n      0x20\n      add\n      dup3\n      dup1\n      sload\n      tag_114\n      swap1\n      tag_54\n      jump\t// in\n    tag_114:\n      dup1\n      iszero\n      tag_115\n      jumpi\n      dup1\n      0x1f\n      lt\n      tag_116\n      jumpi\n      0x0100\n      dup1\n      dup4\n      sload\n      div\n      mul\n      dup4\n      mstore\n      swap2\n      0x20\n      add\n      swap2\n      jump(tag_115)\n    tag_116:\n      dup3\n      add\n      swap2\n      swap1\n      0x00\n      mstore\n      keccak256(0x00, 0x20)\n      swap1\n    tag_117:\n      dup2\n      sload\n      dup2\n      mstore\n      swap1\n      0x01\n      add\n      swap1\n      0x20\n      add\n      dup1\n      dup4\n      gt\n      tag_117\n      jumpi\n      dup3\n      swap1\n      sub\n      0x1f\n      and\n      dup3\n      add\n      swap2\n    tag_115:\n      pop\n      pop\n      pop\n      pop\n      pop\n      swap1\n      dup1\n      0x03\n      add\n      0x00\n      swap1\n      sload\n      swap1\n      0x0100\n      exp\n      swap1\n      div\n      0xffffffffffffffffffffffffffffffffffffffff\n      and\n      swap1\n      pop\n      dup5\n      jump\t// out\n        /* \"contracts/Projet_Blockchain/test.sol\":1970:2558  function addDiploma(uint _id, uint _studentId, string memory _establishmentName, string memory _type, string memory _mention) public {... */\n    tag_48:\n        /* \"contracts/Projet_Blockchain/test.sol\":2114:2149  Establishment storage establishment */\n      0x00\n        /* \"contracts/Projet_Blockchain/test.sol\":2152:2171  establishmentAdmins */\n      0x01\n        /* \"contracts/Projet_Blockchain/test.sol\":2152:2183  establishmentAdmins[msg.sender] */\n      0x00\n        /* \"contracts/Projet_Blockchain/test.sol\":2172:2182  msg.sender */\n      caller\n        /* \"contracts/Projet_Blockchain/test.sol\":2152:2183  establishmentAdmins[msg.sender] */\n      0xffffffffffffffffffffffffffffffffffffffff\n      and\n      0xffffffffffffffffffffffffffffffffffffffff\n      and\n      dup2\n      mstore\n      0x20\n      add\n      swap1\n      dup2\n      mstore\n      0x20\n      add\n      0x00\n      keccak256\n        /* \"contracts/Projet_Blockchain/test.sol\":2114:2183  Establishment storage establishment = establishmentAdmins[msg.sender] */\n      swap1\n      pop\n        /* \"contracts/Projet_Blockchain/test.sol\":2221:2222  0 */\n      0x00\n        /* \"contracts/Projet_Blockchain/test.sol\":2202:2215  establishment */\n      dup2\n        /* \"contracts/Projet_Blockchain/test.sol\":2202:2218  establishment.id */\n      0x00\n      add\n      sload\n        /* \"contracts/Projet_Blockchain/test.sol\":2202:2222  establishment.id > 0 */\n      gt\n        /* \"contracts/Projet_Blockchain/test.sol\":2194:2301  require(establishment.id > 0 /*\"L'établissement n'existe pas ou n'a pas le droit d'ajouter un diplôme\"*/) */\n      tag_119\n      jumpi\n      0x00\n      dup1\n      revert\n    tag_119:\n        /* \"contracts/Projet_Blockchain/test.sol\":2357:2367  msg.sender */\n      caller\n        /* \"contracts/Projet_Blockchain/test.sol\":2320:2367  students[_studentId].profileAgent == msg.sender */\n      0xffffffffffffffffffffffffffffffffffffffff\n      and\n        /* \"contracts/Projet_Blockchain/test.sol\":2320:2328  students */\n      0x02\n        /* \"contracts/Projet_Blockchain/test.sol\":2320:2340  students[_studentId] */\n      0x00\n        /* \"contracts/Projet_Blockchain/test.sol\":2329:2339  _studentId */\n      dup8\n        /* \"contracts/Projet_Blockchain/test.sol\":2320:2340  students[_studentId] */\n      dup2\n      mstore\n      0x20\n      add\n      swap1\n      dup2\n      mstore\n      0x20\n      add\n      0x00\n      keccak256\n        /* \"contracts/Projet_Blockchain/test.sol\":2320:2353  students[_studentId].profileAgent */\n      0x05\n      add\n      0x00\n      swap1\n      sload\n      swap1\n      0x0100\n      exp\n      swap1\n      div\n      0xffffffffffffffffffffffffffffffffffffffff\n      and\n        /* \"contracts/Projet_Blockchain/test.sol\":2320:2367  students[_studentId].profileAgent == msg.sender */\n      0xffffffffffffffffffffffffffffffffffffffff\n      and\n      eq\n        /* \"contracts/Projet_Blockchain/test.sol\":2312:2444  require(students[_studentId].profileAgent == msg.sender /*\"Seul l'établissement qui a créé le profil peut ajouter un diplôme\"*/) */\n      tag_120\n      jumpi\n      0x00\n      dup1\n      revert\n    tag_120:\n        /* \"contracts/Projet_Blockchain/test.sol\":2471:2550  Diploma(_id, _studentId, establishment.id, _establishmentName, _type, _mention) */\n      mload(0x40)\n      dup1\n      0xc0\n      add\n      0x40\n      mstore\n      dup1\n        /* \"contracts/Projet_Blockchain/test.sol\":2479:2482  _id */\n      dup8\n        /* \"contracts/Projet_Blockchain/test.sol\":2471:2550  Diploma(_id, _studentId, establishment.id, _establishmentName, _type, _mention) */\n      dup2\n      mstore\n      0x20\n      add\n        /* \"contracts/Projet_Blockchain/test.sol\":2484:2494  _studentId */\n      dup7\n        /* \"contracts/Projet_Blockchain/test.sol\":2471:2550  Diploma(_id, _studentId, establishment.id, _establishmentName, _type, _mention) */\n      dup2\n      mstore\n      0x20\n      add\n        /* \"contracts/Projet_Blockchain/test.sol\":2496:2509  establishment */\n      dup3\n        /* \"contracts/Projet_Blockchain/test.sol\":2496:2512  establishment.id */\n      0x00\n      add\n      sload\n        /* \"contracts/Projet_Blockchain/test.sol\":2471:2550  Diploma(_id, _studentId, establishment.id, _establishmentName, _type, _mention) */\n      dup2\n      mstore\n      0x20\n      add\n        /* \"contracts/Projet_Blockchain/test.sol\":2514:2532  _establishmentName */\n      dup6\n        /* \"contracts/Projet_Blockchain/test.sol\":2471:2550  Diploma(_id, _studentId, establishment.id, _establishmentName, _type, _mention) */\n      dup2\n      mstore\n      0x20\n      add\n        /* \"contracts/Projet_Blockchain/test.sol\":2534:2539  _type */\n      dup5\n        /* \"contracts/Projet_Blockchain/test.sol\":2471:2550  Diploma(_id, _studentId, establishment.id, _establishmentName, _type, _mention) */\n      dup2\n      mstore\n      0x20\n      add\n        /* \"contracts/Projet_Blockchain/test.sol\":2541:2549  _mention */\n      dup4\n        /* \"contracts/Projet_Blockchain/test.sol\":2471:2550  Diploma(_id, _studentId, establishment.id, _establishmentName, _type, _mention) */\n      dup2\n      mstore\n      pop\n        /* \"contracts/Projet_Blockchain/test.sol\":2455:2463  diplomas */\n      0x03\n        /* \"contracts/Projet_Blockchain/test.sol\":2455:2468  diplomas[_id] */\n      0x00\n        /* \"contracts/Projet_Blockchain/test.sol\":2464:2467  _id */\n      dup9\n        /* \"contracts/Projet_Blockchain/test.sol\":2455:2468  diplomas[_id] */\n      dup2\n      mstore\n      0x20\n      add\n      swap1\n      dup2\n      mstore\n      0x20\n      add\n      0x00\n      keccak256\n        /* \"contracts/Projet_Blockchain/test.sol\":2455:2550  diplomas[_id] = Diploma(_id, _studentId, establishment.id, _establishmentName, _type, _mention) */\n      0x00\n      dup3\n      add\n      mload\n      dup2\n      0x00\n      add\n      sstore\n      0x20\n      dup3\n      add\n      mload\n      dup2\n      0x01\n      add\n      sstore\n      0x40\n      dup3\n      add\n      mload\n      dup2\n      0x02\n      add\n      sstore\n      0x60\n      dup3\n      add\n      mload\n      dup2\n      0x03\n      add\n      swap1\n      dup2\n      tag_121\n      swap2\n      swap1\n      tag_73\n      jump\t// in\n    tag_121:\n      pop\n      0x80\n      dup3\n      add\n      mload\n      dup2\n      0x04\n      add\n      swap1\n      dup2\n      tag_122\n      swap2\n      swap1\n      tag_73\n      jump\t// in\n    tag_122:\n      pop\n      0xa0\n      dup3\n      add\n      mload\n      dup2\n      0x05\n      add\n      swap1\n      dup2\n      tag_123\n      swap2\n      swap1\n      tag_73\n      jump\t// in\n    tag_123:\n      pop\n      swap1\n      pop\n      pop\n        /* \"contracts/Projet_Blockchain/test.sol\":2103:2558  {... */\n      pop\n        /* \"contracts/Projet_Blockchain/test.sol\":1970:2558  function addDiploma(uint _id, uint _studentId, string memory _establishmentName, string memory _type, string memory _mention) public {... */\n      pop\n      pop\n      pop\n      pop\n      pop\n      jump\t// out\n        /* \"contracts/Projet_Blockchain/test.sol\":93:113  address public admin */\n    tag_50:\n      0x00\n      dup1\n      sload\n      swap1\n      0x0100\n      exp\n      swap1\n      div\n      0xffffffffffffffffffffffffffffffffffffffff\n      and\n      dup2\n      jump\t// out\n        /* \"#utility.yul\":7:82   */\n    tag_124:\n        /* \"#utility.yul\":40:46   */\n      0x00\n        /* \"#utility.yul\":73:75   */\n      0x40\n        /* \"#utility.yul\":67:76   */\n      mload\n        /* \"#utility.yul\":57:76   */\n      swap1\n      pop\n        /* \"#utility.yul\":7:82   */\n      swap1\n      jump\t// out\n        /* \"#utility.yul\":88:205   */\n    tag_125:\n        /* \"#utility.yul\":197:198   */\n      0x00\n        /* \"#utility.yul\":194:195   */\n      dup1\n        /* \"#utility.yul\":187:199   */\n      revert\n        /* \"#utility.yul\":211:328   */\n    tag_126:\n        /* \"#utility.yul\":320:321   */\n      0x00\n        /* \"#utility.yul\":317:318   */\n      dup1\n        /* \"#utility.yul\":310:322   */\n      revert\n        /* \"#utility.yul\":334:411   */\n    tag_127:\n        /* \"#utility.yul\":371:378   */\n      0x00\n        /* \"#utility.yul\":400:405   */\n      dup2\n        /* \"#utility.yul\":389:405   */\n      swap1\n      pop\n        /* \"#utility.yul\":334:411   */\n      swap2\n      swap1\n      pop\n      jump\t// out\n        /* \"#utility.yul\":417:539   */\n    tag_128:\n        /* \"#utility.yul\":490:514   */\n      tag_172\n        /* \"#utility.yul\":508:513   */\n      dup2\n        /* \"#utility.yul\":490:514   */\n      tag_127\n      jump\t// in\n    tag_172:\n        /* \"#utility.yul\":483:488   */\n      dup2\n        /* \"#utility.yul\":480:515   */\n      eq\n        /* \"#utility.yul\":470:533   */\n      tag_173\n      jumpi\n        /* \"#utility.yul\":529:530   */\n      0x00\n        /* \"#utility.yul\":526:527   */\n      dup1\n        /* \"#utility.yul\":519:531   */\n      revert\n        /* \"#utility.yul\":470:533   */\n    tag_173:\n        /* \"#utility.yul\":417:539   */\n      pop\n      jump\t// out\n        /* \"#utility.yul\":545:684   */\n    tag_129:\n        /* \"#utility.yul\":591:596   */\n      0x00\n        /* \"#utility.yul\":629:635   */\n      dup2\n        /* \"#utility.yul\":616:636   */\n      calldataload\n        /* \"#utility.yul\":607:636   */\n      swap1\n      pop\n        /* \"#utility.yul\":645:678   */\n      tag_175\n        /* \"#utility.yul\":672:677   */\n      dup2\n        /* \"#utility.yul\":645:678   */\n      tag_128\n      jump\t// in\n    tag_175:\n        /* \"#utility.yul\":545:684   */\n      swap3\n      swap2\n      pop\n      pop\n      jump\t// out\n        /* \"#utility.yul\":690:1019   */\n    tag_15:\n        /* \"#utility.yul\":749:755   */\n      0x00\n        /* \"#utility.yul\":798:800   */\n      0x20\n        /* \"#utility.yul\":786:795   */\n      dup3\n        /* \"#utility.yul\":777:784   */\n      dup5\n        /* \"#utility.yul\":773:796   */\n      sub\n        /* \"#utility.yul\":769:801   */\n      slt\n        /* \"#utility.yul\":766:885   */\n      iszero\n      tag_177\n      jumpi\n        /* \"#utility.yul\":804:883   */\n      tag_178\n      tag_125\n      jump\t// in\n    tag_178:\n        /* \"#utility.yul\":766:885   */\n    tag_177:\n        /* \"#utility.yul\":924:925   */\n      0x00\n        /* \"#utility.yul\":949:1002   */\n      tag_179\n        /* \"#utility.yul\":994:1001   */\n      dup5\n        /* \"#utility.yul\":985:991   */\n      dup3\n        /* \"#utility.yul\":974:983   */\n      dup6\n        /* \"#utility.yul\":970:992   */\n      add\n        /* \"#utility.yul\":949:1002   */\n      tag_129\n      jump\t// in\n    tag_179:\n        /* \"#utility.yul\":939:1002   */\n      swap2\n      pop\n        /* \"#utility.yul\":895:1012   */\n      pop\n        /* \"#utility.yul\":690:1019   */\n      swap3\n      swap2\n      pop\n      pop\n      jump\t// out\n        /* \"#utility.yul\":1025:1143   */\n    tag_130:\n        /* \"#utility.yul\":1112:1136   */\n      tag_181\n        /* \"#utility.yul\":1130:1135   */\n      dup2\n        /* \"#utility.yul\":1112:1136   */\n      tag_127\n      jump\t// in\n    tag_181:\n        /* \"#utility.yul\":1107:1110   */\n      dup3\n        /* \"#utility.yul\":1100:1137   */\n      mstore\n        /* \"#utility.yul\":1025:1143   */\n      pop\n      pop\n      jump\t// out\n        /* \"#utility.yul\":1149:1248   */\n    tag_131:\n        /* \"#utility.yul\":1201:1207   */\n      0x00\n        /* \"#utility.yul\":1235:1240   */\n      dup2\n        /* \"#utility.yul\":1229:1241   */\n      mload\n        /* \"#utility.yul\":1219:1241   */\n      swap1\n      pop\n        /* \"#utility.yul\":1149:1248   */\n      swap2\n      swap1\n      pop\n      jump\t// out\n        /* \"#utility.yul\":1254:1423   */\n    tag_132:\n        /* \"#utility.yul\":1338:1349   */\n      0x00\n        /* \"#utility.yul\":1372:1378   */\n      dup3\n        /* \"#utility.yul\":1367:1370   */\n      dup3\n        /* \"#utility.yul\":1360:1379   */\n      mstore\n        /* \"#utility.yul\":1412:1416   */\n      0x20\n        /* \"#utility.yul\":1407:1410   */\n      dup3\n        /* \"#utility.yul\":1403:1417   */\n      add\n        /* \"#utility.yul\":1388:1417   */\n      swap1\n      pop\n        /* \"#utility.yul\":1254:1423   */\n      swap3\n      swap2\n      pop\n      pop\n      jump\t// out\n        /* \"#utility.yul\":1429:1675   */\n    tag_133:\n        /* \"#utility.yul\":1510:1511   */\n      0x00\n        /* \"#utility.yul\":1520:1633   */\n    tag_185:\n        /* \"#utility.yul\":1534:1540   */\n      dup4\n        /* \"#utility.yul\":1531:1532   */\n      dup2\n        /* \"#utility.yul\":1528:1541   */\n      lt\n        /* \"#utility.yul\":1520:1633   */\n      iszero\n      tag_187\n      jumpi\n        /* \"#utility.yul\":1619:1620   */\n      dup1\n        /* \"#utility.yul\":1614:1617   */\n      dup3\n        /* \"#utility.yul\":1610:1621   */\n      add\n        /* \"#utility.yul\":1604:1622   */\n      mload\n        /* \"#utility.yul\":1600:1601   */\n      dup2\n        /* \"#utility.yul\":1595:1598   */\n      dup5\n        /* \"#utility.yul\":1591:1602   */\n      add\n        /* \"#utility.yul\":1584:1623   */\n      mstore\n        /* \"#utility.yul\":1556:1558   */\n      0x20\n        /* \"#utility.yul\":1553:1554   */\n      dup2\n        /* \"#utility.yul\":1549:1559   */\n      add\n        /* \"#utility.yul\":1544:1559   */\n      swap1\n      pop\n        /* \"#utility.yul\":1520:1633   */\n      jump(tag_185)\n    tag_187:\n        /* \"#utility.yul\":1667:1668   */\n      0x00\n        /* \"#utility.yul\":1658:1664   */\n      dup5\n        /* \"#utility.yul\":1653:1656   */\n      dup5\n        /* \"#utility.yul\":1649:1665   */\n      add\n        /* \"#utility.yul\":1642:1669   */\n      mstore\n        /* \"#utility.yul\":1491:1675   */\n      pop\n        /* \"#utility.yul\":1429:1675   */\n      pop\n      pop\n      pop\n      jump\t// out\n        /* \"#utility.yul\":1681:1783   */\n    tag_134:\n        /* \"#utility.yul\":1722:1728   */\n      0x00\n        /* \"#utility.yul\":1773:1775   */\n      0x1f\n        /* \"#utility.yul\":1769:1776   */\n      not\n        /* \"#utility.yul\":1764:1766   */\n      0x1f\n        /* \"#utility.yul\":1757:1762   */\n      dup4\n        /* \"#utility.yul\":1753:1767   */\n      add\n        /* \"#utility.yul\":1749:1777   */\n      and\n        /* \"#utility.yul\":1739:1777   */\n      swap1\n      pop\n        /* \"#utility.yul\":1681:1783   */\n      swap2\n      swap1\n      pop\n      jump\t// out\n        /* \"#utility.yul\":1789:2166   */\n    tag_135:\n        /* \"#utility.yul\":1877:1880   */\n      0x00\n        /* \"#utility.yul\":1905:1944   */\n      tag_190\n        /* \"#utility.yul\":1938:1943   */\n      dup3\n        /* \"#utility.yul\":1905:1944   */\n      tag_131\n      jump\t// in\n    tag_190:\n        /* \"#utility.yul\":1960:2031   */\n      tag_191\n        /* \"#utility.yul\":2024:2030   */\n      dup2\n        /* \"#utility.yul\":2019:2022   */\n      dup6\n        /* \"#utility.yul\":1960:2031   */\n      tag_132\n      jump\t// in\n    tag_191:\n        /* \"#utility.yul\":1953:2031   */\n      swap4\n      pop\n        /* \"#utility.yul\":2040:2105   */\n      tag_192\n        /* \"#utility.yul\":2098:2104   */\n      dup2\n        /* \"#utility.yul\":2093:2096   */\n      dup6\n        /* \"#utility.yul\":2086:2090   */\n      0x20\n        /* \"#utility.yul\":2079:2084   */\n      dup7\n        /* \"#utility.yul\":2075:2091   */\n      add\n        /* \"#utility.yul\":2040:2105   */\n      tag_133\n      jump\t// in\n    tag_192:\n        /* \"#utility.yul\":2130:2159   */\n      tag_193\n        /* \"#utility.yul\":2152:2158   */\n      dup2\n        /* \"#utility.yul\":2130:2159   */\n      tag_134\n      jump\t// in\n    tag_193:\n        /* \"#utility.yul\":2125:2128   */\n      dup5\n        /* \"#utility.yul\":2121:2160   */\n      add\n        /* \"#utility.yul\":2114:2160   */\n      swap2\n      pop\n        /* \"#utility.yul\":1881:2166   */\n      pop\n        /* \"#utility.yul\":1789:2166   */\n      swap3\n      swap2\n      pop\n      pop\n      jump\t// out\n        /* \"#utility.yul\":2172:2298   */\n    tag_136:\n        /* \"#utility.yul\":2209:2216   */\n      0x00\n        /* \"#utility.yul\":2249:2291   */\n      0xffffffffffffffffffffffffffffffffffffffff\n        /* \"#utility.yul\":2242:2247   */\n      dup3\n        /* \"#utility.yul\":2238:2292   */\n      and\n        /* \"#utility.yul\":2227:2292   */\n      swap1\n      pop\n        /* \"#utility.yul\":2172:2298   */\n      swap2\n      swap1\n      pop\n      jump\t// out\n        /* \"#utility.yul\":2304:2400   */\n    tag_137:\n        /* \"#utility.yul\":2341:2348   */\n      0x00\n        /* \"#utility.yul\":2370:2394   */\n      tag_196\n        /* \"#utility.yul\":2388:2393   */\n      dup3\n        /* \"#utility.yul\":2370:2394   */\n      tag_136\n      jump\t// in\n    tag_196:\n        /* \"#utility.yul\":2359:2394   */\n      swap1\n      pop\n        /* \"#utility.yul\":2304:2400   */\n      swap2\n      swap1\n      pop\n      jump\t// out\n        /* \"#utility.yul\":2406:2524   */\n    tag_138:\n        /* \"#utility.yul\":2493:2517   */\n      tag_198\n        /* \"#utility.yul\":2511:2516   */\n      dup2\n        /* \"#utility.yul\":2493:2517   */\n      tag_137\n      jump\t// in\n    tag_198:\n        /* \"#utility.yul\":2488:2491   */\n      dup3\n        /* \"#utility.yul\":2481:2518   */\n      mstore\n        /* \"#utility.yul\":2406:2524   */\n      pop\n      pop\n      jump\t// out\n        /* \"#utility.yul\":2530:3578   */\n    tag_18:\n        /* \"#utility.yul\":2823:2827   */\n      0x00\n        /* \"#utility.yul\":2861:2864   */\n      0xc0\n        /* \"#utility.yul\":2850:2859   */\n      dup3\n        /* \"#utility.yul\":2846:2865   */\n      add\n        /* \"#utility.yul\":2838:2865   */\n      swap1\n      pop\n        /* \"#utility.yul\":2875:2946   */\n      tag_200\n        /* \"#utility.yul\":2943:2944   */\n      0x00\n        /* \"#utility.yul\":2932:2941   */\n      dup4\n        /* \"#utility.yul\":2928:2945   */\n      add\n        /* \"#utility.yul\":2919:2925   */\n      dup10\n        /* \"#utility.yul\":2875:2946   */\n      tag_130\n      jump\t// in\n    tag_200:\n        /* \"#utility.yul\":2993:3002   */\n      dup2\n        /* \"#utility.yul\":2987:2991   */\n      dup2\n        /* \"#utility.yul\":2983:3003   */\n      sub\n        /* \"#utility.yul\":2978:2980   */\n      0x20\n        /* \"#utility.yul\":2967:2976   */\n      dup4\n        /* \"#utility.yul\":2963:2981   */\n      add\n        /* \"#utility.yul\":2956:3004   */\n      mstore\n        /* \"#utility.yul\":3021:3099   */\n      tag_201\n        /* \"#utility.yul\":3094:3098   */\n      dup2\n        /* \"#utility.yul\":3085:3091   */\n      dup9\n        /* \"#utility.yul\":3021:3099   */\n      tag_135\n      jump\t// in\n    tag_201:\n        /* \"#utility.yul\":3013:3099   */\n      swap1\n      pop\n        /* \"#utility.yul\":3146:3155   */\n      dup2\n        /* \"#utility.yul\":3140:3144   */\n      dup2\n        /* \"#utility.yul\":3136:3156   */\n      sub\n        /* \"#utility.yul\":3131:3133   */\n      0x40\n        /* \"#utility.yul\":3120:3129   */\n      dup4\n        /* \"#utility.yul\":3116:3134   */\n      add\n        /* \"#utility.yul\":3109:3157   */\n      mstore\n        /* \"#utility.yul\":3174:3252   */\n      tag_202\n        /* \"#utility.yul\":3247:3251   */\n      dup2\n        /* \"#utility.yul\":3238:3244   */\n      dup8\n        /* \"#utility.yul\":3174:3252   */\n      tag_135\n      jump\t// in\n    tag_202:\n        /* \"#utility.yul\":3166:3252   */\n      swap1\n      pop\n        /* \"#utility.yul\":3299:3308   */\n      dup2\n        /* \"#utility.yul\":3293:3297   */\n      dup2\n        /* \"#utility.yul\":3289:3309   */\n      sub\n        /* \"#utility.yul\":3284:3286   */\n      0x60\n        /* \"#utility.yul\":3273:3282   */\n      dup4\n        /* \"#utility.yul\":3269:3287   */\n      add\n        /* \"#utility.yul\":3262:3310   */\n      mstore\n        /* \"#utility.yul\":3327:3405   */\n      tag_203\n        /* \"#utility.yul\":3400:3404   */\n      dup2\n        /* \"#utility.yul\":3391:3397   */\n      dup7\n        /* \"#utility.yul\":3327:3405   */\n      tag_135\n      jump\t// in\n    tag_203:\n        /* \"#utility.yul\":3319:3405   */\n      swap1\n      pop\n        /* \"#utility.yul\":3415:3488   */\n      tag_204\n        /* \"#utility.yul\":3483:3486   */\n      0x80\n        /* \"#utility.yul\":3472:3481   */\n      dup4\n        /* \"#utility.yul\":3468:3487   */\n      add\n        /* \"#utility.yul\":3459:3465   */\n      dup6\n        /* \"#utility.yul\":3415:3488   */\n      tag_130\n      jump\t// in\n    tag_204:\n        /* \"#utility.yul\":3498:3571   */\n      tag_205\n        /* \"#utility.yul\":3566:3569   */\n      0xa0\n        /* \"#utility.yul\":3555:3564   */\n      dup4\n        /* \"#utility.yul\":3551:3570   */\n      add\n        /* \"#utility.yul\":3542:3548   */\n      dup5\n        /* \"#utility.yul\":3498:3571   */\n      tag_138\n      jump\t// in\n    tag_205:\n        /* \"#utility.yul\":2530:3578   */\n      swap8\n      swap7\n      pop\n      pop\n      pop\n      pop\n      pop\n      pop\n      pop\n      jump\t// out\n        /* \"#utility.yul\":3584:3701   */\n    tag_139:\n        /* \"#utility.yul\":3693:3694   */\n      0x00\n        /* \"#utility.yul\":3690:3691   */\n      dup1\n        /* \"#utility.yul\":3683:3695   */\n      revert\n        /* \"#utility.yul\":3707:3824   */\n    tag_140:\n        /* \"#utility.yul\":3816:3817   */\n      0x00\n        /* \"#utility.yul\":3813:3814   */\n      dup1\n        /* \"#utility.yul\":3806:3818   */\n      revert\n        /* \"#utility.yul\":3830:4010   */\n    tag_141:\n        /* \"#utility.yul\":3878:3955   */\n      0x4e487b7100000000000000000000000000000000000000000000000000000000\n        /* \"#utility.yul\":3875:3876   */\n      0x00\n        /* \"#utility.yul\":3868:3956   */\n      mstore\n        /* \"#utility.yul\":3975:3979   */\n      0x41\n        /* \"#utility.yul\":3972:3973   */\n      0x04\n        /* \"#utility.yul\":3965:3980   */\n      mstore\n        /* \"#utility.yul\":3999:4003   */\n      0x24\n        /* \"#utility.yul\":3996:3997   */\n      0x00\n        /* \"#utility.yul\":3989:4004   */\n      revert\n        /* \"#utility.yul\":4016:4297   */\n    tag_142:\n        /* \"#utility.yul\":4099:4126   */\n      tag_210\n        /* \"#utility.yul\":4121:4125   */\n      dup3\n        /* \"#utility.yul\":4099:4126   */\n      tag_134\n      jump\t// in\n    tag_210:\n        /* \"#utility.yul\":4091:4097   */\n      dup2\n        /* \"#utility.yul\":4087:4127   */\n      add\n        /* \"#utility.yul\":4229:4235   */\n      dup2\n        /* \"#utility.yul\":4217:4227   */\n      dup2\n        /* \"#utility.yul\":4214:4236   */\n      lt\n        /* \"#utility.yul\":4193:4211   */\n      0xffffffffffffffff\n        /* \"#utility.yul\":4181:4191   */\n      dup3\n        /* \"#utility.yul\":4178:4212   */\n      gt\n        /* \"#utility.yul\":4175:4237   */\n      or\n        /* \"#utility.yul\":4172:4260   */\n      iszero\n      tag_211\n      jumpi\n        /* \"#utility.yul\":4240:4258   */\n      tag_212\n      tag_141\n      jump\t// in\n    tag_212:\n        /* \"#utility.yul\":4172:4260   */\n    tag_211:\n        /* \"#utility.yul\":4280:4290   */\n      dup1\n        /* \"#utility.yul\":4276:4278   */\n      0x40\n        /* \"#utility.yul\":4269:4291   */\n      mstore\n        /* \"#utility.yul\":4059:4297   */\n      pop\n        /* \"#utility.yul\":4016:4297   */\n      pop\n      pop\n      jump\t// out\n        /* \"#utility.yul\":4303:4432   */\n    tag_143:\n        /* \"#utility.yul\":4337:4343   */\n      0x00\n        /* \"#utility.yul\":4364:4384   */\n      tag_214\n      tag_124\n      jump\t// in\n    tag_214:\n        /* \"#utility.yul\":4354:4384   */\n      swap1\n      pop\n        /* \"#utility.yul\":4393:4426   */\n      tag_215\n        /* \"#utility.yul\":4421:4425   */\n      dup3\n        /* \"#utility.yul\":4413:4419   */\n      dup3\n        /* \"#utility.yul\":4393:4426   */\n      tag_142\n      jump\t// in\n    tag_215:\n        /* \"#utility.yul\":4303:4432   */\n      swap2\n      swap1\n      pop\n      jump\t// out\n        /* \"#utility.yul\":4438:4746   */\n    tag_144:\n        /* \"#utility.yul\":4500:4504   */\n      0x00\n        /* \"#utility.yul\":4590:4608   */\n      0xffffffffffffffff\n        /* \"#utility.yul\":4582:4588   */\n      dup3\n        /* \"#utility.yul\":4579:4609   */\n      gt\n        /* \"#utility.yul\":4576:4632   */\n      iszero\n      tag_217\n      jumpi\n        /* \"#utility.yul\":4612:4630   */\n      tag_218\n      tag_141\n      jump\t// in\n    tag_218:\n        /* \"#utility.yul\":4576:4632   */\n    tag_217:\n        /* \"#utility.yul\":4650:4679   */\n      tag_219\n        /* \"#utility.yul\":4672:4678   */\n      dup3\n        /* \"#utility.yul\":4650:4679   */\n      tag_134\n      jump\t// in\n    tag_219:\n        /* \"#utility.yul\":4642:4679   */\n      swap1\n      pop\n        /* \"#utility.yul\":4734:4738   */\n      0x20\n        /* \"#utility.yul\":4728:4732   */\n      dup2\n        /* \"#utility.yul\":4724:4739   */\n      add\n        /* \"#utility.yul\":4716:4739   */\n      swap1\n      pop\n        /* \"#utility.yul\":4438:4746   */\n      swap2\n      swap1\n      pop\n      jump\t// out\n        /* \"#utility.yul\":4752:4898   */\n    tag_145:\n        /* \"#utility.yul\":4849:4855   */\n      dup3\n        /* \"#utility.yul\":4844:4847   */\n      dup2\n        /* \"#utility.yul\":4839:4842   */\n      dup4\n        /* \"#utility.yul\":4826:4856   */\n      calldatacopy\n        /* \"#utility.yul\":4890:4891   */\n      0x00\n        /* \"#utility.yul\":4881:4887   */\n      dup4\n        /* \"#utility.yul\":4876:4879   */\n      dup4\n        /* \"#utility.yul\":4872:4888   */\n      add\n        /* \"#utility.yul\":4865:4892   */\n      mstore\n        /* \"#utility.yul\":4752:4898   */\n      pop\n      pop\n      pop\n      jump\t// out\n        /* \"#utility.yul\":4904:5329   */\n    tag_146:\n        /* \"#utility.yul\":4982:4987   */\n      0x00\n        /* \"#utility.yul\":5007:5073   */\n      tag_222\n        /* \"#utility.yul\":5023:5072   */\n      tag_223\n        /* \"#utility.yul\":5065:5071   */\n      dup5\n        /* \"#utility.yul\":5023:5072   */\n      tag_144\n      jump\t// in\n    tag_223:\n        /* \"#utility.yul\":5007:5073   */\n      tag_143\n      jump\t// in\n    tag_222:\n        /* \"#utility.yul\":4998:5073   */\n      swap1\n      pop\n        /* \"#utility.yul\":5096:5102   */\n      dup3\n        /* \"#utility.yul\":5089:5094   */\n      dup2\n        /* \"#utility.yul\":5082:5103   */\n      mstore\n        /* \"#utility.yul\":5134:5138   */\n      0x20\n        /* \"#utility.yul\":5127:5132   */\n      dup2\n        /* \"#utility.yul\":5123:5139   */\n      add\n        /* \"#utility.yul\":5172:5175   */\n      dup5\n        /* \"#utility.yul\":5163:5169   */\n      dup5\n        /* \"#utility.yul\":5158:5161   */\n      dup5\n        /* \"#utility.yul\":5154:5170   */\n      add\n        /* \"#utility.yul\":5151:5176   */\n      gt\n        /* \"#utility.yul\":5148:5260   */\n      iszero\n      tag_224\n      jumpi\n        /* \"#utility.yul\":5179:5258   */\n      tag_225\n      tag_140\n      jump\t// in\n    tag_225:\n        /* \"#utility.yul\":5148:5260   */\n    tag_224:\n        /* \"#utility.yul\":5269:5323   */\n      tag_226\n        /* \"#utility.yul\":5316:5322   */\n      dup5\n        /* \"#utility.yul\":5311:5314   */\n      dup3\n        /* \"#utility.yul\":5306:5309   */\n      dup6\n        /* \"#utility.yul\":5269:5323   */\n      tag_145\n      jump\t// in\n    tag_226:\n        /* \"#utility.yul\":4988:5329   */\n      pop\n        /* \"#utility.yul\":4904:5329   */\n      swap4\n      swap3\n      pop\n      pop\n      pop\n      jump\t// out\n        /* \"#utility.yul\":5349:5689   */\n    tag_147:\n        /* \"#utility.yul\":5405:5410   */\n      0x00\n        /* \"#utility.yul\":5454:5457   */\n      dup3\n        /* \"#utility.yul\":5447:5451   */\n      0x1f\n        /* \"#utility.yul\":5439:5445   */\n      dup4\n        /* \"#utility.yul\":5435:5452   */\n      add\n        /* \"#utility.yul\":5431:5458   */\n      slt\n        /* \"#utility.yul\":5421:5543   */\n      tag_228\n      jumpi\n        /* \"#utility.yul\":5462:5541   */\n      tag_229\n      tag_139\n      jump\t// in\n    tag_229:\n        /* \"#utility.yul\":5421:5543   */\n    tag_228:\n        /* \"#utility.yul\":5579:5585   */\n      dup2\n        /* \"#utility.yul\":5566:5586   */\n      calldataload\n        /* \"#utility.yul\":5604:5683   */\n      tag_230\n        /* \"#utility.yul\":5679:5682   */\n      dup5\n        /* \"#utility.yul\":5671:5677   */\n      dup3\n        /* \"#utility.yul\":5664:5668   */\n      0x20\n        /* \"#utility.yul\":5656:5662   */\n      dup7\n        /* \"#utility.yul\":5652:5669   */\n      add\n        /* \"#utility.yul\":5604:5683   */\n      tag_146\n      jump\t// in\n    tag_230:\n        /* \"#utility.yul\":5595:5683   */\n      swap2\n      pop\n        /* \"#utility.yul\":5411:5689   */\n      pop\n        /* \"#utility.yul\":5349:5689   */\n      swap3\n      swap2\n      pop\n      pop\n      jump\t// out\n        /* \"#utility.yul\":5695:6674   */\n    tag_21:\n        /* \"#utility.yul\":5792:5798   */\n      0x00\n        /* \"#utility.yul\":5800:5806   */\n      dup1\n        /* \"#utility.yul\":5808:5814   */\n      0x00\n        /* \"#utility.yul\":5857:5859   */\n      0x60\n        /* \"#utility.yul\":5845:5854   */\n      dup5\n        /* \"#utility.yul\":5836:5843   */\n      dup7\n        /* \"#utility.yul\":5832:5855   */\n      sub\n        /* \"#utility.yul\":5828:5860   */\n      slt\n        /* \"#utility.yul\":5825:5944   */\n      iszero\n      tag_232\n      jumpi\n        /* \"#utility.yul\":5863:5942   */\n      tag_233\n      tag_125\n      jump\t// in\n    tag_233:\n        /* \"#utility.yul\":5825:5944   */\n    tag_232:\n        /* \"#utility.yul\":5983:5984   */\n      0x00\n        /* \"#utility.yul\":6008:6061   */\n      tag_234\n        /* \"#utility.yul\":6053:6060   */\n      dup7\n        /* \"#utility.yul\":6044:6050   */\n      dup3\n        /* \"#utility.yul\":6033:6042   */\n      dup8\n        /* \"#utility.yul\":6029:6051   */\n      add\n        /* \"#utility.yul\":6008:6061   */\n      tag_129\n      jump\t// in\n    tag_234:\n        /* \"#utility.yul\":5998:6061   */\n      swap4\n      pop\n        /* \"#utility.yul\":5954:6071   */\n      pop\n        /* \"#utility.yul\":6138:6140   */\n      0x20\n        /* \"#utility.yul\":6127:6136   */\n      dup5\n        /* \"#utility.yul\":6123:6141   */\n      add\n        /* \"#utility.yul\":6110:6142   */\n      calldataload\n        /* \"#utility.yul\":6169:6187   */\n      0xffffffffffffffff\n        /* \"#utility.yul\":6161:6167   */\n      dup2\n        /* \"#utility.yul\":6158:6188   */\n      gt\n        /* \"#utility.yul\":6155:6272   */\n      iszero\n      tag_235\n      jumpi\n        /* \"#utility.yul\":6191:6270   */\n      tag_236\n      tag_126\n      jump\t// in\n    tag_236:\n        /* \"#utility.yul\":6155:6272   */\n    tag_235:\n        /* \"#utility.yul\":6296:6359   */\n      tag_237\n        /* \"#utility.yul\":6351:6358   */\n      dup7\n        /* \"#utility.yul\":6342:6348   */\n      dup3\n        /* \"#utility.yul\":6331:6340   */\n      dup8\n        /* \"#utility.yul\":6327:6349   */\n      add\n        /* \"#utility.yul\":6296:6359   */\n      tag_147\n      jump\t// in\n    tag_237:\n        /* \"#utility.yul\":6286:6359   */\n      swap3\n      pop\n        /* \"#utility.yul\":6081:6369   */\n      pop\n        /* \"#utility.yul\":6436:6438   */\n      0x40\n        /* \"#utility.yul\":6425:6434   */\n      dup5\n        /* \"#utility.yul\":6421:6439   */\n      add\n        /* \"#utility.yul\":6408:6440   */\n      calldataload\n        /* \"#utility.yul\":6467:6485   */\n      0xffffffffffffffff\n        /* \"#utility.yul\":6459:6465   */\n      dup2\n        /* \"#utility.yul\":6456:6486   */\n      gt\n        /* \"#utility.yul\":6453:6570   */\n      iszero\n      tag_238\n      jumpi\n        /* \"#utility.yul\":6489:6568   */\n      tag_239\n      tag_126\n      jump\t// in\n    tag_239:\n        /* \"#utility.yul\":6453:6570   */\n    tag_238:\n        /* \"#utility.yul\":6594:6657   */\n      tag_240\n        /* \"#utility.yul\":6649:6656   */\n      dup7\n        /* \"#utility.yul\":6640:6646   */\n      dup3\n        /* \"#utility.yul\":6629:6638   */\n      dup8\n        /* \"#utility.yul\":6625:6647   */\n      add\n        /* \"#utility.yul\":6594:6657   */\n      tag_147\n      jump\t// in\n    tag_240:\n        /* \"#utility.yul\":6584:6657   */\n      swap2\n      pop\n        /* \"#utility.yul\":6379:6667   */\n      pop\n        /* \"#utility.yul\":5695:6674   */\n      swap3\n      pop\n      swap3\n      pop\n      swap3\n      jump\t// out\n        /* \"#utility.yul\":6680:7415   */\n    tag_27:\n        /* \"#utility.yul\":6897:6901   */\n      0x00\n        /* \"#utility.yul\":6935:6938   */\n      0x80\n        /* \"#utility.yul\":6924:6933   */\n      dup3\n        /* \"#utility.yul\":6920:6939   */\n      add\n        /* \"#utility.yul\":6912:6939   */\n      swap1\n      pop\n        /* \"#utility.yul\":6949:7020   */\n      tag_242\n        /* \"#utility.yul\":7017:7018   */\n      0x00\n        /* \"#utility.yul\":7006:7015   */\n      dup4\n        /* \"#utility.yul\":7002:7019   */\n      add\n        /* \"#utility.yul\":6993:6999   */\n      dup8\n        /* \"#utility.yul\":6949:7020   */\n      tag_130\n      jump\t// in\n    tag_242:\n        /* \"#utility.yul\":7067:7076   */\n      dup2\n        /* \"#utility.yul\":7061:7065   */\n      dup2\n        /* \"#utility.yul\":7057:7077   */\n      sub\n        /* \"#utility.yul\":7052:7054   */\n      0x20\n        /* \"#utility.yul\":7041:7050   */\n      dup4\n        /* \"#utility.yul\":7037:7055   */\n      add\n        /* \"#utility.yul\":7030:7078   */\n      mstore\n        /* \"#utility.yul\":7095:7173   */\n      tag_243\n        /* \"#utility.yul\":7168:7172   */\n      dup2\n        /* \"#utility.yul\":7159:7165   */\n      dup7\n        /* \"#utility.yul\":7095:7173   */\n      tag_135\n      jump\t// in\n    tag_243:\n        /* \"#utility.yul\":7087:7173   */\n      swap1\n      pop\n        /* \"#utility.yul\":7220:7229   */\n      dup2\n        /* \"#utility.yul\":7214:7218   */\n      dup2\n        /* \"#utility.yul\":7210:7230   */\n      sub\n        /* \"#utility.yul\":7205:7207   */\n      0x40\n        /* \"#utility.yul\":7194:7203   */\n      dup4\n        /* \"#utility.yul\":7190:7208   */\n      add\n        /* \"#utility.yul\":7183:7231   */\n      mstore\n        /* \"#utility.yul\":7248:7326   */\n      tag_244\n        /* \"#utility.yul\":7321:7325   */\n      dup2\n        /* \"#utility.yul\":7312:7318   */\n      dup6\n        /* \"#utility.yul\":7248:7326   */\n      tag_135\n      jump\t// in\n    tag_244:\n        /* \"#utility.yul\":7240:7326   */\n      swap1\n      pop\n        /* \"#utility.yul\":7336:7408   */\n      tag_245\n        /* \"#utility.yul\":7404:7406   */\n      0x60\n        /* \"#utility.yul\":7393:7402   */\n      dup4\n        /* \"#utility.yul\":7389:7407   */\n      add\n        /* \"#utility.yul\":7380:7386   */\n      dup5\n        /* \"#utility.yul\":7336:7408   */\n      tag_138\n      jump\t// in\n    tag_245:\n        /* \"#utility.yul\":6680:7415   */\n      swap6\n      swap5\n      pop\n      pop\n      pop\n      pop\n      pop\n      jump\t// out\n        /* \"#utility.yul\":7421:8469   */\n    tag_35:\n        /* \"#utility.yul\":7714:7718   */\n      0x00\n        /* \"#utility.yul\":7752:7755   */\n      0xc0\n        /* \"#utility.yul\":7741:7750   */\n      dup3\n        /* \"#utility.yul\":7737:7756   */\n      add\n        /* \"#utility.yul\":7729:7756   */\n      swap1\n      pop\n        /* \"#utility.yul\":7766:7837   */\n      tag_247\n        /* \"#utility.yul\":7834:7835   */\n      0x00\n        /* \"#utility.yul\":7823:7832   */\n      dup4\n        /* \"#utility.yul\":7819:7836   */\n      add\n        /* \"#utility.yul\":7810:7816   */\n      dup10\n        /* \"#utility.yul\":7766:7837   */\n      tag_130\n      jump\t// in\n    tag_247:\n        /* \"#utility.yul\":7847:7919   */\n      tag_248\n        /* \"#utility.yul\":7915:7917   */\n      0x20\n        /* \"#utility.yul\":7904:7913   */\n      dup4\n        /* \"#utility.yul\":7900:7918   */\n      add\n        /* \"#utility.yul\":7891:7897   */\n      dup9\n        /* \"#utility.yul\":7847:7919   */\n      tag_130\n      jump\t// in\n    tag_248:\n        /* \"#utility.yul\":7929:8001   */\n      tag_249\n        /* \"#utility.yul\":7997:7999   */\n      0x40\n        /* \"#utility.yul\":7986:7995   */\n      dup4\n        /* \"#utility.yul\":7982:8000   */\n      add\n        /* \"#utility.yul\":7973:7979   */\n      dup8\n        /* \"#utility.yul\":7929:8001   */\n      tag_130\n      jump\t// in\n    tag_249:\n        /* \"#utility.yul\":8048:8057   */\n      dup2\n        /* \"#utility.yul\":8042:8046   */\n      dup2\n        /* \"#utility.yul\":8038:8058   */\n      sub\n        /* \"#utility.yul\":8033:8035   */\n      0x60\n        /* \"#utility.yul\":8022:8031   */\n      dup4\n        /* \"#utility.yul\":8018:8036   */\n      add\n        /* \"#utility.yul\":8011:8059   */\n      mstore\n        /* \"#utility.yul\":8076:8154   */\n      tag_250\n        /* \"#utility.yul\":8149:8153   */\n      dup2\n        /* \"#utility.yul\":8140:8146   */\n      dup7\n        /* \"#utility.yul\":8076:8154   */\n      tag_135\n      jump\t// in\n    tag_250:\n        /* \"#utility.yul\":8068:8154   */\n      swap1\n      pop\n        /* \"#utility.yul\":8202:8211   */\n      dup2\n        /* \"#utility.yul\":8196:8200   */\n      dup2\n        /* \"#utility.yul\":8192:8212   */\n      sub\n        /* \"#utility.yul\":8186:8189   */\n      0x80\n        /* \"#utility.yul\":8175:8184   */\n      dup4\n        /* \"#utility.yul\":8171:8190   */\n      add\n        /* \"#utility.yul\":8164:8213   */\n      mstore\n        /* \"#utility.yul\":8230:8308   */\n      tag_251\n        /* \"#utility.yul\":8303:8307   */\n      dup2\n        /* \"#utility.yul\":8294:8300   */\n      dup6\n        /* \"#utility.yul\":8230:8308   */\n      tag_135\n      jump\t// in\n    tag_251:\n        /* \"#utility.yul\":8222:8308   */\n      swap1\n      pop\n        /* \"#utility.yul\":8356:8365   */\n      dup2\n        /* \"#utility.yul\":8350:8354   */\n      dup2\n        /* \"#utility.yul\":8346:8366   */\n      sub\n        /* \"#utility.yul\":8340:8343   */\n      0xa0\n        /* \"#utility.yul\":8329:8338   */\n      dup4\n        /* \"#utility.yul\":8325:8344   */\n      add\n        /* \"#utility.yul\":8318:8367   */\n      mstore\n        /* \"#utility.yul\":8384:8462   */\n      tag_252\n        /* \"#utility.yul\":8457:8461   */\n      dup2\n        /* \"#utility.yul\":8448:8454   */\n      dup5\n        /* \"#utility.yul\":8384:8462   */\n      tag_135\n      jump\t// in\n    tag_252:\n        /* \"#utility.yul\":8376:8462   */\n      swap1\n      pop\n        /* \"#utility.yul\":7421:8469   */\n      swap8\n      swap7\n      pop\n      pop\n      pop\n      pop\n      pop\n      pop\n      pop\n      jump\t// out\n        /* \"#utility.yul\":8475:9780   */\n    tag_38:\n        /* \"#utility.yul\":8591:8597   */\n      0x00\n        /* \"#utility.yul\":8599:8605   */\n      dup1\n        /* \"#utility.yul\":8607:8613   */\n      0x00\n        /* \"#utility.yul\":8615:8621   */\n      dup1\n        /* \"#utility.yul\":8664:8667   */\n      0x80\n        /* \"#utility.yul\":8652:8661   */\n      dup6\n        /* \"#utility.yul\":8643:8650   */\n      dup8\n        /* \"#utility.yul\":8639:8662   */\n      sub\n        /* \"#utility.yul\":8635:8668   */\n      slt\n        /* \"#utility.yul\":8632:8752   */\n      iszero\n      tag_254\n      jumpi\n        /* \"#utility.yul\":8671:8750   */\n      tag_255\n      tag_125\n      jump\t// in\n    tag_255:\n        /* \"#utility.yul\":8632:8752   */\n    tag_254:\n        /* \"#utility.yul\":8791:8792   */\n      0x00\n        /* \"#utility.yul\":8816:8869   */\n      tag_256\n        /* \"#utility.yul\":8861:8868   */\n      dup8\n        /* \"#utility.yul\":8852:8858   */\n      dup3\n        /* \"#utility.yul\":8841:8850   */\n      dup9\n        /* \"#utility.yul\":8837:8859   */\n      add\n        /* \"#utility.yul\":8816:8869   */\n      tag_129\n      jump\t// in\n    tag_256:\n        /* \"#utility.yul\":8806:8869   */\n      swap5\n      pop\n        /* \"#utility.yul\":8762:8879   */\n      pop\n        /* \"#utility.yul\":8946:8948   */\n      0x20\n        /* \"#utility.yul\":8935:8944   */\n      dup6\n        /* \"#utility.yul\":8931:8949   */\n      add\n        /* \"#utility.yul\":8918:8950   */\n      calldataload\n        /* \"#utility.yul\":8977:8995   */\n      0xffffffffffffffff\n        /* \"#utility.yul\":8969:8975   */\n      dup2\n        /* \"#utility.yul\":8966:8996   */\n      gt\n        /* \"#utility.yul\":8963:9080   */\n      iszero\n      tag_257\n      jumpi\n        /* \"#utility.yul\":8999:9078   */\n      tag_258\n      tag_126\n      jump\t// in\n    tag_258:\n        /* \"#utility.yul\":8963:9080   */\n    tag_257:\n        /* \"#utility.yul\":9104:9167   */\n      tag_259\n        /* \"#utility.yul\":9159:9166   */\n      dup8\n        /* \"#utility.yul\":9150:9156   */\n      dup3\n        /* \"#utility.yul\":9139:9148   */\n      dup9\n        /* \"#utility.yul\":9135:9157   */\n      add\n        /* \"#utility.yul\":9104:9167   */\n      tag_147\n      jump\t// in\n    tag_259:\n        /* \"#utility.yul\":9094:9167   */\n      swap4\n      pop\n        /* \"#utility.yul\":8889:9177   */\n      pop\n        /* \"#utility.yul\":9244:9246   */\n      0x40\n        /* \"#utility.yul\":9233:9242   */\n      dup6\n        /* \"#utility.yul\":9229:9247   */\n      add\n        /* \"#utility.yul\":9216:9248   */\n      calldataload\n        /* \"#utility.yul\":9275:9293   */\n      0xffffffffffffffff\n        /* \"#utility.yul\":9267:9273   */\n      dup2\n        /* \"#utility.yul\":9264:9294   */\n      gt\n        /* \"#utility.yul\":9261:9378   */\n      iszero\n      tag_260\n      jumpi\n        /* \"#utility.yul\":9297:9376   */\n      tag_261\n      tag_126\n      jump\t// in\n    tag_261:\n        /* \"#utility.yul\":9261:9378   */\n    tag_260:\n        /* \"#utility.yul\":9402:9465   */\n      tag_262\n        /* \"#utility.yul\":9457:9464   */\n      dup8\n        /* \"#utility.yul\":9448:9454   */\n      dup3\n        /* \"#utility.yul\":9437:9446   */\n      dup9\n        /* \"#utility.yul\":9433:9455   */\n      add\n        /* \"#utility.yul\":9402:9465   */\n      tag_147\n      jump\t// in\n    tag_262:\n        /* \"#utility.yul\":9392:9465   */\n      swap3\n      pop\n        /* \"#utility.yul\":9187:9475   */\n      pop\n        /* \"#utility.yul\":9542:9544   */\n      0x60\n        /* \"#utility.yul\":9531:9540   */\n      dup6\n        /* \"#utility.yul\":9527:9545   */\n      add\n        /* \"#utility.yul\":9514:9546   */\n      calldataload\n        /* \"#utility.yul\":9573:9591   */\n      0xffffffffffffffff\n        /* \"#utility.yul\":9565:9571   */\n      dup2\n        /* \"#utility.yul\":9562:9592   */\n      gt\n        /* \"#utility.yul\":9559:9676   */\n      iszero\n      tag_263\n      jumpi\n        /* \"#utility.yul\":9595:9674   */\n      tag_264\n      tag_126\n      jump\t// in\n    tag_264:\n        /* \"#utility.yul\":9559:9676   */\n    tag_263:\n        /* \"#utility.yul\":9700:9763   */\n      tag_265\n        /* \"#utility.yul\":9755:9762   */\n      dup8\n        /* \"#utility.yul\":9746:9752   */\n      dup3\n        /* \"#utility.yul\":9735:9744   */\n      dup9\n        /* \"#utility.yul\":9731:9753   */\n      add\n        /* \"#utility.yul\":9700:9763   */\n      tag_147\n      jump\t// in\n    tag_265:\n        /* \"#utility.yul\":9690:9763   */\n      swap2\n      pop\n        /* \"#utility.yul\":9485:9773   */\n      pop\n        /* \"#utility.yul\":8475:9780   */\n      swap3\n      swap6\n      swap2\n      swap5\n      pop\n      swap3\n      pop\n      jump\t// out\n        /* \"#utility.yul\":9786:9908   */\n    tag_148:\n        /* \"#utility.yul\":9859:9883   */\n      tag_267\n        /* \"#utility.yul\":9877:9882   */\n      dup2\n        /* \"#utility.yul\":9859:9883   */\n      tag_137\n      jump\t// in\n    tag_267:\n        /* \"#utility.yul\":9852:9857   */\n      dup2\n        /* \"#utility.yul\":9849:9884   */\n      eq\n        /* \"#utility.yul\":9839:9902   */\n      tag_268\n      jumpi\n        /* \"#utility.yul\":9898:9899   */\n      0x00\n        /* \"#utility.yul\":9895:9896   */\n      dup1\n        /* \"#utility.yul\":9888:9900   */\n      revert\n        /* \"#utility.yul\":9839:9902   */\n    tag_268:\n        /* \"#utility.yul\":9786:9908   */\n      pop\n      jump\t// out\n        /* \"#utility.yul\":9914:10053   */\n    tag_149:\n        /* \"#utility.yul\":9960:9965   */\n      0x00\n        /* \"#utility.yul\":9998:10004   */\n      dup2\n        /* \"#utility.yul\":9985:10005   */\n      calldataload\n        /* \"#utility.yul\":9976:10005   */\n      swap1\n      pop\n        /* \"#utility.yul\":10014:10047   */\n      tag_270\n        /* \"#utility.yul\":10041:10046   */\n      dup2\n        /* \"#utility.yul\":10014:10047   */\n      tag_148\n      jump\t// in\n    tag_270:\n        /* \"#utility.yul\":9914:10053   */\n      swap3\n      swap2\n      pop\n      pop\n      jump\t// out\n        /* \"#utility.yul\":10059:10388   */\n    tag_42:\n        /* \"#utility.yul\":10118:10124   */\n      0x00\n        /* \"#utility.yul\":10167:10169   */\n      0x20\n        /* \"#utility.yul\":10155:10164   */\n      dup3\n        /* \"#utility.yul\":10146:10153   */\n      dup5\n        /* \"#utility.yul\":10142:10165   */\n      sub\n        /* \"#utility.yul\":10138:10170   */\n      slt\n        /* \"#utility.yul\":10135:10254   */\n      iszero\n      tag_272\n      jumpi\n        /* \"#utility.yul\":10173:10252   */\n      tag_273\n      tag_125\n      jump\t// in\n    tag_273:\n        /* \"#utility.yul\":10135:10254   */\n    tag_272:\n        /* \"#utility.yul\":10293:10294   */\n      0x00\n        /* \"#utility.yul\":10318:10371   */\n      tag_274\n        /* \"#utility.yul\":10363:10370   */\n      dup5\n        /* \"#utility.yul\":10354:10360   */\n      dup3\n        /* \"#utility.yul\":10343:10352   */\n      dup6\n        /* \"#utility.yul\":10339:10361   */\n      add\n        /* \"#utility.yul\":10318:10371   */\n      tag_149\n      jump\t// in\n    tag_274:\n        /* \"#utility.yul\":10308:10371   */\n      swap2\n      pop\n        /* \"#utility.yul\":10264:10381   */\n      pop\n        /* \"#utility.yul\":10059:10388   */\n      swap3\n      swap2\n      pop\n      pop\n      jump\t// out\n        /* \"#utility.yul\":10394:11845   */\n    tag_47:\n        /* \"#utility.yul\":10519:10525   */\n      0x00\n        /* \"#utility.yul\":10527:10533   */\n      dup1\n        /* \"#utility.yul\":10535:10541   */\n      0x00\n        /* \"#utility.yul\":10543:10549   */\n      dup1\n        /* \"#utility.yul\":10551:10557   */\n      0x00\n        /* \"#utility.yul\":10600:10603   */\n      0xa0\n        /* \"#utility.yul\":10588:10597   */\n      dup7\n        /* \"#utility.yul\":10579:10586   */\n      dup9\n        /* \"#utility.yul\":10575:10598   */\n      sub\n        /* \"#utility.yul\":10571:10604   */\n      slt\n        /* \"#utility.yul\":10568:10688   */\n      iszero\n      tag_276\n      jumpi\n        /* \"#utility.yul\":10607:10686   */\n      tag_277\n      tag_125\n      jump\t// in\n    tag_277:\n        /* \"#utility.yul\":10568:10688   */\n    tag_276:\n        /* \"#utility.yul\":10727:10728   */\n      0x00\n        /* \"#utility.yul\":10752:10805   */\n      tag_278\n        /* \"#utility.yul\":10797:10804   */\n      dup9\n        /* \"#utility.yul\":10788:10794   */\n      dup3\n        /* \"#utility.yul\":10777:10786   */\n      dup10\n        /* \"#utility.yul\":10773:10795   */\n      add\n        /* \"#utility.yul\":10752:10805   */\n      tag_129\n      jump\t// in\n    tag_278:\n        /* \"#utility.yul\":10742:10805   */\n      swap6\n      pop\n        /* \"#utility.yul\":10698:10815   */\n      pop\n        /* \"#utility.yul\":10854:10856   */\n      0x20\n        /* \"#utility.yul\":10880:10933   */\n      tag_279\n        /* \"#utility.yul\":10925:10932   */\n      dup9\n        /* \"#utility.yul\":10916:10922   */\n      dup3\n        /* \"#utility.yul\":10905:10914   */\n      dup10\n        /* \"#utility.yul\":10901:10923   */\n      add\n        /* \"#utility.yul\":10880:10933   */\n      tag_129\n      jump\t// in\n    tag_279:\n        /* \"#utility.yul\":10870:10933   */\n      swap5\n      pop\n        /* \"#utility.yul\":10825:10943   */\n      pop\n        /* \"#utility.yul\":11010:11012   */\n      0x40\n        /* \"#utility.yul\":10999:11008   */\n      dup7\n        /* \"#utility.yul\":10995:11013   */\n      add\n        /* \"#utility.yul\":10982:11014   */\n      calldataload\n        /* \"#utility.yul\":11041:11059   */\n      0xffffffffffffffff\n        /* \"#utility.yul\":11033:11039   */\n      dup2\n        /* \"#utility.yul\":11030:11060   */\n      gt\n        /* \"#utility.yul\":11027:11144   */\n      iszero\n      tag_280\n      jumpi\n        /* \"#utility.yul\":11063:11142   */\n      tag_281\n      tag_126\n      jump\t// in\n    tag_281:\n        /* \"#utility.yul\":11027:11144   */\n    tag_280:\n        /* \"#utility.yul\":11168:11231   */\n      tag_282\n        /* \"#utility.yul\":11223:11230   */\n      dup9\n        /* \"#utility.yul\":11214:11220   */\n      dup3\n        /* \"#utility.yul\":11203:11212   */\n      dup10\n        /* \"#utility.yul\":11199:11221   */\n      add\n        /* \"#utility.yul\":11168:11231   */\n      tag_147\n      jump\t// in\n    tag_282:\n        /* \"#utility.yul\":11158:11231   */\n      swap4\n      pop\n        /* \"#utility.yul\":10953:11241   */\n      pop\n        /* \"#utility.yul\":11308:11310   */\n      0x60\n        /* \"#utility.yul\":11297:11306   */\n      dup7\n        /* \"#utility.yul\":11293:11311   */\n      add\n        /* \"#utility.yul\":11280:11312   */\n      calldataload\n        /* \"#utility.yul\":11339:11357   */\n      0xffffffffffffffff\n        /* \"#utility.yul\":11331:11337   */\n      dup2\n        /* \"#utility.yul\":11328:11358   */\n      gt\n        /* \"#utility.yul\":11325:11442   */\n      iszero\n      tag_283\n      jumpi\n        /* \"#utility.yul\":11361:11440   */\n      tag_284\n      tag_126\n      jump\t// in\n    tag_284:\n        /* \"#utility.yul\":11325:11442   */\n    tag_283:\n        /* \"#utility.yul\":11466:11529   */\n      tag_285\n        /* \"#utility.yul\":11521:11528   */\n      dup9\n        /* \"#utility.yul\":11512:11518   */\n      dup3\n        /* \"#utility.yul\":11501:11510   */\n      dup10\n        /* \"#utility.yul\":11497:11519   */\n      add\n        /* \"#utility.yul\":11466:11529   */\n      tag_147\n      jump\t// in\n    tag_285:\n        /* \"#utility.yul\":11456:11529   */\n      swap3\n      pop\n        /* \"#utility.yul\":11251:11539   */\n      pop\n        /* \"#utility.yul\":11606:11609   */\n      0x80\n        /* \"#utility.yul\":11595:11604   */\n      dup7\n        /* \"#utility.yul\":11591:11610   */\n      add\n        /* \"#utility.yul\":11578:11611   */\n      calldataload\n        /* \"#utility.yul\":11638:11656   */\n      0xffffffffffffffff\n        /* \"#utility.yul\":11630:11636   */\n      dup2\n        /* \"#utility.yul\":11627:11657   */\n      gt\n        /* \"#utility.yul\":11624:11741   */\n      iszero\n      tag_286\n      jumpi\n        /* \"#utility.yul\":11660:11739   */\n      tag_287\n      tag_126\n      jump\t// in\n    tag_287:\n        /* \"#utility.yul\":11624:11741   */\n    tag_286:\n        /* \"#utility.yul\":11765:11828   */\n      tag_288\n        /* \"#utility.yul\":11820:11827   */\n      dup9\n        /* \"#utility.yul\":11811:11817   */\n      dup3\n        /* \"#utility.yul\":11800:11809   */\n      dup10\n        /* \"#utility.yul\":11796:11818   */\n      add\n        /* \"#utility.yul\":11765:11828   */\n      tag_147\n      jump\t// in\n    tag_288:\n        /* \"#utility.yul\":11755:11828   */\n      swap2\n      pop\n        /* \"#utility.yul\":11549:11838   */\n      pop\n        /* \"#utility.yul\":10394:11845   */\n      swap3\n      swap6\n      pop\n      swap3\n      swap6\n      swap1\n      swap4\n      pop\n      jump\t// out\n        /* \"#utility.yul\":11851:12073   */\n    tag_52:\n        /* \"#utility.yul\":11944:11948   */\n      0x00\n        /* \"#utility.yul\":11982:11984   */\n      0x20\n        /* \"#utility.yul\":11971:11980   */\n      dup3\n        /* \"#utility.yul\":11967:11985   */\n      add\n        /* \"#utility.yul\":11959:11985   */\n      swap1\n      pop\n        /* \"#utility.yul\":11995:12066   */\n      tag_290\n        /* \"#utility.yul\":12063:12064   */\n      0x00\n        /* \"#utility.yul\":12052:12061   */\n      dup4\n        /* \"#utility.yul\":12048:12065   */\n      add\n        /* \"#utility.yul\":12039:12045   */\n      dup5\n        /* \"#utility.yul\":11995:12066   */\n      tag_138\n      jump\t// in\n    tag_290:\n        /* \"#utility.yul\":11851:12073   */\n      swap3\n      swap2\n      pop\n      pop\n      jump\t// out\n        /* \"#utility.yul\":12079:12259   */\n    tag_150:\n        /* \"#utility.yul\":12127:12204   */\n      0x4e487b7100000000000000000000000000000000000000000000000000000000\n        /* \"#utility.yul\":12124:12125   */\n      0x00\n        /* \"#utility.yul\":12117:12205   */\n      mstore\n        /* \"#utility.yul\":12224:12228   */\n      0x22\n        /* \"#utility.yul\":12221:12222   */\n      0x04\n        /* \"#utility.yul\":12214:12229   */\n      mstore\n        /* \"#utility.yul\":12248:12252   */\n      0x24\n        /* \"#utility.yul\":12245:12246   */\n      0x00\n        /* \"#utility.yul\":12238:12253   */\n      revert\n        /* \"#utility.yul\":12265:12585   */\n    tag_54:\n        /* \"#utility.yul\":12309:12315   */\n      0x00\n        /* \"#utility.yul\":12346:12347   */\n      0x02\n        /* \"#utility.yul\":12340:12344   */\n      dup3\n        /* \"#utility.yul\":12336:12348   */\n      div\n        /* \"#utility.yul\":12326:12348   */\n      swap1\n      pop\n        /* \"#utility.yul\":12393:12394   */\n      0x01\n        /* \"#utility.yul\":12387:12391   */\n      dup3\n        /* \"#utility.yul\":12383:12395   */\n      and\n        /* \"#utility.yul\":12414:12432   */\n      dup1\n        /* \"#utility.yul\":12404:12485   */\n      tag_293\n      jumpi\n        /* \"#utility.yul\":12470:12474   */\n      0x7f\n        /* \"#utility.yul\":12462:12468   */\n      dup3\n        /* \"#utility.yul\":12458:12475   */\n      and\n        /* \"#utility.yul\":12448:12475   */\n      swap2\n      pop\n        /* \"#utility.yul\":12404:12485   */\n    tag_293:\n        /* \"#utility.yul\":12532:12534   */\n      0x20\n        /* \"#utility.yul\":12524:12530   */\n      dup3\n        /* \"#utility.yul\":12521:12535   */\n      lt\n        /* \"#utility.yul\":12501:12519   */\n      dup2\n        /* \"#utility.yul\":12498:12536   */\n      sub\n        /* \"#utility.yul\":12495:12579   */\n      tag_294\n      jumpi\n        /* \"#utility.yul\":12551:12569   */\n      tag_295\n      tag_150\n      jump\t// in\n    tag_295:\n        /* \"#utility.yul\":12495:12579   */\n    tag_294:\n        /* \"#utility.yul\":12316:12585   */\n      pop\n        /* \"#utility.yul\":12265:12585   */\n      swap2\n      swap1\n      pop\n      jump\t// out\n        /* \"#utility.yul\":12591:12732   */\n    tag_151:\n        /* \"#utility.yul\":12640:12644   */\n      0x00\n        /* \"#utility.yul\":12663:12666   */\n      dup2\n        /* \"#utility.yul\":12655:12666   */\n      swap1\n      pop\n        /* \"#utility.yul\":12686:12689   */\n      dup2\n        /* \"#utility.yul\":12683:12684   */\n      0x00\n        /* \"#utility.yul\":12676:12690   */\n      mstore\n        /* \"#utility.yul\":12720:12724   */\n      0x20\n        /* \"#utility.yul\":12717:12718   */\n      0x00\n        /* \"#utility.yul\":12707:12725   */\n      keccak256\n        /* \"#utility.yul\":12699:12725   */\n      swap1\n      pop\n        /* \"#utility.yul\":12591:12732   */\n      swap2\n      swap1\n      pop\n      jump\t// out\n        /* \"#utility.yul\":12738:12831   */\n    tag_152:\n        /* \"#utility.yul\":12775:12781   */\n      0x00\n        /* \"#utility.yul\":12822:12824   */\n      0x20\n        /* \"#utility.yul\":12817:12819   */\n      0x1f\n        /* \"#utility.yul\":12810:12815   */\n      dup4\n        /* \"#utility.yul\":12806:12820   */\n      add\n        /* \"#utility.yul\":12802:12825   */\n      div\n        /* \"#utility.yul\":12792:12825   */\n      swap1\n      pop\n        /* \"#utility.yul\":12738:12831   */\n      swap2\n      swap1\n      pop\n      jump\t// out\n        /* \"#utility.yul\":12837:12944   */\n    tag_153:\n        /* \"#utility.yul\":12881:12889   */\n      0x00\n        /* \"#utility.yul\":12931:12936   */\n      dup3\n        /* \"#utility.yul\":12925:12929   */\n      dup3\n        /* \"#utility.yul\":12921:12937   */\n      shl\n        /* \"#utility.yul\":12900:12937   */\n      swap1\n      pop\n        /* \"#utility.yul\":12837:12944   */\n      swap3\n      swap2\n      pop\n      pop\n      jump\t// out\n        /* \"#utility.yul\":12950:13343   */\n    tag_154:\n        /* \"#utility.yul\":13019:13025   */\n      0x00\n        /* \"#utility.yul\":13069:13070   */\n      0x08\n        /* \"#utility.yul\":13057:13067   */\n      dup4\n        /* \"#utility.yul\":13053:13071   */\n      mul\n        /* \"#utility.yul\":13092:13189   */\n      tag_300\n        /* \"#utility.yul\":13122:13188   */\n      0xffffffffffffffffffffffffffffffffffffffffffffffffffffffffffffffff\n        /* \"#utility.yul\":13111:13120   */\n      dup3\n        /* \"#utility.yul\":13092:13189   */\n      tag_153\n      jump\t// in\n    tag_300:\n        /* \"#utility.yul\":13210:13249   */\n      tag_301\n        /* \"#utility.yul\":13240:13248   */\n      dup7\n        /* \"#utility.yul\":13229:13238   */\n      dup4\n        /* \"#utility.yul\":13210:13249   */\n      tag_153\n      jump\t// in\n    tag_301:\n        /* \"#utility.yul\":13198:13249   */\n      swap6\n      pop\n        /* \"#utility.yul\":13282:13286   */\n      dup1\n        /* \"#utility.yul\":13278:13287   */\n      not\n        /* \"#utility.yul\":13271:13276   */\n      dup5\n        /* \"#utility.yul\":13267:13288   */\n      and\n        /* \"#utility.yul\":13258:13288   */\n      swap4\n      pop\n        /* \"#utility.yul\":13331:13335   */\n      dup1\n        /* \"#utility.yul\":13321:13329   */\n      dup7\n        /* \"#utility.yul\":13317:13336   */\n      and\n        /* \"#utility.yul\":13310:13315   */\n      dup5\n        /* \"#utility.yul\":13307:13337   */\n      or\n        /* \"#utility.yul\":13297:13337   */\n      swap3\n      pop\n        /* \"#utility.yul\":13026:13343   */\n      pop\n      pop\n        /* \"#utility.yul\":12950:13343   */\n      swap4\n      swap3\n      pop\n      pop\n      pop\n      jump\t// out\n        /* \"#utility.yul\":13349:13409   */\n    tag_155:\n        /* \"#utility.yul\":13377:13380   */\n      0x00\n        /* \"#utility.yul\":13398:13403   */\n      dup2\n        /* \"#utility.yul\":13391:13403   */\n      swap1\n      pop\n        /* \"#utility.yul\":13349:13409   */\n      swap2\n      swap1\n      pop\n      jump\t// out\n        /* \"#utility.yul\":13415:13557   */\n    tag_156:\n        /* \"#utility.yul\":13465:13474   */\n      0x00\n        /* \"#utility.yul\":13498:13551   */\n      tag_304\n        /* \"#utility.yul\":13516:13550   */\n      tag_305\n        /* \"#utility.yul\":13525:13549   */\n      tag_306\n        /* \"#utility.yul\":13543:13548   */\n      dup5\n        /* \"#utility.yul\":13525:13549   */\n      tag_127\n      jump\t// in\n    tag_306:\n        /* \"#utility.yul\":13516:13550   */\n      tag_155\n      jump\t// in\n    tag_305:\n        /* \"#utility.yul\":13498:13551   */\n      tag_127\n      jump\t// in\n    tag_304:\n        /* \"#utility.yul\":13485:13551   */\n      swap1\n      pop\n        /* \"#utility.yul\":13415:13557   */\n      swap2\n      swap1\n      pop\n      jump\t// out\n        /* \"#utility.yul\":13563:13638   */\n    tag_157:\n        /* \"#utility.yul\":13606:13609   */\n      0x00\n        /* \"#utility.yul\":13627:13632   */\n      dup2\n        /* \"#utility.yul\":13620:13632   */\n      swap1\n      pop\n        /* \"#utility.yul\":13563:13638   */\n      swap2\n      swap1\n      pop\n      jump\t// out\n        /* \"#utility.yul\":13644:13913   */\n    tag_158:\n        /* \"#utility.yul\":13754:13793   */\n      tag_309\n        /* \"#utility.yul\":13785:13792   */\n      dup4\n        /* \"#utility.yul\":13754:13793   */\n      tag_156\n      jump\t// in\n    tag_309:\n        /* \"#utility.yul\":13815:13906   */\n      tag_310\n        /* \"#utility.yul\":13864:13905   */\n      tag_311\n        /* \"#utility.yul\":13888:13904   */\n      dup3\n        /* \"#utility.yul\":13864:13905   */\n      tag_157\n      jump\t// in\n    tag_311:\n        /* \"#utility.yul\":13856:13862   */\n      dup5\n        /* \"#utility.yul\":13849:13853   */\n      dup5\n        /* \"#utility.yul\":13843:13854   */\n      sload\n        /* \"#utility.yul\":13815:13906   */\n      tag_154\n      jump\t// in\n    tag_310:\n        /* \"#utility.yul\":13809:13813   */\n      dup3\n        /* \"#utility.yul\":13802:13907   */\n      sstore\n        /* \"#utility.yul\":13720:13913   */\n      pop\n        /* \"#utility.yul\":13644:13913   */\n      pop\n      pop\n      pop\n      jump\t// out\n        /* \"#utility.yul\":13919:13992   */\n    tag_159:\n        /* \"#utility.yul\":13964:13967   */\n      0x00\n        /* \"#utility.yul\":13919:13992   */\n      swap1\n      jump\t// out\n        /* \"#utility.yul\":13998:14187   */\n    tag_160:\n        /* \"#utility.yul\":14075:14107   */\n      tag_314\n      tag_159\n      jump\t// in\n    tag_314:\n        /* \"#utility.yul\":14116:14181   */\n      tag_315\n        /* \"#utility.yul\":14174:14180   */\n      dup2\n        /* \"#utility.yul\":14166:14172   */\n      dup5\n        /* \"#utility.yul\":14160:14164   */\n      dup5\n        /* \"#utility.yul\":14116:14181   */\n      tag_158\n      jump\t// in\n    tag_315:\n        /* \"#utility.yul\":14051:14187   */\n      pop\n        /* \"#utility.yul\":13998:14187   */\n      pop\n      pop\n      jump\t// out\n        /* \"#utility.yul\":14193:14379   */\n    tag_161:\n        /* \"#utility.yul\":14253:14373   */\n    tag_317:\n        /* \"#utility.yul\":14270:14273   */\n      dup2\n        /* \"#utility.yul\":14263:14268   */\n      dup2\n        /* \"#utility.yul\":14260:14274   */\n      lt\n        /* \"#utility.yul\":14253:14373   */\n      iszero\n      tag_319\n      jumpi\n        /* \"#utility.yul\":14324:14363   */\n      tag_320\n        /* \"#utility.yul\":14361:14362   */\n      0x00\n        /* \"#utility.yul\":14354:14359   */\n      dup3\n        /* \"#utility.yul\":14324:14363   */\n      tag_160\n      jump\t// in\n    tag_320:\n        /* \"#utility.yul\":14297:14298   */\n      0x01\n        /* \"#utility.yul\":14290:14295   */\n      dup2\n        /* \"#utility.yul\":14286:14299   */\n      add\n        /* \"#utility.yul\":14277:14299   */\n      swap1\n      pop\n        /* \"#utility.yul\":14253:14373   */\n      jump(tag_317)\n    tag_319:\n        /* \"#utility.yul\":14193:14379   */\n      pop\n      pop\n      jump\t// out\n        /* \"#utility.yul\":14385:14928   */\n    tag_162:\n        /* \"#utility.yul\":14486:14488   */\n      0x1f\n        /* \"#utility.yul\":14481:14484   */\n      dup3\n        /* \"#utility.yul\":14478:14489   */\n      gt\n        /* \"#utility.yul\":14475:14921   */\n      iszero\n      tag_322\n      jumpi\n        /* \"#utility.yul\":14520:14558   */\n      tag_323\n        /* \"#utility.yul\":14552:14557   */\n      dup2\n        /* \"#utility.yul\":14520:14558   */\n      tag_151\n      jump\t// in\n    tag_323:\n        /* \"#utility.yul\":14604:14633   */\n      tag_324\n        /* \"#utility.yul\":14622:14632   */\n      dup5\n        /* \"#utility.yul\":14604:14633   */\n      tag_152\n      jump\t// in\n    tag_324:\n        /* \"#utility.yul\":14594:14602   */\n      dup2\n        /* \"#utility.yul\":14590:14634   */\n      add\n        /* \"#utility.yul\":14787:14789   */\n      0x20\n        /* \"#utility.yul\":14775:14785   */\n      dup6\n        /* \"#utility.yul\":14772:14790   */\n      lt\n        /* \"#utility.yul\":14769:14818   */\n      iszero\n      tag_325\n      jumpi\n        /* \"#utility.yul\":14808:14816   */\n      dup2\n        /* \"#utility.yul\":14793:14816   */\n      swap1\n      pop\n        /* \"#utility.yul\":14769:14818   */\n    tag_325:\n        /* \"#utility.yul\":14831:14911   */\n      tag_326\n        /* \"#utility.yul\":14887:14909   */\n      tag_327\n        /* \"#utility.yul\":14905:14908   */\n      dup6\n        /* \"#utility.yul\":14887:14909   */\n      tag_152\n      jump\t// in\n    tag_327:\n        /* \"#utility.yul\":14877:14885   */\n      dup4\n        /* \"#utility.yul\":14873:14910   */\n      add\n        /* \"#utility.yul\":14860:14871   */\n      dup3\n        /* \"#utility.yul\":14831:14911   */\n      tag_161\n      jump\t// in\n    tag_326:\n        /* \"#utility.yul\":14490:14921   */\n      pop\n      pop\n        /* \"#utility.yul\":14475:14921   */\n    tag_322:\n        /* \"#utility.yul\":14385:14928   */\n      pop\n      pop\n      pop\n      jump\t// out\n        /* \"#utility.yul\":14934:15051   */\n    tag_163:\n        /* \"#utility.yul\":14988:14996   */\n      0x00\n        /* \"#utility.yul\":15038:15043   */\n      dup3\n        /* \"#utility.yul\":15032:15036   */\n      dup3\n        /* \"#utility.yul\":15028:15044   */\n      shr\n        /* \"#utility.yul\":15007:15044   */\n      swap1\n      pop\n        /* \"#utility.yul\":14934:15051   */\n      swap3\n      swap2\n      pop\n      pop\n      jump\t// out\n        /* \"#utility.yul\":15057:15226   */\n    tag_164:\n        /* \"#utility.yul\":15101:15107   */\n      0x00\n        /* \"#utility.yul\":15134:15185   */\n      tag_330\n        /* \"#utility.yul\":15182:15183   */\n      0x00\n        /* \"#utility.yul\":15178:15184   */\n      not\n        /* \"#utility.yul\":15170:15175   */\n      dup5\n        /* \"#utility.yul\":15167:15168   */\n      0x08\n        /* \"#utility.yul\":15163:15176   */\n      mul\n        /* \"#utility.yul\":15134:15185   */\n      tag_163\n      jump\t// in\n    tag_330:\n        /* \"#utility.yul\":15130:15186   */\n      not\n        /* \"#utility.yul\":15215:15219   */\n      dup1\n        /* \"#utility.yul\":15209:15213   */\n      dup4\n        /* \"#utility.yul\":15205:15220   */\n      and\n        /* \"#utility.yul\":15195:15220   */\n      swap2\n      pop\n        /* \"#utility.yul\":15108:15226   */\n      pop\n        /* \"#utility.yul\":15057:15226   */\n      swap3\n      swap2\n      pop\n      pop\n      jump\t// out\n        /* \"#utility.yul\":15231:15526   */\n    tag_165:\n        /* \"#utility.yul\":15307:15311   */\n      0x00\n        /* \"#utility.yul\":15453:15482   */\n      tag_332\n        /* \"#utility.yul\":15478:15481   */\n      dup4\n        /* \"#utility.yul\":15472:15476   */\n      dup4\n        /* \"#utility.yul\":15453:15482   */\n      tag_164\n      jump\t// in\n    tag_332:\n        /* \"#utility.yul\":15445:15482   */\n      swap2\n      pop\n        /* \"#utility.yul\":15515:15518   */\n      dup3\n        /* \"#utility.yul\":15512:15513   */\n      0x02\n        /* \"#utility.yul\":15508:15519   */\n      mul\n        /* \"#utility.yul\":15502:15506   */\n      dup3\n        /* \"#utility.yul\":15499:15520   */\n      or\n        /* \"#utility.yul\":15491:15520   */\n      swap1\n      pop\n        /* \"#utility.yul\":15231:15526   */\n      swap3\n      swap2\n      pop\n      pop\n      jump\t// out\n        /* \"#utility.yul\":15531:16926   */\n    tag_73:\n        /* \"#utility.yul\":15648:15685   */\n      tag_334\n        /* \"#utility.yul\":15681:15684   */\n      dup3\n        /* \"#utility.yul\":15648:15685   */\n      tag_131\n      jump\t// in\n    tag_334:\n        /* \"#utility.yul\":15750:15768   */\n      0xffffffffffffffff\n        /* \"#utility.yul\":15742:15748   */\n      dup2\n        /* \"#utility.yul\":15739:15769   */\n      gt\n        /* \"#utility.yul\":15736:15792   */\n      iszero\n      tag_335\n      jumpi\n        /* \"#utility.yul\":15772:15790   */\n      tag_336\n      tag_141\n      jump\t// in\n    tag_336:\n        /* \"#utility.yul\":15736:15792   */\n    tag_335:\n        /* \"#utility.yul\":15816:15854   */\n      tag_337\n        /* \"#utility.yul\":15848:15852   */\n      dup3\n        /* \"#utility.yul\":15842:15853   */\n      sload\n        /* \"#utility.yul\":15816:15854   */\n      tag_54\n      jump\t// in\n    tag_337:\n        /* \"#utility.yul\":15901:15968   */\n      tag_338\n        /* \"#utility.yul\":15961:15967   */\n      dup3\n        /* \"#utility.yul\":15953:15959   */\n      dup3\n        /* \"#utility.yul\":15947:15951   */\n      dup6\n        /* \"#utility.yul\":15901:15968   */\n      tag_162\n      jump\t// in\n    tag_338:\n        /* \"#utility.yul\":15995:15996   */\n      0x00\n        /* \"#utility.yul\":16019:16023   */\n      0x20\n        /* \"#utility.yul\":16006:16023   */\n      swap1\n      pop\n        /* \"#utility.yul\":16051:16053   */\n      0x1f\n        /* \"#utility.yul\":16043:16049   */\n      dup4\n        /* \"#utility.yul\":16040:16054   */\n      gt\n        /* \"#utility.yul\":16068:16069   */\n      0x01\n        /* \"#utility.yul\":16063:16681   */\n      dup2\n      eq\n      tag_340\n      jumpi\n        /* \"#utility.yul\":16725:16726   */\n      0x00\n        /* \"#utility.yul\":16742:16748   */\n      dup5\n        /* \"#utility.yul\":16739:16816   */\n      iszero\n      tag_341\n      jumpi\n        /* \"#utility.yul\":16791:16800   */\n      dup3\n        /* \"#utility.yul\":16786:16789   */\n      dup8\n        /* \"#utility.yul\":16782:16801   */\n      add\n        /* \"#utility.yul\":16776:16802   */\n      mload\n        /* \"#utility.yul\":16767:16802   */\n      swap1\n      pop\n        /* \"#utility.yul\":16739:16816   */\n    tag_341:\n        /* \"#utility.yul\":16842:16909   */\n      tag_342\n        /* \"#utility.yul\":16902:16908   */\n      dup6\n        /* \"#utility.yul\":16895:16900   */\n      dup3\n        /* \"#utility.yul\":16842:16909   */\n      tag_165\n      jump\t// in\n    tag_342:\n        /* \"#utility.yul\":16836:16840   */\n      dup7\n        /* \"#utility.yul\":16829:16910   */\n      sstore\n        /* \"#utility.yul\":16698:16920   */\n      pop\n        /* \"#utility.yul\":16033:16920   */\n      jump(tag_339)\n        /* \"#utility.yul\":16063:16681   */\n    tag_340:\n        /* \"#utility.yul\":16115:16119   */\n      0x1f\n        /* \"#utility.yul\":16111:16120   */\n      not\n        /* \"#utility.yul\":16103:16109   */\n      dup5\n        /* \"#utility.yul\":16099:16121   */\n      and\n        /* \"#utility.yul\":16149:16186   */\n      tag_343\n        /* \"#utility.yul\":16181:16185   */\n      dup7\n        /* \"#utility.yul\":16149:16186   */\n      tag_151\n      jump\t// in\n    tag_343:\n        /* \"#utility.yul\":16208:16209   */\n      0x00\n        /* \"#utility.yul\":16222:16430   */\n    tag_344:\n        /* \"#utility.yul\":16236:16243   */\n      dup3\n        /* \"#utility.yul\":16233:16234   */\n      dup2\n        /* \"#utility.yul\":16230:16244   */\n      lt\n        /* \"#utility.yul\":16222:16430   */\n      iszero\n      tag_346\n      jumpi\n        /* \"#utility.yul\":16315:16324   */\n      dup5\n        /* \"#utility.yul\":16310:16313   */\n      dup10\n        /* \"#utility.yul\":16306:16325   */\n      add\n        /* \"#utility.yul\":16300:16326   */\n      mload\n        /* \"#utility.yul\":16292:16298   */\n      dup3\n        /* \"#utility.yul\":16285:16327   */\n      sstore\n        /* \"#utility.yul\":16366:16367   */\n      0x01\n        /* \"#utility.yul\":16358:16364   */\n      dup3\n        /* \"#utility.yul\":16354:16368   */\n      add\n        /* \"#utility.yul\":16344:16368   */\n      swap2\n      pop\n        /* \"#utility.yul\":16413:16415   */\n      0x20\n        /* \"#utility.yul\":16402:16411   */\n      dup6\n        /* \"#utility.yul\":16398:16416   */\n      add\n        /* \"#utility.yul\":16385:16416   */\n      swap5\n      pop\n        /* \"#utility.yul\":16259:16263   */\n      0x20\n        /* \"#utility.yul\":16256:16257   */\n      dup2\n        /* \"#utility.yul\":16252:16264   */\n      add\n        /* \"#utility.yul\":16247:16264   */\n      swap1\n      pop\n        /* \"#utility.yul\":16222:16430   */\n      jump(tag_344)\n    tag_346:\n        /* \"#utility.yul\":16458:16464   */\n      dup7\n        /* \"#utility.yul\":16449:16456   */\n      dup4\n        /* \"#utility.yul\":16446:16465   */\n      lt\n        /* \"#utility.yul\":16443:16622   */\n      iszero\n      tag_347\n      jumpi\n        /* \"#utility.yul\":16516:16525   */\n      dup5\n        /* \"#utility.yul\":16511:16514   */\n      dup10\n        /* \"#utility.yul\":16507:16526   */\n      add\n        /* \"#utility.yul\":16501:16527   */\n      mload\n        /* \"#utility.yul\":16559:16607   */\n      tag_348\n        /* \"#utility.yul\":16601:16605   */\n      0x1f\n        /* \"#utility.yul\":16593:16599   */\n      dup10\n        /* \"#utility.yul\":16589:16606   */\n      and\n        /* \"#utility.yul\":16578:16587   */\n      dup3\n        /* \"#utility.yul\":16559:16607   */\n      tag_164\n      jump\t// in\n    tag_348:\n        /* \"#utility.yul\":16551:16557   */\n      dup4\n        /* \"#utility.yul\":16544:16608   */\n      sstore\n        /* \"#utility.yul\":16466:16622   */\n      pop\n        /* \"#utility.yul\":16443:16622   */\n    tag_347:\n        /* \"#utility.yul\":16668:16669   */\n      0x01\n        /* \"#utility.yul\":16664:16665   */\n      0x02\n        /* \"#utility.yul\":16656:16662   */\n      dup9\n        /* \"#utility.yul\":16652:16666   */\n      mul\n        /* \"#utility.yul\":16648:16670   */\n      add\n        /* \"#utility.yul\":16642:16646   */\n      dup9\n        /* \"#utility.yul\":16635:16671   */\n      sstore\n        /* \"#utility.yul\":16070:16681   */\n      pop\n      pop\n      pop\n        /* \"#utility.yul\":16033:16920   */\n    tag_339:\n      pop\n        /* \"#utility.yul\":15623:16926   */\n      pop\n      pop\n      pop\n        /* \"#utility.yul\":15531:16926   */\n      pop\n      pop\n      jump\t// out\n\n    auxdata: 0xa2646970667358221220b889b1a627ccef77f5b4e88c8ea0e4a696b2de25de9338eb8b9e6726d22a759164736f6c63430008160033\n}\n",
				"bytecode": {
					"linkReferences": {},
					"object": "608060405234801561000f575f80fd5b50335f806101000a81548173ffffffffffffffffffffffffffffffffffffffff021916908373ffffffffffffffffffffffffffffffffffffffff1602179055506116598061005c5f395ff3fe608060405234801561000f575f80fd5b5060043610610091575f3560e01c806335dfc1c31161006457806335dfc1c3146101355780634495a0081461016a57806391a3972b14610186578063f04656eb146101b9578063f851a440146101d557610091565b806306ead22e146100955780631274147e146100ca5780632813d19d146100e65780632a6a48b114610119575b5f80fd5b6100af60048036038101906100aa9190610d79565b6101f3565b6040516100c196959493929190610e7c565b60405180910390f35b6100e460048036038101906100df919061101c565b6103dc565b005b61010060048036038101906100fb9190610d79565b610528565b60405161011094939291906110a4565b60405180910390f35b610133600480360381019061012e919061101c565b61067f565b005b61014f600480360381019061014a9190610d79565b610749565b604051610161969594939291906110f5565b60405180910390f35b610184600480360381019061017f9190611169565b610913565b005b6101a0600480360381019061019b919061124b565b610a59565b6040516101b094939291906110a4565b60405180910390f35b6101d360048036038101906101ce9190611276565b610bb0565b005b6101dd610d12565b6040516101ea9190611341565b60405180910390f35b6002602052805f5260405f205f91509050805f01549080600101805461021890611387565b80601f016020809104026020016040519081016040528092919081815260200182805461024490611387565b801561028f5780601f106102665761010080835404028352916020019161028f565b820191905f5260205f20905b81548152906001019060200180831161027257829003601f168201915b5050505050908060020180546102a490611387565b80601f01602080910402602001604051908101604052809291908181526020018280546102d090611387565b801561031b5780601f106102f25761010080835404028352916020019161031b565b820191905f5260205f20905b8154815290600101906020018083116102fe57829003601f168201915b50505050509080600301805461033090611387565b80601f016020809104026020016040519081016040528092919081815260200182805461035c90611387565b80156103a75780601f1061037e576101008083540402835291602001916103a7565b820191905f5260205f20905b81548152906001019060200180831161038a57829003601f168201915b505050505090806004015490806005015f9054906101000a900473ffffffffffffffffffffffffffffffffffffffff16905086565b5f8054906101000a900473ffffffffffffffffffffffffffffffffffffffff1673ffffffffffffffffffffffffffffffffffffffff163373ffffffffffffffffffffffffffffffffffffffff1614610432575f80fd5b60405180608001604052808481526020018381526020018281526020013373ffffffffffffffffffffffffffffffffffffffff1681525060015f3373ffffffffffffffffffffffffffffffffffffffff1673ffffffffffffffffffffffffffffffffffffffff1681526020019081526020015f205f820151815f015560208201518160010190816104c39190611554565b5060408201518160020190816104d99190611554565b506060820151816003015f6101000a81548173ffffffffffffffffffffffffffffffffffffffff021916908373ffffffffffffffffffffffffffffffffffffffff160217905550905050505050565b6004602052805f5260405f205f91509050805f01549080600101805461054d90611387565b80601f016020809104026020016040519081016040528092919081815260200182805461057990611387565b80156105c45780601f1061059b576101008083540402835291602001916105c4565b820191905f5260205f20905b8154815290600101906020018083116105a757829003601f168201915b5050505050908060020180546105d990611387565b80601f016020809104026020016040519081016040528092919081815260200182805461060590611387565b80156106505780601f1061062757610100808354040283529160200191610650565b820191905f5260205f20905b81548152906001019060200180831161063357829003601f168201915b505050505090806003015f9054906101000a900473ffffffffffffffffffffffffffffffffffffffff16905084565b60405180608001604052808481526020018381526020018281526020013373ffffffffffffffffffffffffffffffffffffffff1681525060045f8581526020019081526020015f205f820151815f015560208201518160010190816106e49190611554565b5060408201518160020190816106fa9190611554565b506060820151816003015f6101000a81548173ffffffffffffffffffffffffffffffffffffffff021916908373ffffffffffffffffffffffffffffffffffffffff160217905550905050505050565b6003602052805f5260405f205f91509050805f01549080600101549080600201549080600301805461077a90611387565b80601f01602080910402602001604051908101604052809291908181526020018280546107a690611387565b80156107f15780601f106107c8576101008083540402835291602001916107f1565b820191905f5260205f20905b8154815290600101906020018083116107d457829003601f168201915b50505050509080600401805461080690611387565b80601f016020809104026020016040519081016040528092919081815260200182805461083290611387565b801561087d5780601f106108545761010080835404028352916020019161087d565b820191905f5260205f20905b81548152906001019060200180831161086057829003601f168201915b50505050509080600501805461089290611387565b80601f01602080910402602001604051908101604052809291908181526020018280546108be90611387565b80156109095780601f106108e057610100808354040283529160200191610909565b820191905f5260205f20905b8154815290600101906020018083116108ec57829003601f168201915b5050505050905086565b5f60015f3373ffffffffffffffffffffffffffffffffffffffff1673ffffffffffffffffffffffffffffffffffffffff1681526020019081526020015f2090505f815f015411610961575f80fd5b6040518060c001604052808681526020018581526020018481526020018381526020015f81526020013373ffffffffffffffffffffffffffffffffffffffff1681525060025f8781526020019081526020015f205f820151815f015560208201518160010190816109d29190611554565b5060408201518160020190816109e89190611554565b5060608201518160030190816109fe9190611554565b506080820151816004015560a0820151816005015f6101000a81548173ffffffffffffffffffffffffffffffffffffffff021916908373ffffffffffffffffffffffffffffffffffffffff1602179055509050505050505050565b6001602052805f5260405f205f91509050805f015490806001018054610a7e90611387565b80601f0160208091040260200160405190810160405280929190818152602001828054610aaa90611387565b8015610af55780601f10610acc57610100808354040283529160200191610af5565b820191905f5260205f20905b815481529060010190602001808311610ad857829003601f168201915b505050505090806002018054610b0a90611387565b80601f0160208091040260200160405190810160405280929190818152602001828054610b3690611387565b8015610b815780601f10610b5857610100808354040283529160200191610b81565b820191905f5260205f20905b815481529060010190602001808311610b6457829003601f168201915b505050505090806003015f9054906101000a900473ffffffffffffffffffffffffffffffffffffffff16905084565b5f60015f3373ffffffffffffffffffffffffffffffffffffffff1673ffffffffffffffffffffffffffffffffffffffff1681526020019081526020015f2090505f815f015411610bfe575f80fd5b3373ffffffffffffffffffffffffffffffffffffffff1660025f8781526020019081526020015f206005015f9054906101000a900473ffffffffffffffffffffffffffffffffffffffff1673ffffffffffffffffffffffffffffffffffffffff1614610c68575f80fd5b6040518060c00160405280878152602001868152602001825f015481526020018581526020018481526020018381525060035f8881526020019081526020015f205f820151815f015560208201518160010155604082015181600201556060820151816003019081610cda9190611554565b506080820151816004019081610cf09190611554565b5060a0820151816005019081610d069190611554565b50905050505050505050565b5f8054906101000a900473ffffffffffffffffffffffffffffffffffffffff1681565b5f604051905090565b5f80fd5b5f80fd5b5f819050919050565b610d5881610d46565b8114610d62575f80fd5b50565b5f81359050610d7381610d4f565b92915050565b5f60208284031215610d8e57610d8d610d3e565b5b5f610d9b84828501610d65565b91505092915050565b610dad81610d46565b82525050565b5f81519050919050565b5f82825260208201905092915050565b5f5b83811015610dea578082015181840152602081019050610dcf565b5f8484015250505050565b5f601f19601f8301169050919050565b5f610e0f82610db3565b610e198185610dbd565b9350610e29818560208601610dcd565b610e3281610df5565b840191505092915050565b5f73ffffffffffffffffffffffffffffffffffffffff82169050919050565b5f610e6682610e3d565b9050919050565b610e7681610e5c565b82525050565b5f60c082019050610e8f5f830189610da4565b8181036020830152610ea18188610e05565b90508181036040830152610eb58187610e05565b90508181036060830152610ec98186610e05565b9050610ed86080830185610da4565b610ee560a0830184610e6d565b979650505050505050565b5f80fd5b5f80fd5b7f4e487b71000000000000000000000000000000000000000000000000000000005f52604160045260245ffd5b610f2e82610df5565b810181811067ffffffffffffffff82111715610f4d57610f4c610ef8565b5b80604052505050565b5f610f5f610d35565b9050610f6b8282610f25565b919050565b5f67ffffffffffffffff821115610f8a57610f89610ef8565b5b610f9382610df5565b9050602081019050919050565b828183375f83830152505050565b5f610fc0610fbb84610f70565b610f56565b905082815260208101848484011115610fdc57610fdb610ef4565b5b610fe7848285610fa0565b509392505050565b5f82601f83011261100357611002610ef0565b5b8135611013848260208601610fae565b91505092915050565b5f805f6060848603121561103357611032610d3e565b5b5f61104086828701610d65565b935050602084013567ffffffffffffffff81111561106157611060610d42565b5b61106d86828701610fef565b925050604084013567ffffffffffffffff81111561108e5761108d610d42565b5b61109a86828701610fef565b9150509250925092565b5f6080820190506110b75f830187610da4565b81810360208301526110c98186610e05565b905081810360408301526110dd8185610e05565b90506110ec6060830184610e6d565b95945050505050565b5f60c0820190506111085f830189610da4565b6111156020830188610da4565b6111226040830187610da4565b81810360608301526111348186610e05565b905081810360808301526111488185610e05565b905081810360a083015261115c8184610e05565b9050979650505050505050565b5f805f806080858703121561118157611180610d3e565b5b5f61118e87828801610d65565b945050602085013567ffffffffffffffff8111156111af576111ae610d42565b5b6111bb87828801610fef565b935050604085013567ffffffffffffffff8111156111dc576111db610d42565b5b6111e887828801610fef565b925050606085013567ffffffffffffffff81111561120957611208610d42565b5b61121587828801610fef565b91505092959194509250565b61122a81610e5c565b8114611234575f80fd5b50565b5f8135905061124581611221565b92915050565b5f602082840312156112605761125f610d3e565b5b5f61126d84828501611237565b91505092915050565b5f805f805f60a0868803121561128f5761128e610d3e565b5b5f61129c88828901610d65565b95505060206112ad88828901610d65565b945050604086013567ffffffffffffffff8111156112ce576112cd610d42565b5b6112da88828901610fef565b935050606086013567ffffffffffffffff8111156112fb576112fa610d42565b5b61130788828901610fef565b925050608086013567ffffffffffffffff81111561132857611327610d42565b5b61133488828901610fef565b9150509295509295909350565b5f6020820190506113545f830184610e6d565b92915050565b7f4e487b71000000000000000000000000000000000000000000000000000000005f52602260045260245ffd5b5f600282049050600182168061139e57607f821691505b6020821081036113b1576113b061135a565b5b50919050565b5f819050815f5260205f209050919050565b5f6020601f8301049050919050565b5f82821b905092915050565b5f600883026114137fffffffffffffffffffffffffffffffffffffffffffffffffffffffffffffffff826113d8565b61141d86836113d8565b95508019841693508086168417925050509392505050565b5f819050919050565b5f61145861145361144e84610d46565b611435565b610d46565b9050919050565b5f819050919050565b6114718361143e565b61148561147d8261145f565b8484546113e4565b825550505050565b5f90565b61149961148d565b6114a4818484611468565b505050565b5b818110156114c7576114bc5f82611491565b6001810190506114aa565b5050565b601f82111561150c576114dd816113b7565b6114e6846113c9565b810160208510156114f5578190505b611509611501856113c9565b8301826114a9565b50505b505050565b5f82821c905092915050565b5f61152c5f1984600802611511565b1980831691505092915050565b5f611544838361151d565b9150826002028217905092915050565b61155d82610db3565b67ffffffffffffffff81111561157657611575610ef8565b5b6115808254611387565b61158b8282856114cb565b5f60209050601f8311600181146115bc575f84156115aa578287015190505b6115b48582611539565b86555061161b565b601f1984166115ca866113b7565b5f5b828110156115f1578489015182556001820191506020850194506020810190506115cc565b8683101561160e578489015161160a601f89168261151d565b8355505b6001600288020188555050505b50505050505056fea2646970667358221220b889b1a627ccef77f5b4e88c8ea0e4a696b2de25de9338eb8b9e6726d22a759164736f6c63430008160033",
					"opcodes": "PUSH1 0x80 PUSH1 0x40 MSTORE CALLVALUE DUP1 ISZERO PUSH2 0xF JUMPI PUSH0 DUP1 REVERT JUMPDEST POP CALLER PUSH0 DUP1 PUSH2 0x100 EXP DUP2 SLOAD DUP2 PUSH20 0xFFFFFFFFFFFFFFFFFFFFFFFFFFFFFFFFFFFFFFFF MUL NOT AND SWAP1 DUP4 PUSH20 0xFFFFFFFFFFFFFFFFFFFFFFFFFFFFFFFFFFFFFFFF AND MUL OR SWAP1 SSTORE POP PUSH2 0x1659 DUP1 PUSH2 0x5C PUSH0 CODECOPY PUSH0 RETURN INVALID PUSH1 0x80 PUSH1 0x40 MSTORE CALLVALUE DUP1 ISZERO PUSH2 0xF JUMPI PUSH0 DUP1 REVERT JUMPDEST POP PUSH1 0x4 CALLDATASIZE LT PUSH2 0x91 JUMPI PUSH0 CALLDATALOAD PUSH1 0xE0 SHR DUP1 PUSH4 0x35DFC1C3 GT PUSH2 0x64 JUMPI DUP1 PUSH4 0x35DFC1C3 EQ PUSH2 0x135 JUMPI DUP1 PUSH4 0x4495A008 EQ PUSH2 0x16A JUMPI DUP1 PUSH4 0x91A3972B EQ PUSH2 0x186 JUMPI DUP1 PUSH4 0xF04656EB EQ PUSH2 0x1B9 JUMPI DUP1 PUSH4 0xF851A440 EQ PUSH2 0x1D5 JUMPI PUSH2 0x91 JUMP JUMPDEST DUP1 PUSH4 0x6EAD22E EQ PUSH2 0x95 JUMPI DUP1 PUSH4 0x1274147E EQ PUSH2 0xCA JUMPI DUP1 PUSH4 0x2813D19D EQ PUSH2 0xE6 JUMPI DUP1 PUSH4 0x2A6A48B1 EQ PUSH2 0x119 JUMPI JUMPDEST PUSH0 DUP1 REVERT JUMPDEST PUSH2 0xAF PUSH1 0x4 DUP1 CALLDATASIZE SUB DUP2 ADD SWAP1 PUSH2 0xAA SWAP2 SWAP1 PUSH2 0xD79 JUMP JUMPDEST PUSH2 0x1F3 JUMP JUMPDEST PUSH1 0x40 MLOAD PUSH2 0xC1 SWAP7 SWAP6 SWAP5 SWAP4 SWAP3 SWAP2 SWAP1 PUSH2 0xE7C JUMP JUMPDEST PUSH1 0x40 MLOAD DUP1 SWAP2 SUB SWAP1 RETURN JUMPDEST PUSH2 0xE4 PUSH1 0x4 DUP1 CALLDATASIZE SUB DUP2 ADD SWAP1 PUSH2 0xDF SWAP2 SWAP1 PUSH2 0x101C JUMP JUMPDEST PUSH2 0x3DC JUMP JUMPDEST STOP JUMPDEST PUSH2 0x100 PUSH1 0x4 DUP1 CALLDATASIZE SUB DUP2 ADD SWAP1 PUSH2 0xFB SWAP2 SWAP1 PUSH2 0xD79 JUMP JUMPDEST PUSH2 0x528 JUMP JUMPDEST PUSH1 0x40 MLOAD PUSH2 0x110 SWAP5 SWAP4 SWAP3 SWAP2 SWAP1 PUSH2 0x10A4 JUMP JUMPDEST PUSH1 0x40 MLOAD DUP1 SWAP2 SUB SWAP1 RETURN JUMPDEST PUSH2 0x133 PUSH1 0x4 DUP1 CALLDATASIZE SUB DUP2 ADD SWAP1 PUSH2 0x12E SWAP2 SWAP1 PUSH2 0x101C JUMP JUMPDEST PUSH2 0x67F JUMP JUMPDEST STOP JUMPDEST PUSH2 0x14F PUSH1 0x4 DUP1 CALLDATASIZE SUB DUP2 ADD SWAP1 PUSH2 0x14A SWAP2 SWAP1 PUSH2 0xD79 JUMP JUMPDEST PUSH2 0x749 JUMP JUMPDEST PUSH1 0x40 MLOAD PUSH2 0x161 SWAP7 SWAP6 SWAP5 SWAP4 SWAP3 SWAP2 SWAP1 PUSH2 0x10F5 JUMP JUMPDEST PUSH1 0x40 MLOAD DUP1 SWAP2 SUB SWAP1 RETURN JUMPDEST PUSH2 0x184 PUSH1 0x4 DUP1 CALLDATASIZE SUB DUP2 ADD SWAP1 PUSH2 0x17F SWAP2 SWAP1 PUSH2 0x1169 JUMP JUMPDEST PUSH2 0x913 JUMP JUMPDEST STOP JUMPDEST PUSH2 0x1A0 PUSH1 0x4 DUP1 CALLDATASIZE SUB DUP2 ADD SWAP1 PUSH2 0x19B SWAP2 SWAP1 PUSH2 0x124B JUMP JUMPDEST PUSH2 0xA59 JUMP JUMPDEST PUSH1 0x40 MLOAD PUSH2 0x1B0 SWAP5 SWAP4 SWAP3 SWAP2 SWAP1 PUSH2 0x10A4 JUMP JUMPDEST PUSH1 0x40 MLOAD DUP1 SWAP2 SUB SWAP1 RETURN JUMPDEST PUSH2 0x1D3 PUSH1 0x4 DUP1 CALLDATASIZE SUB DUP2 ADD SWAP1 PUSH2 0x1CE SWAP2 SWAP1 PUSH2 0x1276 JUMP JUMPDEST PUSH2 0xBB0 JUMP JUMPDEST STOP JUMPDEST PUSH2 0x1DD PUSH2 0xD12 JUMP JUMPDEST PUSH1 0x40 MLOAD PUSH2 0x1EA SWAP2 SWAP1 PUSH2 0x1341 JUMP JUMPDEST PUSH1 0x40 MLOAD DUP1 SWAP2 SUB SWAP1 RETURN JUMPDEST PUSH1 0x2 PUSH1 0x20 MSTORE DUP1 PUSH0 MSTORE PUSH1 0x40 PUSH0 KECCAK256 PUSH0 SWAP2 POP SWAP1 POP DUP1 PUSH0 ADD SLOAD SWAP1 DUP1 PUSH1 0x1 ADD DUP1 SLOAD PUSH2 0x218 SWAP1 PUSH2 0x1387 JUMP JUMPDEST DUP1 PUSH1 0x1F ADD PUSH1 0x20 DUP1 SWAP2 DIV MUL PUSH1 0x20 ADD PUSH1 0x40 MLOAD SWAP1 DUP2 ADD PUSH1 0x40 MSTORE DUP1 SWAP3 SWAP2 SWAP1 DUP2 DUP2 MSTORE PUSH1 0x20 ADD DUP3 DUP1 SLOAD PUSH2 0x244 SWAP1 PUSH2 0x1387 JUMP JUMPDEST DUP1 ISZERO PUSH2 0x28F JUMPI DUP1 PUSH1 0x1F LT PUSH2 0x266 JUMPI PUSH2 0x100 DUP1 DUP4 SLOAD DIV MUL DUP4 MSTORE SWAP2 PUSH1 0x20 ADD SWAP2 PUSH2 0x28F JUMP JUMPDEST DUP3 ADD SWAP2 SWAP1 PUSH0 MSTORE PUSH1 0x20 PUSH0 KECCAK256 SWAP1 JUMPDEST DUP2 SLOAD DUP2 MSTORE SWAP1 PUSH1 0x1 ADD SWAP1 PUSH1 0x20 ADD DUP1 DUP4 GT PUSH2 0x272 JUMPI DUP3 SWAP1 SUB PUSH1 0x1F AND DUP3 ADD SWAP2 JUMPDEST POP POP POP POP POP SWAP1 DUP1 PUSH1 0x2 ADD DUP1 SLOAD PUSH2 0x2A4 SWAP1 PUSH2 0x1387 JUMP JUMPDEST DUP1 PUSH1 0x1F ADD PUSH1 0x20 DUP1 SWAP2 DIV MUL PUSH1 0x20 ADD PUSH1 0x40 MLOAD SWAP1 DUP2 ADD PUSH1 0x40 MSTORE DUP1 SWAP3 SWAP2 SWAP1 DUP2 DUP2 MSTORE PUSH1 0x20 ADD DUP3 DUP1 SLOAD PUSH2 0x2D0 SWAP1 PUSH2 0x1387 JUMP JUMPDEST DUP1 ISZERO PUSH2 0x31B JUMPI DUP1 PUSH1 0x1F LT PUSH2 0x2F2 JUMPI PUSH2 0x100 DUP1 DUP4 SLOAD DIV MUL DUP4 MSTORE SWAP2 PUSH1 0x20 ADD SWAP2 PUSH2 0x31B JUMP JUMPDEST DUP3 ADD SWAP2 SWAP1 PUSH0 MSTORE PUSH1 0x20 PUSH0 KECCAK256 SWAP1 JUMPDEST DUP2 SLOAD DUP2 MSTORE SWAP1 PUSH1 0x1 ADD SWAP1 PUSH1 0x20 ADD DUP1 DUP4 GT PUSH2 0x2FE JUMPI DUP3 SWAP1 SUB PUSH1 0x1F AND DUP3 ADD SWAP2 JUMPDEST POP POP POP POP POP SWAP1 DUP1 PUSH1 0x3 ADD DUP1 SLOAD PUSH2 0x330 SWAP1 PUSH2 0x1387 JUMP JUMPDEST DUP1 PUSH1 0x1F ADD PUSH1 0x20 DUP1 SWAP2 DIV MUL PUSH1 0x20 ADD PUSH1 0x40 MLOAD SWAP1 DUP2 ADD PUSH1 0x40 MSTORE DUP1 SWAP3 SWAP2 SWAP1 DUP2 DUP2 MSTORE PUSH1 0x20 ADD DUP3 DUP1 SLOAD PUSH2 0x35C SWAP1 PUSH2 0x1387 JUMP JUMPDEST DUP1 ISZERO PUSH2 0x3A7 JUMPI DUP1 PUSH1 0x1F LT PUSH2 0x37E JUMPI PUSH2 0x100 DUP1 DUP4 SLOAD DIV MUL DUP4 MSTORE SWAP2 PUSH1 0x20 ADD SWAP2 PUSH2 0x3A7 JUMP JUMPDEST DUP3 ADD SWAP2 SWAP1 PUSH0 MSTORE PUSH1 0x20 PUSH0 KECCAK256 SWAP1 JUMPDEST DUP2 SLOAD DUP2 MSTORE SWAP1 PUSH1 0x1 ADD SWAP1 PUSH1 0x20 ADD DUP1 DUP4 GT PUSH2 0x38A JUMPI DUP3 SWAP1 SUB PUSH1 0x1F AND DUP3 ADD SWAP2 JUMPDEST POP POP POP POP POP SWAP1 DUP1 PUSH1 0x4 ADD SLOAD SWAP1 DUP1 PUSH1 0x5 ADD PUSH0 SWAP1 SLOAD SWAP1 PUSH2 0x100 EXP SWAP1 DIV PUSH20 0xFFFFFFFFFFFFFFFFFFFFFFFFFFFFFFFFFFFFFFFF AND SWAP1 POP DUP7 JUMP JUMPDEST PUSH0 DUP1 SLOAD SWAP1 PUSH2 0x100 EXP SWAP1 DIV PUSH20 0xFFFFFFFFFFFFFFFFFFFFFFFFFFFFFFFFFFFFFFFF AND PUSH20 0xFFFFFFFFFFFFFFFFFFFFFFFFFFFFFFFFFFFFFFFF AND CALLER PUSH20 0xFFFFFFFFFFFFFFFFFFFFFFFFFFFFFFFFFFFFFFFF AND EQ PUSH2 0x432 JUMPI PUSH0 DUP1 REVERT JUMPDEST PUSH1 0x40 MLOAD DUP1 PUSH1 0x80 ADD PUSH1 0x40 MSTORE DUP1 DUP5 DUP2 MSTORE PUSH1 0x20 ADD DUP4 DUP2 MSTORE PUSH1 0x20 ADD DUP3 DUP2 MSTORE PUSH1 0x20 ADD CALLER PUSH20 0xFFFFFFFFFFFFFFFFFFFFFFFFFFFFFFFFFFFFFFFF AND DUP2 MSTORE POP PUSH1 0x1 PUSH0 CALLER PUSH20 0xFFFFFFFFFFFFFFFFFFFFFFFFFFFFFFFFFFFFFFFF AND PUSH20 0xFFFFFFFFFFFFFFFFFFFFFFFFFFFFFFFFFFFFFFFF AND DUP2 MSTORE PUSH1 0x20 ADD SWAP1 DUP2 MSTORE PUSH1 0x20 ADD PUSH0 KECCAK256 PUSH0 DUP3 ADD MLOAD DUP2 PUSH0 ADD SSTORE PUSH1 0x20 DUP3 ADD MLOAD DUP2 PUSH1 0x1 ADD SWAP1 DUP2 PUSH2 0x4C3 SWAP2 SWAP1 PUSH2 0x1554 JUMP JUMPDEST POP PUSH1 0x40 DUP3 ADD MLOAD DUP2 PUSH1 0x2 ADD SWAP1 DUP2 PUSH2 0x4D9 SWAP2 SWAP1 PUSH2 0x1554 JUMP JUMPDEST POP PUSH1 0x60 DUP3 ADD MLOAD DUP2 PUSH1 0x3 ADD PUSH0 PUSH2 0x100 EXP DUP2 SLOAD DUP2 PUSH20 0xFFFFFFFFFFFFFFFFFFFFFFFFFFFFFFFFFFFFFFFF MUL NOT AND SWAP1 DUP4 PUSH20 0xFFFFFFFFFFFFFFFFFFFFFFFFFFFFFFFFFFFFFFFF AND MUL OR SWAP1 SSTORE POP SWAP1 POP POP POP POP POP JUMP JUMPDEST PUSH1 0x4 PUSH1 0x20 MSTORE DUP1 PUSH0 MSTORE PUSH1 0x40 PUSH0 KECCAK256 PUSH0 SWAP2 POP SWAP1 POP DUP1 PUSH0 ADD SLOAD SWAP1 DUP1 PUSH1 0x1 ADD DUP1 SLOAD PUSH2 0x54D SWAP1 PUSH2 0x1387 JUMP JUMPDEST DUP1 PUSH1 0x1F ADD PUSH1 0x20 DUP1 SWAP2 DIV MUL PUSH1 0x20 ADD PUSH1 0x40 MLOAD SWAP1 DUP2 ADD PUSH1 0x40 MSTORE DUP1 SWAP3 SWAP2 SWAP1 DUP2 DUP2 MSTORE PUSH1 0x20 ADD DUP3 DUP1 SLOAD PUSH2 0x579 SWAP1 PUSH2 0x1387 JUMP JUMPDEST DUP1 ISZERO PUSH2 0x5C4 JUMPI DUP1 PUSH1 0x1F LT PUSH2 0x59B JUMPI PUSH2 0x100 DUP1 DUP4 SLOAD DIV MUL DUP4 MSTORE SWAP2 PUSH1 0x20 ADD SWAP2 PUSH2 0x5C4 JUMP JUMPDEST DUP3 ADD SWAP2 SWAP1 PUSH0 MSTORE PUSH1 0x20 PUSH0 KECCAK256 SWAP1 JUMPDEST DUP2 SLOAD DUP2 MSTORE SWAP1 PUSH1 0x1 ADD SWAP1 PUSH1 0x20 ADD DUP1 DUP4 GT PUSH2 0x5A7 JUMPI DUP3 SWAP1 SUB PUSH1 0x1F AND DUP3 ADD SWAP2 JUMPDEST POP POP POP POP POP SWAP1 DUP1 PUSH1 0x2 ADD DUP1 SLOAD PUSH2 0x5D9 SWAP1 PUSH2 0x1387 JUMP JUMPDEST DUP1 PUSH1 0x1F ADD PUSH1 0x20 DUP1 SWAP2 DIV MUL PUSH1 0x20 ADD PUSH1 0x40 MLOAD SWAP1 DUP2 ADD PUSH1 0x40 MSTORE DUP1 SWAP3 SWAP2 SWAP1 DUP2 DUP2 MSTORE PUSH1 0x20 ADD DUP3 DUP1 SLOAD PUSH2 0x605 SWAP1 PUSH2 0x1387 JUMP JUMPDEST DUP1 ISZERO PUSH2 0x650 JUMPI DUP1 PUSH1 0x1F LT PUSH2 0x627 JUMPI PUSH2 0x100 DUP1 DUP4 SLOAD DIV MUL DUP4 MSTORE SWAP2 PUSH1 0x20 ADD SWAP2 PUSH2 0x650 JUMP JUMPDEST DUP3 ADD SWAP2 SWAP1 PUSH0 MSTORE PUSH1 0x20 PUSH0 KECCAK256 SWAP1 JUMPDEST DUP2 SLOAD DUP2 MSTORE SWAP1 PUSH1 0x1 ADD SWAP1 PUSH1 0x20 ADD DUP1 DUP4 GT PUSH2 0x633 JUMPI DUP3 SWAP1 SUB PUSH1 0x1F AND DUP3 ADD SWAP2 JUMPDEST POP POP POP POP POP SWAP1 DUP1 PUSH1 0x3 ADD PUSH0 SWAP1 SLOAD SWAP1 PUSH2 0x100 EXP SWAP1 DIV PUSH20 0xFFFFFFFFFFFFFFFFFFFFFFFFFFFFFFFFFFFFFFFF AND SWAP1 POP DUP5 JUMP JUMPDEST PUSH1 0x40 MLOAD DUP1 PUSH1 0x80 ADD PUSH1 0x40 MSTORE DUP1 DUP5 DUP2 MSTORE PUSH1 0x20 ADD DUP4 DUP2 MSTORE PUSH1 0x20 ADD DUP3 DUP2 MSTORE PUSH1 0x20 ADD CALLER PUSH20 0xFFFFFFFFFFFFFFFFFFFFFFFFFFFFFFFFFFFFFFFF AND DUP2 MSTORE POP PUSH1 0x4 PUSH0 DUP6 DUP2 MSTORE PUSH1 0x20 ADD SWAP1 DUP2 MSTORE PUSH1 0x20 ADD PUSH0 KECCAK256 PUSH0 DUP3 ADD MLOAD DUP2 PUSH0 ADD SSTORE PUSH1 0x20 DUP3 ADD MLOAD DUP2 PUSH1 0x1 ADD SWAP1 DUP2 PUSH2 0x6E4 SWAP2 SWAP1 PUSH2 0x1554 JUMP JUMPDEST POP PUSH1 0x40 DUP3 ADD MLOAD DUP2 PUSH1 0x2 ADD SWAP1 DUP2 PUSH2 0x6FA SWAP2 SWAP1 PUSH2 0x1554 JUMP JUMPDEST POP PUSH1 0x60 DUP3 ADD MLOAD DUP2 PUSH1 0x3 ADD PUSH0 PUSH2 0x100 EXP DUP2 SLOAD DUP2 PUSH20 0xFFFFFFFFFFFFFFFFFFFFFFFFFFFFFFFFFFFFFFFF MUL NOT AND SWAP1 DUP4 PUSH20 0xFFFFFFFFFFFFFFFFFFFFFFFFFFFFFFFFFFFFFFFF AND MUL OR SWAP1 SSTORE POP SWAP1 POP POP POP POP POP JUMP JUMPDEST PUSH1 0x3 PUSH1 0x20 MSTORE DUP1 PUSH0 MSTORE PUSH1 0x40 PUSH0 KECCAK256 PUSH0 SWAP2 POP SWAP1 POP DUP1 PUSH0 ADD SLOAD SWAP1 DUP1 PUSH1 0x1 ADD SLOAD SWAP1 DUP1 PUSH1 0x2 ADD SLOAD SWAP1 DUP1 PUSH1 0x3 ADD DUP1 SLOAD PUSH2 0x77A SWAP1 PUSH2 0x1387 JUMP JUMPDEST DUP1 PUSH1 0x1F ADD PUSH1 0x20 DUP1 SWAP2 DIV MUL PUSH1 0x20 ADD PUSH1 0x40 MLOAD SWAP1 DUP2 ADD PUSH1 0x40 MSTORE DUP1 SWAP3 SWAP2 SWAP1 DUP2 DUP2 MSTORE PUSH1 0x20 ADD DUP3 DUP1 SLOAD PUSH2 0x7A6 SWAP1 PUSH2 0x1387 JUMP JUMPDEST DUP1 ISZERO PUSH2 0x7F1 JUMPI DUP1 PUSH1 0x1F LT PUSH2 0x7C8 JUMPI PUSH2 0x100 DUP1 DUP4 SLOAD DIV MUL DUP4 MSTORE SWAP2 PUSH1 0x20 ADD SWAP2 PUSH2 0x7F1 JUMP JUMPDEST DUP3 ADD SWAP2 SWAP1 PUSH0 MSTORE PUSH1 0x20 PUSH0 KECCAK256 SWAP1 JUMPDEST DUP2 SLOAD DUP2 MSTORE SWAP1 PUSH1 0x1 ADD SWAP1 PUSH1 0x20 ADD DUP1 DUP4 GT PUSH2 0x7D4 JUMPI DUP3 SWAP1 SUB PUSH1 0x1F AND DUP3 ADD SWAP2 JUMPDEST POP POP POP POP POP SWAP1 DUP1 PUSH1 0x4 ADD DUP1 SLOAD PUSH2 0x806 SWAP1 PUSH2 0x1387 JUMP JUMPDEST DUP1 PUSH1 0x1F ADD PUSH1 0x20 DUP1 SWAP2 DIV MUL PUSH1 0x20 ADD PUSH1 0x40 MLOAD SWAP1 DUP2 ADD PUSH1 0x40 MSTORE DUP1 SWAP3 SWAP2 SWAP1 DUP2 DUP2 MSTORE PUSH1 0x20 ADD DUP3 DUP1 SLOAD PUSH2 0x832 SWAP1 PUSH2 0x1387 JUMP JUMPDEST DUP1 ISZERO PUSH2 0x87D JUMPI DUP1 PUSH1 0x1F LT PUSH2 0x854 JUMPI PUSH2 0x100 DUP1 DUP4 SLOAD DIV MUL DUP4 MSTORE SWAP2 PUSH1 0x20 ADD SWAP2 PUSH2 0x87D JUMP JUMPDEST DUP3 ADD SWAP2 SWAP1 PUSH0 MSTORE PUSH1 0x20 PUSH0 KECCAK256 SWAP1 JUMPDEST DUP2 SLOAD DUP2 MSTORE SWAP1 PUSH1 0x1 ADD SWAP1 PUSH1 0x20 ADD DUP1 DUP4 GT PUSH2 0x860 JUMPI DUP3 SWAP1 SUB PUSH1 0x1F AND DUP3 ADD SWAP2 JUMPDEST POP POP POP POP POP SWAP1 DUP1 PUSH1 0x5 ADD DUP1 SLOAD PUSH2 0x892 SWAP1 PUSH2 0x1387 JUMP JUMPDEST DUP1 PUSH1 0x1F ADD PUSH1 0x20 DUP1 SWAP2 DIV MUL PUSH1 0x20 ADD PUSH1 0x40 MLOAD SWAP1 DUP2 ADD PUSH1 0x40 MSTORE DUP1 SWAP3 SWAP2 SWAP1 DUP2 DUP2 MSTORE PUSH1 0x20 ADD DUP3 DUP1 SLOAD PUSH2 0x8BE SWAP1 PUSH2 0x1387 JUMP JUMPDEST DUP1 ISZERO PUSH2 0x909 JUMPI DUP1 PUSH1 0x1F LT PUSH2 0x8E0 JUMPI PUSH2 0x100 DUP1 DUP4 SLOAD DIV MUL DUP4 MSTORE SWAP2 PUSH1 0x20 ADD SWAP2 PUSH2 0x909 JUMP JUMPDEST DUP3 ADD SWAP2 SWAP1 PUSH0 MSTORE PUSH1 0x20 PUSH0 KECCAK256 SWAP1 JUMPDEST DUP2 SLOAD DUP2 MSTORE SWAP1 PUSH1 0x1 ADD SWAP1 PUSH1 0x20 ADD DUP1 DUP4 GT PUSH2 0x8EC JUMPI DUP3 SWAP1 SUB PUSH1 0x1F AND DUP3 ADD SWAP2 JUMPDEST POP POP POP POP POP SWAP1 POP DUP7 JUMP JUMPDEST PUSH0 PUSH1 0x1 PUSH0 CALLER PUSH20 0xFFFFFFFFFFFFFFFFFFFFFFFFFFFFFFFFFFFFFFFF AND PUSH20 0xFFFFFFFFFFFFFFFFFFFFFFFFFFFFFFFFFFFFFFFF AND DUP2 MSTORE PUSH1 0x20 ADD SWAP1 DUP2 MSTORE PUSH1 0x20 ADD PUSH0 KECCAK256 SWAP1 POP PUSH0 DUP2 PUSH0 ADD SLOAD GT PUSH2 0x961 JUMPI PUSH0 DUP1 REVERT JUMPDEST PUSH1 0x40 MLOAD DUP1 PUSH1 0xC0 ADD PUSH1 0x40 MSTORE DUP1 DUP7 DUP2 MSTORE PUSH1 0x20 ADD DUP6 DUP2 MSTORE PUSH1 0x20 ADD DUP5 DUP2 MSTORE PUSH1 0x20 ADD DUP4 DUP2 MSTORE PUSH1 0x20 ADD PUSH0 DUP2 MSTORE PUSH1 0x20 ADD CALLER PUSH20 0xFFFFFFFFFFFFFFFFFFFFFFFFFFFFFFFFFFFFFFFF AND DUP2 MSTORE POP PUSH1 0x2 PUSH0 DUP8 DUP2 MSTORE PUSH1 0x20 ADD SWAP1 DUP2 MSTORE PUSH1 0x20 ADD PUSH0 KECCAK256 PUSH0 DUP3 ADD MLOAD DUP2 PUSH0 ADD SSTORE PUSH1 0x20 DUP3 ADD MLOAD DUP2 PUSH1 0x1 ADD SWAP1 DUP2 PUSH2 0x9D2 SWAP2 SWAP1 PUSH2 0x1554 JUMP JUMPDEST POP PUSH1 0x40 DUP3 ADD MLOAD DUP2 PUSH1 0x2 ADD SWAP1 DUP2 PUSH2 0x9E8 SWAP2 SWAP1 PUSH2 0x1554 JUMP JUMPDEST POP PUSH1 0x60 DUP3 ADD MLOAD DUP2 PUSH1 0x3 ADD SWAP1 DUP2 PUSH2 0x9FE SWAP2 SWAP1 PUSH2 0x1554 JUMP JUMPDEST POP PUSH1 0x80 DUP3 ADD MLOAD DUP2 PUSH1 0x4 ADD SSTORE PUSH1 0xA0 DUP3 ADD MLOAD DUP2 PUSH1 0x5 ADD PUSH0 PUSH2 0x100 EXP DUP2 SLOAD DUP2 PUSH20 0xFFFFFFFFFFFFFFFFFFFFFFFFFFFFFFFFFFFFFFFF MUL NOT AND SWAP1 DUP4 PUSH20 0xFFFFFFFFFFFFFFFFFFFFFFFFFFFFFFFFFFFFFFFF AND MUL OR SWAP1 SSTORE POP SWAP1 POP POP POP POP POP POP POP JUMP JUMPDEST PUSH1 0x1 PUSH1 0x20 MSTORE DUP1 PUSH0 MSTORE PUSH1 0x40 PUSH0 KECCAK256 PUSH0 SWAP2 POP SWAP1 POP DUP1 PUSH0 ADD SLOAD SWAP1 DUP1 PUSH1 0x1 ADD DUP1 SLOAD PUSH2 0xA7E SWAP1 PUSH2 0x1387 JUMP JUMPDEST DUP1 PUSH1 0x1F ADD PUSH1 0x20 DUP1 SWAP2 DIV MUL PUSH1 0x20 ADD PUSH1 0x40 MLOAD SWAP1 DUP2 ADD PUSH1 0x40 MSTORE DUP1 SWAP3 SWAP2 SWAP1 DUP2 DUP2 MSTORE PUSH1 0x20 ADD DUP3 DUP1 SLOAD PUSH2 0xAAA SWAP1 PUSH2 0x1387 JUMP JUMPDEST DUP1 ISZERO PUSH2 0xAF5 JUMPI DUP1 PUSH1 0x1F LT PUSH2 0xACC JUMPI PUSH2 0x100 DUP1 DUP4 SLOAD DIV MUL DUP4 MSTORE SWAP2 PUSH1 0x20 ADD SWAP2 PUSH2 0xAF5 JUMP JUMPDEST DUP3 ADD SWAP2 SWAP1 PUSH0 MSTORE PUSH1 0x20 PUSH0 KECCAK256 SWAP1 JUMPDEST DUP2 SLOAD DUP2 MSTORE SWAP1 PUSH1 0x1 ADD SWAP1 PUSH1 0x20 ADD DUP1 DUP4 GT PUSH2 0xAD8 JUMPI DUP3 SWAP1 SUB PUSH1 0x1F AND DUP3 ADD SWAP2 JUMPDEST POP POP POP POP POP SWAP1 DUP1 PUSH1 0x2 ADD DUP1 SLOAD PUSH2 0xB0A SWAP1 PUSH2 0x1387 JUMP JUMPDEST DUP1 PUSH1 0x1F ADD PUSH1 0x20 DUP1 SWAP2 DIV MUL PUSH1 0x20 ADD PUSH1 0x40 MLOAD SWAP1 DUP2 ADD PUSH1 0x40 MSTORE DUP1 SWAP3 SWAP2 SWAP1 DUP2 DUP2 MSTORE PUSH1 0x20 ADD DUP3 DUP1 SLOAD PUSH2 0xB36 SWAP1 PUSH2 0x1387 JUMP JUMPDEST DUP1 ISZERO PUSH2 0xB81 JUMPI DUP1 PUSH1 0x1F LT PUSH2 0xB58 JUMPI PUSH2 0x100 DUP1 DUP4 SLOAD DIV MUL DUP4 MSTORE SWAP2 PUSH1 0x20 ADD SWAP2 PUSH2 0xB81 JUMP JUMPDEST DUP3 ADD SWAP2 SWAP1 PUSH0 MSTORE PUSH1 0x20 PUSH0 KECCAK256 SWAP1 JUMPDEST DUP2 SLOAD DUP2 MSTORE SWAP1 PUSH1 0x1 ADD SWAP1 PUSH1 0x20 ADD DUP1 DUP4 GT PUSH2 0xB64 JUMPI DUP3 SWAP1 SUB PUSH1 0x1F AND DUP3 ADD SWAP2 JUMPDEST POP POP POP POP POP SWAP1 DUP1 PUSH1 0x3 ADD PUSH0 SWAP1 SLOAD SWAP1 PUSH2 0x100 EXP SWAP1 DIV PUSH20 0xFFFFFFFFFFFFFFFFFFFFFFFFFFFFFFFFFFFFFFFF AND SWAP1 POP DUP5 JUMP JUMPDEST PUSH0 PUSH1 0x1 PUSH0 CALLER PUSH20 0xFFFFFFFFFFFFFFFFFFFFFFFFFFFFFFFFFFFFFFFF AND PUSH20 0xFFFFFFFFFFFFFFFFFFFFFFFFFFFFFFFFFFFFFFFF AND DUP2 MSTORE PUSH1 0x20 ADD SWAP1 DUP2 MSTORE PUSH1 0x20 ADD PUSH0 KECCAK256 SWAP1 POP PUSH0 DUP2 PUSH0 ADD SLOAD GT PUSH2 0xBFE JUMPI PUSH0 DUP1 REVERT JUMPDEST CALLER PUSH20 0xFFFFFFFFFFFFFFFFFFFFFFFFFFFFFFFFFFFFFFFF AND PUSH1 0x2 PUSH0 DUP8 DUP2 MSTORE PUSH1 0x20 ADD SWAP1 DUP2 MSTORE PUSH1 0x20 ADD PUSH0 KECCAK256 PUSH1 0x5 ADD PUSH0 SWAP1 SLOAD SWAP1 PUSH2 0x100 EXP SWAP1 DIV PUSH20 0xFFFFFFFFFFFFFFFFFFFFFFFFFFFFFFFFFFFFFFFF AND PUSH20 0xFFFFFFFFFFFFFFFFFFFFFFFFFFFFFFFFFFFFFFFF AND EQ PUSH2 0xC68 JUMPI PUSH0 DUP1 REVERT JUMPDEST PUSH1 0x40 MLOAD DUP1 PUSH1 0xC0 ADD PUSH1 0x40 MSTORE DUP1 DUP8 DUP2 MSTORE PUSH1 0x20 ADD DUP7 DUP2 MSTORE PUSH1 0x20 ADD DUP3 PUSH0 ADD SLOAD DUP2 MSTORE PUSH1 0x20 ADD DUP6 DUP2 MSTORE PUSH1 0x20 ADD DUP5 DUP2 MSTORE PUSH1 0x20 ADD DUP4 DUP2 MSTORE POP PUSH1 0x3 PUSH0 DUP9 DUP2 MSTORE PUSH1 0x20 ADD SWAP1 DUP2 MSTORE PUSH1 0x20 ADD PUSH0 KECCAK256 PUSH0 DUP3 ADD MLOAD DUP2 PUSH0 ADD SSTORE PUSH1 0x20 DUP3 ADD MLOAD DUP2 PUSH1 0x1 ADD SSTORE PUSH1 0x40 DUP3 ADD MLOAD DUP2 PUSH1 0x2 ADD SSTORE PUSH1 0x60 DUP3 ADD MLOAD DUP2 PUSH1 0x3 ADD SWAP1 DUP2 PUSH2 0xCDA SWAP2 SWAP1 PUSH2 0x1554 JUMP JUMPDEST POP PUSH1 0x80 DUP3 ADD MLOAD DUP2 PUSH1 0x4 ADD SWAP1 DUP2 PUSH2 0xCF0 SWAP2 SWAP1 PUSH2 0x1554 JUMP JUMPDEST POP PUSH1 0xA0 DUP3 ADD MLOAD DUP2 PUSH1 0x5 ADD SWAP1 DUP2 PUSH2 0xD06 SWAP2 SWAP1 PUSH2 0x1554 JUMP JUMPDEST POP SWAP1 POP POP POP POP POP POP POP POP JUMP JUMPDEST PUSH0 DUP1 SLOAD SWAP1 PUSH2 0x100 EXP SWAP1 DIV PUSH20 0xFFFFFFFFFFFFFFFFFFFFFFFFFFFFFFFFFFFFFFFF AND DUP2 JUMP JUMPDEST PUSH0 PUSH1 0x40 MLOAD SWAP1 POP SWAP1 JUMP JUMPDEST PUSH0 DUP1 REVERT JUMPDEST PUSH0 DUP1 REVERT JUMPDEST PUSH0 DUP2 SWAP1 POP SWAP2 SWAP1 POP JUMP JUMPDEST PUSH2 0xD58 DUP2 PUSH2 0xD46 JUMP JUMPDEST DUP2 EQ PUSH2 0xD62 JUMPI PUSH0 DUP1 REVERT JUMPDEST POP JUMP JUMPDEST PUSH0 DUP2 CALLDATALOAD SWAP1 POP PUSH2 0xD73 DUP2 PUSH2 0xD4F JUMP JUMPDEST SWAP3 SWAP2 POP POP JUMP JUMPDEST PUSH0 PUSH1 0x20 DUP3 DUP5 SUB SLT ISZERO PUSH2 0xD8E JUMPI PUSH2 0xD8D PUSH2 0xD3E JUMP JUMPDEST JUMPDEST PUSH0 PUSH2 0xD9B DUP5 DUP3 DUP6 ADD PUSH2 0xD65 JUMP JUMPDEST SWAP2 POP POP SWAP3 SWAP2 POP POP JUMP JUMPDEST PUSH2 0xDAD DUP2 PUSH2 0xD46 JUMP JUMPDEST DUP3 MSTORE POP POP JUMP JUMPDEST PUSH0 DUP2 MLOAD SWAP1 POP SWAP2 SWAP1 POP JUMP JUMPDEST PUSH0 DUP3 DUP3 MSTORE PUSH1 0x20 DUP3 ADD SWAP1 POP SWAP3 SWAP2 POP POP JUMP JUMPDEST PUSH0 JUMPDEST DUP4 DUP2 LT ISZERO PUSH2 0xDEA JUMPI DUP1 DUP3 ADD MLOAD DUP2 DUP5 ADD MSTORE PUSH1 0x20 DUP2 ADD SWAP1 POP PUSH2 0xDCF JUMP JUMPDEST PUSH0 DUP5 DUP5 ADD MSTORE POP POP POP POP JUMP JUMPDEST PUSH0 PUSH1 0x1F NOT PUSH1 0x1F DUP4 ADD AND SWAP1 POP SWAP2 SWAP1 POP JUMP JUMPDEST PUSH0 PUSH2 0xE0F DUP3 PUSH2 0xDB3 JUMP JUMPDEST PUSH2 0xE19 DUP2 DUP6 PUSH2 0xDBD JUMP JUMPDEST SWAP4 POP PUSH2 0xE29 DUP2 DUP6 PUSH1 0x20 DUP7 ADD PUSH2 0xDCD JUMP JUMPDEST PUSH2 0xE32 DUP2 PUSH2 0xDF5 JUMP JUMPDEST DUP5 ADD SWAP2 POP POP SWAP3 SWAP2 POP POP JUMP JUMPDEST PUSH0 PUSH20 0xFFFFFFFFFFFFFFFFFFFFFFFFFFFFFFFFFFFFFFFF DUP3 AND SWAP1 POP SWAP2 SWAP1 POP JUMP JUMPDEST PUSH0 PUSH2 0xE66 DUP3 PUSH2 0xE3D JUMP JUMPDEST SWAP1 POP SWAP2 SWAP1 POP JUMP JUMPDEST PUSH2 0xE76 DUP2 PUSH2 0xE5C JUMP JUMPDEST DUP3 MSTORE POP POP JUMP JUMPDEST PUSH0 PUSH1 0xC0 DUP3 ADD SWAP1 POP PUSH2 0xE8F PUSH0 DUP4 ADD DUP10 PUSH2 0xDA4 JUMP JUMPDEST DUP2 DUP2 SUB PUSH1 0x20 DUP4 ADD MSTORE PUSH2 0xEA1 DUP2 DUP9 PUSH2 0xE05 JUMP JUMPDEST SWAP1 POP DUP2 DUP2 SUB PUSH1 0x40 DUP4 ADD MSTORE PUSH2 0xEB5 DUP2 DUP8 PUSH2 0xE05 JUMP JUMPDEST SWAP1 POP DUP2 DUP2 SUB PUSH1 0x60 DUP4 ADD MSTORE PUSH2 0xEC9 DUP2 DUP7 PUSH2 0xE05 JUMP JUMPDEST SWAP1 POP PUSH2 0xED8 PUSH1 0x80 DUP4 ADD DUP6 PUSH2 0xDA4 JUMP JUMPDEST PUSH2 0xEE5 PUSH1 0xA0 DUP4 ADD DUP5 PUSH2 0xE6D JUMP JUMPDEST SWAP8 SWAP7 POP POP POP POP POP POP POP JUMP JUMPDEST PUSH0 DUP1 REVERT JUMPDEST PUSH0 DUP1 REVERT JUMPDEST PUSH32 0x4E487B7100000000000000000000000000000000000000000000000000000000 PUSH0 MSTORE PUSH1 0x41 PUSH1 0x4 MSTORE PUSH1 0x24 PUSH0 REVERT JUMPDEST PUSH2 0xF2E DUP3 PUSH2 0xDF5 JUMP JUMPDEST DUP2 ADD DUP2 DUP2 LT PUSH8 0xFFFFFFFFFFFFFFFF DUP3 GT OR ISZERO PUSH2 0xF4D JUMPI PUSH2 0xF4C PUSH2 0xEF8 JUMP JUMPDEST JUMPDEST DUP1 PUSH1 0x40 MSTORE POP POP POP JUMP JUMPDEST PUSH0 PUSH2 0xF5F PUSH2 0xD35 JUMP JUMPDEST SWAP1 POP PUSH2 0xF6B DUP3 DUP3 PUSH2 0xF25 JUMP JUMPDEST SWAP2 SWAP1 POP JUMP JUMPDEST PUSH0 PUSH8 0xFFFFFFFFFFFFFFFF DUP3 GT ISZERO PUSH2 0xF8A JUMPI PUSH2 0xF89 PUSH2 0xEF8 JUMP JUMPDEST JUMPDEST PUSH2 0xF93 DUP3 PUSH2 0xDF5 JUMP JUMPDEST SWAP1 POP PUSH1 0x20 DUP2 ADD SWAP1 POP SWAP2 SWAP1 POP JUMP JUMPDEST DUP3 DUP2 DUP4 CALLDATACOPY PUSH0 DUP4 DUP4 ADD MSTORE POP POP POP JUMP JUMPDEST PUSH0 PUSH2 0xFC0 PUSH2 0xFBB DUP5 PUSH2 0xF70 JUMP JUMPDEST PUSH2 0xF56 JUMP JUMPDEST SWAP1 POP DUP3 DUP2 MSTORE PUSH1 0x20 DUP2 ADD DUP5 DUP5 DUP5 ADD GT ISZERO PUSH2 0xFDC JUMPI PUSH2 0xFDB PUSH2 0xEF4 JUMP JUMPDEST JUMPDEST PUSH2 0xFE7 DUP5 DUP3 DUP6 PUSH2 0xFA0 JUMP JUMPDEST POP SWAP4 SWAP3 POP POP POP JUMP JUMPDEST PUSH0 DUP3 PUSH1 0x1F DUP4 ADD SLT PUSH2 0x1003 JUMPI PUSH2 0x1002 PUSH2 0xEF0 JUMP JUMPDEST JUMPDEST DUP2 CALLDATALOAD PUSH2 0x1013 DUP5 DUP3 PUSH1 0x20 DUP7 ADD PUSH2 0xFAE JUMP JUMPDEST SWAP2 POP POP SWAP3 SWAP2 POP POP JUMP JUMPDEST PUSH0 DUP1 PUSH0 PUSH1 0x60 DUP5 DUP7 SUB SLT ISZERO PUSH2 0x1033 JUMPI PUSH2 0x1032 PUSH2 0xD3E JUMP JUMPDEST JUMPDEST PUSH0 PUSH2 0x1040 DUP7 DUP3 DUP8 ADD PUSH2 0xD65 JUMP JUMPDEST SWAP4 POP POP PUSH1 0x20 DUP5 ADD CALLDATALOAD PUSH8 0xFFFFFFFFFFFFFFFF DUP2 GT ISZERO PUSH2 0x1061 JUMPI PUSH2 0x1060 PUSH2 0xD42 JUMP JUMPDEST JUMPDEST PUSH2 0x106D DUP7 DUP3 DUP8 ADD PUSH2 0xFEF JUMP JUMPDEST SWAP3 POP POP PUSH1 0x40 DUP5 ADD CALLDATALOAD PUSH8 0xFFFFFFFFFFFFFFFF DUP2 GT ISZERO PUSH2 0x108E JUMPI PUSH2 0x108D PUSH2 0xD42 JUMP JUMPDEST JUMPDEST PUSH2 0x109A DUP7 DUP3 DUP8 ADD PUSH2 0xFEF JUMP JUMPDEST SWAP2 POP POP SWAP3 POP SWAP3 POP SWAP3 JUMP JUMPDEST PUSH0 PUSH1 0x80 DUP3 ADD SWAP1 POP PUSH2 0x10B7 PUSH0 DUP4 ADD DUP8 PUSH2 0xDA4 JUMP JUMPDEST DUP2 DUP2 SUB PUSH1 0x20 DUP4 ADD MSTORE PUSH2 0x10C9 DUP2 DUP7 PUSH2 0xE05 JUMP JUMPDEST SWAP1 POP DUP2 DUP2 SUB PUSH1 0x40 DUP4 ADD MSTORE PUSH2 0x10DD DUP2 DUP6 PUSH2 0xE05 JUMP JUMPDEST SWAP1 POP PUSH2 0x10EC PUSH1 0x60 DUP4 ADD DUP5 PUSH2 0xE6D JUMP JUMPDEST SWAP6 SWAP5 POP POP POP POP POP JUMP JUMPDEST PUSH0 PUSH1 0xC0 DUP3 ADD SWAP1 POP PUSH2 0x1108 PUSH0 DUP4 ADD DUP10 PUSH2 0xDA4 JUMP JUMPDEST PUSH2 0x1115 PUSH1 0x20 DUP4 ADD DUP9 PUSH2 0xDA4 JUMP JUMPDEST PUSH2 0x1122 PUSH1 0x40 DUP4 ADD DUP8 PUSH2 0xDA4 JUMP JUMPDEST DUP2 DUP2 SUB PUSH1 0x60 DUP4 ADD MSTORE PUSH2 0x1134 DUP2 DUP7 PUSH2 0xE05 JUMP JUMPDEST SWAP1 POP DUP2 DUP2 SUB PUSH1 0x80 DUP4 ADD MSTORE PUSH2 0x1148 DUP2 DUP6 PUSH2 0xE05 JUMP JUMPDEST SWAP1 POP DUP2 DUP2 SUB PUSH1 0xA0 DUP4 ADD MSTORE PUSH2 0x115C DUP2 DUP5 PUSH2 0xE05 JUMP JUMPDEST SWAP1 POP SWAP8 SWAP7 POP POP POP POP POP POP POP JUMP JUMPDEST PUSH0 DUP1 PUSH0 DUP1 PUSH1 0x80 DUP6 DUP8 SUB SLT ISZERO PUSH2 0x1181 JUMPI PUSH2 0x1180 PUSH2 0xD3E JUMP JUMPDEST JUMPDEST PUSH0 PUSH2 0x118E DUP8 DUP3 DUP9 ADD PUSH2 0xD65 JUMP JUMPDEST SWAP5 POP POP PUSH1 0x20 DUP6 ADD CALLDATALOAD PUSH8 0xFFFFFFFFFFFFFFFF DUP2 GT ISZERO PUSH2 0x11AF JUMPI PUSH2 0x11AE PUSH2 0xD42 JUMP JUMPDEST JUMPDEST PUSH2 0x11BB DUP8 DUP3 DUP9 ADD PUSH2 0xFEF JUMP JUMPDEST SWAP4 POP POP PUSH1 0x40 DUP6 ADD CALLDATALOAD PUSH8 0xFFFFFFFFFFFFFFFF DUP2 GT ISZERO PUSH2 0x11DC JUMPI PUSH2 0x11DB PUSH2 0xD42 JUMP JUMPDEST JUMPDEST PUSH2 0x11E8 DUP8 DUP3 DUP9 ADD PUSH2 0xFEF JUMP JUMPDEST SWAP3 POP POP PUSH1 0x60 DUP6 ADD CALLDATALOAD PUSH8 0xFFFFFFFFFFFFFFFF DUP2 GT ISZERO PUSH2 0x1209 JUMPI PUSH2 0x1208 PUSH2 0xD42 JUMP JUMPDEST JUMPDEST PUSH2 0x1215 DUP8 DUP3 DUP9 ADD PUSH2 0xFEF JUMP JUMPDEST SWAP2 POP POP SWAP3 SWAP6 SWAP2 SWAP5 POP SWAP3 POP JUMP JUMPDEST PUSH2 0x122A DUP2 PUSH2 0xE5C JUMP JUMPDEST DUP2 EQ PUSH2 0x1234 JUMPI PUSH0 DUP1 REVERT JUMPDEST POP JUMP JUMPDEST PUSH0 DUP2 CALLDATALOAD SWAP1 POP PUSH2 0x1245 DUP2 PUSH2 0x1221 JUMP JUMPDEST SWAP3 SWAP2 POP POP JUMP JUMPDEST PUSH0 PUSH1 0x20 DUP3 DUP5 SUB SLT ISZERO PUSH2 0x1260 JUMPI PUSH2 0x125F PUSH2 0xD3E JUMP JUMPDEST JUMPDEST PUSH0 PUSH2 0x126D DUP5 DUP3 DUP6 ADD PUSH2 0x1237 JUMP JUMPDEST SWAP2 POP POP SWAP3 SWAP2 POP POP JUMP JUMPDEST PUSH0 DUP1 PUSH0 DUP1 PUSH0 PUSH1 0xA0 DUP7 DUP9 SUB SLT ISZERO PUSH2 0x128F JUMPI PUSH2 0x128E PUSH2 0xD3E JUMP JUMPDEST JUMPDEST PUSH0 PUSH2 0x129C DUP9 DUP3 DUP10 ADD PUSH2 0xD65 JUMP JUMPDEST SWAP6 POP POP PUSH1 0x20 PUSH2 0x12AD DUP9 DUP3 DUP10 ADD PUSH2 0xD65 JUMP JUMPDEST SWAP5 POP POP PUSH1 0x40 DUP7 ADD CALLDATALOAD PUSH8 0xFFFFFFFFFFFFFFFF DUP2 GT ISZERO PUSH2 0x12CE JUMPI PUSH2 0x12CD PUSH2 0xD42 JUMP JUMPDEST JUMPDEST PUSH2 0x12DA DUP9 DUP3 DUP10 ADD PUSH2 0xFEF JUMP JUMPDEST SWAP4 POP POP PUSH1 0x60 DUP7 ADD CALLDATALOAD PUSH8 0xFFFFFFFFFFFFFFFF DUP2 GT ISZERO PUSH2 0x12FB JUMPI PUSH2 0x12FA PUSH2 0xD42 JUMP JUMPDEST JUMPDEST PUSH2 0x1307 DUP9 DUP3 DUP10 ADD PUSH2 0xFEF JUMP JUMPDEST SWAP3 POP POP PUSH1 0x80 DUP7 ADD CALLDATALOAD PUSH8 0xFFFFFFFFFFFFFFFF DUP2 GT ISZERO PUSH2 0x1328 JUMPI PUSH2 0x1327 PUSH2 0xD42 JUMP JUMPDEST JUMPDEST PUSH2 0x1334 DUP9 DUP3 DUP10 ADD PUSH2 0xFEF JUMP JUMPDEST SWAP2 POP POP SWAP3 SWAP6 POP SWAP3 SWAP6 SWAP1 SWAP4 POP JUMP JUMPDEST PUSH0 PUSH1 0x20 DUP3 ADD SWAP1 POP PUSH2 0x1354 PUSH0 DUP4 ADD DUP5 PUSH2 0xE6D JUMP JUMPDEST SWAP3 SWAP2 POP POP JUMP JUMPDEST PUSH32 0x4E487B7100000000000000000000000000000000000000000000000000000000 PUSH0 MSTORE PUSH1 0x22 PUSH1 0x4 MSTORE PUSH1 0x24 PUSH0 REVERT JUMPDEST PUSH0 PUSH1 0x2 DUP3 DIV SWAP1 POP PUSH1 0x1 DUP3 AND DUP1 PUSH2 0x139E JUMPI PUSH1 0x7F DUP3 AND SWAP2 POP JUMPDEST PUSH1 0x20 DUP3 LT DUP2 SUB PUSH2 0x13B1 JUMPI PUSH2 0x13B0 PUSH2 0x135A JUMP JUMPDEST JUMPDEST POP SWAP2 SWAP1 POP JUMP JUMPDEST PUSH0 DUP2 SWAP1 POP DUP2 PUSH0 MSTORE PUSH1 0x20 PUSH0 KECCAK256 SWAP1 POP SWAP2 SWAP1 POP JUMP JUMPDEST PUSH0 PUSH1 0x20 PUSH1 0x1F DUP4 ADD DIV SWAP1 POP SWAP2 SWAP1 POP JUMP JUMPDEST PUSH0 DUP3 DUP3 SHL SWAP1 POP SWAP3 SWAP2 POP POP JUMP JUMPDEST PUSH0 PUSH1 0x8 DUP4 MUL PUSH2 0x1413 PUSH32 0xFFFFFFFFFFFFFFFFFFFFFFFFFFFFFFFFFFFFFFFFFFFFFFFFFFFFFFFFFFFFFFFF DUP3 PUSH2 0x13D8 JUMP JUMPDEST PUSH2 0x141D DUP7 DUP4 PUSH2 0x13D8 JUMP JUMPDEST SWAP6 POP DUP1 NOT DUP5 AND SWAP4 POP DUP1 DUP7 AND DUP5 OR SWAP3 POP POP POP SWAP4 SWAP3 POP POP POP JUMP JUMPDEST PUSH0 DUP2 SWAP1 POP SWAP2 SWAP1 POP JUMP JUMPDEST PUSH0 PUSH2 0x1458 PUSH2 0x1453 PUSH2 0x144E DUP5 PUSH2 0xD46 JUMP JUMPDEST PUSH2 0x1435 JUMP JUMPDEST PUSH2 0xD46 JUMP JUMPDEST SWAP1 POP SWAP2 SWAP1 POP JUMP JUMPDEST PUSH0 DUP2 SWAP1 POP SWAP2 SWAP1 POP JUMP JUMPDEST PUSH2 0x1471 DUP4 PUSH2 0x143E JUMP JUMPDEST PUSH2 0x1485 PUSH2 0x147D DUP3 PUSH2 0x145F JUMP JUMPDEST DUP5 DUP5 SLOAD PUSH2 0x13E4 JUMP JUMPDEST DUP3 SSTORE POP POP POP POP JUMP JUMPDEST PUSH0 SWAP1 JUMP JUMPDEST PUSH2 0x1499 PUSH2 0x148D JUMP JUMPDEST PUSH2 0x14A4 DUP2 DUP5 DUP5 PUSH2 0x1468 JUMP JUMPDEST POP POP POP JUMP JUMPDEST JUMPDEST DUP2 DUP2 LT ISZERO PUSH2 0x14C7 JUMPI PUSH2 0x14BC PUSH0 DUP3 PUSH2 0x1491 JUMP JUMPDEST PUSH1 0x1 DUP2 ADD SWAP1 POP PUSH2 0x14AA JUMP JUMPDEST POP POP JUMP JUMPDEST PUSH1 0x1F DUP3 GT ISZERO PUSH2 0x150C JUMPI PUSH2 0x14DD DUP2 PUSH2 0x13B7 JUMP JUMPDEST PUSH2 0x14E6 DUP5 PUSH2 0x13C9 JUMP JUMPDEST DUP2 ADD PUSH1 0x20 DUP6 LT ISZERO PUSH2 0x14F5 JUMPI DUP2 SWAP1 POP JUMPDEST PUSH2 0x1509 PUSH2 0x1501 DUP6 PUSH2 0x13C9 JUMP JUMPDEST DUP4 ADD DUP3 PUSH2 0x14A9 JUMP JUMPDEST POP POP JUMPDEST POP POP POP JUMP JUMPDEST PUSH0 DUP3 DUP3 SHR SWAP1 POP SWAP3 SWAP2 POP POP JUMP JUMPDEST PUSH0 PUSH2 0x152C PUSH0 NOT DUP5 PUSH1 0x8 MUL PUSH2 0x1511 JUMP JUMPDEST NOT DUP1 DUP4 AND SWAP2 POP POP SWAP3 SWAP2 POP POP JUMP JUMPDEST PUSH0 PUSH2 0x1544 DUP4 DUP4 PUSH2 0x151D JUMP JUMPDEST SWAP2 POP DUP3 PUSH1 0x2 MUL DUP3 OR SWAP1 POP SWAP3 SWAP2 POP POP JUMP JUMPDEST PUSH2 0x155D DUP3 PUSH2 0xDB3 JUMP JUMPDEST PUSH8 0xFFFFFFFFFFFFFFFF DUP2 GT ISZERO PUSH2 0x1576 JUMPI PUSH2 0x1575 PUSH2 0xEF8 JUMP JUMPDEST JUMPDEST PUSH2 0x1580 DUP3 SLOAD PUSH2 0x1387 JUMP JUMPDEST PUSH2 0x158B DUP3 DUP3 DUP6 PUSH2 0x14CB JUMP JUMPDEST PUSH0 PUSH1 0x20 SWAP1 POP PUSH1 0x1F DUP4 GT PUSH1 0x1 DUP2 EQ PUSH2 0x15BC JUMPI PUSH0 DUP5 ISZERO PUSH2 0x15AA JUMPI DUP3 DUP8 ADD MLOAD SWAP1 POP JUMPDEST PUSH2 0x15B4 DUP6 DUP3 PUSH2 0x1539 JUMP JUMPDEST DUP7 SSTORE POP PUSH2 0x161B JUMP JUMPDEST PUSH1 0x1F NOT DUP5 AND PUSH2 0x15CA DUP7 PUSH2 0x13B7 JUMP JUMPDEST PUSH0 JUMPDEST DUP3 DUP2 LT ISZERO PUSH2 0x15F1 JUMPI DUP5 DUP10 ADD MLOAD DUP3 SSTORE PUSH1 0x1 DUP3 ADD SWAP2 POP PUSH1 0x20 DUP6 ADD SWAP5 POP PUSH1 0x20 DUP2 ADD SWAP1 POP PUSH2 0x15CC JUMP JUMPDEST DUP7 DUP4 LT ISZERO PUSH2 0x160E JUMPI DUP5 DUP10 ADD MLOAD PUSH2 0x160A PUSH1 0x1F DUP10 AND DUP3 PUSH2 0x151D JUMP JUMPDEST DUP4 SSTORE POP JUMPDEST PUSH1 0x1 PUSH1 0x2 DUP9 MUL ADD DUP9 SSTORE POP POP POP JUMPDEST POP POP POP POP POP POP JUMP INVALID LOG2 PUSH5 0x6970667358 0x22 SLT KECCAK256 0xB8 DUP10 0xB1 0xA6 0x27 0xCC 0xEF PUSH24 0xF5B4E88C8EA0E4A696B2DE25DE9338EB8B9E6726D22A7591 PUSH5 0x736F6C6343 STOP ADDMOD AND STOP CALLER "
				},
				"gasEstimates": {
					"creation": {
						"codeDepositCost": "1144200",
						"executionCost": "25450",
						"totalCost": "1169650"
					},
					"external": {
						"addDiploma(uint256,uint256,string,string,string)": "infinite",
						"admin()": "2593",
						"companies(uint256)": "infinite",
						"createCompany(uint256,string,string)": "infinite",
						"createEstablishment(uint256,string,string)": "infinite",
						"createStudent(uint256,string,string,string)": "infinite",
						"diplomas(uint256)": "infinite",
						"establishmentAdmins(address)": "infinite",
						"students(uint256)": "infinite"
					}
				},
				"methodIdentifiers": {
					"addDiploma(uint256,uint256,string,string,string)": "f04656eb",
					"admin()": "f851a440",
					"companies(uint256)": "2813d19d",
					"createCompany(uint256,string,string)": "2a6a48b1",
					"createEstablishment(uint256,string,string)": "1274147e",
					"createStudent(uint256,string,string,string)": "4495a008",
					"diplomas(uint256)": "35dfc1c3",
					"establishmentAdmins(address)": "91a3972b",
					"students(uint256)": "06ead22e"
				}
			},
			"storageLayout": {
				"storage": [
					{
						"astId": 3,
						"contract": "contracts/Projet_Blockchain/test.sol:UniversitySystem",
						"label": "admin",
						"offset": 0,
						"slot": "0",
						"type": "t_address"
					},
					{
						"astId": 72,
						"contract": "contracts/Projet_Blockchain/test.sol:UniversitySystem",
						"label": "establishmentAdmins",
						"offset": 0,
						"slot": "1",
						"type": "t_mapping(t_address,t_struct(Establishment)45_storage)"
					},
					{
						"astId": 77,
						"contract": "contracts/Projet_Blockchain/test.sol:UniversitySystem",
						"label": "students",
						"offset": 0,
						"slot": "2",
						"type": "t_mapping(t_uint256,t_struct(Student)36_storage)"
					},
					{
						"astId": 82,
						"contract": "contracts/Projet_Blockchain/test.sol:UniversitySystem",
						"label": "diplomas",
						"offset": 0,
						"slot": "3",
						"type": "t_mapping(t_uint256,t_struct(Diploma)58_storage)"
					},
					{
						"astId": 87,
						"contract": "contracts/Projet_Blockchain/test.sol:UniversitySystem",
						"label": "companies",
						"offset": 0,
						"slot": "4",
						"type": "t_mapping(t_uint256,t_struct(Company)67_storage)"
					}
				],
				"types": {
					"t_address": {
						"encoding": "inplace",
						"label": "address",
						"numberOfBytes": "20"
					},
					"t_mapping(t_address,t_struct(Establishment)45_storage)": {
						"encoding": "mapping",
						"key": "t_address",
						"label": "mapping(address => struct UniversitySystem.Establishment)",
						"numberOfBytes": "32",
						"value": "t_struct(Establishment)45_storage"
					},
					"t_mapping(t_uint256,t_struct(Company)67_storage)": {
						"encoding": "mapping",
						"key": "t_uint256",
						"label": "mapping(uint256 => struct UniversitySystem.Company)",
						"numberOfBytes": "32",
						"value": "t_struct(Company)67_storage"
					},
					"t_mapping(t_uint256,t_struct(Diploma)58_storage)": {
						"encoding": "mapping",
						"key": "t_uint256",
						"label": "mapping(uint256 => struct UniversitySystem.Diploma)",
						"numberOfBytes": "32",
						"value": "t_struct(Diploma)58_storage"
					},
					"t_mapping(t_uint256,t_struct(Student)36_storage)": {
						"encoding": "mapping",
						"key": "t_uint256",
						"label": "mapping(uint256 => struct UniversitySystem.Student)",
						"numberOfBytes": "32",
						"value": "t_struct(Student)36_storage"
					},
					"t_string_storage": {
						"encoding": "bytes",
						"label": "string",
						"numberOfBytes": "32"
					},
					"t_struct(Company)67_storage": {
						"encoding": "inplace",
						"label": "struct UniversitySystem.Company",
						"members": [
							{
								"astId": 60,
								"contract": "contracts/Projet_Blockchain/test.sol:UniversitySystem",
								"label": "id",
								"offset": 0,
								"slot": "0",
								"type": "t_uint256"
							},
							{
								"astId": 62,
								"contract": "contracts/Projet_Blockchain/test.sol:UniversitySystem",
								"label": "name",
								"offset": 0,
								"slot": "1",
								"type": "t_string_storage"
							},
							{
								"astId": 64,
								"contract": "contracts/Projet_Blockchain/test.sol:UniversitySystem",
								"label": "address_",
								"offset": 0,
								"slot": "2",
								"type": "t_string_storage"
							},
							{
								"astId": 66,
								"contract": "contracts/Projet_Blockchain/test.sol:UniversitySystem",
								"label": "recruitmentAgent",
								"offset": 0,
								"slot": "3",
								"type": "t_address"
							}
						],
						"numberOfBytes": "128"
					},
					"t_struct(Diploma)58_storage": {
						"encoding": "inplace",
						"label": "struct UniversitySystem.Diploma",
						"members": [
							{
								"astId": 47,
								"contract": "contracts/Projet_Blockchain/test.sol:UniversitySystem",
								"label": "id",
								"offset": 0,
								"slot": "0",
								"type": "t_uint256"
							},
							{
								"astId": 49,
								"contract": "contracts/Projet_Blockchain/test.sol:UniversitySystem",
								"label": "studentId",
								"offset": 0,
								"slot": "1",
								"type": "t_uint256"
							},
							{
								"astId": 51,
								"contract": "contracts/Projet_Blockchain/test.sol:UniversitySystem",
								"label": "establishmentId",
								"offset": 0,
								"slot": "2",
								"type": "t_uint256"
							},
							{
								"astId": 53,
								"contract": "contracts/Projet_Blockchain/test.sol:UniversitySystem",
								"label": "establishmentName",
								"offset": 0,
								"slot": "3",
								"type": "t_string_storage"
							},
							{
								"astId": 55,
								"contract": "contracts/Projet_Blockchain/test.sol:UniversitySystem",
								"label": "type_",
								"offset": 0,
								"slot": "4",
								"type": "t_string_storage"
							},
							{
								"astId": 57,
								"contract": "contracts/Projet_Blockchain/test.sol:UniversitySystem",
								"label": "mention",
								"offset": 0,
								"slot": "5",
								"type": "t_string_storage"
							}
						],
						"numberOfBytes": "192"
					},
					"t_struct(Establishment)45_storage": {
						"encoding": "inplace",
						"label": "struct UniversitySystem.Establishment",
						"members": [
							{
								"astId": 38,
								"contract": "contracts/Projet_Blockchain/test.sol:UniversitySystem",
								"label": "id",
								"offset": 0,
								"slot": "0",
								"type": "t_uint256"
							},
							{
								"astId": 40,
								"contract": "contracts/Projet_Blockchain/test.sol:UniversitySystem",
								"label": "name",
								"offset": 0,
								"slot": "1",
								"type": "t_string_storage"
							},
							{
								"astId": 42,
								"contract": "contracts/Projet_Blockchain/test.sol:UniversitySystem",
								"label": "type_",
								"offset": 0,
								"slot": "2",
								"type": "t_string_storage"
							},
							{
								"astId": 44,
								"contract": "contracts/Projet_Blockchain/test.sol:UniversitySystem",
								"label": "adminAgent",
								"offset": 0,
								"slot": "3",
								"type": "t_address"
							}
						],
						"numberOfBytes": "128"
					},
					"t_struct(Student)36_storage": {
						"encoding": "inplace",
						"label": "struct UniversitySystem.Student",
						"members": [
							{
								"astId": 25,
								"contract": "contracts/Projet_Blockchain/test.sol:UniversitySystem",
								"label": "id",
								"offset": 0,
								"slot": "0",
								"type": "t_uint256"
							},
							{
								"astId": 27,
								"contract": "contracts/Projet_Blockchain/test.sol:UniversitySystem",
								"label": "name",
								"offset": 0,
								"slot": "1",
								"type": "t_string_storage"
							},
							{
								"astId": 29,
								"contract": "contracts/Projet_Blockchain/test.sol:UniversitySystem",
								"label": "surname",
								"offset": 0,
								"slot": "2",
								"type": "t_string_storage"
							},
							{
								"astId": 31,
								"contract": "contracts/Projet_Blockchain/test.sol:UniversitySystem",
								"label": "gender",
								"offset": 0,
								"slot": "3",
								"type": "t_string_storage"
							},
							{
								"astId": 33,
								"contract": "contracts/Projet_Blockchain/test.sol:UniversitySystem",
								"label": "evaluation",
								"offset": 0,
								"slot": "4",
								"type": "t_uint256"
							},
							{
								"astId": 35,
								"contract": "contracts/Projet_Blockchain/test.sol:UniversitySystem",
								"label": "profileAgent",
								"offset": 0,
								"slot": "5",
								"type": "t_address"
							}
						],
						"numberOfBytes": "192"
					},
					"t_uint256": {
						"encoding": "inplace",
						"label": "uint256",
						"numberOfBytes": "32"
					}
				}
			},
			"userdoc": {
				"kind": "user",
				"methods": {},
				"version": 1
			}
		}
	}
}