{
	"Projet_Blockchain_Dev/contracts/Projet_Blockchain/_Etablissement.sol": {
		"EtablissementContrat": {
			"abi": [
				{
					"inputs": [],
					"stateMutability": "nonpayable",
					"type": "constructor"
				},
				{
					"inputs": [],
					"name": "AgentId",
					"outputs": [
						{
							"internalType": "uint256",
							"name": "",
							"type": "uint256"
						}
					],
					"stateMutability": "view",
					"type": "function"
				},
				{
					"inputs": [
						{
							"internalType": "uint256",
							"name": "_id_titulaire",
							"type": "uint256"
						},
						{
							"internalType": "string",
							"name": "_type_diplome",
							"type": "string"
						},
						{
							"internalType": "string",
							"name": "_specialite",
							"type": "string"
						},
						{
							"internalType": "string",
							"name": "_mention",
							"type": "string"
						},
						{
							"internalType": "string",
							"name": "_date_obtention",
							"type": "string"
						}
					],
					"name": "CreerDiplome",
					"outputs": [],
					"stateMutability": "nonpayable",
					"type": "function"
				},
				{
					"inputs": [
						{
							"internalType": "string",
							"name": "_nom_ees",
							"type": "string"
						},
						{
							"internalType": "string",
							"name": "_type_ees",
							"type": "string"
						},
						{
							"internalType": "string",
							"name": "_pays_ees",
							"type": "string"
						},
						{
							"internalType": "string",
							"name": "_site_web_ees",
							"type": "string"
						}
					],
					"name": "CreerEtablissement",
					"outputs": [],
					"stateMutability": "nonpayable",
					"type": "function"
				},
				{
					"inputs": [
						{
							"internalType": "string",
							"name": "_nom_etudiant",
							"type": "string"
						},
						{
							"internalType": "string",
							"name": "_prenom_etudiant",
							"type": "string"
						},
						{
							"internalType": "string",
							"name": "_sexe",
							"type": "string"
						},
						{
							"internalType": "string",
							"name": "_sujet_pfe",
							"type": "string"
						},
						{
							"internalType": "uint256",
							"name": "_id_entreprise",
							"type": "uint256"
						},
						{
							"internalType": "string",
							"name": "_maitreStage",
							"type": "string"
						},
						{
							"internalType": "string",
							"name": "_date_debut_stage",
							"type": "string"
						},
						{
							"internalType": "string",
							"name": "_date_fin_stage",
							"type": "string"
						}
					],
					"name": "CreerEtudiant",
					"outputs": [],
					"stateMutability": "nonpayable",
					"type": "function"
				},
				{
					"inputs": [],
					"name": "DiplomeId",
					"outputs": [
						{
							"internalType": "uint256",
							"name": "",
							"type": "uint256"
						}
					],
					"stateMutability": "view",
					"type": "function"
				},
				{
					"inputs": [],
					"name": "EtablissementId",
					"outputs": [
						{
							"internalType": "uint256",
							"name": "",
							"type": "uint256"
						}
					],
					"stateMutability": "view",
					"type": "function"
				},
				{
					"inputs": [],
					"name": "EtudiantId",
					"outputs": [
						{
							"internalType": "uint256",
							"name": "",
							"type": "uint256"
						}
					],
					"stateMutability": "view",
					"type": "function"
				},
				{
					"inputs": [
						{
							"internalType": "uint256",
							"name": "_id_diplome",
							"type": "uint256"
						}
					],
					"name": "VerifierDiplome",
					"outputs": [
						{
							"internalType": "bool",
							"name": "",
							"type": "bool"
						},
						{
							"internalType": "string",
							"name": "",
							"type": "string"
						}
					],
					"stateMutability": "view",
					"type": "function"
				},
				{
					"inputs": [],
					"name": "admin",
					"outputs": [
						{
							"internalType": "address",
							"name": "",
							"type": "address"
						}
					],
					"stateMutability": "view",
					"type": "function"
				},
				{
					"inputs": [
						{
							"internalType": "uint256",
							"name": "",
							"type": "uint256"
						}
					],
					"name": "diplomes",
					"outputs": [
						{
							"internalType": "uint256",
							"name": "id_diplome",
							"type": "uint256"
						},
						{
							"internalType": "uint256",
							"name": "id_titulaire",
							"type": "uint256"
						},
						{
							"internalType": "uint256",
							"name": "id_ees",
							"type": "uint256"
						},
						{
							"internalType": "string",
							"name": "nom_ees",
							"type": "string"
						},
						{
							"internalType": "string",
							"name": "type_diplome",
							"type": "string"
						},
						{
							"internalType": "string",
							"name": "specialite",
							"type": "string"
						},
						{
							"internalType": "string",
							"name": "mention",
							"type": "string"
						},
						{
							"internalType": "string",
							"name": "date_obtention",
							"type": "string"
						}
					],
					"stateMutability": "view",
					"type": "function"
				},
				{
					"inputs": [
						{
							"internalType": "address",
							"name": "",
							"type": "address"
						}
					],
					"name": "etablissements",
					"outputs": [
						{
							"internalType": "uint256",
							"name": "id_ees",
							"type": "uint256"
						},
						{
							"internalType": "string",
							"name": "nom_ees",
							"type": "string"
						},
						{
							"internalType": "string",
							"name": "type_ees",
							"type": "string"
						},
						{
							"internalType": "string",
							"name": "pays_ees",
							"type": "string"
						},
						{
							"internalType": "string",
							"name": "site_web_ees",
							"type": "string"
						},
						{
							"internalType": "uint256",
							"name": "id_agent_ees",
							"type": "uint256"
						},
						{
							"internalType": "address",
							"name": "adminAgent",
							"type": "address"
						}
					],
					"stateMutability": "view",
					"type": "function"
				},
				{
					"inputs": [
						{
							"internalType": "uint256",
							"name": "",
							"type": "uint256"
						}
					],
					"name": "etudiants",
					"outputs": [
						{
							"internalType": "uint256",
							"name": "id_etudiant",
							"type": "uint256"
						},
						{
							"internalType": "string",
							"name": "nom_etudiant",
							"type": "string"
						},
						{
							"internalType": "string",
							"name": "prenom_etudiant",
							"type": "string"
						},
						{
							"internalType": "string",
							"name": "sexe",
							"type": "string"
						},
						{
							"internalType": "string",
							"name": "sujet_pfe",
							"type": "string"
						},
						{
							"internalType": "uint256",
							"name": "id_entreprise",
							"type": "uint256"
						},
						{
							"internalType": "string",
							"name": "maitreStage",
							"type": "string"
						},
						{
							"internalType": "string",
							"name": "date_debut_stage",
							"type": "string"
						},
						{
							"internalType": "string",
							"name": "date_fin_stage",
							"type": "string"
						},
						{
							"internalType": "uint256",
							"name": "evaluation",
							"type": "uint256"
						},
						{
							"internalType": "address",
							"name": "profileAgent",
							"type": "address"
						}
					],
					"stateMutability": "view",
					"type": "function"
				},
				{
					"inputs": [
						{
							"internalType": "address",
							"name": "",
							"type": "address"
						}
					],
					"name": "evaluationEtudiants",
					"outputs": [
						{
							"internalType": "uint256",
							"name": "",
							"type": "uint256"
						}
					],
					"stateMutability": "view",
					"type": "function"
				},
				{
					"inputs": [
						{
							"internalType": "uint256",
							"name": "_id_etudiant",
							"type": "uint256"
						},
						{
							"internalType": "string",
							"name": "_nom_etudiant",
							"type": "string"
						},
						{
							"internalType": "string",
							"name": "_prenom_etudiant",
							"type": "string"
						},
						{
							"internalType": "string",
							"name": "_sexe",
							"type": "string"
						},
						{
							"internalType": "string",
							"name": "_sujet_pfe",
							"type": "string"
						},
						{
							"internalType": "uint256",
							"name": "_id_entreprise",
							"type": "uint256"
						},
						{
							"internalType": "string",
							"name": "_maitreStage",
							"type": "string"
						},
						{
							"internalType": "string",
							"name": "_date_debut_stage",
							"type": "string"
						},
						{
							"internalType": "string",
							"name": "_date_fin_stage",
							"type": "string"
						}
					],
					"name": "modifierEtudiant",
					"outputs": [],
					"stateMutability": "nonpayable",
					"type": "function"
				},
				{
					"inputs": [
						{
							"internalType": "uint256",
							"name": "_studentId",
							"type": "uint256"
						},
						{
							"internalType": "uint256",
							"name": "_evaluation",
							"type": "uint256"
						}
					],
					"name": "updateStudentEvaluation",
					"outputs": [],
					"stateMutability": "nonpayable",
					"type": "function"
				}
			],
			"devdoc": {
				"kind": "dev",
				"methods": {},
				"version": 1
			},
			"evm": {
				"assembly": "    /* \"Projet_Blockchain_Dev/contracts/Projet_Blockchain/_Etablissement.sol\":60:5865  contract EtablissementContrat {... */\n  mstore(0x40, 0x80)\n    /* \"Projet_Blockchain_Dev/contracts/Projet_Blockchain/_Etablissement.sol\":1703:1704  1 */\n  0x01\n    /* \"Projet_Blockchain_Dev/contracts/Projet_Blockchain/_Etablissement.sol\":1678:1704  uint public EtudiantId = 1 */\n  0x05\n  sstore\n    /* \"Projet_Blockchain_Dev/contracts/Projet_Blockchain/_Etablissement.sol\":1735:1736  1 */\n  0x01\n    /* \"Projet_Blockchain_Dev/contracts/Projet_Blockchain/_Etablissement.sol\":1711:1736  uint public DiplomeId = 1 */\n  0x06\n  sstore\n    /* \"Projet_Blockchain_Dev/contracts/Projet_Blockchain/_Etablissement.sol\":1773:1774  1 */\n  0x01\n    /* \"Projet_Blockchain_Dev/contracts/Projet_Blockchain/_Etablissement.sol\":1743:1774  uint public EtablissementId = 1 */\n  0x07\n  sstore\n    /* \"Projet_Blockchain_Dev/contracts/Projet_Blockchain/_Etablissement.sol\":1803:1804  1 */\n  0x01\n    /* \"Projet_Blockchain_Dev/contracts/Projet_Blockchain/_Etablissement.sol\":1781:1804  uint public AgentId = 1 */\n  0x08\n  sstore\n    /* \"Projet_Blockchain_Dev/contracts/Projet_Blockchain/_Etablissement.sol\":158:209  constructor() {... */\n  callvalue\n  dup1\n  iszero\n  tag_1\n  jumpi\n  0x00\n  dup1\n  revert\ntag_1:\n  pop\n    /* \"Projet_Blockchain_Dev/contracts/Projet_Blockchain/_Etablissement.sol\":191:201  msg.sender */\n  caller\n    /* \"Projet_Blockchain_Dev/contracts/Projet_Blockchain/_Etablissement.sol\":183:188  admin */\n  0x00\n  dup1\n    /* \"Projet_Blockchain_Dev/contracts/Projet_Blockchain/_Etablissement.sol\":183:201  admin = msg.sender */\n  0x0100\n  exp\n  dup2\n  sload\n  dup2\n  0xffffffffffffffffffffffffffffffffffffffff\n  mul\n  not\n  and\n  swap1\n  dup4\n  0xffffffffffffffffffffffffffffffffffffffff\n  and\n  mul\n  or\n  swap1\n  sstore\n  pop\n    /* \"Projet_Blockchain_Dev/contracts/Projet_Blockchain/_Etablissement.sol\":60:5865  contract EtablissementContrat {... */\n  dataSize(sub_0)\n  dup1\n  dataOffset(sub_0)\n  0x00\n  codecopy\n  0x00\n  return\nstop\n\nsub_0: assembly {\n        /* \"Projet_Blockchain_Dev/contracts/Projet_Blockchain/_Etablissement.sol\":60:5865  contract EtablissementContrat {... */\n      mstore(0x40, 0x80)\n      callvalue\n      dup1\n      iszero\n      tag_1\n      jumpi\n      0x00\n      dup1\n      revert\n    tag_1:\n      pop\n      jumpi(tag_2, lt(calldatasize, 0x04))\n      shr(0xe0, calldataload(0x00))\n      dup1\n      0x768ceb9a\n      gt\n      tag_18\n      jumpi\n      dup1\n      0xab7fb429\n      gt\n      tag_19\n      jumpi\n      dup1\n      0xab7fb429\n      eq\n      tag_14\n      jumpi\n      dup1\n      0xca863210\n      eq\n      tag_15\n      jumpi\n      dup1\n      0xccaf842b\n      eq\n      tag_16\n      jumpi\n      dup1\n      0xf851a440\n      eq\n      tag_17\n      jumpi\n      jump(tag_2)\n    tag_19:\n      dup1\n      0x768ceb9a\n      eq\n      tag_10\n      jumpi\n      dup1\n      0x8256d51c\n      eq\n      tag_11\n      jumpi\n      dup1\n      0x8930e1e7\n      eq\n      tag_12\n      jumpi\n      dup1\n      0xa75bd042\n      eq\n      tag_13\n      jumpi\n      jump(tag_2)\n    tag_18:\n      dup1\n      0x235a30fa\n      gt\n      tag_20\n      jumpi\n      dup1\n      0x235a30fa\n      eq\n      tag_6\n      jumpi\n      dup1\n      0x5bc4fad8\n      eq\n      tag_7\n      jumpi\n      dup1\n      0x645041bf\n      eq\n      tag_8\n      jumpi\n      dup1\n      0x71e6945c\n      eq\n      tag_9\n      jumpi\n      jump(tag_2)\n    tag_20:\n      dup1\n      0x082e81ef\n      eq\n      tag_3\n      jumpi\n      dup1\n      0x1b86c700\n      eq\n      tag_4\n      jumpi\n      dup1\n      0x22973874\n      eq\n      tag_5\n      jumpi\n    tag_2:\n      0x00\n      dup1\n      revert\n        /* \"Projet_Blockchain_Dev/contracts/Projet_Blockchain/_Etablissement.sol\":4159:5531  function modifierEtudiant(uint _id_etudiant, string memory _nom_etudiant, string memory _prenom_etudiant, string memory _sexe, /*string memory _nationalite, string memory _statut_civil, string memory _adresse, string memory _courriel, string memory _telephone, string memory _section,*/ string memory _sujet_pfe, uint _id_entreprise, string memory _maitreStage, string memory _date_debut_stage, string memory _date_fin_stage) public onlyAdmin {... */\n    tag_3:\n      tag_21\n      0x04\n      dup1\n      calldatasize\n      sub\n      dup2\n      add\n      swap1\n      tag_22\n      swap2\n      swap1\n      tag_23\n      jump\t// in\n    tag_22:\n      tag_24\n      jump\t// in\n    tag_21:\n      stop\n        /* \"Projet_Blockchain_Dev/contracts/Projet_Blockchain/_Etablissement.sol\":1781:1804  uint public AgentId = 1 */\n    tag_4:\n      tag_25\n      tag_26\n      jump\t// in\n    tag_25:\n      mload(0x40)\n      tag_27\n      swap2\n      swap1\n      tag_28\n      jump\t// in\n    tag_27:\n      mload(0x40)\n      dup1\n      swap2\n      sub\n      swap1\n      return\n        /* \"Projet_Blockchain_Dev/contracts/Projet_Blockchain/_Etablissement.sol\":1813:2252  function CreerEtablissement(string memory _nom_ees, string memory _type_ees, string memory _pays_ees, string memory _site_web_ees) public onlyAdmin {... */\n    tag_5:\n      tag_29\n      0x04\n      dup1\n      calldatasize\n      sub\n      dup2\n      add\n      swap1\n      tag_30\n      swap2\n      swap1\n      tag_31\n      jump\t// in\n    tag_30:\n      tag_32\n      jump\t// in\n    tag_29:\n      stop\n        /* \"Projet_Blockchain_Dev/contracts/Projet_Blockchain/_Etablissement.sol\":1522:1564  mapping(uint => Etudiant) public etudiants */\n    tag_6:\n      tag_33\n      0x04\n      dup1\n      calldatasize\n      sub\n      dup2\n      add\n      swap1\n      tag_34\n      swap2\n      swap1\n      tag_35\n      jump\t// in\n    tag_34:\n      tag_36\n      jump\t// in\n    tag_33:\n      mload(0x40)\n      tag_37\n      swap12\n      swap11\n      swap10\n      swap9\n      swap8\n      swap7\n      swap6\n      swap5\n      swap4\n      swap3\n      swap2\n      swap1\n      tag_38\n      jump\t// in\n    tag_37:\n      mload(0x40)\n      dup1\n      swap2\n      sub\n      swap1\n      return\n        /* \"Projet_Blockchain_Dev/contracts/Projet_Blockchain/_Etablissement.sol\":3964:4151  function VerifierDiplome(uint _id_diplome) external view returns (bool, string memory) {... */\n    tag_7:\n      tag_39\n      0x04\n      dup1\n      calldatasize\n      sub\n      dup2\n      add\n      swap1\n      tag_40\n      swap2\n      swap1\n      tag_35\n      jump\t// in\n    tag_40:\n      tag_41\n      jump\t// in\n    tag_39:\n      mload(0x40)\n      tag_42\n      swap3\n      swap2\n      swap1\n      tag_43\n      jump\t// in\n    tag_42:\n      mload(0x40)\n      dup1\n      swap2\n      sub\n      swap1\n      return\n        /* \"Projet_Blockchain_Dev/contracts/Projet_Blockchain/_Etablissement.sol\":5539:5862  function updateStudentEvaluation(uint _studentId, uint _evaluation) external  {... */\n    tag_8:\n      tag_44\n      0x04\n      dup1\n      calldatasize\n      sub\n      dup2\n      add\n      swap1\n      tag_45\n      swap2\n      swap1\n      tag_46\n      jump\t// in\n    tag_45:\n      tag_47\n      jump\t// in\n    tag_44:\n      stop\n        /* \"Projet_Blockchain_Dev/contracts/Projet_Blockchain/_Etablissement.sol\":2260:3250  function CreerEtudiant(string memory _nom_etudiant, string memory _prenom_etudiant, string memory _sexe, /*string memory _nationalite, string memory _statut_civil, string memory _adresse, string memory _courriel, string memory _telephone, string memory _section,*/ string memory _sujet_pfe, uint _id_entreprise, string memory _maitreStage, string memory _date_debut_stage, string memory _date_fin_stage) public onlyAdmin {... */\n    tag_9:\n      tag_48\n      0x04\n      dup1\n      calldatasize\n      sub\n      dup2\n      add\n      swap1\n      tag_49\n      swap2\n      swap1\n      tag_50\n      jump\t// in\n    tag_49:\n      tag_51\n      jump\t// in\n    tag_48:\n      stop\n        /* \"Projet_Blockchain_Dev/contracts/Projet_Blockchain/_Etablissement.sol\":1571:1611  mapping(uint => Diplome) public diplomes */\n    tag_10:\n      tag_52\n      0x04\n      dup1\n      calldatasize\n      sub\n      dup2\n      add\n      swap1\n      tag_53\n      swap2\n      swap1\n      tag_35\n      jump\t// in\n    tag_53:\n      tag_54\n      jump\t// in\n    tag_52:\n      mload(0x40)\n      tag_55\n      swap9\n      swap8\n      swap7\n      swap6\n      swap5\n      swap4\n      swap3\n      swap2\n      swap1\n      tag_56\n      jump\t// in\n    tag_55:\n      mload(0x40)\n      dup1\n      swap2\n      sub\n      swap1\n      return\n        /* \"Projet_Blockchain_Dev/contracts/Projet_Blockchain/_Etablissement.sol\":1460:1515  mapping(address => Etablissement) public etablissements */\n    tag_11:\n      tag_57\n      0x04\n      dup1\n      calldatasize\n      sub\n      dup2\n      add\n      swap1\n      tag_58\n      swap2\n      swap1\n      tag_59\n      jump\t// in\n    tag_58:\n      tag_60\n      jump\t// in\n    tag_57:\n      mload(0x40)\n      tag_61\n      swap8\n      swap7\n      swap6\n      swap5\n      swap4\n      swap3\n      swap2\n      swap1\n      tag_62\n      jump\t// in\n    tag_61:\n      mload(0x40)\n      dup1\n      swap2\n      sub\n      swap1\n      return\n        /* \"Projet_Blockchain_Dev/contracts/Projet_Blockchain/_Etablissement.sol\":3258:3956  function CreerDiplome(uint _id_titulaire, string memory _type_diplome, string memory _specialite, string memory _mention, string memory _date_obtention) public onlyAdmin {... */\n    tag_12:\n      tag_63\n      0x04\n      dup1\n      calldatasize\n      sub\n      dup2\n      add\n      swap1\n      tag_64\n      swap2\n      swap1\n      tag_65\n      jump\t// in\n    tag_64:\n      tag_66\n      jump\t// in\n    tag_63:\n      stop\n        /* \"Projet_Blockchain_Dev/contracts/Projet_Blockchain/_Etablissement.sol\":1743:1774  uint public EtablissementId = 1 */\n    tag_13:\n      tag_67\n      tag_68\n      jump\t// in\n    tag_67:\n      mload(0x40)\n      tag_69\n      swap2\n      swap1\n      tag_28\n      jump\t// in\n    tag_69:\n      mload(0x40)\n      dup1\n      swap2\n      sub\n      swap1\n      return\n        /* \"Projet_Blockchain_Dev/contracts/Projet_Blockchain/_Etablissement.sol\":1711:1736  uint public DiplomeId = 1 */\n    tag_14:\n      tag_70\n      tag_71\n      jump\t// in\n    tag_70:\n      mload(0x40)\n      tag_72\n      swap2\n      swap1\n      tag_28\n      jump\t// in\n    tag_72:\n      mload(0x40)\n      dup1\n      swap2\n      sub\n      swap1\n      return\n        /* \"Projet_Blockchain_Dev/contracts/Projet_Blockchain/_Etablissement.sol\":1618:1669  mapping(address => uint) public evaluationEtudiants */\n    tag_15:\n      tag_73\n      0x04\n      dup1\n      calldatasize\n      sub\n      dup2\n      add\n      swap1\n      tag_74\n      swap2\n      swap1\n      tag_59\n      jump\t// in\n    tag_74:\n      tag_75\n      jump\t// in\n    tag_73:\n      mload(0x40)\n      tag_76\n      swap2\n      swap1\n      tag_28\n      jump\t// in\n    tag_76:\n      mload(0x40)\n      dup1\n      swap2\n      sub\n      swap1\n      return\n        /* \"Projet_Blockchain_Dev/contracts/Projet_Blockchain/_Etablissement.sol\":1678:1704  uint public EtudiantId = 1 */\n    tag_16:\n      tag_77\n      tag_78\n      jump\t// in\n    tag_77:\n      mload(0x40)\n      tag_79\n      swap2\n      swap1\n      tag_28\n      jump\t// in\n    tag_79:\n      mload(0x40)\n      dup1\n      swap2\n      sub\n      swap1\n      return\n        /* \"Projet_Blockchain_Dev/contracts/Projet_Blockchain/_Etablissement.sol\":97:117  address public admin */\n    tag_17:\n      tag_80\n      tag_81\n      jump\t// in\n    tag_80:\n      mload(0x40)\n      tag_82\n      swap2\n      swap1\n      tag_83\n      jump\t// in\n    tag_82:\n      mload(0x40)\n      dup1\n      swap2\n      sub\n      swap1\n      return\n        /* \"Projet_Blockchain_Dev/contracts/Projet_Blockchain/_Etablissement.sol\":4159:5531  function modifierEtudiant(uint _id_etudiant, string memory _nom_etudiant, string memory _prenom_etudiant, string memory _sexe, /*string memory _nationalite, string memory _statut_civil, string memory _adresse, string memory _courriel, string memory _telephone, string memory _section,*/ string memory _sujet_pfe, uint _id_entreprise, string memory _maitreStage, string memory _date_debut_stage, string memory _date_fin_stage) public onlyAdmin {... */\n    tag_24:\n        /* \"Projet_Blockchain_Dev/contracts/Projet_Blockchain/_Etablissement.sol\":271:276  admin */\n      0x00\n      dup1\n      sload\n      swap1\n      0x0100\n      exp\n      swap1\n      div\n      0xffffffffffffffffffffffffffffffffffffffff\n      and\n        /* \"Projet_Blockchain_Dev/contracts/Projet_Blockchain/_Etablissement.sol\":257:276  msg.sender == admin */\n      0xffffffffffffffffffffffffffffffffffffffff\n      and\n        /* \"Projet_Blockchain_Dev/contracts/Projet_Blockchain/_Etablissement.sol\":257:267  msg.sender */\n      caller\n        /* \"Projet_Blockchain_Dev/contracts/Projet_Blockchain/_Etablissement.sol\":257:276  msg.sender == admin */\n      0xffffffffffffffffffffffffffffffffffffffff\n      and\n      eq\n        /* \"Projet_Blockchain_Dev/contracts/Projet_Blockchain/_Etablissement.sol\":249:333  require(msg.sender == admin, \"Seul l'administrateur peut effectuer cette operation\") */\n      tag_85\n      jumpi\n      mload(0x40)\n      0x08c379a000000000000000000000000000000000000000000000000000000000\n      dup2\n      mstore\n      0x04\n      add\n      tag_86\n      swap1\n      tag_87\n      jump\t// in\n    tag_86:\n      mload(0x40)\n      dup1\n      swap2\n      sub\n      swap1\n      revert\n    tag_85:\n        /* \"Projet_Blockchain_Dev/contracts/Projet_Blockchain/_Etablissement.sol\":4613:4638  Etudiant storage etudiant */\n      0x00\n        /* \"Projet_Blockchain_Dev/contracts/Projet_Blockchain/_Etablissement.sol\":4641:4650  etudiants */\n      0x02\n        /* \"Projet_Blockchain_Dev/contracts/Projet_Blockchain/_Etablissement.sol\":4641:4664  etudiants[_id_etudiant] */\n      0x00\n        /* \"Projet_Blockchain_Dev/contracts/Projet_Blockchain/_Etablissement.sol\":4651:4663  _id_etudiant */\n      dup12\n        /* \"Projet_Blockchain_Dev/contracts/Projet_Blockchain/_Etablissement.sol\":4641:4664  etudiants[_id_etudiant] */\n      dup2\n      mstore\n      0x20\n      add\n      swap1\n      dup2\n      mstore\n      0x20\n      add\n      0x00\n      keccak256\n        /* \"Projet_Blockchain_Dev/contracts/Projet_Blockchain/_Etablissement.sol\":4613:4664  Etudiant storage etudiant = etudiants[_id_etudiant] */\n      swap1\n      pop\n        /* \"Projet_Blockchain_Dev/contracts/Projet_Blockchain/_Etablissement.sol\":4708:4718  msg.sender */\n      caller\n        /* \"Projet_Blockchain_Dev/contracts/Projet_Blockchain/_Etablissement.sol\":4683:4718  etudiant.profileAgent == msg.sender */\n      0xffffffffffffffffffffffffffffffffffffffff\n      and\n        /* \"Projet_Blockchain_Dev/contracts/Projet_Blockchain/_Etablissement.sol\":4683:4691  etudiant */\n      dup2\n        /* \"Projet_Blockchain_Dev/contracts/Projet_Blockchain/_Etablissement.sol\":4683:4704  etudiant.profileAgent */\n      0x0a\n      add\n      0x00\n      swap1\n      sload\n      swap1\n      0x0100\n      exp\n      swap1\n      div\n      0xffffffffffffffffffffffffffffffffffffffff\n      and\n        /* \"Projet_Blockchain_Dev/contracts/Projet_Blockchain/_Etablissement.sol\":4683:4718  etudiant.profileAgent == msg.sender */\n      0xffffffffffffffffffffffffffffffffffffffff\n      and\n      eq\n        /* \"Projet_Blockchain_Dev/contracts/Projet_Blockchain/_Etablissement.sol\":4675:4795  require(etudiant.profileAgent == msg.sender, \"Seul l'etablissement qui a cree le profil peut mettre a jour un etudiant\") */\n      tag_89\n      jumpi\n      mload(0x40)\n      0x08c379a000000000000000000000000000000000000000000000000000000000\n      dup2\n      mstore\n      0x04\n      add\n      tag_90\n      swap1\n      tag_91\n      jump\t// in\n    tag_90:\n      mload(0x40)\n      dup1\n      swap2\n      sub\n      swap1\n      revert\n    tag_89:\n        /* \"Projet_Blockchain_Dev/contracts/Projet_Blockchain/_Etablissement.sol\":4922:4935  _nom_etudiant */\n      dup9\n        /* \"Projet_Blockchain_Dev/contracts/Projet_Blockchain/_Etablissement.sol\":4898:4906  etudiant */\n      dup2\n        /* \"Projet_Blockchain_Dev/contracts/Projet_Blockchain/_Etablissement.sol\":4898:4919  etudiant.nom_etudiant */\n      0x01\n      add\n        /* \"Projet_Blockchain_Dev/contracts/Projet_Blockchain/_Etablissement.sol\":4898:4935  etudiant.nom_etudiant = _nom_etudiant */\n      swap1\n      dup2\n      tag_92\n      swap2\n      swap1\n      tag_93\n      jump\t// in\n    tag_92:\n      pop\n        /* \"Projet_Blockchain_Dev/contracts/Projet_Blockchain/_Etablissement.sol\":4973:4989  _prenom_etudiant */\n      dup8\n        /* \"Projet_Blockchain_Dev/contracts/Projet_Blockchain/_Etablissement.sol\":4946:4954  etudiant */\n      dup2\n        /* \"Projet_Blockchain_Dev/contracts/Projet_Blockchain/_Etablissement.sol\":4946:4970  etudiant.prenom_etudiant */\n      0x02\n      add\n        /* \"Projet_Blockchain_Dev/contracts/Projet_Blockchain/_Etablissement.sol\":4946:4989  etudiant.prenom_etudiant = _prenom_etudiant */\n      swap1\n      dup2\n      tag_94\n      swap2\n      swap1\n      tag_93\n      jump\t// in\n    tag_94:\n      pop\n        /* \"Projet_Blockchain_Dev/contracts/Projet_Blockchain/_Etablissement.sol\":5016:5021  _sexe */\n      dup7\n        /* \"Projet_Blockchain_Dev/contracts/Projet_Blockchain/_Etablissement.sol\":5000:5008  etudiant */\n      dup2\n        /* \"Projet_Blockchain_Dev/contracts/Projet_Blockchain/_Etablissement.sol\":5000:5013  etudiant.sexe */\n      0x03\n      add\n        /* \"Projet_Blockchain_Dev/contracts/Projet_Blockchain/_Etablissement.sol\":5000:5021  etudiant.sexe = _sexe */\n      swap1\n      dup2\n      tag_95\n      swap2\n      swap1\n      tag_93\n      jump\t// in\n    tag_95:\n      pop\n        /* \"Projet_Blockchain_Dev/contracts/Projet_Blockchain/_Etablissement.sol\":5309:5319  _sujet_pfe */\n      dup6\n        /* \"Projet_Blockchain_Dev/contracts/Projet_Blockchain/_Etablissement.sol\":5288:5296  etudiant */\n      dup2\n        /* \"Projet_Blockchain_Dev/contracts/Projet_Blockchain/_Etablissement.sol\":5288:5306  etudiant.sujet_pfe */\n      0x04\n      add\n        /* \"Projet_Blockchain_Dev/contracts/Projet_Blockchain/_Etablissement.sol\":5288:5319  etudiant.sujet_pfe = _sujet_pfe */\n      swap1\n      dup2\n      tag_96\n      swap2\n      swap1\n      tag_93\n      jump\t// in\n    tag_96:\n      pop\n        /* \"Projet_Blockchain_Dev/contracts/Projet_Blockchain/_Etablissement.sol\":5355:5369  _id_entreprise */\n      dup5\n        /* \"Projet_Blockchain_Dev/contracts/Projet_Blockchain/_Etablissement.sol\":5330:5338  etudiant */\n      dup2\n        /* \"Projet_Blockchain_Dev/contracts/Projet_Blockchain/_Etablissement.sol\":5330:5352  etudiant.id_entreprise */\n      0x05\n      add\n        /* \"Projet_Blockchain_Dev/contracts/Projet_Blockchain/_Etablissement.sol\":5330:5369  etudiant.id_entreprise = _id_entreprise */\n      dup2\n      swap1\n      sstore\n      pop\n        /* \"Projet_Blockchain_Dev/contracts/Projet_Blockchain/_Etablissement.sol\":5403:5415  _maitreStage */\n      dup4\n        /* \"Projet_Blockchain_Dev/contracts/Projet_Blockchain/_Etablissement.sol\":5380:5388  etudiant */\n      dup2\n        /* \"Projet_Blockchain_Dev/contracts/Projet_Blockchain/_Etablissement.sol\":5380:5400  etudiant.maitreStage */\n      0x06\n      add\n        /* \"Projet_Blockchain_Dev/contracts/Projet_Blockchain/_Etablissement.sol\":5380:5415  etudiant.maitreStage = _maitreStage */\n      swap1\n      dup2\n      tag_97\n      swap2\n      swap1\n      tag_93\n      jump\t// in\n    tag_97:\n      pop\n        /* \"Projet_Blockchain_Dev/contracts/Projet_Blockchain/_Etablissement.sol\":5454:5471  _date_debut_stage */\n      dup3\n        /* \"Projet_Blockchain_Dev/contracts/Projet_Blockchain/_Etablissement.sol\":5426:5434  etudiant */\n      dup2\n        /* \"Projet_Blockchain_Dev/contracts/Projet_Blockchain/_Etablissement.sol\":5426:5451  etudiant.date_debut_stage */\n      0x07\n      add\n        /* \"Projet_Blockchain_Dev/contracts/Projet_Blockchain/_Etablissement.sol\":5426:5471  etudiant.date_debut_stage = _date_debut_stage */\n      swap1\n      dup2\n      tag_98\n      swap2\n      swap1\n      tag_93\n      jump\t// in\n    tag_98:\n      pop\n        /* \"Projet_Blockchain_Dev/contracts/Projet_Blockchain/_Etablissement.sol\":5508:5523  _date_fin_stage */\n      dup2\n        /* \"Projet_Blockchain_Dev/contracts/Projet_Blockchain/_Etablissement.sol\":5482:5490  etudiant */\n      dup2\n        /* \"Projet_Blockchain_Dev/contracts/Projet_Blockchain/_Etablissement.sol\":5482:5505  etudiant.date_fin_stage */\n      0x08\n      add\n        /* \"Projet_Blockchain_Dev/contracts/Projet_Blockchain/_Etablissement.sol\":5482:5523  etudiant.date_fin_stage = _date_fin_stage */\n      swap1\n      dup2\n      tag_99\n      swap2\n      swap1\n      tag_93\n      jump\t// in\n    tag_99:\n      pop\n        /* \"Projet_Blockchain_Dev/contracts/Projet_Blockchain/_Etablissement.sol\":4602:5531  {... */\n      pop\n        /* \"Projet_Blockchain_Dev/contracts/Projet_Blockchain/_Etablissement.sol\":4159:5531  function modifierEtudiant(uint _id_etudiant, string memory _nom_etudiant, string memory _prenom_etudiant, string memory _sexe, /*string memory _nationalite, string memory _statut_civil, string memory _adresse, string memory _courriel, string memory _telephone, string memory _section,*/ string memory _sujet_pfe, uint _id_entreprise, string memory _maitreStage, string memory _date_debut_stage, string memory _date_fin_stage) public onlyAdmin {... */\n      pop\n      pop\n      pop\n      pop\n      pop\n      pop\n      pop\n      pop\n      pop\n      jump\t// out\n        /* \"Projet_Blockchain_Dev/contracts/Projet_Blockchain/_Etablissement.sol\":1781:1804  uint public AgentId = 1 */\n    tag_26:\n      sload(0x08)\n      dup2\n      jump\t// out\n        /* \"Projet_Blockchain_Dev/contracts/Projet_Blockchain/_Etablissement.sol\":1813:2252  function CreerEtablissement(string memory _nom_ees, string memory _type_ees, string memory _pays_ees, string memory _site_web_ees) public onlyAdmin {... */\n    tag_32:\n        /* \"Projet_Blockchain_Dev/contracts/Projet_Blockchain/_Etablissement.sol\":271:276  admin */\n      0x00\n      dup1\n      sload\n      swap1\n      0x0100\n      exp\n      swap1\n      div\n      0xffffffffffffffffffffffffffffffffffffffff\n      and\n        /* \"Projet_Blockchain_Dev/contracts/Projet_Blockchain/_Etablissement.sol\":257:276  msg.sender == admin */\n      0xffffffffffffffffffffffffffffffffffffffff\n      and\n        /* \"Projet_Blockchain_Dev/contracts/Projet_Blockchain/_Etablissement.sol\":257:267  msg.sender */\n      caller\n        /* \"Projet_Blockchain_Dev/contracts/Projet_Blockchain/_Etablissement.sol\":257:276  msg.sender == admin */\n      0xffffffffffffffffffffffffffffffffffffffff\n      and\n      eq\n        /* \"Projet_Blockchain_Dev/contracts/Projet_Blockchain/_Etablissement.sol\":249:333  require(msg.sender == admin, \"Seul l'administrateur peut effectuer cette operation\") */\n      tag_101\n      jumpi\n      mload(0x40)\n      0x08c379a000000000000000000000000000000000000000000000000000000000\n      dup2\n      mstore\n      0x04\n      add\n      tag_102\n      swap1\n      tag_87\n      jump\t// in\n    tag_102:\n      mload(0x40)\n      dup1\n      swap2\n      sub\n      swap1\n      revert\n    tag_101:\n        /* \"Projet_Blockchain_Dev/contracts/Projet_Blockchain/_Etablissement.sol\":2098:2196  Etablissement(EtablissementId, _nom_ees, _type_ees, _pays_ees, _site_web_ees, AgentId, msg.sender) */\n      mload(0x40)\n      dup1\n      0xe0\n      add\n      0x40\n      mstore\n      dup1\n        /* \"Projet_Blockchain_Dev/contracts/Projet_Blockchain/_Etablissement.sol\":2112:2127  EtablissementId */\n      sload(0x07)\n        /* \"Projet_Blockchain_Dev/contracts/Projet_Blockchain/_Etablissement.sol\":2098:2196  Etablissement(EtablissementId, _nom_ees, _type_ees, _pays_ees, _site_web_ees, AgentId, msg.sender) */\n      dup2\n      mstore\n      0x20\n      add\n        /* \"Projet_Blockchain_Dev/contracts/Projet_Blockchain/_Etablissement.sol\":2129:2137  _nom_ees */\n      dup6\n        /* \"Projet_Blockchain_Dev/contracts/Projet_Blockchain/_Etablissement.sol\":2098:2196  Etablissement(EtablissementId, _nom_ees, _type_ees, _pays_ees, _site_web_ees, AgentId, msg.sender) */\n      dup2\n      mstore\n      0x20\n      add\n        /* \"Projet_Blockchain_Dev/contracts/Projet_Blockchain/_Etablissement.sol\":2139:2148  _type_ees */\n      dup5\n        /* \"Projet_Blockchain_Dev/contracts/Projet_Blockchain/_Etablissement.sol\":2098:2196  Etablissement(EtablissementId, _nom_ees, _type_ees, _pays_ees, _site_web_ees, AgentId, msg.sender) */\n      dup2\n      mstore\n      0x20\n      add\n        /* \"Projet_Blockchain_Dev/contracts/Projet_Blockchain/_Etablissement.sol\":2150:2159  _pays_ees */\n      dup4\n        /* \"Projet_Blockchain_Dev/contracts/Projet_Blockchain/_Etablissement.sol\":2098:2196  Etablissement(EtablissementId, _nom_ees, _type_ees, _pays_ees, _site_web_ees, AgentId, msg.sender) */\n      dup2\n      mstore\n      0x20\n      add\n        /* \"Projet_Blockchain_Dev/contracts/Projet_Blockchain/_Etablissement.sol\":2161:2174  _site_web_ees */\n      dup3\n        /* \"Projet_Blockchain_Dev/contracts/Projet_Blockchain/_Etablissement.sol\":2098:2196  Etablissement(EtablissementId, _nom_ees, _type_ees, _pays_ees, _site_web_ees, AgentId, msg.sender) */\n      dup2\n      mstore\n      0x20\n      add\n        /* \"Projet_Blockchain_Dev/contracts/Projet_Blockchain/_Etablissement.sol\":2176:2183  AgentId */\n      sload(0x08)\n        /* \"Projet_Blockchain_Dev/contracts/Projet_Blockchain/_Etablissement.sol\":2098:2196  Etablissement(EtablissementId, _nom_ees, _type_ees, _pays_ees, _site_web_ees, AgentId, msg.sender) */\n      dup2\n      mstore\n      0x20\n      add\n        /* \"Projet_Blockchain_Dev/contracts/Projet_Blockchain/_Etablissement.sol\":2185:2195  msg.sender */\n      caller\n        /* \"Projet_Blockchain_Dev/contracts/Projet_Blockchain/_Etablissement.sol\":2098:2196  Etablissement(EtablissementId, _nom_ees, _type_ees, _pays_ees, _site_web_ees, AgentId, msg.sender) */\n      0xffffffffffffffffffffffffffffffffffffffff\n      and\n      dup2\n      mstore\n      pop\n        /* \"Projet_Blockchain_Dev/contracts/Projet_Blockchain/_Etablissement.sol\":2069:2083  etablissements */\n      0x01\n        /* \"Projet_Blockchain_Dev/contracts/Projet_Blockchain/_Etablissement.sol\":2069:2095  etablissements[msg.sender] */\n      0x00\n        /* \"Projet_Blockchain_Dev/contracts/Projet_Blockchain/_Etablissement.sol\":2084:2094  msg.sender */\n      caller\n        /* \"Projet_Blockchain_Dev/contracts/Projet_Blockchain/_Etablissement.sol\":2069:2095  etablissements[msg.sender] */\n      0xffffffffffffffffffffffffffffffffffffffff\n      and\n      0xffffffffffffffffffffffffffffffffffffffff\n      and\n      dup2\n      mstore\n      0x20\n      add\n      swap1\n      dup2\n      mstore\n      0x20\n      add\n      0x00\n      keccak256\n        /* \"Projet_Blockchain_Dev/contracts/Projet_Blockchain/_Etablissement.sol\":2069:2196  etablissements[msg.sender] = Etablissement(EtablissementId, _nom_ees, _type_ees, _pays_ees, _site_web_ees, AgentId, msg.sender) */\n      0x00\n      dup3\n      add\n      mload\n      dup2\n      0x00\n      add\n      sstore\n      0x20\n      dup3\n      add\n      mload\n      dup2\n      0x01\n      add\n      swap1\n      dup2\n      tag_104\n      swap2\n      swap1\n      tag_93\n      jump\t// in\n    tag_104:\n      pop\n      0x40\n      dup3\n      add\n      mload\n      dup2\n      0x02\n      add\n      swap1\n      dup2\n      tag_105\n      swap2\n      swap1\n      tag_93\n      jump\t// in\n    tag_105:\n      pop\n      0x60\n      dup3\n      add\n      mload\n      dup2\n      0x03\n      add\n      swap1\n      dup2\n      tag_106\n      swap2\n      swap1\n      tag_93\n      jump\t// in\n    tag_106:\n      pop\n      0x80\n      dup3\n      add\n      mload\n      dup2\n      0x04\n      add\n      swap1\n      dup2\n      tag_107\n      swap2\n      swap1\n      tag_93\n      jump\t// in\n    tag_107:\n      pop\n      0xa0\n      dup3\n      add\n      mload\n      dup2\n      0x05\n      add\n      sstore\n      0xc0\n      dup3\n      add\n      mload\n      dup2\n      0x06\n      add\n      exp(0x0100, 0x00)\n      dup2\n      sload\n      dup2\n      0xffffffffffffffffffffffffffffffffffffffff\n      mul\n      not\n      and\n      swap1\n      dup4\n      0xffffffffffffffffffffffffffffffffffffffff\n      and\n      mul\n      or\n      swap1\n      sstore\n      pop\n      swap1\n      pop\n      pop\n        /* \"Projet_Blockchain_Dev/contracts/Projet_Blockchain/_Etablissement.sol\":2207:2222  EtablissementId */\n      0x07\n      0x00\n        /* \"Projet_Blockchain_Dev/contracts/Projet_Blockchain/_Etablissement.sol\":2207:2224  EtablissementId++ */\n      dup2\n      sload\n      dup1\n      swap3\n      swap2\n      swap1\n      tag_108\n      swap1\n      tag_109\n      jump\t// in\n    tag_108:\n      swap2\n      swap1\n      pop\n      sstore\n      pop\n        /* \"Projet_Blockchain_Dev/contracts/Projet_Blockchain/_Etablissement.sol\":2235:2242  AgentId */\n      0x08\n      0x00\n        /* \"Projet_Blockchain_Dev/contracts/Projet_Blockchain/_Etablissement.sol\":2235:2244  AgentId++ */\n      dup2\n      sload\n      dup1\n      swap3\n      swap2\n      swap1\n      tag_110\n      swap1\n      tag_109\n      jump\t// in\n    tag_110:\n      swap2\n      swap1\n      pop\n      sstore\n      pop\n        /* \"Projet_Blockchain_Dev/contracts/Projet_Blockchain/_Etablissement.sol\":1813:2252  function CreerEtablissement(string memory _nom_ees, string memory _type_ees, string memory _pays_ees, string memory _site_web_ees) public onlyAdmin {... */\n      pop\n      pop\n      pop\n      pop\n      jump\t// out\n        /* \"Projet_Blockchain_Dev/contracts/Projet_Blockchain/_Etablissement.sol\":1522:1564  mapping(uint => Etudiant) public etudiants */\n    tag_36:\n      mstore(0x20, 0x02)\n      dup1\n      0x00\n      mstore\n      keccak256(0x00, 0x40)\n      0x00\n      swap2\n      pop\n      swap1\n      pop\n      dup1\n      0x00\n      add\n      sload\n      swap1\n      dup1\n      0x01\n      add\n      dup1\n      sload\n      tag_111\n      swap1\n      tag_112\n      jump\t// in\n    tag_111:\n      dup1\n      0x1f\n      add\n      0x20\n      dup1\n      swap2\n      div\n      mul\n      0x20\n      add\n      mload(0x40)\n      swap1\n      dup2\n      add\n      0x40\n      mstore\n      dup1\n      swap3\n      swap2\n      swap1\n      dup2\n      dup2\n      mstore\n      0x20\n      add\n      dup3\n      dup1\n      sload\n      tag_113\n      swap1\n      tag_112\n      jump\t// in\n    tag_113:\n      dup1\n      iszero\n      tag_114\n      jumpi\n      dup1\n      0x1f\n      lt\n      tag_115\n      jumpi\n      0x0100\n      dup1\n      dup4\n      sload\n      div\n      mul\n      dup4\n      mstore\n      swap2\n      0x20\n      add\n      swap2\n      jump(tag_114)\n    tag_115:\n      dup3\n      add\n      swap2\n      swap1\n      0x00\n      mstore\n      keccak256(0x00, 0x20)\n      swap1\n    tag_116:\n      dup2\n      sload\n      dup2\n      mstore\n      swap1\n      0x01\n      add\n      swap1\n      0x20\n      add\n      dup1\n      dup4\n      gt\n      tag_116\n      jumpi\n      dup3\n      swap1\n      sub\n      0x1f\n      and\n      dup3\n      add\n      swap2\n    tag_114:\n      pop\n      pop\n      pop\n      pop\n      pop\n      swap1\n      dup1\n      0x02\n      add\n      dup1\n      sload\n      tag_117\n      swap1\n      tag_112\n      jump\t// in\n    tag_117:\n      dup1\n      0x1f\n      add\n      0x20\n      dup1\n      swap2\n      div\n      mul\n      0x20\n      add\n      mload(0x40)\n      swap1\n      dup2\n      add\n      0x40\n      mstore\n      dup1\n      swap3\n      swap2\n      swap1\n      dup2\n      dup2\n      mstore\n      0x20\n      add\n      dup3\n      dup1\n      sload\n      tag_118\n      swap1\n      tag_112\n      jump\t// in\n    tag_118:\n      dup1\n      iszero\n      tag_119\n      jumpi\n      dup1\n      0x1f\n      lt\n      tag_120\n      jumpi\n      0x0100\n      dup1\n      dup4\n      sload\n      div\n      mul\n      dup4\n      mstore\n      swap2\n      0x20\n      add\n      swap2\n      jump(tag_119)\n    tag_120:\n      dup3\n      add\n      swap2\n      swap1\n      0x00\n      mstore\n      keccak256(0x00, 0x20)\n      swap1\n    tag_121:\n      dup2\n      sload\n      dup2\n      mstore\n      swap1\n      0x01\n      add\n      swap1\n      0x20\n      add\n      dup1\n      dup4\n      gt\n      tag_121\n      jumpi\n      dup3\n      swap1\n      sub\n      0x1f\n      and\n      dup3\n      add\n      swap2\n    tag_119:\n      pop\n      pop\n      pop\n      pop\n      pop\n      swap1\n      dup1\n      0x03\n      add\n      dup1\n      sload\n      tag_122\n      swap1\n      tag_112\n      jump\t// in\n    tag_122:\n      dup1\n      0x1f\n      add\n      0x20\n      dup1\n      swap2\n      div\n      mul\n      0x20\n      add\n      mload(0x40)\n      swap1\n      dup2\n      add\n      0x40\n      mstore\n      dup1\n      swap3\n      swap2\n      swap1\n      dup2\n      dup2\n      mstore\n      0x20\n      add\n      dup3\n      dup1\n      sload\n      tag_123\n      swap1\n      tag_112\n      jump\t// in\n    tag_123:\n      dup1\n      iszero\n      tag_124\n      jumpi\n      dup1\n      0x1f\n      lt\n      tag_125\n      jumpi\n      0x0100\n      dup1\n      dup4\n      sload\n      div\n      mul\n      dup4\n      mstore\n      swap2\n      0x20\n      add\n      swap2\n      jump(tag_124)\n    tag_125:\n      dup3\n      add\n      swap2\n      swap1\n      0x00\n      mstore\n      keccak256(0x00, 0x20)\n      swap1\n    tag_126:\n      dup2\n      sload\n      dup2\n      mstore\n      swap1\n      0x01\n      add\n      swap1\n      0x20\n      add\n      dup1\n      dup4\n      gt\n      tag_126\n      jumpi\n      dup3\n      swap1\n      sub\n      0x1f\n      and\n      dup3\n      add\n      swap2\n    tag_124:\n      pop\n      pop\n      pop\n      pop\n      pop\n      swap1\n      dup1\n      0x04\n      add\n      dup1\n      sload\n      tag_127\n      swap1\n      tag_112\n      jump\t// in\n    tag_127:\n      dup1\n      0x1f\n      add\n      0x20\n      dup1\n      swap2\n      div\n      mul\n      0x20\n      add\n      mload(0x40)\n      swap1\n      dup2\n      add\n      0x40\n      mstore\n      dup1\n      swap3\n      swap2\n      swap1\n      dup2\n      dup2\n      mstore\n      0x20\n      add\n      dup3\n      dup1\n      sload\n      tag_128\n      swap1\n      tag_112\n      jump\t// in\n    tag_128:\n      dup1\n      iszero\n      tag_129\n      jumpi\n      dup1\n      0x1f\n      lt\n      tag_130\n      jumpi\n      0x0100\n      dup1\n      dup4\n      sload\n      div\n      mul\n      dup4\n      mstore\n      swap2\n      0x20\n      add\n      swap2\n      jump(tag_129)\n    tag_130:\n      dup3\n      add\n      swap2\n      swap1\n      0x00\n      mstore\n      keccak256(0x00, 0x20)\n      swap1\n    tag_131:\n      dup2\n      sload\n      dup2\n      mstore\n      swap1\n      0x01\n      add\n      swap1\n      0x20\n      add\n      dup1\n      dup4\n      gt\n      tag_131\n      jumpi\n      dup3\n      swap1\n      sub\n      0x1f\n      and\n      dup3\n      add\n      swap2\n    tag_129:\n      pop\n      pop\n      pop\n      pop\n      pop\n      swap1\n      dup1\n      0x05\n      add\n      sload\n      swap1\n      dup1\n      0x06\n      add\n      dup1\n      sload\n      tag_132\n      swap1\n      tag_112\n      jump\t// in\n    tag_132:\n      dup1\n      0x1f\n      add\n      0x20\n      dup1\n      swap2\n      div\n      mul\n      0x20\n      add\n      mload(0x40)\n      swap1\n      dup2\n      add\n      0x40\n      mstore\n      dup1\n      swap3\n      swap2\n      swap1\n      dup2\n      dup2\n      mstore\n      0x20\n      add\n      dup3\n      dup1\n      sload\n      tag_133\n      swap1\n      tag_112\n      jump\t// in\n    tag_133:\n      dup1\n      iszero\n      tag_134\n      jumpi\n      dup1\n      0x1f\n      lt\n      tag_135\n      jumpi\n      0x0100\n      dup1\n      dup4\n      sload\n      div\n      mul\n      dup4\n      mstore\n      swap2\n      0x20\n      add\n      swap2\n      jump(tag_134)\n    tag_135:\n      dup3\n      add\n      swap2\n      swap1\n      0x00\n      mstore\n      keccak256(0x00, 0x20)\n      swap1\n    tag_136:\n      dup2\n      sload\n      dup2\n      mstore\n      swap1\n      0x01\n      add\n      swap1\n      0x20\n      add\n      dup1\n      dup4\n      gt\n      tag_136\n      jumpi\n      dup3\n      swap1\n      sub\n      0x1f\n      and\n      dup3\n      add\n      swap2\n    tag_134:\n      pop\n      pop\n      pop\n      pop\n      pop\n      swap1\n      dup1\n      0x07\n      add\n      dup1\n      sload\n      tag_137\n      swap1\n      tag_112\n      jump\t// in\n    tag_137:\n      dup1\n      0x1f\n      add\n      0x20\n      dup1\n      swap2\n      div\n      mul\n      0x20\n      add\n      mload(0x40)\n      swap1\n      dup2\n      add\n      0x40\n      mstore\n      dup1\n      swap3\n      swap2\n      swap1\n      dup2\n      dup2\n      mstore\n      0x20\n      add\n      dup3\n      dup1\n      sload\n      tag_138\n      swap1\n      tag_112\n      jump\t// in\n    tag_138:\n      dup1\n      iszero\n      tag_139\n      jumpi\n      dup1\n      0x1f\n      lt\n      tag_140\n      jumpi\n      0x0100\n      dup1\n      dup4\n      sload\n      div\n      mul\n      dup4\n      mstore\n      swap2\n      0x20\n      add\n      swap2\n      jump(tag_139)\n    tag_140:\n      dup3\n      add\n      swap2\n      swap1\n      0x00\n      mstore\n      keccak256(0x00, 0x20)\n      swap1\n    tag_141:\n      dup2\n      sload\n      dup2\n      mstore\n      swap1\n      0x01\n      add\n      swap1\n      0x20\n      add\n      dup1\n      dup4\n      gt\n      tag_141\n      jumpi\n      dup3\n      swap1\n      sub\n      0x1f\n      and\n      dup3\n      add\n      swap2\n    tag_139:\n      pop\n      pop\n      pop\n      pop\n      pop\n      swap1\n      dup1\n      0x08\n      add\n      dup1\n      sload\n      tag_142\n      swap1\n      tag_112\n      jump\t// in\n    tag_142:\n      dup1\n      0x1f\n      add\n      0x20\n      dup1\n      swap2\n      div\n      mul\n      0x20\n      add\n      mload(0x40)\n      swap1\n      dup2\n      add\n      0x40\n      mstore\n      dup1\n      swap3\n      swap2\n      swap1\n      dup2\n      dup2\n      mstore\n      0x20\n      add\n      dup3\n      dup1\n      sload\n      tag_143\n      swap1\n      tag_112\n      jump\t// in\n    tag_143:\n      dup1\n      iszero\n      tag_144\n      jumpi\n      dup1\n      0x1f\n      lt\n      tag_145\n      jumpi\n      0x0100\n      dup1\n      dup4\n      sload\n      div\n      mul\n      dup4\n      mstore\n      swap2\n      0x20\n      add\n      swap2\n      jump(tag_144)\n    tag_145:\n      dup3\n      add\n      swap2\n      swap1\n      0x00\n      mstore\n      keccak256(0x00, 0x20)\n      swap1\n    tag_146:\n      dup2\n      sload\n      dup2\n      mstore\n      swap1\n      0x01\n      add\n      swap1\n      0x20\n      add\n      dup1\n      dup4\n      gt\n      tag_146\n      jumpi\n      dup3\n      swap1\n      sub\n      0x1f\n      and\n      dup3\n      add\n      swap2\n    tag_144:\n      pop\n      pop\n      pop\n      pop\n      pop\n      swap1\n      dup1\n      0x09\n      add\n      sload\n      swap1\n      dup1\n      0x0a\n      add\n      0x00\n      swap1\n      sload\n      swap1\n      0x0100\n      exp\n      swap1\n      div\n      0xffffffffffffffffffffffffffffffffffffffff\n      and\n      swap1\n      pop\n      dup12\n      jump\t// out\n        /* \"Projet_Blockchain_Dev/contracts/Projet_Blockchain/_Etablissement.sol\":3964:4151  function VerifierDiplome(uint _id_diplome) external view returns (bool, string memory) {... */\n    tag_41:\n        /* \"Projet_Blockchain_Dev/contracts/Projet_Blockchain/_Etablissement.sol\":4030:4034  bool */\n      0x00\n        /* \"Projet_Blockchain_Dev/contracts/Projet_Blockchain/_Etablissement.sol\":4036:4049  string memory */\n      0x60\n        /* \"Projet_Blockchain_Dev/contracts/Projet_Blockchain/_Etablissement.sol\":4105:4106  0 */\n      0x00\n        /* \"Projet_Blockchain_Dev/contracts/Projet_Blockchain/_Etablissement.sol\":4070:4078  diplomes */\n      0x03\n        /* \"Projet_Blockchain_Dev/contracts/Projet_Blockchain/_Etablissement.sol\":4070:4091  diplomes[_id_diplome] */\n      0x00\n        /* \"Projet_Blockchain_Dev/contracts/Projet_Blockchain/_Etablissement.sol\":4079:4090  _id_diplome */\n      dup6\n        /* \"Projet_Blockchain_Dev/contracts/Projet_Blockchain/_Etablissement.sol\":4070:4091  diplomes[_id_diplome] */\n      dup2\n      mstore\n      0x20\n      add\n      swap1\n      dup2\n      mstore\n      0x20\n      add\n      0x00\n      keccak256\n        /* \"Projet_Blockchain_Dev/contracts/Projet_Blockchain/_Etablissement.sol\":4070:4102  diplomes[_id_diplome].id_diplome */\n      0x00\n      add\n      sload\n        /* \"Projet_Blockchain_Dev/contracts/Projet_Blockchain/_Etablissement.sol\":4070:4106  diplomes[_id_diplome].id_diplome > 0 */\n      gt\n        /* \"Projet_Blockchain_Dev/contracts/Projet_Blockchain/_Etablissement.sol\":4108:4116  diplomes */\n      0x03\n        /* \"Projet_Blockchain_Dev/contracts/Projet_Blockchain/_Etablissement.sol\":4108:4129  diplomes[_id_diplome] */\n      0x00\n        /* \"Projet_Blockchain_Dev/contracts/Projet_Blockchain/_Etablissement.sol\":4117:4128  _id_diplome */\n      dup6\n        /* \"Projet_Blockchain_Dev/contracts/Projet_Blockchain/_Etablissement.sol\":4108:4129  diplomes[_id_diplome] */\n      dup2\n      mstore\n      0x20\n      add\n      swap1\n      dup2\n      mstore\n      0x20\n      add\n      0x00\n      keccak256\n        /* \"Projet_Blockchain_Dev/contracts/Projet_Blockchain/_Etablissement.sol\":4108:4142  diplomes[_id_diplome].type_diplome */\n      0x04\n      add\n        /* \"Projet_Blockchain_Dev/contracts/Projet_Blockchain/_Etablissement.sol\":4062:4143  return (diplomes[_id_diplome].id_diplome > 0, diplomes[_id_diplome].type_diplome) */\n      dup1\n      dup1\n      sload\n      tag_148\n      swap1\n      tag_112\n      jump\t// in\n    tag_148:\n      dup1\n      0x1f\n      add\n      0x20\n      dup1\n      swap2\n      div\n      mul\n      0x20\n      add\n      mload(0x40)\n      swap1\n      dup2\n      add\n      0x40\n      mstore\n      dup1\n      swap3\n      swap2\n      swap1\n      dup2\n      dup2\n      mstore\n      0x20\n      add\n      dup3\n      dup1\n      sload\n      tag_149\n      swap1\n      tag_112\n      jump\t// in\n    tag_149:\n      dup1\n      iszero\n      tag_150\n      jumpi\n      dup1\n      0x1f\n      lt\n      tag_151\n      jumpi\n      0x0100\n      dup1\n      dup4\n      sload\n      div\n      mul\n      dup4\n      mstore\n      swap2\n      0x20\n      add\n      swap2\n      jump(tag_150)\n    tag_151:\n      dup3\n      add\n      swap2\n      swap1\n      0x00\n      mstore\n      keccak256(0x00, 0x20)\n      swap1\n    tag_152:\n      dup2\n      sload\n      dup2\n      mstore\n      swap1\n      0x01\n      add\n      swap1\n      0x20\n      add\n      dup1\n      dup4\n      gt\n      tag_152\n      jumpi\n      dup3\n      swap1\n      sub\n      0x1f\n      and\n      dup3\n      add\n      swap2\n    tag_150:\n      pop\n      pop\n      pop\n      pop\n      pop\n      swap1\n      pop\n      swap2\n      pop\n      swap2\n      pop\n        /* \"Projet_Blockchain_Dev/contracts/Projet_Blockchain/_Etablissement.sol\":3964:4151  function VerifierDiplome(uint _id_diplome) external view returns (bool, string memory) {... */\n      swap2\n      pop\n      swap2\n      jump\t// out\n        /* \"Projet_Blockchain_Dev/contracts/Projet_Blockchain/_Etablissement.sol\":5539:5862  function updateStudentEvaluation(uint _studentId, uint _evaluation) external  {... */\n    tag_47:\n        /* \"Projet_Blockchain_Dev/contracts/Projet_Blockchain/_Etablissement.sol\":5628:5653  Etudiant storage etudiant */\n      0x00\n        /* \"Projet_Blockchain_Dev/contracts/Projet_Blockchain/_Etablissement.sol\":5656:5665  etudiants */\n      0x02\n        /* \"Projet_Blockchain_Dev/contracts/Projet_Blockchain/_Etablissement.sol\":5656:5677  etudiants[_studentId] */\n      0x00\n        /* \"Projet_Blockchain_Dev/contracts/Projet_Blockchain/_Etablissement.sol\":5666:5676  _studentId */\n      dup5\n        /* \"Projet_Blockchain_Dev/contracts/Projet_Blockchain/_Etablissement.sol\":5656:5677  etudiants[_studentId] */\n      dup2\n      mstore\n      0x20\n      add\n      swap1\n      dup2\n      mstore\n      0x20\n      add\n      0x00\n      keccak256\n        /* \"Projet_Blockchain_Dev/contracts/Projet_Blockchain/_Etablissement.sol\":5628:5677  Etudiant storage etudiant = etudiants[_studentId] */\n      swap1\n      pop\n        /* \"Projet_Blockchain_Dev/contracts/Projet_Blockchain/_Etablissement.sol\":5843:5854  _evaluation */\n      dup2\n        /* \"Projet_Blockchain_Dev/contracts/Projet_Blockchain/_Etablissement.sol\":5821:5829  etudiant */\n      dup2\n        /* \"Projet_Blockchain_Dev/contracts/Projet_Blockchain/_Etablissement.sol\":5821:5840  etudiant.evaluation */\n      0x09\n      add\n        /* \"Projet_Blockchain_Dev/contracts/Projet_Blockchain/_Etablissement.sol\":5821:5854  etudiant.evaluation = _evaluation */\n      dup2\n      swap1\n      sstore\n      pop\n        /* \"Projet_Blockchain_Dev/contracts/Projet_Blockchain/_Etablissement.sol\":5617:5862  {... */\n      pop\n        /* \"Projet_Blockchain_Dev/contracts/Projet_Blockchain/_Etablissement.sol\":5539:5862  function updateStudentEvaluation(uint _studentId, uint _evaluation) external  {... */\n      pop\n      pop\n      jump\t// out\n        /* \"Projet_Blockchain_Dev/contracts/Projet_Blockchain/_Etablissement.sol\":2260:3250  function CreerEtudiant(string memory _nom_etudiant, string memory _prenom_etudiant, string memory _sexe, /*string memory _nationalite, string memory _statut_civil, string memory _adresse, string memory _courriel, string memory _telephone, string memory _section,*/ string memory _sujet_pfe, uint _id_entreprise, string memory _maitreStage, string memory _date_debut_stage, string memory _date_fin_stage) public onlyAdmin {... */\n    tag_51:\n        /* \"Projet_Blockchain_Dev/contracts/Projet_Blockchain/_Etablissement.sol\":271:276  admin */\n      0x00\n      dup1\n      sload\n      swap1\n      0x0100\n      exp\n      swap1\n      div\n      0xffffffffffffffffffffffffffffffffffffffff\n      and\n        /* \"Projet_Blockchain_Dev/contracts/Projet_Blockchain/_Etablissement.sol\":257:276  msg.sender == admin */\n      0xffffffffffffffffffffffffffffffffffffffff\n      and\n        /* \"Projet_Blockchain_Dev/contracts/Projet_Blockchain/_Etablissement.sol\":257:267  msg.sender */\n      caller\n        /* \"Projet_Blockchain_Dev/contracts/Projet_Blockchain/_Etablissement.sol\":257:276  msg.sender == admin */\n      0xffffffffffffffffffffffffffffffffffffffff\n      and\n      eq\n        /* \"Projet_Blockchain_Dev/contracts/Projet_Blockchain/_Etablissement.sol\":249:333  require(msg.sender == admin, \"Seul l'administrateur peut effectuer cette operation\") */\n      tag_155\n      jumpi\n      mload(0x40)\n      0x08c379a000000000000000000000000000000000000000000000000000000000\n      dup2\n      mstore\n      0x04\n      add\n      tag_156\n      swap1\n      tag_87\n      jump\t// in\n    tag_156:\n      mload(0x40)\n      dup1\n      swap2\n      sub\n      swap1\n      revert\n    tag_155:\n        /* \"Projet_Blockchain_Dev/contracts/Projet_Blockchain/_Etablissement.sol\":2692:2727  Etablissement storage etablissement */\n      0x00\n        /* \"Projet_Blockchain_Dev/contracts/Projet_Blockchain/_Etablissement.sol\":2730:2744  etablissements */\n      0x01\n        /* \"Projet_Blockchain_Dev/contracts/Projet_Blockchain/_Etablissement.sol\":2730:2756  etablissements[msg.sender] */\n      0x00\n        /* \"Projet_Blockchain_Dev/contracts/Projet_Blockchain/_Etablissement.sol\":2745:2755  msg.sender */\n      caller\n        /* \"Projet_Blockchain_Dev/contracts/Projet_Blockchain/_Etablissement.sol\":2730:2756  etablissements[msg.sender] */\n      0xffffffffffffffffffffffffffffffffffffffff\n      and\n      0xffffffffffffffffffffffffffffffffffffffff\n      and\n      dup2\n      mstore\n      0x20\n      add\n      swap1\n      dup2\n      mstore\n      0x20\n      add\n      0x00\n      keccak256\n        /* \"Projet_Blockchain_Dev/contracts/Projet_Blockchain/_Etablissement.sol\":2692:2756  Etablissement storage etablissement = etablissements[msg.sender] */\n      swap1\n      pop\n        /* \"Projet_Blockchain_Dev/contracts/Projet_Blockchain/_Etablissement.sol\":2798:2799  0 */\n      0x00\n        /* \"Projet_Blockchain_Dev/contracts/Projet_Blockchain/_Etablissement.sol\":2775:2788  etablissement */\n      dup2\n        /* \"Projet_Blockchain_Dev/contracts/Projet_Blockchain/_Etablissement.sol\":2775:2795  etablissement.id_ees */\n      0x00\n      add\n      sload\n        /* \"Projet_Blockchain_Dev/contracts/Projet_Blockchain/_Etablissement.sol\":2775:2799  etablissement.id_ees > 0 */\n      gt\n        /* \"Projet_Blockchain_Dev/contracts/Projet_Blockchain/_Etablissement.sol\":2767:2871  require(etablissement.id_ees > 0, \"L'etablissement n'existe pas ou n'a pas le droit de creer un profil\") */\n      tag_158\n      jumpi\n      mload(0x40)\n      0x08c379a000000000000000000000000000000000000000000000000000000000\n      dup2\n      mstore\n      0x04\n      add\n      tag_159\n      swap1\n      tag_160\n      jump\t// in\n    tag_159:\n      mload(0x40)\n      dup1\n      swap2\n      sub\n      swap1\n      revert\n    tag_158:\n        /* \"Projet_Blockchain_Dev/contracts/Projet_Blockchain/_Etablissement.sol\":2990:3219  Etudiant(EtudiantId, _nom_etudiant, _prenom_etudiant, _sexe, /*_nationalite, _statut_civil, _adresse, _courriel, _telephone, _section,*/ _sujet_pfe, _id_entreprise, _maitreStage, _date_debut_stage, _date_fin_stage, 0, msg.sender) */\n      mload(0x40)\n      dup1\n      0x0160\n      add\n      0x40\n      mstore\n      dup1\n        /* \"Projet_Blockchain_Dev/contracts/Projet_Blockchain/_Etablissement.sol\":2999:3009  EtudiantId */\n      sload(0x05)\n        /* \"Projet_Blockchain_Dev/contracts/Projet_Blockchain/_Etablissement.sol\":2990:3219  Etudiant(EtudiantId, _nom_etudiant, _prenom_etudiant, _sexe, /*_nationalite, _statut_civil, _adresse, _courriel, _telephone, _section,*/ _sujet_pfe, _id_entreprise, _maitreStage, _date_debut_stage, _date_fin_stage, 0, msg.sender) */\n      dup2\n      mstore\n      0x20\n      add\n        /* \"Projet_Blockchain_Dev/contracts/Projet_Blockchain/_Etablissement.sol\":3011:3024  _nom_etudiant */\n      dup11\n        /* \"Projet_Blockchain_Dev/contracts/Projet_Blockchain/_Etablissement.sol\":2990:3219  Etudiant(EtudiantId, _nom_etudiant, _prenom_etudiant, _sexe, /*_nationalite, _statut_civil, _adresse, _courriel, _telephone, _section,*/ _sujet_pfe, _id_entreprise, _maitreStage, _date_debut_stage, _date_fin_stage, 0, msg.sender) */\n      dup2\n      mstore\n      0x20\n      add\n        /* \"Projet_Blockchain_Dev/contracts/Projet_Blockchain/_Etablissement.sol\":3026:3042  _prenom_etudiant */\n      dup10\n        /* \"Projet_Blockchain_Dev/contracts/Projet_Blockchain/_Etablissement.sol\":2990:3219  Etudiant(EtudiantId, _nom_etudiant, _prenom_etudiant, _sexe, /*_nationalite, _statut_civil, _adresse, _courriel, _telephone, _section,*/ _sujet_pfe, _id_entreprise, _maitreStage, _date_debut_stage, _date_fin_stage, 0, msg.sender) */\n      dup2\n      mstore\n      0x20\n      add\n        /* \"Projet_Blockchain_Dev/contracts/Projet_Blockchain/_Etablissement.sol\":3044:3049  _sexe */\n      dup9\n        /* \"Projet_Blockchain_Dev/contracts/Projet_Blockchain/_Etablissement.sol\":2990:3219  Etudiant(EtudiantId, _nom_etudiant, _prenom_etudiant, _sexe, /*_nationalite, _statut_civil, _adresse, _courriel, _telephone, _section,*/ _sujet_pfe, _id_entreprise, _maitreStage, _date_debut_stage, _date_fin_stage, 0, msg.sender) */\n      dup2\n      mstore\n      0x20\n      add\n        /* \"Projet_Blockchain_Dev/contracts/Projet_Blockchain/_Etablissement.sol\":3127:3137  _sujet_pfe */\n      dup8\n        /* \"Projet_Blockchain_Dev/contracts/Projet_Blockchain/_Etablissement.sol\":2990:3219  Etudiant(EtudiantId, _nom_etudiant, _prenom_etudiant, _sexe, /*_nationalite, _statut_civil, _adresse, _courriel, _telephone, _section,*/ _sujet_pfe, _id_entreprise, _maitreStage, _date_debut_stage, _date_fin_stage, 0, msg.sender) */\n      dup2\n      mstore\n      0x20\n      add\n        /* \"Projet_Blockchain_Dev/contracts/Projet_Blockchain/_Etablissement.sol\":3139:3153  _id_entreprise */\n      dup7\n        /* \"Projet_Blockchain_Dev/contracts/Projet_Blockchain/_Etablissement.sol\":2990:3219  Etudiant(EtudiantId, _nom_etudiant, _prenom_etudiant, _sexe, /*_nationalite, _statut_civil, _adresse, _courriel, _telephone, _section,*/ _sujet_pfe, _id_entreprise, _maitreStage, _date_debut_stage, _date_fin_stage, 0, msg.sender) */\n      dup2\n      mstore\n      0x20\n      add\n        /* \"Projet_Blockchain_Dev/contracts/Projet_Blockchain/_Etablissement.sol\":3155:3167  _maitreStage */\n      dup6\n        /* \"Projet_Blockchain_Dev/contracts/Projet_Blockchain/_Etablissement.sol\":2990:3219  Etudiant(EtudiantId, _nom_etudiant, _prenom_etudiant, _sexe, /*_nationalite, _statut_civil, _adresse, _courriel, _telephone, _section,*/ _sujet_pfe, _id_entreprise, _maitreStage, _date_debut_stage, _date_fin_stage, 0, msg.sender) */\n      dup2\n      mstore\n      0x20\n      add\n        /* \"Projet_Blockchain_Dev/contracts/Projet_Blockchain/_Etablissement.sol\":3169:3186  _date_debut_stage */\n      dup5\n        /* \"Projet_Blockchain_Dev/contracts/Projet_Blockchain/_Etablissement.sol\":2990:3219  Etudiant(EtudiantId, _nom_etudiant, _prenom_etudiant, _sexe, /*_nationalite, _statut_civil, _adresse, _courriel, _telephone, _section,*/ _sujet_pfe, _id_entreprise, _maitreStage, _date_debut_stage, _date_fin_stage, 0, msg.sender) */\n      dup2\n      mstore\n      0x20\n      add\n        /* \"Projet_Blockchain_Dev/contracts/Projet_Blockchain/_Etablissement.sol\":3188:3203  _date_fin_stage */\n      dup4\n        /* \"Projet_Blockchain_Dev/contracts/Projet_Blockchain/_Etablissement.sol\":2990:3219  Etudiant(EtudiantId, _nom_etudiant, _prenom_etudiant, _sexe, /*_nationalite, _statut_civil, _adresse, _courriel, _telephone, _section,*/ _sujet_pfe, _id_entreprise, _maitreStage, _date_debut_stage, _date_fin_stage, 0, msg.sender) */\n      dup2\n      mstore\n      0x20\n      add\n        /* \"Projet_Blockchain_Dev/contracts/Projet_Blockchain/_Etablissement.sol\":3205:3206  0 */\n      0x00\n        /* \"Projet_Blockchain_Dev/contracts/Projet_Blockchain/_Etablissement.sol\":2990:3219  Etudiant(EtudiantId, _nom_etudiant, _prenom_etudiant, _sexe, /*_nationalite, _statut_civil, _adresse, _courriel, _telephone, _section,*/ _sujet_pfe, _id_entreprise, _maitreStage, _date_debut_stage, _date_fin_stage, 0, msg.sender) */\n      dup2\n      mstore\n      0x20\n      add\n        /* \"Projet_Blockchain_Dev/contracts/Projet_Blockchain/_Etablissement.sol\":3208:3218  msg.sender */\n      caller\n        /* \"Projet_Blockchain_Dev/contracts/Projet_Blockchain/_Etablissement.sol\":2990:3219  Etudiant(EtudiantId, _nom_etudiant, _prenom_etudiant, _sexe, /*_nationalite, _statut_civil, _adresse, _courriel, _telephone, _section,*/ _sujet_pfe, _id_entreprise, _maitreStage, _date_debut_stage, _date_fin_stage, 0, msg.sender) */\n      0xffffffffffffffffffffffffffffffffffffffff\n      and\n      dup2\n      mstore\n      pop\n        /* \"Projet_Blockchain_Dev/contracts/Projet_Blockchain/_Etablissement.sol\":2966:2975  etudiants */\n      0x02\n        /* \"Projet_Blockchain_Dev/contracts/Projet_Blockchain/_Etablissement.sol\":2966:2987  etudiants[EtudiantId] */\n      0x00\n        /* \"Projet_Blockchain_Dev/contracts/Projet_Blockchain/_Etablissement.sol\":2976:2986  EtudiantId */\n      sload(0x05)\n        /* \"Projet_Blockchain_Dev/contracts/Projet_Blockchain/_Etablissement.sol\":2966:2987  etudiants[EtudiantId] */\n      dup2\n      mstore\n      0x20\n      add\n      swap1\n      dup2\n      mstore\n      0x20\n      add\n      0x00\n      keccak256\n        /* \"Projet_Blockchain_Dev/contracts/Projet_Blockchain/_Etablissement.sol\":2966:3219  etudiants[EtudiantId] = Etudiant(EtudiantId, _nom_etudiant, _prenom_etudiant, _sexe, /*_nationalite, _statut_civil, _adresse, _courriel, _telephone, _section,*/ _sujet_pfe, _id_entreprise, _maitreStage, _date_debut_stage, _date_fin_stage, 0, msg.sender) */\n      0x00\n      dup3\n      add\n      mload\n      dup2\n      0x00\n      add\n      sstore\n      0x20\n      dup3\n      add\n      mload\n      dup2\n      0x01\n      add\n      swap1\n      dup2\n      tag_161\n      swap2\n      swap1\n      tag_93\n      jump\t// in\n    tag_161:\n      pop\n      0x40\n      dup3\n      add\n      mload\n      dup2\n      0x02\n      add\n      swap1\n      dup2\n      tag_162\n      swap2\n      swap1\n      tag_93\n      jump\t// in\n    tag_162:\n      pop\n      0x60\n      dup3\n      add\n      mload\n      dup2\n      0x03\n      add\n      swap1\n      dup2\n      tag_163\n      swap2\n      swap1\n      tag_93\n      jump\t// in\n    tag_163:\n      pop\n      0x80\n      dup3\n      add\n      mload\n      dup2\n      0x04\n      add\n      swap1\n      dup2\n      tag_164\n      swap2\n      swap1\n      tag_93\n      jump\t// in\n    tag_164:\n      pop\n      0xa0\n      dup3\n      add\n      mload\n      dup2\n      0x05\n      add\n      sstore\n      0xc0\n      dup3\n      add\n      mload\n      dup2\n      0x06\n      add\n      swap1\n      dup2\n      tag_165\n      swap2\n      swap1\n      tag_93\n      jump\t// in\n    tag_165:\n      pop\n      0xe0\n      dup3\n      add\n      mload\n      dup2\n      0x07\n      add\n      swap1\n      dup2\n      tag_166\n      swap2\n      swap1\n      tag_93\n      jump\t// in\n    tag_166:\n      pop\n      0x0100\n      dup3\n      add\n      mload\n      dup2\n      0x08\n      add\n      swap1\n      dup2\n      tag_167\n      swap2\n      swap1\n      tag_93\n      jump\t// in\n    tag_167:\n      pop\n      0x0120\n      dup3\n      add\n      mload\n      dup2\n      0x09\n      add\n      sstore\n      0x0140\n      dup3\n      add\n      mload\n      dup2\n      0x0a\n      add\n      exp(0x0100, 0x00)\n      dup2\n      sload\n      dup2\n      0xffffffffffffffffffffffffffffffffffffffff\n      mul\n      not\n      and\n      swap1\n      dup4\n      0xffffffffffffffffffffffffffffffffffffffff\n      and\n      mul\n      or\n      swap1\n      sstore\n      pop\n      swap1\n      pop\n      pop\n        /* \"Projet_Blockchain_Dev/contracts/Projet_Blockchain/_Etablissement.sol\":3230:3240  EtudiantId */\n      0x05\n      0x00\n        /* \"Projet_Blockchain_Dev/contracts/Projet_Blockchain/_Etablissement.sol\":3230:3242  EtudiantId++ */\n      dup2\n      sload\n      dup1\n      swap3\n      swap2\n      swap1\n      tag_168\n      swap1\n      tag_109\n      jump\t// in\n    tag_168:\n      swap2\n      swap1\n      pop\n      sstore\n      pop\n        /* \"Projet_Blockchain_Dev/contracts/Projet_Blockchain/_Etablissement.sol\":2681:3250  {... */\n      pop\n        /* \"Projet_Blockchain_Dev/contracts/Projet_Blockchain/_Etablissement.sol\":2260:3250  function CreerEtudiant(string memory _nom_etudiant, string memory _prenom_etudiant, string memory _sexe, /*string memory _nationalite, string memory _statut_civil, string memory _adresse, string memory _courriel, string memory _telephone, string memory _section,*/ string memory _sujet_pfe, uint _id_entreprise, string memory _maitreStage, string memory _date_debut_stage, string memory _date_fin_stage) public onlyAdmin {... */\n      pop\n      pop\n      pop\n      pop\n      pop\n      pop\n      pop\n      pop\n      jump\t// out\n        /* \"Projet_Blockchain_Dev/contracts/Projet_Blockchain/_Etablissement.sol\":1571:1611  mapping(uint => Diplome) public diplomes */\n    tag_54:\n      mstore(0x20, 0x03)\n      dup1\n      0x00\n      mstore\n      keccak256(0x00, 0x40)\n      0x00\n      swap2\n      pop\n      swap1\n      pop\n      dup1\n      0x00\n      add\n      sload\n      swap1\n      dup1\n      0x01\n      add\n      sload\n      swap1\n      dup1\n      0x02\n      add\n      sload\n      swap1\n      dup1\n      0x03\n      add\n      dup1\n      sload\n      tag_169\n      swap1\n      tag_112\n      jump\t// in\n    tag_169:\n      dup1\n      0x1f\n      add\n      0x20\n      dup1\n      swap2\n      div\n      mul\n      0x20\n      add\n      mload(0x40)\n      swap1\n      dup2\n      add\n      0x40\n      mstore\n      dup1\n      swap3\n      swap2\n      swap1\n      dup2\n      dup2\n      mstore\n      0x20\n      add\n      dup3\n      dup1\n      sload\n      tag_170\n      swap1\n      tag_112\n      jump\t// in\n    tag_170:\n      dup1\n      iszero\n      tag_171\n      jumpi\n      dup1\n      0x1f\n      lt\n      tag_172\n      jumpi\n      0x0100\n      dup1\n      dup4\n      sload\n      div\n      mul\n      dup4\n      mstore\n      swap2\n      0x20\n      add\n      swap2\n      jump(tag_171)\n    tag_172:\n      dup3\n      add\n      swap2\n      swap1\n      0x00\n      mstore\n      keccak256(0x00, 0x20)\n      swap1\n    tag_173:\n      dup2\n      sload\n      dup2\n      mstore\n      swap1\n      0x01\n      add\n      swap1\n      0x20\n      add\n      dup1\n      dup4\n      gt\n      tag_173\n      jumpi\n      dup3\n      swap1\n      sub\n      0x1f\n      and\n      dup3\n      add\n      swap2\n    tag_171:\n      pop\n      pop\n      pop\n      pop\n      pop\n      swap1\n      dup1\n      0x04\n      add\n      dup1\n      sload\n      tag_174\n      swap1\n      tag_112\n      jump\t// in\n    tag_174:\n      dup1\n      0x1f\n      add\n      0x20\n      dup1\n      swap2\n      div\n      mul\n      0x20\n      add\n      mload(0x40)\n      swap1\n      dup2\n      add\n      0x40\n      mstore\n      dup1\n      swap3\n      swap2\n      swap1\n      dup2\n      dup2\n      mstore\n      0x20\n      add\n      dup3\n      dup1\n      sload\n      tag_175\n      swap1\n      tag_112\n      jump\t// in\n    tag_175:\n      dup1\n      iszero\n      tag_176\n      jumpi\n      dup1\n      0x1f\n      lt\n      tag_177\n      jumpi\n      0x0100\n      dup1\n      dup4\n      sload\n      div\n      mul\n      dup4\n      mstore\n      swap2\n      0x20\n      add\n      swap2\n      jump(tag_176)\n    tag_177:\n      dup3\n      add\n      swap2\n      swap1\n      0x00\n      mstore\n      keccak256(0x00, 0x20)\n      swap1\n    tag_178:\n      dup2\n      sload\n      dup2\n      mstore\n      swap1\n      0x01\n      add\n      swap1\n      0x20\n      add\n      dup1\n      dup4\n      gt\n      tag_178\n      jumpi\n      dup3\n      swap1\n      sub\n      0x1f\n      and\n      dup3\n      add\n      swap2\n    tag_176:\n      pop\n      pop\n      pop\n      pop\n      pop\n      swap1\n      dup1\n      0x05\n      add\n      dup1\n      sload\n      tag_179\n      swap1\n      tag_112\n      jump\t// in\n    tag_179:\n      dup1\n      0x1f\n      add\n      0x20\n      dup1\n      swap2\n      div\n      mul\n      0x20\n      add\n      mload(0x40)\n      swap1\n      dup2\n      add\n      0x40\n      mstore\n      dup1\n      swap3\n      swap2\n      swap1\n      dup2\n      dup2\n      mstore\n      0x20\n      add\n      dup3\n      dup1\n      sload\n      tag_180\n      swap1\n      tag_112\n      jump\t// in\n    tag_180:\n      dup1\n      iszero\n      tag_181\n      jumpi\n      dup1\n      0x1f\n      lt\n      tag_182\n      jumpi\n      0x0100\n      dup1\n      dup4\n      sload\n      div\n      mul\n      dup4\n      mstore\n      swap2\n      0x20\n      add\n      swap2\n      jump(tag_181)\n    tag_182:\n      dup3\n      add\n      swap2\n      swap1\n      0x00\n      mstore\n      keccak256(0x00, 0x20)\n      swap1\n    tag_183:\n      dup2\n      sload\n      dup2\n      mstore\n      swap1\n      0x01\n      add\n      swap1\n      0x20\n      add\n      dup1\n      dup4\n      gt\n      tag_183\n      jumpi\n      dup3\n      swap1\n      sub\n      0x1f\n      and\n      dup3\n      add\n      swap2\n    tag_181:\n      pop\n      pop\n      pop\n      pop\n      pop\n      swap1\n      dup1\n      0x06\n      add\n      dup1\n      sload\n      tag_184\n      swap1\n      tag_112\n      jump\t// in\n    tag_184:\n      dup1\n      0x1f\n      add\n      0x20\n      dup1\n      swap2\n      div\n      mul\n      0x20\n      add\n      mload(0x40)\n      swap1\n      dup2\n      add\n      0x40\n      mstore\n      dup1\n      swap3\n      swap2\n      swap1\n      dup2\n      dup2\n      mstore\n      0x20\n      add\n      dup3\n      dup1\n      sload\n      tag_185\n      swap1\n      tag_112\n      jump\t// in\n    tag_185:\n      dup1\n      iszero\n      tag_186\n      jumpi\n      dup1\n      0x1f\n      lt\n      tag_187\n      jumpi\n      0x0100\n      dup1\n      dup4\n      sload\n      div\n      mul\n      dup4\n      mstore\n      swap2\n      0x20\n      add\n      swap2\n      jump(tag_186)\n    tag_187:\n      dup3\n      add\n      swap2\n      swap1\n      0x00\n      mstore\n      keccak256(0x00, 0x20)\n      swap1\n    tag_188:\n      dup2\n      sload\n      dup2\n      mstore\n      swap1\n      0x01\n      add\n      swap1\n      0x20\n      add\n      dup1\n      dup4\n      gt\n      tag_188\n      jumpi\n      dup3\n      swap1\n      sub\n      0x1f\n      and\n      dup3\n      add\n      swap2\n    tag_186:\n      pop\n      pop\n      pop\n      pop\n      pop\n      swap1\n      dup1\n      0x07\n      add\n      dup1\n      sload\n      tag_189\n      swap1\n      tag_112\n      jump\t// in\n    tag_189:\n      dup1\n      0x1f\n      add\n      0x20\n      dup1\n      swap2\n      div\n      mul\n      0x20\n      add\n      mload(0x40)\n      swap1\n      dup2\n      add\n      0x40\n      mstore\n      dup1\n      swap3\n      swap2\n      swap1\n      dup2\n      dup2\n      mstore\n      0x20\n      add\n      dup3\n      dup1\n      sload\n      tag_190\n      swap1\n      tag_112\n      jump\t// in\n    tag_190:\n      dup1\n      iszero\n      tag_191\n      jumpi\n      dup1\n      0x1f\n      lt\n      tag_192\n      jumpi\n      0x0100\n      dup1\n      dup4\n      sload\n      div\n      mul\n      dup4\n      mstore\n      swap2\n      0x20\n      add\n      swap2\n      jump(tag_191)\n    tag_192:\n      dup3\n      add\n      swap2\n      swap1\n      0x00\n      mstore\n      keccak256(0x00, 0x20)\n      swap1\n    tag_193:\n      dup2\n      sload\n      dup2\n      mstore\n      swap1\n      0x01\n      add\n      swap1\n      0x20\n      add\n      dup1\n      dup4\n      gt\n      tag_193\n      jumpi\n      dup3\n      swap1\n      sub\n      0x1f\n      and\n      dup3\n      add\n      swap2\n    tag_191:\n      pop\n      pop\n      pop\n      pop\n      pop\n      swap1\n      pop\n      dup9\n      jump\t// out\n        /* \"Projet_Blockchain_Dev/contracts/Projet_Blockchain/_Etablissement.sol\":1460:1515  mapping(address => Etablissement) public etablissements */\n    tag_60:\n      mstore(0x20, 0x01)\n      dup1\n      0x00\n      mstore\n      keccak256(0x00, 0x40)\n      0x00\n      swap2\n      pop\n      swap1\n      pop\n      dup1\n      0x00\n      add\n      sload\n      swap1\n      dup1\n      0x01\n      add\n      dup1\n      sload\n      tag_194\n      swap1\n      tag_112\n      jump\t// in\n    tag_194:\n      dup1\n      0x1f\n      add\n      0x20\n      dup1\n      swap2\n      div\n      mul\n      0x20\n      add\n      mload(0x40)\n      swap1\n      dup2\n      add\n      0x40\n      mstore\n      dup1\n      swap3\n      swap2\n      swap1\n      dup2\n      dup2\n      mstore\n      0x20\n      add\n      dup3\n      dup1\n      sload\n      tag_195\n      swap1\n      tag_112\n      jump\t// in\n    tag_195:\n      dup1\n      iszero\n      tag_196\n      jumpi\n      dup1\n      0x1f\n      lt\n      tag_197\n      jumpi\n      0x0100\n      dup1\n      dup4\n      sload\n      div\n      mul\n      dup4\n      mstore\n      swap2\n      0x20\n      add\n      swap2\n      jump(tag_196)\n    tag_197:\n      dup3\n      add\n      swap2\n      swap1\n      0x00\n      mstore\n      keccak256(0x00, 0x20)\n      swap1\n    tag_198:\n      dup2\n      sload\n      dup2\n      mstore\n      swap1\n      0x01\n      add\n      swap1\n      0x20\n      add\n      dup1\n      dup4\n      gt\n      tag_198\n      jumpi\n      dup3\n      swap1\n      sub\n      0x1f\n      and\n      dup3\n      add\n      swap2\n    tag_196:\n      pop\n      pop\n      pop\n      pop\n      pop\n      swap1\n      dup1\n      0x02\n      add\n      dup1\n      sload\n      tag_199\n      swap1\n      tag_112\n      jump\t// in\n    tag_199:\n      dup1\n      0x1f\n      add\n      0x20\n      dup1\n      swap2\n      div\n      mul\n      0x20\n      add\n      mload(0x40)\n      swap1\n      dup2\n      add\n      0x40\n      mstore\n      dup1\n      swap3\n      swap2\n      swap1\n      dup2\n      dup2\n      mstore\n      0x20\n      add\n      dup3\n      dup1\n      sload\n      tag_200\n      swap1\n      tag_112\n      jump\t// in\n    tag_200:\n      dup1\n      iszero\n      tag_201\n      jumpi\n      dup1\n      0x1f\n      lt\n      tag_202\n      jumpi\n      0x0100\n      dup1\n      dup4\n      sload\n      div\n      mul\n      dup4\n      mstore\n      swap2\n      0x20\n      add\n      swap2\n      jump(tag_201)\n    tag_202:\n      dup3\n      add\n      swap2\n      swap1\n      0x00\n      mstore\n      keccak256(0x00, 0x20)\n      swap1\n    tag_203:\n      dup2\n      sload\n      dup2\n      mstore\n      swap1\n      0x01\n      add\n      swap1\n      0x20\n      add\n      dup1\n      dup4\n      gt\n      tag_203\n      jumpi\n      dup3\n      swap1\n      sub\n      0x1f\n      and\n      dup3\n      add\n      swap2\n    tag_201:\n      pop\n      pop\n      pop\n      pop\n      pop\n      swap1\n      dup1\n      0x03\n      add\n      dup1\n      sload\n      tag_204\n      swap1\n      tag_112\n      jump\t// in\n    tag_204:\n      dup1\n      0x1f\n      add\n      0x20\n      dup1\n      swap2\n      div\n      mul\n      0x20\n      add\n      mload(0x40)\n      swap1\n      dup2\n      add\n      0x40\n      mstore\n      dup1\n      swap3\n      swap2\n      swap1\n      dup2\n      dup2\n      mstore\n      0x20\n      add\n      dup3\n      dup1\n      sload\n      tag_205\n      swap1\n      tag_112\n      jump\t// in\n    tag_205:\n      dup1\n      iszero\n      tag_206\n      jumpi\n      dup1\n      0x1f\n      lt\n      tag_207\n      jumpi\n      0x0100\n      dup1\n      dup4\n      sload\n      div\n      mul\n      dup4\n      mstore\n      swap2\n      0x20\n      add\n      swap2\n      jump(tag_206)\n    tag_207:\n      dup3\n      add\n      swap2\n      swap1\n      0x00\n      mstore\n      keccak256(0x00, 0x20)\n      swap1\n    tag_208:\n      dup2\n      sload\n      dup2\n      mstore\n      swap1\n      0x01\n      add\n      swap1\n      0x20\n      add\n      dup1\n      dup4\n      gt\n      tag_208\n      jumpi\n      dup3\n      swap1\n      sub\n      0x1f\n      and\n      dup3\n      add\n      swap2\n    tag_206:\n      pop\n      pop\n      pop\n      pop\n      pop\n      swap1\n      dup1\n      0x04\n      add\n      dup1\n      sload\n      tag_209\n      swap1\n      tag_112\n      jump\t// in\n    tag_209:\n      dup1\n      0x1f\n      add\n      0x20\n      dup1\n      swap2\n      div\n      mul\n      0x20\n      add\n      mload(0x40)\n      swap1\n      dup2\n      add\n      0x40\n      mstore\n      dup1\n      swap3\n      swap2\n      swap1\n      dup2\n      dup2\n      mstore\n      0x20\n      add\n      dup3\n      dup1\n      sload\n      tag_210\n      swap1\n      tag_112\n      jump\t// in\n    tag_210:\n      dup1\n      iszero\n      tag_211\n      jumpi\n      dup1\n      0x1f\n      lt\n      tag_212\n      jumpi\n      0x0100\n      dup1\n      dup4\n      sload\n      div\n      mul\n      dup4\n      mstore\n      swap2\n      0x20\n      add\n      swap2\n      jump(tag_211)\n    tag_212:\n      dup3\n      add\n      swap2\n      swap1\n      0x00\n      mstore\n      keccak256(0x00, 0x20)\n      swap1\n    tag_213:\n      dup2\n      sload\n      dup2\n      mstore\n      swap1\n      0x01\n      add\n      swap1\n      0x20\n      add\n      dup1\n      dup4\n      gt\n      tag_213\n      jumpi\n      dup3\n      swap1\n      sub\n      0x1f\n      and\n      dup3\n      add\n      swap2\n    tag_211:\n      pop\n      pop\n      pop\n      pop\n      pop\n      swap1\n      dup1\n      0x05\n      add\n      sload\n      swap1\n      dup1\n      0x06\n      add\n      0x00\n      swap1\n      sload\n      swap1\n      0x0100\n      exp\n      swap1\n      div\n      0xffffffffffffffffffffffffffffffffffffffff\n      and\n      swap1\n      pop\n      dup8\n      jump\t// out\n        /* \"Projet_Blockchain_Dev/contracts/Projet_Blockchain/_Etablissement.sol\":3258:3956  function CreerDiplome(uint _id_titulaire, string memory _type_diplome, string memory _specialite, string memory _mention, string memory _date_obtention) public onlyAdmin {... */\n    tag_66:\n        /* \"Projet_Blockchain_Dev/contracts/Projet_Blockchain/_Etablissement.sol\":271:276  admin */\n      0x00\n      dup1\n      sload\n      swap1\n      0x0100\n      exp\n      swap1\n      div\n      0xffffffffffffffffffffffffffffffffffffffff\n      and\n        /* \"Projet_Blockchain_Dev/contracts/Projet_Blockchain/_Etablissement.sol\":257:276  msg.sender == admin */\n      0xffffffffffffffffffffffffffffffffffffffff\n      and\n        /* \"Projet_Blockchain_Dev/contracts/Projet_Blockchain/_Etablissement.sol\":257:267  msg.sender */\n      caller\n        /* \"Projet_Blockchain_Dev/contracts/Projet_Blockchain/_Etablissement.sol\":257:276  msg.sender == admin */\n      0xffffffffffffffffffffffffffffffffffffffff\n      and\n      eq\n        /* \"Projet_Blockchain_Dev/contracts/Projet_Blockchain/_Etablissement.sol\":249:333  require(msg.sender == admin, \"Seul l'administrateur peut effectuer cette operation\") */\n      tag_215\n      jumpi\n      mload(0x40)\n      0x08c379a000000000000000000000000000000000000000000000000000000000\n      dup2\n      mstore\n      0x04\n      add\n      tag_216\n      swap1\n      tag_87\n      jump\t// in\n    tag_216:\n      mload(0x40)\n      dup1\n      swap2\n      sub\n      swap1\n      revert\n    tag_215:\n        /* \"Projet_Blockchain_Dev/contracts/Projet_Blockchain/_Etablissement.sol\":3439:3474  Etablissement storage etablissement */\n      0x00\n        /* \"Projet_Blockchain_Dev/contracts/Projet_Blockchain/_Etablissement.sol\":3477:3491  etablissements */\n      0x01\n        /* \"Projet_Blockchain_Dev/contracts/Projet_Blockchain/_Etablissement.sol\":3477:3503  etablissements[msg.sender] */\n      0x00\n        /* \"Projet_Blockchain_Dev/contracts/Projet_Blockchain/_Etablissement.sol\":3492:3502  msg.sender */\n      caller\n        /* \"Projet_Blockchain_Dev/contracts/Projet_Blockchain/_Etablissement.sol\":3477:3503  etablissements[msg.sender] */\n      0xffffffffffffffffffffffffffffffffffffffff\n      and\n      0xffffffffffffffffffffffffffffffffffffffff\n      and\n      dup2\n      mstore\n      0x20\n      add\n      swap1\n      dup2\n      mstore\n      0x20\n      add\n      0x00\n      keccak256\n        /* \"Projet_Blockchain_Dev/contracts/Projet_Blockchain/_Etablissement.sol\":3439:3503  Etablissement storage etablissement = etablissements[msg.sender] */\n      swap1\n      pop\n        /* \"Projet_Blockchain_Dev/contracts/Projet_Blockchain/_Etablissement.sol\":3545:3546  0 */\n      0x00\n        /* \"Projet_Blockchain_Dev/contracts/Projet_Blockchain/_Etablissement.sol\":3522:3535  etablissement */\n      dup2\n        /* \"Projet_Blockchain_Dev/contracts/Projet_Blockchain/_Etablissement.sol\":3522:3542  etablissement.id_ees */\n      0x00\n      add\n      sload\n        /* \"Projet_Blockchain_Dev/contracts/Projet_Blockchain/_Etablissement.sol\":3522:3546  etablissement.id_ees > 0 */\n      gt\n        /* \"Projet_Blockchain_Dev/contracts/Projet_Blockchain/_Etablissement.sol\":3514:3620  require(etablissement.id_ees > 0, \"L'etablissement n'existe pas ou n'a pas le droit d'ajouter un diplome\") */\n      tag_218\n      jumpi\n      mload(0x40)\n      0x08c379a000000000000000000000000000000000000000000000000000000000\n      dup2\n      mstore\n      0x04\n      add\n      tag_219\n      swap1\n      tag_220\n      jump\t// in\n    tag_219:\n      mload(0x40)\n      dup1\n      swap2\n      sub\n      swap1\n      revert\n    tag_218:\n        /* \"Projet_Blockchain_Dev/contracts/Projet_Blockchain/_Etablissement.sol\":3680:3690  msg.sender */\n      caller\n        /* \"Projet_Blockchain_Dev/contracts/Projet_Blockchain/_Etablissement.sol\":3639:3690  etudiants[_id_titulaire].profileAgent == msg.sender */\n      0xffffffffffffffffffffffffffffffffffffffff\n      and\n        /* \"Projet_Blockchain_Dev/contracts/Projet_Blockchain/_Etablissement.sol\":3639:3648  etudiants */\n      0x02\n        /* \"Projet_Blockchain_Dev/contracts/Projet_Blockchain/_Etablissement.sol\":3639:3663  etudiants[_id_titulaire] */\n      0x00\n        /* \"Projet_Blockchain_Dev/contracts/Projet_Blockchain/_Etablissement.sol\":3649:3662  _id_titulaire */\n      dup9\n        /* \"Projet_Blockchain_Dev/contracts/Projet_Blockchain/_Etablissement.sol\":3639:3663  etudiants[_id_titulaire] */\n      dup2\n      mstore\n      0x20\n      add\n      swap1\n      dup2\n      mstore\n      0x20\n      add\n      0x00\n      keccak256\n        /* \"Projet_Blockchain_Dev/contracts/Projet_Blockchain/_Etablissement.sol\":3639:3676  etudiants[_id_titulaire].profileAgent */\n      0x0a\n      add\n      0x00\n      swap1\n      sload\n      swap1\n      0x0100\n      exp\n      swap1\n      div\n      0xffffffffffffffffffffffffffffffffffffffff\n      and\n        /* \"Projet_Blockchain_Dev/contracts/Projet_Blockchain/_Etablissement.sol\":3639:3690  etudiants[_id_titulaire].profileAgent == msg.sender */\n      0xffffffffffffffffffffffffffffffffffffffff\n      and\n      eq\n        /* \"Projet_Blockchain_Dev/contracts/Projet_Blockchain/_Etablissement.sol\":3631:3760  require(etudiants[_id_titulaire].profileAgent == msg.sender, \"Seul l'etablissement qui a cree le profil peut ajouter un diplome\") */\n      tag_221\n      jumpi\n      mload(0x40)\n      0x08c379a000000000000000000000000000000000000000000000000000000000\n      dup2\n      mstore\n      0x04\n      add\n      tag_222\n      swap1\n      tag_223\n      jump\t// in\n    tag_222:\n      mload(0x40)\n      dup1\n      swap2\n      sub\n      swap1\n      revert\n    tag_221:\n        /* \"Projet_Blockchain_Dev/contracts/Projet_Blockchain/_Etablissement.sol\":3793:3926  Diplome(DiplomeId, _id_titulaire, etablissement.id_ees, etablissement.nom_ees, _type_diplome, _specialite, _mention, _date_obtention) */\n      mload(0x40)\n      dup1\n      0x0100\n      add\n      0x40\n      mstore\n      dup1\n        /* \"Projet_Blockchain_Dev/contracts/Projet_Blockchain/_Etablissement.sol\":3801:3810  DiplomeId */\n      sload(0x06)\n        /* \"Projet_Blockchain_Dev/contracts/Projet_Blockchain/_Etablissement.sol\":3793:3926  Diplome(DiplomeId, _id_titulaire, etablissement.id_ees, etablissement.nom_ees, _type_diplome, _specialite, _mention, _date_obtention) */\n      dup2\n      mstore\n      0x20\n      add\n        /* \"Projet_Blockchain_Dev/contracts/Projet_Blockchain/_Etablissement.sol\":3812:3825  _id_titulaire */\n      dup8\n        /* \"Projet_Blockchain_Dev/contracts/Projet_Blockchain/_Etablissement.sol\":3793:3926  Diplome(DiplomeId, _id_titulaire, etablissement.id_ees, etablissement.nom_ees, _type_diplome, _specialite, _mention, _date_obtention) */\n      dup2\n      mstore\n      0x20\n      add\n        /* \"Projet_Blockchain_Dev/contracts/Projet_Blockchain/_Etablissement.sol\":3827:3840  etablissement */\n      dup3\n        /* \"Projet_Blockchain_Dev/contracts/Projet_Blockchain/_Etablissement.sol\":3827:3847  etablissement.id_ees */\n      0x00\n      add\n      sload\n        /* \"Projet_Blockchain_Dev/contracts/Projet_Blockchain/_Etablissement.sol\":3793:3926  Diplome(DiplomeId, _id_titulaire, etablissement.id_ees, etablissement.nom_ees, _type_diplome, _specialite, _mention, _date_obtention) */\n      dup2\n      mstore\n      0x20\n      add\n        /* \"Projet_Blockchain_Dev/contracts/Projet_Blockchain/_Etablissement.sol\":3849:3862  etablissement */\n      dup3\n        /* \"Projet_Blockchain_Dev/contracts/Projet_Blockchain/_Etablissement.sol\":3849:3870  etablissement.nom_ees */\n      0x01\n      add\n        /* \"Projet_Blockchain_Dev/contracts/Projet_Blockchain/_Etablissement.sol\":3793:3926  Diplome(DiplomeId, _id_titulaire, etablissement.id_ees, etablissement.nom_ees, _type_diplome, _specialite, _mention, _date_obtention) */\n      dup1\n      sload\n      tag_224\n      swap1\n      tag_112\n      jump\t// in\n    tag_224:\n      dup1\n      0x1f\n      add\n      0x20\n      dup1\n      swap2\n      div\n      mul\n      0x20\n      add\n      mload(0x40)\n      swap1\n      dup2\n      add\n      0x40\n      mstore\n      dup1\n      swap3\n      swap2\n      swap1\n      dup2\n      dup2\n      mstore\n      0x20\n      add\n      dup3\n      dup1\n      sload\n      tag_225\n      swap1\n      tag_112\n      jump\t// in\n    tag_225:\n      dup1\n      iszero\n      tag_226\n      jumpi\n      dup1\n      0x1f\n      lt\n      tag_227\n      jumpi\n      0x0100\n      dup1\n      dup4\n      sload\n      div\n      mul\n      dup4\n      mstore\n      swap2\n      0x20\n      add\n      swap2\n      jump(tag_226)\n    tag_227:\n      dup3\n      add\n      swap2\n      swap1\n      0x00\n      mstore\n      keccak256(0x00, 0x20)\n      swap1\n    tag_228:\n      dup2\n      sload\n      dup2\n      mstore\n      swap1\n      0x01\n      add\n      swap1\n      0x20\n      add\n      dup1\n      dup4\n      gt\n      tag_228\n      jumpi\n      dup3\n      swap1\n      sub\n      0x1f\n      and\n      dup3\n      add\n      swap2\n    tag_226:\n      pop\n      pop\n      pop\n      pop\n      pop\n      dup2\n      mstore\n      0x20\n      add\n        /* \"Projet_Blockchain_Dev/contracts/Projet_Blockchain/_Etablissement.sol\":3872:3885  _type_diplome */\n      dup7\n        /* \"Projet_Blockchain_Dev/contracts/Projet_Blockchain/_Etablissement.sol\":3793:3926  Diplome(DiplomeId, _id_titulaire, etablissement.id_ees, etablissement.nom_ees, _type_diplome, _specialite, _mention, _date_obtention) */\n      dup2\n      mstore\n      0x20\n      add\n        /* \"Projet_Blockchain_Dev/contracts/Projet_Blockchain/_Etablissement.sol\":3887:3898  _specialite */\n      dup6\n        /* \"Projet_Blockchain_Dev/contracts/Projet_Blockchain/_Etablissement.sol\":3793:3926  Diplome(DiplomeId, _id_titulaire, etablissement.id_ees, etablissement.nom_ees, _type_diplome, _specialite, _mention, _date_obtention) */\n      dup2\n      mstore\n      0x20\n      add\n        /* \"Projet_Blockchain_Dev/contracts/Projet_Blockchain/_Etablissement.sol\":3900:3908  _mention */\n      dup5\n        /* \"Projet_Blockchain_Dev/contracts/Projet_Blockchain/_Etablissement.sol\":3793:3926  Diplome(DiplomeId, _id_titulaire, etablissement.id_ees, etablissement.nom_ees, _type_diplome, _specialite, _mention, _date_obtention) */\n      dup2\n      mstore\n      0x20\n      add\n        /* \"Projet_Blockchain_Dev/contracts/Projet_Blockchain/_Etablissement.sol\":3910:3925  _date_obtention */\n      dup4\n        /* \"Projet_Blockchain_Dev/contracts/Projet_Blockchain/_Etablissement.sol\":3793:3926  Diplome(DiplomeId, _id_titulaire, etablissement.id_ees, etablissement.nom_ees, _type_diplome, _specialite, _mention, _date_obtention) */\n      dup2\n      mstore\n      pop\n        /* \"Projet_Blockchain_Dev/contracts/Projet_Blockchain/_Etablissement.sol\":3771:3779  diplomes */\n      0x03\n        /* \"Projet_Blockchain_Dev/contracts/Projet_Blockchain/_Etablissement.sol\":3771:3790  diplomes[DiplomeId] */\n      0x00\n        /* \"Projet_Blockchain_Dev/contracts/Projet_Blockchain/_Etablissement.sol\":3780:3789  DiplomeId */\n      sload(0x06)\n        /* \"Projet_Blockchain_Dev/contracts/Projet_Blockchain/_Etablissement.sol\":3771:3790  diplomes[DiplomeId] */\n      dup2\n      mstore\n      0x20\n      add\n      swap1\n      dup2\n      mstore\n      0x20\n      add\n      0x00\n      keccak256\n        /* \"Projet_Blockchain_Dev/contracts/Projet_Blockchain/_Etablissement.sol\":3771:3926  diplomes[DiplomeId] = Diplome(DiplomeId, _id_titulaire, etablissement.id_ees, etablissement.nom_ees, _type_diplome, _specialite, _mention, _date_obtention) */\n      0x00\n      dup3\n      add\n      mload\n      dup2\n      0x00\n      add\n      sstore\n      0x20\n      dup3\n      add\n      mload\n      dup2\n      0x01\n      add\n      sstore\n      0x40\n      dup3\n      add\n      mload\n      dup2\n      0x02\n      add\n      sstore\n      0x60\n      dup3\n      add\n      mload\n      dup2\n      0x03\n      add\n      swap1\n      dup2\n      tag_229\n      swap2\n      swap1\n      tag_93\n      jump\t// in\n    tag_229:\n      pop\n      0x80\n      dup3\n      add\n      mload\n      dup2\n      0x04\n      add\n      swap1\n      dup2\n      tag_230\n      swap2\n      swap1\n      tag_93\n      jump\t// in\n    tag_230:\n      pop\n      0xa0\n      dup3\n      add\n      mload\n      dup2\n      0x05\n      add\n      swap1\n      dup2\n      tag_231\n      swap2\n      swap1\n      tag_93\n      jump\t// in\n    tag_231:\n      pop\n      0xc0\n      dup3\n      add\n      mload\n      dup2\n      0x06\n      add\n      swap1\n      dup2\n      tag_232\n      swap2\n      swap1\n      tag_93\n      jump\t// in\n    tag_232:\n      pop\n      0xe0\n      dup3\n      add\n      mload\n      dup2\n      0x07\n      add\n      swap1\n      dup2\n      tag_233\n      swap2\n      swap1\n      tag_93\n      jump\t// in\n    tag_233:\n      pop\n      swap1\n      pop\n      pop\n        /* \"Projet_Blockchain_Dev/contracts/Projet_Blockchain/_Etablissement.sol\":3937:3946  DiplomeId */\n      0x06\n      0x00\n        /* \"Projet_Blockchain_Dev/contracts/Projet_Blockchain/_Etablissement.sol\":3937:3948  DiplomeId++ */\n      dup2\n      sload\n      dup1\n      swap3\n      swap2\n      swap1\n      tag_234\n      swap1\n      tag_109\n      jump\t// in\n    tag_234:\n      swap2\n      swap1\n      pop\n      sstore\n      pop\n        /* \"Projet_Blockchain_Dev/contracts/Projet_Blockchain/_Etablissement.sol\":3428:3956  {... */\n      pop\n        /* \"Projet_Blockchain_Dev/contracts/Projet_Blockchain/_Etablissement.sol\":3258:3956  function CreerDiplome(uint _id_titulaire, string memory _type_diplome, string memory _specialite, string memory _mention, string memory _date_obtention) public onlyAdmin {... */\n      pop\n      pop\n      pop\n      pop\n      pop\n      jump\t// out\n        /* \"Projet_Blockchain_Dev/contracts/Projet_Blockchain/_Etablissement.sol\":1743:1774  uint public EtablissementId = 1 */\n    tag_68:\n      sload(0x07)\n      dup2\n      jump\t// out\n        /* \"Projet_Blockchain_Dev/contracts/Projet_Blockchain/_Etablissement.sol\":1711:1736  uint public DiplomeId = 1 */\n    tag_71:\n      sload(0x06)\n      dup2\n      jump\t// out\n        /* \"Projet_Blockchain_Dev/contracts/Projet_Blockchain/_Etablissement.sol\":1618:1669  mapping(address => uint) public evaluationEtudiants */\n    tag_75:\n      mstore(0x20, 0x04)\n      dup1\n      0x00\n      mstore\n      keccak256(0x00, 0x40)\n      0x00\n      swap2\n      pop\n      swap1\n      pop\n      sload\n      dup2\n      jump\t// out\n        /* \"Projet_Blockchain_Dev/contracts/Projet_Blockchain/_Etablissement.sol\":1678:1704  uint public EtudiantId = 1 */\n    tag_78:\n      sload(0x05)\n      dup2\n      jump\t// out\n        /* \"Projet_Blockchain_Dev/contracts/Projet_Blockchain/_Etablissement.sol\":97:117  address public admin */\n    tag_81:\n      0x00\n      dup1\n      sload\n      swap1\n      0x0100\n      exp\n      swap1\n      div\n      0xffffffffffffffffffffffffffffffffffffffff\n      and\n      dup2\n      jump\t// out\n        /* \"#utility.yul\":7:82   */\n    tag_235:\n        /* \"#utility.yul\":40:46   */\n      0x00\n        /* \"#utility.yul\":73:75   */\n      0x40\n        /* \"#utility.yul\":67:76   */\n      mload\n        /* \"#utility.yul\":57:76   */\n      swap1\n      pop\n        /* \"#utility.yul\":7:82   */\n      swap1\n      jump\t// out\n        /* \"#utility.yul\":88:205   */\n    tag_236:\n        /* \"#utility.yul\":197:198   */\n      0x00\n        /* \"#utility.yul\":194:195   */\n      dup1\n        /* \"#utility.yul\":187:199   */\n      revert\n        /* \"#utility.yul\":211:328   */\n    tag_237:\n        /* \"#utility.yul\":320:321   */\n      0x00\n        /* \"#utility.yul\":317:318   */\n      dup1\n        /* \"#utility.yul\":310:322   */\n      revert\n        /* \"#utility.yul\":334:411   */\n    tag_238:\n        /* \"#utility.yul\":371:378   */\n      0x00\n        /* \"#utility.yul\":400:405   */\n      dup2\n        /* \"#utility.yul\":389:405   */\n      swap1\n      pop\n        /* \"#utility.yul\":334:411   */\n      swap2\n      swap1\n      pop\n      jump\t// out\n        /* \"#utility.yul\":417:539   */\n    tag_239:\n        /* \"#utility.yul\":490:514   */\n      tag_296\n        /* \"#utility.yul\":508:513   */\n      dup2\n        /* \"#utility.yul\":490:514   */\n      tag_238\n      jump\t// in\n    tag_296:\n        /* \"#utility.yul\":483:488   */\n      dup2\n        /* \"#utility.yul\":480:515   */\n      eq\n        /* \"#utility.yul\":470:533   */\n      tag_297\n      jumpi\n        /* \"#utility.yul\":529:530   */\n      0x00\n        /* \"#utility.yul\":526:527   */\n      dup1\n        /* \"#utility.yul\":519:531   */\n      revert\n        /* \"#utility.yul\":470:533   */\n    tag_297:\n        /* \"#utility.yul\":417:539   */\n      pop\n      jump\t// out\n        /* \"#utility.yul\":545:684   */\n    tag_240:\n        /* \"#utility.yul\":591:596   */\n      0x00\n        /* \"#utility.yul\":629:635   */\n      dup2\n        /* \"#utility.yul\":616:636   */\n      calldataload\n        /* \"#utility.yul\":607:636   */\n      swap1\n      pop\n        /* \"#utility.yul\":645:678   */\n      tag_299\n        /* \"#utility.yul\":672:677   */\n      dup2\n        /* \"#utility.yul\":645:678   */\n      tag_239\n      jump\t// in\n    tag_299:\n        /* \"#utility.yul\":545:684   */\n      swap3\n      swap2\n      pop\n      pop\n      jump\t// out\n        /* \"#utility.yul\":690:807   */\n    tag_241:\n        /* \"#utility.yul\":799:800   */\n      0x00\n        /* \"#utility.yul\":796:797   */\n      dup1\n        /* \"#utility.yul\":789:801   */\n      revert\n        /* \"#utility.yul\":813:930   */\n    tag_242:\n        /* \"#utility.yul\":922:923   */\n      0x00\n        /* \"#utility.yul\":919:920   */\n      dup1\n        /* \"#utility.yul\":912:924   */\n      revert\n        /* \"#utility.yul\":936:1038   */\n    tag_243:\n        /* \"#utility.yul\":977:983   */\n      0x00\n        /* \"#utility.yul\":1028:1030   */\n      0x1f\n        /* \"#utility.yul\":1024:1031   */\n      not\n        /* \"#utility.yul\":1019:1021   */\n      0x1f\n        /* \"#utility.yul\":1012:1017   */\n      dup4\n        /* \"#utility.yul\":1008:1022   */\n      add\n        /* \"#utility.yul\":1004:1032   */\n      and\n        /* \"#utility.yul\":994:1032   */\n      swap1\n      pop\n        /* \"#utility.yul\":936:1038   */\n      swap2\n      swap1\n      pop\n      jump\t// out\n        /* \"#utility.yul\":1044:1224   */\n    tag_244:\n        /* \"#utility.yul\":1092:1169   */\n      0x4e487b7100000000000000000000000000000000000000000000000000000000\n        /* \"#utility.yul\":1089:1090   */\n      0x00\n        /* \"#utility.yul\":1082:1170   */\n      mstore\n        /* \"#utility.yul\":1189:1193   */\n      0x41\n        /* \"#utility.yul\":1186:1187   */\n      0x04\n        /* \"#utility.yul\":1179:1194   */\n      mstore\n        /* \"#utility.yul\":1213:1217   */\n      0x24\n        /* \"#utility.yul\":1210:1211   */\n      0x00\n        /* \"#utility.yul\":1203:1218   */\n      revert\n        /* \"#utility.yul\":1230:1511   */\n    tag_245:\n        /* \"#utility.yul\":1313:1340   */\n      tag_305\n        /* \"#utility.yul\":1335:1339   */\n      dup3\n        /* \"#utility.yul\":1313:1340   */\n      tag_243\n      jump\t// in\n    tag_305:\n        /* \"#utility.yul\":1305:1311   */\n      dup2\n        /* \"#utility.yul\":1301:1341   */\n      add\n        /* \"#utility.yul\":1443:1449   */\n      dup2\n        /* \"#utility.yul\":1431:1441   */\n      dup2\n        /* \"#utility.yul\":1428:1450   */\n      lt\n        /* \"#utility.yul\":1407:1425   */\n      0xffffffffffffffff\n        /* \"#utility.yul\":1395:1405   */\n      dup3\n        /* \"#utility.yul\":1392:1426   */\n      gt\n        /* \"#utility.yul\":1389:1451   */\n      or\n        /* \"#utility.yul\":1386:1474   */\n      iszero\n      tag_306\n      jumpi\n        /* \"#utility.yul\":1454:1472   */\n      tag_307\n      tag_244\n      jump\t// in\n    tag_307:\n        /* \"#utility.yul\":1386:1474   */\n    tag_306:\n        /* \"#utility.yul\":1494:1504   */\n      dup1\n        /* \"#utility.yul\":1490:1492   */\n      0x40\n        /* \"#utility.yul\":1483:1505   */\n      mstore\n        /* \"#utility.yul\":1273:1511   */\n      pop\n        /* \"#utility.yul\":1230:1511   */\n      pop\n      pop\n      jump\t// out\n        /* \"#utility.yul\":1517:1646   */\n    tag_246:\n        /* \"#utility.yul\":1551:1557   */\n      0x00\n        /* \"#utility.yul\":1578:1598   */\n      tag_309\n      tag_235\n      jump\t// in\n    tag_309:\n        /* \"#utility.yul\":1568:1598   */\n      swap1\n      pop\n        /* \"#utility.yul\":1607:1640   */\n      tag_310\n        /* \"#utility.yul\":1635:1639   */\n      dup3\n        /* \"#utility.yul\":1627:1633   */\n      dup3\n        /* \"#utility.yul\":1607:1640   */\n      tag_245\n      jump\t// in\n    tag_310:\n        /* \"#utility.yul\":1517:1646   */\n      swap2\n      swap1\n      pop\n      jump\t// out\n        /* \"#utility.yul\":1652:1960   */\n    tag_247:\n        /* \"#utility.yul\":1714:1718   */\n      0x00\n        /* \"#utility.yul\":1804:1822   */\n      0xffffffffffffffff\n        /* \"#utility.yul\":1796:1802   */\n      dup3\n        /* \"#utility.yul\":1793:1823   */\n      gt\n        /* \"#utility.yul\":1790:1846   */\n      iszero\n      tag_312\n      jumpi\n        /* \"#utility.yul\":1826:1844   */\n      tag_313\n      tag_244\n      jump\t// in\n    tag_313:\n        /* \"#utility.yul\":1790:1846   */\n    tag_312:\n        /* \"#utility.yul\":1864:1893   */\n      tag_314\n        /* \"#utility.yul\":1886:1892   */\n      dup3\n        /* \"#utility.yul\":1864:1893   */\n      tag_243\n      jump\t// in\n    tag_314:\n        /* \"#utility.yul\":1856:1893   */\n      swap1\n      pop\n        /* \"#utility.yul\":1948:1952   */\n      0x20\n        /* \"#utility.yul\":1942:1946   */\n      dup2\n        /* \"#utility.yul\":1938:1953   */\n      add\n        /* \"#utility.yul\":1930:1953   */\n      swap1\n      pop\n        /* \"#utility.yul\":1652:1960   */\n      swap2\n      swap1\n      pop\n      jump\t// out\n        /* \"#utility.yul\":1966:2112   */\n    tag_248:\n        /* \"#utility.yul\":2063:2069   */\n      dup3\n        /* \"#utility.yul\":2058:2061   */\n      dup2\n        /* \"#utility.yul\":2053:2056   */\n      dup4\n        /* \"#utility.yul\":2040:2070   */\n      calldatacopy\n        /* \"#utility.yul\":2104:2105   */\n      0x00\n        /* \"#utility.yul\":2095:2101   */\n      dup4\n        /* \"#utility.yul\":2090:2093   */\n      dup4\n        /* \"#utility.yul\":2086:2102   */\n      add\n        /* \"#utility.yul\":2079:2106   */\n      mstore\n        /* \"#utility.yul\":1966:2112   */\n      pop\n      pop\n      pop\n      jump\t// out\n        /* \"#utility.yul\":2118:2543   */\n    tag_249:\n        /* \"#utility.yul\":2196:2201   */\n      0x00\n        /* \"#utility.yul\":2221:2287   */\n      tag_317\n        /* \"#utility.yul\":2237:2286   */\n      tag_318\n        /* \"#utility.yul\":2279:2285   */\n      dup5\n        /* \"#utility.yul\":2237:2286   */\n      tag_247\n      jump\t// in\n    tag_318:\n        /* \"#utility.yul\":2221:2287   */\n      tag_246\n      jump\t// in\n    tag_317:\n        /* \"#utility.yul\":2212:2287   */\n      swap1\n      pop\n        /* \"#utility.yul\":2310:2316   */\n      dup3\n        /* \"#utility.yul\":2303:2308   */\n      dup2\n        /* \"#utility.yul\":2296:2317   */\n      mstore\n        /* \"#utility.yul\":2348:2352   */\n      0x20\n        /* \"#utility.yul\":2341:2346   */\n      dup2\n        /* \"#utility.yul\":2337:2353   */\n      add\n        /* \"#utility.yul\":2386:2389   */\n      dup5\n        /* \"#utility.yul\":2377:2383   */\n      dup5\n        /* \"#utility.yul\":2372:2375   */\n      dup5\n        /* \"#utility.yul\":2368:2384   */\n      add\n        /* \"#utility.yul\":2365:2390   */\n      gt\n        /* \"#utility.yul\":2362:2474   */\n      iszero\n      tag_319\n      jumpi\n        /* \"#utility.yul\":2393:2472   */\n      tag_320\n      tag_242\n      jump\t// in\n    tag_320:\n        /* \"#utility.yul\":2362:2474   */\n    tag_319:\n        /* \"#utility.yul\":2483:2537   */\n      tag_321\n        /* \"#utility.yul\":2530:2536   */\n      dup5\n        /* \"#utility.yul\":2525:2528   */\n      dup3\n        /* \"#utility.yul\":2520:2523   */\n      dup6\n        /* \"#utility.yul\":2483:2537   */\n      tag_248\n      jump\t// in\n    tag_321:\n        /* \"#utility.yul\":2202:2543   */\n      pop\n        /* \"#utility.yul\":2118:2543   */\n      swap4\n      swap3\n      pop\n      pop\n      pop\n      jump\t// out\n        /* \"#utility.yul\":2563:2903   */\n    tag_250:\n        /* \"#utility.yul\":2619:2624   */\n      0x00\n        /* \"#utility.yul\":2668:2671   */\n      dup3\n        /* \"#utility.yul\":2661:2665   */\n      0x1f\n        /* \"#utility.yul\":2653:2659   */\n      dup4\n        /* \"#utility.yul\":2649:2666   */\n      add\n        /* \"#utility.yul\":2645:2672   */\n      slt\n        /* \"#utility.yul\":2635:2757   */\n      tag_323\n      jumpi\n        /* \"#utility.yul\":2676:2755   */\n      tag_324\n      tag_241\n      jump\t// in\n    tag_324:\n        /* \"#utility.yul\":2635:2757   */\n    tag_323:\n        /* \"#utility.yul\":2793:2799   */\n      dup2\n        /* \"#utility.yul\":2780:2800   */\n      calldataload\n        /* \"#utility.yul\":2818:2897   */\n      tag_325\n        /* \"#utility.yul\":2893:2896   */\n      dup5\n        /* \"#utility.yul\":2885:2891   */\n      dup3\n        /* \"#utility.yul\":2878:2882   */\n      0x20\n        /* \"#utility.yul\":2870:2876   */\n      dup7\n        /* \"#utility.yul\":2866:2883   */\n      add\n        /* \"#utility.yul\":2818:2897   */\n      tag_249\n      jump\t// in\n    tag_325:\n        /* \"#utility.yul\":2809:2897   */\n      swap2\n      pop\n        /* \"#utility.yul\":2625:2903   */\n      pop\n        /* \"#utility.yul\":2563:2903   */\n      swap3\n      swap2\n      pop\n      pop\n      jump\t// out\n        /* \"#utility.yul\":2909:5664   */\n    tag_23:\n        /* \"#utility.yul\":3110:3116   */\n      0x00\n        /* \"#utility.yul\":3118:3124   */\n      dup1\n        /* \"#utility.yul\":3126:3132   */\n      0x00\n        /* \"#utility.yul\":3134:3140   */\n      dup1\n        /* \"#utility.yul\":3142:3148   */\n      0x00\n        /* \"#utility.yul\":3150:3156   */\n      dup1\n        /* \"#utility.yul\":3158:3164   */\n      0x00\n        /* \"#utility.yul\":3166:3172   */\n      dup1\n        /* \"#utility.yul\":3174:3180   */\n      0x00\n        /* \"#utility.yul\":3223:3226   */\n      0x0120\n        /* \"#utility.yul\":3211:3220   */\n      dup11\n        /* \"#utility.yul\":3202:3209   */\n      dup13\n        /* \"#utility.yul\":3198:3221   */\n      sub\n        /* \"#utility.yul\":3194:3227   */\n      slt\n        /* \"#utility.yul\":3191:3311   */\n      iszero\n      tag_327\n      jumpi\n        /* \"#utility.yul\":3230:3309   */\n      tag_328\n      tag_236\n      jump\t// in\n    tag_328:\n        /* \"#utility.yul\":3191:3311   */\n    tag_327:\n        /* \"#utility.yul\":3350:3351   */\n      0x00\n        /* \"#utility.yul\":3375:3428   */\n      tag_329\n        /* \"#utility.yul\":3420:3427   */\n      dup13\n        /* \"#utility.yul\":3411:3417   */\n      dup3\n        /* \"#utility.yul\":3400:3409   */\n      dup14\n        /* \"#utility.yul\":3396:3418   */\n      add\n        /* \"#utility.yul\":3375:3428   */\n      tag_240\n      jump\t// in\n    tag_329:\n        /* \"#utility.yul\":3365:3428   */\n      swap10\n      pop\n        /* \"#utility.yul\":3321:3438   */\n      pop\n        /* \"#utility.yul\":3505:3507   */\n      0x20\n        /* \"#utility.yul\":3494:3503   */\n      dup11\n        /* \"#utility.yul\":3490:3508   */\n      add\n        /* \"#utility.yul\":3477:3509   */\n      calldataload\n        /* \"#utility.yul\":3536:3554   */\n      0xffffffffffffffff\n        /* \"#utility.yul\":3528:3534   */\n      dup2\n        /* \"#utility.yul\":3525:3555   */\n      gt\n        /* \"#utility.yul\":3522:3639   */\n      iszero\n      tag_330\n      jumpi\n        /* \"#utility.yul\":3558:3637   */\n      tag_331\n      tag_237\n      jump\t// in\n    tag_331:\n        /* \"#utility.yul\":3522:3639   */\n    tag_330:\n        /* \"#utility.yul\":3663:3726   */\n      tag_332\n        /* \"#utility.yul\":3718:3725   */\n      dup13\n        /* \"#utility.yul\":3709:3715   */\n      dup3\n        /* \"#utility.yul\":3698:3707   */\n      dup14\n        /* \"#utility.yul\":3694:3716   */\n      add\n        /* \"#utility.yul\":3663:3726   */\n      tag_250\n      jump\t// in\n    tag_332:\n        /* \"#utility.yul\":3653:3726   */\n      swap9\n      pop\n        /* \"#utility.yul\":3448:3736   */\n      pop\n        /* \"#utility.yul\":3803:3805   */\n      0x40\n        /* \"#utility.yul\":3792:3801   */\n      dup11\n        /* \"#utility.yul\":3788:3806   */\n      add\n        /* \"#utility.yul\":3775:3807   */\n      calldataload\n        /* \"#utility.yul\":3834:3852   */\n      0xffffffffffffffff\n        /* \"#utility.yul\":3826:3832   */\n      dup2\n        /* \"#utility.yul\":3823:3853   */\n      gt\n        /* \"#utility.yul\":3820:3937   */\n      iszero\n      tag_333\n      jumpi\n        /* \"#utility.yul\":3856:3935   */\n      tag_334\n      tag_237\n      jump\t// in\n    tag_334:\n        /* \"#utility.yul\":3820:3937   */\n    tag_333:\n        /* \"#utility.yul\":3961:4024   */\n      tag_335\n        /* \"#utility.yul\":4016:4023   */\n      dup13\n        /* \"#utility.yul\":4007:4013   */\n      dup3\n        /* \"#utility.yul\":3996:4005   */\n      dup14\n        /* \"#utility.yul\":3992:4014   */\n      add\n        /* \"#utility.yul\":3961:4024   */\n      tag_250\n      jump\t// in\n    tag_335:\n        /* \"#utility.yul\":3951:4024   */\n      swap8\n      pop\n        /* \"#utility.yul\":3746:4034   */\n      pop\n        /* \"#utility.yul\":4101:4103   */\n      0x60\n        /* \"#utility.yul\":4090:4099   */\n      dup11\n        /* \"#utility.yul\":4086:4104   */\n      add\n        /* \"#utility.yul\":4073:4105   */\n      calldataload\n        /* \"#utility.yul\":4132:4150   */\n      0xffffffffffffffff\n        /* \"#utility.yul\":4124:4130   */\n      dup2\n        /* \"#utility.yul\":4121:4151   */\n      gt\n        /* \"#utility.yul\":4118:4235   */\n      iszero\n      tag_336\n      jumpi\n        /* \"#utility.yul\":4154:4233   */\n      tag_337\n      tag_237\n      jump\t// in\n    tag_337:\n        /* \"#utility.yul\":4118:4235   */\n    tag_336:\n        /* \"#utility.yul\":4259:4322   */\n      tag_338\n        /* \"#utility.yul\":4314:4321   */\n      dup13\n        /* \"#utility.yul\":4305:4311   */\n      dup3\n        /* \"#utility.yul\":4294:4303   */\n      dup14\n        /* \"#utility.yul\":4290:4312   */\n      add\n        /* \"#utility.yul\":4259:4322   */\n      tag_250\n      jump\t// in\n    tag_338:\n        /* \"#utility.yul\":4249:4322   */\n      swap7\n      pop\n        /* \"#utility.yul\":4044:4332   */\n      pop\n        /* \"#utility.yul\":4399:4402   */\n      0x80\n        /* \"#utility.yul\":4388:4397   */\n      dup11\n        /* \"#utility.yul\":4384:4403   */\n      add\n        /* \"#utility.yul\":4371:4404   */\n      calldataload\n        /* \"#utility.yul\":4431:4449   */\n      0xffffffffffffffff\n        /* \"#utility.yul\":4423:4429   */\n      dup2\n        /* \"#utility.yul\":4420:4450   */\n      gt\n        /* \"#utility.yul\":4417:4534   */\n      iszero\n      tag_339\n      jumpi\n        /* \"#utility.yul\":4453:4532   */\n      tag_340\n      tag_237\n      jump\t// in\n    tag_340:\n        /* \"#utility.yul\":4417:4534   */\n    tag_339:\n        /* \"#utility.yul\":4558:4621   */\n      tag_341\n        /* \"#utility.yul\":4613:4620   */\n      dup13\n        /* \"#utility.yul\":4604:4610   */\n      dup3\n        /* \"#utility.yul\":4593:4602   */\n      dup14\n        /* \"#utility.yul\":4589:4611   */\n      add\n        /* \"#utility.yul\":4558:4621   */\n      tag_250\n      jump\t// in\n    tag_341:\n        /* \"#utility.yul\":4548:4621   */\n      swap6\n      pop\n        /* \"#utility.yul\":4342:4631   */\n      pop\n        /* \"#utility.yul\":4670:4673   */\n      0xa0\n        /* \"#utility.yul\":4697:4750   */\n      tag_342\n        /* \"#utility.yul\":4742:4749   */\n      dup13\n        /* \"#utility.yul\":4733:4739   */\n      dup3\n        /* \"#utility.yul\":4722:4731   */\n      dup14\n        /* \"#utility.yul\":4718:4740   */\n      add\n        /* \"#utility.yul\":4697:4750   */\n      tag_240\n      jump\t// in\n    tag_342:\n        /* \"#utility.yul\":4687:4750   */\n      swap5\n      pop\n        /* \"#utility.yul\":4641:4760   */\n      pop\n        /* \"#utility.yul\":4827:4830   */\n      0xc0\n        /* \"#utility.yul\":4816:4825   */\n      dup11\n        /* \"#utility.yul\":4812:4831   */\n      add\n        /* \"#utility.yul\":4799:4832   */\n      calldataload\n        /* \"#utility.yul\":4859:4877   */\n      0xffffffffffffffff\n        /* \"#utility.yul\":4851:4857   */\n      dup2\n        /* \"#utility.yul\":4848:4878   */\n      gt\n        /* \"#utility.yul\":4845:4962   */\n      iszero\n      tag_343\n      jumpi\n        /* \"#utility.yul\":4881:4960   */\n      tag_344\n      tag_237\n      jump\t// in\n    tag_344:\n        /* \"#utility.yul\":4845:4962   */\n    tag_343:\n        /* \"#utility.yul\":4986:5049   */\n      tag_345\n        /* \"#utility.yul\":5041:5048   */\n      dup13\n        /* \"#utility.yul\":5032:5038   */\n      dup3\n        /* \"#utility.yul\":5021:5030   */\n      dup14\n        /* \"#utility.yul\":5017:5039   */\n      add\n        /* \"#utility.yul\":4986:5049   */\n      tag_250\n      jump\t// in\n    tag_345:\n        /* \"#utility.yul\":4976:5049   */\n      swap4\n      pop\n        /* \"#utility.yul\":4770:5059   */\n      pop\n        /* \"#utility.yul\":5126:5129   */\n      0xe0\n        /* \"#utility.yul\":5115:5124   */\n      dup11\n        /* \"#utility.yul\":5111:5130   */\n      add\n        /* \"#utility.yul\":5098:5131   */\n      calldataload\n        /* \"#utility.yul\":5158:5176   */\n      0xffffffffffffffff\n        /* \"#utility.yul\":5150:5156   */\n      dup2\n        /* \"#utility.yul\":5147:5177   */\n      gt\n        /* \"#utility.yul\":5144:5261   */\n      iszero\n      tag_346\n      jumpi\n        /* \"#utility.yul\":5180:5259   */\n      tag_347\n      tag_237\n      jump\t// in\n    tag_347:\n        /* \"#utility.yul\":5144:5261   */\n    tag_346:\n        /* \"#utility.yul\":5285:5348   */\n      tag_348\n        /* \"#utility.yul\":5340:5347   */\n      dup13\n        /* \"#utility.yul\":5331:5337   */\n      dup3\n        /* \"#utility.yul\":5320:5329   */\n      dup14\n        /* \"#utility.yul\":5316:5338   */\n      add\n        /* \"#utility.yul\":5285:5348   */\n      tag_250\n      jump\t// in\n    tag_348:\n        /* \"#utility.yul\":5275:5348   */\n      swap3\n      pop\n        /* \"#utility.yul\":5069:5358   */\n      pop\n        /* \"#utility.yul\":5425:5428   */\n      0x0100\n        /* \"#utility.yul\":5414:5423   */\n      dup11\n        /* \"#utility.yul\":5410:5429   */\n      add\n        /* \"#utility.yul\":5397:5430   */\n      calldataload\n        /* \"#utility.yul\":5457:5475   */\n      0xffffffffffffffff\n        /* \"#utility.yul\":5449:5455   */\n      dup2\n        /* \"#utility.yul\":5446:5476   */\n      gt\n        /* \"#utility.yul\":5443:5560   */\n      iszero\n      tag_349\n      jumpi\n        /* \"#utility.yul\":5479:5558   */\n      tag_350\n      tag_237\n      jump\t// in\n    tag_350:\n        /* \"#utility.yul\":5443:5560   */\n    tag_349:\n        /* \"#utility.yul\":5584:5647   */\n      tag_351\n        /* \"#utility.yul\":5639:5646   */\n      dup13\n        /* \"#utility.yul\":5630:5636   */\n      dup3\n        /* \"#utility.yul\":5619:5628   */\n      dup14\n        /* \"#utility.yul\":5615:5637   */\n      add\n        /* \"#utility.yul\":5584:5647   */\n      tag_250\n      jump\t// in\n    tag_351:\n        /* \"#utility.yul\":5574:5647   */\n      swap2\n      pop\n        /* \"#utility.yul\":5368:5657   */\n      pop\n        /* \"#utility.yul\":2909:5664   */\n      swap3\n      swap6\n      swap9\n      pop\n      swap3\n      swap6\n      swap9\n      pop\n      swap3\n      swap6\n      swap9\n      jump\t// out\n        /* \"#utility.yul\":5670:5788   */\n    tag_251:\n        /* \"#utility.yul\":5757:5781   */\n      tag_353\n        /* \"#utility.yul\":5775:5780   */\n      dup2\n        /* \"#utility.yul\":5757:5781   */\n      tag_238\n      jump\t// in\n    tag_353:\n        /* \"#utility.yul\":5752:5755   */\n      dup3\n        /* \"#utility.yul\":5745:5782   */\n      mstore\n        /* \"#utility.yul\":5670:5788   */\n      pop\n      pop\n      jump\t// out\n        /* \"#utility.yul\":5794:6016   */\n    tag_28:\n        /* \"#utility.yul\":5887:5891   */\n      0x00\n        /* \"#utility.yul\":5925:5927   */\n      0x20\n        /* \"#utility.yul\":5914:5923   */\n      dup3\n        /* \"#utility.yul\":5910:5928   */\n      add\n        /* \"#utility.yul\":5902:5928   */\n      swap1\n      pop\n        /* \"#utility.yul\":5938:6009   */\n      tag_355\n        /* \"#utility.yul\":6006:6007   */\n      0x00\n        /* \"#utility.yul\":5995:6004   */\n      dup4\n        /* \"#utility.yul\":5991:6008   */\n      add\n        /* \"#utility.yul\":5982:5988   */\n      dup5\n        /* \"#utility.yul\":5938:6009   */\n      tag_251\n      jump\t// in\n    tag_355:\n        /* \"#utility.yul\":5794:6016   */\n      swap3\n      swap2\n      pop\n      pop\n      jump\t// out\n        /* \"#utility.yul\":6022:7507   */\n    tag_31:\n        /* \"#utility.yul\":6148:6154   */\n      0x00\n        /* \"#utility.yul\":6156:6162   */\n      dup1\n        /* \"#utility.yul\":6164:6170   */\n      0x00\n        /* \"#utility.yul\":6172:6178   */\n      dup1\n        /* \"#utility.yul\":6221:6224   */\n      0x80\n        /* \"#utility.yul\":6209:6218   */\n      dup6\n        /* \"#utility.yul\":6200:6207   */\n      dup8\n        /* \"#utility.yul\":6196:6219   */\n      sub\n        /* \"#utility.yul\":6192:6225   */\n      slt\n        /* \"#utility.yul\":6189:6309   */\n      iszero\n      tag_357\n      jumpi\n        /* \"#utility.yul\":6228:6307   */\n      tag_358\n      tag_236\n      jump\t// in\n    tag_358:\n        /* \"#utility.yul\":6189:6309   */\n    tag_357:\n        /* \"#utility.yul\":6376:6377   */\n      0x00\n        /* \"#utility.yul\":6365:6374   */\n      dup6\n        /* \"#utility.yul\":6361:6378   */\n      add\n        /* \"#utility.yul\":6348:6379   */\n      calldataload\n        /* \"#utility.yul\":6406:6424   */\n      0xffffffffffffffff\n        /* \"#utility.yul\":6398:6404   */\n      dup2\n        /* \"#utility.yul\":6395:6425   */\n      gt\n        /* \"#utility.yul\":6392:6509   */\n      iszero\n      tag_359\n      jumpi\n        /* \"#utility.yul\":6428:6507   */\n      tag_360\n      tag_237\n      jump\t// in\n    tag_360:\n        /* \"#utility.yul\":6392:6509   */\n    tag_359:\n        /* \"#utility.yul\":6533:6596   */\n      tag_361\n        /* \"#utility.yul\":6588:6595   */\n      dup8\n        /* \"#utility.yul\":6579:6585   */\n      dup3\n        /* \"#utility.yul\":6568:6577   */\n      dup9\n        /* \"#utility.yul\":6564:6586   */\n      add\n        /* \"#utility.yul\":6533:6596   */\n      tag_250\n      jump\t// in\n    tag_361:\n        /* \"#utility.yul\":6523:6596   */\n      swap5\n      pop\n        /* \"#utility.yul\":6319:6606   */\n      pop\n        /* \"#utility.yul\":6673:6675   */\n      0x20\n        /* \"#utility.yul\":6662:6671   */\n      dup6\n        /* \"#utility.yul\":6658:6676   */\n      add\n        /* \"#utility.yul\":6645:6677   */\n      calldataload\n        /* \"#utility.yul\":6704:6722   */\n      0xffffffffffffffff\n        /* \"#utility.yul\":6696:6702   */\n      dup2\n        /* \"#utility.yul\":6693:6723   */\n      gt\n        /* \"#utility.yul\":6690:6807   */\n      iszero\n      tag_362\n      jumpi\n        /* \"#utility.yul\":6726:6805   */\n      tag_363\n      tag_237\n      jump\t// in\n    tag_363:\n        /* \"#utility.yul\":6690:6807   */\n    tag_362:\n        /* \"#utility.yul\":6831:6894   */\n      tag_364\n        /* \"#utility.yul\":6886:6893   */\n      dup8\n        /* \"#utility.yul\":6877:6883   */\n      dup3\n        /* \"#utility.yul\":6866:6875   */\n      dup9\n        /* \"#utility.yul\":6862:6884   */\n      add\n        /* \"#utility.yul\":6831:6894   */\n      tag_250\n      jump\t// in\n    tag_364:\n        /* \"#utility.yul\":6821:6894   */\n      swap4\n      pop\n        /* \"#utility.yul\":6616:6904   */\n      pop\n        /* \"#utility.yul\":6971:6973   */\n      0x40\n        /* \"#utility.yul\":6960:6969   */\n      dup6\n        /* \"#utility.yul\":6956:6974   */\n      add\n        /* \"#utility.yul\":6943:6975   */\n      calldataload\n        /* \"#utility.yul\":7002:7020   */\n      0xffffffffffffffff\n        /* \"#utility.yul\":6994:7000   */\n      dup2\n        /* \"#utility.yul\":6991:7021   */\n      gt\n        /* \"#utility.yul\":6988:7105   */\n      iszero\n      tag_365\n      jumpi\n        /* \"#utility.yul\":7024:7103   */\n      tag_366\n      tag_237\n      jump\t// in\n    tag_366:\n        /* \"#utility.yul\":6988:7105   */\n    tag_365:\n        /* \"#utility.yul\":7129:7192   */\n      tag_367\n        /* \"#utility.yul\":7184:7191   */\n      dup8\n        /* \"#utility.yul\":7175:7181   */\n      dup3\n        /* \"#utility.yul\":7164:7173   */\n      dup9\n        /* \"#utility.yul\":7160:7182   */\n      add\n        /* \"#utility.yul\":7129:7192   */\n      tag_250\n      jump\t// in\n    tag_367:\n        /* \"#utility.yul\":7119:7192   */\n      swap3\n      pop\n        /* \"#utility.yul\":6914:7202   */\n      pop\n        /* \"#utility.yul\":7269:7271   */\n      0x60\n        /* \"#utility.yul\":7258:7267   */\n      dup6\n        /* \"#utility.yul\":7254:7272   */\n      add\n        /* \"#utility.yul\":7241:7273   */\n      calldataload\n        /* \"#utility.yul\":7300:7318   */\n      0xffffffffffffffff\n        /* \"#utility.yul\":7292:7298   */\n      dup2\n        /* \"#utility.yul\":7289:7319   */\n      gt\n        /* \"#utility.yul\":7286:7403   */\n      iszero\n      tag_368\n      jumpi\n        /* \"#utility.yul\":7322:7401   */\n      tag_369\n      tag_237\n      jump\t// in\n    tag_369:\n        /* \"#utility.yul\":7286:7403   */\n    tag_368:\n        /* \"#utility.yul\":7427:7490   */\n      tag_370\n        /* \"#utility.yul\":7482:7489   */\n      dup8\n        /* \"#utility.yul\":7473:7479   */\n      dup3\n        /* \"#utility.yul\":7462:7471   */\n      dup9\n        /* \"#utility.yul\":7458:7480   */\n      add\n        /* \"#utility.yul\":7427:7490   */\n      tag_250\n      jump\t// in\n    tag_370:\n        /* \"#utility.yul\":7417:7490   */\n      swap2\n      pop\n        /* \"#utility.yul\":7212:7500   */\n      pop\n        /* \"#utility.yul\":6022:7507   */\n      swap3\n      swap6\n      swap2\n      swap5\n      pop\n      swap3\n      pop\n      jump\t// out\n        /* \"#utility.yul\":7513:7842   */\n    tag_35:\n        /* \"#utility.yul\":7572:7578   */\n      0x00\n        /* \"#utility.yul\":7621:7623   */\n      0x20\n        /* \"#utility.yul\":7609:7618   */\n      dup3\n        /* \"#utility.yul\":7600:7607   */\n      dup5\n        /* \"#utility.yul\":7596:7619   */\n      sub\n        /* \"#utility.yul\":7592:7624   */\n      slt\n        /* \"#utility.yul\":7589:7708   */\n      iszero\n      tag_372\n      jumpi\n        /* \"#utility.yul\":7627:7706   */\n      tag_373\n      tag_236\n      jump\t// in\n    tag_373:\n        /* \"#utility.yul\":7589:7708   */\n    tag_372:\n        /* \"#utility.yul\":7747:7748   */\n      0x00\n        /* \"#utility.yul\":7772:7825   */\n      tag_374\n        /* \"#utility.yul\":7817:7824   */\n      dup5\n        /* \"#utility.yul\":7808:7814   */\n      dup3\n        /* \"#utility.yul\":7797:7806   */\n      dup6\n        /* \"#utility.yul\":7793:7815   */\n      add\n        /* \"#utility.yul\":7772:7825   */\n      tag_240\n      jump\t// in\n    tag_374:\n        /* \"#utility.yul\":7762:7825   */\n      swap2\n      pop\n        /* \"#utility.yul\":7718:7835   */\n      pop\n        /* \"#utility.yul\":7513:7842   */\n      swap3\n      swap2\n      pop\n      pop\n      jump\t// out\n        /* \"#utility.yul\":7848:7947   */\n    tag_252:\n        /* \"#utility.yul\":7900:7906   */\n      0x00\n        /* \"#utility.yul\":7934:7939   */\n      dup2\n        /* \"#utility.yul\":7928:7940   */\n      mload\n        /* \"#utility.yul\":7918:7940   */\n      swap1\n      pop\n        /* \"#utility.yul\":7848:7947   */\n      swap2\n      swap1\n      pop\n      jump\t// out\n        /* \"#utility.yul\":7953:8122   */\n    tag_253:\n        /* \"#utility.yul\":8037:8048   */\n      0x00\n        /* \"#utility.yul\":8071:8077   */\n      dup3\n        /* \"#utility.yul\":8066:8069   */\n      dup3\n        /* \"#utility.yul\":8059:8078   */\n      mstore\n        /* \"#utility.yul\":8111:8115   */\n      0x20\n        /* \"#utility.yul\":8106:8109   */\n      dup3\n        /* \"#utility.yul\":8102:8116   */\n      add\n        /* \"#utility.yul\":8087:8116   */\n      swap1\n      pop\n        /* \"#utility.yul\":7953:8122   */\n      swap3\n      swap2\n      pop\n      pop\n      jump\t// out\n        /* \"#utility.yul\":8128:8374   */\n    tag_254:\n        /* \"#utility.yul\":8209:8210   */\n      0x00\n        /* \"#utility.yul\":8219:8332   */\n    tag_378:\n        /* \"#utility.yul\":8233:8239   */\n      dup4\n        /* \"#utility.yul\":8230:8231   */\n      dup2\n        /* \"#utility.yul\":8227:8240   */\n      lt\n        /* \"#utility.yul\":8219:8332   */\n      iszero\n      tag_380\n      jumpi\n        /* \"#utility.yul\":8318:8319   */\n      dup1\n        /* \"#utility.yul\":8313:8316   */\n      dup3\n        /* \"#utility.yul\":8309:8320   */\n      add\n        /* \"#utility.yul\":8303:8321   */\n      mload\n        /* \"#utility.yul\":8299:8300   */\n      dup2\n        /* \"#utility.yul\":8294:8297   */\n      dup5\n        /* \"#utility.yul\":8290:8301   */\n      add\n        /* \"#utility.yul\":8283:8322   */\n      mstore\n        /* \"#utility.yul\":8255:8257   */\n      0x20\n        /* \"#utility.yul\":8252:8253   */\n      dup2\n        /* \"#utility.yul\":8248:8258   */\n      add\n        /* \"#utility.yul\":8243:8258   */\n      swap1\n      pop\n        /* \"#utility.yul\":8219:8332   */\n      jump(tag_378)\n    tag_380:\n        /* \"#utility.yul\":8366:8367   */\n      0x00\n        /* \"#utility.yul\":8357:8363   */\n      dup5\n        /* \"#utility.yul\":8352:8355   */\n      dup5\n        /* \"#utility.yul\":8348:8364   */\n      add\n        /* \"#utility.yul\":8341:8368   */\n      mstore\n        /* \"#utility.yul\":8190:8374   */\n      pop\n        /* \"#utility.yul\":8128:8374   */\n      pop\n      pop\n      pop\n      jump\t// out\n        /* \"#utility.yul\":8380:8757   */\n    tag_255:\n        /* \"#utility.yul\":8468:8471   */\n      0x00\n        /* \"#utility.yul\":8496:8535   */\n      tag_382\n        /* \"#utility.yul\":8529:8534   */\n      dup3\n        /* \"#utility.yul\":8496:8535   */\n      tag_252\n      jump\t// in\n    tag_382:\n        /* \"#utility.yul\":8551:8622   */\n      tag_383\n        /* \"#utility.yul\":8615:8621   */\n      dup2\n        /* \"#utility.yul\":8610:8613   */\n      dup6\n        /* \"#utility.yul\":8551:8622   */\n      tag_253\n      jump\t// in\n    tag_383:\n        /* \"#utility.yul\":8544:8622   */\n      swap4\n      pop\n        /* \"#utility.yul\":8631:8696   */\n      tag_384\n        /* \"#utility.yul\":8689:8695   */\n      dup2\n        /* \"#utility.yul\":8684:8687   */\n      dup6\n        /* \"#utility.yul\":8677:8681   */\n      0x20\n        /* \"#utility.yul\":8670:8675   */\n      dup7\n        /* \"#utility.yul\":8666:8682   */\n      add\n        /* \"#utility.yul\":8631:8696   */\n      tag_254\n      jump\t// in\n    tag_384:\n        /* \"#utility.yul\":8721:8750   */\n      tag_385\n        /* \"#utility.yul\":8743:8749   */\n      dup2\n        /* \"#utility.yul\":8721:8750   */\n      tag_243\n      jump\t// in\n    tag_385:\n        /* \"#utility.yul\":8716:8719   */\n      dup5\n        /* \"#utility.yul\":8712:8751   */\n      add\n        /* \"#utility.yul\":8705:8751   */\n      swap2\n      pop\n        /* \"#utility.yul\":8472:8757   */\n      pop\n        /* \"#utility.yul\":8380:8757   */\n      swap3\n      swap2\n      pop\n      pop\n      jump\t// out\n        /* \"#utility.yul\":8763:8889   */\n    tag_256:\n        /* \"#utility.yul\":8800:8807   */\n      0x00\n        /* \"#utility.yul\":8840:8882   */\n      0xffffffffffffffffffffffffffffffffffffffff\n        /* \"#utility.yul\":8833:8838   */\n      dup3\n        /* \"#utility.yul\":8829:8883   */\n      and\n        /* \"#utility.yul\":8818:8883   */\n      swap1\n      pop\n        /* \"#utility.yul\":8763:8889   */\n      swap2\n      swap1\n      pop\n      jump\t// out\n        /* \"#utility.yul\":8895:8991   */\n    tag_257:\n        /* \"#utility.yul\":8932:8939   */\n      0x00\n        /* \"#utility.yul\":8961:8985   */\n      tag_388\n        /* \"#utility.yul\":8979:8984   */\n      dup3\n        /* \"#utility.yul\":8961:8985   */\n      tag_256\n      jump\t// in\n    tag_388:\n        /* \"#utility.yul\":8950:8985   */\n      swap1\n      pop\n        /* \"#utility.yul\":8895:8991   */\n      swap2\n      swap1\n      pop\n      jump\t// out\n        /* \"#utility.yul\":8997:9115   */\n    tag_258:\n        /* \"#utility.yul\":9084:9108   */\n      tag_390\n        /* \"#utility.yul\":9102:9107   */\n      dup2\n        /* \"#utility.yul\":9084:9108   */\n      tag_257\n      jump\t// in\n    tag_390:\n        /* \"#utility.yul\":9079:9082   */\n      dup3\n        /* \"#utility.yul\":9072:9109   */\n      mstore\n        /* \"#utility.yul\":8997:9115   */\n      pop\n      pop\n      jump\t// out\n        /* \"#utility.yul\":9121:11090   */\n    tag_38:\n        /* \"#utility.yul\":9635:9639   */\n      0x00\n        /* \"#utility.yul\":9673:9676   */\n      0x0160\n        /* \"#utility.yul\":9662:9671   */\n      dup3\n        /* \"#utility.yul\":9658:9677   */\n      add\n        /* \"#utility.yul\":9650:9677   */\n      swap1\n      pop\n        /* \"#utility.yul\":9687:9758   */\n      tag_392\n        /* \"#utility.yul\":9755:9756   */\n      0x00\n        /* \"#utility.yul\":9744:9753   */\n      dup4\n        /* \"#utility.yul\":9740:9757   */\n      add\n        /* \"#utility.yul\":9731:9737   */\n      dup15\n        /* \"#utility.yul\":9687:9758   */\n      tag_251\n      jump\t// in\n    tag_392:\n        /* \"#utility.yul\":9805:9814   */\n      dup2\n        /* \"#utility.yul\":9799:9803   */\n      dup2\n        /* \"#utility.yul\":9795:9815   */\n      sub\n        /* \"#utility.yul\":9790:9792   */\n      0x20\n        /* \"#utility.yul\":9779:9788   */\n      dup4\n        /* \"#utility.yul\":9775:9793   */\n      add\n        /* \"#utility.yul\":9768:9816   */\n      mstore\n        /* \"#utility.yul\":9833:9911   */\n      tag_393\n        /* \"#utility.yul\":9906:9910   */\n      dup2\n        /* \"#utility.yul\":9897:9903   */\n      dup14\n        /* \"#utility.yul\":9833:9911   */\n      tag_255\n      jump\t// in\n    tag_393:\n        /* \"#utility.yul\":9825:9911   */\n      swap1\n      pop\n        /* \"#utility.yul\":9958:9967   */\n      dup2\n        /* \"#utility.yul\":9952:9956   */\n      dup2\n        /* \"#utility.yul\":9948:9968   */\n      sub\n        /* \"#utility.yul\":9943:9945   */\n      0x40\n        /* \"#utility.yul\":9932:9941   */\n      dup4\n        /* \"#utility.yul\":9928:9946   */\n      add\n        /* \"#utility.yul\":9921:9969   */\n      mstore\n        /* \"#utility.yul\":9986:10064   */\n      tag_394\n        /* \"#utility.yul\":10059:10063   */\n      dup2\n        /* \"#utility.yul\":10050:10056   */\n      dup13\n        /* \"#utility.yul\":9986:10064   */\n      tag_255\n      jump\t// in\n    tag_394:\n        /* \"#utility.yul\":9978:10064   */\n      swap1\n      pop\n        /* \"#utility.yul\":10111:10120   */\n      dup2\n        /* \"#utility.yul\":10105:10109   */\n      dup2\n        /* \"#utility.yul\":10101:10121   */\n      sub\n        /* \"#utility.yul\":10096:10098   */\n      0x60\n        /* \"#utility.yul\":10085:10094   */\n      dup4\n        /* \"#utility.yul\":10081:10099   */\n      add\n        /* \"#utility.yul\":10074:10122   */\n      mstore\n        /* \"#utility.yul\":10139:10217   */\n      tag_395\n        /* \"#utility.yul\":10212:10216   */\n      dup2\n        /* \"#utility.yul\":10203:10209   */\n      dup12\n        /* \"#utility.yul\":10139:10217   */\n      tag_255\n      jump\t// in\n    tag_395:\n        /* \"#utility.yul\":10131:10217   */\n      swap1\n      pop\n        /* \"#utility.yul\":10265:10274   */\n      dup2\n        /* \"#utility.yul\":10259:10263   */\n      dup2\n        /* \"#utility.yul\":10255:10275   */\n      sub\n        /* \"#utility.yul\":10249:10252   */\n      0x80\n        /* \"#utility.yul\":10238:10247   */\n      dup4\n        /* \"#utility.yul\":10234:10253   */\n      add\n        /* \"#utility.yul\":10227:10276   */\n      mstore\n        /* \"#utility.yul\":10293:10371   */\n      tag_396\n        /* \"#utility.yul\":10366:10370   */\n      dup2\n        /* \"#utility.yul\":10357:10363   */\n      dup11\n        /* \"#utility.yul\":10293:10371   */\n      tag_255\n      jump\t// in\n    tag_396:\n        /* \"#utility.yul\":10285:10371   */\n      swap1\n      pop\n        /* \"#utility.yul\":10381:10454   */\n      tag_397\n        /* \"#utility.yul\":10449:10452   */\n      0xa0\n        /* \"#utility.yul\":10438:10447   */\n      dup4\n        /* \"#utility.yul\":10434:10453   */\n      add\n        /* \"#utility.yul\":10425:10431   */\n      dup10\n        /* \"#utility.yul\":10381:10454   */\n      tag_251\n      jump\t// in\n    tag_397:\n        /* \"#utility.yul\":10502:10511   */\n      dup2\n        /* \"#utility.yul\":10496:10500   */\n      dup2\n        /* \"#utility.yul\":10492:10512   */\n      sub\n        /* \"#utility.yul\":10486:10489   */\n      0xc0\n        /* \"#utility.yul\":10475:10484   */\n      dup4\n        /* \"#utility.yul\":10471:10490   */\n      add\n        /* \"#utility.yul\":10464:10513   */\n      mstore\n        /* \"#utility.yul\":10530:10608   */\n      tag_398\n        /* \"#utility.yul\":10603:10607   */\n      dup2\n        /* \"#utility.yul\":10594:10600   */\n      dup9\n        /* \"#utility.yul\":10530:10608   */\n      tag_255\n      jump\t// in\n    tag_398:\n        /* \"#utility.yul\":10522:10608   */\n      swap1\n      pop\n        /* \"#utility.yul\":10656:10665   */\n      dup2\n        /* \"#utility.yul\":10650:10654   */\n      dup2\n        /* \"#utility.yul\":10646:10666   */\n      sub\n        /* \"#utility.yul\":10640:10643   */\n      0xe0\n        /* \"#utility.yul\":10629:10638   */\n      dup4\n        /* \"#utility.yul\":10625:10644   */\n      add\n        /* \"#utility.yul\":10618:10667   */\n      mstore\n        /* \"#utility.yul\":10684:10762   */\n      tag_399\n        /* \"#utility.yul\":10757:10761   */\n      dup2\n        /* \"#utility.yul\":10748:10754   */\n      dup8\n        /* \"#utility.yul\":10684:10762   */\n      tag_255\n      jump\t// in\n    tag_399:\n        /* \"#utility.yul\":10676:10762   */\n      swap1\n      pop\n        /* \"#utility.yul\":10810:10819   */\n      dup2\n        /* \"#utility.yul\":10804:10808   */\n      dup2\n        /* \"#utility.yul\":10800:10820   */\n      sub\n        /* \"#utility.yul\":10794:10797   */\n      0x0100\n        /* \"#utility.yul\":10783:10792   */\n      dup4\n        /* \"#utility.yul\":10779:10798   */\n      add\n        /* \"#utility.yul\":10772:10821   */\n      mstore\n        /* \"#utility.yul\":10838:10916   */\n      tag_400\n        /* \"#utility.yul\":10911:10915   */\n      dup2\n        /* \"#utility.yul\":10902:10908   */\n      dup7\n        /* \"#utility.yul\":10838:10916   */\n      tag_255\n      jump\t// in\n    tag_400:\n        /* \"#utility.yul\":10830:10916   */\n      swap1\n      pop\n        /* \"#utility.yul\":10926:10999   */\n      tag_401\n        /* \"#utility.yul\":10994:10997   */\n      0x0120\n        /* \"#utility.yul\":10983:10992   */\n      dup4\n        /* \"#utility.yul\":10979:10998   */\n      add\n        /* \"#utility.yul\":10970:10976   */\n      dup6\n        /* \"#utility.yul\":10926:10999   */\n      tag_251\n      jump\t// in\n    tag_401:\n        /* \"#utility.yul\":11009:11083   */\n      tag_402\n        /* \"#utility.yul\":11078:11081   */\n      0x0140\n        /* \"#utility.yul\":11067:11076   */\n      dup4\n        /* \"#utility.yul\":11063:11082   */\n      add\n        /* \"#utility.yul\":11053:11060   */\n      dup5\n        /* \"#utility.yul\":11009:11083   */\n      tag_258\n      jump\t// in\n    tag_402:\n        /* \"#utility.yul\":9121:11090   */\n      swap13\n      swap12\n      pop\n      pop\n      pop\n      pop\n      pop\n      pop\n      pop\n      pop\n      pop\n      pop\n      pop\n      pop\n      jump\t// out\n        /* \"#utility.yul\":11096:11186   */\n    tag_259:\n        /* \"#utility.yul\":11130:11137   */\n      0x00\n        /* \"#utility.yul\":11173:11178   */\n      dup2\n        /* \"#utility.yul\":11166:11179   */\n      iszero\n        /* \"#utility.yul\":11159:11180   */\n      iszero\n        /* \"#utility.yul\":11148:11180   */\n      swap1\n      pop\n        /* \"#utility.yul\":11096:11186   */\n      swap2\n      swap1\n      pop\n      jump\t// out\n        /* \"#utility.yul\":11192:11301   */\n    tag_260:\n        /* \"#utility.yul\":11273:11294   */\n      tag_405\n        /* \"#utility.yul\":11288:11293   */\n      dup2\n        /* \"#utility.yul\":11273:11294   */\n      tag_259\n      jump\t// in\n    tag_405:\n        /* \"#utility.yul\":11268:11271   */\n      dup3\n        /* \"#utility.yul\":11261:11295   */\n      mstore\n        /* \"#utility.yul\":11192:11301   */\n      pop\n      pop\n      jump\t// out\n        /* \"#utility.yul\":11307:11718   */\n    tag_43:\n        /* \"#utility.yul\":11442:11446   */\n      0x00\n        /* \"#utility.yul\":11480:11482   */\n      0x40\n        /* \"#utility.yul\":11469:11478   */\n      dup3\n        /* \"#utility.yul\":11465:11483   */\n      add\n        /* \"#utility.yul\":11457:11483   */\n      swap1\n      pop\n        /* \"#utility.yul\":11493:11558   */\n      tag_407\n        /* \"#utility.yul\":11555:11556   */\n      0x00\n        /* \"#utility.yul\":11544:11553   */\n      dup4\n        /* \"#utility.yul\":11540:11557   */\n      add\n        /* \"#utility.yul\":11531:11537   */\n      dup6\n        /* \"#utility.yul\":11493:11558   */\n      tag_260\n      jump\t// in\n    tag_407:\n        /* \"#utility.yul\":11605:11614   */\n      dup2\n        /* \"#utility.yul\":11599:11603   */\n      dup2\n        /* \"#utility.yul\":11595:11615   */\n      sub\n        /* \"#utility.yul\":11590:11592   */\n      0x20\n        /* \"#utility.yul\":11579:11588   */\n      dup4\n        /* \"#utility.yul\":11575:11593   */\n      add\n        /* \"#utility.yul\":11568:11616   */\n      mstore\n        /* \"#utility.yul\":11633:11711   */\n      tag_408\n        /* \"#utility.yul\":11706:11710   */\n      dup2\n        /* \"#utility.yul\":11697:11703   */\n      dup5\n        /* \"#utility.yul\":11633:11711   */\n      tag_255\n      jump\t// in\n    tag_408:\n        /* \"#utility.yul\":11625:11711   */\n      swap1\n      pop\n        /* \"#utility.yul\":11307:11718   */\n      swap4\n      swap3\n      pop\n      pop\n      pop\n      jump\t// out\n        /* \"#utility.yul\":11724:12198   */\n    tag_46:\n        /* \"#utility.yul\":11792:11798   */\n      0x00\n        /* \"#utility.yul\":11800:11806   */\n      dup1\n        /* \"#utility.yul\":11849:11851   */\n      0x40\n        /* \"#utility.yul\":11837:11846   */\n      dup4\n        /* \"#utility.yul\":11828:11835   */\n      dup6\n        /* \"#utility.yul\":11824:11847   */\n      sub\n        /* \"#utility.yul\":11820:11852   */\n      slt\n        /* \"#utility.yul\":11817:11936   */\n      iszero\n      tag_410\n      jumpi\n        /* \"#utility.yul\":11855:11934   */\n      tag_411\n      tag_236\n      jump\t// in\n    tag_411:\n        /* \"#utility.yul\":11817:11936   */\n    tag_410:\n        /* \"#utility.yul\":11975:11976   */\n      0x00\n        /* \"#utility.yul\":12000:12053   */\n      tag_412\n        /* \"#utility.yul\":12045:12052   */\n      dup6\n        /* \"#utility.yul\":12036:12042   */\n      dup3\n        /* \"#utility.yul\":12025:12034   */\n      dup7\n        /* \"#utility.yul\":12021:12043   */\n      add\n        /* \"#utility.yul\":12000:12053   */\n      tag_240\n      jump\t// in\n    tag_412:\n        /* \"#utility.yul\":11990:12053   */\n      swap3\n      pop\n        /* \"#utility.yul\":11946:12063   */\n      pop\n        /* \"#utility.yul\":12102:12104   */\n      0x20\n        /* \"#utility.yul\":12128:12181   */\n      tag_413\n        /* \"#utility.yul\":12173:12180   */\n      dup6\n        /* \"#utility.yul\":12164:12170   */\n      dup3\n        /* \"#utility.yul\":12153:12162   */\n      dup7\n        /* \"#utility.yul\":12149:12171   */\n      add\n        /* \"#utility.yul\":12128:12181   */\n      tag_240\n      jump\t// in\n    tag_413:\n        /* \"#utility.yul\":12118:12181   */\n      swap2\n      pop\n        /* \"#utility.yul\":12073:12191   */\n      pop\n        /* \"#utility.yul\":11724:12198   */\n      swap3\n      pop\n      swap3\n      swap1\n      pop\n      jump\t// out\n        /* \"#utility.yul\":12204:14813   */\n    tag_50:\n        /* \"#utility.yul\":12396:12402   */\n      0x00\n        /* \"#utility.yul\":12404:12410   */\n      dup1\n        /* \"#utility.yul\":12412:12418   */\n      0x00\n        /* \"#utility.yul\":12420:12426   */\n      dup1\n        /* \"#utility.yul\":12428:12434   */\n      0x00\n        /* \"#utility.yul\":12436:12442   */\n      dup1\n        /* \"#utility.yul\":12444:12450   */\n      0x00\n        /* \"#utility.yul\":12452:12458   */\n      dup1\n        /* \"#utility.yul\":12501:12504   */\n      0x0100\n        /* \"#utility.yul\":12489:12498   */\n      dup10\n        /* \"#utility.yul\":12480:12487   */\n      dup12\n        /* \"#utility.yul\":12476:12499   */\n      sub\n        /* \"#utility.yul\":12472:12505   */\n      slt\n        /* \"#utility.yul\":12469:12589   */\n      iszero\n      tag_415\n      jumpi\n        /* \"#utility.yul\":12508:12587   */\n      tag_416\n      tag_236\n      jump\t// in\n    tag_416:\n        /* \"#utility.yul\":12469:12589   */\n    tag_415:\n        /* \"#utility.yul\":12656:12657   */\n      0x00\n        /* \"#utility.yul\":12645:12654   */\n      dup10\n        /* \"#utility.yul\":12641:12658   */\n      add\n        /* \"#utility.yul\":12628:12659   */\n      calldataload\n        /* \"#utility.yul\":12686:12704   */\n      0xffffffffffffffff\n        /* \"#utility.yul\":12678:12684   */\n      dup2\n        /* \"#utility.yul\":12675:12705   */\n      gt\n        /* \"#utility.yul\":12672:12789   */\n      iszero\n      tag_417\n      jumpi\n        /* \"#utility.yul\":12708:12787   */\n      tag_418\n      tag_237\n      jump\t// in\n    tag_418:\n        /* \"#utility.yul\":12672:12789   */\n    tag_417:\n        /* \"#utility.yul\":12813:12876   */\n      tag_419\n        /* \"#utility.yul\":12868:12875   */\n      dup12\n        /* \"#utility.yul\":12859:12865   */\n      dup3\n        /* \"#utility.yul\":12848:12857   */\n      dup13\n        /* \"#utility.yul\":12844:12866   */\n      add\n        /* \"#utility.yul\":12813:12876   */\n      tag_250\n      jump\t// in\n    tag_419:\n        /* \"#utility.yul\":12803:12876   */\n      swap9\n      pop\n        /* \"#utility.yul\":12599:12886   */\n      pop\n        /* \"#utility.yul\":12953:12955   */\n      0x20\n        /* \"#utility.yul\":12942:12951   */\n      dup10\n        /* \"#utility.yul\":12938:12956   */\n      add\n        /* \"#utility.yul\":12925:12957   */\n      calldataload\n        /* \"#utility.yul\":12984:13002   */\n      0xffffffffffffffff\n        /* \"#utility.yul\":12976:12982   */\n      dup2\n        /* \"#utility.yul\":12973:13003   */\n      gt\n        /* \"#utility.yul\":12970:13087   */\n      iszero\n      tag_420\n      jumpi\n        /* \"#utility.yul\":13006:13085   */\n      tag_421\n      tag_237\n      jump\t// in\n    tag_421:\n        /* \"#utility.yul\":12970:13087   */\n    tag_420:\n        /* \"#utility.yul\":13111:13174   */\n      tag_422\n        /* \"#utility.yul\":13166:13173   */\n      dup12\n        /* \"#utility.yul\":13157:13163   */\n      dup3\n        /* \"#utility.yul\":13146:13155   */\n      dup13\n        /* \"#utility.yul\":13142:13164   */\n      add\n        /* \"#utility.yul\":13111:13174   */\n      tag_250\n      jump\t// in\n    tag_422:\n        /* \"#utility.yul\":13101:13174   */\n      swap8\n      pop\n        /* \"#utility.yul\":12896:13184   */\n      pop\n        /* \"#utility.yul\":13251:13253   */\n      0x40\n        /* \"#utility.yul\":13240:13249   */\n      dup10\n        /* \"#utility.yul\":13236:13254   */\n      add\n        /* \"#utility.yul\":13223:13255   */\n      calldataload\n        /* \"#utility.yul\":13282:13300   */\n      0xffffffffffffffff\n        /* \"#utility.yul\":13274:13280   */\n      dup2\n        /* \"#utility.yul\":13271:13301   */\n      gt\n        /* \"#utility.yul\":13268:13385   */\n      iszero\n      tag_423\n      jumpi\n        /* \"#utility.yul\":13304:13383   */\n      tag_424\n      tag_237\n      jump\t// in\n    tag_424:\n        /* \"#utility.yul\":13268:13385   */\n    tag_423:\n        /* \"#utility.yul\":13409:13472   */\n      tag_425\n        /* \"#utility.yul\":13464:13471   */\n      dup12\n        /* \"#utility.yul\":13455:13461   */\n      dup3\n        /* \"#utility.yul\":13444:13453   */\n      dup13\n        /* \"#utility.yul\":13440:13462   */\n      add\n        /* \"#utility.yul\":13409:13472   */\n      tag_250\n      jump\t// in\n    tag_425:\n        /* \"#utility.yul\":13399:13472   */\n      swap7\n      pop\n        /* \"#utility.yul\":13194:13482   */\n      pop\n        /* \"#utility.yul\":13549:13551   */\n      0x60\n        /* \"#utility.yul\":13538:13547   */\n      dup10\n        /* \"#utility.yul\":13534:13552   */\n      add\n        /* \"#utility.yul\":13521:13553   */\n      calldataload\n        /* \"#utility.yul\":13580:13598   */\n      0xffffffffffffffff\n        /* \"#utility.yul\":13572:13578   */\n      dup2\n        /* \"#utility.yul\":13569:13599   */\n      gt\n        /* \"#utility.yul\":13566:13683   */\n      iszero\n      tag_426\n      jumpi\n        /* \"#utility.yul\":13602:13681   */\n      tag_427\n      tag_237\n      jump\t// in\n    tag_427:\n        /* \"#utility.yul\":13566:13683   */\n    tag_426:\n        /* \"#utility.yul\":13707:13770   */\n      tag_428\n        /* \"#utility.yul\":13762:13769   */\n      dup12\n        /* \"#utility.yul\":13753:13759   */\n      dup3\n        /* \"#utility.yul\":13742:13751   */\n      dup13\n        /* \"#utility.yul\":13738:13760   */\n      add\n        /* \"#utility.yul\":13707:13770   */\n      tag_250\n      jump\t// in\n    tag_428:\n        /* \"#utility.yul\":13697:13770   */\n      swap6\n      pop\n        /* \"#utility.yul\":13492:13780   */\n      pop\n        /* \"#utility.yul\":13819:13822   */\n      0x80\n        /* \"#utility.yul\":13846:13899   */\n      tag_429\n        /* \"#utility.yul\":13891:13898   */\n      dup12\n        /* \"#utility.yul\":13882:13888   */\n      dup3\n        /* \"#utility.yul\":13871:13880   */\n      dup13\n        /* \"#utility.yul\":13867:13889   */\n      add\n        /* \"#utility.yul\":13846:13899   */\n      tag_240\n      jump\t// in\n    tag_429:\n        /* \"#utility.yul\":13836:13899   */\n      swap5\n      pop\n        /* \"#utility.yul\":13790:13909   */\n      pop\n        /* \"#utility.yul\":13976:13979   */\n      0xa0\n        /* \"#utility.yul\":13965:13974   */\n      dup10\n        /* \"#utility.yul\":13961:13980   */\n      add\n        /* \"#utility.yul\":13948:13981   */\n      calldataload\n        /* \"#utility.yul\":14008:14026   */\n      0xffffffffffffffff\n        /* \"#utility.yul\":14000:14006   */\n      dup2\n        /* \"#utility.yul\":13997:14027   */\n      gt\n        /* \"#utility.yul\":13994:14111   */\n      iszero\n      tag_430\n      jumpi\n        /* \"#utility.yul\":14030:14109   */\n      tag_431\n      tag_237\n      jump\t// in\n    tag_431:\n        /* \"#utility.yul\":13994:14111   */\n    tag_430:\n        /* \"#utility.yul\":14135:14198   */\n      tag_432\n        /* \"#utility.yul\":14190:14197   */\n      dup12\n        /* \"#utility.yul\":14181:14187   */\n      dup3\n        /* \"#utility.yul\":14170:14179   */\n      dup13\n        /* \"#utility.yul\":14166:14188   */\n      add\n        /* \"#utility.yul\":14135:14198   */\n      tag_250\n      jump\t// in\n    tag_432:\n        /* \"#utility.yul\":14125:14198   */\n      swap4\n      pop\n        /* \"#utility.yul\":13919:14208   */\n      pop\n        /* \"#utility.yul\":14275:14278   */\n      0xc0\n        /* \"#utility.yul\":14264:14273   */\n      dup10\n        /* \"#utility.yul\":14260:14279   */\n      add\n        /* \"#utility.yul\":14247:14280   */\n      calldataload\n        /* \"#utility.yul\":14307:14325   */\n      0xffffffffffffffff\n        /* \"#utility.yul\":14299:14305   */\n      dup2\n        /* \"#utility.yul\":14296:14326   */\n      gt\n        /* \"#utility.yul\":14293:14410   */\n      iszero\n      tag_433\n      jumpi\n        /* \"#utility.yul\":14329:14408   */\n      tag_434\n      tag_237\n      jump\t// in\n    tag_434:\n        /* \"#utility.yul\":14293:14410   */\n    tag_433:\n        /* \"#utility.yul\":14434:14497   */\n      tag_435\n        /* \"#utility.yul\":14489:14496   */\n      dup12\n        /* \"#utility.yul\":14480:14486   */\n      dup3\n        /* \"#utility.yul\":14469:14478   */\n      dup13\n        /* \"#utility.yul\":14465:14487   */\n      add\n        /* \"#utility.yul\":14434:14497   */\n      tag_250\n      jump\t// in\n    tag_435:\n        /* \"#utility.yul\":14424:14497   */\n      swap3\n      pop\n        /* \"#utility.yul\":14218:14507   */\n      pop\n        /* \"#utility.yul\":14574:14577   */\n      0xe0\n        /* \"#utility.yul\":14563:14572   */\n      dup10\n        /* \"#utility.yul\":14559:14578   */\n      add\n        /* \"#utility.yul\":14546:14579   */\n      calldataload\n        /* \"#utility.yul\":14606:14624   */\n      0xffffffffffffffff\n        /* \"#utility.yul\":14598:14604   */\n      dup2\n        /* \"#utility.yul\":14595:14625   */\n      gt\n        /* \"#utility.yul\":14592:14709   */\n      iszero\n      tag_436\n      jumpi\n        /* \"#utility.yul\":14628:14707   */\n      tag_437\n      tag_237\n      jump\t// in\n    tag_437:\n        /* \"#utility.yul\":14592:14709   */\n    tag_436:\n        /* \"#utility.yul\":14733:14796   */\n      tag_438\n        /* \"#utility.yul\":14788:14795   */\n      dup12\n        /* \"#utility.yul\":14779:14785   */\n      dup3\n        /* \"#utility.yul\":14768:14777   */\n      dup13\n        /* \"#utility.yul\":14764:14786   */\n      add\n        /* \"#utility.yul\":14733:14796   */\n      tag_250\n      jump\t// in\n    tag_438:\n        /* \"#utility.yul\":14723:14796   */\n      swap2\n      pop\n        /* \"#utility.yul\":14517:14806   */\n      pop\n        /* \"#utility.yul\":12204:14813   */\n      swap3\n      swap6\n      swap9\n      pop\n      swap3\n      swap6\n      swap9\n      swap1\n      swap4\n      swap7\n      pop\n      jump\t// out\n        /* \"#utility.yul\":14819:16271   */\n    tag_56:\n        /* \"#utility.yul\":15208:15212   */\n      0x00\n        /* \"#utility.yul\":15246:15249   */\n      0x0100\n        /* \"#utility.yul\":15235:15244   */\n      dup3\n        /* \"#utility.yul\":15231:15250   */\n      add\n        /* \"#utility.yul\":15223:15250   */\n      swap1\n      pop\n        /* \"#utility.yul\":15260:15331   */\n      tag_440\n        /* \"#utility.yul\":15328:15329   */\n      0x00\n        /* \"#utility.yul\":15317:15326   */\n      dup4\n        /* \"#utility.yul\":15313:15330   */\n      add\n        /* \"#utility.yul\":15304:15310   */\n      dup12\n        /* \"#utility.yul\":15260:15331   */\n      tag_251\n      jump\t// in\n    tag_440:\n        /* \"#utility.yul\":15341:15413   */\n      tag_441\n        /* \"#utility.yul\":15409:15411   */\n      0x20\n        /* \"#utility.yul\":15398:15407   */\n      dup4\n        /* \"#utility.yul\":15394:15412   */\n      add\n        /* \"#utility.yul\":15385:15391   */\n      dup11\n        /* \"#utility.yul\":15341:15413   */\n      tag_251\n      jump\t// in\n    tag_441:\n        /* \"#utility.yul\":15423:15495   */\n      tag_442\n        /* \"#utility.yul\":15491:15493   */\n      0x40\n        /* \"#utility.yul\":15480:15489   */\n      dup4\n        /* \"#utility.yul\":15476:15494   */\n      add\n        /* \"#utility.yul\":15467:15473   */\n      dup10\n        /* \"#utility.yul\":15423:15495   */\n      tag_251\n      jump\t// in\n    tag_442:\n        /* \"#utility.yul\":15542:15551   */\n      dup2\n        /* \"#utility.yul\":15536:15540   */\n      dup2\n        /* \"#utility.yul\":15532:15552   */\n      sub\n        /* \"#utility.yul\":15527:15529   */\n      0x60\n        /* \"#utility.yul\":15516:15525   */\n      dup4\n        /* \"#utility.yul\":15512:15530   */\n      add\n        /* \"#utility.yul\":15505:15553   */\n      mstore\n        /* \"#utility.yul\":15570:15648   */\n      tag_443\n        /* \"#utility.yul\":15643:15647   */\n      dup2\n        /* \"#utility.yul\":15634:15640   */\n      dup9\n        /* \"#utility.yul\":15570:15648   */\n      tag_255\n      jump\t// in\n    tag_443:\n        /* \"#utility.yul\":15562:15648   */\n      swap1\n      pop\n        /* \"#utility.yul\":15696:15705   */\n      dup2\n        /* \"#utility.yul\":15690:15694   */\n      dup2\n        /* \"#utility.yul\":15686:15706   */\n      sub\n        /* \"#utility.yul\":15680:15683   */\n      0x80\n        /* \"#utility.yul\":15669:15678   */\n      dup4\n        /* \"#utility.yul\":15665:15684   */\n      add\n        /* \"#utility.yul\":15658:15707   */\n      mstore\n        /* \"#utility.yul\":15724:15802   */\n      tag_444\n        /* \"#utility.yul\":15797:15801   */\n      dup2\n        /* \"#utility.yul\":15788:15794   */\n      dup8\n        /* \"#utility.yul\":15724:15802   */\n      tag_255\n      jump\t// in\n    tag_444:\n        /* \"#utility.yul\":15716:15802   */\n      swap1\n      pop\n        /* \"#utility.yul\":15850:15859   */\n      dup2\n        /* \"#utility.yul\":15844:15848   */\n      dup2\n        /* \"#utility.yul\":15840:15860   */\n      sub\n        /* \"#utility.yul\":15834:15837   */\n      0xa0\n        /* \"#utility.yul\":15823:15832   */\n      dup4\n        /* \"#utility.yul\":15819:15838   */\n      add\n        /* \"#utility.yul\":15812:15861   */\n      mstore\n        /* \"#utility.yul\":15878:15956   */\n      tag_445\n        /* \"#utility.yul\":15951:15955   */\n      dup2\n        /* \"#utility.yul\":15942:15948   */\n      dup7\n        /* \"#utility.yul\":15878:15956   */\n      tag_255\n      jump\t// in\n    tag_445:\n        /* \"#utility.yul\":15870:15956   */\n      swap1\n      pop\n        /* \"#utility.yul\":16004:16013   */\n      dup2\n        /* \"#utility.yul\":15998:16002   */\n      dup2\n        /* \"#utility.yul\":15994:16014   */\n      sub\n        /* \"#utility.yul\":15988:15991   */\n      0xc0\n        /* \"#utility.yul\":15977:15986   */\n      dup4\n        /* \"#utility.yul\":15973:15992   */\n      add\n        /* \"#utility.yul\":15966:16015   */\n      mstore\n        /* \"#utility.yul\":16032:16110   */\n      tag_446\n        /* \"#utility.yul\":16105:16109   */\n      dup2\n        /* \"#utility.yul\":16096:16102   */\n      dup6\n        /* \"#utility.yul\":16032:16110   */\n      tag_255\n      jump\t// in\n    tag_446:\n        /* \"#utility.yul\":16024:16110   */\n      swap1\n      pop\n        /* \"#utility.yul\":16158:16167   */\n      dup2\n        /* \"#utility.yul\":16152:16156   */\n      dup2\n        /* \"#utility.yul\":16148:16168   */\n      sub\n        /* \"#utility.yul\":16142:16145   */\n      0xe0\n        /* \"#utility.yul\":16131:16140   */\n      dup4\n        /* \"#utility.yul\":16127:16146   */\n      add\n        /* \"#utility.yul\":16120:16169   */\n      mstore\n        /* \"#utility.yul\":16186:16264   */\n      tag_447\n        /* \"#utility.yul\":16259:16263   */\n      dup2\n        /* \"#utility.yul\":16250:16256   */\n      dup5\n        /* \"#utility.yul\":16186:16264   */\n      tag_255\n      jump\t// in\n    tag_447:\n        /* \"#utility.yul\":16178:16264   */\n      swap1\n      pop\n        /* \"#utility.yul\":14819:16271   */\n      swap10\n      swap9\n      pop\n      pop\n      pop\n      pop\n      pop\n      pop\n      pop\n      pop\n      pop\n      jump\t// out\n        /* \"#utility.yul\":16277:16399   */\n    tag_261:\n        /* \"#utility.yul\":16350:16374   */\n      tag_449\n        /* \"#utility.yul\":16368:16373   */\n      dup2\n        /* \"#utility.yul\":16350:16374   */\n      tag_257\n      jump\t// in\n    tag_449:\n        /* \"#utility.yul\":16343:16348   */\n      dup2\n        /* \"#utility.yul\":16340:16375   */\n      eq\n        /* \"#utility.yul\":16330:16393   */\n      tag_450\n      jumpi\n        /* \"#utility.yul\":16389:16390   */\n      0x00\n        /* \"#utility.yul\":16386:16387   */\n      dup1\n        /* \"#utility.yul\":16379:16391   */\n      revert\n        /* \"#utility.yul\":16330:16393   */\n    tag_450:\n        /* \"#utility.yul\":16277:16399   */\n      pop\n      jump\t// out\n        /* \"#utility.yul\":16405:16544   */\n    tag_262:\n        /* \"#utility.yul\":16451:16456   */\n      0x00\n        /* \"#utility.yul\":16489:16495   */\n      dup2\n        /* \"#utility.yul\":16476:16496   */\n      calldataload\n        /* \"#utility.yul\":16467:16496   */\n      swap1\n      pop\n        /* \"#utility.yul\":16505:16538   */\n      tag_452\n        /* \"#utility.yul\":16532:16537   */\n      dup2\n        /* \"#utility.yul\":16505:16538   */\n      tag_261\n      jump\t// in\n    tag_452:\n        /* \"#utility.yul\":16405:16544   */\n      swap3\n      swap2\n      pop\n      pop\n      jump\t// out\n        /* \"#utility.yul\":16550:16879   */\n    tag_59:\n        /* \"#utility.yul\":16609:16615   */\n      0x00\n        /* \"#utility.yul\":16658:16660   */\n      0x20\n        /* \"#utility.yul\":16646:16655   */\n      dup3\n        /* \"#utility.yul\":16637:16644   */\n      dup5\n        /* \"#utility.yul\":16633:16656   */\n      sub\n        /* \"#utility.yul\":16629:16661   */\n      slt\n        /* \"#utility.yul\":16626:16745   */\n      iszero\n      tag_454\n      jumpi\n        /* \"#utility.yul\":16664:16743   */\n      tag_455\n      tag_236\n      jump\t// in\n    tag_455:\n        /* \"#utility.yul\":16626:16745   */\n    tag_454:\n        /* \"#utility.yul\":16784:16785   */\n      0x00\n        /* \"#utility.yul\":16809:16862   */\n      tag_456\n        /* \"#utility.yul\":16854:16861   */\n      dup5\n        /* \"#utility.yul\":16845:16851   */\n      dup3\n        /* \"#utility.yul\":16834:16843   */\n      dup6\n        /* \"#utility.yul\":16830:16852   */\n      add\n        /* \"#utility.yul\":16809:16862   */\n      tag_262\n      jump\t// in\n    tag_456:\n        /* \"#utility.yul\":16799:16862   */\n      swap2\n      pop\n        /* \"#utility.yul\":16755:16872   */\n      pop\n        /* \"#utility.yul\":16550:16879   */\n      swap3\n      swap2\n      pop\n      pop\n      jump\t// out\n        /* \"#utility.yul\":16885:18135   */\n    tag_62:\n        /* \"#utility.yul\":17226:17230   */\n      0x00\n        /* \"#utility.yul\":17264:17267   */\n      0xe0\n        /* \"#utility.yul\":17253:17262   */\n      dup3\n        /* \"#utility.yul\":17249:17268   */\n      add\n        /* \"#utility.yul\":17241:17268   */\n      swap1\n      pop\n        /* \"#utility.yul\":17278:17349   */\n      tag_458\n        /* \"#utility.yul\":17346:17347   */\n      0x00\n        /* \"#utility.yul\":17335:17344   */\n      dup4\n        /* \"#utility.yul\":17331:17348   */\n      add\n        /* \"#utility.yul\":17322:17328   */\n      dup11\n        /* \"#utility.yul\":17278:17349   */\n      tag_251\n      jump\t// in\n    tag_458:\n        /* \"#utility.yul\":17396:17405   */\n      dup2\n        /* \"#utility.yul\":17390:17394   */\n      dup2\n        /* \"#utility.yul\":17386:17406   */\n      sub\n        /* \"#utility.yul\":17381:17383   */\n      0x20\n        /* \"#utility.yul\":17370:17379   */\n      dup4\n        /* \"#utility.yul\":17366:17384   */\n      add\n        /* \"#utility.yul\":17359:17407   */\n      mstore\n        /* \"#utility.yul\":17424:17502   */\n      tag_459\n        /* \"#utility.yul\":17497:17501   */\n      dup2\n        /* \"#utility.yul\":17488:17494   */\n      dup10\n        /* \"#utility.yul\":17424:17502   */\n      tag_255\n      jump\t// in\n    tag_459:\n        /* \"#utility.yul\":17416:17502   */\n      swap1\n      pop\n        /* \"#utility.yul\":17549:17558   */\n      dup2\n        /* \"#utility.yul\":17543:17547   */\n      dup2\n        /* \"#utility.yul\":17539:17559   */\n      sub\n        /* \"#utility.yul\":17534:17536   */\n      0x40\n        /* \"#utility.yul\":17523:17532   */\n      dup4\n        /* \"#utility.yul\":17519:17537   */\n      add\n        /* \"#utility.yul\":17512:17560   */\n      mstore\n        /* \"#utility.yul\":17577:17655   */\n      tag_460\n        /* \"#utility.yul\":17650:17654   */\n      dup2\n        /* \"#utility.yul\":17641:17647   */\n      dup9\n        /* \"#utility.yul\":17577:17655   */\n      tag_255\n      jump\t// in\n    tag_460:\n        /* \"#utility.yul\":17569:17655   */\n      swap1\n      pop\n        /* \"#utility.yul\":17702:17711   */\n      dup2\n        /* \"#utility.yul\":17696:17700   */\n      dup2\n        /* \"#utility.yul\":17692:17712   */\n      sub\n        /* \"#utility.yul\":17687:17689   */\n      0x60\n        /* \"#utility.yul\":17676:17685   */\n      dup4\n        /* \"#utility.yul\":17672:17690   */\n      add\n        /* \"#utility.yul\":17665:17713   */\n      mstore\n        /* \"#utility.yul\":17730:17808   */\n      tag_461\n        /* \"#utility.yul\":17803:17807   */\n      dup2\n        /* \"#utility.yul\":17794:17800   */\n      dup8\n        /* \"#utility.yul\":17730:17808   */\n      tag_255\n      jump\t// in\n    tag_461:\n        /* \"#utility.yul\":17722:17808   */\n      swap1\n      pop\n        /* \"#utility.yul\":17856:17865   */\n      dup2\n        /* \"#utility.yul\":17850:17854   */\n      dup2\n        /* \"#utility.yul\":17846:17866   */\n      sub\n        /* \"#utility.yul\":17840:17843   */\n      0x80\n        /* \"#utility.yul\":17829:17838   */\n      dup4\n        /* \"#utility.yul\":17825:17844   */\n      add\n        /* \"#utility.yul\":17818:17867   */\n      mstore\n        /* \"#utility.yul\":17884:17962   */\n      tag_462\n        /* \"#utility.yul\":17957:17961   */\n      dup2\n        /* \"#utility.yul\":17948:17954   */\n      dup7\n        /* \"#utility.yul\":17884:17962   */\n      tag_255\n      jump\t// in\n    tag_462:\n        /* \"#utility.yul\":17876:17962   */\n      swap1\n      pop\n        /* \"#utility.yul\":17972:18045   */\n      tag_463\n        /* \"#utility.yul\":18040:18043   */\n      0xa0\n        /* \"#utility.yul\":18029:18038   */\n      dup4\n        /* \"#utility.yul\":18025:18044   */\n      add\n        /* \"#utility.yul\":18016:18022   */\n      dup6\n        /* \"#utility.yul\":17972:18045   */\n      tag_251\n      jump\t// in\n    tag_463:\n        /* \"#utility.yul\":18055:18128   */\n      tag_464\n        /* \"#utility.yul\":18123:18126   */\n      0xc0\n        /* \"#utility.yul\":18112:18121   */\n      dup4\n        /* \"#utility.yul\":18108:18127   */\n      add\n        /* \"#utility.yul\":18099:18105   */\n      dup5\n        /* \"#utility.yul\":18055:18128   */\n      tag_258\n      jump\t// in\n    tag_464:\n        /* \"#utility.yul\":16885:18135   */\n      swap9\n      swap8\n      pop\n      pop\n      pop\n      pop\n      pop\n      pop\n      pop\n      pop\n      jump\t// out\n        /* \"#utility.yul\":18141:19772   */\n    tag_65:\n        /* \"#utility.yul\":18276:18282   */\n      0x00\n        /* \"#utility.yul\":18284:18290   */\n      dup1\n        /* \"#utility.yul\":18292:18298   */\n      0x00\n        /* \"#utility.yul\":18300:18306   */\n      dup1\n        /* \"#utility.yul\":18308:18314   */\n      0x00\n        /* \"#utility.yul\":18357:18360   */\n      0xa0\n        /* \"#utility.yul\":18345:18354   */\n      dup7\n        /* \"#utility.yul\":18336:18343   */\n      dup9\n        /* \"#utility.yul\":18332:18355   */\n      sub\n        /* \"#utility.yul\":18328:18361   */\n      slt\n        /* \"#utility.yul\":18325:18445   */\n      iszero\n      tag_466\n      jumpi\n        /* \"#utility.yul\":18364:18443   */\n      tag_467\n      tag_236\n      jump\t// in\n    tag_467:\n        /* \"#utility.yul\":18325:18445   */\n    tag_466:\n        /* \"#utility.yul\":18484:18485   */\n      0x00\n        /* \"#utility.yul\":18509:18562   */\n      tag_468\n        /* \"#utility.yul\":18554:18561   */\n      dup9\n        /* \"#utility.yul\":18545:18551   */\n      dup3\n        /* \"#utility.yul\":18534:18543   */\n      dup10\n        /* \"#utility.yul\":18530:18552   */\n      add\n        /* \"#utility.yul\":18509:18562   */\n      tag_240\n      jump\t// in\n    tag_468:\n        /* \"#utility.yul\":18499:18562   */\n      swap6\n      pop\n        /* \"#utility.yul\":18455:18572   */\n      pop\n        /* \"#utility.yul\":18639:18641   */\n      0x20\n        /* \"#utility.yul\":18628:18637   */\n      dup7\n        /* \"#utility.yul\":18624:18642   */\n      add\n        /* \"#utility.yul\":18611:18643   */\n      calldataload\n        /* \"#utility.yul\":18670:18688   */\n      0xffffffffffffffff\n        /* \"#utility.yul\":18662:18668   */\n      dup2\n        /* \"#utility.yul\":18659:18689   */\n      gt\n        /* \"#utility.yul\":18656:18773   */\n      iszero\n      tag_469\n      jumpi\n        /* \"#utility.yul\":18692:18771   */\n      tag_470\n      tag_237\n      jump\t// in\n    tag_470:\n        /* \"#utility.yul\":18656:18773   */\n    tag_469:\n        /* \"#utility.yul\":18797:18860   */\n      tag_471\n        /* \"#utility.yul\":18852:18859   */\n      dup9\n        /* \"#utility.yul\":18843:18849   */\n      dup3\n        /* \"#utility.yul\":18832:18841   */\n      dup10\n        /* \"#utility.yul\":18828:18850   */\n      add\n        /* \"#utility.yul\":18797:18860   */\n      tag_250\n      jump\t// in\n    tag_471:\n        /* \"#utility.yul\":18787:18860   */\n      swap5\n      pop\n        /* \"#utility.yul\":18582:18870   */\n      pop\n        /* \"#utility.yul\":18937:18939   */\n      0x40\n        /* \"#utility.yul\":18926:18935   */\n      dup7\n        /* \"#utility.yul\":18922:18940   */\n      add\n        /* \"#utility.yul\":18909:18941   */\n      calldataload\n        /* \"#utility.yul\":18968:18986   */\n      0xffffffffffffffff\n        /* \"#utility.yul\":18960:18966   */\n      dup2\n        /* \"#utility.yul\":18957:18987   */\n      gt\n        /* \"#utility.yul\":18954:19071   */\n      iszero\n      tag_472\n      jumpi\n        /* \"#utility.yul\":18990:19069   */\n      tag_473\n      tag_237\n      jump\t// in\n    tag_473:\n        /* \"#utility.yul\":18954:19071   */\n    tag_472:\n        /* \"#utility.yul\":19095:19158   */\n      tag_474\n        /* \"#utility.yul\":19150:19157   */\n      dup9\n        /* \"#utility.yul\":19141:19147   */\n      dup3\n        /* \"#utility.yul\":19130:19139   */\n      dup10\n        /* \"#utility.yul\":19126:19148   */\n      add\n        /* \"#utility.yul\":19095:19158   */\n      tag_250\n      jump\t// in\n    tag_474:\n        /* \"#utility.yul\":19085:19158   */\n      swap4\n      pop\n        /* \"#utility.yul\":18880:19168   */\n      pop\n        /* \"#utility.yul\":19235:19237   */\n      0x60\n        /* \"#utility.yul\":19224:19233   */\n      dup7\n        /* \"#utility.yul\":19220:19238   */\n      add\n        /* \"#utility.yul\":19207:19239   */\n      calldataload\n        /* \"#utility.yul\":19266:19284   */\n      0xffffffffffffffff\n        /* \"#utility.yul\":19258:19264   */\n      dup2\n        /* \"#utility.yul\":19255:19285   */\n      gt\n        /* \"#utility.yul\":19252:19369   */\n      iszero\n      tag_475\n      jumpi\n        /* \"#utility.yul\":19288:19367   */\n      tag_476\n      tag_237\n      jump\t// in\n    tag_476:\n        /* \"#utility.yul\":19252:19369   */\n    tag_475:\n        /* \"#utility.yul\":19393:19456   */\n      tag_477\n        /* \"#utility.yul\":19448:19455   */\n      dup9\n        /* \"#utility.yul\":19439:19445   */\n      dup3\n        /* \"#utility.yul\":19428:19437   */\n      dup10\n        /* \"#utility.yul\":19424:19446   */\n      add\n        /* \"#utility.yul\":19393:19456   */\n      tag_250\n      jump\t// in\n    tag_477:\n        /* \"#utility.yul\":19383:19456   */\n      swap3\n      pop\n        /* \"#utility.yul\":19178:19466   */\n      pop\n        /* \"#utility.yul\":19533:19536   */\n      0x80\n        /* \"#utility.yul\":19522:19531   */\n      dup7\n        /* \"#utility.yul\":19518:19537   */\n      add\n        /* \"#utility.yul\":19505:19538   */\n      calldataload\n        /* \"#utility.yul\":19565:19583   */\n      0xffffffffffffffff\n        /* \"#utility.yul\":19557:19563   */\n      dup2\n        /* \"#utility.yul\":19554:19584   */\n      gt\n        /* \"#utility.yul\":19551:19668   */\n      iszero\n      tag_478\n      jumpi\n        /* \"#utility.yul\":19587:19666   */\n      tag_479\n      tag_237\n      jump\t// in\n    tag_479:\n        /* \"#utility.yul\":19551:19668   */\n    tag_478:\n        /* \"#utility.yul\":19692:19755   */\n      tag_480\n        /* \"#utility.yul\":19747:19754   */\n      dup9\n        /* \"#utility.yul\":19738:19744   */\n      dup3\n        /* \"#utility.yul\":19727:19736   */\n      dup10\n        /* \"#utility.yul\":19723:19745   */\n      add\n        /* \"#utility.yul\":19692:19755   */\n      tag_250\n      jump\t// in\n    tag_480:\n        /* \"#utility.yul\":19682:19755   */\n      swap2\n      pop\n        /* \"#utility.yul\":19476:19765   */\n      pop\n        /* \"#utility.yul\":18141:19772   */\n      swap3\n      swap6\n      pop\n      swap3\n      swap6\n      swap1\n      swap4\n      pop\n      jump\t// out\n        /* \"#utility.yul\":19778:20000   */\n    tag_83:\n        /* \"#utility.yul\":19871:19875   */\n      0x00\n        /* \"#utility.yul\":19909:19911   */\n      0x20\n        /* \"#utility.yul\":19898:19907   */\n      dup3\n        /* \"#utility.yul\":19894:19912   */\n      add\n        /* \"#utility.yul\":19886:19912   */\n      swap1\n      pop\n        /* \"#utility.yul\":19922:19993   */\n      tag_482\n        /* \"#utility.yul\":19990:19991   */\n      0x00\n        /* \"#utility.yul\":19979:19988   */\n      dup4\n        /* \"#utility.yul\":19975:19992   */\n      add\n        /* \"#utility.yul\":19966:19972   */\n      dup5\n        /* \"#utility.yul\":19922:19993   */\n      tag_258\n      jump\t// in\n    tag_482:\n        /* \"#utility.yul\":19778:20000   */\n      swap3\n      swap2\n      pop\n      pop\n      jump\t// out\n        /* \"#utility.yul\":20006:20245   */\n    tag_263:\n        /* \"#utility.yul\":20146:20180   */\n      0x5365756c206c2761646d696e6973747261746575722070657574206566666563\n        /* \"#utility.yul\":20142:20143   */\n      0x00\n        /* \"#utility.yul\":20134:20140   */\n      dup3\n        /* \"#utility.yul\":20130:20144   */\n      add\n        /* \"#utility.yul\":20123:20181   */\n      mstore\n        /* \"#utility.yul\":20215:20237   */\n      0x74756572206365747465206f7065726174696f6e000000000000000000000000\n        /* \"#utility.yul\":20210:20212   */\n      0x20\n        /* \"#utility.yul\":20202:20208   */\n      dup3\n        /* \"#utility.yul\":20198:20213   */\n      add\n        /* \"#utility.yul\":20191:20238   */\n      mstore\n        /* \"#utility.yul\":20006:20245   */\n      pop\n      jump\t// out\n        /* \"#utility.yul\":20251:20617   */\n    tag_264:\n        /* \"#utility.yul\":20393:20396   */\n      0x00\n        /* \"#utility.yul\":20414:20481   */\n      tag_485\n        /* \"#utility.yul\":20478:20480   */\n      0x34\n        /* \"#utility.yul\":20473:20476   */\n      dup4\n        /* \"#utility.yul\":20414:20481   */\n      tag_253\n      jump\t// in\n    tag_485:\n        /* \"#utility.yul\":20407:20481   */\n      swap2\n      pop\n        /* \"#utility.yul\":20490:20583   */\n      tag_486\n        /* \"#utility.yul\":20579:20582   */\n      dup3\n        /* \"#utility.yul\":20490:20583   */\n      tag_263\n      jump\t// in\n    tag_486:\n        /* \"#utility.yul\":20608:20610   */\n      0x40\n        /* \"#utility.yul\":20603:20606   */\n      dup3\n        /* \"#utility.yul\":20599:20611   */\n      add\n        /* \"#utility.yul\":20592:20611   */\n      swap1\n      pop\n        /* \"#utility.yul\":20251:20617   */\n      swap2\n      swap1\n      pop\n      jump\t// out\n        /* \"#utility.yul\":20623:21042   */\n    tag_87:\n        /* \"#utility.yul\":20789:20793   */\n      0x00\n        /* \"#utility.yul\":20827:20829   */\n      0x20\n        /* \"#utility.yul\":20816:20825   */\n      dup3\n        /* \"#utility.yul\":20812:20830   */\n      add\n        /* \"#utility.yul\":20804:20830   */\n      swap1\n      pop\n        /* \"#utility.yul\":20876:20885   */\n      dup2\n        /* \"#utility.yul\":20870:20874   */\n      dup2\n        /* \"#utility.yul\":20866:20886   */\n      sub\n        /* \"#utility.yul\":20862:20863   */\n      0x00\n        /* \"#utility.yul\":20851:20860   */\n      dup4\n        /* \"#utility.yul\":20847:20864   */\n      add\n        /* \"#utility.yul\":20840:20887   */\n      mstore\n        /* \"#utility.yul\":20904:21035   */\n      tag_488\n        /* \"#utility.yul\":21030:21034   */\n      dup2\n        /* \"#utility.yul\":20904:21035   */\n      tag_264\n      jump\t// in\n    tag_488:\n        /* \"#utility.yul\":20896:21035   */\n      swap1\n      pop\n        /* \"#utility.yul\":20623:21042   */\n      swap2\n      swap1\n      pop\n      jump\t// out\n        /* \"#utility.yul\":21048:21344   */\n    tag_265:\n        /* \"#utility.yul\":21188:21222   */\n      0x5365756c206c27657461626c697373656d656e74207175692061206372656520\n        /* \"#utility.yul\":21184:21185   */\n      0x00\n        /* \"#utility.yul\":21176:21182   */\n      dup3\n        /* \"#utility.yul\":21172:21186   */\n      add\n        /* \"#utility.yul\":21165:21223   */\n      mstore\n        /* \"#utility.yul\":21257:21291   */\n      0x6c652070726f66696c2070657574206d65747472652061206a6f757220756e20\n        /* \"#utility.yul\":21252:21254   */\n      0x20\n        /* \"#utility.yul\":21244:21250   */\n      dup3\n        /* \"#utility.yul\":21240:21255   */\n      add\n        /* \"#utility.yul\":21233:21292   */\n      mstore\n        /* \"#utility.yul\":21326:21336   */\n      0x6574756469616e74000000000000000000000000000000000000000000000000\n        /* \"#utility.yul\":21321:21323   */\n      0x40\n        /* \"#utility.yul\":21313:21319   */\n      dup3\n        /* \"#utility.yul\":21309:21324   */\n      add\n        /* \"#utility.yul\":21302:21337   */\n      mstore\n        /* \"#utility.yul\":21048:21344   */\n      pop\n      jump\t// out\n        /* \"#utility.yul\":21350:21716   */\n    tag_266:\n        /* \"#utility.yul\":21492:21495   */\n      0x00\n        /* \"#utility.yul\":21513:21580   */\n      tag_491\n        /* \"#utility.yul\":21577:21579   */\n      0x48\n        /* \"#utility.yul\":21572:21575   */\n      dup4\n        /* \"#utility.yul\":21513:21580   */\n      tag_253\n      jump\t// in\n    tag_491:\n        /* \"#utility.yul\":21506:21580   */\n      swap2\n      pop\n        /* \"#utility.yul\":21589:21682   */\n      tag_492\n        /* \"#utility.yul\":21678:21681   */\n      dup3\n        /* \"#utility.yul\":21589:21682   */\n      tag_265\n      jump\t// in\n    tag_492:\n        /* \"#utility.yul\":21707:21709   */\n      0x60\n        /* \"#utility.yul\":21702:21705   */\n      dup3\n        /* \"#utility.yul\":21698:21710   */\n      add\n        /* \"#utility.yul\":21691:21710   */\n      swap1\n      pop\n        /* \"#utility.yul\":21350:21716   */\n      swap2\n      swap1\n      pop\n      jump\t// out\n        /* \"#utility.yul\":21722:22141   */\n    tag_91:\n        /* \"#utility.yul\":21888:21892   */\n      0x00\n        /* \"#utility.yul\":21926:21928   */\n      0x20\n        /* \"#utility.yul\":21915:21924   */\n      dup3\n        /* \"#utility.yul\":21911:21929   */\n      add\n        /* \"#utility.yul\":21903:21929   */\n      swap1\n      pop\n        /* \"#utility.yul\":21975:21984   */\n      dup2\n        /* \"#utility.yul\":21969:21973   */\n      dup2\n        /* \"#utility.yul\":21965:21985   */\n      sub\n        /* \"#utility.yul\":21961:21962   */\n      0x00\n        /* \"#utility.yul\":21950:21959   */\n      dup4\n        /* \"#utility.yul\":21946:21963   */\n      add\n        /* \"#utility.yul\":21939:21986   */\n      mstore\n        /* \"#utility.yul\":22003:22134   */\n      tag_494\n        /* \"#utility.yul\":22129:22133   */\n      dup2\n        /* \"#utility.yul\":22003:22134   */\n      tag_266\n      jump\t// in\n    tag_494:\n        /* \"#utility.yul\":21995:22134   */\n      swap1\n      pop\n        /* \"#utility.yul\":21722:22141   */\n      swap2\n      swap1\n      pop\n      jump\t// out\n        /* \"#utility.yul\":22147:22327   */\n    tag_267:\n        /* \"#utility.yul\":22195:22272   */\n      0x4e487b7100000000000000000000000000000000000000000000000000000000\n        /* \"#utility.yul\":22192:22193   */\n      0x00\n        /* \"#utility.yul\":22185:22273   */\n      mstore\n        /* \"#utility.yul\":22292:22296   */\n      0x22\n        /* \"#utility.yul\":22289:22290   */\n      0x04\n        /* \"#utility.yul\":22282:22297   */\n      mstore\n        /* \"#utility.yul\":22316:22320   */\n      0x24\n        /* \"#utility.yul\":22313:22314   */\n      0x00\n        /* \"#utility.yul\":22306:22321   */\n      revert\n        /* \"#utility.yul\":22333:22653   */\n    tag_112:\n        /* \"#utility.yul\":22377:22383   */\n      0x00\n        /* \"#utility.yul\":22414:22415   */\n      0x02\n        /* \"#utility.yul\":22408:22412   */\n      dup3\n        /* \"#utility.yul\":22404:22416   */\n      div\n        /* \"#utility.yul\":22394:22416   */\n      swap1\n      pop\n        /* \"#utility.yul\":22461:22462   */\n      0x01\n        /* \"#utility.yul\":22455:22459   */\n      dup3\n        /* \"#utility.yul\":22451:22463   */\n      and\n        /* \"#utility.yul\":22482:22500   */\n      dup1\n        /* \"#utility.yul\":22472:22553   */\n      tag_497\n      jumpi\n        /* \"#utility.yul\":22538:22542   */\n      0x7f\n        /* \"#utility.yul\":22530:22536   */\n      dup3\n        /* \"#utility.yul\":22526:22543   */\n      and\n        /* \"#utility.yul\":22516:22543   */\n      swap2\n      pop\n        /* \"#utility.yul\":22472:22553   */\n    tag_497:\n        /* \"#utility.yul\":22600:22602   */\n      0x20\n        /* \"#utility.yul\":22592:22598   */\n      dup3\n        /* \"#utility.yul\":22589:22603   */\n      lt\n        /* \"#utility.yul\":22569:22587   */\n      dup2\n        /* \"#utility.yul\":22566:22604   */\n      sub\n        /* \"#utility.yul\":22563:22647   */\n      tag_498\n      jumpi\n        /* \"#utility.yul\":22619:22637   */\n      tag_499\n      tag_267\n      jump\t// in\n    tag_499:\n        /* \"#utility.yul\":22563:22647   */\n    tag_498:\n        /* \"#utility.yul\":22384:22653   */\n      pop\n        /* \"#utility.yul\":22333:22653   */\n      swap2\n      swap1\n      pop\n      jump\t// out\n        /* \"#utility.yul\":22659:22800   */\n    tag_268:\n        /* \"#utility.yul\":22708:22712   */\n      0x00\n        /* \"#utility.yul\":22731:22734   */\n      dup2\n        /* \"#utility.yul\":22723:22734   */\n      swap1\n      pop\n        /* \"#utility.yul\":22754:22757   */\n      dup2\n        /* \"#utility.yul\":22751:22752   */\n      0x00\n        /* \"#utility.yul\":22744:22758   */\n      mstore\n        /* \"#utility.yul\":22788:22792   */\n      0x20\n        /* \"#utility.yul\":22785:22786   */\n      0x00\n        /* \"#utility.yul\":22775:22793   */\n      keccak256\n        /* \"#utility.yul\":22767:22793   */\n      swap1\n      pop\n        /* \"#utility.yul\":22659:22800   */\n      swap2\n      swap1\n      pop\n      jump\t// out\n        /* \"#utility.yul\":22806:22899   */\n    tag_269:\n        /* \"#utility.yul\":22843:22849   */\n      0x00\n        /* \"#utility.yul\":22890:22892   */\n      0x20\n        /* \"#utility.yul\":22885:22887   */\n      0x1f\n        /* \"#utility.yul\":22878:22883   */\n      dup4\n        /* \"#utility.yul\":22874:22888   */\n      add\n        /* \"#utility.yul\":22870:22893   */\n      div\n        /* \"#utility.yul\":22860:22893   */\n      swap1\n      pop\n        /* \"#utility.yul\":22806:22899   */\n      swap2\n      swap1\n      pop\n      jump\t// out\n        /* \"#utility.yul\":22905:23012   */\n    tag_270:\n        /* \"#utility.yul\":22949:22957   */\n      0x00\n        /* \"#utility.yul\":22999:23004   */\n      dup3\n        /* \"#utility.yul\":22993:22997   */\n      dup3\n        /* \"#utility.yul\":22989:23005   */\n      shl\n        /* \"#utility.yul\":22968:23005   */\n      swap1\n      pop\n        /* \"#utility.yul\":22905:23012   */\n      swap3\n      swap2\n      pop\n      pop\n      jump\t// out\n        /* \"#utility.yul\":23018:23411   */\n    tag_271:\n        /* \"#utility.yul\":23087:23093   */\n      0x00\n        /* \"#utility.yul\":23137:23138   */\n      0x08\n        /* \"#utility.yul\":23125:23135   */\n      dup4\n        /* \"#utility.yul\":23121:23139   */\n      mul\n        /* \"#utility.yul\":23160:23257   */\n      tag_504\n        /* \"#utility.yul\":23190:23256   */\n      0xffffffffffffffffffffffffffffffffffffffffffffffffffffffffffffffff\n        /* \"#utility.yul\":23179:23188   */\n      dup3\n        /* \"#utility.yul\":23160:23257   */\n      tag_270\n      jump\t// in\n    tag_504:\n        /* \"#utility.yul\":23278:23317   */\n      tag_505\n        /* \"#utility.yul\":23308:23316   */\n      dup7\n        /* \"#utility.yul\":23297:23306   */\n      dup4\n        /* \"#utility.yul\":23278:23317   */\n      tag_270\n      jump\t// in\n    tag_505:\n        /* \"#utility.yul\":23266:23317   */\n      swap6\n      pop\n        /* \"#utility.yul\":23350:23354   */\n      dup1\n        /* \"#utility.yul\":23346:23355   */\n      not\n        /* \"#utility.yul\":23339:23344   */\n      dup5\n        /* \"#utility.yul\":23335:23356   */\n      and\n        /* \"#utility.yul\":23326:23356   */\n      swap4\n      pop\n        /* \"#utility.yul\":23399:23403   */\n      dup1\n        /* \"#utility.yul\":23389:23397   */\n      dup7\n        /* \"#utility.yul\":23385:23404   */\n      and\n        /* \"#utility.yul\":23378:23383   */\n      dup5\n        /* \"#utility.yul\":23375:23405   */\n      or\n        /* \"#utility.yul\":23365:23405   */\n      swap3\n      pop\n        /* \"#utility.yul\":23094:23411   */\n      pop\n      pop\n        /* \"#utility.yul\":23018:23411   */\n      swap4\n      swap3\n      pop\n      pop\n      pop\n      jump\t// out\n        /* \"#utility.yul\":23417:23477   */\n    tag_272:\n        /* \"#utility.yul\":23445:23448   */\n      0x00\n        /* \"#utility.yul\":23466:23471   */\n      dup2\n        /* \"#utility.yul\":23459:23471   */\n      swap1\n      pop\n        /* \"#utility.yul\":23417:23477   */\n      swap2\n      swap1\n      pop\n      jump\t// out\n        /* \"#utility.yul\":23483:23625   */\n    tag_273:\n        /* \"#utility.yul\":23533:23542   */\n      0x00\n        /* \"#utility.yul\":23566:23619   */\n      tag_508\n        /* \"#utility.yul\":23584:23618   */\n      tag_509\n        /* \"#utility.yul\":23593:23617   */\n      tag_510\n        /* \"#utility.yul\":23611:23616   */\n      dup5\n        /* \"#utility.yul\":23593:23617   */\n      tag_238\n      jump\t// in\n    tag_510:\n        /* \"#utility.yul\":23584:23618   */\n      tag_272\n      jump\t// in\n    tag_509:\n        /* \"#utility.yul\":23566:23619   */\n      tag_238\n      jump\t// in\n    tag_508:\n        /* \"#utility.yul\":23553:23619   */\n      swap1\n      pop\n        /* \"#utility.yul\":23483:23625   */\n      swap2\n      swap1\n      pop\n      jump\t// out\n        /* \"#utility.yul\":23631:23706   */\n    tag_274:\n        /* \"#utility.yul\":23674:23677   */\n      0x00\n        /* \"#utility.yul\":23695:23700   */\n      dup2\n        /* \"#utility.yul\":23688:23700   */\n      swap1\n      pop\n        /* \"#utility.yul\":23631:23706   */\n      swap2\n      swap1\n      pop\n      jump\t// out\n        /* \"#utility.yul\":23712:23981   */\n    tag_275:\n        /* \"#utility.yul\":23822:23861   */\n      tag_513\n        /* \"#utility.yul\":23853:23860   */\n      dup4\n        /* \"#utility.yul\":23822:23861   */\n      tag_273\n      jump\t// in\n    tag_513:\n        /* \"#utility.yul\":23883:23974   */\n      tag_514\n        /* \"#utility.yul\":23932:23973   */\n      tag_515\n        /* \"#utility.yul\":23956:23972   */\n      dup3\n        /* \"#utility.yul\":23932:23973   */\n      tag_274\n      jump\t// in\n    tag_515:\n        /* \"#utility.yul\":23924:23930   */\n      dup5\n        /* \"#utility.yul\":23917:23921   */\n      dup5\n        /* \"#utility.yul\":23911:23922   */\n      sload\n        /* \"#utility.yul\":23883:23974   */\n      tag_271\n      jump\t// in\n    tag_514:\n        /* \"#utility.yul\":23877:23881   */\n      dup3\n        /* \"#utility.yul\":23870:23975   */\n      sstore\n        /* \"#utility.yul\":23788:23981   */\n      pop\n        /* \"#utility.yul\":23712:23981   */\n      pop\n      pop\n      pop\n      jump\t// out\n        /* \"#utility.yul\":23987:24060   */\n    tag_276:\n        /* \"#utility.yul\":24032:24035   */\n      0x00\n        /* \"#utility.yul\":23987:24060   */\n      swap1\n      jump\t// out\n        /* \"#utility.yul\":24066:24255   */\n    tag_277:\n        /* \"#utility.yul\":24143:24175   */\n      tag_518\n      tag_276\n      jump\t// in\n    tag_518:\n        /* \"#utility.yul\":24184:24249   */\n      tag_519\n        /* \"#utility.yul\":24242:24248   */\n      dup2\n        /* \"#utility.yul\":24234:24240   */\n      dup5\n        /* \"#utility.yul\":24228:24232   */\n      dup5\n        /* \"#utility.yul\":24184:24249   */\n      tag_275\n      jump\t// in\n    tag_519:\n        /* \"#utility.yul\":24119:24255   */\n      pop\n        /* \"#utility.yul\":24066:24255   */\n      pop\n      pop\n      jump\t// out\n        /* \"#utility.yul\":24261:24447   */\n    tag_278:\n        /* \"#utility.yul\":24321:24441   */\n    tag_521:\n        /* \"#utility.yul\":24338:24341   */\n      dup2\n        /* \"#utility.yul\":24331:24336   */\n      dup2\n        /* \"#utility.yul\":24328:24342   */\n      lt\n        /* \"#utility.yul\":24321:24441   */\n      iszero\n      tag_523\n      jumpi\n        /* \"#utility.yul\":24392:24431   */\n      tag_524\n        /* \"#utility.yul\":24429:24430   */\n      0x00\n        /* \"#utility.yul\":24422:24427   */\n      dup3\n        /* \"#utility.yul\":24392:24431   */\n      tag_277\n      jump\t// in\n    tag_524:\n        /* \"#utility.yul\":24365:24366   */\n      0x01\n        /* \"#utility.yul\":24358:24363   */\n      dup2\n        /* \"#utility.yul\":24354:24367   */\n      add\n        /* \"#utility.yul\":24345:24367   */\n      swap1\n      pop\n        /* \"#utility.yul\":24321:24441   */\n      jump(tag_521)\n    tag_523:\n        /* \"#utility.yul\":24261:24447   */\n      pop\n      pop\n      jump\t// out\n        /* \"#utility.yul\":24453:24996   */\n    tag_279:\n        /* \"#utility.yul\":24554:24556   */\n      0x1f\n        /* \"#utility.yul\":24549:24552   */\n      dup3\n        /* \"#utility.yul\":24546:24557   */\n      gt\n        /* \"#utility.yul\":24543:24989   */\n      iszero\n      tag_526\n      jumpi\n        /* \"#utility.yul\":24588:24626   */\n      tag_527\n        /* \"#utility.yul\":24620:24625   */\n      dup2\n        /* \"#utility.yul\":24588:24626   */\n      tag_268\n      jump\t// in\n    tag_527:\n        /* \"#utility.yul\":24672:24701   */\n      tag_528\n        /* \"#utility.yul\":24690:24700   */\n      dup5\n        /* \"#utility.yul\":24672:24701   */\n      tag_269\n      jump\t// in\n    tag_528:\n        /* \"#utility.yul\":24662:24670   */\n      dup2\n        /* \"#utility.yul\":24658:24702   */\n      add\n        /* \"#utility.yul\":24855:24857   */\n      0x20\n        /* \"#utility.yul\":24843:24853   */\n      dup6\n        /* \"#utility.yul\":24840:24858   */\n      lt\n        /* \"#utility.yul\":24837:24886   */\n      iszero\n      tag_529\n      jumpi\n        /* \"#utility.yul\":24876:24884   */\n      dup2\n        /* \"#utility.yul\":24861:24884   */\n      swap1\n      pop\n        /* \"#utility.yul\":24837:24886   */\n    tag_529:\n        /* \"#utility.yul\":24899:24979   */\n      tag_530\n        /* \"#utility.yul\":24955:24977   */\n      tag_531\n        /* \"#utility.yul\":24973:24976   */\n      dup6\n        /* \"#utility.yul\":24955:24977   */\n      tag_269\n      jump\t// in\n    tag_531:\n        /* \"#utility.yul\":24945:24953   */\n      dup4\n        /* \"#utility.yul\":24941:24978   */\n      add\n        /* \"#utility.yul\":24928:24939   */\n      dup3\n        /* \"#utility.yul\":24899:24979   */\n      tag_278\n      jump\t// in\n    tag_530:\n        /* \"#utility.yul\":24558:24989   */\n      pop\n      pop\n        /* \"#utility.yul\":24543:24989   */\n    tag_526:\n        /* \"#utility.yul\":24453:24996   */\n      pop\n      pop\n      pop\n      jump\t// out\n        /* \"#utility.yul\":25002:25119   */\n    tag_280:\n        /* \"#utility.yul\":25056:25064   */\n      0x00\n        /* \"#utility.yul\":25106:25111   */\n      dup3\n        /* \"#utility.yul\":25100:25104   */\n      dup3\n        /* \"#utility.yul\":25096:25112   */\n      shr\n        /* \"#utility.yul\":25075:25112   */\n      swap1\n      pop\n        /* \"#utility.yul\":25002:25119   */\n      swap3\n      swap2\n      pop\n      pop\n      jump\t// out\n        /* \"#utility.yul\":25125:25294   */\n    tag_281:\n        /* \"#utility.yul\":25169:25175   */\n      0x00\n        /* \"#utility.yul\":25202:25253   */\n      tag_534\n        /* \"#utility.yul\":25250:25251   */\n      0x00\n        /* \"#utility.yul\":25246:25252   */\n      not\n        /* \"#utility.yul\":25238:25243   */\n      dup5\n        /* \"#utility.yul\":25235:25236   */\n      0x08\n        /* \"#utility.yul\":25231:25244   */\n      mul\n        /* \"#utility.yul\":25202:25253   */\n      tag_280\n      jump\t// in\n    tag_534:\n        /* \"#utility.yul\":25198:25254   */\n      not\n        /* \"#utility.yul\":25283:25287   */\n      dup1\n        /* \"#utility.yul\":25277:25281   */\n      dup4\n        /* \"#utility.yul\":25273:25288   */\n      and\n        /* \"#utility.yul\":25263:25288   */\n      swap2\n      pop\n        /* \"#utility.yul\":25176:25294   */\n      pop\n        /* \"#utility.yul\":25125:25294   */\n      swap3\n      swap2\n      pop\n      pop\n      jump\t// out\n        /* \"#utility.yul\":25299:25594   */\n    tag_282:\n        /* \"#utility.yul\":25375:25379   */\n      0x00\n        /* \"#utility.yul\":25521:25550   */\n      tag_536\n        /* \"#utility.yul\":25546:25549   */\n      dup4\n        /* \"#utility.yul\":25540:25544   */\n      dup4\n        /* \"#utility.yul\":25521:25550   */\n      tag_281\n      jump\t// in\n    tag_536:\n        /* \"#utility.yul\":25513:25550   */\n      swap2\n      pop\n        /* \"#utility.yul\":25583:25586   */\n      dup3\n        /* \"#utility.yul\":25580:25581   */\n      0x02\n        /* \"#utility.yul\":25576:25587   */\n      mul\n        /* \"#utility.yul\":25570:25574   */\n      dup3\n        /* \"#utility.yul\":25567:25588   */\n      or\n        /* \"#utility.yul\":25559:25588   */\n      swap1\n      pop\n        /* \"#utility.yul\":25299:25594   */\n      swap3\n      swap2\n      pop\n      pop\n      jump\t// out\n        /* \"#utility.yul\":25599:26994   */\n    tag_93:\n        /* \"#utility.yul\":25716:25753   */\n      tag_538\n        /* \"#utility.yul\":25749:25752   */\n      dup3\n        /* \"#utility.yul\":25716:25753   */\n      tag_252\n      jump\t// in\n    tag_538:\n        /* \"#utility.yul\":25818:25836   */\n      0xffffffffffffffff\n        /* \"#utility.yul\":25810:25816   */\n      dup2\n        /* \"#utility.yul\":25807:25837   */\n      gt\n        /* \"#utility.yul\":25804:25860   */\n      iszero\n      tag_539\n      jumpi\n        /* \"#utility.yul\":25840:25858   */\n      tag_540\n      tag_244\n      jump\t// in\n    tag_540:\n        /* \"#utility.yul\":25804:25860   */\n    tag_539:\n        /* \"#utility.yul\":25884:25922   */\n      tag_541\n        /* \"#utility.yul\":25916:25920   */\n      dup3\n        /* \"#utility.yul\":25910:25921   */\n      sload\n        /* \"#utility.yul\":25884:25922   */\n      tag_112\n      jump\t// in\n    tag_541:\n        /* \"#utility.yul\":25969:26036   */\n      tag_542\n        /* \"#utility.yul\":26029:26035   */\n      dup3\n        /* \"#utility.yul\":26021:26027   */\n      dup3\n        /* \"#utility.yul\":26015:26019   */\n      dup6\n        /* \"#utility.yul\":25969:26036   */\n      tag_279\n      jump\t// in\n    tag_542:\n        /* \"#utility.yul\":26063:26064   */\n      0x00\n        /* \"#utility.yul\":26087:26091   */\n      0x20\n        /* \"#utility.yul\":26074:26091   */\n      swap1\n      pop\n        /* \"#utility.yul\":26119:26121   */\n      0x1f\n        /* \"#utility.yul\":26111:26117   */\n      dup4\n        /* \"#utility.yul\":26108:26122   */\n      gt\n        /* \"#utility.yul\":26136:26137   */\n      0x01\n        /* \"#utility.yul\":26131:26749   */\n      dup2\n      eq\n      tag_544\n      jumpi\n        /* \"#utility.yul\":26793:26794   */\n      0x00\n        /* \"#utility.yul\":26810:26816   */\n      dup5\n        /* \"#utility.yul\":26807:26884   */\n      iszero\n      tag_545\n      jumpi\n        /* \"#utility.yul\":26859:26868   */\n      dup3\n        /* \"#utility.yul\":26854:26857   */\n      dup8\n        /* \"#utility.yul\":26850:26869   */\n      add\n        /* \"#utility.yul\":26844:26870   */\n      mload\n        /* \"#utility.yul\":26835:26870   */\n      swap1\n      pop\n        /* \"#utility.yul\":26807:26884   */\n    tag_545:\n        /* \"#utility.yul\":26910:26977   */\n      tag_546\n        /* \"#utility.yul\":26970:26976   */\n      dup6\n        /* \"#utility.yul\":26963:26968   */\n      dup3\n        /* \"#utility.yul\":26910:26977   */\n      tag_282\n      jump\t// in\n    tag_546:\n        /* \"#utility.yul\":26904:26908   */\n      dup7\n        /* \"#utility.yul\":26897:26978   */\n      sstore\n        /* \"#utility.yul\":26766:26988   */\n      pop\n        /* \"#utility.yul\":26101:26988   */\n      jump(tag_543)\n        /* \"#utility.yul\":26131:26749   */\n    tag_544:\n        /* \"#utility.yul\":26183:26187   */\n      0x1f\n        /* \"#utility.yul\":26179:26188   */\n      not\n        /* \"#utility.yul\":26171:26177   */\n      dup5\n        /* \"#utility.yul\":26167:26189   */\n      and\n        /* \"#utility.yul\":26217:26254   */\n      tag_547\n        /* \"#utility.yul\":26249:26253   */\n      dup7\n        /* \"#utility.yul\":26217:26254   */\n      tag_268\n      jump\t// in\n    tag_547:\n        /* \"#utility.yul\":26276:26277   */\n      0x00\n        /* \"#utility.yul\":26290:26498   */\n    tag_548:\n        /* \"#utility.yul\":26304:26311   */\n      dup3\n        /* \"#utility.yul\":26301:26302   */\n      dup2\n        /* \"#utility.yul\":26298:26312   */\n      lt\n        /* \"#utility.yul\":26290:26498   */\n      iszero\n      tag_550\n      jumpi\n        /* \"#utility.yul\":26383:26392   */\n      dup5\n        /* \"#utility.yul\":26378:26381   */\n      dup10\n        /* \"#utility.yul\":26374:26393   */\n      add\n        /* \"#utility.yul\":26368:26394   */\n      mload\n        /* \"#utility.yul\":26360:26366   */\n      dup3\n        /* \"#utility.yul\":26353:26395   */\n      sstore\n        /* \"#utility.yul\":26434:26435   */\n      0x01\n        /* \"#utility.yul\":26426:26432   */\n      dup3\n        /* \"#utility.yul\":26422:26436   */\n      add\n        /* \"#utility.yul\":26412:26436   */\n      swap2\n      pop\n        /* \"#utility.yul\":26481:26483   */\n      0x20\n        /* \"#utility.yul\":26470:26479   */\n      dup6\n        /* \"#utility.yul\":26466:26484   */\n      add\n        /* \"#utility.yul\":26453:26484   */\n      swap5\n      pop\n        /* \"#utility.yul\":26327:26331   */\n      0x20\n        /* \"#utility.yul\":26324:26325   */\n      dup2\n        /* \"#utility.yul\":26320:26332   */\n      add\n        /* \"#utility.yul\":26315:26332   */\n      swap1\n      pop\n        /* \"#utility.yul\":26290:26498   */\n      jump(tag_548)\n    tag_550:\n        /* \"#utility.yul\":26526:26532   */\n      dup7\n        /* \"#utility.yul\":26517:26524   */\n      dup4\n        /* \"#utility.yul\":26514:26533   */\n      lt\n        /* \"#utility.yul\":26511:26690   */\n      iszero\n      tag_551\n      jumpi\n        /* \"#utility.yul\":26584:26593   */\n      dup5\n        /* \"#utility.yul\":26579:26582   */\n      dup10\n        /* \"#utility.yul\":26575:26594   */\n      add\n        /* \"#utility.yul\":26569:26595   */\n      mload\n        /* \"#utility.yul\":26627:26675   */\n      tag_552\n        /* \"#utility.yul\":26669:26673   */\n      0x1f\n        /* \"#utility.yul\":26661:26667   */\n      dup10\n        /* \"#utility.yul\":26657:26674   */\n      and\n        /* \"#utility.yul\":26646:26655   */\n      dup3\n        /* \"#utility.yul\":26627:26675   */\n      tag_281\n      jump\t// in\n    tag_552:\n        /* \"#utility.yul\":26619:26625   */\n      dup4\n        /* \"#utility.yul\":26612:26676   */\n      sstore\n        /* \"#utility.yul\":26534:26690   */\n      pop\n        /* \"#utility.yul\":26511:26690   */\n    tag_551:\n        /* \"#utility.yul\":26736:26737   */\n      0x01\n        /* \"#utility.yul\":26732:26733   */\n      0x02\n        /* \"#utility.yul\":26724:26730   */\n      dup9\n        /* \"#utility.yul\":26720:26734   */\n      mul\n        /* \"#utility.yul\":26716:26738   */\n      add\n        /* \"#utility.yul\":26710:26714   */\n      dup9\n        /* \"#utility.yul\":26703:26739   */\n      sstore\n        /* \"#utility.yul\":26138:26749   */\n      pop\n      pop\n      pop\n        /* \"#utility.yul\":26101:26988   */\n    tag_543:\n      pop\n        /* \"#utility.yul\":25691:26994   */\n      pop\n      pop\n      pop\n        /* \"#utility.yul\":25599:26994   */\n      pop\n      pop\n      jump\t// out\n        /* \"#utility.yul\":27000:27180   */\n    tag_283:\n        /* \"#utility.yul\":27048:27125   */\n      0x4e487b7100000000000000000000000000000000000000000000000000000000\n        /* \"#utility.yul\":27045:27046   */\n      0x00\n        /* \"#utility.yul\":27038:27126   */\n      mstore\n        /* \"#utility.yul\":27145:27149   */\n      0x11\n        /* \"#utility.yul\":27142:27143   */\n      0x04\n        /* \"#utility.yul\":27135:27150   */\n      mstore\n        /* \"#utility.yul\":27169:27173   */\n      0x24\n        /* \"#utility.yul\":27166:27167   */\n      0x00\n        /* \"#utility.yul\":27159:27174   */\n      revert\n        /* \"#utility.yul\":27186:27419   */\n    tag_109:\n        /* \"#utility.yul\":27225:27228   */\n      0x00\n        /* \"#utility.yul\":27248:27272   */\n      tag_555\n        /* \"#utility.yul\":27266:27271   */\n      dup3\n        /* \"#utility.yul\":27248:27272   */\n      tag_238\n      jump\t// in\n    tag_555:\n        /* \"#utility.yul\":27239:27272   */\n      swap2\n      pop\n        /* \"#utility.yul\":27294:27360   */\n      0xffffffffffffffffffffffffffffffffffffffffffffffffffffffffffffffff\n        /* \"#utility.yul\":27287:27292   */\n      dup3\n        /* \"#utility.yul\":27284:27361   */\n      sub\n        /* \"#utility.yul\":27281:27384   */\n      tag_556\n      jumpi\n        /* \"#utility.yul\":27364:27382   */\n      tag_557\n      tag_283\n      jump\t// in\n    tag_557:\n        /* \"#utility.yul\":27281:27384   */\n    tag_556:\n        /* \"#utility.yul\":27411:27412   */\n      0x01\n        /* \"#utility.yul\":27404:27409   */\n      dup3\n        /* \"#utility.yul\":27400:27413   */\n      add\n        /* \"#utility.yul\":27393:27413   */\n      swap1\n      pop\n        /* \"#utility.yul\":27186:27419   */\n      swap2\n      swap1\n      pop\n      jump\t// out\n        /* \"#utility.yul\":27425:27716   */\n    tag_284:\n        /* \"#utility.yul\":27565:27599   */\n      0x4c27657461626c697373656d656e74206e2765786973746520706173206f7520\n        /* \"#utility.yul\":27561:27562   */\n      0x00\n        /* \"#utility.yul\":27553:27559   */\n      dup3\n        /* \"#utility.yul\":27549:27563   */\n      add\n        /* \"#utility.yul\":27542:27600   */\n      mstore\n        /* \"#utility.yul\":27634:27668   */\n      0x6e276120706173206c652064726f697420646520637265657220756e2070726f\n        /* \"#utility.yul\":27629:27631   */\n      0x20\n        /* \"#utility.yul\":27621:27627   */\n      dup3\n        /* \"#utility.yul\":27617:27632   */\n      add\n        /* \"#utility.yul\":27610:27669   */\n      mstore\n        /* \"#utility.yul\":27703:27708   */\n      0x66696c0000000000000000000000000000000000000000000000000000000000\n        /* \"#utility.yul\":27698:27700   */\n      0x40\n        /* \"#utility.yul\":27690:27696   */\n      dup3\n        /* \"#utility.yul\":27686:27701   */\n      add\n        /* \"#utility.yul\":27679:27709   */\n      mstore\n        /* \"#utility.yul\":27425:27716   */\n      pop\n      jump\t// out\n        /* \"#utility.yul\":27722:28088   */\n    tag_285:\n        /* \"#utility.yul\":27864:27867   */\n      0x00\n        /* \"#utility.yul\":27885:27952   */\n      tag_560\n        /* \"#utility.yul\":27949:27951   */\n      0x43\n        /* \"#utility.yul\":27944:27947   */\n      dup4\n        /* \"#utility.yul\":27885:27952   */\n      tag_253\n      jump\t// in\n    tag_560:\n        /* \"#utility.yul\":27878:27952   */\n      swap2\n      pop\n        /* \"#utility.yul\":27961:28054   */\n      tag_561\n        /* \"#utility.yul\":28050:28053   */\n      dup3\n        /* \"#utility.yul\":27961:28054   */\n      tag_284\n      jump\t// in\n    tag_561:\n        /* \"#utility.yul\":28079:28081   */\n      0x60\n        /* \"#utility.yul\":28074:28077   */\n      dup3\n        /* \"#utility.yul\":28070:28082   */\n      add\n        /* \"#utility.yul\":28063:28082   */\n      swap1\n      pop\n        /* \"#utility.yul\":27722:28088   */\n      swap2\n      swap1\n      pop\n      jump\t// out\n        /* \"#utility.yul\":28094:28513   */\n    tag_160:\n        /* \"#utility.yul\":28260:28264   */\n      0x00\n        /* \"#utility.yul\":28298:28300   */\n      0x20\n        /* \"#utility.yul\":28287:28296   */\n      dup3\n        /* \"#utility.yul\":28283:28301   */\n      add\n        /* \"#utility.yul\":28275:28301   */\n      swap1\n      pop\n        /* \"#utility.yul\":28347:28356   */\n      dup2\n        /* \"#utility.yul\":28341:28345   */\n      dup2\n        /* \"#utility.yul\":28337:28357   */\n      sub\n        /* \"#utility.yul\":28333:28334   */\n      0x00\n        /* \"#utility.yul\":28322:28331   */\n      dup4\n        /* \"#utility.yul\":28318:28335   */\n      add\n        /* \"#utility.yul\":28311:28358   */\n      mstore\n        /* \"#utility.yul\":28375:28506   */\n      tag_563\n        /* \"#utility.yul\":28501:28505   */\n      dup2\n        /* \"#utility.yul\":28375:28506   */\n      tag_285\n      jump\t// in\n    tag_563:\n        /* \"#utility.yul\":28367:28506   */\n      swap1\n      pop\n        /* \"#utility.yul\":28094:28513   */\n      swap2\n      swap1\n      pop\n      jump\t// out\n        /* \"#utility.yul\":28519:28812   */\n    tag_286:\n        /* \"#utility.yul\":28659:28693   */\n      0x4c27657461626c697373656d656e74206e2765786973746520706173206f7520\n        /* \"#utility.yul\":28655:28656   */\n      0x00\n        /* \"#utility.yul\":28647:28653   */\n      dup3\n        /* \"#utility.yul\":28643:28657   */\n      add\n        /* \"#utility.yul\":28636:28694   */\n      mstore\n        /* \"#utility.yul\":28728:28762   */\n      0x6e276120706173206c652064726f6974206427616a6f7574657220756e206469\n        /* \"#utility.yul\":28723:28725   */\n      0x20\n        /* \"#utility.yul\":28715:28721   */\n      dup3\n        /* \"#utility.yul\":28711:28726   */\n      add\n        /* \"#utility.yul\":28704:28763   */\n      mstore\n        /* \"#utility.yul\":28797:28804   */\n      0x706c6f6d65000000000000000000000000000000000000000000000000000000\n        /* \"#utility.yul\":28792:28794   */\n      0x40\n        /* \"#utility.yul\":28784:28790   */\n      dup3\n        /* \"#utility.yul\":28780:28795   */\n      add\n        /* \"#utility.yul\":28773:28805   */\n      mstore\n        /* \"#utility.yul\":28519:28812   */\n      pop\n      jump\t// out\n        /* \"#utility.yul\":28818:29184   */\n    tag_287:\n        /* \"#utility.yul\":28960:28963   */\n      0x00\n        /* \"#utility.yul\":28981:29048   */\n      tag_566\n        /* \"#utility.yul\":29045:29047   */\n      0x45\n        /* \"#utility.yul\":29040:29043   */\n      dup4\n        /* \"#utility.yul\":28981:29048   */\n      tag_253\n      jump\t// in\n    tag_566:\n        /* \"#utility.yul\":28974:29048   */\n      swap2\n      pop\n        /* \"#utility.yul\":29057:29150   */\n      tag_567\n        /* \"#utility.yul\":29146:29149   */\n      dup3\n        /* \"#utility.yul\":29057:29150   */\n      tag_286\n      jump\t// in\n    tag_567:\n        /* \"#utility.yul\":29175:29177   */\n      0x60\n        /* \"#utility.yul\":29170:29173   */\n      dup3\n        /* \"#utility.yul\":29166:29178   */\n      add\n        /* \"#utility.yul\":29159:29178   */\n      swap1\n      pop\n        /* \"#utility.yul\":28818:29184   */\n      swap2\n      swap1\n      pop\n      jump\t// out\n        /* \"#utility.yul\":29190:29609   */\n    tag_220:\n        /* \"#utility.yul\":29356:29360   */\n      0x00\n        /* \"#utility.yul\":29394:29396   */\n      0x20\n        /* \"#utility.yul\":29383:29392   */\n      dup3\n        /* \"#utility.yul\":29379:29397   */\n      add\n        /* \"#utility.yul\":29371:29397   */\n      swap1\n      pop\n        /* \"#utility.yul\":29443:29452   */\n      dup2\n        /* \"#utility.yul\":29437:29441   */\n      dup2\n        /* \"#utility.yul\":29433:29453   */\n      sub\n        /* \"#utility.yul\":29429:29430   */\n      0x00\n        /* \"#utility.yul\":29418:29427   */\n      dup4\n        /* \"#utility.yul\":29414:29431   */\n      add\n        /* \"#utility.yul\":29407:29454   */\n      mstore\n        /* \"#utility.yul\":29471:29602   */\n      tag_569\n        /* \"#utility.yul\":29597:29601   */\n      dup2\n        /* \"#utility.yul\":29471:29602   */\n      tag_287\n      jump\t// in\n    tag_569:\n        /* \"#utility.yul\":29463:29602   */\n      swap1\n      pop\n        /* \"#utility.yul\":29190:29609   */\n      swap2\n      swap1\n      pop\n      jump\t// out\n        /* \"#utility.yul\":29615:29904   */\n    tag_288:\n        /* \"#utility.yul\":29755:29789   */\n      0x5365756c206c27657461626c697373656d656e74207175692061206372656520\n        /* \"#utility.yul\":29751:29752   */\n      0x00\n        /* \"#utility.yul\":29743:29749   */\n      dup3\n        /* \"#utility.yul\":29739:29753   */\n      add\n        /* \"#utility.yul\":29732:29790   */\n      mstore\n        /* \"#utility.yul\":29824:29858   */\n      0x6c652070726f66696c207065757420616a6f7574657220756e206469706c6f6d\n        /* \"#utility.yul\":29819:29821   */\n      0x20\n        /* \"#utility.yul\":29811:29817   */\n      dup3\n        /* \"#utility.yul\":29807:29822   */\n      add\n        /* \"#utility.yul\":29800:29859   */\n      mstore\n        /* \"#utility.yul\":29893:29896   */\n      0x6500000000000000000000000000000000000000000000000000000000000000\n        /* \"#utility.yul\":29888:29890   */\n      0x40\n        /* \"#utility.yul\":29880:29886   */\n      dup3\n        /* \"#utility.yul\":29876:29891   */\n      add\n        /* \"#utility.yul\":29869:29897   */\n      mstore\n        /* \"#utility.yul\":29615:29904   */\n      pop\n      jump\t// out\n        /* \"#utility.yul\":29910:30276   */\n    tag_289:\n        /* \"#utility.yul\":30052:30055   */\n      0x00\n        /* \"#utility.yul\":30073:30140   */\n      tag_572\n        /* \"#utility.yul\":30137:30139   */\n      0x41\n        /* \"#utility.yul\":30132:30135   */\n      dup4\n        /* \"#utility.yul\":30073:30140   */\n      tag_253\n      jump\t// in\n    tag_572:\n        /* \"#utility.yul\":30066:30140   */\n      swap2\n      pop\n        /* \"#utility.yul\":30149:30242   */\n      tag_573\n        /* \"#utility.yul\":30238:30241   */\n      dup3\n        /* \"#utility.yul\":30149:30242   */\n      tag_288\n      jump\t// in\n    tag_573:\n        /* \"#utility.yul\":30267:30269   */\n      0x60\n        /* \"#utility.yul\":30262:30265   */\n      dup3\n        /* \"#utility.yul\":30258:30270   */\n      add\n        /* \"#utility.yul\":30251:30270   */\n      swap1\n      pop\n        /* \"#utility.yul\":29910:30276   */\n      swap2\n      swap1\n      pop\n      jump\t// out\n        /* \"#utility.yul\":30282:30701   */\n    tag_223:\n        /* \"#utility.yul\":30448:30452   */\n      0x00\n        /* \"#utility.yul\":30486:30488   */\n      0x20\n        /* \"#utility.yul\":30475:30484   */\n      dup3\n        /* \"#utility.yul\":30471:30489   */\n      add\n        /* \"#utility.yul\":30463:30489   */\n      swap1\n      pop\n        /* \"#utility.yul\":30535:30544   */\n      dup2\n        /* \"#utility.yul\":30529:30533   */\n      dup2\n        /* \"#utility.yul\":30525:30545   */\n      sub\n        /* \"#utility.yul\":30521:30522   */\n      0x00\n        /* \"#utility.yul\":30510:30519   */\n      dup4\n        /* \"#utility.yul\":30506:30523   */\n      add\n        /* \"#utility.yul\":30499:30546   */\n      mstore\n        /* \"#utility.yul\":30563:30694   */\n      tag_575\n        /* \"#utility.yul\":30689:30693   */\n      dup2\n        /* \"#utility.yul\":30563:30694   */\n      tag_289\n      jump\t// in\n    tag_575:\n        /* \"#utility.yul\":30555:30694   */\n      swap1\n      pop\n        /* \"#utility.yul\":30282:30701   */\n      swap2\n      swap1\n      pop\n      jump\t// out\n\n    auxdata: 0xa26469706673582212203cad5ffd972f4e03889d653dbd51136a1fb87e7df5b49220e37e71f00d7b224d64736f6c63430008170033\n}\n",
				"bytecode": {
					"linkReferences": {},
					"object": "60806040526001600555600160065560016007556001600855348015610023575f80fd5b50335f806101000a81548173ffffffffffffffffffffffffffffffffffffffff021916908373ffffffffffffffffffffffffffffffffffffffff16021790555061287f806100705f395ff3fe608060405234801561000f575f80fd5b50600436106100f3575f3560e01c8063768ceb9a11610095578063ab7fb42911610064578063ab7fb42914610297578063ca863210146102b5578063ccaf842b146102e5578063f851a44014610303576100f3565b8063768ceb9a146101f05780638256d51c146102275780638930e1e71461025d578063a75bd04214610279576100f3565b8063235a30fa116100d1578063235a30fa1461014d5780635bc4fad814610187578063645041bf146101b857806371e6945c146101d4576100f3565b8063082e81ef146100f75780631b86c700146101135780632297387414610131575b5f80fd5b610111600480360381019061010c91906118f4565b610321565b005b61011b6104e6565b6040516101289190611a8b565b60405180910390f35b61014b60048036038101906101469190611aa4565b6104ec565b005b61016760048036038101906101629190611b78565b6106ea565b60405161017e9b9a99989796959493929190611c5c565b60405180910390f35b6101a1600480360381019061019c9190611b78565b610b09565b6040516101af929190611d50565b60405180910390f35b6101d260048036038101906101cd9190611d7e565b610bc9565b005b6101ee60048036038101906101e99190611dbc565b610beb565b005b61020a60048036038101906102059190611b78565b610e98565b60405161021e989796959493929190611f31565b60405180910390f35b610241600480360381019061023c9190611ffa565b61117a565b6040516102549796959493929190612025565b60405180910390f35b610277600480360381019061027291906120ae565b6113ef565b005b61028161172a565b60405161028e9190611a8b565b60405180910390f35b61029f611730565b6040516102ac9190611a8b565b60405180910390f35b6102cf60048036038101906102ca9190611ffa565b611736565b6040516102dc9190611a8b565b60405180910390f35b6102ed61174b565b6040516102fa9190611a8b565b60405180910390f35b61030b611751565b6040516103189190612195565b60405180910390f35b5f8054906101000a900473ffffffffffffffffffffffffffffffffffffffff1673ffffffffffffffffffffffffffffffffffffffff163373ffffffffffffffffffffffffffffffffffffffff16146103ae576040517f08c379a00000000000000000000000000000000000000000000000000000000081526004016103a59061221e565b60405180910390fd5b5f60025f8b81526020019081526020015f2090503373ffffffffffffffffffffffffffffffffffffffff1681600a015f9054906101000a900473ffffffffffffffffffffffffffffffffffffffff1673ffffffffffffffffffffffffffffffffffffffff1614610453576040517f08c379a000000000000000000000000000000000000000000000000000000000815260040161044a906122d2565b60405180910390fd5b8881600101908161046491906124ea565b508781600201908161047691906124ea565b508681600301908161048891906124ea565b508581600401908161049a91906124ea565b50848160050181905550838160060190816104b591906124ea565b50828160070190816104c791906124ea565b50818160080190816104d991906124ea565b5050505050505050505050565b60085481565b5f8054906101000a900473ffffffffffffffffffffffffffffffffffffffff1673ffffffffffffffffffffffffffffffffffffffff163373ffffffffffffffffffffffffffffffffffffffff1614610579576040517f08c379a00000000000000000000000000000000000000000000000000000000081526004016105709061221e565b60405180910390fd5b6040518060e00160405280600754815260200185815260200184815260200183815260200182815260200160085481526020013373ffffffffffffffffffffffffffffffffffffffff1681525060015f3373ffffffffffffffffffffffffffffffffffffffff1673ffffffffffffffffffffffffffffffffffffffff1681526020019081526020015f205f820151815f0155602082015181600101908161062091906124ea565b50604082015181600201908161063691906124ea565b50606082015181600301908161064c91906124ea565b50608082015181600401908161066291906124ea565b5060a0820151816005015560c0820151816006015f6101000a81548173ffffffffffffffffffffffffffffffffffffffff021916908373ffffffffffffffffffffffffffffffffffffffff16021790555090505060075f8154809291906106c8906125e6565b919050555060085f8154809291906106df906125e6565b919050555050505050565b6002602052805f5260405f205f91509050805f01549080600101805461070f9061231d565b80601f016020809104026020016040519081016040528092919081815260200182805461073b9061231d565b80156107865780601f1061075d57610100808354040283529160200191610786565b820191905f5260205f20905b81548152906001019060200180831161076957829003601f168201915b50505050509080600201805461079b9061231d565b80601f01602080910402602001604051908101604052809291908181526020018280546107c79061231d565b80156108125780601f106107e957610100808354040283529160200191610812565b820191905f5260205f20905b8154815290600101906020018083116107f557829003601f168201915b5050505050908060030180546108279061231d565b80601f01602080910402602001604051908101604052809291908181526020018280546108539061231d565b801561089e5780601f106108755761010080835404028352916020019161089e565b820191905f5260205f20905b81548152906001019060200180831161088157829003601f168201915b5050505050908060040180546108b39061231d565b80601f01602080910402602001604051908101604052809291908181526020018280546108df9061231d565b801561092a5780601f106109015761010080835404028352916020019161092a565b820191905f5260205f20905b81548152906001019060200180831161090d57829003601f168201915b5050505050908060050154908060060180546109459061231d565b80601f01602080910402602001604051908101604052809291908181526020018280546109719061231d565b80156109bc5780601f10610993576101008083540402835291602001916109bc565b820191905f5260205f20905b81548152906001019060200180831161099f57829003601f168201915b5050505050908060070180546109d19061231d565b80601f01602080910402602001604051908101604052809291908181526020018280546109fd9061231d565b8015610a485780601f10610a1f57610100808354040283529160200191610a48565b820191905f5260205f20905b815481529060010190602001808311610a2b57829003601f168201915b505050505090806008018054610a5d9061231d565b80601f0160208091040260200160405190810160405280929190818152602001828054610a899061231d565b8015610ad45780601f10610aab57610100808354040283529160200191610ad4565b820191905f5260205f20905b815481529060010190602001808311610ab757829003601f168201915b50505050509080600901549080600a015f9054906101000a900473ffffffffffffffffffffffffffffffffffffffff1690508b565b5f60605f60035f8581526020019081526020015f205f01541160035f8581526020019081526020015f20600401808054610b429061231d565b80601f0160208091040260200160405190810160405280929190818152602001828054610b6e9061231d565b8015610bb95780601f10610b9057610100808354040283529160200191610bb9565b820191905f5260205f20905b815481529060010190602001808311610b9c57829003601f168201915b5050505050905091509150915091565b5f60025f8481526020019081526020015f209050818160090181905550505050565b5f8054906101000a900473ffffffffffffffffffffffffffffffffffffffff1673ffffffffffffffffffffffffffffffffffffffff163373ffffffffffffffffffffffffffffffffffffffff1614610c78576040517f08c379a0000000000000000000000000000000000000000000000000000000008152600401610c6f9061221e565b60405180910390fd5b5f60015f3373ffffffffffffffffffffffffffffffffffffffff1673ffffffffffffffffffffffffffffffffffffffff1681526020019081526020015f2090505f815f015411610cfd576040517f08c379a0000000000000000000000000000000000000000000000000000000008152600401610cf4906126c3565b60405180910390fd5b60405180610160016040528060055481526020018a81526020018981526020018881526020018781526020018681526020018581526020018481526020018381526020015f81526020013373ffffffffffffffffffffffffffffffffffffffff1681525060025f60055481526020019081526020015f205f820151815f01556020820151816001019081610d9191906124ea565b506040820151816002019081610da791906124ea565b506060820151816003019081610dbd91906124ea565b506080820151816004019081610dd391906124ea565b5060a0820151816005015560c0820151816006019081610df391906124ea565b5060e0820151816007019081610e0991906124ea565b50610100820151816008019081610e2091906124ea565b50610120820151816009015561014082015181600a015f6101000a81548173ffffffffffffffffffffffffffffffffffffffff021916908373ffffffffffffffffffffffffffffffffffffffff16021790555090505060055f815480929190610e88906125e6565b9190505550505050505050505050565b6003602052805f5260405f205f91509050805f015490806001015490806002015490806003018054610ec99061231d565b80601f0160208091040260200160405190810160405280929190818152602001828054610ef59061231d565b8015610f405780601f10610f1757610100808354040283529160200191610f40565b820191905f5260205f20905b815481529060010190602001808311610f2357829003601f168201915b505050505090806004018054610f559061231d565b80601f0160208091040260200160405190810160405280929190818152602001828054610f819061231d565b8015610fcc5780601f10610fa357610100808354040283529160200191610fcc565b820191905f5260205f20905b815481529060010190602001808311610faf57829003601f168201915b505050505090806005018054610fe19061231d565b80601f016020809104026020016040519081016040528092919081815260200182805461100d9061231d565b80156110585780601f1061102f57610100808354040283529160200191611058565b820191905f5260205f20905b81548152906001019060200180831161103b57829003601f168201915b50505050509080600601805461106d9061231d565b80601f01602080910402602001604051908101604052809291908181526020018280546110999061231d565b80156110e45780601f106110bb576101008083540402835291602001916110e4565b820191905f5260205f20905b8154815290600101906020018083116110c757829003601f168201915b5050505050908060070180546110f99061231d565b80601f01602080910402602001604051908101604052809291908181526020018280546111259061231d565b80156111705780601f1061114757610100808354040283529160200191611170565b820191905f5260205f20905b81548152906001019060200180831161115357829003601f168201915b5050505050905088565b6001602052805f5260405f205f91509050805f01549080600101805461119f9061231d565b80601f01602080910402602001604051908101604052809291908181526020018280546111cb9061231d565b80156112165780601f106111ed57610100808354040283529160200191611216565b820191905f5260205f20905b8154815290600101906020018083116111f957829003601f168201915b50505050509080600201805461122b9061231d565b80601f01602080910402602001604051908101604052809291908181526020018280546112579061231d565b80156112a25780601f10611279576101008083540402835291602001916112a2565b820191905f5260205f20905b81548152906001019060200180831161128557829003601f168201915b5050505050908060030180546112b79061231d565b80601f01602080910402602001604051908101604052809291908181526020018280546112e39061231d565b801561132e5780601f106113055761010080835404028352916020019161132e565b820191905f5260205f20905b81548152906001019060200180831161131157829003601f168201915b5050505050908060040180546113439061231d565b80601f016020809104026020016040519081016040528092919081815260200182805461136f9061231d565b80156113ba5780601f10611391576101008083540402835291602001916113ba565b820191905f5260205f20905b81548152906001019060200180831161139d57829003601f168201915b505050505090806005015490806006015f9054906101000a900473ffffffffffffffffffffffffffffffffffffffff16905087565b5f8054906101000a900473ffffffffffffffffffffffffffffffffffffffff1673ffffffffffffffffffffffffffffffffffffffff163373ffffffffffffffffffffffffffffffffffffffff161461147c576040517f08c379a00000000000000000000000000000000000000000000000000000000081526004016114739061221e565b60405180910390fd5b5f60015f3373ffffffffffffffffffffffffffffffffffffffff1673ffffffffffffffffffffffffffffffffffffffff1681526020019081526020015f2090505f815f015411611501576040517f08c379a00000000000000000000000000000000000000000000000000000000081526004016114f890612777565b60405180910390fd5b3373ffffffffffffffffffffffffffffffffffffffff1660025f8881526020019081526020015f20600a015f9054906101000a900473ffffffffffffffffffffffffffffffffffffffff1673ffffffffffffffffffffffffffffffffffffffff16146115a2576040517f08c379a00000000000000000000000000000000000000000000000000000000081526004016115999061282b565b60405180910390fd5b6040518061010001604052806006548152602001878152602001825f015481526020018260010180546115d49061231d565b80601f01602080910402602001604051908101604052809291908181526020018280546116009061231d565b801561164b5780601f106116225761010080835404028352916020019161164b565b820191905f5260205f20905b81548152906001019060200180831161162e57829003601f168201915b505050505081526020018681526020018581526020018481526020018381525060035f60065481526020019081526020015f205f820151815f0155602082015181600101556040820151816002015560608201518160030190816116af91906124ea565b5060808201518160040190816116c591906124ea565b5060a08201518160050190816116db91906124ea565b5060c08201518160060190816116f191906124ea565b5060e082015181600701908161170791906124ea565b5090505060065f81548092919061171d906125e6565b9190505550505050505050565b60075481565b60065481565b6004602052805f5260405f205f915090505481565b60055481565b5f8054906101000a900473ffffffffffffffffffffffffffffffffffffffff1681565b5f604051905090565b5f80fd5b5f80fd5b5f819050919050565b61179781611785565b81146117a1575f80fd5b50565b5f813590506117b28161178e565b92915050565b5f80fd5b5f80fd5b5f601f19601f8301169050919050565b7f4e487b71000000000000000000000000000000000000000000000000000000005f52604160045260245ffd5b611806826117c0565b810181811067ffffffffffffffff82111715611825576118246117d0565b5b80604052505050565b5f611837611774565b905061184382826117fd565b919050565b5f67ffffffffffffffff821115611862576118616117d0565b5b61186b826117c0565b9050602081019050919050565b828183375f83830152505050565b5f61189861189384611848565b61182e565b9050828152602081018484840111156118b4576118b36117bc565b5b6118bf848285611878565b509392505050565b5f82601f8301126118db576118da6117b8565b5b81356118eb848260208601611886565b91505092915050565b5f805f805f805f805f6101208a8c0312156119125761191161177d565b5b5f61191f8c828d016117a4565b99505060208a013567ffffffffffffffff8111156119405761193f611781565b5b61194c8c828d016118c7565b98505060408a013567ffffffffffffffff81111561196d5761196c611781565b5b6119798c828d016118c7565b97505060608a013567ffffffffffffffff81111561199a57611999611781565b5b6119a68c828d016118c7565b96505060808a013567ffffffffffffffff8111156119c7576119c6611781565b5b6119d38c828d016118c7565b95505060a06119e48c828d016117a4565b94505060c08a013567ffffffffffffffff811115611a0557611a04611781565b5b611a118c828d016118c7565b93505060e08a013567ffffffffffffffff811115611a3257611a31611781565b5b611a3e8c828d016118c7565b9250506101008a013567ffffffffffffffff811115611a6057611a5f611781565b5b611a6c8c828d016118c7565b9150509295985092959850929598565b611a8581611785565b82525050565b5f602082019050611a9e5f830184611a7c565b92915050565b5f805f8060808587031215611abc57611abb61177d565b5b5f85013567ffffffffffffffff811115611ad957611ad8611781565b5b611ae5878288016118c7565b945050602085013567ffffffffffffffff811115611b0657611b05611781565b5b611b12878288016118c7565b935050604085013567ffffffffffffffff811115611b3357611b32611781565b5b611b3f878288016118c7565b925050606085013567ffffffffffffffff811115611b6057611b5f611781565b5b611b6c878288016118c7565b91505092959194509250565b5f60208284031215611b8d57611b8c61177d565b5b5f611b9a848285016117a4565b91505092915050565b5f81519050919050565b5f82825260208201905092915050565b5f5b83811015611bda578082015181840152602081019050611bbf565b5f8484015250505050565b5f611bef82611ba3565b611bf98185611bad565b9350611c09818560208601611bbd565b611c12816117c0565b840191505092915050565b5f73ffffffffffffffffffffffffffffffffffffffff82169050919050565b5f611c4682611c1d565b9050919050565b611c5681611c3c565b82525050565b5f61016082019050611c705f83018e611a7c565b8181036020830152611c82818d611be5565b90508181036040830152611c96818c611be5565b90508181036060830152611caa818b611be5565b90508181036080830152611cbe818a611be5565b9050611ccd60a0830189611a7c565b81810360c0830152611cdf8188611be5565b905081810360e0830152611cf38187611be5565b9050818103610100830152611d088186611be5565b9050611d18610120830185611a7c565b611d26610140830184611c4d565b9c9b505050505050505050505050565b5f8115159050919050565b611d4a81611d36565b82525050565b5f604082019050611d635f830185611d41565b8181036020830152611d758184611be5565b90509392505050565b5f8060408385031215611d9457611d9361177d565b5b5f611da1858286016117a4565b9250506020611db2858286016117a4565b9150509250929050565b5f805f805f805f80610100898b031215611dd957611dd861177d565b5b5f89013567ffffffffffffffff811115611df657611df5611781565b5b611e028b828c016118c7565b985050602089013567ffffffffffffffff811115611e2357611e22611781565b5b611e2f8b828c016118c7565b975050604089013567ffffffffffffffff811115611e5057611e4f611781565b5b611e5c8b828c016118c7565b965050606089013567ffffffffffffffff811115611e7d57611e7c611781565b5b611e898b828c016118c7565b9550506080611e9a8b828c016117a4565b94505060a089013567ffffffffffffffff811115611ebb57611eba611781565b5b611ec78b828c016118c7565b93505060c089013567ffffffffffffffff811115611ee857611ee7611781565b5b611ef48b828c016118c7565b92505060e089013567ffffffffffffffff811115611f1557611f14611781565b5b611f218b828c016118c7565b9150509295985092959890939650565b5f61010082019050611f455f83018b611a7c565b611f52602083018a611a7c565b611f5f6040830189611a7c565b8181036060830152611f718188611be5565b90508181036080830152611f858187611be5565b905081810360a0830152611f998186611be5565b905081810360c0830152611fad8185611be5565b905081810360e0830152611fc18184611be5565b90509998505050505050505050565b611fd981611c3c565b8114611fe3575f80fd5b50565b5f81359050611ff481611fd0565b92915050565b5f6020828403121561200f5761200e61177d565b5b5f61201c84828501611fe6565b91505092915050565b5f60e0820190506120385f83018a611a7c565b818103602083015261204a8189611be5565b9050818103604083015261205e8188611be5565b905081810360608301526120728187611be5565b905081810360808301526120868186611be5565b905061209560a0830185611a7c565b6120a260c0830184611c4d565b98975050505050505050565b5f805f805f60a086880312156120c7576120c661177d565b5b5f6120d4888289016117a4565b955050602086013567ffffffffffffffff8111156120f5576120f4611781565b5b612101888289016118c7565b945050604086013567ffffffffffffffff81111561212257612121611781565b5b61212e888289016118c7565b935050606086013567ffffffffffffffff81111561214f5761214e611781565b5b61215b888289016118c7565b925050608086013567ffffffffffffffff81111561217c5761217b611781565b5b612188888289016118c7565b9150509295509295909350565b5f6020820190506121a85f830184611c4d565b92915050565b7f5365756c206c2761646d696e69737472617465757220706575742065666665635f8201527f74756572206365747465206f7065726174696f6e000000000000000000000000602082015250565b5f612208603483611bad565b9150612213826121ae565b604082019050919050565b5f6020820190508181035f830152612235816121fc565b9050919050565b7f5365756c206c27657461626c697373656d656e742071756920612063726565205f8201527f6c652070726f66696c2070657574206d65747472652061206a6f757220756e2060208201527f6574756469616e74000000000000000000000000000000000000000000000000604082015250565b5f6122bc604883611bad565b91506122c78261223c565b606082019050919050565b5f6020820190508181035f8301526122e9816122b0565b9050919050565b7f4e487b71000000000000000000000000000000000000000000000000000000005f52602260045260245ffd5b5f600282049050600182168061233457607f821691505b602082108103612347576123466122f0565b5b50919050565b5f819050815f5260205f209050919050565b5f6020601f8301049050919050565b5f82821b905092915050565b5f600883026123a97fffffffffffffffffffffffffffffffffffffffffffffffffffffffffffffffff8261236e565b6123b3868361236e565b95508019841693508086168417925050509392505050565b5f819050919050565b5f6123ee6123e96123e484611785565b6123cb565b611785565b9050919050565b5f819050919050565b612407836123d4565b61241b612413826123f5565b84845461237a565b825550505050565b5f90565b61242f612423565b61243a8184846123fe565b505050565b5b8181101561245d576124525f82612427565b600181019050612440565b5050565b601f8211156124a2576124738161234d565b61247c8461235f565b8101602085101561248b578190505b61249f6124978561235f565b83018261243f565b50505b505050565b5f82821c905092915050565b5f6124c25f19846008026124a7565b1980831691505092915050565b5f6124da83836124b3565b9150826002028217905092915050565b6124f382611ba3565b67ffffffffffffffff81111561250c5761250b6117d0565b5b612516825461231d565b612521828285612461565b5f60209050601f831160018114612552575f8415612540578287015190505b61254a85826124cf565b8655506125b1565b601f1984166125608661234d565b5f5b8281101561258757848901518255600182019150602085019450602081019050612562565b868310156125a457848901516125a0601f8916826124b3565b8355505b6001600288020188555050505b505050505050565b7f4e487b71000000000000000000000000000000000000000000000000000000005f52601160045260245ffd5b5f6125f082611785565b91507fffffffffffffffffffffffffffffffffffffffffffffffffffffffffffffffff8203612622576126216125b9565b5b600182019050919050565b7f4c27657461626c697373656d656e74206e2765786973746520706173206f75205f8201527f6e276120706173206c652064726f697420646520637265657220756e2070726f60208201527f66696c0000000000000000000000000000000000000000000000000000000000604082015250565b5f6126ad604383611bad565b91506126b88261262d565b606082019050919050565b5f6020820190508181035f8301526126da816126a1565b9050919050565b7f4c27657461626c697373656d656e74206e2765786973746520706173206f75205f8201527f6e276120706173206c652064726f6974206427616a6f7574657220756e20646960208201527f706c6f6d65000000000000000000000000000000000000000000000000000000604082015250565b5f612761604583611bad565b915061276c826126e1565b606082019050919050565b5f6020820190508181035f83015261278e81612755565b9050919050565b7f5365756c206c27657461626c697373656d656e742071756920612063726565205f8201527f6c652070726f66696c207065757420616a6f7574657220756e206469706c6f6d60208201527f6500000000000000000000000000000000000000000000000000000000000000604082015250565b5f612815604183611bad565b915061282082612795565b606082019050919050565b5f6020820190508181035f83015261284281612809565b905091905056fea26469706673582212203cad5ffd972f4e03889d653dbd51136a1fb87e7df5b49220e37e71f00d7b224d64736f6c63430008170033",
					"opcodes": "PUSH1 0x80 PUSH1 0x40 MSTORE PUSH1 0x1 PUSH1 0x5 SSTORE PUSH1 0x1 PUSH1 0x6 SSTORE PUSH1 0x1 PUSH1 0x7 SSTORE PUSH1 0x1 PUSH1 0x8 SSTORE CALLVALUE DUP1 ISZERO PUSH2 0x23 JUMPI PUSH0 DUP1 REVERT JUMPDEST POP CALLER PUSH0 DUP1 PUSH2 0x100 EXP DUP2 SLOAD DUP2 PUSH20 0xFFFFFFFFFFFFFFFFFFFFFFFFFFFFFFFFFFFFFFFF MUL NOT AND SWAP1 DUP4 PUSH20 0xFFFFFFFFFFFFFFFFFFFFFFFFFFFFFFFFFFFFFFFF AND MUL OR SWAP1 SSTORE POP PUSH2 0x287F DUP1 PUSH2 0x70 PUSH0 CODECOPY PUSH0 RETURN INVALID PUSH1 0x80 PUSH1 0x40 MSTORE CALLVALUE DUP1 ISZERO PUSH2 0xF JUMPI PUSH0 DUP1 REVERT JUMPDEST POP PUSH1 0x4 CALLDATASIZE LT PUSH2 0xF3 JUMPI PUSH0 CALLDATALOAD PUSH1 0xE0 SHR DUP1 PUSH4 0x768CEB9A GT PUSH2 0x95 JUMPI DUP1 PUSH4 0xAB7FB429 GT PUSH2 0x64 JUMPI DUP1 PUSH4 0xAB7FB429 EQ PUSH2 0x297 JUMPI DUP1 PUSH4 0xCA863210 EQ PUSH2 0x2B5 JUMPI DUP1 PUSH4 0xCCAF842B EQ PUSH2 0x2E5 JUMPI DUP1 PUSH4 0xF851A440 EQ PUSH2 0x303 JUMPI PUSH2 0xF3 JUMP JUMPDEST DUP1 PUSH4 0x768CEB9A EQ PUSH2 0x1F0 JUMPI DUP1 PUSH4 0x8256D51C EQ PUSH2 0x227 JUMPI DUP1 PUSH4 0x8930E1E7 EQ PUSH2 0x25D JUMPI DUP1 PUSH4 0xA75BD042 EQ PUSH2 0x279 JUMPI PUSH2 0xF3 JUMP JUMPDEST DUP1 PUSH4 0x235A30FA GT PUSH2 0xD1 JUMPI DUP1 PUSH4 0x235A30FA EQ PUSH2 0x14D JUMPI DUP1 PUSH4 0x5BC4FAD8 EQ PUSH2 0x187 JUMPI DUP1 PUSH4 0x645041BF EQ PUSH2 0x1B8 JUMPI DUP1 PUSH4 0x71E6945C EQ PUSH2 0x1D4 JUMPI PUSH2 0xF3 JUMP JUMPDEST DUP1 PUSH4 0x82E81EF EQ PUSH2 0xF7 JUMPI DUP1 PUSH4 0x1B86C700 EQ PUSH2 0x113 JUMPI DUP1 PUSH4 0x22973874 EQ PUSH2 0x131 JUMPI JUMPDEST PUSH0 DUP1 REVERT JUMPDEST PUSH2 0x111 PUSH1 0x4 DUP1 CALLDATASIZE SUB DUP2 ADD SWAP1 PUSH2 0x10C SWAP2 SWAP1 PUSH2 0x18F4 JUMP JUMPDEST PUSH2 0x321 JUMP JUMPDEST STOP JUMPDEST PUSH2 0x11B PUSH2 0x4E6 JUMP JUMPDEST PUSH1 0x40 MLOAD PUSH2 0x128 SWAP2 SWAP1 PUSH2 0x1A8B JUMP JUMPDEST PUSH1 0x40 MLOAD DUP1 SWAP2 SUB SWAP1 RETURN JUMPDEST PUSH2 0x14B PUSH1 0x4 DUP1 CALLDATASIZE SUB DUP2 ADD SWAP1 PUSH2 0x146 SWAP2 SWAP1 PUSH2 0x1AA4 JUMP JUMPDEST PUSH2 0x4EC JUMP JUMPDEST STOP JUMPDEST PUSH2 0x167 PUSH1 0x4 DUP1 CALLDATASIZE SUB DUP2 ADD SWAP1 PUSH2 0x162 SWAP2 SWAP1 PUSH2 0x1B78 JUMP JUMPDEST PUSH2 0x6EA JUMP JUMPDEST PUSH1 0x40 MLOAD PUSH2 0x17E SWAP12 SWAP11 SWAP10 SWAP9 SWAP8 SWAP7 SWAP6 SWAP5 SWAP4 SWAP3 SWAP2 SWAP1 PUSH2 0x1C5C JUMP JUMPDEST PUSH1 0x40 MLOAD DUP1 SWAP2 SUB SWAP1 RETURN JUMPDEST PUSH2 0x1A1 PUSH1 0x4 DUP1 CALLDATASIZE SUB DUP2 ADD SWAP1 PUSH2 0x19C SWAP2 SWAP1 PUSH2 0x1B78 JUMP JUMPDEST PUSH2 0xB09 JUMP JUMPDEST PUSH1 0x40 MLOAD PUSH2 0x1AF SWAP3 SWAP2 SWAP1 PUSH2 0x1D50 JUMP JUMPDEST PUSH1 0x40 MLOAD DUP1 SWAP2 SUB SWAP1 RETURN JUMPDEST PUSH2 0x1D2 PUSH1 0x4 DUP1 CALLDATASIZE SUB DUP2 ADD SWAP1 PUSH2 0x1CD SWAP2 SWAP1 PUSH2 0x1D7E JUMP JUMPDEST PUSH2 0xBC9 JUMP JUMPDEST STOP JUMPDEST PUSH2 0x1EE PUSH1 0x4 DUP1 CALLDATASIZE SUB DUP2 ADD SWAP1 PUSH2 0x1E9 SWAP2 SWAP1 PUSH2 0x1DBC JUMP JUMPDEST PUSH2 0xBEB JUMP JUMPDEST STOP JUMPDEST PUSH2 0x20A PUSH1 0x4 DUP1 CALLDATASIZE SUB DUP2 ADD SWAP1 PUSH2 0x205 SWAP2 SWAP1 PUSH2 0x1B78 JUMP JUMPDEST PUSH2 0xE98 JUMP JUMPDEST PUSH1 0x40 MLOAD PUSH2 0x21E SWAP9 SWAP8 SWAP7 SWAP6 SWAP5 SWAP4 SWAP3 SWAP2 SWAP1 PUSH2 0x1F31 JUMP JUMPDEST PUSH1 0x40 MLOAD DUP1 SWAP2 SUB SWAP1 RETURN JUMPDEST PUSH2 0x241 PUSH1 0x4 DUP1 CALLDATASIZE SUB DUP2 ADD SWAP1 PUSH2 0x23C SWAP2 SWAP1 PUSH2 0x1FFA JUMP JUMPDEST PUSH2 0x117A JUMP JUMPDEST PUSH1 0x40 MLOAD PUSH2 0x254 SWAP8 SWAP7 SWAP6 SWAP5 SWAP4 SWAP3 SWAP2 SWAP1 PUSH2 0x2025 JUMP JUMPDEST PUSH1 0x40 MLOAD DUP1 SWAP2 SUB SWAP1 RETURN JUMPDEST PUSH2 0x277 PUSH1 0x4 DUP1 CALLDATASIZE SUB DUP2 ADD SWAP1 PUSH2 0x272 SWAP2 SWAP1 PUSH2 0x20AE JUMP JUMPDEST PUSH2 0x13EF JUMP JUMPDEST STOP JUMPDEST PUSH2 0x281 PUSH2 0x172A JUMP JUMPDEST PUSH1 0x40 MLOAD PUSH2 0x28E SWAP2 SWAP1 PUSH2 0x1A8B JUMP JUMPDEST PUSH1 0x40 MLOAD DUP1 SWAP2 SUB SWAP1 RETURN JUMPDEST PUSH2 0x29F PUSH2 0x1730 JUMP JUMPDEST PUSH1 0x40 MLOAD PUSH2 0x2AC SWAP2 SWAP1 PUSH2 0x1A8B JUMP JUMPDEST PUSH1 0x40 MLOAD DUP1 SWAP2 SUB SWAP1 RETURN JUMPDEST PUSH2 0x2CF PUSH1 0x4 DUP1 CALLDATASIZE SUB DUP2 ADD SWAP1 PUSH2 0x2CA SWAP2 SWAP1 PUSH2 0x1FFA JUMP JUMPDEST PUSH2 0x1736 JUMP JUMPDEST PUSH1 0x40 MLOAD PUSH2 0x2DC SWAP2 SWAP1 PUSH2 0x1A8B JUMP JUMPDEST PUSH1 0x40 MLOAD DUP1 SWAP2 SUB SWAP1 RETURN JUMPDEST PUSH2 0x2ED PUSH2 0x174B JUMP JUMPDEST PUSH1 0x40 MLOAD PUSH2 0x2FA SWAP2 SWAP1 PUSH2 0x1A8B JUMP JUMPDEST PUSH1 0x40 MLOAD DUP1 SWAP2 SUB SWAP1 RETURN JUMPDEST PUSH2 0x30B PUSH2 0x1751 JUMP JUMPDEST PUSH1 0x40 MLOAD PUSH2 0x318 SWAP2 SWAP1 PUSH2 0x2195 JUMP JUMPDEST PUSH1 0x40 MLOAD DUP1 SWAP2 SUB SWAP1 RETURN JUMPDEST PUSH0 DUP1 SLOAD SWAP1 PUSH2 0x100 EXP SWAP1 DIV PUSH20 0xFFFFFFFFFFFFFFFFFFFFFFFFFFFFFFFFFFFFFFFF AND PUSH20 0xFFFFFFFFFFFFFFFFFFFFFFFFFFFFFFFFFFFFFFFF AND CALLER PUSH20 0xFFFFFFFFFFFFFFFFFFFFFFFFFFFFFFFFFFFFFFFF AND EQ PUSH2 0x3AE JUMPI PUSH1 0x40 MLOAD PUSH32 0x8C379A000000000000000000000000000000000000000000000000000000000 DUP2 MSTORE PUSH1 0x4 ADD PUSH2 0x3A5 SWAP1 PUSH2 0x221E JUMP JUMPDEST PUSH1 0x40 MLOAD DUP1 SWAP2 SUB SWAP1 REVERT JUMPDEST PUSH0 PUSH1 0x2 PUSH0 DUP12 DUP2 MSTORE PUSH1 0x20 ADD SWAP1 DUP2 MSTORE PUSH1 0x20 ADD PUSH0 KECCAK256 SWAP1 POP CALLER PUSH20 0xFFFFFFFFFFFFFFFFFFFFFFFFFFFFFFFFFFFFFFFF AND DUP2 PUSH1 0xA ADD PUSH0 SWAP1 SLOAD SWAP1 PUSH2 0x100 EXP SWAP1 DIV PUSH20 0xFFFFFFFFFFFFFFFFFFFFFFFFFFFFFFFFFFFFFFFF AND PUSH20 0xFFFFFFFFFFFFFFFFFFFFFFFFFFFFFFFFFFFFFFFF AND EQ PUSH2 0x453 JUMPI PUSH1 0x40 MLOAD PUSH32 0x8C379A000000000000000000000000000000000000000000000000000000000 DUP2 MSTORE PUSH1 0x4 ADD PUSH2 0x44A SWAP1 PUSH2 0x22D2 JUMP JUMPDEST PUSH1 0x40 MLOAD DUP1 SWAP2 SUB SWAP1 REVERT JUMPDEST DUP9 DUP2 PUSH1 0x1 ADD SWAP1 DUP2 PUSH2 0x464 SWAP2 SWAP1 PUSH2 0x24EA JUMP JUMPDEST POP DUP8 DUP2 PUSH1 0x2 ADD SWAP1 DUP2 PUSH2 0x476 SWAP2 SWAP1 PUSH2 0x24EA JUMP JUMPDEST POP DUP7 DUP2 PUSH1 0x3 ADD SWAP1 DUP2 PUSH2 0x488 SWAP2 SWAP1 PUSH2 0x24EA JUMP JUMPDEST POP DUP6 DUP2 PUSH1 0x4 ADD SWAP1 DUP2 PUSH2 0x49A SWAP2 SWAP1 PUSH2 0x24EA JUMP JUMPDEST POP DUP5 DUP2 PUSH1 0x5 ADD DUP2 SWAP1 SSTORE POP DUP4 DUP2 PUSH1 0x6 ADD SWAP1 DUP2 PUSH2 0x4B5 SWAP2 SWAP1 PUSH2 0x24EA JUMP JUMPDEST POP DUP3 DUP2 PUSH1 0x7 ADD SWAP1 DUP2 PUSH2 0x4C7 SWAP2 SWAP1 PUSH2 0x24EA JUMP JUMPDEST POP DUP2 DUP2 PUSH1 0x8 ADD SWAP1 DUP2 PUSH2 0x4D9 SWAP2 SWAP1 PUSH2 0x24EA JUMP JUMPDEST POP POP POP POP POP POP POP POP POP POP POP JUMP JUMPDEST PUSH1 0x8 SLOAD DUP2 JUMP JUMPDEST PUSH0 DUP1 SLOAD SWAP1 PUSH2 0x100 EXP SWAP1 DIV PUSH20 0xFFFFFFFFFFFFFFFFFFFFFFFFFFFFFFFFFFFFFFFF AND PUSH20 0xFFFFFFFFFFFFFFFFFFFFFFFFFFFFFFFFFFFFFFFF AND CALLER PUSH20 0xFFFFFFFFFFFFFFFFFFFFFFFFFFFFFFFFFFFFFFFF AND EQ PUSH2 0x579 JUMPI PUSH1 0x40 MLOAD PUSH32 0x8C379A000000000000000000000000000000000000000000000000000000000 DUP2 MSTORE PUSH1 0x4 ADD PUSH2 0x570 SWAP1 PUSH2 0x221E JUMP JUMPDEST PUSH1 0x40 MLOAD DUP1 SWAP2 SUB SWAP1 REVERT JUMPDEST PUSH1 0x40 MLOAD DUP1 PUSH1 0xE0 ADD PUSH1 0x40 MSTORE DUP1 PUSH1 0x7 SLOAD DUP2 MSTORE PUSH1 0x20 ADD DUP6 DUP2 MSTORE PUSH1 0x20 ADD DUP5 DUP2 MSTORE PUSH1 0x20 ADD DUP4 DUP2 MSTORE PUSH1 0x20 ADD DUP3 DUP2 MSTORE PUSH1 0x20 ADD PUSH1 0x8 SLOAD DUP2 MSTORE PUSH1 0x20 ADD CALLER PUSH20 0xFFFFFFFFFFFFFFFFFFFFFFFFFFFFFFFFFFFFFFFF AND DUP2 MSTORE POP PUSH1 0x1 PUSH0 CALLER PUSH20 0xFFFFFFFFFFFFFFFFFFFFFFFFFFFFFFFFFFFFFFFF AND PUSH20 0xFFFFFFFFFFFFFFFFFFFFFFFFFFFFFFFFFFFFFFFF AND DUP2 MSTORE PUSH1 0x20 ADD SWAP1 DUP2 MSTORE PUSH1 0x20 ADD PUSH0 KECCAK256 PUSH0 DUP3 ADD MLOAD DUP2 PUSH0 ADD SSTORE PUSH1 0x20 DUP3 ADD MLOAD DUP2 PUSH1 0x1 ADD SWAP1 DUP2 PUSH2 0x620 SWAP2 SWAP1 PUSH2 0x24EA JUMP JUMPDEST POP PUSH1 0x40 DUP3 ADD MLOAD DUP2 PUSH1 0x2 ADD SWAP1 DUP2 PUSH2 0x636 SWAP2 SWAP1 PUSH2 0x24EA JUMP JUMPDEST POP PUSH1 0x60 DUP3 ADD MLOAD DUP2 PUSH1 0x3 ADD SWAP1 DUP2 PUSH2 0x64C SWAP2 SWAP1 PUSH2 0x24EA JUMP JUMPDEST POP PUSH1 0x80 DUP3 ADD MLOAD DUP2 PUSH1 0x4 ADD SWAP1 DUP2 PUSH2 0x662 SWAP2 SWAP1 PUSH2 0x24EA JUMP JUMPDEST POP PUSH1 0xA0 DUP3 ADD MLOAD DUP2 PUSH1 0x5 ADD SSTORE PUSH1 0xC0 DUP3 ADD MLOAD DUP2 PUSH1 0x6 ADD PUSH0 PUSH2 0x100 EXP DUP2 SLOAD DUP2 PUSH20 0xFFFFFFFFFFFFFFFFFFFFFFFFFFFFFFFFFFFFFFFF MUL NOT AND SWAP1 DUP4 PUSH20 0xFFFFFFFFFFFFFFFFFFFFFFFFFFFFFFFFFFFFFFFF AND MUL OR SWAP1 SSTORE POP SWAP1 POP POP PUSH1 0x7 PUSH0 DUP2 SLOAD DUP1 SWAP3 SWAP2 SWAP1 PUSH2 0x6C8 SWAP1 PUSH2 0x25E6 JUMP JUMPDEST SWAP2 SWAP1 POP SSTORE POP PUSH1 0x8 PUSH0 DUP2 SLOAD DUP1 SWAP3 SWAP2 SWAP1 PUSH2 0x6DF SWAP1 PUSH2 0x25E6 JUMP JUMPDEST SWAP2 SWAP1 POP SSTORE POP POP POP POP POP JUMP JUMPDEST PUSH1 0x2 PUSH1 0x20 MSTORE DUP1 PUSH0 MSTORE PUSH1 0x40 PUSH0 KECCAK256 PUSH0 SWAP2 POP SWAP1 POP DUP1 PUSH0 ADD SLOAD SWAP1 DUP1 PUSH1 0x1 ADD DUP1 SLOAD PUSH2 0x70F SWAP1 PUSH2 0x231D JUMP JUMPDEST DUP1 PUSH1 0x1F ADD PUSH1 0x20 DUP1 SWAP2 DIV MUL PUSH1 0x20 ADD PUSH1 0x40 MLOAD SWAP1 DUP2 ADD PUSH1 0x40 MSTORE DUP1 SWAP3 SWAP2 SWAP1 DUP2 DUP2 MSTORE PUSH1 0x20 ADD DUP3 DUP1 SLOAD PUSH2 0x73B SWAP1 PUSH2 0x231D JUMP JUMPDEST DUP1 ISZERO PUSH2 0x786 JUMPI DUP1 PUSH1 0x1F LT PUSH2 0x75D JUMPI PUSH2 0x100 DUP1 DUP4 SLOAD DIV MUL DUP4 MSTORE SWAP2 PUSH1 0x20 ADD SWAP2 PUSH2 0x786 JUMP JUMPDEST DUP3 ADD SWAP2 SWAP1 PUSH0 MSTORE PUSH1 0x20 PUSH0 KECCAK256 SWAP1 JUMPDEST DUP2 SLOAD DUP2 MSTORE SWAP1 PUSH1 0x1 ADD SWAP1 PUSH1 0x20 ADD DUP1 DUP4 GT PUSH2 0x769 JUMPI DUP3 SWAP1 SUB PUSH1 0x1F AND DUP3 ADD SWAP2 JUMPDEST POP POP POP POP POP SWAP1 DUP1 PUSH1 0x2 ADD DUP1 SLOAD PUSH2 0x79B SWAP1 PUSH2 0x231D JUMP JUMPDEST DUP1 PUSH1 0x1F ADD PUSH1 0x20 DUP1 SWAP2 DIV MUL PUSH1 0x20 ADD PUSH1 0x40 MLOAD SWAP1 DUP2 ADD PUSH1 0x40 MSTORE DUP1 SWAP3 SWAP2 SWAP1 DUP2 DUP2 MSTORE PUSH1 0x20 ADD DUP3 DUP1 SLOAD PUSH2 0x7C7 SWAP1 PUSH2 0x231D JUMP JUMPDEST DUP1 ISZERO PUSH2 0x812 JUMPI DUP1 PUSH1 0x1F LT PUSH2 0x7E9 JUMPI PUSH2 0x100 DUP1 DUP4 SLOAD DIV MUL DUP4 MSTORE SWAP2 PUSH1 0x20 ADD SWAP2 PUSH2 0x812 JUMP JUMPDEST DUP3 ADD SWAP2 SWAP1 PUSH0 MSTORE PUSH1 0x20 PUSH0 KECCAK256 SWAP1 JUMPDEST DUP2 SLOAD DUP2 MSTORE SWAP1 PUSH1 0x1 ADD SWAP1 PUSH1 0x20 ADD DUP1 DUP4 GT PUSH2 0x7F5 JUMPI DUP3 SWAP1 SUB PUSH1 0x1F AND DUP3 ADD SWAP2 JUMPDEST POP POP POP POP POP SWAP1 DUP1 PUSH1 0x3 ADD DUP1 SLOAD PUSH2 0x827 SWAP1 PUSH2 0x231D JUMP JUMPDEST DUP1 PUSH1 0x1F ADD PUSH1 0x20 DUP1 SWAP2 DIV MUL PUSH1 0x20 ADD PUSH1 0x40 MLOAD SWAP1 DUP2 ADD PUSH1 0x40 MSTORE DUP1 SWAP3 SWAP2 SWAP1 DUP2 DUP2 MSTORE PUSH1 0x20 ADD DUP3 DUP1 SLOAD PUSH2 0x853 SWAP1 PUSH2 0x231D JUMP JUMPDEST DUP1 ISZERO PUSH2 0x89E JUMPI DUP1 PUSH1 0x1F LT PUSH2 0x875 JUMPI PUSH2 0x100 DUP1 DUP4 SLOAD DIV MUL DUP4 MSTORE SWAP2 PUSH1 0x20 ADD SWAP2 PUSH2 0x89E JUMP JUMPDEST DUP3 ADD SWAP2 SWAP1 PUSH0 MSTORE PUSH1 0x20 PUSH0 KECCAK256 SWAP1 JUMPDEST DUP2 SLOAD DUP2 MSTORE SWAP1 PUSH1 0x1 ADD SWAP1 PUSH1 0x20 ADD DUP1 DUP4 GT PUSH2 0x881 JUMPI DUP3 SWAP1 SUB PUSH1 0x1F AND DUP3 ADD SWAP2 JUMPDEST POP POP POP POP POP SWAP1 DUP1 PUSH1 0x4 ADD DUP1 SLOAD PUSH2 0x8B3 SWAP1 PUSH2 0x231D JUMP JUMPDEST DUP1 PUSH1 0x1F ADD PUSH1 0x20 DUP1 SWAP2 DIV MUL PUSH1 0x20 ADD PUSH1 0x40 MLOAD SWAP1 DUP2 ADD PUSH1 0x40 MSTORE DUP1 SWAP3 SWAP2 SWAP1 DUP2 DUP2 MSTORE PUSH1 0x20 ADD DUP3 DUP1 SLOAD PUSH2 0x8DF SWAP1 PUSH2 0x231D JUMP JUMPDEST DUP1 ISZERO PUSH2 0x92A JUMPI DUP1 PUSH1 0x1F LT PUSH2 0x901 JUMPI PUSH2 0x100 DUP1 DUP4 SLOAD DIV MUL DUP4 MSTORE SWAP2 PUSH1 0x20 ADD SWAP2 PUSH2 0x92A JUMP JUMPDEST DUP3 ADD SWAP2 SWAP1 PUSH0 MSTORE PUSH1 0x20 PUSH0 KECCAK256 SWAP1 JUMPDEST DUP2 SLOAD DUP2 MSTORE SWAP1 PUSH1 0x1 ADD SWAP1 PUSH1 0x20 ADD DUP1 DUP4 GT PUSH2 0x90D JUMPI DUP3 SWAP1 SUB PUSH1 0x1F AND DUP3 ADD SWAP2 JUMPDEST POP POP POP POP POP SWAP1 DUP1 PUSH1 0x5 ADD SLOAD SWAP1 DUP1 PUSH1 0x6 ADD DUP1 SLOAD PUSH2 0x945 SWAP1 PUSH2 0x231D JUMP JUMPDEST DUP1 PUSH1 0x1F ADD PUSH1 0x20 DUP1 SWAP2 DIV MUL PUSH1 0x20 ADD PUSH1 0x40 MLOAD SWAP1 DUP2 ADD PUSH1 0x40 MSTORE DUP1 SWAP3 SWAP2 SWAP1 DUP2 DUP2 MSTORE PUSH1 0x20 ADD DUP3 DUP1 SLOAD PUSH2 0x971 SWAP1 PUSH2 0x231D JUMP JUMPDEST DUP1 ISZERO PUSH2 0x9BC JUMPI DUP1 PUSH1 0x1F LT PUSH2 0x993 JUMPI PUSH2 0x100 DUP1 DUP4 SLOAD DIV MUL DUP4 MSTORE SWAP2 PUSH1 0x20 ADD SWAP2 PUSH2 0x9BC JUMP JUMPDEST DUP3 ADD SWAP2 SWAP1 PUSH0 MSTORE PUSH1 0x20 PUSH0 KECCAK256 SWAP1 JUMPDEST DUP2 SLOAD DUP2 MSTORE SWAP1 PUSH1 0x1 ADD SWAP1 PUSH1 0x20 ADD DUP1 DUP4 GT PUSH2 0x99F JUMPI DUP3 SWAP1 SUB PUSH1 0x1F AND DUP3 ADD SWAP2 JUMPDEST POP POP POP POP POP SWAP1 DUP1 PUSH1 0x7 ADD DUP1 SLOAD PUSH2 0x9D1 SWAP1 PUSH2 0x231D JUMP JUMPDEST DUP1 PUSH1 0x1F ADD PUSH1 0x20 DUP1 SWAP2 DIV MUL PUSH1 0x20 ADD PUSH1 0x40 MLOAD SWAP1 DUP2 ADD PUSH1 0x40 MSTORE DUP1 SWAP3 SWAP2 SWAP1 DUP2 DUP2 MSTORE PUSH1 0x20 ADD DUP3 DUP1 SLOAD PUSH2 0x9FD SWAP1 PUSH2 0x231D JUMP JUMPDEST DUP1 ISZERO PUSH2 0xA48 JUMPI DUP1 PUSH1 0x1F LT PUSH2 0xA1F JUMPI PUSH2 0x100 DUP1 DUP4 SLOAD DIV MUL DUP4 MSTORE SWAP2 PUSH1 0x20 ADD SWAP2 PUSH2 0xA48 JUMP JUMPDEST DUP3 ADD SWAP2 SWAP1 PUSH0 MSTORE PUSH1 0x20 PUSH0 KECCAK256 SWAP1 JUMPDEST DUP2 SLOAD DUP2 MSTORE SWAP1 PUSH1 0x1 ADD SWAP1 PUSH1 0x20 ADD DUP1 DUP4 GT PUSH2 0xA2B JUMPI DUP3 SWAP1 SUB PUSH1 0x1F AND DUP3 ADD SWAP2 JUMPDEST POP POP POP POP POP SWAP1 DUP1 PUSH1 0x8 ADD DUP1 SLOAD PUSH2 0xA5D SWAP1 PUSH2 0x231D JUMP JUMPDEST DUP1 PUSH1 0x1F ADD PUSH1 0x20 DUP1 SWAP2 DIV MUL PUSH1 0x20 ADD PUSH1 0x40 MLOAD SWAP1 DUP2 ADD PUSH1 0x40 MSTORE DUP1 SWAP3 SWAP2 SWAP1 DUP2 DUP2 MSTORE PUSH1 0x20 ADD DUP3 DUP1 SLOAD PUSH2 0xA89 SWAP1 PUSH2 0x231D JUMP JUMPDEST DUP1 ISZERO PUSH2 0xAD4 JUMPI DUP1 PUSH1 0x1F LT PUSH2 0xAAB JUMPI PUSH2 0x100 DUP1 DUP4 SLOAD DIV MUL DUP4 MSTORE SWAP2 PUSH1 0x20 ADD SWAP2 PUSH2 0xAD4 JUMP JUMPDEST DUP3 ADD SWAP2 SWAP1 PUSH0 MSTORE PUSH1 0x20 PUSH0 KECCAK256 SWAP1 JUMPDEST DUP2 SLOAD DUP2 MSTORE SWAP1 PUSH1 0x1 ADD SWAP1 PUSH1 0x20 ADD DUP1 DUP4 GT PUSH2 0xAB7 JUMPI DUP3 SWAP1 SUB PUSH1 0x1F AND DUP3 ADD SWAP2 JUMPDEST POP POP POP POP POP SWAP1 DUP1 PUSH1 0x9 ADD SLOAD SWAP1 DUP1 PUSH1 0xA ADD PUSH0 SWAP1 SLOAD SWAP1 PUSH2 0x100 EXP SWAP1 DIV PUSH20 0xFFFFFFFFFFFFFFFFFFFFFFFFFFFFFFFFFFFFFFFF AND SWAP1 POP DUP12 JUMP JUMPDEST PUSH0 PUSH1 0x60 PUSH0 PUSH1 0x3 PUSH0 DUP6 DUP2 MSTORE PUSH1 0x20 ADD SWAP1 DUP2 MSTORE PUSH1 0x20 ADD PUSH0 KECCAK256 PUSH0 ADD SLOAD GT PUSH1 0x3 PUSH0 DUP6 DUP2 MSTORE PUSH1 0x20 ADD SWAP1 DUP2 MSTORE PUSH1 0x20 ADD PUSH0 KECCAK256 PUSH1 0x4 ADD DUP1 DUP1 SLOAD PUSH2 0xB42 SWAP1 PUSH2 0x231D JUMP JUMPDEST DUP1 PUSH1 0x1F ADD PUSH1 0x20 DUP1 SWAP2 DIV MUL PUSH1 0x20 ADD PUSH1 0x40 MLOAD SWAP1 DUP2 ADD PUSH1 0x40 MSTORE DUP1 SWAP3 SWAP2 SWAP1 DUP2 DUP2 MSTORE PUSH1 0x20 ADD DUP3 DUP1 SLOAD PUSH2 0xB6E SWAP1 PUSH2 0x231D JUMP JUMPDEST DUP1 ISZERO PUSH2 0xBB9 JUMPI DUP1 PUSH1 0x1F LT PUSH2 0xB90 JUMPI PUSH2 0x100 DUP1 DUP4 SLOAD DIV MUL DUP4 MSTORE SWAP2 PUSH1 0x20 ADD SWAP2 PUSH2 0xBB9 JUMP JUMPDEST DUP3 ADD SWAP2 SWAP1 PUSH0 MSTORE PUSH1 0x20 PUSH0 KECCAK256 SWAP1 JUMPDEST DUP2 SLOAD DUP2 MSTORE SWAP1 PUSH1 0x1 ADD SWAP1 PUSH1 0x20 ADD DUP1 DUP4 GT PUSH2 0xB9C JUMPI DUP3 SWAP1 SUB PUSH1 0x1F AND DUP3 ADD SWAP2 JUMPDEST POP POP POP POP POP SWAP1 POP SWAP2 POP SWAP2 POP SWAP2 POP SWAP2 JUMP JUMPDEST PUSH0 PUSH1 0x2 PUSH0 DUP5 DUP2 MSTORE PUSH1 0x20 ADD SWAP1 DUP2 MSTORE PUSH1 0x20 ADD PUSH0 KECCAK256 SWAP1 POP DUP2 DUP2 PUSH1 0x9 ADD DUP2 SWAP1 SSTORE POP POP POP POP JUMP JUMPDEST PUSH0 DUP1 SLOAD SWAP1 PUSH2 0x100 EXP SWAP1 DIV PUSH20 0xFFFFFFFFFFFFFFFFFFFFFFFFFFFFFFFFFFFFFFFF AND PUSH20 0xFFFFFFFFFFFFFFFFFFFFFFFFFFFFFFFFFFFFFFFF AND CALLER PUSH20 0xFFFFFFFFFFFFFFFFFFFFFFFFFFFFFFFFFFFFFFFF AND EQ PUSH2 0xC78 JUMPI PUSH1 0x40 MLOAD PUSH32 0x8C379A000000000000000000000000000000000000000000000000000000000 DUP2 MSTORE PUSH1 0x4 ADD PUSH2 0xC6F SWAP1 PUSH2 0x221E JUMP JUMPDEST PUSH1 0x40 MLOAD DUP1 SWAP2 SUB SWAP1 REVERT JUMPDEST PUSH0 PUSH1 0x1 PUSH0 CALLER PUSH20 0xFFFFFFFFFFFFFFFFFFFFFFFFFFFFFFFFFFFFFFFF AND PUSH20 0xFFFFFFFFFFFFFFFFFFFFFFFFFFFFFFFFFFFFFFFF AND DUP2 MSTORE PUSH1 0x20 ADD SWAP1 DUP2 MSTORE PUSH1 0x20 ADD PUSH0 KECCAK256 SWAP1 POP PUSH0 DUP2 PUSH0 ADD SLOAD GT PUSH2 0xCFD JUMPI PUSH1 0x40 MLOAD PUSH32 0x8C379A000000000000000000000000000000000000000000000000000000000 DUP2 MSTORE PUSH1 0x4 ADD PUSH2 0xCF4 SWAP1 PUSH2 0x26C3 JUMP JUMPDEST PUSH1 0x40 MLOAD DUP1 SWAP2 SUB SWAP1 REVERT JUMPDEST PUSH1 0x40 MLOAD DUP1 PUSH2 0x160 ADD PUSH1 0x40 MSTORE DUP1 PUSH1 0x5 SLOAD DUP2 MSTORE PUSH1 0x20 ADD DUP11 DUP2 MSTORE PUSH1 0x20 ADD DUP10 DUP2 MSTORE PUSH1 0x20 ADD DUP9 DUP2 MSTORE PUSH1 0x20 ADD DUP8 DUP2 MSTORE PUSH1 0x20 ADD DUP7 DUP2 MSTORE PUSH1 0x20 ADD DUP6 DUP2 MSTORE PUSH1 0x20 ADD DUP5 DUP2 MSTORE PUSH1 0x20 ADD DUP4 DUP2 MSTORE PUSH1 0x20 ADD PUSH0 DUP2 MSTORE PUSH1 0x20 ADD CALLER PUSH20 0xFFFFFFFFFFFFFFFFFFFFFFFFFFFFFFFFFFFFFFFF AND DUP2 MSTORE POP PUSH1 0x2 PUSH0 PUSH1 0x5 SLOAD DUP2 MSTORE PUSH1 0x20 ADD SWAP1 DUP2 MSTORE PUSH1 0x20 ADD PUSH0 KECCAK256 PUSH0 DUP3 ADD MLOAD DUP2 PUSH0 ADD SSTORE PUSH1 0x20 DUP3 ADD MLOAD DUP2 PUSH1 0x1 ADD SWAP1 DUP2 PUSH2 0xD91 SWAP2 SWAP1 PUSH2 0x24EA JUMP JUMPDEST POP PUSH1 0x40 DUP3 ADD MLOAD DUP2 PUSH1 0x2 ADD SWAP1 DUP2 PUSH2 0xDA7 SWAP2 SWAP1 PUSH2 0x24EA JUMP JUMPDEST POP PUSH1 0x60 DUP3 ADD MLOAD DUP2 PUSH1 0x3 ADD SWAP1 DUP2 PUSH2 0xDBD SWAP2 SWAP1 PUSH2 0x24EA JUMP JUMPDEST POP PUSH1 0x80 DUP3 ADD MLOAD DUP2 PUSH1 0x4 ADD SWAP1 DUP2 PUSH2 0xDD3 SWAP2 SWAP1 PUSH2 0x24EA JUMP JUMPDEST POP PUSH1 0xA0 DUP3 ADD MLOAD DUP2 PUSH1 0x5 ADD SSTORE PUSH1 0xC0 DUP3 ADD MLOAD DUP2 PUSH1 0x6 ADD SWAP1 DUP2 PUSH2 0xDF3 SWAP2 SWAP1 PUSH2 0x24EA JUMP JUMPDEST POP PUSH1 0xE0 DUP3 ADD MLOAD DUP2 PUSH1 0x7 ADD SWAP1 DUP2 PUSH2 0xE09 SWAP2 SWAP1 PUSH2 0x24EA JUMP JUMPDEST POP PUSH2 0x100 DUP3 ADD MLOAD DUP2 PUSH1 0x8 ADD SWAP1 DUP2 PUSH2 0xE20 SWAP2 SWAP1 PUSH2 0x24EA JUMP JUMPDEST POP PUSH2 0x120 DUP3 ADD MLOAD DUP2 PUSH1 0x9 ADD SSTORE PUSH2 0x140 DUP3 ADD MLOAD DUP2 PUSH1 0xA ADD PUSH0 PUSH2 0x100 EXP DUP2 SLOAD DUP2 PUSH20 0xFFFFFFFFFFFFFFFFFFFFFFFFFFFFFFFFFFFFFFFF MUL NOT AND SWAP1 DUP4 PUSH20 0xFFFFFFFFFFFFFFFFFFFFFFFFFFFFFFFFFFFFFFFF AND MUL OR SWAP1 SSTORE POP SWAP1 POP POP PUSH1 0x5 PUSH0 DUP2 SLOAD DUP1 SWAP3 SWAP2 SWAP1 PUSH2 0xE88 SWAP1 PUSH2 0x25E6 JUMP JUMPDEST SWAP2 SWAP1 POP SSTORE POP POP POP POP POP POP POP POP POP POP JUMP JUMPDEST PUSH1 0x3 PUSH1 0x20 MSTORE DUP1 PUSH0 MSTORE PUSH1 0x40 PUSH0 KECCAK256 PUSH0 SWAP2 POP SWAP1 POP DUP1 PUSH0 ADD SLOAD SWAP1 DUP1 PUSH1 0x1 ADD SLOAD SWAP1 DUP1 PUSH1 0x2 ADD SLOAD SWAP1 DUP1 PUSH1 0x3 ADD DUP1 SLOAD PUSH2 0xEC9 SWAP1 PUSH2 0x231D JUMP JUMPDEST DUP1 PUSH1 0x1F ADD PUSH1 0x20 DUP1 SWAP2 DIV MUL PUSH1 0x20 ADD PUSH1 0x40 MLOAD SWAP1 DUP2 ADD PUSH1 0x40 MSTORE DUP1 SWAP3 SWAP2 SWAP1 DUP2 DUP2 MSTORE PUSH1 0x20 ADD DUP3 DUP1 SLOAD PUSH2 0xEF5 SWAP1 PUSH2 0x231D JUMP JUMPDEST DUP1 ISZERO PUSH2 0xF40 JUMPI DUP1 PUSH1 0x1F LT PUSH2 0xF17 JUMPI PUSH2 0x100 DUP1 DUP4 SLOAD DIV MUL DUP4 MSTORE SWAP2 PUSH1 0x20 ADD SWAP2 PUSH2 0xF40 JUMP JUMPDEST DUP3 ADD SWAP2 SWAP1 PUSH0 MSTORE PUSH1 0x20 PUSH0 KECCAK256 SWAP1 JUMPDEST DUP2 SLOAD DUP2 MSTORE SWAP1 PUSH1 0x1 ADD SWAP1 PUSH1 0x20 ADD DUP1 DUP4 GT PUSH2 0xF23 JUMPI DUP3 SWAP1 SUB PUSH1 0x1F AND DUP3 ADD SWAP2 JUMPDEST POP POP POP POP POP SWAP1 DUP1 PUSH1 0x4 ADD DUP1 SLOAD PUSH2 0xF55 SWAP1 PUSH2 0x231D JUMP JUMPDEST DUP1 PUSH1 0x1F ADD PUSH1 0x20 DUP1 SWAP2 DIV MUL PUSH1 0x20 ADD PUSH1 0x40 MLOAD SWAP1 DUP2 ADD PUSH1 0x40 MSTORE DUP1 SWAP3 SWAP2 SWAP1 DUP2 DUP2 MSTORE PUSH1 0x20 ADD DUP3 DUP1 SLOAD PUSH2 0xF81 SWAP1 PUSH2 0x231D JUMP JUMPDEST DUP1 ISZERO PUSH2 0xFCC JUMPI DUP1 PUSH1 0x1F LT PUSH2 0xFA3 JUMPI PUSH2 0x100 DUP1 DUP4 SLOAD DIV MUL DUP4 MSTORE SWAP2 PUSH1 0x20 ADD SWAP2 PUSH2 0xFCC JUMP JUMPDEST DUP3 ADD SWAP2 SWAP1 PUSH0 MSTORE PUSH1 0x20 PUSH0 KECCAK256 SWAP1 JUMPDEST DUP2 SLOAD DUP2 MSTORE SWAP1 PUSH1 0x1 ADD SWAP1 PUSH1 0x20 ADD DUP1 DUP4 GT PUSH2 0xFAF JUMPI DUP3 SWAP1 SUB PUSH1 0x1F AND DUP3 ADD SWAP2 JUMPDEST POP POP POP POP POP SWAP1 DUP1 PUSH1 0x5 ADD DUP1 SLOAD PUSH2 0xFE1 SWAP1 PUSH2 0x231D JUMP JUMPDEST DUP1 PUSH1 0x1F ADD PUSH1 0x20 DUP1 SWAP2 DIV MUL PUSH1 0x20 ADD PUSH1 0x40 MLOAD SWAP1 DUP2 ADD PUSH1 0x40 MSTORE DUP1 SWAP3 SWAP2 SWAP1 DUP2 DUP2 MSTORE PUSH1 0x20 ADD DUP3 DUP1 SLOAD PUSH2 0x100D SWAP1 PUSH2 0x231D JUMP JUMPDEST DUP1 ISZERO PUSH2 0x1058 JUMPI DUP1 PUSH1 0x1F LT PUSH2 0x102F JUMPI PUSH2 0x100 DUP1 DUP4 SLOAD DIV MUL DUP4 MSTORE SWAP2 PUSH1 0x20 ADD SWAP2 PUSH2 0x1058 JUMP JUMPDEST DUP3 ADD SWAP2 SWAP1 PUSH0 MSTORE PUSH1 0x20 PUSH0 KECCAK256 SWAP1 JUMPDEST DUP2 SLOAD DUP2 MSTORE SWAP1 PUSH1 0x1 ADD SWAP1 PUSH1 0x20 ADD DUP1 DUP4 GT PUSH2 0x103B JUMPI DUP3 SWAP1 SUB PUSH1 0x1F AND DUP3 ADD SWAP2 JUMPDEST POP POP POP POP POP SWAP1 DUP1 PUSH1 0x6 ADD DUP1 SLOAD PUSH2 0x106D SWAP1 PUSH2 0x231D JUMP JUMPDEST DUP1 PUSH1 0x1F ADD PUSH1 0x20 DUP1 SWAP2 DIV MUL PUSH1 0x20 ADD PUSH1 0x40 MLOAD SWAP1 DUP2 ADD PUSH1 0x40 MSTORE DUP1 SWAP3 SWAP2 SWAP1 DUP2 DUP2 MSTORE PUSH1 0x20 ADD DUP3 DUP1 SLOAD PUSH2 0x1099 SWAP1 PUSH2 0x231D JUMP JUMPDEST DUP1 ISZERO PUSH2 0x10E4 JUMPI DUP1 PUSH1 0x1F LT PUSH2 0x10BB JUMPI PUSH2 0x100 DUP1 DUP4 SLOAD DIV MUL DUP4 MSTORE SWAP2 PUSH1 0x20 ADD SWAP2 PUSH2 0x10E4 JUMP JUMPDEST DUP3 ADD SWAP2 SWAP1 PUSH0 MSTORE PUSH1 0x20 PUSH0 KECCAK256 SWAP1 JUMPDEST DUP2 SLOAD DUP2 MSTORE SWAP1 PUSH1 0x1 ADD SWAP1 PUSH1 0x20 ADD DUP1 DUP4 GT PUSH2 0x10C7 JUMPI DUP3 SWAP1 SUB PUSH1 0x1F AND DUP3 ADD SWAP2 JUMPDEST POP POP POP POP POP SWAP1 DUP1 PUSH1 0x7 ADD DUP1 SLOAD PUSH2 0x10F9 SWAP1 PUSH2 0x231D JUMP JUMPDEST DUP1 PUSH1 0x1F ADD PUSH1 0x20 DUP1 SWAP2 DIV MUL PUSH1 0x20 ADD PUSH1 0x40 MLOAD SWAP1 DUP2 ADD PUSH1 0x40 MSTORE DUP1 SWAP3 SWAP2 SWAP1 DUP2 DUP2 MSTORE PUSH1 0x20 ADD DUP3 DUP1 SLOAD PUSH2 0x1125 SWAP1 PUSH2 0x231D JUMP JUMPDEST DUP1 ISZERO PUSH2 0x1170 JUMPI DUP1 PUSH1 0x1F LT PUSH2 0x1147 JUMPI PUSH2 0x100 DUP1 DUP4 SLOAD DIV MUL DUP4 MSTORE SWAP2 PUSH1 0x20 ADD SWAP2 PUSH2 0x1170 JUMP JUMPDEST DUP3 ADD SWAP2 SWAP1 PUSH0 MSTORE PUSH1 0x20 PUSH0 KECCAK256 SWAP1 JUMPDEST DUP2 SLOAD DUP2 MSTORE SWAP1 PUSH1 0x1 ADD SWAP1 PUSH1 0x20 ADD DUP1 DUP4 GT PUSH2 0x1153 JUMPI DUP3 SWAP1 SUB PUSH1 0x1F AND DUP3 ADD SWAP2 JUMPDEST POP POP POP POP POP SWAP1 POP DUP9 JUMP JUMPDEST PUSH1 0x1 PUSH1 0x20 MSTORE DUP1 PUSH0 MSTORE PUSH1 0x40 PUSH0 KECCAK256 PUSH0 SWAP2 POP SWAP1 POP DUP1 PUSH0 ADD SLOAD SWAP1 DUP1 PUSH1 0x1 ADD DUP1 SLOAD PUSH2 0x119F SWAP1 PUSH2 0x231D JUMP JUMPDEST DUP1 PUSH1 0x1F ADD PUSH1 0x20 DUP1 SWAP2 DIV MUL PUSH1 0x20 ADD PUSH1 0x40 MLOAD SWAP1 DUP2 ADD PUSH1 0x40 MSTORE DUP1 SWAP3 SWAP2 SWAP1 DUP2 DUP2 MSTORE PUSH1 0x20 ADD DUP3 DUP1 SLOAD PUSH2 0x11CB SWAP1 PUSH2 0x231D JUMP JUMPDEST DUP1 ISZERO PUSH2 0x1216 JUMPI DUP1 PUSH1 0x1F LT PUSH2 0x11ED JUMPI PUSH2 0x100 DUP1 DUP4 SLOAD DIV MUL DUP4 MSTORE SWAP2 PUSH1 0x20 ADD SWAP2 PUSH2 0x1216 JUMP JUMPDEST DUP3 ADD SWAP2 SWAP1 PUSH0 MSTORE PUSH1 0x20 PUSH0 KECCAK256 SWAP1 JUMPDEST DUP2 SLOAD DUP2 MSTORE SWAP1 PUSH1 0x1 ADD SWAP1 PUSH1 0x20 ADD DUP1 DUP4 GT PUSH2 0x11F9 JUMPI DUP3 SWAP1 SUB PUSH1 0x1F AND DUP3 ADD SWAP2 JUMPDEST POP POP POP POP POP SWAP1 DUP1 PUSH1 0x2 ADD DUP1 SLOAD PUSH2 0x122B SWAP1 PUSH2 0x231D JUMP JUMPDEST DUP1 PUSH1 0x1F ADD PUSH1 0x20 DUP1 SWAP2 DIV MUL PUSH1 0x20 ADD PUSH1 0x40 MLOAD SWAP1 DUP2 ADD PUSH1 0x40 MSTORE DUP1 SWAP3 SWAP2 SWAP1 DUP2 DUP2 MSTORE PUSH1 0x20 ADD DUP3 DUP1 SLOAD PUSH2 0x1257 SWAP1 PUSH2 0x231D JUMP JUMPDEST DUP1 ISZERO PUSH2 0x12A2 JUMPI DUP1 PUSH1 0x1F LT PUSH2 0x1279 JUMPI PUSH2 0x100 DUP1 DUP4 SLOAD DIV MUL DUP4 MSTORE SWAP2 PUSH1 0x20 ADD SWAP2 PUSH2 0x12A2 JUMP JUMPDEST DUP3 ADD SWAP2 SWAP1 PUSH0 MSTORE PUSH1 0x20 PUSH0 KECCAK256 SWAP1 JUMPDEST DUP2 SLOAD DUP2 MSTORE SWAP1 PUSH1 0x1 ADD SWAP1 PUSH1 0x20 ADD DUP1 DUP4 GT PUSH2 0x1285 JUMPI DUP3 SWAP1 SUB PUSH1 0x1F AND DUP3 ADD SWAP2 JUMPDEST POP POP POP POP POP SWAP1 DUP1 PUSH1 0x3 ADD DUP1 SLOAD PUSH2 0x12B7 SWAP1 PUSH2 0x231D JUMP JUMPDEST DUP1 PUSH1 0x1F ADD PUSH1 0x20 DUP1 SWAP2 DIV MUL PUSH1 0x20 ADD PUSH1 0x40 MLOAD SWAP1 DUP2 ADD PUSH1 0x40 MSTORE DUP1 SWAP3 SWAP2 SWAP1 DUP2 DUP2 MSTORE PUSH1 0x20 ADD DUP3 DUP1 SLOAD PUSH2 0x12E3 SWAP1 PUSH2 0x231D JUMP JUMPDEST DUP1 ISZERO PUSH2 0x132E JUMPI DUP1 PUSH1 0x1F LT PUSH2 0x1305 JUMPI PUSH2 0x100 DUP1 DUP4 SLOAD DIV MUL DUP4 MSTORE SWAP2 PUSH1 0x20 ADD SWAP2 PUSH2 0x132E JUMP JUMPDEST DUP3 ADD SWAP2 SWAP1 PUSH0 MSTORE PUSH1 0x20 PUSH0 KECCAK256 SWAP1 JUMPDEST DUP2 SLOAD DUP2 MSTORE SWAP1 PUSH1 0x1 ADD SWAP1 PUSH1 0x20 ADD DUP1 DUP4 GT PUSH2 0x1311 JUMPI DUP3 SWAP1 SUB PUSH1 0x1F AND DUP3 ADD SWAP2 JUMPDEST POP POP POP POP POP SWAP1 DUP1 PUSH1 0x4 ADD DUP1 SLOAD PUSH2 0x1343 SWAP1 PUSH2 0x231D JUMP JUMPDEST DUP1 PUSH1 0x1F ADD PUSH1 0x20 DUP1 SWAP2 DIV MUL PUSH1 0x20 ADD PUSH1 0x40 MLOAD SWAP1 DUP2 ADD PUSH1 0x40 MSTORE DUP1 SWAP3 SWAP2 SWAP1 DUP2 DUP2 MSTORE PUSH1 0x20 ADD DUP3 DUP1 SLOAD PUSH2 0x136F SWAP1 PUSH2 0x231D JUMP JUMPDEST DUP1 ISZERO PUSH2 0x13BA JUMPI DUP1 PUSH1 0x1F LT PUSH2 0x1391 JUMPI PUSH2 0x100 DUP1 DUP4 SLOAD DIV MUL DUP4 MSTORE SWAP2 PUSH1 0x20 ADD SWAP2 PUSH2 0x13BA JUMP JUMPDEST DUP3 ADD SWAP2 SWAP1 PUSH0 MSTORE PUSH1 0x20 PUSH0 KECCAK256 SWAP1 JUMPDEST DUP2 SLOAD DUP2 MSTORE SWAP1 PUSH1 0x1 ADD SWAP1 PUSH1 0x20 ADD DUP1 DUP4 GT PUSH2 0x139D JUMPI DUP3 SWAP1 SUB PUSH1 0x1F AND DUP3 ADD SWAP2 JUMPDEST POP POP POP POP POP SWAP1 DUP1 PUSH1 0x5 ADD SLOAD SWAP1 DUP1 PUSH1 0x6 ADD PUSH0 SWAP1 SLOAD SWAP1 PUSH2 0x100 EXP SWAP1 DIV PUSH20 0xFFFFFFFFFFFFFFFFFFFFFFFFFFFFFFFFFFFFFFFF AND SWAP1 POP DUP8 JUMP JUMPDEST PUSH0 DUP1 SLOAD SWAP1 PUSH2 0x100 EXP SWAP1 DIV PUSH20 0xFFFFFFFFFFFFFFFFFFFFFFFFFFFFFFFFFFFFFFFF AND PUSH20 0xFFFFFFFFFFFFFFFFFFFFFFFFFFFFFFFFFFFFFFFF AND CALLER PUSH20 0xFFFFFFFFFFFFFFFFFFFFFFFFFFFFFFFFFFFFFFFF AND EQ PUSH2 0x147C JUMPI PUSH1 0x40 MLOAD PUSH32 0x8C379A000000000000000000000000000000000000000000000000000000000 DUP2 MSTORE PUSH1 0x4 ADD PUSH2 0x1473 SWAP1 PUSH2 0x221E JUMP JUMPDEST PUSH1 0x40 MLOAD DUP1 SWAP2 SUB SWAP1 REVERT JUMPDEST PUSH0 PUSH1 0x1 PUSH0 CALLER PUSH20 0xFFFFFFFFFFFFFFFFFFFFFFFFFFFFFFFFFFFFFFFF AND PUSH20 0xFFFFFFFFFFFFFFFFFFFFFFFFFFFFFFFFFFFFFFFF AND DUP2 MSTORE PUSH1 0x20 ADD SWAP1 DUP2 MSTORE PUSH1 0x20 ADD PUSH0 KECCAK256 SWAP1 POP PUSH0 DUP2 PUSH0 ADD SLOAD GT PUSH2 0x1501 JUMPI PUSH1 0x40 MLOAD PUSH32 0x8C379A000000000000000000000000000000000000000000000000000000000 DUP2 MSTORE PUSH1 0x4 ADD PUSH2 0x14F8 SWAP1 PUSH2 0x2777 JUMP JUMPDEST PUSH1 0x40 MLOAD DUP1 SWAP2 SUB SWAP1 REVERT JUMPDEST CALLER PUSH20 0xFFFFFFFFFFFFFFFFFFFFFFFFFFFFFFFFFFFFFFFF AND PUSH1 0x2 PUSH0 DUP9 DUP2 MSTORE PUSH1 0x20 ADD SWAP1 DUP2 MSTORE PUSH1 0x20 ADD PUSH0 KECCAK256 PUSH1 0xA ADD PUSH0 SWAP1 SLOAD SWAP1 PUSH2 0x100 EXP SWAP1 DIV PUSH20 0xFFFFFFFFFFFFFFFFFFFFFFFFFFFFFFFFFFFFFFFF AND PUSH20 0xFFFFFFFFFFFFFFFFFFFFFFFFFFFFFFFFFFFFFFFF AND EQ PUSH2 0x15A2 JUMPI PUSH1 0x40 MLOAD PUSH32 0x8C379A000000000000000000000000000000000000000000000000000000000 DUP2 MSTORE PUSH1 0x4 ADD PUSH2 0x1599 SWAP1 PUSH2 0x282B JUMP JUMPDEST PUSH1 0x40 MLOAD DUP1 SWAP2 SUB SWAP1 REVERT JUMPDEST PUSH1 0x40 MLOAD DUP1 PUSH2 0x100 ADD PUSH1 0x40 MSTORE DUP1 PUSH1 0x6 SLOAD DUP2 MSTORE PUSH1 0x20 ADD DUP8 DUP2 MSTORE PUSH1 0x20 ADD DUP3 PUSH0 ADD SLOAD DUP2 MSTORE PUSH1 0x20 ADD DUP3 PUSH1 0x1 ADD DUP1 SLOAD PUSH2 0x15D4 SWAP1 PUSH2 0x231D JUMP JUMPDEST DUP1 PUSH1 0x1F ADD PUSH1 0x20 DUP1 SWAP2 DIV MUL PUSH1 0x20 ADD PUSH1 0x40 MLOAD SWAP1 DUP2 ADD PUSH1 0x40 MSTORE DUP1 SWAP3 SWAP2 SWAP1 DUP2 DUP2 MSTORE PUSH1 0x20 ADD DUP3 DUP1 SLOAD PUSH2 0x1600 SWAP1 PUSH2 0x231D JUMP JUMPDEST DUP1 ISZERO PUSH2 0x164B JUMPI DUP1 PUSH1 0x1F LT PUSH2 0x1622 JUMPI PUSH2 0x100 DUP1 DUP4 SLOAD DIV MUL DUP4 MSTORE SWAP2 PUSH1 0x20 ADD SWAP2 PUSH2 0x164B JUMP JUMPDEST DUP3 ADD SWAP2 SWAP1 PUSH0 MSTORE PUSH1 0x20 PUSH0 KECCAK256 SWAP1 JUMPDEST DUP2 SLOAD DUP2 MSTORE SWAP1 PUSH1 0x1 ADD SWAP1 PUSH1 0x20 ADD DUP1 DUP4 GT PUSH2 0x162E JUMPI DUP3 SWAP1 SUB PUSH1 0x1F AND DUP3 ADD SWAP2 JUMPDEST POP POP POP POP POP DUP2 MSTORE PUSH1 0x20 ADD DUP7 DUP2 MSTORE PUSH1 0x20 ADD DUP6 DUP2 MSTORE PUSH1 0x20 ADD DUP5 DUP2 MSTORE PUSH1 0x20 ADD DUP4 DUP2 MSTORE POP PUSH1 0x3 PUSH0 PUSH1 0x6 SLOAD DUP2 MSTORE PUSH1 0x20 ADD SWAP1 DUP2 MSTORE PUSH1 0x20 ADD PUSH0 KECCAK256 PUSH0 DUP3 ADD MLOAD DUP2 PUSH0 ADD SSTORE PUSH1 0x20 DUP3 ADD MLOAD DUP2 PUSH1 0x1 ADD SSTORE PUSH1 0x40 DUP3 ADD MLOAD DUP2 PUSH1 0x2 ADD SSTORE PUSH1 0x60 DUP3 ADD MLOAD DUP2 PUSH1 0x3 ADD SWAP1 DUP2 PUSH2 0x16AF SWAP2 SWAP1 PUSH2 0x24EA JUMP JUMPDEST POP PUSH1 0x80 DUP3 ADD MLOAD DUP2 PUSH1 0x4 ADD SWAP1 DUP2 PUSH2 0x16C5 SWAP2 SWAP1 PUSH2 0x24EA JUMP JUMPDEST POP PUSH1 0xA0 DUP3 ADD MLOAD DUP2 PUSH1 0x5 ADD SWAP1 DUP2 PUSH2 0x16DB SWAP2 SWAP1 PUSH2 0x24EA JUMP JUMPDEST POP PUSH1 0xC0 DUP3 ADD MLOAD DUP2 PUSH1 0x6 ADD SWAP1 DUP2 PUSH2 0x16F1 SWAP2 SWAP1 PUSH2 0x24EA JUMP JUMPDEST POP PUSH1 0xE0 DUP3 ADD MLOAD DUP2 PUSH1 0x7 ADD SWAP1 DUP2 PUSH2 0x1707 SWAP2 SWAP1 PUSH2 0x24EA JUMP JUMPDEST POP SWAP1 POP POP PUSH1 0x6 PUSH0 DUP2 SLOAD DUP1 SWAP3 SWAP2 SWAP1 PUSH2 0x171D SWAP1 PUSH2 0x25E6 JUMP JUMPDEST SWAP2 SWAP1 POP SSTORE POP POP POP POP POP POP POP JUMP JUMPDEST PUSH1 0x7 SLOAD DUP2 JUMP JUMPDEST PUSH1 0x6 SLOAD DUP2 JUMP JUMPDEST PUSH1 0x4 PUSH1 0x20 MSTORE DUP1 PUSH0 MSTORE PUSH1 0x40 PUSH0 KECCAK256 PUSH0 SWAP2 POP SWAP1 POP SLOAD DUP2 JUMP JUMPDEST PUSH1 0x5 SLOAD DUP2 JUMP JUMPDEST PUSH0 DUP1 SLOAD SWAP1 PUSH2 0x100 EXP SWAP1 DIV PUSH20 0xFFFFFFFFFFFFFFFFFFFFFFFFFFFFFFFFFFFFFFFF AND DUP2 JUMP JUMPDEST PUSH0 PUSH1 0x40 MLOAD SWAP1 POP SWAP1 JUMP JUMPDEST PUSH0 DUP1 REVERT JUMPDEST PUSH0 DUP1 REVERT JUMPDEST PUSH0 DUP2 SWAP1 POP SWAP2 SWAP1 POP JUMP JUMPDEST PUSH2 0x1797 DUP2 PUSH2 0x1785 JUMP JUMPDEST DUP2 EQ PUSH2 0x17A1 JUMPI PUSH0 DUP1 REVERT JUMPDEST POP JUMP JUMPDEST PUSH0 DUP2 CALLDATALOAD SWAP1 POP PUSH2 0x17B2 DUP2 PUSH2 0x178E JUMP JUMPDEST SWAP3 SWAP2 POP POP JUMP JUMPDEST PUSH0 DUP1 REVERT JUMPDEST PUSH0 DUP1 REVERT JUMPDEST PUSH0 PUSH1 0x1F NOT PUSH1 0x1F DUP4 ADD AND SWAP1 POP SWAP2 SWAP1 POP JUMP JUMPDEST PUSH32 0x4E487B7100000000000000000000000000000000000000000000000000000000 PUSH0 MSTORE PUSH1 0x41 PUSH1 0x4 MSTORE PUSH1 0x24 PUSH0 REVERT JUMPDEST PUSH2 0x1806 DUP3 PUSH2 0x17C0 JUMP JUMPDEST DUP2 ADD DUP2 DUP2 LT PUSH8 0xFFFFFFFFFFFFFFFF DUP3 GT OR ISZERO PUSH2 0x1825 JUMPI PUSH2 0x1824 PUSH2 0x17D0 JUMP JUMPDEST JUMPDEST DUP1 PUSH1 0x40 MSTORE POP POP POP JUMP JUMPDEST PUSH0 PUSH2 0x1837 PUSH2 0x1774 JUMP JUMPDEST SWAP1 POP PUSH2 0x1843 DUP3 DUP3 PUSH2 0x17FD JUMP JUMPDEST SWAP2 SWAP1 POP JUMP JUMPDEST PUSH0 PUSH8 0xFFFFFFFFFFFFFFFF DUP3 GT ISZERO PUSH2 0x1862 JUMPI PUSH2 0x1861 PUSH2 0x17D0 JUMP JUMPDEST JUMPDEST PUSH2 0x186B DUP3 PUSH2 0x17C0 JUMP JUMPDEST SWAP1 POP PUSH1 0x20 DUP2 ADD SWAP1 POP SWAP2 SWAP1 POP JUMP JUMPDEST DUP3 DUP2 DUP4 CALLDATACOPY PUSH0 DUP4 DUP4 ADD MSTORE POP POP POP JUMP JUMPDEST PUSH0 PUSH2 0x1898 PUSH2 0x1893 DUP5 PUSH2 0x1848 JUMP JUMPDEST PUSH2 0x182E JUMP JUMPDEST SWAP1 POP DUP3 DUP2 MSTORE PUSH1 0x20 DUP2 ADD DUP5 DUP5 DUP5 ADD GT ISZERO PUSH2 0x18B4 JUMPI PUSH2 0x18B3 PUSH2 0x17BC JUMP JUMPDEST JUMPDEST PUSH2 0x18BF DUP5 DUP3 DUP6 PUSH2 0x1878 JUMP JUMPDEST POP SWAP4 SWAP3 POP POP POP JUMP JUMPDEST PUSH0 DUP3 PUSH1 0x1F DUP4 ADD SLT PUSH2 0x18DB JUMPI PUSH2 0x18DA PUSH2 0x17B8 JUMP JUMPDEST JUMPDEST DUP2 CALLDATALOAD PUSH2 0x18EB DUP5 DUP3 PUSH1 0x20 DUP7 ADD PUSH2 0x1886 JUMP JUMPDEST SWAP2 POP POP SWAP3 SWAP2 POP POP JUMP JUMPDEST PUSH0 DUP1 PUSH0 DUP1 PUSH0 DUP1 PUSH0 DUP1 PUSH0 PUSH2 0x120 DUP11 DUP13 SUB SLT ISZERO PUSH2 0x1912 JUMPI PUSH2 0x1911 PUSH2 0x177D JUMP JUMPDEST JUMPDEST PUSH0 PUSH2 0x191F DUP13 DUP3 DUP14 ADD PUSH2 0x17A4 JUMP JUMPDEST SWAP10 POP POP PUSH1 0x20 DUP11 ADD CALLDATALOAD PUSH8 0xFFFFFFFFFFFFFFFF DUP2 GT ISZERO PUSH2 0x1940 JUMPI PUSH2 0x193F PUSH2 0x1781 JUMP JUMPDEST JUMPDEST PUSH2 0x194C DUP13 DUP3 DUP14 ADD PUSH2 0x18C7 JUMP JUMPDEST SWAP9 POP POP PUSH1 0x40 DUP11 ADD CALLDATALOAD PUSH8 0xFFFFFFFFFFFFFFFF DUP2 GT ISZERO PUSH2 0x196D JUMPI PUSH2 0x196C PUSH2 0x1781 JUMP JUMPDEST JUMPDEST PUSH2 0x1979 DUP13 DUP3 DUP14 ADD PUSH2 0x18C7 JUMP JUMPDEST SWAP8 POP POP PUSH1 0x60 DUP11 ADD CALLDATALOAD PUSH8 0xFFFFFFFFFFFFFFFF DUP2 GT ISZERO PUSH2 0x199A JUMPI PUSH2 0x1999 PUSH2 0x1781 JUMP JUMPDEST JUMPDEST PUSH2 0x19A6 DUP13 DUP3 DUP14 ADD PUSH2 0x18C7 JUMP JUMPDEST SWAP7 POP POP PUSH1 0x80 DUP11 ADD CALLDATALOAD PUSH8 0xFFFFFFFFFFFFFFFF DUP2 GT ISZERO PUSH2 0x19C7 JUMPI PUSH2 0x19C6 PUSH2 0x1781 JUMP JUMPDEST JUMPDEST PUSH2 0x19D3 DUP13 DUP3 DUP14 ADD PUSH2 0x18C7 JUMP JUMPDEST SWAP6 POP POP PUSH1 0xA0 PUSH2 0x19E4 DUP13 DUP3 DUP14 ADD PUSH2 0x17A4 JUMP JUMPDEST SWAP5 POP POP PUSH1 0xC0 DUP11 ADD CALLDATALOAD PUSH8 0xFFFFFFFFFFFFFFFF DUP2 GT ISZERO PUSH2 0x1A05 JUMPI PUSH2 0x1A04 PUSH2 0x1781 JUMP JUMPDEST JUMPDEST PUSH2 0x1A11 DUP13 DUP3 DUP14 ADD PUSH2 0x18C7 JUMP JUMPDEST SWAP4 POP POP PUSH1 0xE0 DUP11 ADD CALLDATALOAD PUSH8 0xFFFFFFFFFFFFFFFF DUP2 GT ISZERO PUSH2 0x1A32 JUMPI PUSH2 0x1A31 PUSH2 0x1781 JUMP JUMPDEST JUMPDEST PUSH2 0x1A3E DUP13 DUP3 DUP14 ADD PUSH2 0x18C7 JUMP JUMPDEST SWAP3 POP POP PUSH2 0x100 DUP11 ADD CALLDATALOAD PUSH8 0xFFFFFFFFFFFFFFFF DUP2 GT ISZERO PUSH2 0x1A60 JUMPI PUSH2 0x1A5F PUSH2 0x1781 JUMP JUMPDEST JUMPDEST PUSH2 0x1A6C DUP13 DUP3 DUP14 ADD PUSH2 0x18C7 JUMP JUMPDEST SWAP2 POP POP SWAP3 SWAP6 SWAP9 POP SWAP3 SWAP6 SWAP9 POP SWAP3 SWAP6 SWAP9 JUMP JUMPDEST PUSH2 0x1A85 DUP2 PUSH2 0x1785 JUMP JUMPDEST DUP3 MSTORE POP POP JUMP JUMPDEST PUSH0 PUSH1 0x20 DUP3 ADD SWAP1 POP PUSH2 0x1A9E PUSH0 DUP4 ADD DUP5 PUSH2 0x1A7C JUMP JUMPDEST SWAP3 SWAP2 POP POP JUMP JUMPDEST PUSH0 DUP1 PUSH0 DUP1 PUSH1 0x80 DUP6 DUP8 SUB SLT ISZERO PUSH2 0x1ABC JUMPI PUSH2 0x1ABB PUSH2 0x177D JUMP JUMPDEST JUMPDEST PUSH0 DUP6 ADD CALLDATALOAD PUSH8 0xFFFFFFFFFFFFFFFF DUP2 GT ISZERO PUSH2 0x1AD9 JUMPI PUSH2 0x1AD8 PUSH2 0x1781 JUMP JUMPDEST JUMPDEST PUSH2 0x1AE5 DUP8 DUP3 DUP9 ADD PUSH2 0x18C7 JUMP JUMPDEST SWAP5 POP POP PUSH1 0x20 DUP6 ADD CALLDATALOAD PUSH8 0xFFFFFFFFFFFFFFFF DUP2 GT ISZERO PUSH2 0x1B06 JUMPI PUSH2 0x1B05 PUSH2 0x1781 JUMP JUMPDEST JUMPDEST PUSH2 0x1B12 DUP8 DUP3 DUP9 ADD PUSH2 0x18C7 JUMP JUMPDEST SWAP4 POP POP PUSH1 0x40 DUP6 ADD CALLDATALOAD PUSH8 0xFFFFFFFFFFFFFFFF DUP2 GT ISZERO PUSH2 0x1B33 JUMPI PUSH2 0x1B32 PUSH2 0x1781 JUMP JUMPDEST JUMPDEST PUSH2 0x1B3F DUP8 DUP3 DUP9 ADD PUSH2 0x18C7 JUMP JUMPDEST SWAP3 POP POP PUSH1 0x60 DUP6 ADD CALLDATALOAD PUSH8 0xFFFFFFFFFFFFFFFF DUP2 GT ISZERO PUSH2 0x1B60 JUMPI PUSH2 0x1B5F PUSH2 0x1781 JUMP JUMPDEST JUMPDEST PUSH2 0x1B6C DUP8 DUP3 DUP9 ADD PUSH2 0x18C7 JUMP JUMPDEST SWAP2 POP POP SWAP3 SWAP6 SWAP2 SWAP5 POP SWAP3 POP JUMP JUMPDEST PUSH0 PUSH1 0x20 DUP3 DUP5 SUB SLT ISZERO PUSH2 0x1B8D JUMPI PUSH2 0x1B8C PUSH2 0x177D JUMP JUMPDEST JUMPDEST PUSH0 PUSH2 0x1B9A DUP5 DUP3 DUP6 ADD PUSH2 0x17A4 JUMP JUMPDEST SWAP2 POP POP SWAP3 SWAP2 POP POP JUMP JUMPDEST PUSH0 DUP2 MLOAD SWAP1 POP SWAP2 SWAP1 POP JUMP JUMPDEST PUSH0 DUP3 DUP3 MSTORE PUSH1 0x20 DUP3 ADD SWAP1 POP SWAP3 SWAP2 POP POP JUMP JUMPDEST PUSH0 JUMPDEST DUP4 DUP2 LT ISZERO PUSH2 0x1BDA JUMPI DUP1 DUP3 ADD MLOAD DUP2 DUP5 ADD MSTORE PUSH1 0x20 DUP2 ADD SWAP1 POP PUSH2 0x1BBF JUMP JUMPDEST PUSH0 DUP5 DUP5 ADD MSTORE POP POP POP POP JUMP JUMPDEST PUSH0 PUSH2 0x1BEF DUP3 PUSH2 0x1BA3 JUMP JUMPDEST PUSH2 0x1BF9 DUP2 DUP6 PUSH2 0x1BAD JUMP JUMPDEST SWAP4 POP PUSH2 0x1C09 DUP2 DUP6 PUSH1 0x20 DUP7 ADD PUSH2 0x1BBD JUMP JUMPDEST PUSH2 0x1C12 DUP2 PUSH2 0x17C0 JUMP JUMPDEST DUP5 ADD SWAP2 POP POP SWAP3 SWAP2 POP POP JUMP JUMPDEST PUSH0 PUSH20 0xFFFFFFFFFFFFFFFFFFFFFFFFFFFFFFFFFFFFFFFF DUP3 AND SWAP1 POP SWAP2 SWAP1 POP JUMP JUMPDEST PUSH0 PUSH2 0x1C46 DUP3 PUSH2 0x1C1D JUMP JUMPDEST SWAP1 POP SWAP2 SWAP1 POP JUMP JUMPDEST PUSH2 0x1C56 DUP2 PUSH2 0x1C3C JUMP JUMPDEST DUP3 MSTORE POP POP JUMP JUMPDEST PUSH0 PUSH2 0x160 DUP3 ADD SWAP1 POP PUSH2 0x1C70 PUSH0 DUP4 ADD DUP15 PUSH2 0x1A7C JUMP JUMPDEST DUP2 DUP2 SUB PUSH1 0x20 DUP4 ADD MSTORE PUSH2 0x1C82 DUP2 DUP14 PUSH2 0x1BE5 JUMP JUMPDEST SWAP1 POP DUP2 DUP2 SUB PUSH1 0x40 DUP4 ADD MSTORE PUSH2 0x1C96 DUP2 DUP13 PUSH2 0x1BE5 JUMP JUMPDEST SWAP1 POP DUP2 DUP2 SUB PUSH1 0x60 DUP4 ADD MSTORE PUSH2 0x1CAA DUP2 DUP12 PUSH2 0x1BE5 JUMP JUMPDEST SWAP1 POP DUP2 DUP2 SUB PUSH1 0x80 DUP4 ADD MSTORE PUSH2 0x1CBE DUP2 DUP11 PUSH2 0x1BE5 JUMP JUMPDEST SWAP1 POP PUSH2 0x1CCD PUSH1 0xA0 DUP4 ADD DUP10 PUSH2 0x1A7C JUMP JUMPDEST DUP2 DUP2 SUB PUSH1 0xC0 DUP4 ADD MSTORE PUSH2 0x1CDF DUP2 DUP9 PUSH2 0x1BE5 JUMP JUMPDEST SWAP1 POP DUP2 DUP2 SUB PUSH1 0xE0 DUP4 ADD MSTORE PUSH2 0x1CF3 DUP2 DUP8 PUSH2 0x1BE5 JUMP JUMPDEST SWAP1 POP DUP2 DUP2 SUB PUSH2 0x100 DUP4 ADD MSTORE PUSH2 0x1D08 DUP2 DUP7 PUSH2 0x1BE5 JUMP JUMPDEST SWAP1 POP PUSH2 0x1D18 PUSH2 0x120 DUP4 ADD DUP6 PUSH2 0x1A7C JUMP JUMPDEST PUSH2 0x1D26 PUSH2 0x140 DUP4 ADD DUP5 PUSH2 0x1C4D JUMP JUMPDEST SWAP13 SWAP12 POP POP POP POP POP POP POP POP POP POP POP POP JUMP JUMPDEST PUSH0 DUP2 ISZERO ISZERO SWAP1 POP SWAP2 SWAP1 POP JUMP JUMPDEST PUSH2 0x1D4A DUP2 PUSH2 0x1D36 JUMP JUMPDEST DUP3 MSTORE POP POP JUMP JUMPDEST PUSH0 PUSH1 0x40 DUP3 ADD SWAP1 POP PUSH2 0x1D63 PUSH0 DUP4 ADD DUP6 PUSH2 0x1D41 JUMP JUMPDEST DUP2 DUP2 SUB PUSH1 0x20 DUP4 ADD MSTORE PUSH2 0x1D75 DUP2 DUP5 PUSH2 0x1BE5 JUMP JUMPDEST SWAP1 POP SWAP4 SWAP3 POP POP POP JUMP JUMPDEST PUSH0 DUP1 PUSH1 0x40 DUP4 DUP6 SUB SLT ISZERO PUSH2 0x1D94 JUMPI PUSH2 0x1D93 PUSH2 0x177D JUMP JUMPDEST JUMPDEST PUSH0 PUSH2 0x1DA1 DUP6 DUP3 DUP7 ADD PUSH2 0x17A4 JUMP JUMPDEST SWAP3 POP POP PUSH1 0x20 PUSH2 0x1DB2 DUP6 DUP3 DUP7 ADD PUSH2 0x17A4 JUMP JUMPDEST SWAP2 POP POP SWAP3 POP SWAP3 SWAP1 POP JUMP JUMPDEST PUSH0 DUP1 PUSH0 DUP1 PUSH0 DUP1 PUSH0 DUP1 PUSH2 0x100 DUP10 DUP12 SUB SLT ISZERO PUSH2 0x1DD9 JUMPI PUSH2 0x1DD8 PUSH2 0x177D JUMP JUMPDEST JUMPDEST PUSH0 DUP10 ADD CALLDATALOAD PUSH8 0xFFFFFFFFFFFFFFFF DUP2 GT ISZERO PUSH2 0x1DF6 JUMPI PUSH2 0x1DF5 PUSH2 0x1781 JUMP JUMPDEST JUMPDEST PUSH2 0x1E02 DUP12 DUP3 DUP13 ADD PUSH2 0x18C7 JUMP JUMPDEST SWAP9 POP POP PUSH1 0x20 DUP10 ADD CALLDATALOAD PUSH8 0xFFFFFFFFFFFFFFFF DUP2 GT ISZERO PUSH2 0x1E23 JUMPI PUSH2 0x1E22 PUSH2 0x1781 JUMP JUMPDEST JUMPDEST PUSH2 0x1E2F DUP12 DUP3 DUP13 ADD PUSH2 0x18C7 JUMP JUMPDEST SWAP8 POP POP PUSH1 0x40 DUP10 ADD CALLDATALOAD PUSH8 0xFFFFFFFFFFFFFFFF DUP2 GT ISZERO PUSH2 0x1E50 JUMPI PUSH2 0x1E4F PUSH2 0x1781 JUMP JUMPDEST JUMPDEST PUSH2 0x1E5C DUP12 DUP3 DUP13 ADD PUSH2 0x18C7 JUMP JUMPDEST SWAP7 POP POP PUSH1 0x60 DUP10 ADD CALLDATALOAD PUSH8 0xFFFFFFFFFFFFFFFF DUP2 GT ISZERO PUSH2 0x1E7D JUMPI PUSH2 0x1E7C PUSH2 0x1781 JUMP JUMPDEST JUMPDEST PUSH2 0x1E89 DUP12 DUP3 DUP13 ADD PUSH2 0x18C7 JUMP JUMPDEST SWAP6 POP POP PUSH1 0x80 PUSH2 0x1E9A DUP12 DUP3 DUP13 ADD PUSH2 0x17A4 JUMP JUMPDEST SWAP5 POP POP PUSH1 0xA0 DUP10 ADD CALLDATALOAD PUSH8 0xFFFFFFFFFFFFFFFF DUP2 GT ISZERO PUSH2 0x1EBB JUMPI PUSH2 0x1EBA PUSH2 0x1781 JUMP JUMPDEST JUMPDEST PUSH2 0x1EC7 DUP12 DUP3 DUP13 ADD PUSH2 0x18C7 JUMP JUMPDEST SWAP4 POP POP PUSH1 0xC0 DUP10 ADD CALLDATALOAD PUSH8 0xFFFFFFFFFFFFFFFF DUP2 GT ISZERO PUSH2 0x1EE8 JUMPI PUSH2 0x1EE7 PUSH2 0x1781 JUMP JUMPDEST JUMPDEST PUSH2 0x1EF4 DUP12 DUP3 DUP13 ADD PUSH2 0x18C7 JUMP JUMPDEST SWAP3 POP POP PUSH1 0xE0 DUP10 ADD CALLDATALOAD PUSH8 0xFFFFFFFFFFFFFFFF DUP2 GT ISZERO PUSH2 0x1F15 JUMPI PUSH2 0x1F14 PUSH2 0x1781 JUMP JUMPDEST JUMPDEST PUSH2 0x1F21 DUP12 DUP3 DUP13 ADD PUSH2 0x18C7 JUMP JUMPDEST SWAP2 POP POP SWAP3 SWAP6 SWAP9 POP SWAP3 SWAP6 SWAP9 SWAP1 SWAP4 SWAP7 POP JUMP JUMPDEST PUSH0 PUSH2 0x100 DUP3 ADD SWAP1 POP PUSH2 0x1F45 PUSH0 DUP4 ADD DUP12 PUSH2 0x1A7C JUMP JUMPDEST PUSH2 0x1F52 PUSH1 0x20 DUP4 ADD DUP11 PUSH2 0x1A7C JUMP JUMPDEST PUSH2 0x1F5F PUSH1 0x40 DUP4 ADD DUP10 PUSH2 0x1A7C JUMP JUMPDEST DUP2 DUP2 SUB PUSH1 0x60 DUP4 ADD MSTORE PUSH2 0x1F71 DUP2 DUP9 PUSH2 0x1BE5 JUMP JUMPDEST SWAP1 POP DUP2 DUP2 SUB PUSH1 0x80 DUP4 ADD MSTORE PUSH2 0x1F85 DUP2 DUP8 PUSH2 0x1BE5 JUMP JUMPDEST SWAP1 POP DUP2 DUP2 SUB PUSH1 0xA0 DUP4 ADD MSTORE PUSH2 0x1F99 DUP2 DUP7 PUSH2 0x1BE5 JUMP JUMPDEST SWAP1 POP DUP2 DUP2 SUB PUSH1 0xC0 DUP4 ADD MSTORE PUSH2 0x1FAD DUP2 DUP6 PUSH2 0x1BE5 JUMP JUMPDEST SWAP1 POP DUP2 DUP2 SUB PUSH1 0xE0 DUP4 ADD MSTORE PUSH2 0x1FC1 DUP2 DUP5 PUSH2 0x1BE5 JUMP JUMPDEST SWAP1 POP SWAP10 SWAP9 POP POP POP POP POP POP POP POP POP JUMP JUMPDEST PUSH2 0x1FD9 DUP2 PUSH2 0x1C3C JUMP JUMPDEST DUP2 EQ PUSH2 0x1FE3 JUMPI PUSH0 DUP1 REVERT JUMPDEST POP JUMP JUMPDEST PUSH0 DUP2 CALLDATALOAD SWAP1 POP PUSH2 0x1FF4 DUP2 PUSH2 0x1FD0 JUMP JUMPDEST SWAP3 SWAP2 POP POP JUMP JUMPDEST PUSH0 PUSH1 0x20 DUP3 DUP5 SUB SLT ISZERO PUSH2 0x200F JUMPI PUSH2 0x200E PUSH2 0x177D JUMP JUMPDEST JUMPDEST PUSH0 PUSH2 0x201C DUP5 DUP3 DUP6 ADD PUSH2 0x1FE6 JUMP JUMPDEST SWAP2 POP POP SWAP3 SWAP2 POP POP JUMP JUMPDEST PUSH0 PUSH1 0xE0 DUP3 ADD SWAP1 POP PUSH2 0x2038 PUSH0 DUP4 ADD DUP11 PUSH2 0x1A7C JUMP JUMPDEST DUP2 DUP2 SUB PUSH1 0x20 DUP4 ADD MSTORE PUSH2 0x204A DUP2 DUP10 PUSH2 0x1BE5 JUMP JUMPDEST SWAP1 POP DUP2 DUP2 SUB PUSH1 0x40 DUP4 ADD MSTORE PUSH2 0x205E DUP2 DUP9 PUSH2 0x1BE5 JUMP JUMPDEST SWAP1 POP DUP2 DUP2 SUB PUSH1 0x60 DUP4 ADD MSTORE PUSH2 0x2072 DUP2 DUP8 PUSH2 0x1BE5 JUMP JUMPDEST SWAP1 POP DUP2 DUP2 SUB PUSH1 0x80 DUP4 ADD MSTORE PUSH2 0x2086 DUP2 DUP7 PUSH2 0x1BE5 JUMP JUMPDEST SWAP1 POP PUSH2 0x2095 PUSH1 0xA0 DUP4 ADD DUP6 PUSH2 0x1A7C JUMP JUMPDEST PUSH2 0x20A2 PUSH1 0xC0 DUP4 ADD DUP5 PUSH2 0x1C4D JUMP JUMPDEST SWAP9 SWAP8 POP POP POP POP POP POP POP POP JUMP JUMPDEST PUSH0 DUP1 PUSH0 DUP1 PUSH0 PUSH1 0xA0 DUP7 DUP9 SUB SLT ISZERO PUSH2 0x20C7 JUMPI PUSH2 0x20C6 PUSH2 0x177D JUMP JUMPDEST JUMPDEST PUSH0 PUSH2 0x20D4 DUP9 DUP3 DUP10 ADD PUSH2 0x17A4 JUMP JUMPDEST SWAP6 POP POP PUSH1 0x20 DUP7 ADD CALLDATALOAD PUSH8 0xFFFFFFFFFFFFFFFF DUP2 GT ISZERO PUSH2 0x20F5 JUMPI PUSH2 0x20F4 PUSH2 0x1781 JUMP JUMPDEST JUMPDEST PUSH2 0x2101 DUP9 DUP3 DUP10 ADD PUSH2 0x18C7 JUMP JUMPDEST SWAP5 POP POP PUSH1 0x40 DUP7 ADD CALLDATALOAD PUSH8 0xFFFFFFFFFFFFFFFF DUP2 GT ISZERO PUSH2 0x2122 JUMPI PUSH2 0x2121 PUSH2 0x1781 JUMP JUMPDEST JUMPDEST PUSH2 0x212E DUP9 DUP3 DUP10 ADD PUSH2 0x18C7 JUMP JUMPDEST SWAP4 POP POP PUSH1 0x60 DUP7 ADD CALLDATALOAD PUSH8 0xFFFFFFFFFFFFFFFF DUP2 GT ISZERO PUSH2 0x214F JUMPI PUSH2 0x214E PUSH2 0x1781 JUMP JUMPDEST JUMPDEST PUSH2 0x215B DUP9 DUP3 DUP10 ADD PUSH2 0x18C7 JUMP JUMPDEST SWAP3 POP POP PUSH1 0x80 DUP7 ADD CALLDATALOAD PUSH8 0xFFFFFFFFFFFFFFFF DUP2 GT ISZERO PUSH2 0x217C JUMPI PUSH2 0x217B PUSH2 0x1781 JUMP JUMPDEST JUMPDEST PUSH2 0x2188 DUP9 DUP3 DUP10 ADD PUSH2 0x18C7 JUMP JUMPDEST SWAP2 POP POP SWAP3 SWAP6 POP SWAP3 SWAP6 SWAP1 SWAP4 POP JUMP JUMPDEST PUSH0 PUSH1 0x20 DUP3 ADD SWAP1 POP PUSH2 0x21A8 PUSH0 DUP4 ADD DUP5 PUSH2 0x1C4D JUMP JUMPDEST SWAP3 SWAP2 POP POP JUMP JUMPDEST PUSH32 0x5365756C206C2761646D696E6973747261746575722070657574206566666563 PUSH0 DUP3 ADD MSTORE PUSH32 0x74756572206365747465206F7065726174696F6E000000000000000000000000 PUSH1 0x20 DUP3 ADD MSTORE POP JUMP JUMPDEST PUSH0 PUSH2 0x2208 PUSH1 0x34 DUP4 PUSH2 0x1BAD JUMP JUMPDEST SWAP2 POP PUSH2 0x2213 DUP3 PUSH2 0x21AE JUMP JUMPDEST PUSH1 0x40 DUP3 ADD SWAP1 POP SWAP2 SWAP1 POP JUMP JUMPDEST PUSH0 PUSH1 0x20 DUP3 ADD SWAP1 POP DUP2 DUP2 SUB PUSH0 DUP4 ADD MSTORE PUSH2 0x2235 DUP2 PUSH2 0x21FC JUMP JUMPDEST SWAP1 POP SWAP2 SWAP1 POP JUMP JUMPDEST PUSH32 0x5365756C206C27657461626C697373656D656E74207175692061206372656520 PUSH0 DUP3 ADD MSTORE PUSH32 0x6C652070726F66696C2070657574206D65747472652061206A6F757220756E20 PUSH1 0x20 DUP3 ADD MSTORE PUSH32 0x6574756469616E74000000000000000000000000000000000000000000000000 PUSH1 0x40 DUP3 ADD MSTORE POP JUMP JUMPDEST PUSH0 PUSH2 0x22BC PUSH1 0x48 DUP4 PUSH2 0x1BAD JUMP JUMPDEST SWAP2 POP PUSH2 0x22C7 DUP3 PUSH2 0x223C JUMP JUMPDEST PUSH1 0x60 DUP3 ADD SWAP1 POP SWAP2 SWAP1 POP JUMP JUMPDEST PUSH0 PUSH1 0x20 DUP3 ADD SWAP1 POP DUP2 DUP2 SUB PUSH0 DUP4 ADD MSTORE PUSH2 0x22E9 DUP2 PUSH2 0x22B0 JUMP JUMPDEST SWAP1 POP SWAP2 SWAP1 POP JUMP JUMPDEST PUSH32 0x4E487B7100000000000000000000000000000000000000000000000000000000 PUSH0 MSTORE PUSH1 0x22 PUSH1 0x4 MSTORE PUSH1 0x24 PUSH0 REVERT JUMPDEST PUSH0 PUSH1 0x2 DUP3 DIV SWAP1 POP PUSH1 0x1 DUP3 AND DUP1 PUSH2 0x2334 JUMPI PUSH1 0x7F DUP3 AND SWAP2 POP JUMPDEST PUSH1 0x20 DUP3 LT DUP2 SUB PUSH2 0x2347 JUMPI PUSH2 0x2346 PUSH2 0x22F0 JUMP JUMPDEST JUMPDEST POP SWAP2 SWAP1 POP JUMP JUMPDEST PUSH0 DUP2 SWAP1 POP DUP2 PUSH0 MSTORE PUSH1 0x20 PUSH0 KECCAK256 SWAP1 POP SWAP2 SWAP1 POP JUMP JUMPDEST PUSH0 PUSH1 0x20 PUSH1 0x1F DUP4 ADD DIV SWAP1 POP SWAP2 SWAP1 POP JUMP JUMPDEST PUSH0 DUP3 DUP3 SHL SWAP1 POP SWAP3 SWAP2 POP POP JUMP JUMPDEST PUSH0 PUSH1 0x8 DUP4 MUL PUSH2 0x23A9 PUSH32 0xFFFFFFFFFFFFFFFFFFFFFFFFFFFFFFFFFFFFFFFFFFFFFFFFFFFFFFFFFFFFFFFF DUP3 PUSH2 0x236E JUMP JUMPDEST PUSH2 0x23B3 DUP7 DUP4 PUSH2 0x236E JUMP JUMPDEST SWAP6 POP DUP1 NOT DUP5 AND SWAP4 POP DUP1 DUP7 AND DUP5 OR SWAP3 POP POP POP SWAP4 SWAP3 POP POP POP JUMP JUMPDEST PUSH0 DUP2 SWAP1 POP SWAP2 SWAP1 POP JUMP JUMPDEST PUSH0 PUSH2 0x23EE PUSH2 0x23E9 PUSH2 0x23E4 DUP5 PUSH2 0x1785 JUMP JUMPDEST PUSH2 0x23CB JUMP JUMPDEST PUSH2 0x1785 JUMP JUMPDEST SWAP1 POP SWAP2 SWAP1 POP JUMP JUMPDEST PUSH0 DUP2 SWAP1 POP SWAP2 SWAP1 POP JUMP JUMPDEST PUSH2 0x2407 DUP4 PUSH2 0x23D4 JUMP JUMPDEST PUSH2 0x241B PUSH2 0x2413 DUP3 PUSH2 0x23F5 JUMP JUMPDEST DUP5 DUP5 SLOAD PUSH2 0x237A JUMP JUMPDEST DUP3 SSTORE POP POP POP POP JUMP JUMPDEST PUSH0 SWAP1 JUMP JUMPDEST PUSH2 0x242F PUSH2 0x2423 JUMP JUMPDEST PUSH2 0x243A DUP2 DUP5 DUP5 PUSH2 0x23FE JUMP JUMPDEST POP POP POP JUMP JUMPDEST JUMPDEST DUP2 DUP2 LT ISZERO PUSH2 0x245D JUMPI PUSH2 0x2452 PUSH0 DUP3 PUSH2 0x2427 JUMP JUMPDEST PUSH1 0x1 DUP2 ADD SWAP1 POP PUSH2 0x2440 JUMP JUMPDEST POP POP JUMP JUMPDEST PUSH1 0x1F DUP3 GT ISZERO PUSH2 0x24A2 JUMPI PUSH2 0x2473 DUP2 PUSH2 0x234D JUMP JUMPDEST PUSH2 0x247C DUP5 PUSH2 0x235F JUMP JUMPDEST DUP2 ADD PUSH1 0x20 DUP6 LT ISZERO PUSH2 0x248B JUMPI DUP2 SWAP1 POP JUMPDEST PUSH2 0x249F PUSH2 0x2497 DUP6 PUSH2 0x235F JUMP JUMPDEST DUP4 ADD DUP3 PUSH2 0x243F JUMP JUMPDEST POP POP JUMPDEST POP POP POP JUMP JUMPDEST PUSH0 DUP3 DUP3 SHR SWAP1 POP SWAP3 SWAP2 POP POP JUMP JUMPDEST PUSH0 PUSH2 0x24C2 PUSH0 NOT DUP5 PUSH1 0x8 MUL PUSH2 0x24A7 JUMP JUMPDEST NOT DUP1 DUP4 AND SWAP2 POP POP SWAP3 SWAP2 POP POP JUMP JUMPDEST PUSH0 PUSH2 0x24DA DUP4 DUP4 PUSH2 0x24B3 JUMP JUMPDEST SWAP2 POP DUP3 PUSH1 0x2 MUL DUP3 OR SWAP1 POP SWAP3 SWAP2 POP POP JUMP JUMPDEST PUSH2 0x24F3 DUP3 PUSH2 0x1BA3 JUMP JUMPDEST PUSH8 0xFFFFFFFFFFFFFFFF DUP2 GT ISZERO PUSH2 0x250C JUMPI PUSH2 0x250B PUSH2 0x17D0 JUMP JUMPDEST JUMPDEST PUSH2 0x2516 DUP3 SLOAD PUSH2 0x231D JUMP JUMPDEST PUSH2 0x2521 DUP3 DUP3 DUP6 PUSH2 0x2461 JUMP JUMPDEST PUSH0 PUSH1 0x20 SWAP1 POP PUSH1 0x1F DUP4 GT PUSH1 0x1 DUP2 EQ PUSH2 0x2552 JUMPI PUSH0 DUP5 ISZERO PUSH2 0x2540 JUMPI DUP3 DUP8 ADD MLOAD SWAP1 POP JUMPDEST PUSH2 0x254A DUP6 DUP3 PUSH2 0x24CF JUMP JUMPDEST DUP7 SSTORE POP PUSH2 0x25B1 JUMP JUMPDEST PUSH1 0x1F NOT DUP5 AND PUSH2 0x2560 DUP7 PUSH2 0x234D JUMP JUMPDEST PUSH0 JUMPDEST DUP3 DUP2 LT ISZERO PUSH2 0x2587 JUMPI DUP5 DUP10 ADD MLOAD DUP3 SSTORE PUSH1 0x1 DUP3 ADD SWAP2 POP PUSH1 0x20 DUP6 ADD SWAP5 POP PUSH1 0x20 DUP2 ADD SWAP1 POP PUSH2 0x2562 JUMP JUMPDEST DUP7 DUP4 LT ISZERO PUSH2 0x25A4 JUMPI DUP5 DUP10 ADD MLOAD PUSH2 0x25A0 PUSH1 0x1F DUP10 AND DUP3 PUSH2 0x24B3 JUMP JUMPDEST DUP4 SSTORE POP JUMPDEST PUSH1 0x1 PUSH1 0x2 DUP9 MUL ADD DUP9 SSTORE POP POP POP JUMPDEST POP POP POP POP POP POP JUMP JUMPDEST PUSH32 0x4E487B7100000000000000000000000000000000000000000000000000000000 PUSH0 MSTORE PUSH1 0x11 PUSH1 0x4 MSTORE PUSH1 0x24 PUSH0 REVERT JUMPDEST PUSH0 PUSH2 0x25F0 DUP3 PUSH2 0x1785 JUMP JUMPDEST SWAP2 POP PUSH32 0xFFFFFFFFFFFFFFFFFFFFFFFFFFFFFFFFFFFFFFFFFFFFFFFFFFFFFFFFFFFFFFFF DUP3 SUB PUSH2 0x2622 JUMPI PUSH2 0x2621 PUSH2 0x25B9 JUMP JUMPDEST JUMPDEST PUSH1 0x1 DUP3 ADD SWAP1 POP SWAP2 SWAP1 POP JUMP JUMPDEST PUSH32 0x4C27657461626C697373656D656E74206E2765786973746520706173206F7520 PUSH0 DUP3 ADD MSTORE PUSH32 0x6E276120706173206C652064726F697420646520637265657220756E2070726F PUSH1 0x20 DUP3 ADD MSTORE PUSH32 0x66696C0000000000000000000000000000000000000000000000000000000000 PUSH1 0x40 DUP3 ADD MSTORE POP JUMP JUMPDEST PUSH0 PUSH2 0x26AD PUSH1 0x43 DUP4 PUSH2 0x1BAD JUMP JUMPDEST SWAP2 POP PUSH2 0x26B8 DUP3 PUSH2 0x262D JUMP JUMPDEST PUSH1 0x60 DUP3 ADD SWAP1 POP SWAP2 SWAP1 POP JUMP JUMPDEST PUSH0 PUSH1 0x20 DUP3 ADD SWAP1 POP DUP2 DUP2 SUB PUSH0 DUP4 ADD MSTORE PUSH2 0x26DA DUP2 PUSH2 0x26A1 JUMP JUMPDEST SWAP1 POP SWAP2 SWAP1 POP JUMP JUMPDEST PUSH32 0x4C27657461626C697373656D656E74206E2765786973746520706173206F7520 PUSH0 DUP3 ADD MSTORE PUSH32 0x6E276120706173206C652064726F6974206427616A6F7574657220756E206469 PUSH1 0x20 DUP3 ADD MSTORE PUSH32 0x706C6F6D65000000000000000000000000000000000000000000000000000000 PUSH1 0x40 DUP3 ADD MSTORE POP JUMP JUMPDEST PUSH0 PUSH2 0x2761 PUSH1 0x45 DUP4 PUSH2 0x1BAD JUMP JUMPDEST SWAP2 POP PUSH2 0x276C DUP3 PUSH2 0x26E1 JUMP JUMPDEST PUSH1 0x60 DUP3 ADD SWAP1 POP SWAP2 SWAP1 POP JUMP JUMPDEST PUSH0 PUSH1 0x20 DUP3 ADD SWAP1 POP DUP2 DUP2 SUB PUSH0 DUP4 ADD MSTORE PUSH2 0x278E DUP2 PUSH2 0x2755 JUMP JUMPDEST SWAP1 POP SWAP2 SWAP1 POP JUMP JUMPDEST PUSH32 0x5365756C206C27657461626C697373656D656E74207175692061206372656520 PUSH0 DUP3 ADD MSTORE PUSH32 0x6C652070726F66696C207065757420616A6F7574657220756E206469706C6F6D PUSH1 0x20 DUP3 ADD MSTORE PUSH32 0x6500000000000000000000000000000000000000000000000000000000000000 PUSH1 0x40 DUP3 ADD MSTORE POP JUMP JUMPDEST PUSH0 PUSH2 0x2815 PUSH1 0x41 DUP4 PUSH2 0x1BAD JUMP JUMPDEST SWAP2 POP PUSH2 0x2820 DUP3 PUSH2 0x2795 JUMP JUMPDEST PUSH1 0x60 DUP3 ADD SWAP1 POP SWAP2 SWAP1 POP JUMP JUMPDEST PUSH0 PUSH1 0x20 DUP3 ADD SWAP1 POP DUP2 DUP2 SUB PUSH0 DUP4 ADD MSTORE PUSH2 0x2842 DUP2 PUSH2 0x2809 JUMP JUMPDEST SWAP1 POP SWAP2 SWAP1 POP JUMP INVALID LOG2 PUSH5 0x6970667358 0x22 SLT KECCAK256 EXTCODECOPY 0xAD PUSH0 REVERT SWAP8 0x2F 0x4E SUB DUP9 SWAP14 PUSH6 0x3DBD51136A1F 0xB8 PUSH31 0x7DF5B49220E37E71F00D7B224D64736F6C6343000817003300000000000000 "
				},
				"gasEstimates": {
					"creation": {
						"codeDepositCost": "2073400",
						"executionCost": "114887",
						"totalCost": "2188287"
					},
					"external": {
						"AgentId()": "2471",
						"CreerDiplome(uint256,string,string,string,string)": "infinite",
						"CreerEtablissement(string,string,string,string)": "infinite",
						"CreerEtudiant(string,string,string,string,uint256,string,string,string)": "infinite",
						"DiplomeId()": "2447",
						"EtablissementId()": "2514",
						"EtudiantId()": "2491",
						"VerifierDiplome(uint256)": "infinite",
						"admin()": "2593",
						"diplomes(uint256)": "infinite",
						"etablissements(address)": "infinite",
						"etudiants(uint256)": "infinite",
						"evaluationEtudiants(address)": "2846",
						"modifierEtudiant(uint256,string,string,string,string,uint256,string,string,string)": "infinite",
						"updateStudentEvaluation(uint256,uint256)": "infinite"
					}
				},
				"methodIdentifiers": {
					"AgentId()": "1b86c700",
					"CreerDiplome(uint256,string,string,string,string)": "8930e1e7",
					"CreerEtablissement(string,string,string,string)": "22973874",
					"CreerEtudiant(string,string,string,string,uint256,string,string,string)": "71e6945c",
					"DiplomeId()": "ab7fb429",
					"EtablissementId()": "a75bd042",
					"EtudiantId()": "ccaf842b",
					"VerifierDiplome(uint256)": "5bc4fad8",
					"admin()": "f851a440",
					"diplomes(uint256)": "768ceb9a",
					"etablissements(address)": "8256d51c",
					"etudiants(uint256)": "235a30fa",
					"evaluationEtudiants(address)": "ca863210",
					"modifierEtudiant(uint256,string,string,string,string,uint256,string,string,string)": "082e81ef",
					"updateStudentEvaluation(uint256,uint256)": "645041bf"
				}
			},
			"storageLayout": {
				"storage": [
					{
						"astId": 3,
						"contract": "Projet_Blockchain_Dev/contracts/Projet_Blockchain/_Etablissement.sol:EtablissementContrat",
						"label": "admin",
						"offset": 0,
						"slot": "0",
						"type": "t_address"
					},
					{
						"astId": 84,
						"contract": "Projet_Blockchain_Dev/contracts/Projet_Blockchain/_Etablissement.sol:EtablissementContrat",
						"label": "etablissements",
						"offset": 0,
						"slot": "1",
						"type": "t_mapping(t_address,t_struct(Etablissement)62_storage)"
					},
					{
						"astId": 89,
						"contract": "Projet_Blockchain_Dev/contracts/Projet_Blockchain/_Etablissement.sol:EtablissementContrat",
						"label": "etudiants",
						"offset": 0,
						"slot": "2",
						"type": "t_mapping(t_uint256,t_struct(Etudiant)47_storage)"
					},
					{
						"astId": 94,
						"contract": "Projet_Blockchain_Dev/contracts/Projet_Blockchain/_Etablissement.sol:EtablissementContrat",
						"label": "diplomes",
						"offset": 0,
						"slot": "3",
						"type": "t_mapping(t_uint256,t_struct(Diplome)79_storage)"
					},
					{
						"astId": 98,
						"contract": "Projet_Blockchain_Dev/contracts/Projet_Blockchain/_Etablissement.sol:EtablissementContrat",
						"label": "evaluationEtudiants",
						"offset": 0,
						"slot": "4",
						"type": "t_mapping(t_address,t_uint256)"
					},
					{
						"astId": 101,
						"contract": "Projet_Blockchain_Dev/contracts/Projet_Blockchain/_Etablissement.sol:EtablissementContrat",
						"label": "EtudiantId",
						"offset": 0,
						"slot": "5",
						"type": "t_uint256"
					},
					{
						"astId": 104,
						"contract": "Projet_Blockchain_Dev/contracts/Projet_Blockchain/_Etablissement.sol:EtablissementContrat",
						"label": "DiplomeId",
						"offset": 0,
						"slot": "6",
						"type": "t_uint256"
					},
					{
						"astId": 107,
						"contract": "Projet_Blockchain_Dev/contracts/Projet_Blockchain/_Etablissement.sol:EtablissementContrat",
						"label": "EtablissementId",
						"offset": 0,
						"slot": "7",
						"type": "t_uint256"
					},
					{
						"astId": 110,
						"contract": "Projet_Blockchain_Dev/contracts/Projet_Blockchain/_Etablissement.sol:EtablissementContrat",
						"label": "AgentId",
						"offset": 0,
						"slot": "8",
						"type": "t_uint256"
					}
				],
				"types": {
					"t_address": {
						"encoding": "inplace",
						"label": "address",
						"numberOfBytes": "20"
					},
					"t_mapping(t_address,t_struct(Etablissement)62_storage)": {
						"encoding": "mapping",
						"key": "t_address",
						"label": "mapping(address => struct EtablissementContrat.Etablissement)",
						"numberOfBytes": "32",
						"value": "t_struct(Etablissement)62_storage"
					},
					"t_mapping(t_address,t_uint256)": {
						"encoding": "mapping",
						"key": "t_address",
						"label": "mapping(address => uint256)",
						"numberOfBytes": "32",
						"value": "t_uint256"
					},
					"t_mapping(t_uint256,t_struct(Diplome)79_storage)": {
						"encoding": "mapping",
						"key": "t_uint256",
						"label": "mapping(uint256 => struct EtablissementContrat.Diplome)",
						"numberOfBytes": "32",
						"value": "t_struct(Diplome)79_storage"
					},
					"t_mapping(t_uint256,t_struct(Etudiant)47_storage)": {
						"encoding": "mapping",
						"key": "t_uint256",
						"label": "mapping(uint256 => struct EtablissementContrat.Etudiant)",
						"numberOfBytes": "32",
						"value": "t_struct(Etudiant)47_storage"
					},
					"t_string_storage": {
						"encoding": "bytes",
						"label": "string",
						"numberOfBytes": "32"
					},
					"t_struct(Diplome)79_storage": {
						"encoding": "inplace",
						"label": "struct EtablissementContrat.Diplome",
						"members": [
							{
								"astId": 64,
								"contract": "Projet_Blockchain_Dev/contracts/Projet_Blockchain/_Etablissement.sol:EtablissementContrat",
								"label": "id_diplome",
								"offset": 0,
								"slot": "0",
								"type": "t_uint256"
							},
							{
								"astId": 66,
								"contract": "Projet_Blockchain_Dev/contracts/Projet_Blockchain/_Etablissement.sol:EtablissementContrat",
								"label": "id_titulaire",
								"offset": 0,
								"slot": "1",
								"type": "t_uint256"
							},
							{
								"astId": 68,
								"contract": "Projet_Blockchain_Dev/contracts/Projet_Blockchain/_Etablissement.sol:EtablissementContrat",
								"label": "id_ees",
								"offset": 0,
								"slot": "2",
								"type": "t_uint256"
							},
							{
								"astId": 70,
								"contract": "Projet_Blockchain_Dev/contracts/Projet_Blockchain/_Etablissement.sol:EtablissementContrat",
								"label": "nom_ees",
								"offset": 0,
								"slot": "3",
								"type": "t_string_storage"
							},
							{
								"astId": 72,
								"contract": "Projet_Blockchain_Dev/contracts/Projet_Blockchain/_Etablissement.sol:EtablissementContrat",
								"label": "type_diplome",
								"offset": 0,
								"slot": "4",
								"type": "t_string_storage"
							},
							{
								"astId": 74,
								"contract": "Projet_Blockchain_Dev/contracts/Projet_Blockchain/_Etablissement.sol:EtablissementContrat",
								"label": "specialite",
								"offset": 0,
								"slot": "5",
								"type": "t_string_storage"
							},
							{
								"astId": 76,
								"contract": "Projet_Blockchain_Dev/contracts/Projet_Blockchain/_Etablissement.sol:EtablissementContrat",
								"label": "mention",
								"offset": 0,
								"slot": "6",
								"type": "t_string_storage"
							},
							{
								"astId": 78,
								"contract": "Projet_Blockchain_Dev/contracts/Projet_Blockchain/_Etablissement.sol:EtablissementContrat",
								"label": "date_obtention",
								"offset": 0,
								"slot": "7",
								"type": "t_string_storage"
							}
						],
						"numberOfBytes": "256"
					},
					"t_struct(Etablissement)62_storage": {
						"encoding": "inplace",
						"label": "struct EtablissementContrat.Etablissement",
						"members": [
							{
								"astId": 49,
								"contract": "Projet_Blockchain_Dev/contracts/Projet_Blockchain/_Etablissement.sol:EtablissementContrat",
								"label": "id_ees",
								"offset": 0,
								"slot": "0",
								"type": "t_uint256"
							},
							{
								"astId": 51,
								"contract": "Projet_Blockchain_Dev/contracts/Projet_Blockchain/_Etablissement.sol:EtablissementContrat",
								"label": "nom_ees",
								"offset": 0,
								"slot": "1",
								"type": "t_string_storage"
							},
							{
								"astId": 53,
								"contract": "Projet_Blockchain_Dev/contracts/Projet_Blockchain/_Etablissement.sol:EtablissementContrat",
								"label": "type_ees",
								"offset": 0,
								"slot": "2",
								"type": "t_string_storage"
							},
							{
								"astId": 55,
								"contract": "Projet_Blockchain_Dev/contracts/Projet_Blockchain/_Etablissement.sol:EtablissementContrat",
								"label": "pays_ees",
								"offset": 0,
								"slot": "3",
								"type": "t_string_storage"
							},
							{
								"astId": 57,
								"contract": "Projet_Blockchain_Dev/contracts/Projet_Blockchain/_Etablissement.sol:EtablissementContrat",
								"label": "site_web_ees",
								"offset": 0,
								"slot": "4",
								"type": "t_string_storage"
							},
							{
								"astId": 59,
								"contract": "Projet_Blockchain_Dev/contracts/Projet_Blockchain/_Etablissement.sol:EtablissementContrat",
								"label": "id_agent_ees",
								"offset": 0,
								"slot": "5",
								"type": "t_uint256"
							},
							{
								"astId": 61,
								"contract": "Projet_Blockchain_Dev/contracts/Projet_Blockchain/_Etablissement.sol:EtablissementContrat",
								"label": "adminAgent",
								"offset": 0,
								"slot": "6",
								"type": "t_address"
							}
						],
						"numberOfBytes": "224"
					},
					"t_struct(Etudiant)47_storage": {
						"encoding": "inplace",
						"label": "struct EtablissementContrat.Etudiant",
						"members": [
							{
								"astId": 26,
								"contract": "Projet_Blockchain_Dev/contracts/Projet_Blockchain/_Etablissement.sol:EtablissementContrat",
								"label": "id_etudiant",
								"offset": 0,
								"slot": "0",
								"type": "t_uint256"
							},
							{
								"astId": 28,
								"contract": "Projet_Blockchain_Dev/contracts/Projet_Blockchain/_Etablissement.sol:EtablissementContrat",
								"label": "nom_etudiant",
								"offset": 0,
								"slot": "1",
								"type": "t_string_storage"
							},
							{
								"astId": 30,
								"contract": "Projet_Blockchain_Dev/contracts/Projet_Blockchain/_Etablissement.sol:EtablissementContrat",
								"label": "prenom_etudiant",
								"offset": 0,
								"slot": "2",
								"type": "t_string_storage"
							},
							{
								"astId": 32,
								"contract": "Projet_Blockchain_Dev/contracts/Projet_Blockchain/_Etablissement.sol:EtablissementContrat",
								"label": "sexe",
								"offset": 0,
								"slot": "3",
								"type": "t_string_storage"
							},
							{
								"astId": 34,
								"contract": "Projet_Blockchain_Dev/contracts/Projet_Blockchain/_Etablissement.sol:EtablissementContrat",
								"label": "sujet_pfe",
								"offset": 0,
								"slot": "4",
								"type": "t_string_storage"
							},
							{
								"astId": 36,
								"contract": "Projet_Blockchain_Dev/contracts/Projet_Blockchain/_Etablissement.sol:EtablissementContrat",
								"label": "id_entreprise",
								"offset": 0,
								"slot": "5",
								"type": "t_uint256"
							},
							{
								"astId": 38,
								"contract": "Projet_Blockchain_Dev/contracts/Projet_Blockchain/_Etablissement.sol:EtablissementContrat",
								"label": "maitreStage",
								"offset": 0,
								"slot": "6",
								"type": "t_string_storage"
							},
							{
								"astId": 40,
								"contract": "Projet_Blockchain_Dev/contracts/Projet_Blockchain/_Etablissement.sol:EtablissementContrat",
								"label": "date_debut_stage",
								"offset": 0,
								"slot": "7",
								"type": "t_string_storage"
							},
							{
								"astId": 42,
								"contract": "Projet_Blockchain_Dev/contracts/Projet_Blockchain/_Etablissement.sol:EtablissementContrat",
								"label": "date_fin_stage",
								"offset": 0,
								"slot": "8",
								"type": "t_string_storage"
							},
							{
								"astId": 44,
								"contract": "Projet_Blockchain_Dev/contracts/Projet_Blockchain/_Etablissement.sol:EtablissementContrat",
								"label": "evaluation",
								"offset": 0,
								"slot": "9",
								"type": "t_uint256"
							},
							{
								"astId": 46,
								"contract": "Projet_Blockchain_Dev/contracts/Projet_Blockchain/_Etablissement.sol:EtablissementContrat",
								"label": "profileAgent",
								"offset": 0,
								"slot": "10",
								"type": "t_address"
							}
						],
						"numberOfBytes": "352"
					},
					"t_uint256": {
						"encoding": "inplace",
						"label": "uint256",
						"numberOfBytes": "32"
					}
				}
			},
			"userdoc": {
				"kind": "user",
				"methods": {},
				"version": 1
			}
		}
	}
}