{
	"data": {
		"bytecode": {
			"linkReferences": {},
			"object": "6080604052600160035560016004553480156200001a575f80fd5b50604051620019fc380380620019fc83398181016040528101906200004091906200013e565b335f806101000a81548173ffffffffffffffffffffffffffffffffffffffff021916908373ffffffffffffffffffffffffffffffffffffffff1602179055508060015f6101000a81548173ffffffffffffffffffffffffffffffffffffffff021916908373ffffffffffffffffffffffffffffffffffffffff160217905550506200016e565b5f80fd5b5f73ffffffffffffffffffffffffffffffffffffffff82169050919050565b5f620000f582620000ca565b9050919050565b5f6200010882620000e9565b9050919050565b6200011a81620000fc565b811462000125575f80fd5b50565b5f8151905062000138816200010f565b92915050565b5f60208284031215620001565762000155620000c6565b5b5f620001658482850162000128565b91505092915050565b611880806200017c5f395ff3fe608060405234801561000f575f80fd5b5060043610610086575f3560e01c806365eb30351161005957806365eb3035146101135780637148b4881461014d57806372f910681461016b578063754bd3641461018757610086565b806340f50fe11461008a5780634c326c48146100a85780634fb8a120146100c65780635bc4fad8146100e2575b5f80fd5b6100926101a5565b60405161009f9190610c05565b60405180910390f35b6100b06101ab565b6040516100bd9190610c05565b60405180910390f35b6100e060048036038101906100db9190610c59565b6101b1565b005b6100fc60048036038101906100f79190610c97565b610310565b60405161010a929190610d66565b60405180910390f35b61012d60048036038101906101289190610dee565b61048a565b6040516101449b9a99989796959493929190610e28565b60405180910390f35b61015561092f565b6040516101629190610f09565b60405180910390f35b6101856004803603810190610180919061104e565b610952565b005b61018f610bc8565b60405161019c919061123a565b60405180910390f35b60045481565b60035481565b5f60025f3373ffffffffffffffffffffffffffffffffffffffff1673ffffffffffffffffffffffffffffffffffffffff1681526020019081526020015f2090503373ffffffffffffffffffffffffffffffffffffffff1681600a015f9054906101000a900473ffffffffffffffffffffffffffffffffffffffff1673ffffffffffffffffffffffffffffffffffffffff1614610282576040517f08c379a0000000000000000000000000000000000000000000000000000000008152600401610279906112c3565b60405180910390fd5b60015f9054906101000a900473ffffffffffffffffffffffffffffffffffffffff1673ffffffffffffffffffffffffffffffffffffffff1663645041bf84846040518363ffffffff1660e01b81526004016102de9291906112e1565b5f604051808303815f87803b1580156102f5575f80fd5b505af1158015610307573d5f803e3d5ffd5b50505050505050565b5f60605f60025f3373ffffffffffffffffffffffffffffffffffffffff1673ffffffffffffffffffffffffffffffffffffffff1681526020019081526020015f2090503373ffffffffffffffffffffffffffffffffffffffff1681600a015f9054906101000a900473ffffffffffffffffffffffffffffffffffffffff1673ffffffffffffffffffffffffffffffffffffffff16146103e4576040517f08c379a00000000000000000000000000000000000000000000000000000000081526004016103db90611378565b60405180910390fd5b60015f9054906101000a900473ffffffffffffffffffffffffffffffffffffffff1673ffffffffffffffffffffffffffffffffffffffff16635bc4fad8856040518263ffffffff1660e01b815260040161043e9190610c05565b5f60405180830381865afa158015610458573d5f803e3d5ffd5b505050506040513d5f823e3d601f19601f82011682018060405250810190610480919061142e565b9250925050915091565b6002602052805f5260405f205f91509050805f0154908060010180546104af906114b5565b80601f01602080910402602001604051908101604052809291908181526020018280546104db906114b5565b80156105265780601f106104fd57610100808354040283529160200191610526565b820191905f5260205f20905b81548152906001019060200180831161050957829003601f168201915b50505050509080600201805461053b906114b5565b80601f0160208091040260200160405190810160405280929190818152602001828054610567906114b5565b80156105b25780601f10610589576101008083540402835291602001916105b2565b820191905f5260205f20905b81548152906001019060200180831161059557829003601f168201915b5050505050908060030180546105c7906114b5565b80601f01602080910402602001604051908101604052809291908181526020018280546105f3906114b5565b801561063e5780601f106106155761010080835404028352916020019161063e565b820191905f5260205f20905b81548152906001019060200180831161062157829003601f168201915b505050505090806004018054610653906114b5565b80601f016020809104026020016040519081016040528092919081815260200182805461067f906114b5565b80156106ca5780601f106106a1576101008083540402835291602001916106ca565b820191905f5260205f20905b8154815290600101906020018083116106ad57829003601f168201915b5050505050908060050180546106df906114b5565b80601f016020809104026020016040519081016040528092919081815260200182805461070b906114b5565b80156107565780601f1061072d57610100808354040283529160200191610756565b820191905f5260205f20905b81548152906001019060200180831161073957829003601f168201915b50505050509080600601805461076b906114b5565b80601f0160208091040260200160405190810160405280929190818152602001828054610797906114b5565b80156107e25780601f106107b9576101008083540402835291602001916107e2565b820191905f5260205f20905b8154815290600101906020018083116107c557829003601f168201915b5050505050908060070180546107f7906114b5565b80601f0160208091040260200160405190810160405280929190818152602001828054610823906114b5565b801561086e5780601f106108455761010080835404028352916020019161086e565b820191905f5260205f20905b81548152906001019060200180831161085157829003601f168201915b505050505090806008018054610883906114b5565b80601f01602080910402602001604051908101604052809291908181526020018280546108af906114b5565b80156108fa5780601f106108d1576101008083540402835291602001916108fa565b820191905f5260205f20905b8154815290600101906020018083116108dd57829003601f168201915b50505050509080600901549080600a015f9054906101000a900473ffffffffffffffffffffffffffffffffffffffff1690508b565b5f8054906101000a900473ffffffffffffffffffffffffffffffffffffffff1681565b5f8054906101000a900473ffffffffffffffffffffffffffffffffffffffff1673ffffffffffffffffffffffffffffffffffffffff163373ffffffffffffffffffffffffffffffffffffffff16146109df576040517f08c379a00000000000000000000000000000000000000000000000000000000081526004016109d690611555565b60405180910390fd5b604051806101600160405280600354815260200189815260200188815260200187815260200186815260200185815260200184815260200183815260200182815260200160045481526020013373ffffffffffffffffffffffffffffffffffffffff1681525060025f3373ffffffffffffffffffffffffffffffffffffffff1673ffffffffffffffffffffffffffffffffffffffff1681526020019081526020015f205f820151815f01556020820151816001019081610a9f9190611707565b506040820151816002019081610ab59190611707565b506060820151816003019081610acb9190611707565b506080820151816004019081610ae19190611707565b5060a0820151816005019081610af79190611707565b5060c0820151816006019081610b0d9190611707565b5060e0820151816007019081610b239190611707565b50610100820151816008019081610b3a9190611707565b50610120820151816009015561014082015181600a015f6101000a81548173ffffffffffffffffffffffffffffffffffffffff021916908373ffffffffffffffffffffffffffffffffffffffff16021790555090505060035f815480929190610ba290611803565b919050555060045f815480929190610bb990611803565b91905055505050505050505050565b60015f9054906101000a900473ffffffffffffffffffffffffffffffffffffffff1681565b5f819050919050565b610bff81610bed565b82525050565b5f602082019050610c185f830184610bf6565b92915050565b5f604051905090565b5f80fd5b5f80fd5b610c3881610bed565b8114610c42575f80fd5b50565b5f81359050610c5381610c2f565b92915050565b5f8060408385031215610c6f57610c6e610c27565b5b5f610c7c85828601610c45565b9250506020610c8d85828601610c45565b9150509250929050565b5f60208284031215610cac57610cab610c27565b5b5f610cb984828501610c45565b91505092915050565b5f8115159050919050565b610cd681610cc2565b82525050565b5f81519050919050565b5f82825260208201905092915050565b5f5b83811015610d13578082015181840152602081019050610cf8565b5f8484015250505050565b5f601f19601f8301169050919050565b5f610d3882610cdc565b610d428185610ce6565b9350610d52818560208601610cf6565b610d5b81610d1e565b840191505092915050565b5f604082019050610d795f830185610ccd565b8181036020830152610d8b8184610d2e565b90509392505050565b5f73ffffffffffffffffffffffffffffffffffffffff82169050919050565b5f610dbd82610d94565b9050919050565b610dcd81610db3565b8114610dd7575f80fd5b50565b5f81359050610de881610dc4565b92915050565b5f60208284031215610e0357610e02610c27565b5b5f610e1084828501610dda565b91505092915050565b610e2281610db3565b82525050565b5f61016082019050610e3c5f83018e610bf6565b8181036020830152610e4e818d610d2e565b90508181036040830152610e62818c610d2e565b90508181036060830152610e76818b610d2e565b90508181036080830152610e8a818a610d2e565b905081810360a0830152610e9e8189610d2e565b905081810360c0830152610eb28188610d2e565b905081810360e0830152610ec68187610d2e565b9050818103610100830152610edb8186610d2e565b9050610eeb610120830185610bf6565b610ef9610140830184610e19565b9c9b505050505050505050505050565b5f602082019050610f1c5f830184610e19565b92915050565b5f80fd5b5f80fd5b7f4e487b71000000000000000000000000000000000000000000000000000000005f52604160045260245ffd5b610f6082610d1e565b810181811067ffffffffffffffff82111715610f7f57610f7e610f2a565b5b80604052505050565b5f610f91610c1e565b9050610f9d8282610f57565b919050565b5f67ffffffffffffffff821115610fbc57610fbb610f2a565b5b610fc582610d1e565b9050602081019050919050565b828183375f83830152505050565b5f610ff2610fed84610fa2565b610f88565b90508281526020810184848401111561100e5761100d610f26565b5b611019848285610fd2565b509392505050565b5f82601f83011261103557611034610f22565b5b8135611045848260208601610fe0565b91505092915050565b5f805f805f805f80610100898b03121561106b5761106a610c27565b5b5f89013567ffffffffffffffff81111561108857611087610c2b565b5b6110948b828c01611021565b985050602089013567ffffffffffffffff8111156110b5576110b4610c2b565b5b6110c18b828c01611021565b975050604089013567ffffffffffffffff8111156110e2576110e1610c2b565b5b6110ee8b828c01611021565b965050606089013567ffffffffffffffff81111561110f5761110e610c2b565b5b61111b8b828c01611021565b955050608089013567ffffffffffffffff81111561113c5761113b610c2b565b5b6111488b828c01611021565b94505060a089013567ffffffffffffffff81111561116957611168610c2b565b5b6111758b828c01611021565b93505060c089013567ffffffffffffffff81111561119657611195610c2b565b5b6111a28b828c01611021565b92505060e089013567ffffffffffffffff8111156111c3576111c2610c2b565b5b6111cf8b828c01611021565b9150509295985092959890939650565b5f819050919050565b5f6112026111fd6111f884610d94565b6111df565b610d94565b9050919050565b5f611213826111e8565b9050919050565b5f61122482611209565b9050919050565b6112348161121a565b82525050565b5f60208201905061124d5f83018461122b565b92915050565b7f5365756c206c276167656e7420646520726563727574656d656e7420706575745f8201527f20696e736572657220756e65206576616c756174696f6e000000000000000000602082015250565b5f6112ad603783610ce6565b91506112b882611253565b604082019050919050565b5f6020820190508181035f8301526112da816112a1565b9050919050565b5f6040820190506112f45f830185610bf6565b6113016020830184610bf6565b9392505050565b7f5365756c206c276167656e7420646520726563727574656d656e7420706575745f8201527f20766572696669657220756e206469706c6f6d65000000000000000000000000602082015250565b5f611362603483610ce6565b915061136d82611308565b604082019050919050565b5f6020820190508181035f83015261138f81611356565b9050919050565b61139f81610cc2565b81146113a9575f80fd5b50565b5f815190506113ba81611396565b92915050565b5f6113d26113cd84610fa2565b610f88565b9050828152602081018484840111156113ee576113ed610f26565b5b6113f9848285610cf6565b509392505050565b5f82601f83011261141557611414610f22565b5b81516114258482602086016113c0565b91505092915050565b5f806040838503121561144457611443610c27565b5b5f611451858286016113ac565b925050602083015167ffffffffffffffff81111561147257611471610c2b565b5b61147e85828601611401565b9150509250929050565b7f4e487b71000000000000000000000000000000000000000000000000000000005f52602260045260245ffd5b5f60028204905060018216806114cc57607f821691505b6020821081036114df576114de611488565b5b50919050565b7f5365756c206c2761646d696e69737472617465757220706575742065666665635f8201527f74756572206365747465206f7065726174696f6e000000000000000000000000602082015250565b5f61153f603483610ce6565b915061154a826114e5565b604082019050919050565b5f6020820190508181035f83015261156c81611533565b9050919050565b5f819050815f5260205f209050919050565b5f6020601f8301049050919050565b5f82821b905092915050565b5f600883026115cf7fffffffffffffffffffffffffffffffffffffffffffffffffffffffffffffffff82611594565b6115d98683611594565b95508019841693508086168417925050509392505050565b5f61160b61160661160184610bed565b6111df565b610bed565b9050919050565b5f819050919050565b611624836115f1565b61163861163082611612565b8484546115a0565b825550505050565b5f90565b61164c611640565b61165781848461161b565b505050565b5b8181101561167a5761166f5f82611644565b60018101905061165d565b5050565b601f8211156116bf5761169081611573565b61169984611585565b810160208510156116a8578190505b6116bc6116b485611585565b83018261165c565b50505b505050565b5f82821c905092915050565b5f6116df5f19846008026116c4565b1980831691505092915050565b5f6116f783836116d0565b9150826002028217905092915050565b61171082610cdc565b67ffffffffffffffff81111561172957611728610f2a565b5b61173382546114b5565b61173e82828561167e565b5f60209050601f83116001811461176f575f841561175d578287015190505b61176785826116ec565b8655506117ce565b601f19841661177d86611573565b5f5b828110156117a45784890151825560018201915060208501945060208101905061177f565b868310156117c157848901516117bd601f8916826116d0565b8355505b6001600288020188555050505b505050505050565b7f4e487b71000000000000000000000000000000000000000000000000000000005f52601160045260245ffd5b5f61180d82610bed565b91507fffffffffffffffffffffffffffffffffffffffffffffffffffffffffffffffff820361183f5761183e6117d6565b5b60018201905091905056fea2646970667358221220415cb538ebf95b9dad8c71028118663c26917aa64c20a3467a695a22ee12ef7e64736f6c63430008170033",
			"opcodes": "PUSH1 0x80 PUSH1 0x40 MSTORE PUSH1 0x1 PUSH1 0x3 SSTORE PUSH1 0x1 PUSH1 0x4 SSTORE CALLVALUE DUP1 ISZERO PUSH3 0x1A JUMPI PUSH0 DUP1 REVERT JUMPDEST POP PUSH1 0x40 MLOAD PUSH3 0x19FC CODESIZE SUB DUP1 PUSH3 0x19FC DUP4 CODECOPY DUP2 DUP2 ADD PUSH1 0x40 MSTORE DUP2 ADD SWAP1 PUSH3 0x40 SWAP2 SWAP1 PUSH3 0x13E JUMP JUMPDEST CALLER PUSH0 DUP1 PUSH2 0x100 EXP DUP2 SLOAD DUP2 PUSH20 0xFFFFFFFFFFFFFFFFFFFFFFFFFFFFFFFFFFFFFFFF MUL NOT AND SWAP1 DUP4 PUSH20 0xFFFFFFFFFFFFFFFFFFFFFFFFFFFFFFFFFFFFFFFF AND MUL OR SWAP1 SSTORE POP DUP1 PUSH1 0x1 PUSH0 PUSH2 0x100 EXP DUP2 SLOAD DUP2 PUSH20 0xFFFFFFFFFFFFFFFFFFFFFFFFFFFFFFFFFFFFFFFF MUL NOT AND SWAP1 DUP4 PUSH20 0xFFFFFFFFFFFFFFFFFFFFFFFFFFFFFFFFFFFFFFFF AND MUL OR SWAP1 SSTORE POP POP PUSH3 0x16E JUMP JUMPDEST PUSH0 DUP1 REVERT JUMPDEST PUSH0 PUSH20 0xFFFFFFFFFFFFFFFFFFFFFFFFFFFFFFFFFFFFFFFF DUP3 AND SWAP1 POP SWAP2 SWAP1 POP JUMP JUMPDEST PUSH0 PUSH3 0xF5 DUP3 PUSH3 0xCA JUMP JUMPDEST SWAP1 POP SWAP2 SWAP1 POP JUMP JUMPDEST PUSH0 PUSH3 0x108 DUP3 PUSH3 0xE9 JUMP JUMPDEST SWAP1 POP SWAP2 SWAP1 POP JUMP JUMPDEST PUSH3 0x11A DUP2 PUSH3 0xFC JUMP JUMPDEST DUP2 EQ PUSH3 0x125 JUMPI PUSH0 DUP1 REVERT JUMPDEST POP JUMP JUMPDEST PUSH0 DUP2 MLOAD SWAP1 POP PUSH3 0x138 DUP2 PUSH3 0x10F JUMP JUMPDEST SWAP3 SWAP2 POP POP JUMP JUMPDEST PUSH0 PUSH1 0x20 DUP3 DUP5 SUB SLT ISZERO PUSH3 0x156 JUMPI PUSH3 0x155 PUSH3 0xC6 JUMP JUMPDEST JUMPDEST PUSH0 PUSH3 0x165 DUP5 DUP3 DUP6 ADD PUSH3 0x128 JUMP JUMPDEST SWAP2 POP POP SWAP3 SWAP2 POP POP JUMP JUMPDEST PUSH2 0x1880 DUP1 PUSH3 0x17C PUSH0 CODECOPY PUSH0 RETURN INVALID PUSH1 0x80 PUSH1 0x40 MSTORE CALLVALUE DUP1 ISZERO PUSH2 0xF JUMPI PUSH0 DUP1 REVERT JUMPDEST POP PUSH1 0x4 CALLDATASIZE LT PUSH2 0x86 JUMPI PUSH0 CALLDATALOAD PUSH1 0xE0 SHR DUP1 PUSH4 0x65EB3035 GT PUSH2 0x59 JUMPI DUP1 PUSH4 0x65EB3035 EQ PUSH2 0x113 JUMPI DUP1 PUSH4 0x7148B488 EQ PUSH2 0x14D JUMPI DUP1 PUSH4 0x72F91068 EQ PUSH2 0x16B JUMPI DUP1 PUSH4 0x754BD364 EQ PUSH2 0x187 JUMPI PUSH2 0x86 JUMP JUMPDEST DUP1 PUSH4 0x40F50FE1 EQ PUSH2 0x8A JUMPI DUP1 PUSH4 0x4C326C48 EQ PUSH2 0xA8 JUMPI DUP1 PUSH4 0x4FB8A120 EQ PUSH2 0xC6 JUMPI DUP1 PUSH4 0x5BC4FAD8 EQ PUSH2 0xE2 JUMPI JUMPDEST PUSH0 DUP1 REVERT JUMPDEST PUSH2 0x92 PUSH2 0x1A5 JUMP JUMPDEST PUSH1 0x40 MLOAD PUSH2 0x9F SWAP2 SWAP1 PUSH2 0xC05 JUMP JUMPDEST PUSH1 0x40 MLOAD DUP1 SWAP2 SUB SWAP1 RETURN JUMPDEST PUSH2 0xB0 PUSH2 0x1AB JUMP JUMPDEST PUSH1 0x40 MLOAD PUSH2 0xBD SWAP2 SWAP1 PUSH2 0xC05 JUMP JUMPDEST PUSH1 0x40 MLOAD DUP1 SWAP2 SUB SWAP1 RETURN JUMPDEST PUSH2 0xE0 PUSH1 0x4 DUP1 CALLDATASIZE SUB DUP2 ADD SWAP1 PUSH2 0xDB SWAP2 SWAP1 PUSH2 0xC59 JUMP JUMPDEST PUSH2 0x1B1 JUMP JUMPDEST STOP JUMPDEST PUSH2 0xFC PUSH1 0x4 DUP1 CALLDATASIZE SUB DUP2 ADD SWAP1 PUSH2 0xF7 SWAP2 SWAP1 PUSH2 0xC97 JUMP JUMPDEST PUSH2 0x310 JUMP JUMPDEST PUSH1 0x40 MLOAD PUSH2 0x10A SWAP3 SWAP2 SWAP1 PUSH2 0xD66 JUMP JUMPDEST PUSH1 0x40 MLOAD DUP1 SWAP2 SUB SWAP1 RETURN JUMPDEST PUSH2 0x12D PUSH1 0x4 DUP1 CALLDATASIZE SUB DUP2 ADD SWAP1 PUSH2 0x128 SWAP2 SWAP1 PUSH2 0xDEE JUMP JUMPDEST PUSH2 0x48A JUMP JUMPDEST PUSH1 0x40 MLOAD PUSH2 0x144 SWAP12 SWAP11 SWAP10 SWAP9 SWAP8 SWAP7 SWAP6 SWAP5 SWAP4 SWAP3 SWAP2 SWAP1 PUSH2 0xE28 JUMP JUMPDEST PUSH1 0x40 MLOAD DUP1 SWAP2 SUB SWAP1 RETURN JUMPDEST PUSH2 0x155 PUSH2 0x92F JUMP JUMPDEST PUSH1 0x40 MLOAD PUSH2 0x162 SWAP2 SWAP1 PUSH2 0xF09 JUMP JUMPDEST PUSH1 0x40 MLOAD DUP1 SWAP2 SUB SWAP1 RETURN JUMPDEST PUSH2 0x185 PUSH1 0x4 DUP1 CALLDATASIZE SUB DUP2 ADD SWAP1 PUSH2 0x180 SWAP2 SWAP1 PUSH2 0x104E JUMP JUMPDEST PUSH2 0x952 JUMP JUMPDEST STOP JUMPDEST PUSH2 0x18F PUSH2 0xBC8 JUMP JUMPDEST PUSH1 0x40 MLOAD PUSH2 0x19C SWAP2 SWAP1 PUSH2 0x123A JUMP JUMPDEST PUSH1 0x40 MLOAD DUP1 SWAP2 SUB SWAP1 RETURN JUMPDEST PUSH1 0x4 SLOAD DUP2 JUMP JUMPDEST PUSH1 0x3 SLOAD DUP2 JUMP JUMPDEST PUSH0 PUSH1 0x2 PUSH0 CALLER PUSH20 0xFFFFFFFFFFFFFFFFFFFFFFFFFFFFFFFFFFFFFFFF AND PUSH20 0xFFFFFFFFFFFFFFFFFFFFFFFFFFFFFFFFFFFFFFFF AND DUP2 MSTORE PUSH1 0x20 ADD SWAP1 DUP2 MSTORE PUSH1 0x20 ADD PUSH0 KECCAK256 SWAP1 POP CALLER PUSH20 0xFFFFFFFFFFFFFFFFFFFFFFFFFFFFFFFFFFFFFFFF AND DUP2 PUSH1 0xA ADD PUSH0 SWAP1 SLOAD SWAP1 PUSH2 0x100 EXP SWAP1 DIV PUSH20 0xFFFFFFFFFFFFFFFFFFFFFFFFFFFFFFFFFFFFFFFF AND PUSH20 0xFFFFFFFFFFFFFFFFFFFFFFFFFFFFFFFFFFFFFFFF AND EQ PUSH2 0x282 JUMPI PUSH1 0x40 MLOAD PUSH32 0x8C379A000000000000000000000000000000000000000000000000000000000 DUP2 MSTORE PUSH1 0x4 ADD PUSH2 0x279 SWAP1 PUSH2 0x12C3 JUMP JUMPDEST PUSH1 0x40 MLOAD DUP1 SWAP2 SUB SWAP1 REVERT JUMPDEST PUSH1 0x1 PUSH0 SWAP1 SLOAD SWAP1 PUSH2 0x100 EXP SWAP1 DIV PUSH20 0xFFFFFFFFFFFFFFFFFFFFFFFFFFFFFFFFFFFFFFFF AND PUSH20 0xFFFFFFFFFFFFFFFFFFFFFFFFFFFFFFFFFFFFFFFF AND PUSH4 0x645041BF DUP5 DUP5 PUSH1 0x40 MLOAD DUP4 PUSH4 0xFFFFFFFF AND PUSH1 0xE0 SHL DUP2 MSTORE PUSH1 0x4 ADD PUSH2 0x2DE SWAP3 SWAP2 SWAP1 PUSH2 0x12E1 JUMP JUMPDEST PUSH0 PUSH1 0x40 MLOAD DUP1 DUP4 SUB DUP2 PUSH0 DUP8 DUP1 EXTCODESIZE ISZERO DUP1 ISZERO PUSH2 0x2F5 JUMPI PUSH0 DUP1 REVERT JUMPDEST POP GAS CALL ISZERO DUP1 ISZERO PUSH2 0x307 JUMPI RETURNDATASIZE PUSH0 DUP1 RETURNDATACOPY RETURNDATASIZE PUSH0 REVERT JUMPDEST POP POP POP POP POP POP POP JUMP JUMPDEST PUSH0 PUSH1 0x60 PUSH0 PUSH1 0x2 PUSH0 CALLER PUSH20 0xFFFFFFFFFFFFFFFFFFFFFFFFFFFFFFFFFFFFFFFF AND PUSH20 0xFFFFFFFFFFFFFFFFFFFFFFFFFFFFFFFFFFFFFFFF AND DUP2 MSTORE PUSH1 0x20 ADD SWAP1 DUP2 MSTORE PUSH1 0x20 ADD PUSH0 KECCAK256 SWAP1 POP CALLER PUSH20 0xFFFFFFFFFFFFFFFFFFFFFFFFFFFFFFFFFFFFFFFF AND DUP2 PUSH1 0xA ADD PUSH0 SWAP1 SLOAD SWAP1 PUSH2 0x100 EXP SWAP1 DIV PUSH20 0xFFFFFFFFFFFFFFFFFFFFFFFFFFFFFFFFFFFFFFFF AND PUSH20 0xFFFFFFFFFFFFFFFFFFFFFFFFFFFFFFFFFFFFFFFF AND EQ PUSH2 0x3E4 JUMPI PUSH1 0x40 MLOAD PUSH32 0x8C379A000000000000000000000000000000000000000000000000000000000 DUP2 MSTORE PUSH1 0x4 ADD PUSH2 0x3DB SWAP1 PUSH2 0x1378 JUMP JUMPDEST PUSH1 0x40 MLOAD DUP1 SWAP2 SUB SWAP1 REVERT JUMPDEST PUSH1 0x1 PUSH0 SWAP1 SLOAD SWAP1 PUSH2 0x100 EXP SWAP1 DIV PUSH20 0xFFFFFFFFFFFFFFFFFFFFFFFFFFFFFFFFFFFFFFFF AND PUSH20 0xFFFFFFFFFFFFFFFFFFFFFFFFFFFFFFFFFFFFFFFF AND PUSH4 0x5BC4FAD8 DUP6 PUSH1 0x40 MLOAD DUP3 PUSH4 0xFFFFFFFF AND PUSH1 0xE0 SHL DUP2 MSTORE PUSH1 0x4 ADD PUSH2 0x43E SWAP2 SWAP1 PUSH2 0xC05 JUMP JUMPDEST PUSH0 PUSH1 0x40 MLOAD DUP1 DUP4 SUB DUP2 DUP7 GAS STATICCALL ISZERO DUP1 ISZERO PUSH2 0x458 JUMPI RETURNDATASIZE PUSH0 DUP1 RETURNDATACOPY RETURNDATASIZE PUSH0 REVERT JUMPDEST POP POP POP POP PUSH1 0x40 MLOAD RETURNDATASIZE PUSH0 DUP3 RETURNDATACOPY RETURNDATASIZE PUSH1 0x1F NOT PUSH1 0x1F DUP3 ADD AND DUP3 ADD DUP1 PUSH1 0x40 MSTORE POP DUP2 ADD SWAP1 PUSH2 0x480 SWAP2 SWAP1 PUSH2 0x142E JUMP JUMPDEST SWAP3 POP SWAP3 POP POP SWAP2 POP SWAP2 JUMP JUMPDEST PUSH1 0x2 PUSH1 0x20 MSTORE DUP1 PUSH0 MSTORE PUSH1 0x40 PUSH0 KECCAK256 PUSH0 SWAP2 POP SWAP1 POP DUP1 PUSH0 ADD SLOAD SWAP1 DUP1 PUSH1 0x1 ADD DUP1 SLOAD PUSH2 0x4AF SWAP1 PUSH2 0x14B5 JUMP JUMPDEST DUP1 PUSH1 0x1F ADD PUSH1 0x20 DUP1 SWAP2 DIV MUL PUSH1 0x20 ADD PUSH1 0x40 MLOAD SWAP1 DUP2 ADD PUSH1 0x40 MSTORE DUP1 SWAP3 SWAP2 SWAP1 DUP2 DUP2 MSTORE PUSH1 0x20 ADD DUP3 DUP1 SLOAD PUSH2 0x4DB SWAP1 PUSH2 0x14B5 JUMP JUMPDEST DUP1 ISZERO PUSH2 0x526 JUMPI DUP1 PUSH1 0x1F LT PUSH2 0x4FD JUMPI PUSH2 0x100 DUP1 DUP4 SLOAD DIV MUL DUP4 MSTORE SWAP2 PUSH1 0x20 ADD SWAP2 PUSH2 0x526 JUMP JUMPDEST DUP3 ADD SWAP2 SWAP1 PUSH0 MSTORE PUSH1 0x20 PUSH0 KECCAK256 SWAP1 JUMPDEST DUP2 SLOAD DUP2 MSTORE SWAP1 PUSH1 0x1 ADD SWAP1 PUSH1 0x20 ADD DUP1 DUP4 GT PUSH2 0x509 JUMPI DUP3 SWAP1 SUB PUSH1 0x1F AND DUP3 ADD SWAP2 JUMPDEST POP POP POP POP POP SWAP1 DUP1 PUSH1 0x2 ADD DUP1 SLOAD PUSH2 0x53B SWAP1 PUSH2 0x14B5 JUMP JUMPDEST DUP1 PUSH1 0x1F ADD PUSH1 0x20 DUP1 SWAP2 DIV MUL PUSH1 0x20 ADD PUSH1 0x40 MLOAD SWAP1 DUP2 ADD PUSH1 0x40 MSTORE DUP1 SWAP3 SWAP2 SWAP1 DUP2 DUP2 MSTORE PUSH1 0x20 ADD DUP3 DUP1 SLOAD PUSH2 0x567 SWAP1 PUSH2 0x14B5 JUMP JUMPDEST DUP1 ISZERO PUSH2 0x5B2 JUMPI DUP1 PUSH1 0x1F LT PUSH2 0x589 JUMPI PUSH2 0x100 DUP1 DUP4 SLOAD DIV MUL DUP4 MSTORE SWAP2 PUSH1 0x20 ADD SWAP2 PUSH2 0x5B2 JUMP JUMPDEST DUP3 ADD SWAP2 SWAP1 PUSH0 MSTORE PUSH1 0x20 PUSH0 KECCAK256 SWAP1 JUMPDEST DUP2 SLOAD DUP2 MSTORE SWAP1 PUSH1 0x1 ADD SWAP1 PUSH1 0x20 ADD DUP1 DUP4 GT PUSH2 0x595 JUMPI DUP3 SWAP1 SUB PUSH1 0x1F AND DUP3 ADD SWAP2 JUMPDEST POP POP POP POP POP SWAP1 DUP1 PUSH1 0x3 ADD DUP1 SLOAD PUSH2 0x5C7 SWAP1 PUSH2 0x14B5 JUMP JUMPDEST DUP1 PUSH1 0x1F ADD PUSH1 0x20 DUP1 SWAP2 DIV MUL PUSH1 0x20 ADD PUSH1 0x40 MLOAD SWAP1 DUP2 ADD PUSH1 0x40 MSTORE DUP1 SWAP3 SWAP2 SWAP1 DUP2 DUP2 MSTORE PUSH1 0x20 ADD DUP3 DUP1 SLOAD PUSH2 0x5F3 SWAP1 PUSH2 0x14B5 JUMP JUMPDEST DUP1 ISZERO PUSH2 0x63E JUMPI DUP1 PUSH1 0x1F LT PUSH2 0x615 JUMPI PUSH2 0x100 DUP1 DUP4 SLOAD DIV MUL DUP4 MSTORE SWAP2 PUSH1 0x20 ADD SWAP2 PUSH2 0x63E JUMP JUMPDEST DUP3 ADD SWAP2 SWAP1 PUSH0 MSTORE PUSH1 0x20 PUSH0 KECCAK256 SWAP1 JUMPDEST DUP2 SLOAD DUP2 MSTORE SWAP1 PUSH1 0x1 ADD SWAP1 PUSH1 0x20 ADD DUP1 DUP4 GT PUSH2 0x621 JUMPI DUP3 SWAP1 SUB PUSH1 0x1F AND DUP3 ADD SWAP2 JUMPDEST POP POP POP POP POP SWAP1 DUP1 PUSH1 0x4 ADD DUP1 SLOAD PUSH2 0x653 SWAP1 PUSH2 0x14B5 JUMP JUMPDEST DUP1 PUSH1 0x1F ADD PUSH1 0x20 DUP1 SWAP2 DIV MUL PUSH1 0x20 ADD PUSH1 0x40 MLOAD SWAP1 DUP2 ADD PUSH1 0x40 MSTORE DUP1 SWAP3 SWAP2 SWAP1 DUP2 DUP2 MSTORE PUSH1 0x20 ADD DUP3 DUP1 SLOAD PUSH2 0x67F SWAP1 PUSH2 0x14B5 JUMP JUMPDEST DUP1 ISZERO PUSH2 0x6CA JUMPI DUP1 PUSH1 0x1F LT PUSH2 0x6A1 JUMPI PUSH2 0x100 DUP1 DUP4 SLOAD DIV MUL DUP4 MSTORE SWAP2 PUSH1 0x20 ADD SWAP2 PUSH2 0x6CA JUMP JUMPDEST DUP3 ADD SWAP2 SWAP1 PUSH0 MSTORE PUSH1 0x20 PUSH0 KECCAK256 SWAP1 JUMPDEST DUP2 SLOAD DUP2 MSTORE SWAP1 PUSH1 0x1 ADD SWAP1 PUSH1 0x20 ADD DUP1 DUP4 GT PUSH2 0x6AD JUMPI DUP3 SWAP1 SUB PUSH1 0x1F AND DUP3 ADD SWAP2 JUMPDEST POP POP POP POP POP SWAP1 DUP1 PUSH1 0x5 ADD DUP1 SLOAD PUSH2 0x6DF SWAP1 PUSH2 0x14B5 JUMP JUMPDEST DUP1 PUSH1 0x1F ADD PUSH1 0x20 DUP1 SWAP2 DIV MUL PUSH1 0x20 ADD PUSH1 0x40 MLOAD SWAP1 DUP2 ADD PUSH1 0x40 MSTORE DUP1 SWAP3 SWAP2 SWAP1 DUP2 DUP2 MSTORE PUSH1 0x20 ADD DUP3 DUP1 SLOAD PUSH2 0x70B SWAP1 PUSH2 0x14B5 JUMP JUMPDEST DUP1 ISZERO PUSH2 0x756 JUMPI DUP1 PUSH1 0x1F LT PUSH2 0x72D JUMPI PUSH2 0x100 DUP1 DUP4 SLOAD DIV MUL DUP4 MSTORE SWAP2 PUSH1 0x20 ADD SWAP2 PUSH2 0x756 JUMP JUMPDEST DUP3 ADD SWAP2 SWAP1 PUSH0 MSTORE PUSH1 0x20 PUSH0 KECCAK256 SWAP1 JUMPDEST DUP2 SLOAD DUP2 MSTORE SWAP1 PUSH1 0x1 ADD SWAP1 PUSH1 0x20 ADD DUP1 DUP4 GT PUSH2 0x739 JUMPI DUP3 SWAP1 SUB PUSH1 0x1F AND DUP3 ADD SWAP2 JUMPDEST POP POP POP POP POP SWAP1 DUP1 PUSH1 0x6 ADD DUP1 SLOAD PUSH2 0x76B SWAP1 PUSH2 0x14B5 JUMP JUMPDEST DUP1 PUSH1 0x1F ADD PUSH1 0x20 DUP1 SWAP2 DIV MUL PUSH1 0x20 ADD PUSH1 0x40 MLOAD SWAP1 DUP2 ADD PUSH1 0x40 MSTORE DUP1 SWAP3 SWAP2 SWAP1 DUP2 DUP2 MSTORE PUSH1 0x20 ADD DUP3 DUP1 SLOAD PUSH2 0x797 SWAP1 PUSH2 0x14B5 JUMP JUMPDEST DUP1 ISZERO PUSH2 0x7E2 JUMPI DUP1 PUSH1 0x1F LT PUSH2 0x7B9 JUMPI PUSH2 0x100 DUP1 DUP4 SLOAD DIV MUL DUP4 MSTORE SWAP2 PUSH1 0x20 ADD SWAP2 PUSH2 0x7E2 JUMP JUMPDEST DUP3 ADD SWAP2 SWAP1 PUSH0 MSTORE PUSH1 0x20 PUSH0 KECCAK256 SWAP1 JUMPDEST DUP2 SLOAD DUP2 MSTORE SWAP1 PUSH1 0x1 ADD SWAP1 PUSH1 0x20 ADD DUP1 DUP4 GT PUSH2 0x7C5 JUMPI DUP3 SWAP1 SUB PUSH1 0x1F AND DUP3 ADD SWAP2 JUMPDEST POP POP POP POP POP SWAP1 DUP1 PUSH1 0x7 ADD DUP1 SLOAD PUSH2 0x7F7 SWAP1 PUSH2 0x14B5 JUMP JUMPDEST DUP1 PUSH1 0x1F ADD PUSH1 0x20 DUP1 SWAP2 DIV MUL PUSH1 0x20 ADD PUSH1 0x40 MLOAD SWAP1 DUP2 ADD PUSH1 0x40 MSTORE DUP1 SWAP3 SWAP2 SWAP1 DUP2 DUP2 MSTORE PUSH1 0x20 ADD DUP3 DUP1 SLOAD PUSH2 0x823 SWAP1 PUSH2 0x14B5 JUMP JUMPDEST DUP1 ISZERO PUSH2 0x86E JUMPI DUP1 PUSH1 0x1F LT PUSH2 0x845 JUMPI PUSH2 0x100 DUP1 DUP4 SLOAD DIV MUL DUP4 MSTORE SWAP2 PUSH1 0x20 ADD SWAP2 PUSH2 0x86E JUMP JUMPDEST DUP3 ADD SWAP2 SWAP1 PUSH0 MSTORE PUSH1 0x20 PUSH0 KECCAK256 SWAP1 JUMPDEST DUP2 SLOAD DUP2 MSTORE SWAP1 PUSH1 0x1 ADD SWAP1 PUSH1 0x20 ADD DUP1 DUP4 GT PUSH2 0x851 JUMPI DUP3 SWAP1 SUB PUSH1 0x1F AND DUP3 ADD SWAP2 JUMPDEST POP POP POP POP POP SWAP1 DUP1 PUSH1 0x8 ADD DUP1 SLOAD PUSH2 0x883 SWAP1 PUSH2 0x14B5 JUMP JUMPDEST DUP1 PUSH1 0x1F ADD PUSH1 0x20 DUP1 SWAP2 DIV MUL PUSH1 0x20 ADD PUSH1 0x40 MLOAD SWAP1 DUP2 ADD PUSH1 0x40 MSTORE DUP1 SWAP3 SWAP2 SWAP1 DUP2 DUP2 MSTORE PUSH1 0x20 ADD DUP3 DUP1 SLOAD PUSH2 0x8AF SWAP1 PUSH2 0x14B5 JUMP JUMPDEST DUP1 ISZERO PUSH2 0x8FA JUMPI DUP1 PUSH1 0x1F LT PUSH2 0x8D1 JUMPI PUSH2 0x100 DUP1 DUP4 SLOAD DIV MUL DUP4 MSTORE SWAP2 PUSH1 0x20 ADD SWAP2 PUSH2 0x8FA JUMP JUMPDEST DUP3 ADD SWAP2 SWAP1 PUSH0 MSTORE PUSH1 0x20 PUSH0 KECCAK256 SWAP1 JUMPDEST DUP2 SLOAD DUP2 MSTORE SWAP1 PUSH1 0x1 ADD SWAP1 PUSH1 0x20 ADD DUP1 DUP4 GT PUSH2 0x8DD JUMPI DUP3 SWAP1 SUB PUSH1 0x1F AND DUP3 ADD SWAP2 JUMPDEST POP POP POP POP POP SWAP1 DUP1 PUSH1 0x9 ADD SLOAD SWAP1 DUP1 PUSH1 0xA ADD PUSH0 SWAP1 SLOAD SWAP1 PUSH2 0x100 EXP SWAP1 DIV PUSH20 0xFFFFFFFFFFFFFFFFFFFFFFFFFFFFFFFFFFFFFFFF AND SWAP1 POP DUP12 JUMP JUMPDEST PUSH0 DUP1 SLOAD SWAP1 PUSH2 0x100 EXP SWAP1 DIV PUSH20 0xFFFFFFFFFFFFFFFFFFFFFFFFFFFFFFFFFFFFFFFF AND DUP2 JUMP JUMPDEST PUSH0 DUP1 SLOAD SWAP1 PUSH2 0x100 EXP SWAP1 DIV PUSH20 0xFFFFFFFFFFFFFFFFFFFFFFFFFFFFFFFFFFFFFFFF AND PUSH20 0xFFFFFFFFFFFFFFFFFFFFFFFFFFFFFFFFFFFFFFFF AND CALLER PUSH20 0xFFFFFFFFFFFFFFFFFFFFFFFFFFFFFFFFFFFFFFFF AND EQ PUSH2 0x9DF JUMPI PUSH1 0x40 MLOAD PUSH32 0x8C379A000000000000000000000000000000000000000000000000000000000 DUP2 MSTORE PUSH1 0x4 ADD PUSH2 0x9D6 SWAP1 PUSH2 0x1555 JUMP JUMPDEST PUSH1 0x40 MLOAD DUP1 SWAP2 SUB SWAP1 REVERT JUMPDEST PUSH1 0x40 MLOAD DUP1 PUSH2 0x160 ADD PUSH1 0x40 MSTORE DUP1 PUSH1 0x3 SLOAD DUP2 MSTORE PUSH1 0x20 ADD DUP10 DUP2 MSTORE PUSH1 0x20 ADD DUP9 DUP2 MSTORE PUSH1 0x20 ADD DUP8 DUP2 MSTORE PUSH1 0x20 ADD DUP7 DUP2 MSTORE PUSH1 0x20 ADD DUP6 DUP2 MSTORE PUSH1 0x20 ADD DUP5 DUP2 MSTORE PUSH1 0x20 ADD DUP4 DUP2 MSTORE PUSH1 0x20 ADD DUP3 DUP2 MSTORE PUSH1 0x20 ADD PUSH1 0x4 SLOAD DUP2 MSTORE PUSH1 0x20 ADD CALLER PUSH20 0xFFFFFFFFFFFFFFFFFFFFFFFFFFFFFFFFFFFFFFFF AND DUP2 MSTORE POP PUSH1 0x2 PUSH0 CALLER PUSH20 0xFFFFFFFFFFFFFFFFFFFFFFFFFFFFFFFFFFFFFFFF AND PUSH20 0xFFFFFFFFFFFFFFFFFFFFFFFFFFFFFFFFFFFFFFFF AND DUP2 MSTORE PUSH1 0x20 ADD SWAP1 DUP2 MSTORE PUSH1 0x20 ADD PUSH0 KECCAK256 PUSH0 DUP3 ADD MLOAD DUP2 PUSH0 ADD SSTORE PUSH1 0x20 DUP3 ADD MLOAD DUP2 PUSH1 0x1 ADD SWAP1 DUP2 PUSH2 0xA9F SWAP2 SWAP1 PUSH2 0x1707 JUMP JUMPDEST POP PUSH1 0x40 DUP3 ADD MLOAD DUP2 PUSH1 0x2 ADD SWAP1 DUP2 PUSH2 0xAB5 SWAP2 SWAP1 PUSH2 0x1707 JUMP JUMPDEST POP PUSH1 0x60 DUP3 ADD MLOAD DUP2 PUSH1 0x3 ADD SWAP1 DUP2 PUSH2 0xACB SWAP2 SWAP1 PUSH2 0x1707 JUMP JUMPDEST POP PUSH1 0x80 DUP3 ADD MLOAD DUP2 PUSH1 0x4 ADD SWAP1 DUP2 PUSH2 0xAE1 SWAP2 SWAP1 PUSH2 0x1707 JUMP JUMPDEST POP PUSH1 0xA0 DUP3 ADD MLOAD DUP2 PUSH1 0x5 ADD SWAP1 DUP2 PUSH2 0xAF7 SWAP2 SWAP1 PUSH2 0x1707 JUMP JUMPDEST POP PUSH1 0xC0 DUP3 ADD MLOAD DUP2 PUSH1 0x6 ADD SWAP1 DUP2 PUSH2 0xB0D SWAP2 SWAP1 PUSH2 0x1707 JUMP JUMPDEST POP PUSH1 0xE0 DUP3 ADD MLOAD DUP2 PUSH1 0x7 ADD SWAP1 DUP2 PUSH2 0xB23 SWAP2 SWAP1 PUSH2 0x1707 JUMP JUMPDEST POP PUSH2 0x100 DUP3 ADD MLOAD DUP2 PUSH1 0x8 ADD SWAP1 DUP2 PUSH2 0xB3A SWAP2 SWAP1 PUSH2 0x1707 JUMP JUMPDEST POP PUSH2 0x120 DUP3 ADD MLOAD DUP2 PUSH1 0x9 ADD SSTORE PUSH2 0x140 DUP3 ADD MLOAD DUP2 PUSH1 0xA ADD PUSH0 PUSH2 0x100 EXP DUP2 SLOAD DUP2 PUSH20 0xFFFFFFFFFFFFFFFFFFFFFFFFFFFFFFFFFFFFFFFF MUL NOT AND SWAP1 DUP4 PUSH20 0xFFFFFFFFFFFFFFFFFFFFFFFFFFFFFFFFFFFFFFFF AND MUL OR SWAP1 SSTORE POP SWAP1 POP POP PUSH1 0x3 PUSH0 DUP2 SLOAD DUP1 SWAP3 SWAP2 SWAP1 PUSH2 0xBA2 SWAP1 PUSH2 0x1803 JUMP JUMPDEST SWAP2 SWAP1 POP SSTORE POP PUSH1 0x4 PUSH0 DUP2 SLOAD DUP1 SWAP3 SWAP2 SWAP1 PUSH2 0xBB9 SWAP1 PUSH2 0x1803 JUMP JUMPDEST SWAP2 SWAP1 POP SSTORE POP POP POP POP POP POP POP POP POP JUMP JUMPDEST PUSH1 0x1 PUSH0 SWAP1 SLOAD SWAP1 PUSH2 0x100 EXP SWAP1 DIV PUSH20 0xFFFFFFFFFFFFFFFFFFFFFFFFFFFFFFFFFFFFFFFF AND DUP2 JUMP JUMPDEST PUSH0 DUP2 SWAP1 POP SWAP2 SWAP1 POP JUMP JUMPDEST PUSH2 0xBFF DUP2 PUSH2 0xBED JUMP JUMPDEST DUP3 MSTORE POP POP JUMP JUMPDEST PUSH0 PUSH1 0x20 DUP3 ADD SWAP1 POP PUSH2 0xC18 PUSH0 DUP4 ADD DUP5 PUSH2 0xBF6 JUMP JUMPDEST SWAP3 SWAP2 POP POP JUMP JUMPDEST PUSH0 PUSH1 0x40 MLOAD SWAP1 POP SWAP1 JUMP JUMPDEST PUSH0 DUP1 REVERT JUMPDEST PUSH0 DUP1 REVERT JUMPDEST PUSH2 0xC38 DUP2 PUSH2 0xBED JUMP JUMPDEST DUP2 EQ PUSH2 0xC42 JUMPI PUSH0 DUP1 REVERT JUMPDEST POP JUMP JUMPDEST PUSH0 DUP2 CALLDATALOAD SWAP1 POP PUSH2 0xC53 DUP2 PUSH2 0xC2F JUMP JUMPDEST SWAP3 SWAP2 POP POP JUMP JUMPDEST PUSH0 DUP1 PUSH1 0x40 DUP4 DUP6 SUB SLT ISZERO PUSH2 0xC6F JUMPI PUSH2 0xC6E PUSH2 0xC27 JUMP JUMPDEST JUMPDEST PUSH0 PUSH2 0xC7C DUP6 DUP3 DUP7 ADD PUSH2 0xC45 JUMP JUMPDEST SWAP3 POP POP PUSH1 0x20 PUSH2 0xC8D DUP6 DUP3 DUP7 ADD PUSH2 0xC45 JUMP JUMPDEST SWAP2 POP POP SWAP3 POP SWAP3 SWAP1 POP JUMP JUMPDEST PUSH0 PUSH1 0x20 DUP3 DUP5 SUB SLT ISZERO PUSH2 0xCAC JUMPI PUSH2 0xCAB PUSH2 0xC27 JUMP JUMPDEST JUMPDEST PUSH0 PUSH2 0xCB9 DUP5 DUP3 DUP6 ADD PUSH2 0xC45 JUMP JUMPDEST SWAP2 POP POP SWAP3 SWAP2 POP POP JUMP JUMPDEST PUSH0 DUP2 ISZERO ISZERO SWAP1 POP SWAP2 SWAP1 POP JUMP JUMPDEST PUSH2 0xCD6 DUP2 PUSH2 0xCC2 JUMP JUMPDEST DUP3 MSTORE POP POP JUMP JUMPDEST PUSH0 DUP2 MLOAD SWAP1 POP SWAP2 SWAP1 POP JUMP JUMPDEST PUSH0 DUP3 DUP3 MSTORE PUSH1 0x20 DUP3 ADD SWAP1 POP SWAP3 SWAP2 POP POP JUMP JUMPDEST PUSH0 JUMPDEST DUP4 DUP2 LT ISZERO PUSH2 0xD13 JUMPI DUP1 DUP3 ADD MLOAD DUP2 DUP5 ADD MSTORE PUSH1 0x20 DUP2 ADD SWAP1 POP PUSH2 0xCF8 JUMP JUMPDEST PUSH0 DUP5 DUP5 ADD MSTORE POP POP POP POP JUMP JUMPDEST PUSH0 PUSH1 0x1F NOT PUSH1 0x1F DUP4 ADD AND SWAP1 POP SWAP2 SWAP1 POP JUMP JUMPDEST PUSH0 PUSH2 0xD38 DUP3 PUSH2 0xCDC JUMP JUMPDEST PUSH2 0xD42 DUP2 DUP6 PUSH2 0xCE6 JUMP JUMPDEST SWAP4 POP PUSH2 0xD52 DUP2 DUP6 PUSH1 0x20 DUP7 ADD PUSH2 0xCF6 JUMP JUMPDEST PUSH2 0xD5B DUP2 PUSH2 0xD1E JUMP JUMPDEST DUP5 ADD SWAP2 POP POP SWAP3 SWAP2 POP POP JUMP JUMPDEST PUSH0 PUSH1 0x40 DUP3 ADD SWAP1 POP PUSH2 0xD79 PUSH0 DUP4 ADD DUP6 PUSH2 0xCCD JUMP JUMPDEST DUP2 DUP2 SUB PUSH1 0x20 DUP4 ADD MSTORE PUSH2 0xD8B DUP2 DUP5 PUSH2 0xD2E JUMP JUMPDEST SWAP1 POP SWAP4 SWAP3 POP POP POP JUMP JUMPDEST PUSH0 PUSH20 0xFFFFFFFFFFFFFFFFFFFFFFFFFFFFFFFFFFFFFFFF DUP3 AND SWAP1 POP SWAP2 SWAP1 POP JUMP JUMPDEST PUSH0 PUSH2 0xDBD DUP3 PUSH2 0xD94 JUMP JUMPDEST SWAP1 POP SWAP2 SWAP1 POP JUMP JUMPDEST PUSH2 0xDCD DUP2 PUSH2 0xDB3 JUMP JUMPDEST DUP2 EQ PUSH2 0xDD7 JUMPI PUSH0 DUP1 REVERT JUMPDEST POP JUMP JUMPDEST PUSH0 DUP2 CALLDATALOAD SWAP1 POP PUSH2 0xDE8 DUP2 PUSH2 0xDC4 JUMP JUMPDEST SWAP3 SWAP2 POP POP JUMP JUMPDEST PUSH0 PUSH1 0x20 DUP3 DUP5 SUB SLT ISZERO PUSH2 0xE03 JUMPI PUSH2 0xE02 PUSH2 0xC27 JUMP JUMPDEST JUMPDEST PUSH0 PUSH2 0xE10 DUP5 DUP3 DUP6 ADD PUSH2 0xDDA JUMP JUMPDEST SWAP2 POP POP SWAP3 SWAP2 POP POP JUMP JUMPDEST PUSH2 0xE22 DUP2 PUSH2 0xDB3 JUMP JUMPDEST DUP3 MSTORE POP POP JUMP JUMPDEST PUSH0 PUSH2 0x160 DUP3 ADD SWAP1 POP PUSH2 0xE3C PUSH0 DUP4 ADD DUP15 PUSH2 0xBF6 JUMP JUMPDEST DUP2 DUP2 SUB PUSH1 0x20 DUP4 ADD MSTORE PUSH2 0xE4E DUP2 DUP14 PUSH2 0xD2E JUMP JUMPDEST SWAP1 POP DUP2 DUP2 SUB PUSH1 0x40 DUP4 ADD MSTORE PUSH2 0xE62 DUP2 DUP13 PUSH2 0xD2E JUMP JUMPDEST SWAP1 POP DUP2 DUP2 SUB PUSH1 0x60 DUP4 ADD MSTORE PUSH2 0xE76 DUP2 DUP12 PUSH2 0xD2E JUMP JUMPDEST SWAP1 POP DUP2 DUP2 SUB PUSH1 0x80 DUP4 ADD MSTORE PUSH2 0xE8A DUP2 DUP11 PUSH2 0xD2E JUMP JUMPDEST SWAP1 POP DUP2 DUP2 SUB PUSH1 0xA0 DUP4 ADD MSTORE PUSH2 0xE9E DUP2 DUP10 PUSH2 0xD2E JUMP JUMPDEST SWAP1 POP DUP2 DUP2 SUB PUSH1 0xC0 DUP4 ADD MSTORE PUSH2 0xEB2 DUP2 DUP9 PUSH2 0xD2E JUMP JUMPDEST SWAP1 POP DUP2 DUP2 SUB PUSH1 0xE0 DUP4 ADD MSTORE PUSH2 0xEC6 DUP2 DUP8 PUSH2 0xD2E JUMP JUMPDEST SWAP1 POP DUP2 DUP2 SUB PUSH2 0x100 DUP4 ADD MSTORE PUSH2 0xEDB DUP2 DUP7 PUSH2 0xD2E JUMP JUMPDEST SWAP1 POP PUSH2 0xEEB PUSH2 0x120 DUP4 ADD DUP6 PUSH2 0xBF6 JUMP JUMPDEST PUSH2 0xEF9 PUSH2 0x140 DUP4 ADD DUP5 PUSH2 0xE19 JUMP JUMPDEST SWAP13 SWAP12 POP POP POP POP POP POP POP POP POP POP POP POP JUMP JUMPDEST PUSH0 PUSH1 0x20 DUP3 ADD SWAP1 POP PUSH2 0xF1C PUSH0 DUP4 ADD DUP5 PUSH2 0xE19 JUMP JUMPDEST SWAP3 SWAP2 POP POP JUMP JUMPDEST PUSH0 DUP1 REVERT JUMPDEST PUSH0 DUP1 REVERT JUMPDEST PUSH32 0x4E487B7100000000000000000000000000000000000000000000000000000000 PUSH0 MSTORE PUSH1 0x41 PUSH1 0x4 MSTORE PUSH1 0x24 PUSH0 REVERT JUMPDEST PUSH2 0xF60 DUP3 PUSH2 0xD1E JUMP JUMPDEST DUP2 ADD DUP2 DUP2 LT PUSH8 0xFFFFFFFFFFFFFFFF DUP3 GT OR ISZERO PUSH2 0xF7F JUMPI PUSH2 0xF7E PUSH2 0xF2A JUMP JUMPDEST JUMPDEST DUP1 PUSH1 0x40 MSTORE POP POP POP JUMP JUMPDEST PUSH0 PUSH2 0xF91 PUSH2 0xC1E JUMP JUMPDEST SWAP1 POP PUSH2 0xF9D DUP3 DUP3 PUSH2 0xF57 JUMP JUMPDEST SWAP2 SWAP1 POP JUMP JUMPDEST PUSH0 PUSH8 0xFFFFFFFFFFFFFFFF DUP3 GT ISZERO PUSH2 0xFBC JUMPI PUSH2 0xFBB PUSH2 0xF2A JUMP JUMPDEST JUMPDEST PUSH2 0xFC5 DUP3 PUSH2 0xD1E JUMP JUMPDEST SWAP1 POP PUSH1 0x20 DUP2 ADD SWAP1 POP SWAP2 SWAP1 POP JUMP JUMPDEST DUP3 DUP2 DUP4 CALLDATACOPY PUSH0 DUP4 DUP4 ADD MSTORE POP POP POP JUMP JUMPDEST PUSH0 PUSH2 0xFF2 PUSH2 0xFED DUP5 PUSH2 0xFA2 JUMP JUMPDEST PUSH2 0xF88 JUMP JUMPDEST SWAP1 POP DUP3 DUP2 MSTORE PUSH1 0x20 DUP2 ADD DUP5 DUP5 DUP5 ADD GT ISZERO PUSH2 0x100E JUMPI PUSH2 0x100D PUSH2 0xF26 JUMP JUMPDEST JUMPDEST PUSH2 0x1019 DUP5 DUP3 DUP6 PUSH2 0xFD2 JUMP JUMPDEST POP SWAP4 SWAP3 POP POP POP JUMP JUMPDEST PUSH0 DUP3 PUSH1 0x1F DUP4 ADD SLT PUSH2 0x1035 JUMPI PUSH2 0x1034 PUSH2 0xF22 JUMP JUMPDEST JUMPDEST DUP2 CALLDATALOAD PUSH2 0x1045 DUP5 DUP3 PUSH1 0x20 DUP7 ADD PUSH2 0xFE0 JUMP JUMPDEST SWAP2 POP POP SWAP3 SWAP2 POP POP JUMP JUMPDEST PUSH0 DUP1 PUSH0 DUP1 PUSH0 DUP1 PUSH0 DUP1 PUSH2 0x100 DUP10 DUP12 SUB SLT ISZERO PUSH2 0x106B JUMPI PUSH2 0x106A PUSH2 0xC27 JUMP JUMPDEST JUMPDEST PUSH0 DUP10 ADD CALLDATALOAD PUSH8 0xFFFFFFFFFFFFFFFF DUP2 GT ISZERO PUSH2 0x1088 JUMPI PUSH2 0x1087 PUSH2 0xC2B JUMP JUMPDEST JUMPDEST PUSH2 0x1094 DUP12 DUP3 DUP13 ADD PUSH2 0x1021 JUMP JUMPDEST SWAP9 POP POP PUSH1 0x20 DUP10 ADD CALLDATALOAD PUSH8 0xFFFFFFFFFFFFFFFF DUP2 GT ISZERO PUSH2 0x10B5 JUMPI PUSH2 0x10B4 PUSH2 0xC2B JUMP JUMPDEST JUMPDEST PUSH2 0x10C1 DUP12 DUP3 DUP13 ADD PUSH2 0x1021 JUMP JUMPDEST SWAP8 POP POP PUSH1 0x40 DUP10 ADD CALLDATALOAD PUSH8 0xFFFFFFFFFFFFFFFF DUP2 GT ISZERO PUSH2 0x10E2 JUMPI PUSH2 0x10E1 PUSH2 0xC2B JUMP JUMPDEST JUMPDEST PUSH2 0x10EE DUP12 DUP3 DUP13 ADD PUSH2 0x1021 JUMP JUMPDEST SWAP7 POP POP PUSH1 0x60 DUP10 ADD CALLDATALOAD PUSH8 0xFFFFFFFFFFFFFFFF DUP2 GT ISZERO PUSH2 0x110F JUMPI PUSH2 0x110E PUSH2 0xC2B JUMP JUMPDEST JUMPDEST PUSH2 0x111B DUP12 DUP3 DUP13 ADD PUSH2 0x1021 JUMP JUMPDEST SWAP6 POP POP PUSH1 0x80 DUP10 ADD CALLDATALOAD PUSH8 0xFFFFFFFFFFFFFFFF DUP2 GT ISZERO PUSH2 0x113C JUMPI PUSH2 0x113B PUSH2 0xC2B JUMP JUMPDEST JUMPDEST PUSH2 0x1148 DUP12 DUP3 DUP13 ADD PUSH2 0x1021 JUMP JUMPDEST SWAP5 POP POP PUSH1 0xA0 DUP10 ADD CALLDATALOAD PUSH8 0xFFFFFFFFFFFFFFFF DUP2 GT ISZERO PUSH2 0x1169 JUMPI PUSH2 0x1168 PUSH2 0xC2B JUMP JUMPDEST JUMPDEST PUSH2 0x1175 DUP12 DUP3 DUP13 ADD PUSH2 0x1021 JUMP JUMPDEST SWAP4 POP POP PUSH1 0xC0 DUP10 ADD CALLDATALOAD PUSH8 0xFFFFFFFFFFFFFFFF DUP2 GT ISZERO PUSH2 0x1196 JUMPI PUSH2 0x1195 PUSH2 0xC2B JUMP JUMPDEST JUMPDEST PUSH2 0x11A2 DUP12 DUP3 DUP13 ADD PUSH2 0x1021 JUMP JUMPDEST SWAP3 POP POP PUSH1 0xE0 DUP10 ADD CALLDATALOAD PUSH8 0xFFFFFFFFFFFFFFFF DUP2 GT ISZERO PUSH2 0x11C3 JUMPI PUSH2 0x11C2 PUSH2 0xC2B JUMP JUMPDEST JUMPDEST PUSH2 0x11CF DUP12 DUP3 DUP13 ADD PUSH2 0x1021 JUMP JUMPDEST SWAP2 POP POP SWAP3 SWAP6 SWAP9 POP SWAP3 SWAP6 SWAP9 SWAP1 SWAP4 SWAP7 POP JUMP JUMPDEST PUSH0 DUP2 SWAP1 POP SWAP2 SWAP1 POP JUMP JUMPDEST PUSH0 PUSH2 0x1202 PUSH2 0x11FD PUSH2 0x11F8 DUP5 PUSH2 0xD94 JUMP JUMPDEST PUSH2 0x11DF JUMP JUMPDEST PUSH2 0xD94 JUMP JUMPDEST SWAP1 POP SWAP2 SWAP1 POP JUMP JUMPDEST PUSH0 PUSH2 0x1213 DUP3 PUSH2 0x11E8 JUMP JUMPDEST SWAP1 POP SWAP2 SWAP1 POP JUMP JUMPDEST PUSH0 PUSH2 0x1224 DUP3 PUSH2 0x1209 JUMP JUMPDEST SWAP1 POP SWAP2 SWAP1 POP JUMP JUMPDEST PUSH2 0x1234 DUP2 PUSH2 0x121A JUMP JUMPDEST DUP3 MSTORE POP POP JUMP JUMPDEST PUSH0 PUSH1 0x20 DUP3 ADD SWAP1 POP PUSH2 0x124D PUSH0 DUP4 ADD DUP5 PUSH2 0x122B JUMP JUMPDEST SWAP3 SWAP2 POP POP JUMP JUMPDEST PUSH32 0x5365756C206C276167656E7420646520726563727574656D656E742070657574 PUSH0 DUP3 ADD MSTORE PUSH32 0x20696E736572657220756E65206576616C756174696F6E000000000000000000 PUSH1 0x20 DUP3 ADD MSTORE POP JUMP JUMPDEST PUSH0 PUSH2 0x12AD PUSH1 0x37 DUP4 PUSH2 0xCE6 JUMP JUMPDEST SWAP2 POP PUSH2 0x12B8 DUP3 PUSH2 0x1253 JUMP JUMPDEST PUSH1 0x40 DUP3 ADD SWAP1 POP SWAP2 SWAP1 POP JUMP JUMPDEST PUSH0 PUSH1 0x20 DUP3 ADD SWAP1 POP DUP2 DUP2 SUB PUSH0 DUP4 ADD MSTORE PUSH2 0x12DA DUP2 PUSH2 0x12A1 JUMP JUMPDEST SWAP1 POP SWAP2 SWAP1 POP JUMP JUMPDEST PUSH0 PUSH1 0x40 DUP3 ADD SWAP1 POP PUSH2 0x12F4 PUSH0 DUP4 ADD DUP6 PUSH2 0xBF6 JUMP JUMPDEST PUSH2 0x1301 PUSH1 0x20 DUP4 ADD DUP5 PUSH2 0xBF6 JUMP JUMPDEST SWAP4 SWAP3 POP POP POP JUMP JUMPDEST PUSH32 0x5365756C206C276167656E7420646520726563727574656D656E742070657574 PUSH0 DUP3 ADD MSTORE PUSH32 0x20766572696669657220756E206469706C6F6D65000000000000000000000000 PUSH1 0x20 DUP3 ADD MSTORE POP JUMP JUMPDEST PUSH0 PUSH2 0x1362 PUSH1 0x34 DUP4 PUSH2 0xCE6 JUMP JUMPDEST SWAP2 POP PUSH2 0x136D DUP3 PUSH2 0x1308 JUMP JUMPDEST PUSH1 0x40 DUP3 ADD SWAP1 POP SWAP2 SWAP1 POP JUMP JUMPDEST PUSH0 PUSH1 0x20 DUP3 ADD SWAP1 POP DUP2 DUP2 SUB PUSH0 DUP4 ADD MSTORE PUSH2 0x138F DUP2 PUSH2 0x1356 JUMP JUMPDEST SWAP1 POP SWAP2 SWAP1 POP JUMP JUMPDEST PUSH2 0x139F DUP2 PUSH2 0xCC2 JUMP JUMPDEST DUP2 EQ PUSH2 0x13A9 JUMPI PUSH0 DUP1 REVERT JUMPDEST POP JUMP JUMPDEST PUSH0 DUP2 MLOAD SWAP1 POP PUSH2 0x13BA DUP2 PUSH2 0x1396 JUMP JUMPDEST SWAP3 SWAP2 POP POP JUMP JUMPDEST PUSH0 PUSH2 0x13D2 PUSH2 0x13CD DUP5 PUSH2 0xFA2 JUMP JUMPDEST PUSH2 0xF88 JUMP JUMPDEST SWAP1 POP DUP3 DUP2 MSTORE PUSH1 0x20 DUP2 ADD DUP5 DUP5 DUP5 ADD GT ISZERO PUSH2 0x13EE JUMPI PUSH2 0x13ED PUSH2 0xF26 JUMP JUMPDEST JUMPDEST PUSH2 0x13F9 DUP5 DUP3 DUP6 PUSH2 0xCF6 JUMP JUMPDEST POP SWAP4 SWAP3 POP POP POP JUMP JUMPDEST PUSH0 DUP3 PUSH1 0x1F DUP4 ADD SLT PUSH2 0x1415 JUMPI PUSH2 0x1414 PUSH2 0xF22 JUMP JUMPDEST JUMPDEST DUP2 MLOAD PUSH2 0x1425 DUP5 DUP3 PUSH1 0x20 DUP7 ADD PUSH2 0x13C0 JUMP JUMPDEST SWAP2 POP POP SWAP3 SWAP2 POP POP JUMP JUMPDEST PUSH0 DUP1 PUSH1 0x40 DUP4 DUP6 SUB SLT ISZERO PUSH2 0x1444 JUMPI PUSH2 0x1443 PUSH2 0xC27 JUMP JUMPDEST JUMPDEST PUSH0 PUSH2 0x1451 DUP6 DUP3 DUP7 ADD PUSH2 0x13AC JUMP JUMPDEST SWAP3 POP POP PUSH1 0x20 DUP4 ADD MLOAD PUSH8 0xFFFFFFFFFFFFFFFF DUP2 GT ISZERO PUSH2 0x1472 JUMPI PUSH2 0x1471 PUSH2 0xC2B JUMP JUMPDEST JUMPDEST PUSH2 0x147E DUP6 DUP3 DUP7 ADD PUSH2 0x1401 JUMP JUMPDEST SWAP2 POP POP SWAP3 POP SWAP3 SWAP1 POP JUMP JUMPDEST PUSH32 0x4E487B7100000000000000000000000000000000000000000000000000000000 PUSH0 MSTORE PUSH1 0x22 PUSH1 0x4 MSTORE PUSH1 0x24 PUSH0 REVERT JUMPDEST PUSH0 PUSH1 0x2 DUP3 DIV SWAP1 POP PUSH1 0x1 DUP3 AND DUP1 PUSH2 0x14CC JUMPI PUSH1 0x7F DUP3 AND SWAP2 POP JUMPDEST PUSH1 0x20 DUP3 LT DUP2 SUB PUSH2 0x14DF JUMPI PUSH2 0x14DE PUSH2 0x1488 JUMP JUMPDEST JUMPDEST POP SWAP2 SWAP1 POP JUMP JUMPDEST PUSH32 0x5365756C206C2761646D696E6973747261746575722070657574206566666563 PUSH0 DUP3 ADD MSTORE PUSH32 0x74756572206365747465206F7065726174696F6E000000000000000000000000 PUSH1 0x20 DUP3 ADD MSTORE POP JUMP JUMPDEST PUSH0 PUSH2 0x153F PUSH1 0x34 DUP4 PUSH2 0xCE6 JUMP JUMPDEST SWAP2 POP PUSH2 0x154A DUP3 PUSH2 0x14E5 JUMP JUMPDEST PUSH1 0x40 DUP3 ADD SWAP1 POP SWAP2 SWAP1 POP JUMP JUMPDEST PUSH0 PUSH1 0x20 DUP3 ADD SWAP1 POP DUP2 DUP2 SUB PUSH0 DUP4 ADD MSTORE PUSH2 0x156C DUP2 PUSH2 0x1533 JUMP JUMPDEST SWAP1 POP SWAP2 SWAP1 POP JUMP JUMPDEST PUSH0 DUP2 SWAP1 POP DUP2 PUSH0 MSTORE PUSH1 0x20 PUSH0 KECCAK256 SWAP1 POP SWAP2 SWAP1 POP JUMP JUMPDEST PUSH0 PUSH1 0x20 PUSH1 0x1F DUP4 ADD DIV SWAP1 POP SWAP2 SWAP1 POP JUMP JUMPDEST PUSH0 DUP3 DUP3 SHL SWAP1 POP SWAP3 SWAP2 POP POP JUMP JUMPDEST PUSH0 PUSH1 0x8 DUP4 MUL PUSH2 0x15CF PUSH32 0xFFFFFFFFFFFFFFFFFFFFFFFFFFFFFFFFFFFFFFFFFFFFFFFFFFFFFFFFFFFFFFFF DUP3 PUSH2 0x1594 JUMP JUMPDEST PUSH2 0x15D9 DUP7 DUP4 PUSH2 0x1594 JUMP JUMPDEST SWAP6 POP DUP1 NOT DUP5 AND SWAP4 POP DUP1 DUP7 AND DUP5 OR SWAP3 POP POP POP SWAP4 SWAP3 POP POP POP JUMP JUMPDEST PUSH0 PUSH2 0x160B PUSH2 0x1606 PUSH2 0x1601 DUP5 PUSH2 0xBED JUMP JUMPDEST PUSH2 0x11DF JUMP JUMPDEST PUSH2 0xBED JUMP JUMPDEST SWAP1 POP SWAP2 SWAP1 POP JUMP JUMPDEST PUSH0 DUP2 SWAP1 POP SWAP2 SWAP1 POP JUMP JUMPDEST PUSH2 0x1624 DUP4 PUSH2 0x15F1 JUMP JUMPDEST PUSH2 0x1638 PUSH2 0x1630 DUP3 PUSH2 0x1612 JUMP JUMPDEST DUP5 DUP5 SLOAD PUSH2 0x15A0 JUMP JUMPDEST DUP3 SSTORE POP POP POP POP JUMP JUMPDEST PUSH0 SWAP1 JUMP JUMPDEST PUSH2 0x164C PUSH2 0x1640 JUMP JUMPDEST PUSH2 0x1657 DUP2 DUP5 DUP5 PUSH2 0x161B JUMP JUMPDEST POP POP POP JUMP JUMPDEST JUMPDEST DUP2 DUP2 LT ISZERO PUSH2 0x167A JUMPI PUSH2 0x166F PUSH0 DUP3 PUSH2 0x1644 JUMP JUMPDEST PUSH1 0x1 DUP2 ADD SWAP1 POP PUSH2 0x165D JUMP JUMPDEST POP POP JUMP JUMPDEST PUSH1 0x1F DUP3 GT ISZERO PUSH2 0x16BF JUMPI PUSH2 0x1690 DUP2 PUSH2 0x1573 JUMP JUMPDEST PUSH2 0x1699 DUP5 PUSH2 0x1585 JUMP JUMPDEST DUP2 ADD PUSH1 0x20 DUP6 LT ISZERO PUSH2 0x16A8 JUMPI DUP2 SWAP1 POP JUMPDEST PUSH2 0x16BC PUSH2 0x16B4 DUP6 PUSH2 0x1585 JUMP JUMPDEST DUP4 ADD DUP3 PUSH2 0x165C JUMP JUMPDEST POP POP JUMPDEST POP POP POP JUMP JUMPDEST PUSH0 DUP3 DUP3 SHR SWAP1 POP SWAP3 SWAP2 POP POP JUMP JUMPDEST PUSH0 PUSH2 0x16DF PUSH0 NOT DUP5 PUSH1 0x8 MUL PUSH2 0x16C4 JUMP JUMPDEST NOT DUP1 DUP4 AND SWAP2 POP POP SWAP3 SWAP2 POP POP JUMP JUMPDEST PUSH0 PUSH2 0x16F7 DUP4 DUP4 PUSH2 0x16D0 JUMP JUMPDEST SWAP2 POP DUP3 PUSH1 0x2 MUL DUP3 OR SWAP1 POP SWAP3 SWAP2 POP POP JUMP JUMPDEST PUSH2 0x1710 DUP3 PUSH2 0xCDC JUMP JUMPDEST PUSH8 0xFFFFFFFFFFFFFFFF DUP2 GT ISZERO PUSH2 0x1729 JUMPI PUSH2 0x1728 PUSH2 0xF2A JUMP JUMPDEST JUMPDEST PUSH2 0x1733 DUP3 SLOAD PUSH2 0x14B5 JUMP JUMPDEST PUSH2 0x173E DUP3 DUP3 DUP6 PUSH2 0x167E JUMP JUMPDEST PUSH0 PUSH1 0x20 SWAP1 POP PUSH1 0x1F DUP4 GT PUSH1 0x1 DUP2 EQ PUSH2 0x176F JUMPI PUSH0 DUP5 ISZERO PUSH2 0x175D JUMPI DUP3 DUP8 ADD MLOAD SWAP1 POP JUMPDEST PUSH2 0x1767 DUP6 DUP3 PUSH2 0x16EC JUMP JUMPDEST DUP7 SSTORE POP PUSH2 0x17CE JUMP JUMPDEST PUSH1 0x1F NOT DUP5 AND PUSH2 0x177D DUP7 PUSH2 0x1573 JUMP JUMPDEST PUSH0 JUMPDEST DUP3 DUP2 LT ISZERO PUSH2 0x17A4 JUMPI DUP5 DUP10 ADD MLOAD DUP3 SSTORE PUSH1 0x1 DUP3 ADD SWAP2 POP PUSH1 0x20 DUP6 ADD SWAP5 POP PUSH1 0x20 DUP2 ADD SWAP1 POP PUSH2 0x177F JUMP JUMPDEST DUP7 DUP4 LT ISZERO PUSH2 0x17C1 JUMPI DUP5 DUP10 ADD MLOAD PUSH2 0x17BD PUSH1 0x1F DUP10 AND DUP3 PUSH2 0x16D0 JUMP JUMPDEST DUP4 SSTORE POP JUMPDEST PUSH1 0x1 PUSH1 0x2 DUP9 MUL ADD DUP9 SSTORE POP POP POP JUMPDEST POP POP POP POP POP POP JUMP JUMPDEST PUSH32 0x4E487B7100000000000000000000000000000000000000000000000000000000 PUSH0 MSTORE PUSH1 0x11 PUSH1 0x4 MSTORE PUSH1 0x24 PUSH0 REVERT JUMPDEST PUSH0 PUSH2 0x180D DUP3 PUSH2 0xBED JUMP JUMPDEST SWAP2 POP PUSH32 0xFFFFFFFFFFFFFFFFFFFFFFFFFFFFFFFFFFFFFFFFFFFFFFFFFFFFFFFFFFFFFFFF DUP3 SUB PUSH2 0x183F JUMPI PUSH2 0x183E PUSH2 0x17D6 JUMP JUMPDEST JUMPDEST PUSH1 0x1 DUP3 ADD SWAP1 POP SWAP2 SWAP1 POP JUMP INVALID LOG2 PUSH5 0x6970667358 0x22 SLT KECCAK256 COINBASE 0x5C 0xB5 CODESIZE 0xEB 0xF9 JUMPDEST SWAP14 0xAD DUP13 PUSH18 0x28118663C26917AA64C20A3467A695A22EE SLT 0xEF PUSH31 0x64736F6C634300081700330000000000000000000000000000000000000000 "
		},
		"gasEstimates": {
			"creation": {
				"codeDepositCost": "1254400",
				"executionCost": "infinite",
				"totalCost": "infinite"
			},
			"external": {
				"Agent_entreprise_Id()": "2426",
				"EntrepriseId()": "2448",
				"VerifierDiplome(uint256)": "infinite",
				"adminEntreprise()": "2527",
				"creerEntreprise(string,string,string,string,string,string,string,string)": "infinite",
				"entreprises(address)": "infinite",
				"etablissementContrat()": "infinite",
				"insertEvaluation(uint256,uint256)": "infinite"
			}
		},
		"methodIdentifiers": {
			"Agent_entreprise_Id()": "40f50fe1",
			"EntrepriseId()": "4c326c48",
			"VerifierDiplome(uint256)": "5bc4fad8",
			"adminEntreprise()": "7148b488",
			"creerEntreprise(string,string,string,string,string,string,string,string)": "72f91068",
			"entreprises(address)": "65eb3035",
			"etablissementContrat()": "754bd364",
			"insertEvaluation(uint256,uint256)": "4fb8a120"
		}
	},
	"abi": [
		{
			"inputs": [
				{
					"internalType": "contract EtablissementContrat",
					"name": "_contractAddress",
					"type": "address"
				}
			],
			"stateMutability": "nonpayable",
			"type": "constructor"
		},
		{
			"inputs": [],
			"name": "Agent_entreprise_Id",
			"outputs": [
				{
					"internalType": "uint256",
					"name": "",
					"type": "uint256"
				}
			],
			"stateMutability": "view",
			"type": "function"
		},
		{
			"inputs": [],
			"name": "EntrepriseId",
			"outputs": [
				{
					"internalType": "uint256",
					"name": "",
					"type": "uint256"
				}
			],
			"stateMutability": "view",
			"type": "function"
		},
		{
			"inputs": [
				{
					"internalType": "uint256",
					"name": "_id_diplome",
					"type": "uint256"
				}
			],
			"name": "VerifierDiplome",
			"outputs": [
				{
					"internalType": "bool",
					"name": "",
					"type": "bool"
				},
				{
					"internalType": "string",
					"name": "",
					"type": "string"
				}
			],
			"stateMutability": "view",
			"type": "function"
		},
		{
			"inputs": [],
			"name": "adminEntreprise",
			"outputs": [
				{
					"internalType": "address",
					"name": "",
					"type": "address"
				}
			],
			"stateMutability": "view",
			"type": "function"
		},
		{
			"inputs": [
				{
					"internalType": "string",
					"name": "_nom_entreprise",
					"type": "string"
				},
				{
					"internalType": "string",
					"name": "_date_creation",
					"type": "string"
				},
				{
					"internalType": "string",
					"name": "_classification_taille",
					"type": "string"
				},
				{
					"internalType": "string",
					"name": "_pays_entreprise",
					"type": "string"
				},
				{
					"internalType": "string",
					"name": "_adresse_entreprise",
					"type": "string"
				},
				{
					"internalType": "string",
					"name": "_courriel",
					"type": "string"
				},
				{
					"internalType": "string",
					"name": "_telephone",
					"type": "string"
				},
				{
					"internalType": "string",
					"name": "_site_web",
					"type": "string"
				}
			],
			"name": "creerEntreprise",
			"outputs": [],
			"stateMutability": "nonpayable",
			"type": "function"
		},
		{
			"inputs": [
				{
					"internalType": "address",
					"name": "",
					"type": "address"
				}
			],
			"name": "entreprises",
			"outputs": [
				{
					"internalType": "uint256",
					"name": "id_entreprise",
					"type": "uint256"
				},
				{
					"internalType": "string",
					"name": "nom_entreprise",
					"type": "string"
				},
				{
					"internalType": "string",
					"name": "date_creation",
					"type": "string"
				},
				{
					"internalType": "string",
					"name": "classification_taille",
					"type": "string"
				},
				{
					"internalType": "string",
					"name": "pays_entreprise",
					"type": "string"
				},
				{
					"internalType": "string",
					"name": "adresse_entreprise",
					"type": "string"
				},
				{
					"internalType": "string",
					"name": "courriel_entreprise",
					"type": "string"
				},
				{
					"internalType": "string",
					"name": "telephone_entreprise",
					"type": "string"
				},
				{
					"internalType": "string",
					"name": "site_web_entreprise",
					"type": "string"
				},
				{
					"internalType": "uint256",
					"name": "Agent_entreprise",
					"type": "uint256"
				},
				{
					"internalType": "address",
					"name": "recruteur",
					"type": "address"
				}
			],
			"stateMutability": "view",
			"type": "function"
		},
		{
			"inputs": [],
			"name": "etablissementContrat",
			"outputs": [
				{
					"internalType": "contract EtablissementContrat",
					"name": "",
					"type": "address"
				}
			],
			"stateMutability": "view",
			"type": "function"
		},
		{
			"inputs": [
				{
					"internalType": "uint256",
					"name": "_id_etudiant",
					"type": "uint256"
				},
				{
					"internalType": "uint256",
					"name": "_evaluation",
					"type": "uint256"
				}
			],
			"name": "insertEvaluation",
			"outputs": [],
			"stateMutability": "nonpayable",
			"type": "function"
		}
	]
}